:020000040800F2
:10000000D84F002035020008D1430008D541000830
:10001000CD4300085D160008D54E00080000000022
:100020000000000000000000000000004147000840
:1000300061160008000000004144000899470008CC
:100040004F0200084F0200084F0200084F0200084C
:100050004F0200084F0200084F0200084F0200083C
:100060004F0200084F0200084F0200084F0200082C
:100070004F0200084F0200084F0200084F0200081C
:100080004F0200084F0200084F0200084F0200080C
:100090004F0200084F0200084F0200084F020008FC
:1000A0004F0200084F0200084F0200084F020008EC
:1000B000114800084F0200084F0200084F020008D4
:1000C0004F0200084F0200084F0200084F020008CC
:1000D0004F020008C54E00084F0200084F020008FA
:1000E0004F0200084F0200084F02000800F002F81B
:1000F00000F090F80AA090E8000C82448344AAF132
:100100000107DA4501D100F085F8AFF2090EBAE82F
:100110000F0013F0010F18BFFB1A43F0010318473B
:10012000505C0100705C0100103A24BF78C878C1AF
:10013000FAD8520724BF30C830C144BF04680C60ED
:10014000704700000023002400250026103A28BF35
:1001500078C1FBD8520728BF30C148BF0B60704739
:100160006E2900F0C582702900F00F84662915F011
:100170002F82652915F02C82672915F029826129C3
:1001800015F0288203681B0A28BF41F08001692905
:1001900000F07282642900F06F82752900F06C8291
:1001A0006F2900F09D83782900F0DB83E92900F0B6
:1001B0003783E42900F03483F52900F03183EF29F7
:1001C00000F09A83F82900F0DA830368DB0928BF7E
:1001D00041F08001632901F01181732901F016813A
:1001E000E32901F02181F32901F0268100207047E5
:1001F0001FB500F0DBF904000020002115F0BCF968
:10020000401C60600020002115F0CCF9E0601FBDAB
:1002100010B510BD01F038F91146FFF7E9FF09F0FC
:1002200093FC01F009FA03B4FFF7F2FF03BC01F0FD
:100230000DFA00000948804709480047FEE7FEE73D
:10024000FEE7FEE7FEE7FEE7FEE7FEE7FEE7FEE786
:1002500004480549054A064B704700000D48000850
:10026000ED000008D8490020D84F0020D84B0020CE
:10027000D84B002010B500F099F9001D10BD00BF4B
:10028000F952010010B50446FFF7F4FF0068005D65
:10029000C00602D504F1200010BD204610BD0000AC
:1002A0000FB41CB5084B06AA7B446946009005981C
:1002B00000F037FA04460020694600F045FA20466F
:1002C0001CBC5DF814FB00009D0400000FB41CB5BD
:1002D0000C0007AA009007D04142A14202D320445B
:1002E000401E01E04FF0FF30074B7B446946019010
:1002F000069800F016FA0021002C01D0009A117027
:100300001CBC5DF814FB0000650400007CB51D46B4
:1003100016460C00009007D04142A14202D320446F
:10032000401E01E04FF0FF30064B7B442A466946F1
:100330000190304600F0F5F9002C02D0009A00211F
:1003400011707CBD2504000030B505460B462A46D9
:1003500013F8014B12F8010B08B1A042F8D01CB100
:10036000002802D06D1CF1E7284630BD40EA0103A9
:1003700010B59B070FD1042A0DD310C808C9121F4E
:100380009C42F8D020BA19BA884201D9012010BD88
:100390004FF0FF3010BD1AB1D30703D0521C07E055
:1003A000002010BD10F8013B11F8014B1B1B07D1B9
:1003B00010F8013B11F8014B1B1B01D1921EF1D12A
:1003C000184610BD40EA0103024630B59B0710D124
:1003D0004FF0013400E008C208C91D1B9D4315EA17
:1003E000C41FF8D013F0FF0102F8011B0DD01B0A47
:1003F000F8E711F8013B002B02F8013B05D011F89A
:10040000013B002B02F8013BF3D130BD10B5431C7A
:1004100002E010F8011B71B18107FAD14FF00132EF
:1004200002C88C1A8C4314EAC211F9D0C01A0A0609
:1004300003D0C01E10BDC01A10BD0A0401D0801E1A
:1004400010BD0902FCD0401E10BD032A40F23080CE
:1004500010F0030C00F0158011F8013BBCF1020F05
:10046000624498BF11F801CB00F8013B38BF11F886
:10047000013BA2F1040298BF00F801CB38BF00F89D
:10048000013B11F0030300F04F83083AC0F00880ED
:1004900051F8043B083A51F804CBA0E80810F5E7FE
:1004A000121D5CBF51F8043B40F8043BAFF30080E1
:1004B000D20724BF11F8013B11F801CB48BF11F856
:1004C000012B24BF00F8013B00F801CB48BF00F826
:1004D000012B70474FF0000200B513469446964634
:1004E000203922BFA0E80C50A0E80C50B1F1200147
:1004F000BFF4F7AF090728BFA0E80C5048BF0CC0F5
:100500005DF804EB890028BF40F8042B08BF704752
:1005100048BF20F8022B11F0804F18BF00F8012BC4
:10052000704700004FF0013C50F8042B51F8043B99
:100530009A4221D1A2EB0C03934313EACC1317D1B7
:1005400050F8042B51F8043B9A4215D1A2EB0C034E
:10055000934313EACC130BD150F8042B51F8043B0E
:100560009A4209D1A2EB0C03934313EACC13DBD0DC
:100570004FF00000704700BFD01A01BAB1FA81F104
:1005800001F0180122FA01F0CB40DBB2C0B2C01A70
:10059000C1F120012CFA01F3D11A914311EAC311E0
:1005A000E6D17047704770477047000000487047B9
:1005B0004000002070B5044685690068C10601D579
:1005C000302600E02026C00707D070BDD4E9012105
:1005D00030469047206A401C20626D1EF6D570BDE3
:1005E00070B5044685690078C00707D170BDD4E9AD
:1005F000012120209047206A401C20626D1EF6D504
:1006000070BD09684A0501D540B27047C905FCD5DF
:1006100000B2704709684A0501D5C0B27047C905E4
:10062000FCD580B2704770B50C460546012A05D04E
:100630002878800600D5EA69002302E0012305E05E
:100640005B1C934202D2E05C0028F9D1A869E6184D
:10065000C01AA861286A184428622846FFF7AAFF32
:1006600004E0D5E9012114F8010B9047B442F8D316
:100670002846FFF7B5FF70BD2DE9F041064600247E
:1006800010687529314616A510D0FFF7BAFF00286B
:1006900002DA404213A507E031688A0701D512A5A6
:1006A00002E0490704D511A5012401E0FFF7B2FFDC
:1006B00000210A2206F1240709E0B0FBF2FCB0FB9E
:1006C000F2F302FB1C00303078541846491C002815
:1006D000F3D123462A463046BDE8F04100F09FBAE8
:1006E000000000002D0000002B0000002000000092
:1006F00011680268006A530501D508700AE0D30545
:1007000001D5088006E0130603D5C217C1E900022F
:1007100000E008600120704701694A1C0261087806
:10072000704700B58FB0CDE9013100210591054931
:100730007944CDE903101146684600F031F90FB055
:1007400000BD0000E5FFFFFF0A6802F8010B0A6028
:100750007047D1E900239A4202D2531C0B601070FB
:10076000704700002DE9FF5F15468A460446DFF812
:10077000AC80F8440027D8E900103E46CDE90010CF
:1007800010E03AF816106A4602A800F059FE411C23
:1007900007D02178890603D5E269391891420DD82E
:1007A0000744761C2078800602D5E069B84205DD52
:1007B000AE42E6DB3AF816000028E2D1A069C01B81
:1007C000A0612046FFF7F6FED8E90010CDE9001041
:1007D000002017E03AF818106A4602A800F030FE30
:1007E000B0F1FF3F81460BD000250DF1080B05E06D
:1007F000D4E901211BF8050090476D1C4D45F7D346
:1008000008F10100B0428046E4DB206A38442062EF
:100810002046FFF7E5FEBDE8FF9F0000624E0100A5
:100820002DE9F0418046D21D22F007020025D2E9D1
:100830000002F52915A614D0011E72F1000106DA96
:100840000023D0EB030063EB020211A608E0D8F806
:1008500000108B0701D50FA602E0490701D50EA6AF
:1008600001251146002408F1240704E000F092F964
:1008700030323A55641C50EA0102F7D12B46324619
:1008800021464046BDE8F04100F0C9B90000000033
:100890002D0000002B0000002000000030B40021DB
:1008A00000F1240408E002F00705D208303542EADE
:1008B0004372DB086554491C52EA0305F3D104680E
:1008C000002310A2250708D504F020040C4304D00F
:1008D000C46901230CA2641EC46130BC00F09FB93E
:1008E00010B5044621461068FFF794FE02462046E4
:1008F000BDE810400023D1E7D21D22F00701D1E965
:100900000023CBE70000000030000000F0B40D46EB
:100910000188090502D5214C7C4402E01F4C7C442F
:100920000E34002100F1240608E002F00F0712093E
:10093000E75D42EA03721B097754491C52EA030738
:10094000F3D102780023120704D5702D06D009B127
:10095000022311342246F0BC00F061B901231034A7
:10096000F8E770B504460D4621461068FFF752FEC1
:10097000024629462046BDE870400023C6E7D21D46
:1009800022F00703D3E90023C0E70368126843F0AD
:10099000200303600823C3610023B7E7C44C0100B0
:1009A0002DE9F05F894604464FF0000ADFF874B184
:1009B000FB44C0F820A02046E1688847002874D096
:1009C000252806D0D4E901219047206A401C2062E6
:1009D000F1E700265F462046E16888472028054663
:1009E00007DB312D05D2781910F8200C08B1064329
:1009F000F1E7B00701D526F00406C4F81CA00027D3
:100A0000C4F818A02A2D09D0284614F0ADFD38B33B
:100A100004EB8708303DC8F8185019E059F8041B5A
:100A2000204604EB87029161E1688847012F054663
:100A300018D1E069002820DA26F020061DE0D8F859
:100A4000180000EB800005EB40003038C8F81800B3
:100A50002046E1688847054614F086FD0028EED15F
:100A6000012F0AD02E2D08D12046E16888477F1C2F
:100A70000546022F46F02006C4DBA069002803DAF1
:100A8000404246F00106A061F00701D026F01006B2
:100A90006C2D0BD0682D09D04C2D39D06A2D35D056
:100AA000742D35D07A2D33D016E038E0E1682F462A
:100AB00020468847B842054609D16C2F26D04FF40E
:100AC0008060E168064320468847054604E06C2FB5
:100AD0001AD04FF4807006430DB3A5F141001928D8
:100AE00002D8203546F400664A462946204626604C
:100AF0004E46FFF735FB80B101280BD0F61D26F0DE
:100B0000070000F1080956E74020E4E78020D8E715
:100B10000020D6E706F104094DE7284652E7206A8F
:100B2000BDE8F09F544C010010B5203AC0F00B8096
:100B3000B1E81850A0E81850B1E81850A0E81850D3
:100B4000203ABFF4F5AF5FEA027C24BFB1E8185049
:100B5000A0E8185044BF18C918C0BDE810405FEAAB
:100B6000827C24BF51F8043B40F8043B08BF704727
:100B7000D20728BF31F8023B48BF11F8012B28BF2C
:100B800020F8023B48BF00F8012B7047004870472F
:100B90002000002030B5B0F10A0271F100034FEAE5
:100BA000900E4EEA817EB0EB0E0061EB91014FEAB0
:100BB000101E4EEA017E10EB0E0041EB11114FEAC0
:100BC000102E4EEA016E10EB0E0041EB11214FEAA0
:100BD000104E4EEA014E10EB0E0041EB1141401851
:100BE00041F100014FEAD00040EA41704FEAD101E3
:100BF0004FEA810444EA907410EB800544EB010451
:100C00006D1944EB0404521BA3414FF0000348BF8D
:100C10000A3200D530BD401C41F1000130BD2DE944
:100C2000F0470D4699469246044600F124080168B3
:100C3000880604D5E06921F01001216000E0012060
:100C4000A84201DD471B00E00027A1697A1902EBE9
:100C50000900081AA0612078C00602D42046FFF7D8
:100C6000A9FC002608E0D4E901211AF80600904703
:100C7000206A401C761C20624E45F4DB2078C006BA
:100C80000AD52046FFF796FC06E0D4E90121302082
:100C90009047206A401C2062381EA7F10107F4DC4F
:100CA00007E0D4E9012118F805009047206A401CAC
:100CB0002062281EA5F10105F3DC2046FFF790FC19
:100CC0002078000602D50220BDE8F0870120FBE76E
:100CD0002DE9FF4F0C461E464FF0FF378BB0D2E98F
:100CE0000001DDF860800A908A46C1F30A5505B913
:100CF0003D46002108464FF00000BAF1000F00F415
:100D0000400005DA00EB80004FF4400101EA50009A
:100D10004FEA9059B9F1010F00DDB9460A9850EA3F
:100D20004A000ED044F61050A5F2FF3545432F146B
:100D3000B8F1000F1ED07542291E1EDDC9F1000258
:100D40001CE0B8F1010F4FF0000001D0302103E0AA
:100D5000F24305E02154401CB042FBDB3046002248
:100D6000002121540B99C1F80880C1E900200FB07F
:100D7000BDE8F08FBD1B6D1CDEE74A4600DA694214
:100D800006A800F0E7FB06AB93E8070003AB83E897
:100D9000070050460A9914F00BF88DE80700A0F5FB
:100DA00000501F3800900398002D0ADD42F21F0109
:100DB0004A460844002303A90390684614F074FAD5
:100DC00009E0A0F500504A461F38002303A903900C
:100DD000684614F07EFA8DE807000004000C03D08A
:100DE0004FF0FF30410800E01046B8F1000F03D08B
:100DF0000022009215461EE0751E05D4FFF7CAFEBC
:100E0000303262556D1EF9D5B3460122084302D037
:100E100000227F1C04E02078302801D100227F1EB0
:100E2000002A099784D01DE0112D07DAFFF7B2FEE2
:100E3000303262556D1C50EA0102F5D1084302D0F0
:100E40000098C8B10EE00021681E05E0235C625CDA
:100E500063542254401E491C8142F7DBAB46A81B59
:100E6000401E0990002004F80B000B98099AC0F866
:100E70000880C0E9002B7AE711264FF0000857E7F9
:100E80002DE9F04F88460446D21D22F0070191B0AB
:100E9000D1E90001CDE90A0114F052FB02460B989A
:100EA000C00F01D02D2007E02068810701D52B203D
:100EB00002E0202101EAC000032A099001D0072A9C
:100EC00005DB03464146204600F004FB0BE1207899
:100ED000800601D5E06900E00620B8F1650F814683
:100EE00006D0B8F1660F18D0B8F1670F70D131E0B5
:100EF0000020B9F1110F009001DB112301E009F18D
:100F000001030AAA01A90CA8FFF7E2FEDDE90C70B3
:100F1000002609F10105834647E001204B46009079
:100F20004FF000470AAA01A90CA8FFF7D1FEDDE99E
:100F30000DB00C995D46002610B909F101000D189D
:100F4000B9EB050003D4C0F1FF3609F10105A5EBAB
:100F500009002BE0B9F1010F01DA4FF0010900207F
:100F6000B9F1110F0090484601DD112300E003465E
:100F70000AAA01A90CA8FFF7ABFEDDE90C704D46EB
:100F800000268346207800070AD4AB4500DA5D4688
:100F900001A8012D04DD411911F8011C302907D0E9
:100FA0004F4502DA17F1040F04DA012082460FE000
:100FB0006D1EEEE7002F02DCED1B3E4403E0781CC3
:100FC000A84200DD7D1CB81B00F1010A4FF000476C
:100FD0002078000703D4AA4501DB4FF0FF3A002137
:100FE000B7F1004F0DF143088DF8431024D00220D3
:100FF0002B23002F01DA7F422D230A21021EA0F1AC
:10100000010000DC5FB197FBF1FC97FBF1F201FB03
:101010001C7C17460CF1300C08F801CDEEE7A8F166
:10102000010003702188090501D5452100E06521F3
:10103000A0F1010800F8011C09980FA9A1EB08070D
:10104000FF1D00B10120411901EBEA70A16938448C
:10105000081A401EA0612078C00602D42046FFF77F
:10106000A9FA099828B1D4E901219047206A401CC7
:1010700020622078C00622D52046FFF79BFA1EE0AA
:10108000002E04DBB34502DD01A8805D00E03020C6
:10109000D4E901219047206A401C2062761CAAF105
:1010A00001005FEA000A0AD1FFF780FAC068016810
:1010B000405CD4E901219047206A401C2062281E30
:1010C000A5F10105DCDC07E0D4E9012118F8010BEA
:1010D0009047206A401C2062381EA7F10107F3DC0C
:1010E0002046FFF77DFA032011B041E62DE9F04FCD
:1010F00004460D46D21D22F0070089B0D0E90097C2
:101100004846394614F01CFA0246F80F01D02D2348
:1011100007E02068810701D52B2302E0202101EAA6
:10112000C0038DF820300BB1012000E00020032A1D
:10113000824601D0072A04DB2946204600F0CAF97E
:101140003FE12078800601D40D2500E0E569C7F372
:101150000A560D2D49DA00214FEA175B08464FF079
:101160000000002F00F4400007DA00EB80004FF48D
:10117000400100EBD07001EA60008115012901DD1A
:101180004FF0FF3100224FEA850CBCF1180F06D357
:101190001346ACF118004FF08052C24003E04FF408
:1011A000801323FA0CF30CF10C0CBCF1200F04D3C8
:1011B000ACF1200C09FA0CF001E007FA0CF0002960
:1011C0004FF0004801DD18B90FE00ED140450CD3B7
:1011D00019EB02095F4121B9404502D19F4329EA39
:1011E0000209BBEB175F00D0761C2088000502D5F2
:1011F0007B48784402E07A487844193808AA3023BA
:1012000002F80A30037C0AF10101002E0AF1020AF9
:1012100053546A4602DC4FF0300101E04FF03101D7
:101220004FF001088DF8001002D0A6F2FF3603E05F
:1012300059EA470100D06B4E002D02DC21780907E6
:1012400004D54FF002082E218DF80110C44600216C
:101250000BE0C7F303433F01C35C491C6D1E02F85A
:101260000830052908F1010801DA002DF1DC002120
:101270000CE000EB1973491C1B786D1E082902F85D
:1012800008304FEA091908F1010801DA002DF0DCF5
:1012900021688B0602D516E0A8F10108E04505DDBE
:1012A00002EB080313F8013C302BF5D0B8F1000F26
:1012B00009DD02EB080313F8013C2E2B03D10907CB
:1012C00001D4A8F10108002D05DD3E2102F8081027
:1012D0006D1E08F10108407C002E02F8080008F19C
:1012E000010804DA2D20764202F8080002E02B20E3
:1012F00002F808000A214FF47A70864208F10108CA
:101300000BDB96FBF0F3303302F8083096FBF0F37A
:1013100008F1010800FB136601E0642E0CDB642079
:1013200096FBF0F3303302F8083096FBF0F308F147
:10133000010800FB136601E00A2E06DB96FBF1F0C4
:10134000303002F8080008F1010896FBF1F001FBCB
:101350001060303002F80800A16908F1010808EBBC
:10136000050202EB0A00081AA0612078C00602D428
:101370002046FFF71FF9216A08AE01EB0A00206240
:1013800004E0D4E9012116F8010B9047BAF1010AF3
:10139000F7D22078C00602D52046FFF70BF96E463B
:1013A00009E016F8010B3E280FD0D4E9012190473F
:1013B000206A401C2062B8F10108F2D22046FFF7F3
:1013C0000FF909B00320BDE8F08F206A284420629D
:1013D00003E0D4E90121302090476D1EEBD3F8E7FC
:1013E0003644010002FCFFFF10B5436913B1AFF3AF
:1013F000008001E0FFF717F9012010BD127800F11D
:1014000024010A7000224A700122EDE711684FF0B2
:10141000FF32E9E710B5436913B1AFF3008001E093
:10142000FFF7A0F9012010BD128800F12401828489
:101430000022C2840122EDE711684FF0FF32E9E794
:101440002DE9F04116460C460546FEF713FF0368EA
:1014500093F80101012807D0FF2C12D8185D80B144
:1014600001202C70BDE8F081D3F8070132462146F7
:1014700003F20713C7182846BC46BDE8F041002315
:1014800060474FF0FF30EDE77546FFF77FFBAE4654
:1014900005006946534620F00700854618B020B580
:1014A000FEF7D6FEBDE820404FF000064FF00007E3
:1014B0004FF000084FF0000BAC46ACE8C009ACE8B8
:1014C000C009ACE8C009ACE8C00921F007018D46AD
:1014D000704700002DE9F0411F46044603260168CD
:1014E000072A01F4006004DB08B116A505E016A583
:1014F00003E008B115A500E015A521F0100020605B
:10150000A069C01EA0610FB1401EA0612046FFF778
:1015100051F84FB1D4E9012138469047206A401C68
:101520002062C01C206206E0206AFAE7D4E90121AB
:1015300015F8010B9047761EF8D22046FFF750F8B9
:10154000BDE8F0814E414E006E616E00494E46008E
:10155000696E66002DE9F047814616468AB0354827
:1015600078440DC88DE80D0032487844801C03ACE7
:101570000DC884E80D0041F69B300844372190FBEC
:10158000F1F290FBF1F5A5F1800501FB12041B3C83
:1015900002D56442012000E00020DFF898A08046D8
:1015A0000027FA44AAF1BE0A0EE0E0070AD032464C
:1015B000684607EB470101230AEB810113F089FE1E
:1015C0008DE8070064107F1C002CEED1194F7F447A
:1015D000AE3F19E0E80715D007EB04100DF1180A2B
:1015E00090E80E008AE80E00C068F04201D1981918
:1015F00008903246012306A903A813F06AFE03AB44
:1016000083E807006D10641C002DE3D14FF0010347
:1016100032466946B8F1000F03A802D013F044FE29
:1016200001E013F056FEC9E90001C9F808200AB02C
:10163000BDE8F0875841010010B50446AFF30080C3
:101640002046BDE81040FEF7EEBD0000014918201D
:10165000ABBEFEE72600020070470000FFE7FEE792
:101660007047000080B582B0ADF80600009140F6EA
:101670000040C4F201000221002200F0ABFD3A203C
:1016800002F0B6FFFFE7BDF8060068B1FFE7BDF85E
:1016900006000138ADF8060002F092FF00990870CC
:1016A000009801300090EEE700990020087040F6A5
:1016B0000040C4F201000221012200F08BFD02B0C3
:1016C00080BD000080B582B08DF807009DF807004E
:1016D00000F0600040F28001C2F200010978884207
:1016E00016D0FFE7A0201F210091032200F07CF913
:1016F00000999DF8070000F0600240F28000C2F2FD
:101700000000027000784209802000F06DF9FFE7C8
:1017100002B080BD80B545F63700C0F6010003F089
:10172000B9FB80BD80B582B08DF807009DF8070039
:10173000FFF7C8FF9DF80710002000F009F802B07D
:1017400080BD000080B53A20002100F001F880BD86
:1017500080B582B08DF807008DF8061040F6004085
:10176000C4F201000221002200F034FD9DF80700C0
:101770009DF8061001F01F01084302F039FF9DF8A3
:1017800006000006002803D5FFE702F019FFFFE777
:1017900002F016FF8DF8050040F60040C4F201008B
:1017A0000221012200F016FD9DF8050002B080BD67
:1017B00080B584B00390ADF80A100020ADF80600A3
:1017C0003920FFF7AFFF01286FDBFFE740F282000F
:1017D000C2F2000000900188002000F0D5F8FFF769
:1017E000B1FF00990880FFF7ADFF00990246088815
:1017F00040EA02200880FFF7A5FFADF80600FFF7DA
:10180000A1FF0146BDF8060040EA0120ADF8060040
:10181000BDF806000438ADF80600BDF80600BDF8B6
:101820000A10884205DDFFE7BDF80A00ADF80600A2
:10183000FFE7FFF787FFADF80800FFF783FF0146DA
:10184000BDF8080040EA0120ADF808009DF8080046
:101850000006002804D4FFE70020ADF8060005E0EC
:10186000BDF806000399FFF7FDFEFFE740F2820096
:10187000C2F2000000880138B0F5406F06DBFFE7D8
:101880000C2040F6FF3100F07FF808E040F28200C3
:10189000C2F2000001880C2000F076F8FFE78020FB
:1018A0001E21402200F0A0F8FFE7BDF8060004B0BA
:1018B00080BD000080B582B00190ADF80210FFE756
:1018C0001F20FFF72FFF0007002801D5FFE7F7E7EC
:1018D00002204FF4406100F057F8BDF8020000F517
:1018E000406081B2062000F04FF87A2000221146B5
:1018F00000F07AF8BDF80200019900F007F88020A6
:101900001F21082200F070F802B080BD80B582B0BF
:10191000ADF80600009140F60040C4F2010002213B
:10192000002200F057FC7A2002F062FEFFE7BDF8CB
:101930000600411EADF8061038B1FFE70098411CC3
:101940000091007802F054FEF1E740F60040C4F246
:1019500001000221012200F03DFC02B080BD000028
:1019600080B582B08DF807008DF806109DF807004D
:10197000FFF7A8FE9DF807109DF80620402000F014
:1019800033F802B080BD000080B582B08DF807004A
:10199000ADF804109DF807009DF80410FFF7E0FF74
:1019A0009DF8070001309DF80510C0B2FFF7D8FF81
:1019B00002B080BD80B582B08DF80700ADF804108C
:1019C0009DF80710D420FFF7CBFFBDF80410D620F8
:1019D000FFF7DAFFFFE7EA20FFF7A4FEC00708B130
:1019E000FFE7F8E702B080BD80B584B08DF80F0046
:1019F0008DF80E108DF80D2040F60040C4F2010065
:101A0000019002210291002200F0E4FB9DF80F00FA
:101A10009DF80E1001F01F01084302F0E9FD9DF84A
:101A20000D0002F0E5FD01980299012200F0D2FBC1
:101A300004B080BD10B594B01390139840F6B42153
:101A4000C2F20001086045F65D00C0F6010003F037
:101A500021FAFF201F210022FFF7C6FF022000F01D
:101A6000F3F9FFE700201D21FFF772FE08B9FFE739
:101A7000F8E70020FFF756FEFA2803D0FFE7FFF74C
:101A800049FECAE040F28200C2F200000021049147
:101A900001800820FFF778FF0A2040F6FF31FFF7AA
:101AA00073FF042010904FF44061FFF76DFF062094
:101AB00041F2FF11FFF768FF04990C20FFF764FF64
:101AC00004990E20FFF760FFC0200D900D21FFF755
:101AD00047FF0499C120FFF743FF80200E90C221E9
:101AE0003222FFF781FFC62040F61241FFF74CFF7C
:101AF000C4201221FFF734FFCA2040F2DC51FFF767
:101B000043FF45F24870C0F6010005900178E420DB
:101B10000690FFF725FF05984178E5200790FFF72D
:101B20001FFF05988178E2200890FFF719FF0598BC
:101B3000C178E3200990FFF713FF05980179E020B1
:101B40000A90FFF70DFF05984179E1200B90FFF710
:101B500007FF0698FFF7E6FD014607988DF8461047
:101B6000FFF7E0FD014608988DF84710FFF7DAFD12
:101B7000014609988DF84810FFF7D4FD01460A98F0
:101B80008DF84910FFF7CEFD01460B988DF84A10ED
:101B9000FFF7C8FD8DF84B009DF846209DF84730B3
:101BA0009DF848009DF849C09DF84AE09DF84B40DB
:101BB0006946CC60C1F808E0C1F804C0086040F292
:101BC000E450C2F200000C9045F67A01C0F6010123
:101BD000FEF766FB0C9803F05DF910204FF480715E
:101BE000FFF7E8FE142040F27641FFF7E3FE1F20E6
:101BF0000F90FFF767FD0D9A0E981B21FFF7F4FE7B
:101C000075200221FFF7ACFE012000F01DF90E98AF
:101C10000F99109AFFF7E8FEFFE714B010BD00001F
:101C200082B041F2D410C2F20000406880B3FFE7F6
:101C300041F2D410C2F200000090416840F2080264
:101C4000C2F2000211704168090A5170C188917096
:101C5000C179D170816840F20402C2F200021170B1
:101C60008168090A517041899170C17AD170C26846
:101C700040F20C01C2F200010A70C268120A4A70F6
:101C8000C2898A70C07BC87001208DF8070003E00C
:101C900000208DF80700FFE79DF8070002B07047AD
:101CA00081B0EFF3108072B60090FFE7FEE700000E
:101CB00083B0019000208DF80300019890F8210076
:101CC00002280DD0FFE7019904208863FFE70199FE
:101CD000002081F82000FFE701208DF80B0021E0B3
:101CE00001980168086820F00E00086001980168FA
:101CF000086820F0010008600198C16B026C0120A7
:101D000090404860FFE70199012081F82100FFE73A
:101D10000199002081F82000FFE79DF803008DF86D
:101D20000B00FFE79DF80B0003B0704780B588B04B
:101D3000079000208DF81B00079890F821000228DA
:101D400007D0FFE707990420886301208DF81B0066
:101D500076E007980168086820F00E000860079890
:101D60000168086820F001000860079800680821F1
:101D7000C4F20201884203D1FFE70120059047E049
:101D8000079800681C21C4F20201884203D1FFE7D2
:101D90001020049039E0079800683021C4F2020155
:101DA000884204D1FFE74FF4807003902AE007983F
:101DB00000684421C4F20201884204D1FFE74FF4D5
:101DC000805002901BE0079800685821C4F202017D
:101DD000884204D1FFE74FF4803001900CE007986F
:101DE00001686C22C4F202024FF08070914208BF79
:101DF0004FF480100190FFE701980290FFE70298EE
:101E00000390FFE703980490FFE704980590FFE72D
:101E100005980421C4F2020108600799012081F8A5
:101E20002100FFE70799002081F82000FFE70798CD
:101E3000406B20B1FFE70798416B8847FFE7FFE75A
:101E40009DF81B0008B080BD80B584B0039000F001
:101E5000D9F90290039801900198013048B1FFE749
:101E600040F21800C2F20000017801980844019085
:101E7000FFE7FFE700F0C6F90299401A019988428E
:101E800001D2FFE7F6E704B080BD000090B00F90EC
:101E90000E9100200D900990FFE70E9800680D99B3
:101EA000C840002800F07F81FFE70D99012088409D
:101EB0000C900E9800680C9908400B900B980C99A8
:101EC000884240F06C81FFE70E984068059000283A
:101ED00051D0FFE7059801283AD0FFE7059802287E
:101EE0003FD0FFE7059803285FD0FFE7059811284A
:101EF00032D0FFE70598122838D0FFE70598002177
:101F0000C1F21101884236D0FFE705980021C1F2E5
:101F1000120188422FD0FFE705980021C1F221016C
:101F2000884228D0FFE705980021C1F222018842AB
:101F300021D0FFE705980021C1F2310188421AD073
:101F4000FFE705980021C1F23201884213D02FE04B
:101F50000E98C06809902CE00E98C0680430099073
:101F600027E00E98C0680830099022E00E98C068FB
:101F70000C3009901DE00E98806818B9FFE7042026
:101F8000099011E00E988068012806D1FFE708202B
:101F900009900C980F99086105E0082009900C98A9
:101FA0000F994861FFE7FFE703E00020099000E098
:101FB000FFE70B98FF2803D8FFE70F98049003E092
:101FC0000F9804300490FFE7049808900B98FF28BE
:101FD00004D8FFE70D988000039006E00D996FF09C
:101FE0001F0000EB81000390FFE70398079008981B
:101FF0000068079A0F21914088430999914008434E
:10200000089908600E98C079C006002840F1C68083
:10201000FFE7FFE741F21800C4F20200016841F057
:1020200001010160006800F0010006900698FFE7DA
:102030000D9820F003000821C4F2010140580A90D5
:102040000D9800F0030081000F2000FA01F10A98BA
:1020500088430A900F9840F60001C4F201018842BB
:1020600003D1FFE70020029026E00F9840F60041E0
:10207000C4F20101884203D1FFE70120019018E07A
:102080000F9841F20001C4F20101884203D1FFE739
:10209000022000900AE00F9941F20042C4F20102CE
:1020A0000420914208BF03200090FFE700980190B0
:1020B000FFE701980290FFE702980D9901F00301F4
:1020C000890000FA01F10A9808430A900A980D99CC
:1020D00021F003010822C4F2010288500E98807991
:1020E000C006002809D5FFE70B9A40F20841C4F268
:1020F000010108681043086008E00B9A40F20841AB
:10210000C4F20101086890430860FFE70E988079E7
:102110008006002809D5FFE70B9A40F20C41C4F273
:10212000010108681043086008E00B9A40F20C4176
:10213000C4F20101086890430860FFE70E988079B7
:102140008007002809D5FFE70B9A40F20441C4F24A
:10215000010108681043086008E00B9A40F204414E
:10216000C4F20101086890430860FFE70E98807987
:10217000C00748B1FFE70B9A40F20041C4F20101E9
:1021800008681043086008E00B9A40F20041C4F26E
:102190000101086890430860FFE7FFE7FFE70D983B
:1021A00001300D9079E610B07047000083B00290C6
:1021B000ADF806100298C0680090009ABDF80600BD
:1021C00002EA0001904340EA01400299086103B02D
:1021D0007047000082B00190ADF802108DF8012028
:1021E0009DF8010028B1FFE7BDF8020001990861E0
:1021F00005E0BDF80200000401990861FFE702B0A4
:102200007047000044F6D410C2F200000068704726
:1022100040F21800C2F20000027844F6D411C2F273
:1022200000010868104408607047000080B542F261
:102230000001C4F20201086840F0100008600320A9
:1022400000F096F80F2000F005F800F03BF80020B1
:1022500080BD000080B582B0009040F20000C2F264
:102260000000006840F21801C2F200010A784FF441
:102270007A71B1FBF2F1B0FBF1F001F049F920B154
:10228000FFE701208DF8070018E000980F280DD80F
:10229000FFE700994FF0FF30002200F04FF8009860
:1022A00040F21C01C2F20001086003E001208DF839
:1022B000070003E000208DF80700FFE79DF8070006
:1022C00002B080BD83B0FFE741F21800C4F2020003
:1022D000016841F001010160006800F00100029016
:1022E0000298FFE7FFE741F21C00C4F20200016818
:1022F00041F080510160006800F080500190019829
:10230000FFE7FFE70421C4F201010868009000988C
:1023100020F0E0600090009840F00070009000987D
:102320000860FFE703B0704780B582B08DF8070002
:102330009DF9070002F0ECFE02B080BD80B586B0CA
:102340008DF81700049103920020029002F0F8FE2D
:1023500002909DF91700019002980499039A02F0E7
:1023600039F80146019802F0F3FE06B080BD000086
:1023700080B582B00190019802F00CFF02B080BDE0
:1023800080B584B002900191029820B9FFE7012046
:102390008DF80F001BE1019842F20001C4F2020126
:1023A000096801F00701884216D9FFE742F20000F0
:1023B000C4F20200016821F00701019A1143016093
:1023C000006800F007000199884204D0FFE701206F
:1023D0008DF80F00FBE0FFE70298007880070028E7
:1023E0002AD5FFE7029800784007002809D5FFE7C3
:1023F00041F20401C4F20201086840F4E0600860A0
:10240000FFE7029800780007002809D5FFE741F2AE
:102410000401C4F20201086840F460500860FFE75C
:1024200041F20401C4F20201086820F0F000029AAF
:10243000926810430860FFE702980078C007002800
:1024400060D0FFE70298406801280ED1FFE741F213
:102450000000C4F2020000688003002804D4FFE7F3
:1024600001208DF80F00B2E021E0029840680228B8
:102470000ED1FFE741F20000C4F2020000688001C3
:10248000002804D4FFE701208DF80F009FE00DE045
:1024900041F20000C4F2020000688007002804D462
:1024A000FFE701208DF80F0091E0FFE7FFE741F221
:1024B0000401C4F20201086820F00300029A526885
:1024C00010430860FFF79EFE0090FFE741F2040012
:1024D000C4F20200006800F00C0002994968B0EBF9
:1024E000810F0ED0FFE7FFF78DFE0099401A41F2F1
:1024F0008931884204D3FFE703208DF80F0066E09E
:10250000E4E7FFE7019842F20001C4F20201096822
:1025100001F00701884216D2FFE742F20000C4F240
:102520000200016821F00701019A1143016000686F
:1025300000F007000199884204D0FFE701208DF8E0
:102540000F0044E0FFE702980078400700280CD510
:10255000FFE741F20401C4F20201086820F4E060E0
:10256000029AD26810430860FFE7029800780007DB
:1025700000280DD5FFE741F20401C4F2020108680A
:1025800020F46050029A126940EAC2000860FFE736
:1025900000F04CF841F20401C4F202010968C9B22A
:1025A0000A0945F2EC61C0F60101895CC84040F2BD
:1025B0000001C2F20001086040F21C00C2F20000FB
:1025C0000068FFF747FE00208DF80F00FFE79DF839
:1025D0000F0004B080BD000040F20000C2F2000015
:1025E0000068704780B5FFF7F7FF41F20401C4F2BD
:1025F00002010968C1F3022245F2FC61C0F6010143
:10260000895CC84080BD000080B5FFF7E5FF41F25E
:102610000401C4F202010968C1F3C22245F2FC615F
:10262000C0F60101895CC84080BD000086B0002072
:102630000590049003900290019041F20400C4F2CE
:10264000020000680590059800F00C00014600911A
:1026500000283FD0FFE70098042804D0FFE7009847
:10266000082806D037E041F20020C0F27A0001903D
:1026700037E00598C0F3834145F20470C0F60100CD
:10268000405C02909DF81600C007C0B1FFE741F220
:102690000400C4F202000068C0F3404145F2147027
:1026A000C0F60100405C0490029841F20021C0F2A3
:1026B0007A0148430499B0FBF1F0039007E00298D7
:1026C00040F60011C0F23D0148430390FFE7039834
:1026D000019006E0FFE741F20020C0F27A0001908D
:1026E000FFE7019806B0704780B586B00490049863
:1026F00020B9FFE701208DF817002EE30498007839
:10270000C007002800F0AE80FFE741F20400C4F2E9
:102710000200006800F00C00042813D0FFE741F22B
:102720000400C4F20200006800F00C0008281BD16D
:10273000FFE741F20400C4F202000068C003002871
:1027400012D5FFE741F20000C4F2020000688003E6
:10275000002808D5FFE70498406820B9FFE701206A
:102760008DF81700F9E27CE0FFE704984068B0F5C7
:10277000803F09D1FFE741F20001C4F2020108687D
:1027800040F48030086032E00498406868B9FFE7A0
:1027900041F20001C4F20201086820F480300860B0
:1027A000086820F48020086020E004984068B0F5B4
:1027B000A02F0DD1FFE741F20001C4F20201086829
:1027C00040F480200860086840F4803008600CE025
:1027D00041F20001C4F20201086820F48030086070
:1027E000086820F480200860FFE7FFE7FFE7FFE7C5
:1027F00004984068D0B1FFE7FFF704FD0390FFE7BE
:1028000041F20000C4F202000068800300280CD4EA
:10281000FFE7FFF7F7FC0399401A652804D3FFE7A9
:1028200003208DF8170098E2EAE719E0FFF7EAFCC9
:102830000390FFE741F20000C4F202000068800349
:1028400000280CD5FFE7FFF7DDFC0399401A652847
:1028500004D3FFE703208DF817007EE2EAE7FFE7E5
:10286000FFE7FFE7049800788007002840F18D809B
:10287000FFE741F20400C4F20200006810F00C0F00
:1028800013D0FFE741F20400C4F20200006800F038
:102890000C00082829D1FFE741F20400C4F202002D
:1028A0000068C003002820D4FFE741F20000C4F212
:1028B000020000688007002809D5FFE70498006936
:1028C000012804D0FFE701208DF8170045E241F20E
:1028D0000001C4F20201086820F0F800049A52696D
:1028E00040EAC2000860FFE74EE00498006958B370
:1028F000FFE70021C4F2422101200860FFF782FCBB
:102900000390FFE741F20000C4F202000068800774
:1029100000280CD4FFE7FFF775FC0399401A032841
:1029200004D3FFE703208DF8170016E2EAE741F22F
:102930000001C4F20201086820F0F800049A52690C
:1029400040EAC20008601EE00021C4F242210020DB
:102950000860FFF757FC0390FFE741F20000C4F264
:1029600002000068800700280CD5FFE7FFF74AFC4B
:102970000399401A032804D3FFE703208DF81700BA
:10298000EBE1EAE7FFE7FFE7FFE7049800780007DD
:10299000002848D5FFE70498806918B3FFE740F2A4
:1029A0008041C4F2422101200860FFF72BFC039014
:1029B000FFE741F22400C4F202000068800700280B
:1029C0000CD4FFE7FFF71EFC0399401A032804D339
:1029D000FFE703208DF81700BFE1EAE7012001F0CF
:1029E00031FD1FE040F28041C4F242210020086026
:1029F000FFF708FC0390FFE741F22400C4F2020055
:102A00000068800700280CD5FFE7FFF7FBFB039960
:102A1000401A032804D3FFE703208DF817009CE138
:102A2000EAE7FFE7FFE7049800784007002840F155
:102A3000D880FFE700208DF8070041F21C00C4F2A7
:102A400002000068C000002813D4FFE7FFE741F24E
:102A50001C00C4F20200016841F08051016000686E
:102A600000F0805000900098FFE701208DF80700EB
:102A7000FFE747F20000C4F200000068C00500282C
:102A800022D4FFE747F20001C4F20001086840F4D5
:102A900080700860FFF7B6FB0390FFE747F2000085
:102AA000C4F200000068C00500280CD4FFE7FFF75F
:102AB000A9FB0399401A652804D3FFE703208DF88A
:102AC00017004AE1EAE7FFE7FFE70498C06801283A
:102AD00009D1FFE741F22001C4F20201086840F089
:102AE0000100086031E00498C06868B9FFE741F26E
:102AF0002001C4F20201086820F0010008600868A3
:102B000020F0040008601FE00498C06805280DD17B
:102B1000FFE741F22001C4F20201086840F004001E
:102B20000860086840F0010008600CE041F22001F4
:102B3000C4F20201086820F001000860086820F073
:102B400004000860FFE7FFE7FFE7FFE70498C068BD
:102B5000E0B1FFE7FFF756FB0390FFE741F22000EB
:102B6000C4F202000068800700280ED4FFE7FFF7D8
:102B700049FB0399401A41F28931884204D3FFE7A7
:102B800003208DF81700E8E0E8E71BE0FFF73AFBC9
:102B90000390FFE741F22000C4F2020000688007C2
:102BA00000280ED5FFE7FFF72DFB0399401A41F2ED
:102BB0008931884204D3FFE703208DF81700CCE069
:102BC000E8E7FFE79DF80700012809D1FFE741F298
:102BD0001C01C4F20201086820F080500860FFE781
:102BE000FFE70498C069002800F0B380FFE741F2D6
:102BF0000400C4F20200006800F00C00082800F095
:102C00008280FFE70498C06902285CD1FFE7602159
:102C1000C4F2422100200860FFF7F4FA0390FFE7B6
:102C200041F20000C4F202000068800100280CD5C7
:102C3000FFE7FFF7E7FA0399401A032804D3FFE7F9
:102C400003208DF8170088E0EAE70498006AB0F5E1
:102C5000803F0CD1FFE741F20401C4F20201086891
:102C600020F40030049A926810430860FFE741F2B4
:102C70000401C4F20201086820F47410049B1A6A6B
:102C80005B6A1A43104308606021C4F242210120AC
:102C90000860FFF7B7FA0390FFE741F20000C4F2C3
:102CA00002000068800100280CD4FFE7FFF7AAFAB1
:102CB0000399401A032804D3FFE703208DF8170077
:102CC0004BE0EAE71EE06021C4F2422100200860E8
:102CD000FFF798FA0390FFE741F20000C4F2020008
:102CE0000068800100280CD5FFE7FFF78BFA0399F5
:102CF000401A032804D3FFE703208DF817002CE0C7
:102D0000EAE7FFE724E00498C069012804D1FFE75F
:102D100001208DF8170020E041F20400C4F2020007
:102D200000680290029800F480300499096A884291
:102D300008D1FFE7029800F470100499496A8842AC
:102D400004D0FFE701208DF8170006E0FFE7FFE75A
:102D5000FFE700208DF81700FFE79DF8170006B089
:102D600080BD000080B584B00290029820B9FFE7D2
:102D700001208DF80F006DE00298406A60B9FFE70E
:102D800002984068B0F5827F01D1FFE703E0029925
:102D90000020C861FFE705E0029900200861029960
:102DA0004861FFE7029900208862029890F851007C
:102DB00040B9FFE70299002081F85000029800F026
:102DC0004DF8FFE70299022081F85100029801684E
:102DD000086820F040000860029A0192116850686B
:102DE000D2F808C0D36800F482700CF4044C60443C
:102DF00003F400631844136903F002031844536991
:102E000003F001031844936903F400731844D36971
:102E100003F038031844136A03F080031843926ADE
:102E200002F40052104308600299488B00F004003D
:102E30000968486002980168C86920F40060C861A8
:102E4000029900204865029A012182F851108DF8FC
:102E50000F00FFE79DF80F0004B080BD80B58AB079
:102E60000990002008900790069005900998006846
:102E700043F20001C4F20101884237D1FFE7FFE7C6
:102E800041F21800C4F20200016841F4805101606F
:102E9000006800F4805004900498FFE7FFE741F2D7
:102EA0001800C4F20200016841F0040101600068EA
:102EB00000F0040003900398FFE7A0200590022093
:102EC00006900320089040F60000C4F20100019033
:102ED00005A90291FEF7DAFF0198029940220592B6
:102EE000002206920792FEF7D1FFFFE70AB080BDED
:102EF00080B588B006900591ADF8122003930020AC
:102F00008DF80700FFE7069890F85000012804D1DB
:102F1000FFE702208DF81F0031E10699012081F8BA
:102F20005000FFE7FFE7FFF76DF90290BDF81200D0
:102F3000ADF80400069890F85100012804D0FFE78E
:102F400002208DF807000FE1059820B1FFE7BDF8DA
:102F5000120020B9FFE701208DF8070004E106996F
:102F6000032081F851000699002048650599069ACA
:102F70001163BDF81210069A9186BDF81210069AD8
:102F8000D18606998863069988870699C887069925
:102F900048640699086406988068B0F5004F0DD122
:102FA000FFE706980168086820F04000086006986E
:102FB0000168086840F480400860FFE706980068F0
:102FC000006800F04000402807D0FFE7069801683D
:102FD000086840F040000860FFE70698C068B0F558
:102FE000006F4BD1FFE70698406828B1FFE7BDF8B6
:102FF000040001280ED1FFE706980168006B0088E5
:10300000C8600699086B023008630699C88E0138BB
:10301000C886FFE7FFE70698C08E70B3FFE7069803
:1030200000688068800700280ED5FFE706980168D1
:10303000006B0088C8600699086B02300863069927
:10304000C88E0138C88617E0FFF7DCF80299401AED
:103050000399884204D3FFE70398013018B9FFE7CA
:10306000039840B9FFE703208DF807000699012077
:1030700081F8510078E0FFE7CDE74AE00698406824
:1030800028B1FFE7BDF8040001280ED1FFE706983C
:103090000168006B007808730699086B01300863BB
:1030A0000699C88E0138C886FFE7FFE70698C08EEC
:1030B00070B3FFE7069800688068800700280ED587
:1030C000FFE706980168006B007808730699086BA3
:1030D000013008630699C88E0138C88617E0FFF7EB
:1030E00091F80299401A0399884204D3FFE70398A4
:1030F000013018B9FFE7039840B9FFE703208DF8C6
:1031000007000699012081F851002DE0FFE7CDE787
:10311000FFE706980399029A01F030FA20B1FFE721
:10312000069920204865FFE70698806870B9FFE798
:10313000FFE70020009006980068C068009006989D
:103140000068806800900098FFE7FFE70698406DF0
:1031500020B1FFE701208DF8070004E00699012067
:1031600081F85100FFE7FFE7FFE70699002081F8AB
:103170005000FFE79DF807008DF81F00FFE79DF85E
:103180001F0008B080BD000080B58EB0DDF840C0E3
:103190000C900B910A92ADF826300120059000208A
:1031A0008DF81300FFE70C9890F85000012804D127
:1031B000FFE702208DF83700A6E10C99012081F885
:1031C0005000FFE7FFE7FFF71DF806900C9890F816
:1031D00051008DF81F000C9840680890BDF826003B
:1031E000ADF824009DF81F00012812D0FFE70898D1
:1031F000B0F5827F09D1FFE70C98806828B9FFE716
:103200009DF81F00042804D0FFE702208DF813006A
:103210006FE10B9838B1FFE70A9820B1FFE7BDF8DE
:10322000260020B9FFE701208DF8130061E10C981A
:1032300090F85100042805D0FFE70C99052081F88B
:103240005100FFE70C99002048650A990C9A916398
:10325000BDF826100C9AD187BDF826100C9A9187DC
:103260000B990C9A1163BDF826100C9AD186BDF803
:1032700026100C9A91860C9908640C9948640C9855
:103280000068006800F04000402807D0FFE70C9875
:103290000168086840F040000860FFE70C98C068CB
:1032A000B0F5006F7AD1FFE70C98406828B1FFE7CE
:1032B000BDF8240001280ED1FFE70C980168006BCF
:1032C0000088C8600C99086B023008630C99C88E9E
:1032D0000138C886FFE7FFE70C98C18E01200290F5
:1032E00039B9FFE70C98C08F002818BF0120029061
:1032F000FFE70298C00700284FD0FFE70C9800684E
:1033000080688007002818D5FFE70C98C08EA0B110
:10331000FFE70598012810D1FFE70C980168006BC2
:103320000088C8600C99086B023008630C99C88E3D
:103330000138C88600200590FFE70C980068806877
:10334000C007A8B1FFE70C98C08F88B1FFE70C98C1
:103350000068C0680C99896B08800C99886B0230F2
:1033600088630C99C88F0138C88701200590FFE752
:10337000FEF748FF0699401A109988420CD3FFE7E0
:103380001098013040B1FFE703208DF813000C992D
:10339000012081F85100ACE09EE77CE00C98406889
:1033A00028B1FFE7BDF8240001280ED1FFE70C98F3
:1033B0000168006B007808730C99086B0130086392
:1033C0000C99C88E0138C886FFE7FFE70C98C18EBC
:1033D0000120019039B9FFE70C98C08F002818BF71
:1033E00001200190FFE70198C007002852D0FFE7B5
:1033F0000C98006880688007002818D5FFE70C98B3
:10340000C08EA0B1FFE70598012810D1FFE70C9806
:103410000168006B007808730C99086B0130086331
:103420000C99C88E0138C88600200590FFE70C98DB
:1034300000688068C007A8B1FFE70C98C08F88B10A
:10344000FFE70C980068C0680C99896B08700C99AC
:10345000886B013088630C99C88F0138C8870120B8
:103460000590FFE7FEF7CEFE0699401A10998842B4
:1034700004D3FFE71098013018B9FFE7109840B95E
:10348000FFE703208DF813000C99012081F851000B
:103490002FE09BE7FFE70C981099069A01F06EF871
:1034A00038B1FFE701208DF813000C992020486502
:1034B0001FE00C98806870B9FFE7FFE700200390D9
:1034C0000C980068C06803900C98006880680390AE
:1034D0000398FFE7FFE70C98406D20B1FFE701205C
:1034E0008DF8130004E00C99012081F85100FFE7EA
:1034F000FFE7FFE70C99002081F85000FFE79DF8F7
:1035000013008DF83700FFE79DF837000EB080BD3F
:1035100080B582B00190019801F014F902B080BD2D
:1035200081B0009001B0704781B0009001B0704749
:1035300085B003900291FFE7039890F83C000128C2
:1035400004D1FFE702208DF813005BE0039901200E
:1035500081F83C00FFE7FFE70399022081F83D0076
:1035600003980068406801900398006880680090A4
:10357000019820F0700001900298016801980843BA
:10358000019001980399096848600398006842F621
:103590000041C4F20101884218D0FFE70398006897
:1035A000B0F1804F12D0FFE70398006840F200416D
:1035B000C4F20001884209D0FFE70398006840F692
:1035C0000001C4F2000188420ED1FFE7009820F00C
:1035D000800000900298416800980843009000988D
:1035E000039909688860FFE70399012081F83D008D
:1035F000FFE70399002081F83C00FFE700208DF8E9
:103600001300FFE79DF8130005B0704780B582B046
:103610000090009820B9FFE701208DF807003FE0F7
:10362000009890F83D0040B9FFE70099002081F82C
:103630003C00009800F038F8FFE70099022081F87C
:103640003D00009951F8040B01F0EAF800990120BF
:1036500081F84600FFE70099012081F83E000099BB
:1036600081F83F00009981F84000009981F84100FD
:10367000FFE7FFE70099012081F84200009981F8F7
:103680004300009981F84400009981F84500FFE764
:103690000099012081F83D0000208DF80700FFE728
:1036A0009DF8070002B080BD80B584B003900398F8
:1036B0000068B0F1804F19D1FFE7FFE741F21C002D
:1036C000C4F20200016841F001010160006800F0ED
:1036D000010002900298FFE71C2001900022114691
:1036E000FEF72CFE0198FEF71FFEFFE704B080BD39
:1036F00080B586B00490039100208DF80B00FFE7A1
:10370000049890F83C00012804D1FFE702208DF8CE
:103710001700ABE00499012081F83C00FFE7FFE7C8
:103720000499022081F83D000498006880680190A7
:10373000019820F077000190019820F47F400190DB
:10374000019804990968886003980068009000282F
:1037500072D0FFE7009810286ED0FFE7009820286D
:103760006AD0FFE70098302866D0FFE7009840282D
:1037700055D0FFE70098502837D0FFE70098602821
:1037800040D0FFE7009870280BD0FFE70098B0F515
:10379000805F05D0FFE70098B0F5005F16D052E0DB
:1037A00055E004980068039B5A689968DB6801F04B
:1037B000AFF80498006880680190019840F07700A5
:1037C0000190019804990968886040E004980068B5
:1037D000039B5A689968DB6801F09AF804980168BD
:1037E000886840F48040886031E004980068039A5B
:1037F0005168D26801F0BCF804980068502101F0CB
:10380000A1F824E004980068039A5168D26801F096
:10381000D7F804980068602101F094F817E0049844
:103820000068039A5168D26801F0A2F80498006811
:10383000402101F087F80AE00498006803990968BC
:1038400001F080F803E001208DF80B00FFE70499F8
:10385000012081F83D00FFE70499002081F83C0039
:10386000FFE79DF80B008DF81700FFE79DF81700A4
:1038700006B080BD81B0009001B0704780B582B0C5
:10388000019001980068006900F002010020B0EB8F
:10389000510F28D0FFE701980068C06800F00201CE
:1038A0000020B0EB510F1DD0FFE7019801686FF0C9
:1038B0000200086101990120087701980068806979
:1038C000800720B1FFE70198FFF7D4FF06E00198D9
:1038D00000F012F9019800F013F9FFE701990020B8
:1038E0000877FFE7FFE701980068006900F004012E
:1038F0000020B0EB910F29D0FFE701980068C06865
:1039000000F004010020B0EB910F1ED0FFE70198FA
:1039100001686FF00400086101990220087701989E
:103920000068806910F4407F04D0FFE70198FFF73A
:10393000A1FF06E0019800F0DFF8019800F0E0F840
:10394000FFE7019900200877FFE7FFE7019800688B
:10395000006900F008010020B0EBD10F28D0FFE78C
:1039600001980068C06800F008010020B0EBD10F9A
:103970001DD0FFE7019801686FF008000861019908
:103980000420087701980068C069800720B1FFE72C
:103990000198FFF76FFF06E0019800F0ADF801987D
:1039A00000F0AEF8FFE7019900200877FFE7FFE796
:1039B00001980068006900F010010020B0EB111FB1
:1039C00029D0FFE701980068C06800F010010020CE
:1039D000B0EB111F1ED0FFE7019801686FF01000D7
:1039E000086101990820087701980068C06910F4FF
:1039F000407F04D0FFE70198FFF73CFF06E0019805
:103A000000F07AF8019800F07BF8FFE701990020B8
:103A10000877FFE7FFE7019800680069C00780B1F9
:103A2000FFE701980068C068C00748B1FFE7019848
:103A300001686FF001000861019800F065F8FFE788
:103A4000FFE7019800680069C1B20020B0EBD11F08
:103A500013D0FFE701980068C068C1B20020B0EB46
:103A6000D11F09D0FFE7019801686FF0800008615D
:103A70000198FFF755FDFFE7FFE70198006800692F
:103A800000F040010020B0EB911F14D0FFE7019837
:103A90000068C06800F040010020B0EB911F09D021
:103AA000FFE7019801686FF040000861019800F09D
:103AB0002FF8FFE7FFE701980068006900F0200198
:103AC0000020B0EB511F14D0FFE701980068C068D8
:103AD00000F020010020B0EB511F09D0FFE7019852
:103AE00001686FF0200008610198FFF71DFDFFE7F6
:103AF000FFE702B080BD000081B0009001B07047C8
:103B000081B0009001B0704781B0009001B0704763
:103B100081B0009001B0704782B00190ADF8021002
:103B200002B0704781B0009001B0704780B592B08C
:103B30001190119800680068109011980068C06892
:103B40000F901198006840690E9000200D900C9025
:103B5000109800F00F000D900D9888B9FFE79DF8C0
:103B60004000800600280AD5FFE79DF83C0080064B
:103B7000002804D5FFE7119800F0BAFFE9E1FFE75C
:103B80000D98002800F0C280FFE79DF83800C007BC
:103B900038B9FFE7BDF83C0010F4907F00F0B68024
:103BA000FFE79DF84000C00758B1FFE79DF83D00D2
:103BB000C00730B1FFE71199486C40F0010048643C
:103BC000FFE79DF84000400700280BD5FFE79DF870
:103BD0003800C00730B1FFE71199486C40F002008F
:103BE0004864FFE79DF84000800700280BD5FFE7F9
:103BF0009DF83800C00730B1FFE71199486C40F0DC
:103C000004004864FFE79DF840000007002811D534
:103C1000FFE79DF83C008006002805D4FFE79DF8EB
:103C20003800C00730B1FFE71199486C40F0080038
:103C30004864FFE71198406C002866D0FFE79DF8C4
:103C40004000800600280AD5FFE79DF83C0080066A
:103C5000002804D5FFE7119800F04AFFFFE711980C
:103C600000684069C0F380100C901198406C000708
:103C7000002804D4FFE70C9800283ED0FFE71198F5
:103C800000F0D8FE119800684069400600282FD542
:103C9000FFE7FFE7FFE71198006850E8050F20F005
:103CA00040000B90FFE70B991198026842E805105D
:103CB0000028F0D1FFE7FFE71198C06B98B1FFE74C
:103CC0001198C16B44F61520C0F6000048631198A6
:103CD000C06BFEF72BF828B1FFE71198C06B416B62
:103CE0008847FFE703E01198FFF71CFFFFE703E0B9
:103CF0001198FFF717FFFFE706E01198FFF712FF93
:103D0000119900204864FFE7FFE722E11198006B5A
:103D1000012840F0FE80FFE79DF84000C006002823
:103D200040F1F780FFE79DF83C00C006002840F115
:103D3000F080FFE7FFE700200A9011980068006814
:103D40000A901198006840680A900A98FFE7119855
:103D5000006840694006002840F18180FFE7119823
:103D6000C06B00684068ADF82600BDF8260000284A
:103D700074D0FFE7BDF826001199898D88426DDA6D
:103D8000FFE7BDF826001199C8851198C06B8069BE
:103D9000202858D0FFE7FFE7FFE71198006850E8B8
:103DA000030F20F480700890FFE7089911980268CB
:103DB00042E803100028F0D1FFE7FFE7FFE7FFE745
:103DC0001198006850E8050F20F001000790FFE708
:103DD00007991198026842E805100028F0D1FFE722
:103DE000FFE7FFE7FFE71198006850E8050F20F0B4
:103DF00040000690FFE706991198026842E8051016
:103E00000028F0D1FFE7FFE71199202081F8420058
:103E1000119900200863FFE7FFE71198006850E858
:103E2000030F20F010000590FFE705991198026834
:103E300042E803100028F0D1FFE7FFE71198C06BBC
:103E4000FDF736FFFFE71199022048631198818D35
:103E5000C28D891A89B2FFF75FFEFFE779E01199F9
:103E6000888DC98D401AADF812001198C08D0028B8
:103E70004ED0FFE7BDF81200002849D0FFE7FFE76A
:103E8000FFE71198006850E8030F20F4907003904A
:103E9000FFE703991198026842E803100028F0D167
:103EA000FFE7FFE7FFE7FFE71198006850E8050F1D
:103EB00020F001000290FFE702991198026842E8A1
:103EC00005100028F0D1FFE7FFE71199202081F8C5
:103ED0004200119900200863FFE7FFE7119800688E
:103EE00050E8030F20F010000190FFE701991198AE
:103EF000026842E803100028F0D1FFE7FFE71199BC
:103F0000022048631198BDF81210FFF705FEFFE785
:103F10001FE09DF84000000600280AD5FFE79DF845
:103F20003C000006002804D5FFE7119800F0F4FEDD
:103F30000FE09DF84000400600280AD5FFE79DF8F5
:103F40003C004006002804D5FFE7119800F0BCFDB6
:103F5000FFE712B080BD000080B582B000900098ED
:103F600020B9FFE701208DF8070040E00098806944
:103F700008B1FFE700E0FFE7009890F8410040B982
:103F8000FFE70099002081F84000009800F034F825
:103F9000FFE70099242081F8410000980168C86873
:103FA00020F40050C860009800F058FE00980168A6
:103FB000086920F49040086100980168486920F081
:103FC0002A00486100980168C86840F40050C86041
:103FD000009900204864009A202182F84110009A3C
:103FE00082F84210009948638DF80700FFE79DF8BA
:103FF000070002B080BD000080B58CB00B9000209F
:104000000A900990089007900B98006843F6000109
:10401000C4F20101884243D1FFE7FFE741F21800F3
:10402000C4F20200016841F480410160006800F4BC
:10403000804006900698FFE7FFE741F21800C4F2BF
:104040000200016841F004010160006800F0040012
:1040500005900598FFE74FF4007007900220089044
:1040600003200A9040F60000C4F20100019007A965
:104070000291FDF70BFF019802994FF480620792BD
:104080000022039208920992FDF700FF039A25206F
:1040900004901146FEF752F90498FEF745F9FFE740
:1040A0000CB080BD81B0009001B0704780B58AB07F
:1040B00008900791ADF81A20059300200290089807
:1040C00090F84100202878D1FFE7079820B1FFE75A
:1040D000BDF81A0020B9FFE701208DF8270070E035
:1040E0000899002048640899212081F84100FEF7D2
:1040F00089F80290BDF81A0008998884BDF81A0062
:104100000899C88408988068B0F5805F09D1FFE7F6
:104110000898006928B9FFE70020049007980390E9
:1041200004E00798049000200390FFE7FFE7089859
:10413000C08C58B3FFE70898029B05996A46116046
:104140008021002200F032FE20B1FFE703208DF82D
:10415000270036E0049858B9FFE7039800886FF30A
:104160005F2008990968486003980230039008E0CE
:104170000498007808990968486004980130049010
:10418000FFE70899C88C0138C884D0E70898029BDB
:1041900005996A4611604021002200F007FE20B117
:1041A000FFE703208DF827000BE00899202081F815
:1041B000410000208DF8270003E002208DF8270041
:1041C000FFE79DF827000AB080BD000081B0009095
:1041D00001B07047FFE7FEE780B58EB000200D907C
:1041E0000C900B900A90FFE741F21800C4F2020015
:1041F000016841F020010160006800F02000099092
:104200000998FFE7FFE741F21800C4F202000168D5
:1042100041F004010160006800F004000890089873
:10422000FFE7FFE741F21800C4F20200016841F025
:1042300008010160006800F0080007900798FFE798
:1042400040F60040C4F201000490022103910122D3
:104250000192FDF7BFFF049804210691002202920B
:10426000FDF7B8FF019904980A910022C1F22102DA
:104270000B920C910AA90591FDF708FE019A039B88
:10428000049805990A930B920C9203220D92FDF764
:10429000FDFDDDF804C0029B039A04980599DDF842
:1042A00018E0CDF828E0CDF82CC00C930D92FDF766
:1042B000EDFD0EB080BD000080B582B040F6B820A4
:1042C000C2F20000019043F20001C4F2010101605A
:1042D0004FF48271416000218160C16001614161E0
:1042E0004FF4007282610822C26101624162816200
:1042F0000A21C162FEF736FD18B1FFE7FDF7D0FCD9
:10430000FFE702B080BD000080B588B000210191B8
:1043100007910691059104910391029140F61030A6
:10432000C2F200004FF08042026041F61F4242603C
:10433000816042F21072C26001618161FFF766F92B
:1043400018B1FFE7FDF7ACFCFFE74FF48050049095
:1043500040F61030C2F2000004A9FFF7C9F918B105
:10436000FFE7FDF79DFCFFE700200290039040F679
:104370001030C2F2000002A9FFF7DAF818B1FFE727
:10438000FDF78EFCFFE708B080BD000080B582B06D
:1043900040F65C30C2F20000019043F60001C4F226
:1043A000010101604FF41651416000218160C1603C
:1043B00001610C2242618161C161FFF7CDFD18B13D
:1043C000FFE7FDF76DFCFFE702B080BDFFE7FEE70A
:1043D000FFE7FEE788B0079006910592079800F086
:1043E000070004900498C0F10700052803D3FFE7F5
:1043F0000420019004E00498C0F107000190FFE759
:104400000198039004980430062803D8FFE70020A1
:10441000009003E0049803380090FFE700980290B2
:1044200006980399012202FA01F101390840029B22
:10443000984005999A40013A1140084308B07047E6
:104440007047000082B00190019840F20001C2F272
:1044500000010968C90844F6D352C1F26202A1FB07
:104460000221890948430090FFE700BFFFE7009859
:10447000411E00910028F8D1FFE702B0704700000C
:1044800080B586B005900491039240F28400C2F298
:1044900000000190FFE70198007818B9FFE700F0ED
:1044A0001BFDFFE7FFE7EFF311804FF0200181F3E1
:1044B0001188009005980499039A00F007F802907B
:1044C000009880F31188029806B080BD80B58AB04C
:1044D00009900891079208980490099800EB400110
:1044E00040F28400C2F2000000EBC10018300390DB
:1044F00003984069029040B1FFE70298012819D063
:10450000FFE7029802282CD032E0039800F02EFD3D
:10451000059005980799884203D2FFE7002006908E
:1045200007E00798069003980499079A00F0AEFDFB
:10453000FFE720E0039800F019FD05900598079922
:10454000884203D2FFE70598019002E007980190A6
:10455000FFE70198069003980499069A00F096FDEB
:1045600009E003980499079A00F020FD069002E004
:1045700000200690FFE706980AB080BD80B586B09F
:104580000490039102920498039B02996A46116079
:104590008021002200F03EF848B1FFE70499486D01
:1045A00040F02000486503208DF8170003E000204C
:1045B0008DF81700FFE79DF8170006B080BD0000DA
:1045C00080B582B0FF208DF8070040F6B420C2F21B
:1045D000000000686A460A2111600DF107010DF123
:1045E00006020123FEF7D0FD9DF8060002B080BD53
:1045F00080B582B08DF8070040F6B420C2F200000A
:1046000000680DF1070101220A23FEF771FC02B0D8
:1046100080BD000080B58AB0DDF830C008900791F9
:104620008DF81B20059305980190FDF7EBFD0246E0
:1046300001980C99891A08440390FDF7E3FD029054
:10464000039840F20001C2F200010968C1F3CB31C6
:1046500048430490FFE7089800688068079908407D
:10466000401AB0FA80F040099DF81B1088425ED0D5
:10467000FFE705980130002858D0FFE7FDF7C2FD9D
:104680000299401A0399884204D2FFE70398002850
:1046900042D1FFE708980168486820F0E0004860D0
:1046A00008984068B0F5827F13D1FFE708988068CA
:1046B000B0F5004F06D0FFE708988068B0F5806F2E
:1046C00007D1FFE708980168086820F040000860FB
:1046D000FFE70898806AB0F5005F0FD1FFE7FFE7BA
:1046E00008980168086820F400500860089801687C
:1046F000086840F400500860FFE7FFE708990120D0
:1047000081F85100FFE70899002081F85000FFE789
:1047100003208DF827000EE0049818B9FFE7002069
:104720000390FFE7049801380490FFE793E7002027
:104730008DF82700FFE79DF827000AB080BD000034
:104740007047000080B582B0009000980138B0F149
:10475000807F03D3FFE70120019019E00098013822
:104760004EF21401CEF2000108604FF0FF300F212D
:1047700000F0EEFC4EF21801CEF2000100200860BD
:104780004EF21002CEF20002072111600190FFE705
:10479000019802B080BD000080B5FDF739FD80BDF5
:1047A00080B590B006A800902821FBF793FE0098F2
:1047B000002305930493039302930193012206922D
:1047C0004FF48031079108930A9202220D920E91C4
:1047D0004FF4E0110F91FDF787FF18B1FFE7FDF7E8
:1047E0005FFAFFE70F200190022102910020039061
:1047F0004FF480620492059001A8FDF7C1FD18B145
:10480000FFE7FDF74DFAFFE710B080BD70470000ED
:1048100080B540F61030C2F20000FFF72FF880BDDF
:1048200083B002900191029800680090029842F6CD
:104830000041C4F20101884215D0FFE70298B0F1AF
:10484000804F10D0FFE7029840F20041C4F200010F
:10485000884208D0FFE7029840F60001C4F2000148
:1048600088420AD1FFE7009820F07000009001987C
:104870004168009808430090FFE7029842F6004123
:10488000C4F20101884215D0FFE70298B0F1804FD1
:1048900010D0FFE7029840F20041C4F200018842C4
:1048A00008D0FFE7029840F60001C4F200018842F8
:1048B0000AD1FFE7009820F4407000900198C16889
:1048C000009808430090FFE7009820F080000199CD
:1048D000496908430090009802990860019880682F
:1048E0000299C8620198006802998862029842F6AB
:1048F0000041C4F20101884205D1FFE70198006937
:1049000002990863FFE702990120486103B07047EC
:1049100085B00490039102920193049880680090FE
:10492000009820F47F40009003980299019A41EA90
:104930000221014300980843009000980499886080
:1049400005B0704783B00290019102988068009092
:10495000009820F07000009001980099084340F002
:104960000700009000980299886003B0704700002B
:1049700085B00490039102920498006A0090049913
:10498000086A20F00100086204988069019001988B
:1049900020F0F00001900299019840EA0110019086
:1049A000009820F00A0000900399009808430090B6
:1049B00001980499886100980499086205B07047CD
:1049C00085B00490039102920498006A00900499C3
:1049D000086A20F01000086204988069019001982C
:1049E00020F4704001900299019840EA0130019052
:1049F000009820F0A00000900399009840EA011070
:104A0000009001980499886100980499086205B0A3
:104A10007047000080B582B001900198406A009014
:104A200000990020C8850099C8840098FFF77AF89B
:104A300002B080BD84B00390FFE7FFE703980068F1
:104A400050E8030F20F490700290FFE7029903985A
:104A5000026842E803100028F0D1FFE7FFE7FFE714
:104A6000FFE70398006850E8050F20F0010001906F
:104A7000FFE701990398026842E805100028F0D189
:104A8000FFE7FFE70398006B012814D1FFE7FFE77A
:104A9000FFE70398006850E8030F20F01000009033
:104AA000FFE700990398026842E803100028F0D15C
:104AB000FFE7FFE7FFE70399202081F84200039911
:104AC0000020086304B0704780B582B0019001985F
:104AD0000168C86820F04000C8600199202081F872
:104AE00041000198FFF772FB002002B080BD00007A
:104AF00080B586B00490049890F84200222840F0D7
:104B0000A480FFE704988068B0F5805F15D1FFE7C7
:104B10000498006988B9FFE7002003900498806A30
:104B200002900498006840686FF35F200299088043
:104B30000499886A0230886225E00498806A0390AC
:104B40000020029004988068B0F5805F08D0FFE7ED
:104B50000498806850B9FFE70498006930B9FFE70E
:104B60000498006840680399087007E0049800689A
:104B7000406800F07F0003990870FFE70499886A95
:104B800001308862FFE70499C88D0138C8850004A8
:104B9000002856D1FFE704980168C86820F020007B
:104BA000C86004980168C86820F48070C8600498E0
:104BB0000168486920F0010048610499202081F8CB
:104BC00042000499002048630498006B012830D10A
:104BD000FFE7049900200863FFE7FFE704980068F7
:104BE00050E8030F20F010000190FFE701990498AE
:104BF000026842E803100028F0D1FFE7FFE70498BD
:104C000000680068C00600280ED5FFE7FFE7002017
:104C1000009004980068006800900498006840685C
:104C200000900098FFE7FFE70498818DFEF774FF7E
:104C300003E00498FFF736FAFFE700208DF817002D
:104C400007E000208DF8170003E002208DF8170020
:104C5000FFE79DF8170006B080BD000080B584B066
:104C6000039003980068006920F44050039A11688B
:104C7000D26810430861039988680A69496910433A
:104C80000843029003980068C06841F20C618843B1
:104C90000299084303990968C8600398006840694D
:104CA00020F44070039A1168926910434861039898
:104CB000006843F60001C4F20101884204D1FFE715
:104CC000FDF7A2FC019003E0FDF78CFC0190FFE7EB
:104CD000019819214843039A116852689200B0FB69
:104CE000F2FC48F21F52C5F2EB12ACFB0230430952
:104CF000642003FB10CC322000EB0C10A0FB02025E
:104D0000F02000EA521000EB0310C2F343121044EB
:104D1000886004B080BD000083B00190019890F8D5
:104D2000410021283AD1FFE701988068B0F5805F03
:104D300013D1FFE70198006978B9FFE70198006A8D
:104D40000090009800886FF35F200199096848601F
:104D50000199086A0230086208E0019A106A411C51
:104D600011620078019909684860FFE70199C88CD1
:104D70000138C884000468B9FFE701980168C86871
:104D800020F08000C86001980168C86840F04000C9
:104D9000C860FFE700208DF80B0003E002208DF8CB
:104DA0000B00FFE79DF80B0003B0704780B588B09B
:104DB000DDF828C0069005918DF813200393FFE7D6
:104DC00006980068006805990840401AB0FA80F01B
:104DD00040099DF81310884249D1FFE70A98013035
:104DE000002843D0FFE70A9840B1FFE7FDF70AFA31
:104DF0000399401A0A99884237D9FFE7FFE7FFE78E
:104E00000698006850E8030F20F4D0700290FFE786
:104E100002990698026842E803100028F0D1FFE7E3
:104E2000FFE7FFE7FFE70698006850E8050F20F06E
:104E300001000190FFE701990698026842E8051019
:104E40000028F0D1FFE7FFE70699202081F8410014
:104E5000069981F84200FFE70699002081F840009A
:104E6000FFE703208DF81F0005E0FFE7A8E700201B
:104E70008DF81F00FFE79DF81F0008B080BD0000FF
:104E800081B00090009840F65831C2F200010860ED
:104E900001B0704780B584B0039040F65830C2F23C
:104EA00000000068029003980190FBF7AFFA0199A7
:104EB0000246029892B24FF47A73FFF7F7F804B003
:104EC00080BD000080B540F65C30C2F20000FEF705
:104ED0002DFE80BDFFE7FEE780B582B040F2840082
:104EE000C2F2000001900199012008610199486116
:104EF000019845F63F51C0F601018161019A40F2E7
:104F0000EC00C2F20000D061019A4FF480601062A0
:104F1000019A00209062019A5062019AD062019A2F
:104F20001163019A40F2CC01C2F200015163019A6F
:104F3000202100919163019908640199C863019946
:104F400048640198073045F63B51C0F60101FBF774
:104F500039FA019845F63451C0F60101FBF732FAEF
:104F600000980199887102B080BD000084B0039060
:104F70000398006902900398C06801900298019913
:104F8000884209D8FFE7039880680199401A02997E
:104F900008440138009005E002990198C043084494
:104FA0000090FFE7009804B07047000080B58AB019
:104FB000099008910792002005900998C068039015
:104FC000FFE709980069049004980399884206D97C
:104FD000FFE704990398C0430844069008E0099845
:104FE00081680398049A801AC04308440690FFE73A
:104FF000069809998968039A891A884203D2FFE7BB
:105000000698019005E0099880680399401A01907C
:10501000FFE70198069006980799884203D2FFE7B8
:105020000698009002E007980090FFE7009806902D
:105030000998406803990844029002980899069AD2
:10504000FBF703FA06990598084405900699089815
:105050000844089006990798401A07900699039803
:1050600008440390039809998968884203D1FFE7AF
:1050700000200390FFE703980999C860FFE70798AD
:1050800000289ED1FFE705980AB080BD80B588B0A2
:105090000790069105920798C0680390079880686A
:1050A0000399401A029002980599884210D9FFE7A7
:1050B0000798406803990844019001980699059A59
:1050C000FBF7C3F90398059908440799C8601DE0E8
:1050D0000298049007984068039908440190019849
:1050E0000699049AFBF7B1F905980299401A0490C1
:1050F00007984068019001980699029A1144049A11
:10510000FBF7A3F904980799C860FFE708B080BDD2
:1051100081B08DF803009DF9030000280ED4FFE74D
:105120009DF9031001F01F02012090404A094EF240
:105130000011CEF2000141F82200FFE701B07047F4
:105140004EF60C50CEF200000068C0F3022070470B
:1051500082B08DF8070000919DF9070000280AD45D
:10516000FFE7009800019DF907104EF20042CEF2D1
:10517000000288540BE0009800019DF8071001F030
:105180000F014EF61452CEF200028854FFE702B02F
:105190007047000083B00290029800F00700009072
:1051A0004EF60C51CEF200010868019001984FF6BE
:1051B000FF02104001900198009A40EA022000226C
:1051C000C0F2FA52104301900198086003B0704792
:1051D000BFF34F8F4EF60C51CEF20001086800F479
:1051E000E0600422C0F2FA5210430860BFF34F8F10
:1051F000FFE700BFFDE7000081B00090009880EA63
:10520000800001B07047000083B080B585B009937D
:1052100008920791049041F2F420C2F2000002903B
:105220004FF48070019007A8009002980199049AA9
:10523000009BFBF76BF8039003980199884209DD06
:10524000FFE7019A41F2F421C2F200010020FFF7CA
:1052500017F90DE00398012809DBFFE7039A41F2F3
:10526000F421C2F200010020FFF70AF9FFE7FFE78F
:10527000039805B0BDE8804003B0704780B582B0A8
:1052800000208DF80600FFE79DF80600032812DCD9
:10529000FFE79DF8061040F22460C2F2000050F8CB
:1052A000210008B9FFE706E0FFE79DF8060001309E
:1052B0008DF80600E8E79DF8060003281EDCFFE7EE
:1052C00000F060F801469DF8062040F22460C2F22A
:1052D000000040F822109DF8061050F8210060B13F
:1052E000FFE79DF8060040F22061C2F2000108705D
:1052F0009DF806008DF8070040E0FFE700208DF8DC
:10530000060040F22060C2F20000007801308DF803
:105310000500FFE79DF8060003282BDCFFE79DF85A
:105320000500042804DBFFE700208DF80500FFE7F7
:105330009DF8051040F22460C2F2000050F82100F0
:1053400060B1FFE79DF8050040F22061C2F2000164
:1053500008709DF805008DF807000FE0FFE79DF845
:10536000060001308DF806009DF8050001308DF82B
:105370000500CFE704208DF80700FFE79DF8070040
:1053800002B080BD80B584B02E200FF0B9FA019034
:10539000019818B9FFE70020039036E0FFE708F016
:1053A00097FCADF80200BDF80200B0F5806F0CDB91
:1053B000FFE70198BDF8022045F22471C0F6010113
:1053C0000EF0B2FF8DF80B0003E0F8208DF80B0013
:1053D000FFE7FFE79DF90B0008300028DFD0FFE76B
:1053E0009DF90B0030B1FFE701980FF0F5FA0020AE
:1053F00003900AE0019845F6F151C0F60001002241
:105400000FF0D6FA01980390FFE7039804B080BD2F
:1054100082B0019000208DF803000198B0B1FFE741
:105420000198C07A013001280FDCFFE70198C17AAA
:1054300040F26860C2F2000000EB8100406820B1D9
:10544000FFE701208DF80300FFE7FFE79DF8030069
:1054500002B0704780B586B08DF817000491002027
:105460008DF80F00FFE79DF80F00032847DCFFE7EA
:105470009DF80F0000EB400140F23460C2F20000E2
:1054800050F82100A0B3FFE79DF80F0000EB4001AA
:1054900040F23460C2F2000000EB8100007A9DF817
:1054A0001710884224D1FFE79DF80F0000EB400160
:1054B00040F23460C2F20000029000EB810250F82A
:1054C00021309DF8170000EB001140F27060C2F22D
:1054D000000000EB011010300499526898470299BF
:1054E0009DF80F0000EB4002002041F82200FFE78A
:1054F000FFE79DF80F0001308DF80F00B3E70020A3
:105500008DF80F00FFE79DF80F00032840DCFFE750
:105510009DF80F009DF81710884201D1FFE731E098
:105520009DF80F0000EB001140F27060C2F2000025
:1055300000EB0110807A022823D1FFE79DF80F00CD
:1055400000EB001040F27061C2F2000101EB0010AC
:10555000C07B9DF8172002EB021201EB0211C97B00
:1055600088420DD1FFE79DF8170000EB001140F2D3
:105570007060C2F2000000EB01110420C87307E064
:10558000FFE7FFE79DF80F0001308DF80F00BAE745
:105590009DF8170000EB001140F27060C2F20000AD
:1055A00000EB0110C07B03282ADCFFE79DF8170001
:1055B00000EB001140F27060C2F20000019000EBBD
:1055C0000110C17B40F22460C2F20000009050F84C
:1055D00021000FF001FA009A01989DF8171001EBD5
:1055E000011100EB0111CB7B002142F823109DF843
:1055F000171001EB011100EB01110420C873FFE744
:1056000006B080BD80B582B000208DF80700FFE7AE
:105610009DF8070003280BDCFFE79DF8070000F06A
:1056200009F8FFE79DF8070001308DF80700EFE764
:1056300002B080BD80B584B08DF80F009DF80F00DA
:1056400000EB001140F27060C2F2000000EB0110AC
:105650000290FFE79DF80F00042801DBFFE7FFE75A
:10566000FFE70298807A0146019103286AD80199E0
:10567000DFE801F067021D5800F048F9029908813F
:1056800002990220887202990020C872029A0121B0
:105690001173029948739DF80F0000F01DFD8DF8FD
:1056A0000E009DF90E0008B1FFE7FFE74DE00299FB
:1056B000087B01380873000698BBFFE7029A507B0D
:1056C000411CC8B2517304281BD1FFE70298FFF7B1
:1056D0009FFE58B1FFE70299C87A0130C87202995B
:1056E0000120087302990020487309E09DF80F001B
:1056F00000210091FFF7AEFE00980299887224E025
:1057000003E00299487B0873FFE79DF80F0000F063
:10571000E3FC8DF80E009DF90E0008B1FFE7FFE7EE
:10572000FFE712E00298006830B1FFE702990868CD
:105730000138086020B9FFE7029900208872FFE76E
:1057400003E002E0FFE7FFE7FFE704B080BD0000F1
:1057500080B588B006900591ADF81220BDF8120012
:10576000ADF80A00FFE70598BDF80A1008F04AF9FD
:1057700003900398002807D4FFE7BDF80A004FF60E
:10578000FF71884205D1FFE74FF6FF70ADF81E00AC
:105790007BE0BDF80A000130ADF80A00039800F084
:1057A000C000C02805D1FFE74FF6FF70ADF81E001E
:1057B0006BE0FFE7039801283BDBFFE70598BDF8A6
:1057C0000A1008F01FF901900198B0F1FF3F05DCC5
:1057D000FFE74FF6FF70ADF81E0056E00698007820
:1057E000FAF750FD00909DF80400FAF74BFD0146D2
:1057F0000098884205D0FFE74FF6FF70ADF81E0015
:1058000043E0BDF80A004FF6FF71884205D1FFE77B
:105810004FF6FF70ADF81E0037E0BDF80A0001300A
:10582000ADF80A00069801300690039801380390FD
:10583000C0E7069801300690FFE70598BDF80A100A
:1058400008F0E0F803900398B0F1FF3F05DCFFE7B4
:105850004FF6FF70ADF81E0017E0FFE70398002831
:105860007FF481AFFFE7BDF80A004FF6FF71884271
:1058700005D1FFE74FF6FF70ADF81E0005E0BDF85B
:105880000A000130ADF81E00FFE7BDF81E0008B0A9
:1058900080BD000080B584B08DF80F0002919DF8A6
:1058A0000F0000EB001140F27060C2F2000000EB4C
:1058B00001100190019903208872029801990860F3
:1058C0000198006843F68121C0F20901884207D39C
:1058D000FFE7019943F68020C0F209000860FFE766
:1058E0009DF80F0001990431FFF7B4FD019800689D
:1058F00050B9FFE70198807A032804D1FFE70199A6
:1059000000208872FFE7FFE704B080BD80B582B059
:10591000FFE708F0DDF9ADF8060000208DF805007E
:10592000FFE79DF80500032826DCFFE79DF805004A
:1059300000EB001140F27060C2F2000000EB0110B9
:10594000807A022811D1FFE79DF8050000EB0011D5
:1059500040F27060C2F2000000EB01100089BDF857
:105960000610884201D1FFE7D3E7FFE79DF8050065
:1059700001308DF80500D4E7BDF8060002B080BD07
:1059800080B58CB00A900991089207930020059089
:105990008DF81B00FFE79DF81B00032864DCFFE780
:1059A0009DF81B0000EB001140F27060C2F2000095
:1059B00000EB0110807A02284FD1FFE70A989DF88A
:1059C0001B1001EB011240F27061C2F2000101EB09
:1059D000021110314FF4807204F05EF8E8BBFFE76B
:1059E00000208DF80B00FFE79DF80B00032833DC47
:1059F000FFE79DF80B0000EB400140F23460C2F27B
:105A0000000050F8210000BBFFE708989DF80B103C
:105A100001EB410240F23461C2F2000141F8220080
:105A200007989DF80B2002EB420201EB82025060C6
:105A30009DF81B009DF80B2002EB420201EB820156
:105A40000872FB208DF82F00FCE0FFE79DF80B00AB
:105A500001308DF80B00C7E7FFE7FFE79DF81B005B
:105A600001308DF81B0096E700208DF81A00042104
:105A70008DF819108DF81B00FFE79DF81B00032817
:105A800037DCFFE79DF81B0000EB001140F270606F
:105A9000C2F2000000EB011005900598807A08B969
:105AA000FFE726E00598807A03281BD1FFE740F244
:105AB0006460C2F2000000780599897B401A8DF875
:105AC0000A009DF80A009DF81A10884209DDFFE7D8
:105AD0009DF80A008DF81A009DF81B008DF819003A
