:020000040800F2
:1000000010080020350200083D4200080D1A0008C3
:1000100039420008FD030008914600080000000076
:10002000000000000000000000000000B9440008CB
:100030000D0400080000000041420008BD44000813
:100040004F0200084F0200084F0200084F0200084C
:100050004F0200084F020008110400084F02000878
:100060004F0200084F0200084F0200084F0200082C
:100070004F0200084F0200084F0200084F0200081C
:100080004F0200084F0200084F0200080000000065
:10009000000000000000000000000000190400083B
:1000A0004F02000885450008794500084F02000806
:1000B0004F0200084F0200084F0200084F020008DC
:1000C0004F0200084F0200084F0200084542000896
:1000D0004F0200084F0200084F0200080000000015
:1000E0004F0200084F0200084F0200080000000005
:1000F0000000000000000000000000004F020008A7
:10010000000000004F0200084F0200084F020008E4
:1001100000000000000000000000000000000000DF
:100120004F0200084F0200084F02000801040008B7
:100130004F02000800000000000000000000000066
:100140000000000000000000000000004F02000856
:100150004F0200084F0200084F0200084F0200083B
:100160004F0200084F0200080000000000000000DD
:10017000000000000000000000000000000000007F
:10018000000000004F020008000000000000000016
:100190004F02000800F002F800F03CF80AA090E8D6
:1001A000000C82448344AAF10107DA4501D100F032
:1001B00031F8AFF2090EBAE80F0013F0010F18BFC3
:1001C000FB1A43F001031847805D0000A05D0000AA
:1001D000103A24BF78C878C1FAD8520724BF30C873
:1001E00030C144BF04680C60704700000023002445
:1001F00000250026103A28BF78C1FBD8520728BF37
:1002000030C148BF0B6070471FB505F0D0FD1FBD62
:1002100010B510BD00F0BCF81146FFF7F5FF04F073
:1002200063FA00F0DAF803B4FFF7F2FF03BC00F062
:10023000DDF800000948804709480047FEE7FEE76F
:10024000FEE7FEE7FEE7FEE7FEE7FEE7FEE7FEE786
:1002500004480549054A064B7047000065450008FB
:100260009501000810020020100800201004002052
:100270001004002053EA020C00F069802DE9F04BD5
:100280004FF00006002B1FBFB3FA83F503FA05F405
:1002900024FA05F65E4012BF1643B2FA82F502FA5E
:1002A00005F4C5F120051EBF22FA05FC44EA0C0442
:1002B000203556EA044C4FEA144418BF641C4FF032
:1002C00000084FF00009904271EB030C39D300296C
:1002D00019BFB1FA81F701FA07F6B0FA80F700FA10
:1002E00007F6C7F120071EBF20FA07FC46EA0C06F6
:1002F0002037B6FBF4FCA7EB0507103F07F01F0BF8
:10030000CBF120062CFA06F60CFA0BFB44BFB346E1
:100310000026202FA4BF5E464FF0000B5BEA060CC0
:1003200008BF4FF0010B19EB0B0948EB0608ABFBBC
:10033000027C06FB02CC0BFB03CCC01B71EB0C0157
:10034000C1E70B46024641464846BDE8F08B13B56F
:10035000084318BF4FF0FF300146AFF30080BDE8FF
:100360001C40704770477047704710B500F008F8A0
:10037000006810BD10B5044600F002F8046010BD1E
:1003800000487047180000200048704718000020FF
:100390007546FFF7F9FFAE4605006946534620F063
:1003A0000700854618B020B5FFF752FFBDE8204092
:1003B0004FF000064FF000074FF000084FF0000B21
:1003C000AC46ACE8C009ACE8C009ACE8C009ACE890
:1003D000C00921F007018D46704710B50446AFF300
:1003E00000802046BDE81040FFF71DBF01491820DE
:1003F000ABBEFEE72600020070470000FEE70000EB
:1004000040F2AC00C2F2000000F020B870470000DB
:10041000012000F013BA0000802000F00FBA0000A5
:1004200072B600BFFEE7000090F83510022909D12E
:10043000052180F835100068016821F00101016094
:10044000002070478021416501207047F0B581B0E0
:1004500004460020009040F20C00C2F20000026846
:10046000D4E9166048F2B51337680821C1F64E3357
:1004700081403942A2FB03250CD0226813685B0738
:1004800008D5136823F004031360B160616D41F077
:100490000101616501218140394208D02268526919
:1004A000120604D5B160616D41F00201616504215D
:1004B0008140394208D022681268920704D5B160A1
:1004C000616D41F00401616510218140394217D00E
:1004D00020680268120713D5B160026801685203F0
:1004E00008D4C90508D4016821F008010160216C15
:1004F00021B905E008033FD4216C09B120468847A3
:10050000E16D202000FA01F23A4241D020680368F0
:10051000DB063DD5B26094F835300268052B1BD15F
:1005200022F016020260426922F080024261226CCF
:100530000AB9A26C1AB1026822F0080202603F20D8
:100540008840B060012084F83500216D002000292A
:1005500084F8340052D157E00168520310D4C90521
:1005600012D4016821F010010160012084F83500E7
:10057000002084F8340007E0A16C0029BED1BFE759
:10058000080301D4616C00E0E16B09B120468847A3
:10059000606DC8B3606DC0072ED0052084F83500AB
:1005A0002068A90A026822F001020260009A013262
:1005B0008A4200921AD80268D20717D0009A0132F4
:1005C0008A42009212D80268D2070FD0009A0132F4
:1005D0008A4200920AD80268D20707D0009A0132F4
:1005E0008A42009202D80268D207DFD1012084F843
:1005F0003500002084F83400E16C29B1204601B0B8
:10060000BDE8F040084700BF01B0F0BD2DE9F04162
:10061000044600F0FFF9ECB10546022084F83500ED
:100620000020216884F83400086820F00100086088
:1006300021680868C00711D000F0ECF9401B0528BC
:10064000F6D9032520230320636584F83550BDE8DF
:10065000F08100BF0120BDE8F08100BF086848F2CA
:100660003F02CFF21002D4E9013500EA020C04F196
:100670000C0898E8C10143EA0C032B431843D4E962
:10068000072E304338431043626A40EA0E00042AC2
:1006900040EA08031CD1206BD4E90A2E40EA0E0080
:1006A000184308604869BEF1000F20F0030040EADB
:1006B000020040F0040C11D0B8F5005F36D0B8F15C
:1006C000000F45D1022A46D0012A3BD032B942E080
:1006D0000B60486920F0070040EA020C01F0F800C6
:1006E0004AF6AB221038CAF6AA22A0FB02231A0946
:1006F00045F64073C0F600039A5C40F2FF335F2872
:100700004FF03F00C1F814C021EA030100FA02F0E3
:1007100088BF0431C4E91612886000230125002037
:10072000636584F83550BDE8F08100BF032AD5D851
:10073000012540230120DFE802F0030E030500BF7E
:1007400082E700BFAEF1C070B0FA80F0400904E06B
:10075000032A04D3C2D1CEF300600028BED0012505
:1007600040230120636584F83550BDE8F081000026
:1007700070B590F834C0BCF1010F46D04FF0010CB9
:1007800080F834C0D0F858E090F835C0BCF1010FC3
:1007900038D14FF0020C80F835C04FF0000CC0F893
:1007A00054C0D0F800C08468056CC06DDCF80060EF
:1007B000402C26F48026CCF80060CCF804300B46A0
:1007C00004BF13460A463F2101FA00F0CCF8083076
:1007D000CCF80C20CEF80800DCF8000040F0160041
:1007E000CCF800002DB1DCF8000040F00800CCF897
:1007F0000000DCF8000040F00100CCF80000002010
:1008000070BD00BF002180F83410022070BD0000D0
:10081000B0B5044600F0FEF8054640F20000C2F212
:1008200000000078611C18BF044400BF00F0F2F81B
:10083000401BA042FAD3B0BD7047000043F61441FC
:10084000C4F201010A68024214BF08607047FFF752
:10085000F3BF00002DE9F04F82B000F13E4241F2BB
:10086000000502F1FF77C4F20205072243F6004EAD
:100870004FEAB726A84208BF0422C4F2010E042E94
:1008800038BF4FEAB7220125002600274FF00008A5
:10089000009208E008F101080437B8F1100F06F1E2
:1008A000020600F0A7800C6805FA08F914EA090F9F
:1008B000F0D0D1F804B003220BF0030CACF101042A
:1008C000B240012C6FEA020A10D88268CC6802EAB2
:1008D0000A02B440224382604268CBF3001422EA49
:1008E000090204FA08F42243426005E0BCF1030F58
:1008F00002D14FF0030C20E0C2688C6802EA0A02C1
:10090000B4402243BCF1020FC26016D16FF0030263
:1009100002EA58020244D2F820C007F01C050F2357
:100920000C69AB402CEA030304FA05F52B43136270
:10093000D1F804B001250BF0030C02680CFA06F3A1
:1009400002EA0A021A431BF4403F0260A2D00022CE
:1009500043F644030192C4F202031A684FF6084CAE
:1009600042F480421A601A68CFF6FF7C02F480429B
:100970000192019A28F00302724452F80C3007F0F9
:100980000C050F24AC40A343009C04FA05F52B434F
:1009900042F80C30DEF808204B6842EA090543F6BD
:1009A0000C4CDC0258BF22EA0905CEF80850C4F20C
:1009B000010CDCF800209C0242EA090558BF22EA3B
:1009C0000905CCF80050DEF804209C0342EA090532
:1009D00058BF22EA0905CEF80450DEF80020DB03F8
:1009E00042EA090558BF22EA0905CEF80050012560
:1009F00050E700BF02B0BDE8F08F0000006908407A
:100A000018BF012070470000002A08BF0904816157
:100A10007047000040F20820C2F2000000687047F2
:100A200040F2000040F20821C2F20000C2F20001D0
:100A300000780A68104408607047000080B543F6EB
:100A40000040C4F20200016841F4007101600168D5
:100A500041F480610160016841F48071016003200C
:100A600000F088F80F2000F005F800F027F80020CB
:100A700080BD000070B540F20006C2F2000640F2F0
:100A80000C013278C2F200014FF47A730968B3FBAB
:100A9000F2F20446B1FBF2F1084600F025FE0F2CFD
:100AA0004FF0010508D838B94FF0FF302146002239
:100AB000002500F033F87460284670BD82B0002035
:100AC00043F640010190C4F202014A6842F48042B8
:100AD0004A604A6802F480420192019A00900868D4
:100AE00040F080500860086800F080500090009846
:100AF00002B07047002848BF7047C1B200F01F0025
:100B0000012202FA00F04EF20012CEF2000242EA96
:100B1000D10121F0030108607047000010B54EF6C6
:100B20000C5CCEF2000CDCF80030C3F3022E8EF029
:100B30000704042C28BF0424BEF103034FF0FF3E3A
:100B40000EFA04F438BF0023A14399400EFA03F3D0
:100B50009A43114300F00F0200F160430901043A87
:100B600003F564436244002848BF02F10C03197086
:100B700010BD00004EF60C51CEF200010A684FF68F
:100B8000FF031A4060F30A2242F0806040F0FD70DB
:100B9000086070472DE9F041002800F08B8043F693
:100BA0000808C4F202080446D8F8F8030D4600F01D
:100BB0000700884207D288F8F853D8F8F80300F005
:100BC0000700A84276D12068810717D5410705D5CF
:100BD000D8F8001041F4E051C8F80010010705D51D
:100BE000D8F8001041F46041C8F80010D8F800109F
:100BF000A26821F0F0011143C8F80010C0073FD1EE
:100C0000D8F8F80300F00700A84207D988F8F8538D
:100C1000D8F8F80300F00700A8424BD1206841073C
:100C200007D5D8F80010E26821F4E0511143C8F864
:100C30000010000708D5D8F80000216920F46040B2
:100C400040EAC100C8F8000000F054F8D8F80010DD
:100C500045F60072C1F30311C0F60002515C40F288
:100C60000C0220FA01F140F20400C2F20000006818
:100C7000C2F200021160FFF7FDFE0020BDE8F08126
:100C80006068811E022907D258F8081C89015CBFE0
:100C90000120BDE8F08111E0012807D158F8081CB7
:100CA00089035CBF0120BDE8F08107E058F8081C0B
:100CB000890703D40120BDE8F08100BFD8F80010F7
:100CC00021F003010843C8F80000FFF7A3FE064621
:100CD00041F28837D8F80000616800F00C00B0EBF2
:100CE000810F8DD0FFF796FE801BB842F2D903200A
:100CF000BDE8F08110B543F60404C4F20204606854
:100D000000F00C0008280BD0042819BF42F2004064
:100D1000C0F2F40047F64000C0F27D1010BD00BFE5
:100D2000206821682368490247F64001C0F27D111E
:100D300000F03F02C3F388105CBF42F20041C0F2F2
:100D4000F401A1FB00010023FFF794FA21680222BD
:100D5000C1F3014102EB4101B0FBF1F010BD000015
:100D60002DE9F04182B0002868D00446007843F6AF
:100D70000006C007C4F202060BD0B06800F00C00F9
:100D8000042840F09F803068800302D56068002806
:100D900054D0207880071AD5B06810F00C0F09D015
:100DA000B06800F00C00082840F0A680706840028F
:100DB00000F1A2803068800702D5E06801283DD1AB
:100DC0003068216920F0F80040EAC10030602078E6
:100DD000000737D4207840074CD4A56955B3B068D4
:100DE00000F00C00082840F0BB80012D26D0706870
:100DF000E16900F480028A4220D1216A00F03F02BA
:100E00008A421BD147F6C071626A0140B1EB821F72
:100E100014D1A16A4FF6FF73C903994300F440321D
:100E2000A1F580318A4209D1E16A00F07060B0EB2F
:100E3000016F03D1002002B0BDE8F081012002B0B3
:100E4000BDE8F0816069002840F20000C4F247204C
:100E500076D00121C0F8801EFFF7DCFD054600BFFB
:100E6000706F8007B6D4FFF7D5FD401B0228F7D975
:100E7000DDE000BF306C10F080580AD100200190F6
:100E8000306C40F080503064306C00F08050019045
:100E9000019847F20007C4F200073868C00541D442
:100EA000386840F480703860FFF7B4FD054600BF35
:100EB0003868C00536D4FFF7ADFD401B0228F7D9CE
:100EC000B5E000BFB06800F00C00082803D17068DE
:100ED00040023FF558AF6068B0F5803F07D0B0F5ED
:100EE000A02F40F08D80306840F480203060306862
:100EF00040F4803030608DE0E068002852D000205F
:100F0000C4F2472001210160FFF784FD054600BFC0
:100F1000306880073FF554AFFFF77CFD401B022887
:100F2000F6D984E0A068012805D005284ED1306F9D
:100F300040F004003067306F40F0010030674FE050
:100F40000021C0F8801EFFF765FD0546706F800721
:100F50007FF540AFFFF75EFD401B0228F6D966E043
:100F60000027C4F2472700203866FFF753FD022D03
:100F700005460BD1306880015ED5FFF74BFD401B65
:100F800002284FF00300F5D955E700BF3068800113
:100F90007FF550AFFFF73EFD401B02284FF00300E6
:100FA000F4D948E70020C4F2472000210160FFF790
:100FB00031FD0546306880077FF509AFFFF72AFD50
:100FC000401B02284FF00300F4D934E7316F0028AA
:100FD00021F001013167316F21F0040131674DD0FB
:100FE000FFF718FD054641F2883700BF306F8007D4
:100FF00056D4FFF70FFD401BB842F7D917E000BFEA
:101000003168002821F480313160316821F4802179
:1010100031604FD0FFF7FEFC054600BF306880030B
:101020003FF5B7AEFFF7F6FC401B6428F6D9032066
:1010300002B0BDE8F08100BF04F11C052FCD0843CC
:1010400040EA8210D9034FF6FF729143A1F5803137
:1010500040EA05600843706001203866FFF7DAFC5B
:10106000044600BF306880013FF5E4AEFFF7D2FCD4
:10107000001B02284FF00300F4D9DCE6FFF7CAFC9E
:10108000054641F2883700BF306F800708D5FFF76B
:10109000C1FC401BB8424FF00300F5D9CBE600BFBE
:1010A000B8F1000F7FF499AE306C20F080503064BE
:1010B00093E600BFFFF7AEFC054600BF3068800333
:1010C0007FF567AEFFF7A6FC401B64284FF00300D6
:1010D000F4D9B0E670470000B0B582B004460068AD
:1010E0004168826812F0400305D112F0010518BF73
:1010F00011F0400512D1950708D511F0800505D0F3
:10110000616C204602B0BDE8B040084712F4B07FE1
:1011100018BF11F0200507D102B0B0BD216C2046E8
:1011200002B0BDE8B0400847BBB194F85130032B82
:1011300008D100210191C168019180680190019856
:1011400002B0B0BD636D43F00403636500230193F7
:10115000C368019383680193019B12F0200302F49A
:10116000807203D18AB9626DDAB9D5E7636D43F055
:10117000010363650023019383680193036823F0EF
:1011800040030360019B002AEDD0626D42F008022B
:1011900062650022019282680192019A626D002AC2
:1011A000BAD04268890722F0E00242604FF00102A3
:1011B00084F8512020D0416844F2512521F00301E8
:1011C0004160E06CC0F6000538B10565FFF72CF909
:1011D00018B1606D40F040006065A06C00289BD0A5
:1011E0000565FFF721F900283FF496AF606D40F0E8
:1011F0004000606502B0B0BD204602B0BDE8B0401E
:10120000FFF768BF70B538B10446406A30B10020BE
:10121000206104F1140007E0012070BD6068B0F5A2
:10122000827F03D004F11C00002101600026A66229
:1012300094F8510020B9204684F8506000F03CF842
:10124000022084F8510094E80F0001F482710568CF
:1012500002F4044225F040050560114403F40062E5
:101260002369114403F002026369114403F001028F
:10127000A369E569114403F40072114405F03802D2
:10128000256A114405F08002A56A114305F4005255
:1012900011430160626A042101EA134102F0100265
:1012A00011444160C16921F40061C161012066659A
:1012B00084F85100304670BD70B586B004460168B0
:1012C00043F20000C4F20100814201D006B070BDBB
:1012D000002643F630010196C4F202014A6900F586
:1012E000504042F480524A614A6902F480520192AD
:1012F000019A01960A6842F001020A60096801F049
:10130000010101910199E02101910221CDE902162B
:10131000032104910521059101A9FFF79BFA40F2F1
:10132000AC0546F25840C2F20005C4F202004FF08C
:10133000C06140224FF4806385E847002846C5E934
:101340000436C5E90666C5E90866FFF75FF90028B7
:1013500018BFFFF765F8232000210022A564AC63C5
:10136000FFF7DCFB2320FFF7C5FB06B070BD0000D4
:101370002DE9F04184B0044690F85000012803D1D3
:10138000022004B0BDE8F08101201D4616460F463C
:1013900084F85000FFF73EFB94F8511001290DD15D
:1013A0008046002F4FF0010018BF002E0ED1002103
:1013B00084F8501004B0BDE8F08100BF0220002185
:1013C00084F8501004B0BDE8F08100BF0320002174
:1013D00084F8510061652763A686E686A163A1872C
:1013E000E187A0682164B0F5004F2068616407D1EF
:1013F000016821F040010160016841F48041016011
:101400000168490603D4016841F040010160616848
:10141000731EE268B1FA81F1B3FA83F349095B09FB
:10142000B2F5006F41EA03013CD131B137F8021B3C
:10143000C1602763E08E0138E086E08E00286BD023
:10144000681C0CD11DE000BF216B31F8022BC2607B
:101450002163E08E0138E086E08E00285CD02068B1
:1014600081688907F0D4FFF7D5FAA0EB0800A842FD
:10147000F2D30320BFE000BFFFF7CCFAE08E0028D4
:101480004AD0206881688907F6D5216B31F8022B94
:10149000C2602163E08E0138E086E08E0028F0D142
:1014A0003AE000BF39B139780173206B0130206315
:1014B000E08E0138E086E08E70B3681C0BD11BE033
:1014C000216B09780173206B01302063E08E0138B5
:1014D000E086E08E00B3206881688907F0D4FFF7CA
:1014E00099FAA0EB0800A842F3D3032083E000BFE1
:1014F000FFF790FAE08E78B1206881688907F7D508
:10150000216B09780173206B01302063E08E013874
:10151000E086E08E0028EFD12046022101222B46F2
:10152000CDF8008002F038FFD0B1606D40F02000AF
:10153000606520206065A06838B9002002902068AE
:10154000C1680291806802900298606D002851D0B5
:101550000120002184F8501004B0BDE8F08100BFE4
:1015600040F20C00C2F20000006849F68171C1F23D
:101570005E61A0FB0101480D4FF47A71484303906E
:101580006068B0F5827F0BD12046802100222B4677
:10159000CDF8008002F000FF0028C6D1CBE700BFE5
:1015A00003980028C7D0039801380390206880680A
:1015B0000006C0D503980028BDD0039801380390D9
:1015C000206880680006B6D503980028B3D0039839
:1015D00001380390206880680006ACD50398002885
:1015E000A9D0039801380390206880680006D7D4FA
:1015F000A1E700BF0020012184F85110002184F8E8
:10160000501004B0BDE8F08170B5044690F8500069
:10161000012804BF022070BD012084F8500094F816
:10162000510001280AD100294FF0010018BF002AFB
:101630000AD1002184F8501070BD00BF02200021A3
:1016400084F8501070BD00BF03200023264684F8A4
:10165000510046F8543F2163A286E286A363C4E9A1
:101660001033A387E387A0682268B0F5004F07D145
:10167000106820F040001060106840F48040106056
:10168000A06C44F27D2C44F28525C0F6000CC0F617
:101690000005C0E90F5C44F25D25C0F60005C0E915
:1016A0001353E38E0C32FFF763F818B101201021B9
:1016B0000FE000BF26683068400603D4306840F071
:1016C0004000306056F8040F022140F020003060E6
:1016D0000020326811433160002184F8501070BD41
:1016E0007047000070470000411E0020B0EB116FF2
:1016F0001CBF012070474EF21002CEF20002516072
:101700004EF62351CEF20001F0230B7007219060BA
:10171000116070477047000070470000002804BF48
:101720000120704710B5044690F83D0028B900200C
:1017300084F83C00204600F01FF8022084F83D00A9
:101740002068211D02F024FF012084F8460084F85F
:101750003E0084F83F0084F8400084F8410084F89B
:10176000420084F8430084F8440084F8450084F87B
:101770003D00002010BD000010B582B0006844F6A6
:101780000001C4F20101884216D044F20041C4F2C3
:10179000010188422CD10020019043F64400C4F29C
:1017A00002000168192441F400310160006800F46E
:1017B0000030019001980FE00020009043F64400B3
:1017C000C4F2020001681A2441F48021016000681B
:1017D00000F4802000900098204600210022FFF7AE
:1017E0009DF9204602B0BDE81040FFF783B900BF65
:1017F00002B010BD90F83D1001291CBF01207047B8
:10180000022180F83D10006840F6FF32C168C4F242
:101810000002904241F00101C1600FDCB0F1804F45
:101820001DD040F20041C4F20001884217D040F6BA
:101830000001C4F20001884211D017E040F60041D7
:10184000C4F2000188420AD044F20001C4F201014E
:10185000884204D00021C4F20101884206D1816887
:1018600001F00701062904BF00207047016841F01C
:1018700001010160002070477047000070B5044608
:101880000068C5680669B10716D515F0020113D0C6
:101890006FF002010161012121778069800703D087
:1018A0002046FFF7E9FF05E0204600F08FF82046CC
:1018B00000F08EF800202077700719D515F004008D
:1018C00016D020686FF00401016102212177806940
:1018D00010F4407F04D02046FFF7CEFF06E000BFA3
:1018E000204600F073F8204600F072F800202077C0
:1018F000300717D515F0080014D020686FF00801E4
:10190000016104212177C069800703D02046FFF7D9
:10191000B3FF05E0204600F059F8204600F058F8E3
:1019200000202077F00619D515F0100016D0206899
:101930006FF01001016108212177C06910F4407F28
:1019400004D02046FFF798FF06E000BF204600F0D5
:101950003DF8204600F03CF800202077F00718BF43
:1019600015F0010002D1300609D412E020686FF0B2
:1019700001010161204600F02DF8300609D515F06F
:10198000800006D020686FF0800101612046FFF7DB
:10199000C1FE700609D515F0400006D020686FF032
:1019A00040010161204600F02FF8B00658BF70BD1D
:1019B00015F0200008D021686FF0200220460A614F
:1019C000BDE87040FFF7A8BE70BD00007047000082
:1019D0007047000010B540F2AC11C2F2000104469D
:1019E00000680968884202D102F058FE206840F27F
:1019F0006411C2F200010968884218BF10BDBDE839
:101A0000104002F0BFBF000070470000FEE700007A
:101A10002DE9F04F03AF81B040F20048C4F2020854
:101A20008B4604464FEA410A404604210122BAF59A
:101A3000FA7F28BF4FF4FA7BFEF7E6FF404601210C
:101A40000022FEF7E1FF0BF1070020F00700ADEBED
:101A50000006B546BBF1000F17D0200A002100BFD9
:101A60008B1C72185B45705454700ED20B1D5B4575
:101A70009070D47009D28B1D5B451071547104D2E3
:101A8000083159459071D471EAD3D34512D8BAFBC5
:101A9000FBF540F20C191FFA8BF4C2F20009012D7C
:101AA00098BF01254846314622460A23FFF760FCCD
:101AB000013DF7D1BAFBFBF0314600FB1BA00A2326
:101AC00082B240F20C10C2F20000FFF751FC404617
:101AD00001210122FEF798FFA7F10C04A546BDE8FD
:101AE000F08F00002DE9F04F87B0074601201C461B
:101AF00015460091A0EB42010022BB464FF0000AC0
:101B000000200690019718E0059A029B524403EBCF
:101B1000420000284D461946C4BF013D023100284D
:101B2000C8BF1A440698019F854200F101000AF1DE
:101B3000020AABF1010B069048DD02A880E8020C16
:101B4000A7EB0508E819804505921CDC009806996A
:101B500001EB0009A0EB010A680000F1010B00BFD6
:101B60001FFA88F61FFA89F13046224600F0FAF98A
:101B70001FFA8AF13046224600F0F4F9BBF1010B5E
:101B800008F10108ECD10699DDE903AB781A394474
:101B9000A9468842B8DC00994FF0FF3509EB0108EF
:101BA000A1EB0907484600BF013505EB0B0086B2E3
:101BB0001FFA88F13046224600F0D4F9B9B2304617
:101BC000224600F0CFF9AA45EED19DE707B0BDE867
:101BD000F08F0000B0B582B0151AAC46A3EB01043B
:101BE00048BFC5F1000C002DDDF818E048BF1046D5
:101BF000002C254648BF6542002C48BF19461FFAF5
:101C00008CF2ABB2CDF800E000F06CFA02B0B0BDDF
:101C10002DE9F04F87B0002A74D004460020A0EBD5
:101C20004200009040F0010801201D46A2F1010988
:101C30004FF0000A01220746069100BF0699CDE940
:101C40000307514409EB04008EB2059280B231467D
:101C50002A46029000F086F906990AEB04004944EE
:101C60008FB280B239462A46019000F07BF9A4EB8E
:101C70000A001FFA80FB584639462A4600F072F9DE
:101C8000A4EB090087B2384631462A4600F06AF9CB
:101C900006982A46A0EB0A0086B23846314600F084
:101CA00061F906982A46A0EB090087B258463946E2
:101CB00000F058F9019839462A4600F053F9029885
:101CC00031462A4600F04EF9DDE90472B8F1010F01
:101CD000BCBF0AF1010A0237B8F1010F0398B8BF7F
:101CE00080440099B8F1000F02F10200C4BFA9F1CD
:101CF00001090246B8F1000F0144C8BF8844D1452C
:101D000038469BDA07B0BDE8F08F00002DE9F04FB0
:101D100083B0B3EB010C48BFCCF1000C151A48BFDF
:101D20006D42AC4508D90F4619468F420AD8BE46C7
:101D300006460F46104607E00746084611461A4673
:101D40008F42F4D98E461646841BA7EB0E0948BF76
:101D50006442DDF830A04FF0FF3BB04288BF4FF047
:101D6000010BAC454FEA690540F27E80BE4500F2AA
:101D7000F58040F2080C0023C2F2000CF046CDE9D9
:101D8000019A06E0134608F101081FFA88F0B842EC
:101D900046D82D1BB5F1FF3F03F10102F2DC4BB336
:101DA000BCF80210B0B281422ED9BCF800301FFA44
:101DB0008EF18B4228D91FFA82FABCF800901AFAE9
:101DC0008EF34B4505D9BCF80020A2EB0E021FFA9A
:101DD00082FA7244013A93B2024601F0BDF90298C8
:101DE00051468246FFF714FE40F2080CDDF80490DD
:101DF00008E000BFB0B21FFA8EF1524600F0B2F810
:101E000040F2080CC2F2000C01205E4410FA88FE79
:101E10004D44002308F101081FFA88F0B842B8D9F0
:101E2000002B00F09B80BCF80210B0B2814240F25F
:101E30009580BCF800201FFA8EF18A4240F28E8015
:101E40009DB2BCF8002015FA8EF7974204D9BCF871
:101E50000020A2EB0E039DB20EEB0302013A93B2F7
:101E6000024601F079F972E0BE4577D840F2080CDD
:101E70000022C2F2000CF046CDF808A007E000BF37
:101E80001A4608F101081FFA88F0B84242D82D1B03
:101E9000B5F1FF3F02F10103F2DC2AB3BCF80210F6
:101EA0001FFA8EF0814229D9BCF80020B1B28A42D3
:101EB00024D9E246BCF802C010FA83F2624584BF1E
:101EC000BAF80220A2EB0E030EEB0302013A1FFA4E
:101ED00083FA92B20B4601F03FF9029851468246CE
:101EE000FFF796FD06E000BF1FFA8EF0B1B2524632
:101EF00000F038F840F2080CC2F2000C01205E44F9
:101F000010FA88FE4D44002208F101081FFA88F0FB
:101F1000B842BCD912B3BCF802101FFA8EF081424D
:101F20001CD9BCF80030B1B28B4217D9BCF80230D2
:101F300010FA82F79F4284BFBCF80220A2EB0E0287
:101F400095B27244013A92B20B4601F005F950463F
:101F5000294603B0BDE8F04FFFF75ABD03B0BDE816
:101F6000F08F00002DE9F04184B0144640F20802E1
:101F7000C2F200025388834240F2B18006461088C4
:101F80000F46884240F2AB8040F20045C4F20205A1
:101F9000284604210022FEF737FD284601210022B1
:101FA000FEF732FD40F20C182A20C2F200088DF82C
:101FB0000D000DF10D0140460122FFF725FB2846DB
:101FC00004210122FEF720FD284601210122FEF70F
:101FD0001BFD284601210022FEF716FD300A8DF870
:101FE0000900701C010A8DF80B108DF80C000DF122
:101FF00009014046042201238DF80A60FFF7B8F971
:10200000284601210122FEF7FFFC28460421002278
:10201000FEF7FAFC284601210022FEF7F5FC2B20F2
:102020008DF80E000DF10E0140460122FFF7ECFA8B
:10203000284604210122FEF7E7FC2846012101225F
:10204000FEF7E2FC284601210022FEF7DDFC380AFB
:102050008DF80500781C010A8DF807108DF808002E
:102060000DF105014046042201238DF80670FFF7AB
:102070007FF9284601210122FEF7C6FC28460421EB
:102080000022FEF7C1FC284601210022FEF7BCFC1D
:102090002C208DF80F000DF10F0140460122FFF7B3
:1020A000B3FA284604210122FEF7AEFC284601219E
:1020B0000122FEF7A9FC284601210022FEF7A4FC1C
:1020C00060BAADF803000DF103014046022201237E
:1020D000FFF74EF9284601210122FEF795FC04B0D6
:1020E000BDE8F081F0B581B040F20804C2F200040E
:1020F000069F6688864221D926888E421ED9668828
:102100001518B54284BF6288121A26885D18B54238
:102110001E4602D923885B1A9EB294B202440B4435
:10212000013A013B92B29BB201F016F806FB04F1B2
:10213000384601B0BDE8F040FFF76ABC01B0F0BD21
:10214000B0B540F20805C2F200056A882B88044643
:102150000020002101F000F86888298841432046CA
:10216000BDE8B040FFF754BC2DE9F04F81B040F21C
:102170000044C4F2020420460221012202274FF04B
:102180000108FEF741FC20464FF480610122FEF772
:102190003BFC2046012100220026FEF735FC2046AC
:1021A00002210022FEF730FC0120FEF731FB204621
:1021B00001210022FEF728FC0120FEF729FB204622
:1021C00002210122FEF720FC204601210022FEF719
:1021D0001BFC204604210022FEF716FC40F20C15E1
:1021E000C2F200050DF10301284601228DF803809B
:1021F000FFF70AFA204601210122FEF705FC012023
:10220000FEF706FB204601210022FEF7FDFB2046DB
:1022100004210022FEF7F8FBCB208DF803000DF11E
:10222000030128460122FFF7EFF920460121012290
:10223000FEF7EAFB204604210122FEF7E5FB2046DB
:1022400001210022FEF7E0FB39208DF803000DF19B
:10225000030128460122FFF7D7F920460121012278
:10226000FEF7D2FB204604210122FEF7CDFB2046DB
:1022700001210022FEF7C8FB2C208DF803000DF190
:10228000030128460122FFF7BFF920460121012260
:10229000FEF7BAFB204604210122FEF7B5FB2046DB
:1022A00001210022FEF7B0FB0DF1030128460122B7
:1022B0008DF80360FFF7A8F9204601210122FEF7FF
:1022C000A3FB204604210122FEF79EFB20460121AC
:1022D0000022FEF799FB34208DF803000DF1030175
:1022E00028460122FFF790F9204601210122FEF73E
:1022F0008BFB204604210122FEF786FB20460121AC
:102300000022FEF781FB0DF10301284601228DF822
:102310000370FFF779F9204601210122FEF774FBD3
:10232000204601210022FEF76FFB204604210022F7
:10233000FEF76AFBCF208DF803000DF1030128465C
:102340000122FFF761F9204601210122FEF75CFB23
:10235000204604210122FEF757FB204601210022DE
:10236000FEF752FB0DF10301284601228DF80360B0
:10237000FFF74AF9204601210122FEF745FB2046DE
:1023800004210122FEF740FB204601210022FEF736
:102390003BFBC1208DF803000DF10301284601220B
:1023A000C127FFF731F9204601210122FEF72CFB5E
:1023B000204604210122FEF727FB204601210022AE
:1023C000FEF722FB30208DF803000DF103012846B3
:1023D0000122FFF719F9204601210122FEF714FB23
:1023E000204601210022FEF70FFB20460421002297
:1023F000FEF70AFBE8208DF803000DF103012846E3
:102400000122FFF701F9204601210122FEF7FCFA23
:10241000204604210122FEF7F7FA2046012100227E
:10242000FEF7F2FA85208DF803000DF1030128462E
:102430000122FFF7E9F8204601210122FEF7E4FA24
:10244000204604210122FEF7DFFA20460121002266
:10245000FEF7DAFA0DF10301284601228DF8036038
:10246000FFF7D2F8204601210122FEF7CDFA2046DF
:1024700004210122FEF7C8FA204601210022FEF7BE
:10248000C3FA78208DF803000DF1030128460122DC
:10249000FFF7BAF8204601210122FEF7B5FA2046DF
:1024A00001210022FEF7B0FA204604210022FEF7A7
:1024B000ABFAEA208DF803000DF103012846012252
:1024C000FFF7A2F8204601210122FEF79DFA2046DF
:1024D00004210122FEF798FA204601210022FEF78E
:1024E00093FA0DF10301284601228DF80360FFF7EE
:1024F0008BF8204601210122FEF786FA20460421AE
:102500000122FEF781FA204601210022FEF77CFA23
:102510000DF10301284601228DF80360FFF774F8DE
:10252000204601210122FEF76FFA204601210022F8
:10253000FEF76AFA204604210022FEF765FAED2034
:102540008DF803000DF1030128460122FFF75CF826
:10255000204601210122FEF757FA204604210122DC
:10256000FEF752FA204601210022FEF74DFA6420C0
:102570008DF803000DF1030128460122FFF744F80E
:10258000204601210122FEF73FFA204604210122C4
:10259000FEF73AFA204601210022FEF735FA032021
:1025A0008DF803000DF1030128460122FFF72CF8F6
:1025B000204601210122FEF727FA204604210122AC
:1025C000FEF722FA204601210022FEF71DFA122012
:1025D0008DF803000DF1030128460122FFF714F8DE
:1025E000204601210122FEF70FFA20460421012294
:1025F000FEF70AFA204601210022FEF705FA8120A3
:102600008DF803000DF1030128460122FEF7FCFFBF
:10261000204601210122FEF7F7F920460121002280
:10262000FEF7F2F9204604210022FEF7EDF9F7202B
:102630008DF803000DF1030128460122FEF7E4FFA7
:10264000204601210122FEF7DFF920460421012264
:10265000FEF7DAF9204601210022FEF7D5F9202005
:102660008DF803000DF1030128460122FEF7CCFF8F
:10267000204601210122FEF7C7F920460121002250
:10268000FEF7C2F9204604210022FEF7BDF9C02062
:102690008DF803000DF1030128460122FEF7B4FF77
:1026A000204601210122FEF7AFF920460421012234
:1026B000FEF7AAF9204601210022FEF7A5F9232002
:1026C0008DF803000DF1030128460122FEF79CFF5F
:1026D000204601210122FEF797F920460121002220
:1026E000FEF792F9204604210022FEF78DF90DF144
:1026F0000301284601228DF80370FEF785FF20466E
:1027000001210122FEF780F9204604210122FEF773
:102710007BF9204601210022FEF776F910208DF882
:1027200003000DF1030128460122FEF76DFF20464C
:1027300001210122FEF768F9204601210022FEF75F
:1027400063F9204604210022FEF75EF9C5208DF8CA
:1027500003000DF1030128460122FEF755FF204634
:1027600001210122FEF750F9204604210122FEF743
:102770004BF9204601210022FEF746F93E208DF854
:1027800003000DF1030128460122FEF73DFF20461C
:1027900001210122FEF738F9204604210122FEF72B
:1027A00033F9204601210022FEF72EF928208DF86A
:1027B00003000DF1030128460122FEF725FF204604
:1027C00001210122FEF720F9204601210022FEF717
:1027D0001BF9204604210022FEF716F9C7208DF8C8
:1027E00003000DF1030128460122FEF70DFF2046EC
:1027F00001210122FEF708F9204604210122FEF7FB
:1028000003F9204601210022FEF7FEF886208DF80C
:1028100003000DF1030128460122FEF7F5FE2046D4
:1028200001210122FEF7F0F8204601210022FEF7E7
:10283000EBF8204604210022FEF7E6F836208DF85A
:1028400003000DF1030128460122FEF7DDFE2046BC
:1028500001210122FEF7D8F8204604210122FEF7CB
:10286000D3F8204601210022FEF7CEF848208DF84B
:1028700003000DF1030128460122FEF7C5FE2046A4
:1028800001210122FEF7C0F8204601210022FEF7B7
:10289000BBF8204604210022FEF7B6F83A208DF856
:1028A00003000DF1030128460122FEF7ADFE20468C
:1028B00001210122FEF7A8F8204604210122FEF79B
:1028C000A3F8204601210022FEF79EF855208DF83E
:1028D00003000DF1030128460122FEF795FE204674
:1028E00001210122FEF790F8204601210022FEF787
:1028F0008BF8204604210022FEF786F8B1208DF8DF
:1029000003000DF1030128460122FEF77DFE20465B
:1029100001210122FEF778F8204604210122FEF76A
:1029200073F8204601210022FEF76EF80DF1030135
:10293000284601228DF80360FEF766FE204601213D
:102940000122FEF761F8204604210122FEF75CF81F
:10295000204601210022FEF757F818208DF80300C9
:102960000DF1030128460122FEF74EFE204601210B
:102970000122FEF749F8204601210022FEF744F823
:10298000204604210022FEF73FF8B6208DF8030010
:102990000DF1030128460122FEF736FE20460121F3
:1029A0000122FEF731F8204604210122FEF72CF81F
:1029B000204601210022FEF727F808208DF80300A9
:1029C0000DF10301284601220827FEF71DFE2046CF
:1029D00001210122FEF718F8204604210122FEF70A
:1029E00013F8204601210022FEF70EF882208DF810
:1029F00003000DF1030128460122FEF705FE2046E3
:102A000001210122FEF700F8204604210122FDF7F2
:102A1000FBFF204601210022FDF7F6FF27208DF85D
:102A200003000DF1030128460122FEF7EDFD2046CB
:102A300001210122FDF7E8FF204601210022FDF7D8
:102A4000E3FF204604210022FDF7DEFFF2208DF88F
:102A500003000DF1030128460122FEF7D5FD2046B3
:102A600001210122FDF7D0FF204604210122FDF7BC
:102A7000CBFF204601210022FDF7C6FF0DF1030127
:102A8000284601228DF80360FEF7BEFD2046012195
:102A90000122FDF7B9FF204601210022FDF7B4FF16
:102AA000204604210022FDF7AFFF26208DF8030009
:102AB0000DF1030128460122FEF7A6FD2046012163
:102AC0000122FDF7A1FF204604210122FDF79CFF12
:102AD000204601210022FDF797FF0DF10301284652
:102AE00001228DF80380FEF78FFD2046012101228F
:102AF000FDF78AFF204601210022FDF785FF2046D1
:102B000004210022FDF780FFE0208DF803000DF185
:102B1000030128460122FEF777FD2046012101220C
:102B2000FDF772FF204604210122FDF76DFF2046CC
:102B300001210022FDF768FF4FF00F0A0DF103019C
:102B4000284601228DF803A0FEF75EFD20460121F4
:102B50000122FDF759FF204604210122FDF754FF11
:102B6000204601210022FDF74FFF4FF0310B0DF100
:102B70000301284601228DF803B0FEF745FD2046EB
:102B800001210122FDF740FF204604210122FDF72B
:102B90003BFF204601210022FDF736FF2B208DF858
:102BA00003000DF1030128460122FEF72DFD20460A
:102BB00001210122FDF728FF204604210122FDF713
:102BC00023FF204601210022FDF71EFF0C208DF877
:102BD00003000DF1030128460122FEF715FD2046F2
:102BE00001210122FDF710FF204604210122FDF7FB
:102BF0000BFF204601210022FDF706FF4FF00E09D2
:102C00000DF10301284601228DF80390FEF7FCFC2C
:102C1000204601210122FDF7F7FE20460421012272
:102C2000FDF7F2FE204601210022FDF7EDFE0DF139
:102C30000301284601228DF80370FEF7E5FC2046CB
:102C400001210122FDF7E0FE204604210122FDF7CB
:102C5000DBFE204601210022FDF7D6FE4E208DF836
:102C600003000DF1030128460122FEF7CDFC2046AA
:102C700001210122FDF7C8FE204604210122FDF7B3
:102C8000C3FE204601210022FDF7BEFEF1208DF893
:102C900003000DF1030128460122FEF7B5FC204692
:102CA00001210122FDF7B0FE204604210122FDF79B
:102CB000ABFE204601210022FDF7A6FE37208DF84D
:102CC00003000DF1030128460122FEF79DFC20467A
:102CD00001210122FDF798FE204604210122FDF783
:102CE00093FE204601210022FDF78EFE4FF00708DB
:102CF0000DF10301284601228DF80380FEF784FCC4
:102D0000204601210122FDF77FFE204604210122F9
:102D1000FDF77AFE204601210022FDF775FE102006
:102D20008DF803000DF1030128460122FEF76CFC2B
:102D3000204601210122FDF767FE204604210122E1
:102D4000FDF762FE204601210022FDF75DFE03270C
:102D50000DF10301284601228DF80370FEF754FCA3
:102D6000204601210122FDF74FFE204604210122C9
:102D7000FDF74AFE204601210022FDF745FE0DF138
:102D80000301284601228DF80390FEF73DFC204602
:102D900001210122FDF738FE204604210122FDF722
:102DA00033FE204601210022FDF72EFE09208DF87A
:102DB00003000DF1030128460122FEF725FC204601
:102DC00001210122FDF720FE204604210122FDF70A
:102DD0001BFE204601210022FDF716FE0DF1030126
:102DE000284601228DF80360FEF70EFC20460121E3
:102DF0000122FDF709FE204601210022FDF704FE15
:102E0000204604210022FDF7FFFDE1208DF803009C
:102E10000DF1030128460122FEF7F6FB20460121B1
:102E20000122FDF7F1FD204604210122FDF7ECFD12
:102E3000204601210022FDF7E7FD0DF103012846A0
:102E400001228DF80360FEF7DFFB204601210122FD
:102E5000FDF7DAFD204604210122FDF7D5FD2046CD
:102E600001210022FDF7D0FD0DF1030128460122CA
:102E70008DF80390FEF7C8FB204601210122FDF7E3
:102E8000C3FD204604210122FDF7BEFD204601219D
:102E90000022FDF7B9FD14208DF803000DF10301A8
:102EA00028460122FEF7B0FB204601210122FDF752
:102EB000ABFD204604210122FDF7A6FD204601219D
:102EC0000022FDF7A1FD0DF10301284601228DF836
:102ED0000370FEF799FB204601210122FDF794FDC6
:102EE000204604210122FDF78FFD2046012100220A
:102EF000FDF78AFD11260DF10301284601228DF808
:102F00000360FEF781FB204601210122FDF77CFDD5
:102F1000204604210122FDF777FD204601210022F1
:102F2000FDF772FD0DF10301284601228DF80380A3
:102F3000FEF76AFB204601210122FDF765FD2046D0
:102F400004210122FDF760FD204601210022FDF74A
:102F50005BFD0DF10301284601228DF803B0FEF759
:102F600053FB204601210122FDF74EFD204604219E
:102F70000122FDF749FD204601210022FDF744FD15
:102F8000C1208DF803000DF1030128460122FEF750
:102F90003BFB204601210122FDF736FD204604219E
:102FA0000122FDF731FD204601210022FDF72CFD15
:102FB00048208DF803000DF1030128460122FEF799
:102FC00023FB204601210122FDF71EFD204604219E
:102FD0000122FDF719FD204601210022FDF714FD15
:102FE00008208DF803000DF1030128460122FEF7A9
:102FF0000BFB204601210122FDF706FD204604219E
:103000000122FDF701FD204601210022FDF7FCFC15
:103010000DF10301284601228DF803A0FEF7F4FA12
:10302000204601210122FDF7EFFC20460421012268
:10303000FDF7EAFC204601210022FDF7E5FC0C200B
:103040008DF803000DF1030128460122FEF7DCFA9A
:10305000204601210122FDF7D7FC20460421012250
:10306000FDF7D2FC204601210022FDF7CDFC0DF139
:103070000301284601228DF803B0FEF7C5FA204669
:1030800001210122FDF7C0FC204604210122FDF7A9
:10309000BBFC204601210022FDF7B6FC36208DF84E
:1030A00003000DF1030128460122FEF7ADFA204688
:1030B00001210122FDF7A8FC204604210122FDF791
:1030C000A3FC204601210022FDF79EFC0DF1030127
:1030D000284601228DF803A0FEF796FA204601212A
:1030E0000122FDF791FC204601210022FDF78CFC16
:1030F000204604210022FDF787FC0DF1030128463C
:1031000001228DF80360FEF77FFA2046012101229B
:10311000FDF77AFC1420FDF77BFB204601210022FD
:10312000FDF772FC204604210022FDF76DFC2920EA
:103130008DF803000DF1030128460122FEF764FA21
:10314000204601210122FDF75FFC002000F01CF960
:1031500001B0BDE8F08F00002DE9F04784B040F2E7
:103160000044C4F2020492468946074620460121E3
:1031700000229846FDF748FC204604210022FDF776
:1031800043FC40F20C152A20C2F200058DF8050020
:103190000DF1050128460122FEF736FA20460121ED
:1031A0000122FDF731FC2046042101223E0AFDF7F1
:1031B0002BFC204601210022FDF726FC0DF1060123
:1031C000284601228DF80660FEF71EFA20460121EE
:1031D0000122FDF719FC204604210122FDF714FC11
:1031E000204601210022FDF70FFC0DF107012846C2
:1031F00001228DF80770FEF707FA2046012101220F
:10320000FDF702FC2046042101224FEA1A26FDF7B1
:10321000FBFB204601210022FDF7F6FB02A9284610
:1032200001228DF80860FEF7EFF920460121012206
:10323000FDF7EAFB204604210122FDF7E5FB2046CD
:1032400001210022FDF7E0FB0DF1090128460122D2
:103250008DF809A0FEF7D8F9204601210122FDF7DB
:10326000D3FB204601210022FDF7CEFB204604219E
:103270000022FDF7C9FB2B208DF80A000DF10A0191
:1032800028460122FEF7C0F9204601210122FDF760
:10329000BBFB2046042101224FEA1926FDF7B4FBAF
:1032A000204601210022FDF7AFFB0DF10B0128465E
:1032B00001228DF80B60FEF7A7F9204601210122BB
:1032C000FDF7A2FB204604210122FDF79DFB2046CD
:1032D00001210022FDF798FB03A9284601228DF861
:1032E0000C90FEF791F9204601210122FDF78CFB9D
:1032F0002046042101224FEA1826FDF785FB2046CF
:1033000001210022FDF780FB0DF10D01284601226D
:103310008DF80D60FEF778F9204601210122FDF7B6
:1033200073FB204604210122FDF76EFB204601219C
:103330000022FDF769FB0DF10E01284601228DF8F0
:103340000E80FEF761F9204601210122FDF75CFBAA
:10335000204601210022FDF757FB204604210022D0
:10336000FDF752FB2C208DF80F000DF10F012846C0
:103370000122FEF749F9204601210122FDF744FB15
:1033800004B0BDE8F087000070B582B040F20044A0
:10339000C4F202040546204601210022FDF734FB59
:1033A000204604210022FDF72FFB36208DF8030074
:1033B00040F20C10C2F200000DF103010122FEF7F1
:1033C00023F9204601210122FDF71EFB0120FDF714
:1033D0001FFA032D6AD8DFE805F003172B4500BF5D
:1033E000204604210122FDF70FFB20460121002287
:1033F000FDF70AFB48208DF8040040F20C10C2F2E1
:10340000000001A927E000BF204604210122FDF7AA
:10341000FBFA204601210022FDF7F6FA28208DF85C
:10342000050040F20C10C2F200000DF105012CE085
:10343000204604210122FDF7E7FA2046012100225F
:10344000FDF7E2FA88208DF8060040F20C10C2F277
:1034500000000DF106010122FEF7D6F84FF4A07529
:10346000F02618E0204604210122FDF7CDFA20467F
:1034700001210022FDF7C8FAE8208DF8070040F28C
:103480000C10C2F200000DF107010122FEF7BCF89A
:10349000F0254FF4A076204601210122FDF7B4FA71
:1034A00040F20800C2F200004680058002B070BD04
:1034B0002DE9F04387B0002200290692059200F022
:1034C000598240F2A802C2F2000242F8201000EB3A
:1034D000400745F61071C0F600013A0140F20008BD
:1034E0008A58CBF6FE7802EB080343F630044FEA25
:1034F000B323C4F20204042B01EB071737D8DFE82B
:1035000003F0030D17212B0000230193236843F0E0
:1035100001032360236803F0010326E000230193E5
:10352000236843F002032360236803F002031CE0D6
:1035300000230193236843F004032360236803F00E
:10354000040312E000230193236843F0080323607F
:10355000236803F0080308E000230193236843F085
:1035600010032360236803F010030193019B00EB19
:10357000400001EB0016308A4FF00009029002254E
:1035800002A91046CDF80C900495FDF763F9786810
:1035900000EB08014FEAB121042938D8DFE801F037
:1035A000040E18222C0000BF00210191216841F077
:1035B00001012160216801F0010126E00021019153
:1035C000216841F002012160216801F002011CE044
:1035D00000210191216841F004012160216801F07E
:1035E000040112E000210191216841F008012160ED
:1035F000216801F0080108E000210191216841F0F3
:1036000010012160216801F0100101910199718A76
:103610000495CDE9021902A9FDF71CF9B86800EB81
:1036200008014FEAB121042937D8DFE801F0030D82
:1036300017212B0000210191216841F00101216037
:10364000216801F0010126E000210191216841F08B
:1036500002012160216801F002011CE000210191BA
:10366000216841F004012160216801F0040112E0A9
:1036700000210191216841F008012160216801F0D9
:10368000080108E000210191216841F0100121604A
:10369000216801F0100101910199B18A4FF00009F0
:1036A0000291022502A9CDF80C900495FDF7D2F8FD
:1036B000F86800EB08014FEAB121042937D8DFE8A8
:1036C00001F0030D17212B0000210191216841F029
:1036D00001012160216801F0010126E00021019132
:1036E000216841F002012160216801F002011CE023
:1036F00000210191216841F004012160216801F05D
:10370000040112E000210191216841F008012160CB
:10371000216801F0080108E000210191216841F0D1
:1037200010012160216801F0100101910199F18AD5
:103730000495CDE9021902A9FDF78CF8B06900EBF8
:1037400008014FEAB121042937D8DFE801F0030D61
:1037500017212B0000210191216841F00101216016
:10376000216801F0010126E000210191216841F06A
:1037700002012160216801F002011CE00021019199
:10378000216841F004012160216801F0040112E088
:1037900000210191216841F008012160216801F0B8
:1037A000080108E000210191216841F01001216029
:1037B000216801F0100101910199318D01250291DB
:1037C00002A903950595FDF745F8F06900EB08019E
:1037D0004FEAB121042938D8DFE801F0040E18229D
:1037E0002C0000BF00210191216841F001012160FE
:1037F000216801F0010126E000210191216841F0DA
:1038000002012160216801F002011CE00021019108
:10381000216841F004012160216801F0040112E0F7
:1038200000210191216841F008012160216801F027
:10383000080108E000210191216841F01001216098
:10384000216801F0100101910199718D0595CDE973
:10385000021502A9FCF7FEFF306A00EB08014FEAEF
:10386000B121042937D8DFE801F0030D17212B001F
:1038700000210191216841F001012160216801F0DE
:10388000010126E000210191216841F0020121603F
:10389000216801F002011CE000210191216841F042
:1038A00004012160216801F0040112E0002101916E
:1038B000216841F008012160216801F0080108E059
:1038C00000210191216841F010012160216801F07F
:1038D000100101910199B18D0125029102A9039571
:1038E0000595FCF7B7FF706A00EB08014FEAB121BC
:1038F000042938D8DFE801F0040E18222C0000BF9C
:1039000000210191216841F001012160216801F04D
:10391000010126E000210191216841F002012160AE
:10392000216801F002011CE000210191216841F0B1
:1039300004012160216801F0040112E000210191DD
:10394000216841F008012160216801F0080108E0C8
:1039500000210191216841F010012160216801F0EE
:10396000100101910199F18D0595CDE9021502A98A
:10397000FCF770FF07B0BDE8F08300002DE9F04FC1
:1039800095B045F6107700EB4002C0F6000707EB54
:1039900002148046A069218DD4E901A6D4F80C90C8
:1039A00015010122CDE90F10FDF72EF8E069618DB8
:1039B000012211900C91FDF727F8206AA18D0122B8
:1039C000CDE90D01FDF720F8606AE18D0122CDE916
:1039D0001301FDF719F87859218A0A900691FDF72D
:1039E0000DF8618A83465046CDF82CA0B246079167
:1039F000FDF704F8A58A064650462946FCF7FEFF67
:103A0000E48A074648462146FCF7F8FF47EA0001EA
:103A100041EA0B01314300F08582CDE9036705904F
:103A200040F2A800CDE9085ACDE90149C146BBF1F1
:103A3000000FC2F20000CDF8488000F08982109C8F
:103A4000DDF83CA08346204651460122FCF7DCFF0E
:103A50000C9E119831460022FCF7D6FFDDF8348029
:103A60000E9D404629460022FCF7CEFFDDE91301FA
:103A70000022FCF7C9FF069F0A983946FCF7BEFFF3
:103A80005BF82910002818BF012008702046514615
:103A90000022D146FCF7B8FFDDF844A0314650467D
:103AA0000122FCF7B1FF404629460022FCF7ACFF9B
:103AB000DDF84CB0DDF85080584641460022FCF756
:103AC000A3FF0A9D39462846FCF798FF40F2A8015B
:103AD000129AC2F2000151F82210002818BF0120EA
:103AE0004870204649460022FCF78EFF504631467A
:103AF0000022FCF789FF0D9C0E9E204631460122D4
:103B0000FCF782FF584641460022FCF77DFF28461D
:103B10003946FCF773FF40F2A801129AC2F2000185
:103B200051F82210002818BF0120887010984946CB
:103B30000022FCF769FF0C9950460022FCF764FF55
:103B4000204631460022FCF75FFF584641460122DD
:103B5000FCF75AFF28463946FCF750FF40B140F2C7
:103B6000A8001299C2F2000050F821000121C17092
:103B70000398002800F0F481DDF840800F9D404656
:103B800029460122FCF740FF119EDDF830B0304697
:103B900059460022FCF738FFDDF834900E9C484669
:103BA00021460022FCF730FF139F1499384600226B
:103BB000FCF72AFFDDF81CA00B985146FCF71EFF0E
:103BC00040F2A8021299C2F2000252F82110002815
:103BD00018BF01200871404629460022FCF714FF57
:103BE000304659460122FCF70FFF48462146002285
:103BF000FCF70AFF1499384600223E46FCF704FF02
:103C00000B9F51463846FCF7F9FE129940F2A80284
:103C1000C2F2000252F82110002818BF012048719A
:103C2000404629460022FCF7EFFE119D59462846E2
:103C30000022FCF7E9FE484621460122FCF7E4FE9B
:103C4000149930460022B146FCF7DEFE3846514654
:103C50003E46FCF7D3FE40F2A8071299C2F20007D5
:103C600057F82110002818BF012088710F9940468D
:103C700000220C46FCF7C8FE2846594600223D4665
:103C8000FCF7C2FEDDE90D010022FCF7BDFE149930
:103C900048460122FCF7B8FE30465146FCF7AEFE1E
:103CA00020B11298012155F82000C1710498099E95
:103CB000002800F06681109821460122A246FCF7F8
:103CC000A3FE119C0C9F204639460022FCF79CFE67
:103CD000DDF834B0DDF83880584641460022FCF764
:103CE00093FEDDE913010022FCF78EFEDDF8209043
:103CF00030464946FCF782FE1299002855F82110FB
:103D000018BF0120109E0872304651460022FCF771
:103D10007BFE204639460122FCF776FE5846414696
:103D20000022FCF771FEDDE9130500222946FCF7AD
:103D30006BFE099C49462046FCF760FE129940F252
:103D4000A802C2F2000252F82110002818BF012078
:103D50004872304651460022FCF756FE119E394605
:103D600030460022FCF750FE584641460122FCF73F
:103D70004BFE139829460022FCF746FE2046494692
:103D8000FCF73CFE129940F2A802C2F2000252F87F
:103D90002110002818BF0120887210985146002277
:103DA0003546FCF731FE304639460022FCF72CFE42
:103DB00058464146DDF84C900022FCF725FE149948
:103DC00048460122FCF720FE08992046FCF716FE23
:103DD00040B1129840F2A801C2F2000151F820004F
:103DE0000121C1720598002800F0D680109E51462E
:103DF00030460122FCF708FE0C9C28462146002292
:103E0000FCF702FEDDF83480DDF838B04046594654
:103E10000022FCF7F9FDDDF850A04846514600228B
:103E2000FCF7F2FDDDF80890019F48463946FCF7A3
:103E3000E5FD129D40F2A801C2F2000151F82510E3
:103E4000002818BF012008730F9930460022FCF7A4
:103E5000DBFD119821460122FCF7D6FD404659466C
:103E60000022FCF7D1FD139851460022FCF7CCFD4F
:103E700048463946FCF7C2FD40F2A801C2F20001F3
:103E800051F82510002818BF012048730F993046BB
:103E90000022FCF7B9FD119821460022FCF7B4FD81
:103EA000404659460122FCF7AFFD139851460022C7
:103EB000FCF7AAFD48463946FCF7A0FD40F2A801F0
:103EC000C2F2000151F82510002818BF01208873A4
:103ED0000F9930460022FCF797FD119821460022E9
:103EE000FCF792FD404659460022FCF78DFD1398E1
:103EF00051460122FCF788FD4846119DDDF83CA0A3
:103F00003946DDF84C90FCF779FD002852D0129824
:103F100040F2A801C2F2000151F820000121C17352
:103F200048E000BF40F2A800C2F2000050F82800AC
:103F30000DF1300B0021DDE90FA6119D9BE8100962
:103F4000DDF84C9041608160C160016032E000BFEB
:103F500050F8290000210160039800287FF40CAE7E
:103F600040F2A8051298C2F2000555F820000F9CF7
:103F7000DDF84C90002141600498099E00287FF4F0
:103F80009AAE1298002155F82000119DA24681603A
:103F9000059800287FF42AAF129840F2A801C2F2D7
:103FA00000010DF1300B51F820009BE81009109E24
:103FB0000021C160304651460122FCF725FD28460C
:103FC00021460122FCF720FD404659460122FCF71C
:103FD0001BFD14994846012215B0BDE8F04FFCF7CF
:103FE00013BD000080B582B00020019043F6300080
:103FF000C4F202000168002241F4800101600068FF
:10400000002100F48000019001983B20FCF786FD20
:104010003B2002B0BDE88040FCF76CBD2DE9F047C5
:1040200086B0002543F6300005950095C4F20200E5
:10403000016840F2000841F0040101600168C4F227
:10404000020801F00401009100990095016808F54B
:10405000006741F0800101600168002201F08001E9
:1040600000910099009501684FF4005641F001015C
:104070000160016801F0010100910099009501685B
:1040800041F00201016000684FF4005100F00200AD
:10409000009000983846FCF7B7FC404649F61C7182
:1040A0000022FCF7B1FC08F58064204640F20F4185
:1040B000002240F20F49FCF7A7FC019601AE4FF039
:1040C000010A38463146CDE902A50495FCF7C2FB4A
:1040D0004FF44040CDE90105384631460395FCF7E1
:1040E000B9FB4FF4041740463146CDF804A0CDE9A2
:1040F0000275FCF7AFFB0220CDE9010540463146D1
:104100000395FCF7A7FB48F60C70CDE9010A404681
:104110003146CDE90355FCF79DFB41F21000CDE996
:10412000010A03200490404631460395FCF792FBB8
:1041300020463146CDE9019ACDE90355FCF78AFBCB
:104140004FF24000CDE90105204631460395FCF7CA
:1041500081FB8020CDE90107204631460395FCF71D
:1041600079FB062000210022FCF7D8FC0620FCF792
:10417000C1FC172000210022FCF7D0FC1720FCF71F
:10418000B9FC06B0BDE8F08780B540F20C1043F2F0
:104190000001C2F20000C4F201014FF48272002358
:1041A0004FF4007C80E80E000A21C0E90333C0E927
:1041B000053CC361C0E90833C0E90A31FDF722F8C4
:1041C000002808BF80BDBDE88040FCF729B9000089
:1041D00080B540F2641044F20041C2F20000C4F223
:1041E0000101002353224FF0450C80E80E100361BB
:1041F0008361FDF793FA002808BF80BDBDE88040C9
:10420000FCF70EB980B540F2AC1044F60001C2F2E2
:104210000000C4F201010023532240F2CF7C80E869
:104220000E1003618361FDF779FA002808BF80BD95
:10423000BDE88040FCF7F4B8FEE70000FEE70000B0
:104240007047000040F20C10C2F20000FCF744BFBF
:10425000806B0021C187C186FCF73CBF806B016881
:104260004A6822F003024A60416D41F01001416545
:10427000012180F85110FCF72DBF0000806BFDF785
:1042800031BA0000B0B584B0846B0546FCF7C2FBC0
:1042900029680968C90531D40546206801224168AA
:1042A000642321F020014160416821F00201416056
:1042B00020460221009500F06FF828B3606D40F0B1
:1042C00020006065606D40F020006065A06838B92E
:1042D000002002902068C1680291806802900298D4
:1042E0000020E086012084F85100606D30B1204646
:1042F00004B0BDE8B040FCF7EDBE00BF204604B0FE
:10430000BDE8B040FDF7ECB940F20C00C2F200008D
:10431000006849F68171C1F25E61A0FB0101480DA0
:104320004FF47A71484303906068B0F5827F09D1F9
:104330002046802100226423009500F02DF80028FB
:10434000BCD1C3E703980028C0D00398013803907C
:10435000206880680006B9D503980028B6D0039875
:1043600001380390206880680006AFD503980028C4
:10437000ACD0039801380390206880680006A5D56A
:1043800003980028A2D00398013803902068806821
:104390000006D7D49AE700002DE9F04381B0089CCD
:1043A000984615460E468146FCF734FB201A00EB72
:1043B0000804FCF72FFB40F20C01C2F2000109686F
:1043C000C1F3CB3161430091D9F800108A683240C3
:1043D000921BB2FA82F25209AA423DD0074618F166
:1043E000010031D0FCF716FBC01BA04238D2009868
:1043F00000990028A1F101010091D9F80010896805
:1044000008BF044601EA0600801BB0FA80F04009AC
:10441000A842E7D120E000BF88683040801BB0FA96
:1044200080F04009A84217D088683040801BB0FA5D
:1044300080F04009A8420FD088683040801BB0FA55
:1044400080F04009A84207D088683040801BB0FA4D
:1044500080F04009A842DFD1002001B0BDE8F08320
:10446000D9E900014268B1F5827F22F0E0024260A2
:104470000BD1D9F80810B1F5004F02D0B1F5806F1B
:1044800003D1016821F040010160D9F82810B1F58D
:10449000005F07D1016821F400510160016841F417
:1044A00000510160012089F85100002089F8500076
:1044B000032001B0BDE8F08370470000FCF7B0BAFC
:1044C000B0B592B0002443F640000B94CDE9094406
:1044D000CDE907440594CDE90344CDE901440094B6
:1044E000C4F202000168022541F0805101600068B9
:1044F00000F080500090009847F200000094C4F251
:104500000000016865F38F310160006800F44040ED
:10451000009000980120099010200A9008200E9029
:104520005420CDE90F050420119006A80695CDE989
:104530000C54FCF715FC18B172B600BFFEE700BFC3
:104540000F20CDE901054FF48050CDE9040401A806
:1045500002210394FCF71EFB10B172B6FEE700BF08
:1045600012B0B0BD4EF68850CEF20000016841F4A2
:10457000700101607047000040F2AC10C2F2000010
:10458000FDF77CB940F26410C2F20000FDF776B985
:1045900010B540F2FF7E0368C4F2000E40F2000C3A
:1045A0007045C4F2010C1DDD40F60002C4F20002A9
:1045B000904220D060451ED040F60042C4F2000276
:1045C000904218D04FF6FF72C4F2000290421CDCF9
:1045D000704525DCB0F1804F3AD040F20042C4F281
:1045E000000233E0B0F1804F05D040F20042C4F247
:1045F00000029042E6D14A6823F0700313434FF65D
:10460000FF72C4F200029042E2DD44F2FF32C4F2D3
:104610000102904210DC60451AD044F2000213E01F
:1046200040F60002C4F20002904211D040F600426F
:10463000C4F200020AE000BF44F60002C4F2010224
:10464000904205D044F20042C4F20102904203D1EC
:10465000CA6823F44073134323F080024B69D1F8F6
:1046600000E08C681A4360450260C462C0F828E02C
:1046700002D10969CCF83010012141610169C907F3
:1046800008BF10BD016921F00101016110BD0000EA
:10469000FEE70000D0E90601704700000020FFF7A8
:1046A0006DB9000080B540F2F411C2F200010020A3
:1046B000FEF7FEFE40F2AC10C2F20000BDE8804002
:1046C000FDF798B880B5FDF74FFD0020FDF738FDE8
:1046D0000320FEF759FE40F20420C2F200000078E9
:1046E000BDE8804000F07CB882B0FCF7A7F9FFF786
:1046F000E7FEFFF793FCFFF775FCFFF745FDFFF7BB
:1047000081FDFFF765FDFFF7CDFFFFF7DBFF40F20F
:1047100080040021C2F20004C4F202014FF40045FB
:1047200020464FF480520B46009500F019F940F2F4
:104730006410C2F20000FDF75DF820464FF44862B5
:10474000002300F0E7F801AD019400BF20460121ED
:1047500000F0EAF82846012100F002F8F6E7000030
:10476000B0B50129B8BFB0BD0C46051F55F8040F00
:10477000016809688847013CF8D1B0BD70B50446AE
:10478000008C618C814208BF70BD081A01B280EABA
:10479000E130A0EBE13600294FF00002B0B2C8BF13
:1047A000012201294FF00001B8BF0121B4282046A1
:1047B0004FF0000584BF1146C6F5B47600F0AEF8A0
:1047C000608CA684208440F27804C2F2000404F1D4
:1047D0000800FFF75FFFA18D48436080A58570BD8D
:1047E0002DE9F0412DED0E8B82B0DA208F215D2274
:1047F0004FF6FF73FDF70CFA0027CD200A21EB22BC
:104800001E230097FDF7E6F99FED3B0B9FED3C9AC9
:104810009FED3CAA9FED3CBA9FED3CCA9FED3CDA70
:104820006FF00A0755EC106B4FF478480B3700EE29
:10483000107AB8EEC00A30EE090A10EE100A01F044
:1048400045FA32462B4601F049F841EC180BB0EE20
:10485000480AF0EE680A00F0BFF851EC100B00F0C7
:10486000AFFDB0EE480AF0EE680A0EEE100A00F056
:1048700017F951EC100B00F0A3FD2EEE0A0A30EEF2
:104880000B0ABDEEC00A10EE104A00EE100A20EE30
:104890000A1A31EE0C1ABDEEC11A11EE101A2EEEE4
:1048A0000D1A20EE0D0A31EE0B1A30EE0C0ABDEE99
:1048B000C11ABDEEC00A11EE102A10EE103A2046C1
:1048C000CDF80080FDF722FAB7F5AE7FAED978209B
:1048D000792103220023FDF705F9DC204121032281
:1048E0004FF4784302B0BDEC0E8BBDE8F041FDF70C
:1048F000F9B800BF00BF00BF11E7FAA146DF913F42
:104900000000B4C20000B44200005A4300000F434C
:104910000000AC42C0E9062370470000C3680A46A5
:10492000018A1846FCF770B84184704743680A460C
:1049300001891846FCF768B880B581B0EE46DDF80D
:104940000CC0C0E900E1028100214FF4C852C0E967
:1049500006210A21C360A0F810C0817401B080BD97
:1049600010B582B0DDF810C00446CDF800C0FFF7E6
:10497000E3FF40F21000C2F20000206000206084DB
:1049800002B010BD40F27800C2F200004188002958
:1049900008BF7047418801394180017881F00101E9
:1049A00000F8081BFFF7C2BF03B40198410000984C
:1049B00050EAC12018BF04204A0D18BF40F0010082
:1049C00040F2FF72B2EB515F08BF40F002000128D5
:1049D00008BF052002B0704710B52F499FED2C1B72
:1049E0002DED020B84B0059820F000408842D8BF1E
:1049F0009DED040B2DDD2949884209D1049840B969
:104A00004FF00100FBF7B6FC00F0A2FC06B010BDB1
:104A100005DB9DED040B00F08FFC06B010BD684671
:104A20009DED040B00F0A0F810F0030004BF9DED15
:104A3000021B9DED000B0CD001280ED09DED021B3A
:104A40009DED000B022817D0012000F0DDFB06B021
:104A500010BD00F0A5FA06B010BD9DED021B9DED46
:104A6000000B012000F0D0FB51EC100B00F09CFC7F
:104A700006B041EC100B10BD00F092FA51EC100B97
:104A800000F092FC06B041EC100B10BD00000000DD
:104A90000000000000000000FB21E93F0000F07F63
:104AA00010B52F499FED2C1B2DED020B84B00598FE
:104AB00020F000408842DCBF00209DED040B32DD79
:104AC0002849884209D1049840B94FF00100FBF70A
:104AD00051FC00F03DFC06B010BD05DB9DED040B64
:104AE00000F02AFC06B010BD68469DED040B00F0F6
:104AF0003BF810F0030011D0012818D09DED021BE7
:104B00009DED000B02281AD000F04AFA51EC100B70
:104B100000F04AFC06B041EC100B10BD9DED021BED
:104B20009DED000B012000F06FFB06B010BD9DED68
:104B3000021B9DED000B00F033FA06B010BD012002
:104B400000F062FB51EC100B00F02EFC06B041ECC3
:104B5000100B10BD0000000000000000000000006D
:104B6000FB21E93F0000F07F2DE9F14F04462DEDD8
:104B7000020B2DED088B8AB09FEDE70B80ED020B49
:104B8000139EE74826F0004585420ADC9DED120B96
:104B9000002084ED000B0AB0BDEC088B03B0BDE82B
:104BA000F08FE0489FEDE0AB9FEDE1BBA84247DD11
:104BB000E14F9FEDE39B9FEDE48B9DED120B53ECDA
:104BC0001A2B51EC100B002E1CDD00F091FF41EC74
:104BD000100BBD4208D053EC1B2B51EC100B00F016
:104BE00087FFC4E900010BE053EC192B51EC100BCB
:104BF00000F07EFF53EC182B00F07AFFC4E90001AF
:104C00000120C8E700F00EFC41EC100BBD4208D0BB
:104C100053EC1B2B51EC100B00F004FCC4E9000119
:104C20000BE053EC192B51EC100B00F0FBFB53EC99
:104C3000182B00F0F7FBC4E900014FF0FF30AAE7A2
:104C4000C348A84279DB9DED120B51EC100B00F02C
:104C50009FFB41EC180B9FEDC00B53EC102B00F0A9
:104C60003DFE9FEDBF1B53EC112B00F0DBFB00F072
:104C7000DBFD074600F007FE41EC190B53EC1A2B45
:104C800000F02CFE53EC182B00F026FF41EC180B23
:104C900053EC1B2B51EC190B00F020FEDFF8C8A2DF
:104CA00041EC100B4FEA15580125FA4453EC102B38
:104CB00051EC180B00F01CFF032DC4E900013DD09E
:104CC000C1F30A5005EB4511A8EB000011398142F0
:104CD00034DA0AEB051BB0EE48AA9BED000BF0EEB0
:104CE00068AA53EC102B51EC190B00F0F7FD41ECC6
:104CF0001B0B51EC1A0B53EC1B2B00F0F9FE41EC93
:104D0000180B51EC1A0B53EC182B00F0F1FE53EC7E
:104D10001B2B00F0EDFE9BED020B41EC1A0B53EC4C
:104D2000102B51EC190B00F0D9FD53EC1A2B00F0AD
:104D3000DFFE41EC100B6D1CB8E70EE0002EA8BFA3
:104D40003846BFF628AF94ED000B51EC100B00F085
:104D50002BFBC4E9000178421DE7C6F3130040F4C1
:104D6000801EC6F30A50A0F2F530471100F01F056F
:104D7000C5F12000DDF848B00890002006900790AB
:104D80000520EC467949002D07EB0002794408BF65
:104D900051F8221009D051F8223001EB8201AB40CA
:104DA0004A68089922FA01F11943A1FB0E26A1FBDA
:104DB0000B131A449A4234BF0123002303EB060865
:104DC0000CEB8003D3E901A60E448E4234BF0121CF
:104DD000002192448A4411B1924502D903E09245E0
:104DE00001D2012100E00021C3E901A641444CF8B1
:104DF0002010011EA0F10100C4DC029800F1005057
:104E0000850F0298DDE903678000DDF8148000F06B
:104E10003AFD41EC1A0B304600F04CFD9FED541B5F
:104E200053EC112B00F05AFD41EC1B0B384600F0FF
:104E300041FD9FED511B53EC112B00F04FFD41EC58
:104E4000180B404600F036FD9FED4D1B53EC112B27
:104E500000F044FD41EC190B51EC180B53EC192BED
:104E600000F0E0FA53EC1B2B00F0DCFA53EC1A2BA9
:104E700000F0D8FACDE90801002008909DED080B5C
:104E800053EC1A2B51EC100B00F032FE53EC1B2BA1
:104E900000F02EFE53EC182B00F02AFE53EC192BD9
:104EA00000F01AFE9FED381B53EC112B00F016FD9D
:104EB0009FED370B41EC180B53EC102B9DED080BBD
:104EC00051EC100B00F00AFD53EC182B00F0AAFA7D
:104ED0009FED310B41EC180B53EC102B9DED080BA3
:104EE00051EC100B00F0FAFC53EC182B00F09AFA7E
:104EF00041EC100B139810F0004F06D06D4251ECAE
:104F0000100B00F051FA41EC100B284684ED000B19
:104F100041E600000000000000000000000000006A
:104F2000FB21E93F7CD9024000004054FB21F93FBE
:104F30003163621A61B4D03DFB21F93F00000000EB
:104F40000000601A61B4D03D7370032E8A19A33B30
:104F5000FB2139410000000083C8C96D305FE43F88
:104F6000000000000000E03F5A110000A8100000FF
:104F7000000000000000103E000000000000103C97
:104F8000000000000000103A182D4454FB21F93DA8
:104F90003326A611460B113C00000054FB21F93DBD
:104FA00010B52DED040B2DED088B82B0B0EE419ABB
:104FB000F0EE619A0B9820F000449FED4BABB4F1FA
:104FC000795F11DA9DED0A0B51EC100B00F02CFC0F
:104FD000002801BFB0EE4A0AF0EE6A0A02B0BDEC4A
:104FE000088B04BF04B010BD9DED0A0B53EC102BD1
:104FF00051EC100B00F072FC41EC180B3C48062100
:10500000B0EE480AF0EE680A784400F081F853ECFC
:10501000182B51EC100B00F061FC9DED0A0B41ECDC
:105020001B0B53EC192B51EC100B00F057FC41EC0F
:10503000190B53EC1B2B51EC180B00F04FFC53ECED
:10504000192B00F055FD9FED2C0B41EC190B53EC87
:10505000102B51EC180B00F041FC41EC100B2848D0
:10506000844210DA53EC192B51EC100B00F040FD88
:1050700053EC1A2B00F030FD41EC100B02B0BDECEC
:10508000088B04B010BD1F48A042BCBF9FED1E1B83
:105090008DED001B06DBA4F50010019000200090B0
:1050A0009DED001B51EC100B53EC112B00F020FD7B
:1050B0009DED000B41EC180B53EC102B51EC1A0B2F
:1050C00000F016FD41EC1A0B53EC192B51EC180BA8
:1050D00000F00EFD53EC1A2B00F0FEFC41EC100B1F
:1050E000CCE7000000000000000000000000F03FDE
:1050F000CC0D000000000000000000000000E03FB8
:105100003333D33F0000E93F000000000000D23FEE
:1051100070B504462DED028B4D1E00EBC500B0EEC0
:10512000408AF0EE608A90ED000B35F0060017D053
:1051300053EC182B51EC100B00F0D0FB41EC100B92
:105140006D1E04EBC50090ED001B51EC100B53ECF1
:10515000112B00F067F941EC100B35F00600E7D198
:10516000022D36D0042D1CD0062D1CBFBDEC028BA9
:1051700070BD53EC182B51EC100B00F0AFFB94ED0D
:105180000A1B53EC112B00F04DF953EC182B00F0D7
:10519000A5FB94ED081B53EC112B00F043F941ECF7
:1051A000100B53EC182B51EC100B00F097FB94ED07
:1051B000061B53EC112B00F035F953EC182B00F0C3
:1051C0008DFB94ED040B53EC102B00F02BF941EC0C
:1051D000100B53EC182B51EC100B00F07FFB94EDEF
:1051E000021B53EC112B00F01DF953EC182B00F0AF
:1051F00075FB94ED001B53EC112B00F013F9BDEC83
:10520000028B41EC100B70BD31B504462DED040B43
:105210002DED0A8BB0EE41BAF0EE61BA0B989DED20
:105220000A0B20F00040B0F1795F0DDA51EC100B61
:10523000FFF7BAFB042808BF00F09AF89DED0A0BAF
:10524000BDEC0A8B05B030BD53EC102B51EC100BAC
:1052500000F044FB41EC180B9DED0A0B53EC182BAE
:1052600051EC100B00F03AFB41EC190B2C48B0EE5E
:10527000480AF0EE680A05217844FFF749FF9FEDE0
:105280002ACBB0EE40AAF0EE60AA9CB353EC1C2BE4
:1052900051EC190B00F022FB41EC1C0B53EC1A2BC8
:1052A00051EC190B00F01AFB9FED210B41EC190B8F
:1052B00053EC102B51EC1B0B00F010FB53EC192B93
:1052C00000F016FC53EC182B00F008FB53EC1B2BE2
:1052D00000F00EFC53EC1C2B00F00AFC9DED0A1BA9
:1052E00053EC112B00F0F8FBBDEC0A8B05B041EC40
:1052F000100B30BDFFE753EC1A2B51EC180B00F0EC
:10530000EDFA53EC1C2B00F08DF853EC192B00F048
:10531000E5FA9DED0A1B53EC112B00F083F8E3E74F
:105320005C0C000000000000495555555555C5BF9F
:10533000000000000000E03F10B553EC102B51ECD2
:10534000100B00F06FF841EC100B10BD00000000D6
:105350009FED050B10B553EC102B51EC100B00F02A
:1053600009F941EC100B10BD000000000000000026
:105370009FED050B10B553EC102B51EC100B00F00A
:10538000ADFA41EC100B10BD000000000000001051
:1053900082B0CDE9000121F0004001909DED000BAD
:1053A00002B051EC100B704781F00041704780F063
:1053B0000040704721F00041704720F000407047E6
:1053C00021F0004201F00043A2F16052B2F5801FCB
:1053D00028BFD2F17F6C0BD95FEA001C43EAC202FE
:1053E00042EB507018BF704728BF20F00100704793
:1053F000B2F5801FBCBF184670474FEA410C1CF540
:10540000001F02D2084600F0DFBC70B500F010FBB0
:1054100000000089FFF7F6BF4FF00040A0F58000C4
:105420007047000010B591EA030F48BF83F00043B6
:1054300000F16683841A71EB030C05D2121943EB59
:105440000C03001B61EB0C014FEA1154A4EB135C3D
:10545000DFF81CE11EEA430F18BF9EEA445F00F02C
:10546000748021EA045123EA0E0343F48013DCF133
:10547000200E32D322FA0CFE10EB0E0023FA0CFEA3
:1054800041EB0E01CCF1200E03FA0EFE10EB0E00E4
:10549000CCF1200E51F10001B1F5801F32D201EBA9
:1054A000045112FA0EF2BDE8104058BF7047401C7C
:1054B00038BF5FEA420218BF7047002814BF20F0CF
:1054C000010041F100014FEA410313F5001F38BF0D
:1054D0007047A1F1C04100F0F9BA012A43EB030281
:1054E000ACF1200CDCF11F0E32BF4FF0000E23FA9E
:1054F0000CF310EB030041EB0451B4EB115FD0D07F
:10550000A1EB045101F58011490801EB04515FEA58
:1055100030000ED350F1000038BF12FA0EFE08D151
:10552000BDE81040C9E7401C38BF5FEA4202CAD15B
:10553000C3E7BDE810404FEA410313F5001F38BF31
:105540007047A1F1C04100F0C1BA9EEA445F08D0A3
:1055500011EA5E0FBDE8104004BF01F000410020D9
:105560007047BDE8104070B500F062FA64FBBE3EC3
:105570000000E0FF2DE9C04130B4DFF8A4C23CEAEE
:10558000111418BF3CEA131400F0ED801CEA11144A
:1055900081EA030544EAD57418BF1CEA131500F02C
:1055A000C880A4EB050404F17F7404F500344FF0C7
:1055B000004545EAC12145EAC32341EA505143EA87
:1055C00052534FEAC0204FEAC222994208BF90428C
:1055D00000F09D804FEA13650FF24416765D4FEAA6
:1055E000134506FB05F7C7F1807706FB07F74FEA7F
:1055F000D737A7FB03687642A7FB06CEC8F58038ED
:1056000038BFA8F1010807FB08E6A6FB028C4FF0A3
:10561000000EE6FB03CEDCF1000CCEF1004E38BFED
:10562000AEF1010EA6FB0C584FF00007E6FB0E870B
:10563000A1FB08C6A0FB07CE16EB0E064FF0000537
:1056400045F10005E1FB076515F1E04E7EBFA4F5CD
:1056500080345FEA46066D4116F1800745F100058A
:105660004FEA172747EA05674FEA15254FEA06660E
:10567000A6F1DE46B6F1805F20D9384605EBC4714D
:1056800024F0010C01EB0C11BCF1FE6F02D8F0BC50
:10569000BDE8008124425CBF01F5801E9EEAC47F04
:1056A00002D4F0BCBDE80081244200F13980A1F1B0
:1056B000C041F0BCBDE8004100F008BA4FEAD0207C
:1056C00040EA41504FEAD1214FEAD22242EA435206
:1056D0004FEAD323A7FB028607FB036605FB02669E
:1056E0001EEA0E0F58BFA6EB0056B6EB00564FEA67
:1056F000520E4EEAC37E18EB0E0E56EB530EBCD57F
:1057000018EB02085E417F1C55F10005B5E74FF428
:1057100080154FF000074FF000064FF00008ACE78F
:1057200001F1C04101F000414FF00000F0BCBDE8C4
:1057300000810CEA131511EA0C1F00D00CE013EAEB
:105740000C1F00F026804FF0000081EA030101F0F9
:105750000041F0BCBDE80081F0BCBDE8004181EA39
:10576000030100F0B3B9F0BCBDE8004170B500F032
:105770005FF900BF097EFC3E00F007B84FF0000063
:1057800081EA030101F00041704781EA030100F062
:105790009DB9F0BCBDE8004122494FF000007047C0
:1057A000FFFDFBF9F7F5F4F2F0EEEDEBE9E8E6E4E6
:1057B000E3E1E0DEDDDBDAD8D7D5D4D3D1D0CFCD6D
:1057C000CCCBCAC8C7C6C5C4C2C1C0BFBEBDBCBBA6
:1057D000BAB9B8B7B6B5B4B3B2B1B0AFAEADACABA1
:1057E000AAA9A8A8A7A6A5A4A3A3A2A1A09F9F9E7B
:1057F0009D9C9C9B9A99999897979695959493932D
:10580000929191908F8F8E8E8D8C8C8B8B8A8989C3
:105810008888878786858584848383828281818046
:105820000000FF070000F87F4FEA41034FEA53539F
:10583000A3F58063D3F11E03C8BFD3F1210C0CDDA7
:105840004FF0004242EAC12242EA505232FA03FCCF
:105850008CEAE17CACEBE1707047102BC4BF0020F8
:10586000704703F5787CBCF1FF3F04D06FF0004235
:1058700082EA2100704770B500F0DAF8499224807E
:1058800000207047F2E710F0004248BF4042B0FAF3
:1058900080F310FA03F10AD0C3F11D0303F580630E
:1058A00002EB03524FEA415002EBD12170474FF017
:1058B00000007047B0FA80F310FA03F10AD0C3F188
:1058C0001D0303F580634FEA03524FEA415002EB98
:1058D000D12170474FF000007047000070B5DFF82D
:1058E00048C11CEA111E1EBF1CEA13159EEA0C0FCC
:1058F00095EA0C0F00F06F8081EA03044EEAD47E33
:10590000AE4421EA4C1123EA4C1341F4801143F4D4
:105910008013AEF17F7EA1FB024CA0FB036536191C
:1059200055EB0C05A1FB034C4CF10003A0FB021C42
:1059300016EB0C06654153F10003094218BF46F00F
:10594000010613F4007F0BD14FEA03314FEA053013
:1059500041EA155140EA165034036FF003020AE0A1
:105960004FEAC3214FEAC52041EA555140EA56505B
:10597000F4026FF0020202EB2E4201EB025585EABF
:10598000CE710AD05FEA440C18BF24F0004450F1F5
:10599000000041F1000120EAD47040F2FE7C624533
:1059A00000D270BDA84214BF4FF080444FF0404475
:1059B000002E08BF0024BEF1806FA8BFA1F1C04136
:1059C000BDE8704080F2828001F1C04101F00041E9
:1059D0004FF0000070470CEA13159EEA0C0F18BF39
:1059E00095EA0C0F06D081EA030E4FF000000EF08E
:1059F000004170BD00F01CF88900013E00F007B8BE
:105A000000F009B84FEA430C5FEA5C5C08D081EA19
:105A1000030100F05BB84FEA410C5FEA5C5CF6D131
:105A200002494FF0000070470000FF070000F87FB8
:105A30000EF1020E2EF0030E5EF8046B364205D412
:105A4000012A43EB030515F5001F12D8012841EB8D
:105A5000010C1CF5001F0CD80ED14FEAD17C0CEBC9
:105A60004C0C0CF1020C15F5001F08BF4CEBD37C5D
:105A700004E04FF0080C01E04FEAD37C0CEB4C053E
:105A800026FA05F606F00706B6F1040C06D20EEB70
:105A9000860CBDE870404CF0010C6047DFE80CF06C
:105AA000090B02024FF00041A1F500214FF0000068
:105AB00070BD19461046012851EB010418BFD4F5FA
:105AC000001484BF002001F0004170BD0808A0F55B
:105AD00000114FEA3101704710B591EA030F81F0D0
