:020000040800F2
:10000000D007002089010008A91D0008B51C0008C0
:10001000A51D000881030008E11E00080000000083
:10002000000000000000000000000000B11D0008FA
:100030008503000800000000AD1D0008B51D000884
:10004000A3010008A3010008A3010008A301000800
:10005000A3010008A3010008A3010008A3010008F0
:10006000A3010008A3010008A3010008A3010008E0
:10007000A3010008A3010008A3010008A3010008D0
:10008000A3010008A3010008A3010008A3010008C0
:10009000A3010008A3010008A3010008A3010008B0
:1000A000A3010008A3010008A3010008A3010008A0
:1000B000A3010008A3010008BD1D0008A30100085A
:1000C000A3010008A3010008A3010008A301000880
:1000D000A3010008A3010008D51E0008A301000821
:1000E000A3010008A3010008A301000800F002F822
:1000F00000F03AF80AA090E8000C82448344AAF188
:100100000107DA4501D100F02FF8AFF2090EBAE885
:100110000F0013F0010F18BFFB1A43F0010318473B
:100120005026000070260000103A24BF78C878C11D
:10013000FAD8520724BF30C830C144BF04680C60ED
:10014000704700000023002400250026103A28BF35
:1001500078C1FBD8520728BF30C148BF0B60704739
:100160001FB51FBD10B510BD00F0CFF81146FFF749
:10017000F7FF02F07FF800F0EDF803B4FFF7F2FFAD
:1001800003BC00F0F5F80000094880470948004723
:10019000FEE7FEE7FEE7FEE7FEE7FEE7FEE7FEE737
:1001A000FEE7FEE704480549054A064B7047000094
:1001B000B91D0008ED000008D0010020D007002084
:1001C000D0030020D0030020032A40F2308010F03A
:1001D000030C00F0158011F8013BBCF1020F6244E2
:1001E00098BF11F801CB00F8013B38BF11F8013B73
:1001F000A2F1040298BF00F801CB38BF00F8013B20
:1002000011F0030300F04F80083AC0F0088051F865
:10021000043B083A51F804CBA0E80810F5E7121D9A
:100220005CBF51F8043B40F8043BAFF30080D207B9
:1002300024BF11F8013B11F801CB48BF11F8012B85
:1002400024BF00F8013B00F801CB48BF00F8012BA8
:1002500070474FF0000200B5134694469646203989
:1002600022BFA0E80C50A0E80C50B1F12001BFF46F
:10027000F7AF090728BFA0E80C5048BF0CC05DF8D5
:1002800004EB890028BF40F8042B08BF704748BF23
:1002900020F8022B11F0804F18BF00F8012B704797
:1002A00070477047704710B5203AC0F00B80B1E836
:1002B0001850A0E81850B1E81850A0E81850203A9B
:1002C000BFF4F5AF5FEA027C24BFB1E81850A0E8A4
:1002D000185044BF18C918C0BDE810405FEA827CBE
:1002E00024BF51F8043B40F8043B08BF7047D207D5
:1002F00028BF31F8023B48BF11F8012B28BF20F876
:10030000023B48BF00F8012B7047754600F02CF8FF
:10031000AE4605006946534620F00700854618B0F2
:1003200020B5FFF73FFFBDE820404FF000064FF03B
:1003300000074FF000084FF0000BAC46ACE8C009D6
:10034000ACE8C009ACE8C009ACE8C00921F007017D
:100350008D46704710B50446AFF300802046BDE8D7
:100360001040FFF70ABF00000048704768000020F7
:1003700001491820ABBEFEE72600020070470000CE
:10038000FEE7000070470000EFF3108072B600BF78
:10039000FEE70000014690F82100022816D1086807
:1003A000D1E90FC3026822F00E020260026822F057
:1003B00001020260012000FA03F2CCF8042081F867
:1003C00021000020002281F820207047042088634B
:1003D0000120002281F820207047000080B590F8AD
:1003E0002110022924D10268116821F00E01116048
:1003F0002F211368C4F202018A4240F20401C4F2C0
:10040000020123F00103136016DD3023C4F202035E
:100410009A421DD04423C4F202039A421CD05823AE
:10042000C4F202039A421DD14FF4803322E000BF90
:1004300004218163012080BD0823C4F202039A4293
:100440000ED01C23C4F202039A420BD1102311E0F8
:100450004FF480730EE000BF4FF480530AE000BFFA
:10046000012307E001F1680C4FF08073624508BF7B
:100470004FF480130B60012180F82110426B0021A2
:1004800080F820100AB190470021084680BD000086
:10049000B0B5044600F02AF9054640F20000C2F269
:1004A00000000078611C18BF044400BF00F01EF972
:1004B000401BA042FAD3B0BD2DE9F04F82B00E68C8
:1004C000002E00F0038141F20042C4F20102042335
:1004D00040F2004E904208BF03234FF6FF7CC4F267
:1004E000010E009300240123C1F2100C4FF0000A0A
:1004F0004FF0000949E000BF012704F00C030F2270
:100500009A402BEA020207FA03F34FEA9A051A43CC
:1005100046F82520D1F804B040F20C455FEACB2222
:10052000DEF8082054BF22EA080242EA0802C4F2B8
:100530000105CEF808202A685FEA8B2354BF22EA1F
:10054000080242EA08022A605FEA8B33DEF80420E0
:1005500054BF22EA080242EA08025FEACB33CEF82F
:100560000420DEF800204FF0010354BF22EA080205
:1005700042EA0802CEF800200E680AF1010A36FAB3
:100580000AF204F1040400F0A18003FA0AF816EA62
:10059000080FF1D04E68664512DC122E56D8DFE8FF
:1005A00006F0350B45495555555555555555555535
:1005B0005555554D510000BFD1F80C9046E000BF95
:1005C0004FF6FF72C1F2210296420FDC0022C1F207
:1005D000110296421AD00022C1F21202964215D0A0
:1005E0000022C1F22102964210D02FE00022C1F277
:1005F000220296420AD00022C1F23102964205D070
:100600000022C1F23202964220D100BF8A684AB16C
:10061000012A14BFC0F81480C0F810804FF00809F8
:1006200014E000BF4FF0040910E000BFCA6802F1F7
:1006300008090BE04FF0000908E000BFCA6802F1AA
:10064000040903E0CA6802F10C0900BF224606460D
:10065000BAF1080F24BF203A043637680F259540B9
:1006600027EA050509FA02F22A433260CA79D2065E
:100670007FF582AF41F21803C4F202031A68AEF5A7
:100680007E7642F001021A601A6802F001020192BD
:10069000019A2AF0030256F802B040F60002C4F2B2
:1006A0000102904210D040F60042C4F20102904292
:1006B0003FF422AF41F20002C4F20102009F9042D7
:1006C00008BF022719E700BF002716E702B0BDE800
:1006D000F08F00008068084018BF012070470000BC
:1006E000002A08BF090401617047000040F2C810E9
:1006F000C2F200000068704740F2000040F2C811EA
:10070000C2F20000C2F2000100780A6810440860DA
:100710007047000080B542F20000C4F20200016898
:1007200041F010010160032000F0B0F80F2000F04C
:1007300005F800F049F8002080BD000010B586B033
:1007400001461E200022002400F074F81E2000F054
:100750005DF841F21C00C4F20200016841F004019E
:1007600001600068694600F004000190019801A84A
:1007700000F07CF900F09CF94DF683614000C4F272
:100780001B31A0FB01014FF0FF3000EB914140F223
:10079000381040F60002C2F20000C4F2000240F23B
:1007A000E733C0E90021C0E90243046100F086FBA1
:1007B00010B1012006B010BD40F23810C2F20000A6
:1007C00000F0F4FB06B010BD82B041F21800C4F294
:1007D00002000168022241F001010160016801F09C
:1007E000010101910199416841F0805141604068E7
:1007F00000F08050009000980420C4F201000168CD
:1008000062F31A61016002B070470000002848BF1F
:100810007047C1B200F01F00012202FA00F04EF250
:100820000012CEF2000242EAD10121F00301086079
:100830007047000010B54EF60C5CCEF2000CDCF8F0
:100840000030C3F3022E8EF00704042C28BF0424CA
:10085000BEF103034FF0FF3E0EFA04F438BF00234D
:10086000A14399400EFA03F39A43114300F00F029B
:1008700000F160430901043A03F56443624400282F
:1008800048BF02F10C03197010BD00004EF60C5168
:10089000CEF200010A684FF6FF031A4060F30A2205
:1008A00042F0806040F0FD70086070472DE9F04331
:1008B00081B0002800F0858042F20008C4F20208EE
:1008C0000446D8F800000D4600F0070088420CD21C
:1008D000D8F8000020F007002843C8F80000D8F836
:1008E000000000F00700A8426BD1206841F2040923
:1008F0008107C4F2020917D5410705D5D9F80010C0
:1009000041F4E061C9F80010010705D5D9F80010DD
:1009100041F46051C9F80010D9F80010A26821F024
:10092000F0011143C9F80010C00741D1D8F8000008
:1009300000F00700A8420CD9D8F8000020F007000A
:100940002843C8F80000D8F8000000F00700A842CB
:1009500037D12068410707D5D9F80010E26821F4A3
:10096000E0611143C9F80010000708D5D9F800006C
:10097000216920F4605040EAC100C9F80000D9F8AC
:10098000002002F00C00082841F20020C0F27A009A
:1009900050D142F25E73C2F38341C0F60003595C4A
:1009A000D2033BD440F60010C0F23D00484341E082
:1009B000606802280AD001282AD159F8041C89034A
:1009C00008D4012001B0BDE8F08300BF59F8041C31
:1009D0008901F6D5D9F8001021F003010843C9F8C0
:1009E0000000FFF783FE064641F28837D9F8000081
:1009F000616800F00C00B0EB810F97D0FFF776FE36
:100A0000801BB842F2D9032001B0BDE8F08300BFDB
:100A100059F8041C8907D4D5DCE700BFD9F80020B9
:100A200042F25C73C2F34042C0F600039A5C484352
:100A3000B0FBF2F0D9F8001042F24472C1F3031196
:100A4000C0F60002515C40F2080220FA01F140F2C7
:100A50000400C2F200000068C2F200021160FFF759
:100A60006DFE002001B0BDE8F08300000F2202609F
:100A700041F20402C4F20202136803F0030343606C
:100A8000136803F0F0038360136803F4E063C3604A
:100A900012684FF4E06303EAD202026142F20000FE
:100AA000C4F20200006800F0070008607047000010
:100AB00040F2080041F20401C2F20000C4F2020157
:100AC0000068096842F25472C1F30221C0F60002C4
:100AD000515CC8407047000040F2080041F2040138
:100AE000C2F20000C4F202010068096842F25472C6
:100AF000C1F3C221C0F60002515CC840704700003B
:100B00002DE9F04182B0002868D00446007841F217
:100B10000006C007C4F2020625D0706800F00C0081
:100B200004281BD0706800F00C00082802D17068FF
:100B3000C00313D46068002800F06881B0F5A02FCE
:100B400000F07C81B0F5803F00F07C81306820F4BB
:100B500080303060306820F4802076E13068800397
:100B600001D56068D0B32078800718D5706810F080
:100B70000C0F07D0706800F00C0008286ED1706868
:100B8000C0036BD43068800702D52069012825D1C5
:100B90003068616920F0F80040EAC10030602078D8
:100BA00000071FD42078400732D4E56995B17068FA
:100BB00000F00C00082840F08F80012D0ED07068E6
:100BC000216A00F480328A4208D1616A00F4701010
:100BD000884203D1002002B0BDE8F081012002B0BC
:100BE000BDE8F081A069002862D00020C4F2422054
:100BF0000121C0F88014FFF779FD0546706A80076F
:100C000000F18C80FFF772FD401B0228F6D92AE123
:100C1000F06910F0805808D1F06940F08050F06120
:100C2000F06900F080500090009847F20007C4F28D
:100C300000073868C00529D4386840F480703860EF
:100C4000FFF754FD054600BF3868C0051ED4FFF706
:100C50004DFD401B6428F7D905E100BF206900283D
:100C600040F20000C4F2422000F0828001210160C5
:100C7000FFF73CFD054600BF306880073FF588AFB1
:100C8000FFF734FD401B0228F6D9ECE0E0680028AD
:100C900000F08080052800F09780012800F09880FF
:100CA000306A20F001003062306A20F0040092E0E7
:100CB0000020C4F242200021C0F88014FFF716FD86
:100CC000054600BF706A80077FF56CAFFFF70EFD29
:100CD000401B0228F6D9C6E00027C4F242270020B4
:100CE0003866FFF703FD022D05460BD13068800101
:100CF00040F1BE80FFF7FAFC401B02284FF00300D2
:100D0000F4D968E7306880017FF564AFFFF7EEFC47
:100D1000401B02284FF00300F4D95CE740F20800C2
:100D2000C2F20000006844F6D351C1F26201A0FB98
:100D30000101480A019000BF00BF0198411E002830
:100D400001913FF42FAF00BF0198411E002801918F
:100D50003FF428AF00BF0198411E002801913FF4E5
:100D600021AF00BF0198411E00280191E4D119E78D
:100D700000210160FFF7BAFC054600BF306880071C
:100D80007FF50DAFFFF7B2FC401B02284FF00300C8
:100D9000F4D920E7306A20F001003062306A20F098
:100DA00004003062FFF7A2FC054641F2883700BF1D
:100DB000306A800720D5FFF799FC401BB8424FF0FE
:100DC0000300F5D907E700BF306A40F00400306245
:100DD000306A40F001003062FFF788FC054641F2BE
:100DE000883700BF306A800706D4FFF77FFC401BBE
:100DF000B842F7D937E000BFB8F1000F7FF4D5AEA5
:100E0000F06920F08050F061CFE600BF306820F438
:100E100080303060306820F480203060FFF766FC5E
:100E2000054600BF306880037FF59DAEFFF75EFC8E
:100E3000401B64284FF00300F4D9CCE6306840F43E
:100E400080203060306840F480303060FFF74EFC26
:100E5000054600BF306880033FF585AEFFF746FCCE
:100E6000401B6428F6D9032002B0BDE8F08100BF22
:100E7000206AB0F5803F05D17168A26821F4003185
:100E8000114371607168626A21F47411114308435F
:100E9000706001203866FFF729FC04463068800145
:100EA0003FF598AEFFF722FC001B02284FF003002D
:100EB000F4D990E67047000070470000002804BF96
:100EC0000120704710B5044690F83D0028B9002075
:100ED00084F83C00204600F067F8022084F83D00CA
:100EE000206840F2FF730268C4F2000342F6004C2F
:100EF0009842C4F2010C15DCB0F1804F1AD040F2D8
:100F00000041C4F20001884214D0984218DCB0F1CC
:100F1000804F1DD040F20041C4F20001884217D03A
:100F20001AE000BF604505D040F60001C4F20001A0
:100F30008842EAD1A16822F070020A439842E6DDB5
:100F4000604505D040F60001C4F20001884203D19B
:100F5000216922F440720A43A36922F08001D4F887
:100F600004E0E268194360450160C262C0F828E00D
:100F700002D16169CCF8301001214161002084F870
:100F8000461084F83E1084F83F1084F8401084F82E
:100F9000411084F8421084F8431084F8441084F817
:100FA000451084F83D1010BD7047000090F83D10CA
:100FB00001291CBF01207047022180F83D10006804
:100FC00040F2FF72C168C4F20002904241F0010198
:100FD000C16009DCB0F1804F12D040F20041C4F290
:100FE000000188420CD012E042F60041C4F2010137
:100FF000884205D040F60001C4F20001884206D1C3
:10100000816801F00701062904BF002070470168CC
:1010100041F00101016000207047000070470000AE
:1010200010B5016804460869800744BFC8685FEAD4
:10103000807039D40869400744BFC8685FEA4070CF
:101040003ED40869000744BFC8685FEA007045D411
:101050000869C00644BFC8685FEAC0604AD408692E
:10106000C0071CBFC8685FEAC07051D1086900069C
:1010700044BFC8685FEA006052D40869400644BFB4
:10108000C8685FEA406053D40869800646BFC868F4
:101090005FEA806010BD6FF0200220460A61BDE863
:1010A0001040FFF709BF00BF6FF002000861012088
:1010B00020778869800743D02046FFF7AFFF45E0DF
:1010C0006FF00400086102202077886910F4407FE7
:1010D00040D02046FFF7A2FF42E000BF6FF00800BB
:1010E000086104202077C86980073DD02046FFF7BB
:1010F00095FF3FE06FF01000086108202077C86975
:1011000010F4407F3AD02046FFF788FF3CE000BF54
:101110006FF001000861204600F03EF82168A5E765
:101120006FF0800008612046FFF7C4FE2168A4E745
:101130006FF040000861204600F038F82168A3E70E
:10114000204600F025F8204600F024F82168002011
:1011500020776FE7204600F01BF8204600F01AF8D1
:101160002168002020776CE7204600F011F8204627
:1011700000F010F821680020207769E7204600F091
:1011800007F8204600F006F821680020207766E77F
:101190007047000070470000006840F60001C4F28C
:1011A0000001884218BF7047FFF7A6BA70470000D9
:1011B0007047000070470000B0B582B00446006878
:1011C0000168C368426901F02F05202D03F0200556
:1011D00006D12DB1204602B0BDE8B04000F0FABD06
:1011E0005FEA017C1EBF02F0010E03F4907212EB65
:1011F0000E0253D1226B012A05D111F0100218BF43
:1012000013F0100236D10A0622D513F080021FD047
:1012100094F8411021293FD1A168B1F5805F03D135
:101220002169002900F07082216A4A1C2262097833
:101230004160E18C01390A04E1842DD1C16821F0BB
:101240008001C160C16841F04001C16002B0B0BD21
:10125000490621D513F040011ED0C16821F040019C
:10126000C1602021204684F8411002B0BDE8B040A2
:1012700000F01EBD002101910168019141680191BA
:1012800001994069400613D4A08DE18DE28D002ABA
:1012900018BF884240F0BA8102B0B0BDCA0718BF7B
:1012A00013F4807240F0B6804A0700F1B980BEE0C6
:1012B000E06B016849688AB2002AEDD0A38D9A429A
:1012C000EAD2E1858069202800F09C80206850E8FF
:1012D000030F216820F4807041E80302DAB120682E
:1012E00050E8030F216820F4807041E8030292B1B6
:1012F000206850E8030F216820F4807041E8030261
:101300004AB1206850E8030F216820F4807041E85A
:101310000302002ADAD1206850E8050F216820F086
:10132000010041E80502DAB1206850E8050F2168A4
:1013300020F0010041E8050292B1206850E8050F55
:10134000216820F0010041E805024AB1206850E818
:10135000050F216820F0010041E80502002ADAD1DA
:10136000206850E8050F216820F0400041E80502A0
:10137000DAB1206850E8050F216820F0400041E80C
:10138000050292B1206850E8050F216820F0400066
:1013900041E805024AB1206850E8050F216820F0B5
:1013A000400041E80502002ADAD1202084F84200FA
:1013B00000202063206850E8030F216820F010000F
:1013C00041E80302DAB1206850E8030F216820F0F9
:1013D000100041E8030292B1206850E8030F216831
:1013E00020F0100041E803024AB1206850E8030FE2
:1013F000216820F0100041E80302002ADAD1E06BF6
:10140000FEF7C8FF02206063A08DE18D401A81B213
:10141000204674E1626C42F0010262644A0706D51C
:10142000BEF1000F03D0626C42F0020262648A07D0
:1014300006D5BEF1000F03D0626C42F00402626474
:10144000BCF1000F09D545EA0E02B2FA82F2520948
:1014500003D1626C42F008026264626C002A3FF4BD
:101460001BAF11F0200118BF002D03D0204600F063
:10147000B1FC20684069616C00F0400001F0080197
:10148000401800F0B58000BF206850E8030F2168C5
:1014900020F4907041E80302BAB3206850E8030FCB
:1014A000216820F4907041E8030272B3206850E88C
:1014B000030F216820F4907041E803022AB32068EA
:1014C00050E8030F216820F4907041E80302002ADD
:1014D000DAD11AE0206850E8050F216820F00100F9
:1014E00041E80502DAB1206850E8050F216820F0D4
:1014F000010041E8050292B1206850E8050F21681B
:1015000020F0010041E805024AB1206850E8050FCB
:10151000216820F0010041E80502002ADAD1206BA1
:10152000012824D1206850E8030F216820F0100022
:1015300041E80302DAB1206850E8030F216820F087
:10154000100041E8030292B1206850E8030F2168BF
:1015500020F0100041E803024AB1206850E8030F70
:10156000216820F0100041E80302002ADAD120208F
:1015700084F84200002020632068406940063FD57F
:10158000206850E8050F216820F0400041E805027E
:10159000DAB1206850E8050F216820F0400041E8EA
:1015A000050292B1206850E8050F216820F0400044
:1015B00041E805024AB1206850E8050F216820F093
:1015C000400041E80502002ADAD1E06BC0B141F6E3
:1015D000C951C0F600014163FEF700FF00283FF447
:1015E0005BAEE06B416B02B0BDE8B040084700BFA6
:1015F0002046FFF7DFFD0020606402B0B0BD00BFF1
:10160000204602B0BDE8B040FFF7D4BD401A2168C3
:1016100051E8031F226821F4907142E80313DBB103
:10162000216851E8031F226821F4907142E80313F6
:1016300093B1216851E8031F226821F4907142E8B8
:1016400003134BB1216851E8031F226821F4907104
:1016500042E80313002BDAD1216851E8051F226804
:1016600021F0010142E80513DBB1216851E8051FB3
:10167000226821F0010142E8051393B1216851E885
:10168000051F226821F0010142E805134BB12168D2
:1016900051E8051F226821F0010142E80513002BE3
:1016A000DAD1202184F8421000212163216851E819
:1016B000031F226821F0100142E80313DBB1216807
:1016C00051E8031F226821F0100142E8031393B18F
:1016D000216851E8031F226821F0100142E803133A
:1016E0004BB1216851E8031F226821F0100142E844
:1016F0000313002BDAD1022281B22046626302B0CA
:10170000BDE8B040FFF754BD216A31F8022B6FF3FA
:101710005F22426021628CE5002804BF01207047EF
:1017200010B5044690F8410028B9002084F8400024
:10173000204600F063F8242084F841002068D4E9B2
:101740000212C36823F40053C360036923F44053B7
:101750001A430261D4E904231143C268194341F2D8
:101760000C639A431143C1604169A26921F440713D
:10177000114343F60002C4F201029042416103D0DA
:10178000FFF796F902E000BFFFF7A6F9626819219A
:1017900048439100B0FBF1F048F21F51C5F2EB1144
:1017A000A0FB01235A094FF69C73C0F6FF7302FB9E
:1017B0000300322303EB0010A0FB0101F02303EA36
:1017C0005113206803EB0212C1F3431111448160ED
:1017D000016921F490410161416921F02A014161CF
:1017E000C16841F40051C16000202021606484F888
:1017F000411084F84210606310BD000070B586B0DF
:1018000040F60004C4F201040068A4F54441002637
:101810008842049602D006B070BD00BF41F21800A5
:10182000C4F20200416802AD41F4003141604168F8
:1018300001F4003101910199016841F00401016056
:101840000068294600F004000190019804200290ED
:1018500002200390032005902046FEF72DFE08206D
:10186000CDE90206204629460496FEF725FE2620ED
:1018700000210022FEF7DEFF2620FEF7C7FF06B09C
:1018800070BD00002DE9F04381B0044690F842009D
:10189000202827D1884600294FF0010000F0C7809A
:1018A0001746002A00F0C380002022211D466064F4
:1018B00084F842102063FEF719FFA785E785A16829
:1018C0000746B1F5805F03D12069002800F0A680AB
:1018D00046464FF00008E08D002800F0A48005F196
:1018E000010910E0022001B0BDE8F0834068002645
:1018F0006FF35F2028F8020BE08D0138E085E08D62
:10190000002800F090802068016889060ED4B9F1A3
:10191000000F19D055B300BFFEF7E8FEC01BA84268
:1019200024D8206801688906F6D500BF002EDDD0D6
:10193000A168B1F5805F15D009B9216991B14068FE
:1019400000F07F000FE000BF01688906EED4016857
:1019500089065CBF01685FEA8161E7D40168890696
:10196000F2D5E3E7406806F8010BC5E7206850E8C8
:10197000030F216820F4D07041E80302E2B120682F
:1019800050E8030F216820F4D07041E803029AB1B7
:10199000206850E8030F216820F4D07041E803026A
:1019A00052B1206850E8030F216820F4D07041E85C
:1019B0000302002ADAD100BF206850E8050F216831
:1019C00020F0010041E80502DAB1206850E8050F77
:1019D000216820F0010041E8050292B1206850E83A
:1019E000050F216820F0010041E805024AB1206896
:1019F00050E8050F216820F0010041E80502002AA7
:101A0000DAD1202084F8410084F84200002084F8D4
:101A10004000032001B0BDE8F08300BF0026E08D48
:101A200000287FF45CAF202084F84200002001B041
:101A3000BDE8F083704700002DE9F04381B0044613
:101A400090F84100202840F0B180884600294FF0EE
:101A5000010000F0D6801646002A00F0D280002057
:101A6000606421201D4684F84100FEF73FFEA684F5
:101A7000E684A1680646B1F5805F03D1206900289D
:101A800000F0988047464FF00008E18C206800295C
:101A900000F0968005F101090BE000BF47B317F88D
:101AA000011B4160E18C0139E184E18C002900F0E7
:101AB000878001680906F1D4B9F1000F0AD0EDB1B1
:101AC000FEF714FE801BA84218D82068016809069A
:101AD000F6D5E3E701680906E0D4016809065CBFB2
:101AE00001685FEA0161D9D401680906F2D5D5E73A
:101AF00038F8021B00276FF35F21D2E7206850E817
:101B0000030F216820F4D07041E80302BAB32068C3
:101B100050E8030F216820F4D07041E8030272B34B
:101B2000206850E8030F216820F4D07041E80302D8
:101B30002AB3206850E8030F216820F4D07041E8F0
:101B40000302002ADAD11AE0206850E8050F216864
:101B500020F0010041E80502DAB1206850E8050FE5
:101B6000216820F0010041E8050292B1206850E8A8
:101B7000050F216820F0010041E805024AB1206804
:101B800050E8050F216820F0010041E80502002A15
:101B9000DAD1202084F8410084F84200002084F843
:101BA0004000032001B0BDE8F08300BF022001B077
:101BB000BDE8F0830027E18C206800297FF46AAF3C
:101BC0000168490619D4FDB1691C0DD101684906A7
:101BD00013D4016849065CBF01685FEA41610CD417
:101BE00001684906F2D508E0FEF780FD801BA84297
:101BF0000AD8206800684006F6D5202084F8410005
:101C0000002001B0BDE8F083206850E8030F216890
:101C100020F4D07041E80302002A3ED0206850E84A
:101C2000030F216820F4D07041E80302AAB32068B2
:101C300050E8030F216820F4D07041E8030262B33A
:101C4000206850E8030F216820F4D07041E80302B7
:101C5000002AD9D121E000BF206850E8050F216893
:101C600020F0010041E80502002A3FF492AF20680D
:101C700050E8050F216820F0010041E80502002A24
:101C80003FF487AF206850E8050F216820F001007D
:101C900041E80502002A3FF47CAF206850E8050FB8
:101CA000216820F0010041E80502002AD4D170E744
:101CB00070470000FEE700002DE9F04784B041F2D4
:101CC0001800C4F20200016840F6000941F010015A
:101CD00001600168C4F2010901F01001009100994E
:101CE000016809F5006541F02001016001680022EA
:101CF00001F020010091009901684FF4005641F075
:101D00000401016000684FF4005100F004000090ED
:101D1000009828460027FEF7E3FC484610210022E1
:101D20004FF01008FEF7DCFC00966E464FF0010AFB
:101D3000022428463146CDE901A70394FEF7BCFBF7
:101D400048463146CDE9008ACDE90274FEF7B4FB7E
:101D50002020CDE90007484631460297FEF7ACFB4C
:101D600004B0BDE8F087000080B540F2801044F276
:101D70000041C2F20000C4F2000100234FF00C0C3D
:101D80004FF4614280E80E00C0E90333C0E905C3A7
:101D9000C361FFF7C1FC002808BF80BDBDE88040DB
:101DA000FEF7F2BAFEE70000FEE700007047000011
:101DB00070470000704700007047000040F2381084
:101DC000C2F20000FFF72CB9406A0021C185C1842E
:101DD000FFF7F0B981B090F84210222921D1836831
:101DE0000246B3F5805F09D152F8281F52F8183C1B
:101DF000002B63D003685B680AE000BF52F8281F1D
:101E000013B90369002BF5D003685B6803F07F0307
:101E10000B70116801311160C18D01390A04C1854F
:101E200002D001B0704700BF0168CA6822F02002EA
:101E3000CA60CA6822F48072CA604A6922F001024C
:101E40004A61202180F8421000214163026B012A7F
:101E50003CD10163016851E8031F026821F01001C1
:101E600042E80313DBB1016851E8031F026821F067
:101E7000100142E8031393B1016851E8031F02689F
:101E800021F0100142E803134BB1016851E8031F30
:101E9000026821F0100142E80313002BDAD1016837
:101EA0000A68D20606D5002200920A6800924968A4
:101EB00000910099818D01B0FFF77AB902685268EC
:101EC0006FF35F2221F8022B8162A5E701B0FFF7D3
:101ED000B1BD000040F28010C2F20000FFF76CB903
:101EE000FEE70000B0B59AB040F21000C2F2000068
:101EF00006214182017C40F21B2242614FF42342C1
:101F0000C83101AC0283A0F8541020466421FEF7CA
:101F1000A0F900F089FB40F28010C2F200002146D7
:101F200064224FF47A73FFF7ADFCBDF8040040F271
:101F3000D80500BADDF80610000CC2F200052881B1
:101F400008BA0021C5E904019DF80A00BDF80B108C
:101F5000287648BA0328688306D304F10901821E53
:101F600005F11C00FEF730F9287F092804D001286C
:101F700006D102201AB0B0BD01201AB0B0BD00BF1A
:101F8000B5F81D00B5F81F1000BA000C288008BA7B
:101F9000000C688000201AB0B0BD000040F2D800EC
:101FA000C2F200004088704740F2D800C2F2000040
:101FB00000887047B0B59AB040F21000C2F200003D
:101FC000027C012141820175111D01ACA0F8541061
:101FD00020466421FEF73DF900F026FB40F2801018
:101FE000C2F20000214664224FF47A73FFF74AFCE4
:101FF000BDF8040040F2D80500BADDF80610000C68
:10200000C2F20005288108BA0021C5E904019DF843
:102010000A00BDF80B10287648BA0328688306D357
:1020200004F10901821E05F11C00FEF7CDF8287F9E
:102030000028014618BF0121012818BF48001AB026
:10204000B0BD0000B0B59AB040F21000C2F200007E
:102050000221027CC0F20221C0F8121002F1080134
:1020600001ACA0F8541020466421FEF7F2F800F00D
:10207000DBFA40F28010C2F20000214664224FF4E5
:102080007A73FFF7FFFBBDF8040040F2D80500BAF1
:10209000DDF80610000CC2F20005288108BA002104
:1020A000C5E904019DF80A00BDF80B10287648BA6E
:1020B0000328688306D304F10901821E05F11C0080
:1020C000FEF782F8287F0028014618BF0121012869
:1020D00018BF48001AB0B0BDB0B59AB040F21000B9
:1020E000C2F2000001214182017C1D22203101AC9D
:1020F0000275A0F8541020466421FEF7AAF800F0FB
:1021000093FA40F28010C2F20000214664224FF49C
:102110007A73FFF7B7FBBDF8040040F2D80500BAA8
:10212000DDF80610000CC2F20005288108BA002173
:10213000C5E904019DF80A00BDF80B10287648BADD
:102140000328688306D304F10901821E05F11C00EF
:10215000FEF73AF8B5F81D0000BA000C1AB0B0BD91
:1021600010B59AB040F21000C2F200000121418285
:10217000017C0F22123101AC0275A0F854102046E8
:102180006421FEF766F800F04FFA40F28010C2F2C8
:102190000000214664224FF47A73FFF773FBBDF809
:1021A0000400DDF8062000BA010C40F2D800C2F2AB
:1021B0000000018111BA0022C0E90412BDF80B2011
:1021C0009DF80A1052BA032A0176428305D304F11E
:1021D0000901023A1C30FDF7F7FF1AB010BD0000EC
:1021E000012888BF704710B59AB040F21001C2F2C2
:1021F00000014FF001024A820A7C4FF0510008BFF3
:10220000502002440875D01C01ACA1F854002046AF
:102210006421FEF71EF800F007FA40F28010C2F2C7
:102220000000214664224FF47A73FFF72BFBBDF8C0
:102230000400DDF8062000BA010C40F2D800C2F21A
:102240000000018111BA0022C0E90412BDF80B2080
:102250009DF80A1052BA032A0176428305D304F18D
:102260000901023A1C30FDF7AFFF1AB0BDE810407B
:102270007047000090B0FEF74DFA00240120CDE930
:102280000B44CDE9094406900A904FF4E0104FF456
:10229000803102250F9006A8CDE90714CDE90D5134
:1022A000FEF72EFC20B1EFF3108072B6FEE700BF00
:1022B0000F20CDE901054FF48060CDE9040401A8A9
:1022C00002210394FEF7F2FA20B1EFF3108072B608
:1022D000FEE700BF40F60004C4F20104FFF7ECFC87
:1022E000FFF742FDFFF73CFF204610210122FEF7D9
:1022F000F7F9FFF7F1FE40F2C805C2F200052881A8
:102300000120FFF76DFF6420FEF7C2F82046202170
:10231000FEF7E0F900282870F8D1FFF74BFE68704F
:1023200090B9FFF78FFEA87070B9FFF7DBFDE8707A
:1023300020B1022000F044F8A87105E0FFF734FE58
:102340002871FFF72BFE687120462021FEF7C2F9A5
:102350000028F9D0DAE7000010B59AB001AC2046A9
:102360006421FDF776FF00F05FF940F28010C2F2C1
:102370000000214664224FF47A73FFF783FABDF818
:102380000400DDF8062000BA010C40F2D800C2F2C9
:102390000000018111BA0022C0E90412BDF80B202F
:1023A0009DF80A1052BA032A0176428305D304F13C
:1023B0000901023A1C30FDF707FF1AB010BD0000FA
:1023C000F0B599B040F21006C2F20006317C044626
:1023D000012070823075081D6D46A6F8540028460D
:1023E0006421FDF736FF00F01FF940F28010C2F2C1
:1023F0000000294664224FF47A73FFF743FABDF8D0
:10240000000040F2D80700BADDF80210000CC2F25A
:102410000007388108BA0021C7E904019DF80600C9
:10242000BDF80710387648BA0328788306D305F13B
:102430000901821E07F11C00FDF7C6FE387F08B1B6
:1024400019B0F0BD0220317CC0F20210C6F81200B3
:10245000C81D6D46A6F8540028466421FDF7F9FE14
:1024600000F0E2F840F28010C2F200002946642237
:102470004FF47A73FFF706FABDF80000DDF802109A
:1024800000BA000C388108BA0021C7E904019DF8A0
:102490000600BDF80710387648BA0328788306D3BB
:1024A00005F10901821E07F11C00FDF78DFE387F42
:1024B0000028C5D1317C012070823075081D6D4621
:1024C000A6F8540028466421FDF7C3FE00F0ACF8DE
:1024D00040F28010C2F20000294664224FF47A7361
:1024E000FFF7D0F9BDF80000DDF8021000BA000CCB
:1024F000388108BA0021C7E904019DF80600BDF83B
:102500000710387648BA0328788306D305F1090105
:10251000821E07F11C00FDF757FE387F00288FD17F
:102520000220317CC0F20220C6F8120001F108003E
:102530006D46A6F8540028466421FDF78AFE00F097
:1025400073F840F28010C2F20000294664224FF472
:102550007A73FFF797F9BDF80000DDF8021000BAB2
:10256000000C388108BA0021C7E904019DF8060073
:10257000BDF80710387648BA0328788306D305F1EA
:102580000901821E07F11C00FDF71EFE387F00289E
:102590007FF456AF01207082307C052108306D46F3
:1025A0003175A6F8540028466421FDF752FE00F06C
:1025B0003BF840F28010C2F20000294664224FF43A
:1025C0007A73FFF75FF9BDF80000DDF8021000BA7A
:1025D000000C388108BA0021C7E904019DF8060003
:1025E000BDF80710387648BA0328788306D305F17A
:1025F0000901821E07F11C00FDF7E6FD387F002867
:102600007FF41EAF0420C0F20610C6F81200307C22
:10261000002120440D30B175F475A6F85400FFF781
:102620009BFE387F19B0F0BDF0B581B040F21006C6
:10263000C2F20006707840F28014C2F200040DF17C
:1026400003058DF803002046294601226423FFF785
:10265000F3F9307829468DF80300204601226423DF
:10266000FFF7EAF9FF2720462946012264238DF867
:102670000370FFF7E1F920462946012264238DF813
:102680000370FFF7D9F920462946012264238DF80B
:102690000370FFF7D1F920462946012264238DF803
:1026A0000370FFF7C9F9307C29468DF803002046F6
:1026B00001226423FFF7C0F9708A2946871C380A73
:1026C0008DF80300204601226423FFF7B5F9204668
:1026D0002946012264238DF80370FFF7ADF9708A53
:1026E000A0B140F280140027C2F200040DF10305EE
:1026F000F019007D29468DF803002046012264234D
:10270000FFF79AF9708A01378742F1D396F855009E
:1027100040F28014C2F200040DF103058DF80300AD
:102720002046294601226423FFF786F996F85400D3
:1027300029468DF80300204601226423FFF77CF927
:1027400001B0F0BD00000000000000000102030421
:102750000607080900000000010203040102020349
:102760000405060708090A0B0C0D0E0F10100000D7
:1027700090270008000000206800000028010008E1
:10278000F8270008680000206807000044010008DE
:1027900001000000100000000024F4000000000010
:1027A00001EF000000000000FFFFFFFF000000003D
:1027B0000100000000000000000000000000000018
:1027C0000000000000000000000000000000000009
:1027D00000000000000000000000000000000000F9
:1027E00000000000000000000000000000000000E9
:0827F0000000000000000000E1
:04000005080000ED02
:00000001FF
