:020000040800F2
:10000000600900203D020008C1500008C524000816
:10001000BD500008ED06000839550008000000003A
:100020000000000000000000000000003D53000838
:100030001507000800000000C550000841530008E3
:10004000570200085702000857020008570200082C
:10005000570200085702000857020008570200081C
:10006000570200085702000857020008570200080C
:1000700057020008570200085702000857020008FC
:10008000570200085702000857020008000000004D
:1000900000000000000000000000000057020008FF
:1000A000FD530008155400080954000857020008C1
:1000B00021540008570200082D5400085702000878
:1000C000570200085702000857020008C9500008EC
:1000D00057020008570200085702000800000000FD
:1000E00057020008570200085702000800000000ED
:1000F000000000000000000000000000570200089F
:1001000000000000570200085702000857020008CC
:1001100000000000000000000000000000000000DF
:100120005702000857020008570200080907000894
:10013000570200080000000000000000000000005E
:10014000000000000000000000000000570200084E
:10015000570200085702000857020008570200081B
:1001600057020008570200080000000000000000CD
:10017000000000000000000000000000000000007F
:10018000000000005702000800000000000000000E
:100190005702000800F002F800F041F80AA090E8C9
:1001A000000C82448344AAF10107DA4501D100F032
:1001B00036F8AFF2090EBAE80F0013F0010F18BFBE
:1001C000FB1A43F001031847A08A0000C08A000010
:1001D000103A24BF78C878C1FAD8520724BF30C873
:1001E00030C144BF04680C60704700000023002445
:1001F00000250026103A28BF78C1FBD8520728BF37
:1002000030C148BF0B607047642900F0F7800020C0
:1002100070471FB507F087F91FBD10B510BD00F07E
:100220001DFA1146FFF7F5FF05F088FE00F03BFAD6
:1002300003B4FFF7F2FF03BC00F03EFA0948804721
:1002400009480047FEE7FEE7FEE7FEE7FEE7FEE7B8
:10025000FEE7FEE7FEE7FEE704480549054A064BD0
:1002600070470000E9530008950100086003002072
:1002700060090020600500206005002053EA020CA0
:1002800000F069802DE9F04B4FF00006002B1FBFF6
:10029000B3FA83F503FA05F424FA05F65E4012BFBB
:1002A0001643B2FA82F502FA05F4C5F120051EBF25
:1002B00022FA05FC44EA0C04203556EA044C4FEAC5
:1002C000144418BF641C4FF000084FF0000990421E
:1002D00071EB030C39D3002919BFB1FA81F701FA88
:1002E00007F6B0FA80F700FA07F6C7F120071EBF3D
:1002F00020FA07FC46EA0C062037B6FBF4FCA7EB15
:100300000507103F07F01F0BCBF120062CFA06F66D
:100310000CFA0BFB44BFB3460026202FA4BF5E4659
:100320004FF0000B5BEA060C08BF4FF0010B19EB16
:100330000B0948EB0608ABFB027C06FB02CC0BFB6F
:1003400003CCC01B71EB0C01C1E70B4602464146D2
:100350004846BDE8F08B13B5084318BF4FF0FF3097
:100360000146AFF30080BDE81C4070470FB41CB5D8
:10037000074B06AA7B4469460090059800F027F9D0
:100380000020694600F036F91CBC5DF814FB000043
:100390007D0200002DE9F0410E4604460020206257
:1003A0002046E168884730B3252805D0D4E90121EB
:1003B0009047206A401CF2E7E16820460027884702
:1003C000050018D0A5F14100192802D820354FF4B6
:1003D00000673246294620462760FFF715FF40B1E7
:1003E000012804D0F61D26F007060836D8E7361D8A
:1003F000D6E72846DAE7206ABDE8F0812DE9F0412A
:100400000646002410687529314616A510D0AFF3B2
:100410000080002802DA404213A507E031688A070D
:1004200001D512A502E0490704D511A5012401E078
:10043000AFF3008000210A2206F1240709E0B0FB97
:10044000F2FCB0FBF2F302FB1C003030785418468B
:10045000491C0028F3D123462A463046BDE8F04126
:1004600000F057B8000000002D0000002B00000035
:100470002000000010B5431C02E010F8011B71B110
:100480008107FAD14FF0013202C88C1A8C4314EA6A
:10049000C211F9D0C01A0A0603D0C01E10BDC01A7E
:1004A00010BD0A0401D0801E10BD0902FCD0401E00
:1004B00010BD4FF000020429C0F0128010F0030CB0
:1004C00000F09F80CCF1040CBCF1020F18BF00F8C3
:1004D000012BA8BF20F8022BA1EB0C0100F091B872
:1004E0005FEAC17C24BF00F8012B00F8012B48BF54
:1004F00000F8012B704770477047704710B500F047
:10050000A5F8006810BD10B5044600F09FF804601F
:1005100010BD2DE9F0470D4699469246044600F17C
:1005200024080168880604D5E06921F010012160E3
:1005300000E00120A84201DD471B00E00027A1697F
:100540007A1902EB0900081AA0612078C00602D4CB
:100550002046AFF30080002608E0D4E901211AF814
:1005600006009047206A401C761C20624E45F4DB52
:100570002078C0060AD52046AFF3008006E0D4E913
:10058000012130209047206A401C2062381EA7F1CC
:100590000107F4DC07E0D4E9012118F805009047D1
:1005A000206A401C2062281EA5F10105F3DC2046CC
:1005B000AFF300802078000602D50220BDE8F08766
:1005C0000120FBE701694A1C02610878704700B509
:1005D0008FB0CDE901310021059105497944CDE97C
:1005E000031011466846FFF7D5FE0FB000BD0000AE
:1005F000E5FFFFFF0A6802F8010B0A6070474FF041
:10060000000200B5134694469646203922BFA0E862
:100610000C50A0E80C50B1F12001BFF4F7AF09076E
:1006200028BFA0E80C5048BF0CC05DF804EB89005F
:1006300028BF40F8042B08BF704748BF20F8022BA2
:1006400011F0804F18BF00F8012B70470048704729
:100650002800002000487047280000207546FFF75A
:10066000F9FFAE4605006946534620F0070085466F
:1006700018B020B5FFF7F0FDBDE820404FF00006B0
:100680004FF000074FF000084FF0000BAC46ACE80D
:10069000C009ACE8C009ACE8C009ACE8C00921F069
:1006A00007018D46704710B50446AFF30080204621
:1006B000BDE81040FFF7BCBD01491820ABBEFEE706
:1006C000260002007047000001280CD880B540F2D7
:1006D0001C0CC2F2000C5CF820C0084611461A46F9
:1006E000E047BDE88040002070470000FEE70000C2
:1006F000016040F20111C180002182800172C0E9D5
:10070000031101757047000040F22010C2F2000092
:1007100000F018B87047000072B600BFFEE7000096
:1007200090F83510022909D1052180F835100068AC
:10073000016821F0010101600020704780214165BE
:1007400001207047F0B581B004460020009040F2CF
:100750001800C2F200000268D4E9166048F2B5132E
:1007600037680821C1F64E3381403942A2FB032588
:100770000CD0226813685B0708D5136823F00403C4
:100780001360B160616D41F001016165012181403B
:10079000394208D022685269120604D5B160616DF1
:1007A00041F00201616504218140394208D022688C
:1007B0001268920704D5B160616D41F00401616572
:1007C00010218140394217D020680268120713D5E2
:1007D000B16002680168520308D4C90508D40168F1
:1007E00021F008010160216C21B905E008033FD424
:1007F000216C09B120468847E16D202000FA01F202
:100800003A4241D020680368DB063DD5B26094F8D7
:1008100035300268052B1BD122F0160202604269B6
:1008200022F080024261226C0AB9A26C1AB10268FD
:1008300022F0080202603F208840B060012084F866
:100840003500216D0020002984F8340052D157E092
:100850000168520310D4C90512D4016821F01001B7
:100860000160012084F83500002084F8340007E09E
:10087000A16C0029BED1BFE7080301D4616C00E080
:10088000E16B09B120468847606DC8B3606DC00751
:100890002ED0052084F835002068A90A026822F0CD
:1008A00001020260009A01328A4200921AD802685C
:1008B000D20717D0009A01328A42009212D80268F9
:1008C000D2070FD0009A01328A4200920AD80268F9
:1008D000D20707D0009A01328A42009202D80268F9
:1008E000D207DFD1012084F83500002084F83400DD
:1008F000E16C29B1204601B0BDE8F040084700BFD7
:1009000001B0F0BD2DE9F041044600F0F9F9ECB179
:100910000546022084F835000020216884F8340060
:10092000086820F00100086021680868C00711D03D
:1009300000F0E6F9401B0528F6D903252023032003
:10094000636584F83550BDE8F08100BF0120BDE843
:10095000F08100BF086848F23F02CFF21002D4E9EC
:10096000013500EA020C04F10C0898E8C10143EAE1
:100970000C032B431843D4E9072E3043384310436C
:10098000626A40EA0E00042A40EA08031CD1206B88
:10099000D4E90A2E40EA0E00184308604869BEF107
:1009A000000F20F0030040EA020040F0040C11D0D8
:1009B000B8F5005F36D0B8F1000F45D1022A46D015
:1009C000012A3BD032B942E00B60486920F00700B1
:1009D00040EA020C01F0F8004AF6AB221038CAF6E1
:1009E000AA22A0FB02231A0948F65843C0F60003C6
:1009F0009A5C40F2FF335F284FF03F00C1F814C00B
:100A000021EA030100FA02F088BF0431C4E916129A
:100A10008860002301250020636584F83550BDE817
:100A2000F08100BF032AD5D8012540230120DFE84B
:100A300002F0030E030500BF82E700BFAEF1C070F5
:100A4000B0FA80F0400904E0032A04D3C2D1CEF307
:100A500000600028BED0012540230120636584F892
:100A60003550BDE8F081000070B590F834C0BCF19D
:100A7000010F46D04FF0010C80F834C0D0F858E098
:100A800090F835C0BCF1010F38D14FF0020C80F85E
:100A900035C04FF0000CC0F854C0D0F800C08468D6
:100AA000056CC06DDCF80060402C26F48026CCF884
:100AB0000060CCF804300B4604BF13460A463F21C1
:100AC00001FA00F0CCF80830CCF80C20CEF8080081
:100AD000DCF8000040F01600CCF800002DB1DCF886
:100AE000000040F00800CCF80000DCF8000040F006
:100AF0000100CCF80000002070BD00BF002180F88C
:100B00003410022070BD0000B0B5044600F0F8F8C3
:100B1000054640F20800C2F200000078611C18BFD0
:100B2000044400BF00F0ECF8401BA042FAD3B0BD73
:100B30002DE9F04F82B000F13E4241F2000502F192
:100B4000FF77C4F20205072243F6004E4FEAB726AC
:100B5000A84208BF0422C4F2010E042E38BF4FEA97
:100B6000B7220125002600274FF00008009208E078
:100B700008F101080437B8F1100F06F1020600F081
:100B8000A7800C6805FA08F914EA090FF0D0D1F82B
:100B900004B003220BF0030CACF10104B240012CB1
:100BA0006FEA020A10D88268CC6802EA0A02B440EE
:100BB000224382604268CBF3001422EA090204FA5D
:100BC00008F42243426005E0BCF1030F02D14FF06C
:100BD000030C20E0C2688C6802EA0A02B440224397
:100BE000BCF1020FC26016D16FF0030202EA580294
:100BF0000244D2F820C007F01C050F230C69AB405B
:100C00002CEA030304FA05F52B431362D1F804B070
:100C100001250BF0030C02680CFA06F302EA0A0243
:100C20001A431BF4403F0260A2D0002243F6440363
:100C30000192C4F202031A684FF6084C42F4804253
:100C40001A601A68CFF6FF7C02F480420192019A82
:100C500028F00302724452F80C3007F00C050F2400
:100C6000AC40A343009C04FA05F52B4342F80C303A
:100C7000DEF808204B6842EA090543F60C4CDC021A
:100C800058BF22EA0905CEF80850C4F2010CDCF87E
:100C900000209C0242EA090558BF22EA0905CCF867
:100CA0000050DEF804209C0342EA090558BF22EAFE
:100CB0000905CEF80450DEF80020DB0342EA0905FE
:100CC00058BF22EA0905CEF80050012550E700BFC1
:100CD00002B0BDE8F08F00000069084018BF012095
:100CE00070470000426902EA0103914341EA03416F
:100CF00081617047002A08BF0904816170470000C4
:100D000040F25C30C2F200000068704740F2080018
:100D100040F25C31C2F20000C2F2000100780A68C1
:100D2000104408607047000080B543F60040C4F2EC
:100D30000200016841F400710160016841F48061C2
:100D40000160016841F480710160032000F088F8BF
:100D50000F2000F005F800F027F8002080BD00000B
:100D600070B540F20806C2F2000640F2180132786F
:100D7000C2F200014FF47A730968B3FBF2F2044641
:100D8000B1FBF2F1084600F025FE0F2C4FF00105F3
:100D900008D838B94FF0FF3021460022002500F076
:100DA00033F87460284670BD82B0002043F64001DD
:100DB0000190C4F202014A6842F480424A604A68E3
:100DC00002F480420192019A0090086840F080503D
:100DD0000860086800F080500090009802B07047EA
:100DE000002848BF7047C1B200F01F00012202FA7C
:100DF00000F04EF20012CEF2000242EAD10121F0E0
:100E0000030108607047000010B54EF60C5CCEF28E
:100E1000000CDCF80030C3F3022E8EF00704042C23
:100E200028BF0424BEF103034FF0FF3E0EFA04F482
:100E300038BF0023A14399400EFA03F39A431143AC
:100E400000F00F0200F160430901043A03F5644326
:100E50006244002848BF02F10C03197010BD000065
:100E60004EF60C51CEF200010A684FF6FF031A400D
:100E700060F30A2242F0806040F0FD700860704725
:100E80002DE9F041002800F08B8043F60808C4F2F9
:100E900002080446D8F8F8030D4600F0070088421F
:100EA00007D288F8F853D8F8F80300F00700A842F2
:100EB00076D12068810717D5410705D5D8F80010ED
:100EC00041F4E051C8F80010010705D5D8F800102A
:100ED00041F46041C8F80010D8F80010A26821F071
:100EE000F0011143C8F80010C0073FD1D8F8F8034B
:100EF00000F00700A84207D988F8F853D8F8F8039B
:100F000000F00700A8424BD12068410707D5D8F868
:100F10000010E26821F4E0511143C8F80010000706
:100F200008D5D8F80000216920F4604040EAC100EB
:100F3000C8F8000000F054F8D8F8001047F27862C2
:100F4000C1F30311C0F60002515C40F2180220FA0E
:100F500001F140F20C00C2F200000068C2F200028F
:100F60001160FFF7FDFE0020BDE8F0816068811E82
:100F7000022907D258F8081C89015CBF0120BDE88E
:100F8000F08111E0012807D158F8081C89035CBFE3
:100F90000120BDE8F08107E058F8081C890703D458
:100FA0000120BDE8F08100BFD8F8001021F0030156
:100FB0000843C8F80000FFF7A3FE064641F2883751
:100FC000D8F80000616800F00C00B0EB810F8DD004
:100FD000FFF796FE801BB842F2D90320BDE8F081EE
:100FE00010B543F60404C4F20204606800F00C007B
:100FF00008280BD0042819BF42F20040C0F2F400C8
:1010000047F64000C0F27D1010BD00BF2068216887
:101010002368490247F64001C0F27D1100F03F020B
:10102000C3F388105CBF42F20041C0F2F401A1FB9F
:1010300000010023FFF722F921680222C1F30141D8
:1010400002EB4101B0FBF1F010BD00002DE9F041D1
:1010500082B0002868D00446007843F60006C00736
:10106000C4F202060BD0B06800F00C00042840F077
:101070009F803068800302D56068002854D02078B3
:1010800080071AD5B06810F00C0F09D0B06800F0D6
:101090000C00082840F0A6807068400200F1A28091
:1010A0003068800702D5E06801283DD130682169A9
:1010B00020F0F80040EAC10030602078000737D403
:1010C000207840074CD4A56955B3B06800F00C00F7
:1010D000082840F0BB80012D26D07068E16900F43B
:1010E00080028A4220D1216A00F03F028A421BD14D
:1010F00047F6C071626A0140B1EB821F14D1A16A48
:101100004FF6FF73C903994300F44032A1F58031D3
:101110008A4209D1E16A00F07060B0EB016F03D13F
:10112000002002B0BDE8F081012002B0BDE8F081EE
:101130006069002840F20000C4F2472076D0012107
:10114000C0F8801EFFF7DCFD054600BF706F80070A
:10115000B6D4FFF7D5FD401B0228F7D9DDE000BF6C
:10116000306C10F080580AD100200190306C40F0B3
:1011700080503064306C00F080500190019847F24C
:101180000007C4F200073868C00541D4386840F44D
:1011900080703860FFF7B4FD054600BF3868C005B1
:1011A00036D4FFF7ADFD401B0228F7D9B5E000BFEC
:1011B000B06800F00C00082803D1706840023FF5C9
:1011C00058AF6068B0F5803F07D0B0F5A02F40F071
:1011D0008D80306840F480203060306840F480308A
:1011E00030608DE0E068002852D00020C4F2472033
:1011F00001210160FFF784FD054600BF30688007CC
:101200003FF554AFFFF77CFD401B0228F6D984E080
:10121000A068012805D005284ED1306F40F00400A9
:101220003067306F40F0010030674FE00021C0F8B8
:10123000801EFFF765FD0546706F80077FF540AFA4
:10124000FFF75EFD401B0228F6D966E00027C4F2D6
:10125000472700203866FFF753FD022D05460BD1C6
:10126000306880015ED5FFF74BFD401B02284FF030
:101270000300F5D955E700BF306880017FF550AF16
:10128000FFF73EFD401B02284FF00300F4D948E76A
:101290000020C4F2472000210160FFF731FD054620
:1012A000306880077FF509AFFFF72AFD401B022851
:1012B0004FF00300F4D934E7316F002821F0010129
:1012C0003167316F21F0040131674DD0FFF718FD10
:1012D000054641F2883700BF306F800756D4FFF7CC
:1012E0000FFD401BB842F7D917E000BF3168002856
:1012F00021F480313160316821F4802131604FD098
:10130000FFF7FEFC054600BF306880033FF5B7AE2F
:10131000FFF7F6FC401B6428F6D9032002B0BDE8B5
:10132000F08100BF04F11C052FCD084340EA821074
:10133000D9034FF6FF729143A1F5803140EA056071
:101340000843706001203866FFF7DAFC044600BFEE
:10135000306880013FF5E4AEFFF7D2FC001B0228A5
:101360004FF00300F4D9DCE6FFF7CAFC054641F272
:10137000883700BF306F800708D5FFF7C1FC401BDE
:10138000B8424FF00300F5D9CBE600BFB8F1000F2B
:101390007FF499AE306C20F08050306493E600BF4B
:1013A000FFF7AEFC054600BF306880037FF567AEEF
:1013B000FFF7A6FC401B64284FF00300F4D9B0E609
:1013C00070470000B0B582B004460068416882688A
:1013D00012F0400305D112F0010518BF11F04005CD
:1013E00012D1950708D511F0800505D0616C204613
:1013F00002B0BDE8B040084712F4B07F18BF11F04A
:10140000200507D102B0B0BD216C204602B0BDE876
:10141000B0400847BBB194F85130032B08D10021EC
:101420000191C168019180680190019802B0B0BD3E
:10143000636D43F00403636500230193C368019364
:1014400083680193019B12F0200302F4807203D1A0
:101450008AB9626DDAB9D5E7636D43F0010363655C
:101460000023019383680193036823F04003036022
:10147000019B002AEDD0626D42F0080262650022F5
:10148000019282680192019A626D002ABAD0426884
:10149000890722F0E00242604FF0010284F85120F7
:1014A00020D0416845F2D50521F003014160E06C90
:1014B000C0F6000538B10565FFF732F918B1606D67
:1014C00040F040006065A06C00289BD00565FFF7E8
:1014D00027F900283FF496AF606D40F0400060654A
:1014E00002B0B0BD204602B0BDE8B040FFF768BF13
:1014F00070B538B10446406A30B10020206104F173
:10150000140007E0012070BD6068B0F5827F03D051
:1015100004F11C00002101600026A66294F851002D
:1015200020B9204684F8506000F03CF8022084F88E
:10153000510094E80F0001F48271056802F404423E
:1015400025F040050560114403F40062236911444D
:1015500003F002026369114403F00102A369E56923
:10156000114403F40072114405F03802256A114455
:1015700005F08002A56A114305F400521143016091
:10158000626A042101EA134102F010021144416031
:10159000C16921F40061C1610120666584F85100D0
:1015A000304670BD70B586B00446016843F2000055
:1015B000C4F20100814201D006B070BD002643F69E
:1015C00030010196C4F202014A6900F5504042F42C
:1015D00080524A614A6902F480520192019A01964E
:1015E0000A6842F001020A60096801F001010191F4
:1015F0000199E02101910221CDE902160321049114
:101600000521059101A9FFF793FA40F2201546F252
:101610005840C2F20005C4F202004FF0C0614022FF
:101620004FF4806385E847002846C5E90436C5E9DC
:101630000666C5E90866FFF765F9002818BFFFF7D9
:101640006BF8232000210022A564AC63FFF7DCFBCC
:101650002320FFF7C5FB06B070BD00002DE9F04167
:1016600084B0044690F85000012803D1022004B051
:10167000BDE8F08101201D4616460F4684F8500053
:10168000FFF73EFB94F8511001290DD18046002F41
:101690004FF0010018BF002E0ED1002184F8501029
:1016A00004B0BDE8F08100BF0220002184F8501092
:1016B00004B0BDE8F08100BF0320002184F8510090
:1016C00061652763A686E686A163A187E187A06896
:1016D0002164B0F5004F2068616407D1016821F0F2
:1016E00040010160016841F48041016001684906E0
:1016F00003D4016841F0400101606168731EE26833
:10170000B1FA81F1B3FA83F349095B09B2F5006FCD
:1017100041EA03013CD131B137F8021BC1602763B4
:10172000E08E0138E086E08E00286BD0681C0CD17A
:101730001DE000BF216B31F8022BC2602163E08EF7
:101740000138E086E08E00285CD020688168890737
:10175000F0D4FFF7D5FAA0EB0800A842F2D303209B
:10176000BFE000BFFFF7CCFAE08E00284AD0206827
:1017700081688907F6D5216B31F8022BC26021639D
:10178000E08E0138E086E08E0028F0D13AE000BF1C
:1017900039B139780173206B01302063E08E013854
:1017A000E086E08E70B3681C0BD11BE0216B0978DA
:1017B0000173206B01302063E08E0138E086E08EFB
:1017C00000B3206881688907F0D4FFF799FAA0EB8D
:1017D0000800A842F3D3032083E000BFFFF790FA8C
:1017E000E08E78B1206881688907F7D5216B097888
:1017F0000173206B01302063E08E0138E086E08EBB
:101800000028EFD12046022101222B46CDF800808E
:1018100003F004FDD0B1606D40F020006065202031
:101820006065A06838B9002002902068C168029104
:10183000806802900298606D002851D0012000213C
:1018400084F8501004B0BDE8F08100BF40F21800E9
:10185000C2F20000006849F68171C1F25E61A0FB2E
:101860000101480D4FF47A71484303906068B0F568
:10187000827F0BD12046802100222B46CDF80080AC
:1018800003F0CCFC0028C6D1CBE700BF03980028AA
:10189000C7D0039801380390206880680006C0D53F
:1018A00003980028BDD00398013803902068806811
:1018B0000006B6D503980028B3D0039801380390EA
:1018C000206880680006ACD503980028A9D003984A
:1018D00001380390206880680006D7D4A1E700BFD4
:1018E0000020012184F85110002184F8501004B028
:1018F000BDE8F08170B5044690F85000012804BF9F
:10190000022070BD012084F8500094F85100012895
:101910000AD100294FF0010018BF002A0AD1002186
:1019200084F8501070BD00BF0220002184F85010D0
:1019300070BD00BF03200023264684F8510046F8FE
:10194000543F2163A286E286A363C4E91033A387D0
:10195000E387A0682268B0F5004F07D1106820F037
:1019600040001060106840F480401060A06C45F2A8
:10197000011C45F20915C0F6000CC0F60005C0E9CF
:101980000F5C45F2E105C0F60005C0E91353E38E94
:101990000C32FFF769F818B1012010210FE000BFE9
:1019A00026683068400603D4306840F0400030605C
:1019B00056F8040F022140F0200030600020326809
:1019C00011433160002184F8501070BD7047000051
:1019D00070470000411E0020B0EB116F1CBF0120BA
:1019E00070474EF21002CEF2000251604EF62351C3
:1019F000CEF20001F0230B70072190601160704758
:101A0000704700007047000010B590F83C20012A94
:101A10004FF002023ED080F83D200268D2F804E088
:101A2000D2F808C00C682EF07003234340F6FF3450
:101A3000C4F20004A242536010DCB2F1804F1ED009
:101A400040F20043C4F200039A4218D040F600036B
:101A5000C4F200039A4212D016E000BF40F60043E1
:101A6000C4F200039A420AD044F20003C4F2010314
:101A70009A4204D00023C4F201039A4204D1496877
:101A80002CF08003194391600121002280F83D1061
:101A900080F83C20104610BD002804BF012070478C
:101AA00010B5044690F83D0028B9002084F83C00A9
:101AB000204600F01FF8022084F83D002068211D18
:101AC00003F0BAFC012084F8460084F83E0084F854
:101AD0003F0084F8400084F8410084F8420084F814
:101AE000430084F8440084F8450084F83D00002059
:101AF00010BD000010B584B0006844F60001C4F2C7
:101B00000101884222D044F20041C4F2010188421E
:101B100030D044F20001C4F2010188421CBF04B07D
:101B200010BD0020039043F64400C4F20200016897
:101B3000002241F4803101600068002100F480300F
:101B4000039003981820182427E000BF002001907C
:101B500043F64400C4F202000168002241F48021EF
:101B600001600068002100F48020019001981A2093
:101B70001A2412E00020029043F64400C4F202004E
:101B80000168002241F40031016000680A2100F47C
:101B900000300290029819201924FFF735F92046E9
:101BA00004B0BDE81040FFF71BB9000090F83D10ED
:101BB00001291CBF01207047022180F83D100068F8
:101BC00040F6FF32C168C4F20002904241F00101C8
:101BD000C1600FDCB0F1804F1DD040F20041C4F273
:101BE0000001884217D040F60001C4F2000188428B
:101BF00011D017E040F60041C4F2000188420AD03B
:101C000044F20001C4F20101884204D00021C4F270
:101C10000101884206D1816801F00701062904BF4D
:101C200000207047016841F0010101600020704709
:101C300080B590F83C20012A4FF0020200F0C280EB
:101C400080F83D20D0F800C04FF67772DCF80830FD
:101C500023EA0202CCF808200B684F2B28DC1F2B4C
:101C600044DD202B45D0302B43D0402B40F0AC80BE
:101C7000D1F804E0C968DCF82030DCF8202022F03C
:101C80000102CCF82020DCF8182022F0F00242EA11
:101C9000011123F00A0242EA0E02CCF81810CCF827
:101CA0002020DCF8081041F0470121F0300180E0ED
:101CB0006F2B27DDB3F5005F48D0B3F5805F7AD096
:101CC000702B40F08180D1E901E3C968DCF808207D
:101CD00043EA0E0322F47F4243EA01211143CCF888
:101CE0000810DCF8081041F0770162E00BB1102B0E
:101CF0006AD1DCF8081021F07001194341F00701A6
:101D000057E000BF502B35D0602B5DD1D1F804E0F7
:101D1000C968DCF82030DCF8202022F01002CCF872
:101D20002020DCF8182022F4704242EA013123F02E
:101D3000A00242EA0E12CCF81810CCF82020DCF8F1
:101D4000081041F0670121F0100132E0D1E901E310
:101D5000C968DCF8082043EA0E0322F47F4243EA14
:101D600001211143CCF80810DCF8081041F480413F
:101D70001FE000BFD1F804E0C968DCF82030DCF8CF
:101D8000202022F00102CCF82020DCF8182022F0DC
:101D9000F00242EA011123F00A0242EA0E02CCF8F4
:101DA0001810CCF82020DCF8081041F0570121F081
:101DB0002001CCF808100022012180F83D100021FC
:101DC00080F83C10104680BD0122F5E7002804BFD2
:101DD000012070472DE9F047044690F83D000D467C
:101DE00028B9002084F83C00204600F049F8022081
:101DF00084F83D00206844F20702816891438160C5
:101E0000211D03F019FB20684FF6FF788168826975
:101E1000D0F820C0D5E9003ED5E9026A43EA0109BD
:101E2000AB6922EA080246EA03234FF6FC46B343B5
:101E3000D5E9076742EA0A0229691A4342EA0622FB
:101E400042EA01112CF0AA026B6942EA0E0241EA51
:101E5000073142EA0312C0F8089081610262012052
:101E600084F8460084F83E0084F83F0084F842007D
:101E700084F8430084F83D000020BDE8F0870000AE
:101E800010B586B0006840F60002C4F200020021DE
:101E90009042CDE90411CDE90211019124D0B0F1B5
:101EA000804F53D1002043F630010090C4F202016C
:101EB0000A691C2442F001020A610A69032302F044
:101EC00001020092009A00900868012240F001008F
:101ED00008600868012100F00100009000980020CF
:101EE000C4F2020020E000BF43F630000091C4F2CB
:101EF000020002691E2442F0040202610269C0234A
:101F000002F004020092009A0091026842F002027C
:101F100002600068022200F0020000900098002099
:101F2000C4F2020000F5806001930223CDE9023182
:101F30000021CDE9041201A9FEF7FAFD2046002197
:101F40000022FEF761FF2046FEF74AFF06B010BDF3
:101F500080B590F83E2090F83F3090F842E090F83D
:101F600043C004290AD0F9B9012A4FF0010208BF81
:101F7000BEF1010F46D0104680BD00BF012B4FF0CF
:101F8000010208BFBCF1010FF5D1022180F83F101A
:101F900080F843100068016A21F010010162016AB3
:101FA00041F0100101622AE0012A4FF0010208BF4E
:101FB000012BE0D1BEF1010FDDD1BCF1010FDAD16F
:101FC000022280F83E2080F83F2080F8422080F8EE
:101FD0004320E1B10068016A21F001010162016A58
:101FE00041F001010162016A21F010010162016A00
:101FF00041F010010162C16841F00201C160042199
:102000000FE000BF022180F83E1080F84210006807
:10201000016A21F001010162016A41F001010162DE
:102020000221C2681143C1600168002241F0010130
:102030000160104680BD000051B102680429136A96
:1020400010D123F010031362136A136219E000BF6A
:1020500002686FF0020C136A23F001031362136A23
:10206000136210E023F001031362136A1362136A10
:1020700023F010031362136A1362D36823F0020380
:10208000D3606FF0040CD36803EA0C03D360D2F87A
:1020900020C041F211131CEA030F06D1D2F820C070
:1020A00040F244431CEA030F1ED041F00402042A0C
:1020B00022D149B104290FD1012180F83F1080F8C5
:1020C00043100020704700BF012180F83E1080F8C7
:1020D00042100020704700BF012180F8411080F8B5
:1020E00045100020704700BF136823F00103136000
:1020F00041F00402042ADCD0012180F83E1080F86F
:102100003F1080F8421080F8431000207047000014
:1021100040F26821C2F2000100680968884235D0A7
:1021200040F2B021C2F200010968884218BF70472E
:10213000416A8A0840F2C001C2F20001CA81026805
:10214000C2F30012CA71B1F90E20B2F5B47F11DCEE
:10215000B1F90E20012A0DDBC879012802D0C87917
:10216000002875D1B1F90E20B1F90E00012A6DDBFE
:1021700048706DE0B1F90E20B2F5B47F03DCB1F91F
:102180000E20002A68DC0422426265E040F2C001B1
:10219000C2F200010122CA700A7100224A7102686B
:1021A000C2F300128A71426A524292088A818A7985
:1021B000012A01D08A794AB9B1F90C30B1F90C2061
:1021C000012B01DB0A7001E0002A4BDD40F2000C1C
:1021D000C2F2000C9CF8003033B3012B40D10A78D6
:1021E000BCF8023093429CBF6FF003024262087851
:1021F00001EE103A834238BF0878B1F90C009CED2B
:10220000010AB8EE411A80EE010A01EE100AB8EE9A
:10221000C11A20EE010ABDEEC00A10EE100AC884F1
:10222000888981F8220070470A78032A06D80A783C
:1022300022B1087881F82100704700BF0A78032A8C
:1022400092BF08786FF003014162704700282BDDD0
:102250004878013881F823000120C870087248715D
:10226000704700BF40F20002C2F20002538892EDB4
:10227000010A01EE103AB8EE411A80EE011A8A897D
:1022800013B282EAE332A2EBE33292B280EE010AA9
:1022900001EE102AB8EE411A30EE410ABDEEC00A36
:1022A00010EE102A8EE700BF40F20000C2F20000DC
:1022B000428890ED010A01EE102AB8EE411A80EE34
:1022C000011AC88902B280EAE230A0EBE23080B2A3
:1022D00080EE010A01EE100AB8EE411A30EE410A12
:1022E000BDEEC00A10EE100A42E7000070B50446C9
:1022F0000068C5680669B10716D515F0020113D04C
:102300006FF002010161012121778069800703D00C
:102310002046FFF7FDFE05E0204600F08FF820463E
:1023200000F08EF800202077700719D515F0040012
:1023300016D020686FF004010161022121778069C5
:1023400010F4407F04D02046FFF7E2FE06E000BF15
:10235000204600F073F8204600F072F80020207745
:10236000300717D515F0080014D020686FF0080169
:10237000016104212177C069800703D02046FFF75F
:10238000C7FE05E0204600F059F8204600F058F856
:1023900000202077F00619D515F0100016D020681F
:1023A0006FF01001016108212177C06910F4407FAE
:1023B00004D02046FFF7ACFE06E000BF204600F048
:1023C0003DF8204600F03CF800202077F00718BFC9
:1023D00015F0010002D1300609D412E020686FF038
:1023E00001010161204600F02DF8300609D515F0F5
:1023F000800006D020686FF0800101612046FFF761
:10240000FFFA700609D515F0400006D020686FF07D
:1024100040010161204600F053F8B00658BF70BD7E
:1024200015F0200008D021686FF0200220460A61D4
:10243000BDE87040FFF7E6BA70BD000070470000CD
:1024400070470000B0B540F2D811C2F20001044656
:102450000068096888421ED140F2C005C2F200053A
:10246000286988B10020C4F202004FF48051FEF7C1
:1024700039FC286904210138286140F26820C2F241
:102480000000FFF7D9FD06E040F26820C2F200002C
:102490000421FFF75DFD40F22021C2F20001206817
:1024A0000968884218BFB0BD002002F025F903F08A
:1024B000B9FC40F2C001C2F200018870B0BD00005A
:1024C00070470000FEE700002DE9F04F03AF81B038
:1024D00040F20048C4F202088B4604464FEA410A23
:1024E000404604210122BAF5FA7F28BF4FF4FA7B57
:1024F000FEF700FC404601210022FEF7FBFB0BF13A
:10250000070020F00700ADEB0006B546BBF1000F59
:1025100017D0200A002100BF8B1C72185B45705435
:1025200054700ED20B1D5B459070D47009D28B1D78
:102530005B451071547104D2083159459071D471C2
:10254000EAD3D34512D8BAFBFBF540F280191FFA43
:102550008BF4C2F20009012D98BF0125484631468F
:1025600022460A23FFF77AF8013DF7D1BAFBFBF0C8
:10257000314600FB1BA00A2382B240F28010C2F257
:102580000000FFF76BF8404601210122FEF7B2FB85
:10259000A7F10C04A546BDE8F08F00002DE9F04F2F
:1025A00087B0074601201C4615460091A0EB42016A
:1025B0000022BB464FF0000A00200690019718E069
:1025C000059A029B524403EB420000284D461946EF
:1025D000C4BF013D02310028C8BF1A440698019FBC
:1025E000854200F101000AF1020AABF1010B0690ED
:1025F00048DD02A880E8020CA7EB0508E819804531
:1026000005921CDC0098069901EB0009A0EB010A79
:10261000680000F1010B00BF1FFA88F61FFA89F16C
:102620003046224600F054FA1FFA8AF1304622461C
:1026300000F04EFABBF1010B08F10108ECD106994C
:10264000DDE903AB781A3944A9468842B8DC009921
:102650004FF0FF3509EB0108A1EB0907484600BF21
:10266000013505EB0B0086B21FFA88F13046224691
:1026700000F02EFAB9B23046224600F029FAAA45F7
:10268000EED19DE707B0BDE8F08F0000B0B582B095
:10269000151AAC46A3EB010448BFC5F1000C002D90
:1026A000DDF818E048BF1046002C254648BF6542BB
:1026B000002C48BF19461FFA8CF2ABB2CDF800E0EF
:1026C00000F0C6FA02B0B0BD2DE9F04F87B0002A85
:1026D00074D004460020A0EB4200009040F00108B6
:1026E00001201D46A2F101094FF0000A0122074610
:1026F000069100BF0699CDE90307514409EB040098
:102700008EB2059280B231462A46029000F0E0F97E
:1027100006990AEB040049448FB280B239462A4632
:10272000019000F0D5F9A4EB0A001FFA80FB58468F
:1027300039462A4600F0CCF9A4EB090087B23846A6
:1027400031462A4600F0C4F906982A46A0EB0A0052
:1027500086B23846314600F0BBF906982A46A0EB0F
:10276000090087B25846394600F0B2F90198394657
:102770002A4600F0ADF9029831462A4600F0A8F941
:10278000DDE90472B8F1010FBCBF0AF1010A02379A
:10279000B8F1010F0398B8BF80440099B8F1000F59
:1027A00002F10200C4BFA9F101090246B8F1000F0D
:1027B0000144C8BF8844D14538469BDA07B0BDE81C
:1027C000F08F00002DE9F0470446DDF820A0101A34
:1027D0000F4648BF404285B2984691465E1A204651
:1027E00039462A46534600F023F8204641462A46F9
:1027F000534600F01DF8002E48BF7642B5B2204681
:1028000039462A46534600F035FB484639462A46A3
:10281000534600F02FFBA14508BFB84506D04846F7
:1028200041465246BDE8F04700F052B9BDE8F08796
:1028300070B5154640F21002C2F200021E465388DF
:10284000834217D913888B4298BF70BD53882C18C8
:102850009C422B4602D95288131A9DB2C218013AE3
:1028600092B20B4601F036FB30462946BDE8704077
:10287000FFF72ABE70BD00002DE9F04F83B0B3EB27
:10288000010C48BFCCF1000C151A48BF6D42AC4595
:1028900008D90F4619468F420AD8BE4606460F464B
:1028A000104607E00746084611461A468F42F4D9FB
:1028B0008E461646841BA7EB0E0948BF6442DDF81E
:1028C00030A04FF0FF3BB04288BF4FF0010BAC454A
:1028D0004FEA690540F27E80BE4500F2F58040F285
:1028E000100C0023C2F2000CF046CDE9019A06E07C
:1028F000134608F101081FFA88F0B84246D82D1B8C
:10290000B5F1FF3F03F10102F2DC4BB3BCF802105A
:10291000B0B281422ED9BCF800301FFA8EF18B4242
:1029200028D91FFA82FABCF800901AFA8EF34B45A8
:1029300005D9BCF80020A2EB0E021FFA82FA7244FD
:10294000013A93B2024601F0C5FA02985146824616
:10295000FFF7BAFD40F2100CDDF8049008E000BF6C
:10296000B0B21FFA8EF1524600F0B2F840F2100CED
:10297000C2F2000C01205E4410FA88FE4D44002390
:1029800008F101081FFA88F0B842B8D9002B00F00E
:102990009B80BCF80210B0B2814240F29580BCF836
:1029A00000201FFA8EF18A4240F28E809DB2BCF860
:1029B000002015FA8EF7974204D9BCF80020A2EB4C
:1029C0000E039DB20EEB0302013A93B2024601F0F0
:1029D00081FA72E0BE4577D840F2100C0022C2F2B4
:1029E000000CF046CDF808A007E000BF1A4608F139
:1029F00001081FFA88F0B84242D82D1BB5F1FF3FFD
:102A000002F10103F2DC2AB3BCF802101FFA8EF0C7
:102A1000814229D9BCF80020B1B28A4224D9E246C9
:102A2000BCF802C010FA83F2624584BFBAF80220F3
:102A3000A2EB0E030EEB0302013A1FFA83FA92B2E5
:102A40000B4601F047FA029851468246FFF73CFDDB
:102A500006E000BF1FFA8EF0B1B2524600F038F81F
:102A600040F2100CC2F2000C01205E4410FA88FE05
:102A70004D44002208F101081FFA88F0B842BCD981
:102A800012B3BCF802101FFA8EF081421CD9BCF8B8
:102A90000030B1B28B4217D9BCF8023010FA82F77D
:102AA0009F4284BFBCF80220A2EB0E0295B2724492
:102AB000013A92B20B4601F00DFA5046294603B096
:102AC000BDE8F04FFFF700BD03B0BDE8F08F000098
:102AD0002DE9F04184B0144640F21002C2F2000227
:102AE0005388834240F2B180064610880F468842E0
:102AF00040F2AB8040F20045C4F2020528460421B2
:102B00000022FEF7F7F8284601210022FEF7F2F82E
:102B100040F280182A20C2F200088DF80D000DF155
:102B20000D0140460122FEF7E5FE28460421012260
:102B3000FEF7E0F8284601210122FEF7DBF82846DF
:102B400001210022FEF7D6F8300A8DF80900701C2A
:102B5000010A8DF80B108DF80C000DF109014046AB
:102B6000042201238DF80A60FEF778FD2846012132
:102B70000122FEF7BFF8284604210022FEF7BAF82A
:102B8000284601210022FEF7B5F82B208DF80E0013
:102B90000DF10E0140460122FEF7ACFE284604214D
:102BA0000122FEF7A7F8284601210122FEF7A2F82C
:102BB000284601210022FEF79DF8380A8DF805000D
:102BC000781C010A8DF807108DF808000DF1050139
:102BD0004046042201238DF80670FEF73FFD28468B
:102BE00001210122FEF786F8284604210022FEF783
:102BF00081F8284601210022FEF77CF82C208DF870
:102C00000F000DF10F0140460122FEF773FE28462A
:102C100004210122FEF76EF8284601210122FEF769
:102C200069F8284601210022FEF764F860BAADF881
:102C300003000DF10301404602220123FEF70EFDC1
:102C4000284601210122FEF755F804B0BDE8F081C5
:102C5000F0B581B040F21004C2F20004069F66880D
:102C6000864221D926888E421ED966881518B5421B
:102C700084BF6288121A26885D18B5421E4602D9A2
:102C800023885B1A9EB294B202440B44013A013B82
:102C900092B29BB201F01EF906FB04F1384601B076
:102CA000BDE8F040FFF710BC01B0F0BD2DE9F04FDA
:102CB0008BB090F800C00192BCF1000F049100F0BD
:102CC000D580169DDDE9144648F6A808C0F6000830
:102CD00012E000BF0498069948F6A808084401309D
:102CE0000490DDE90210C0F6000810F801C00844A5
:102CF000BCF1000F00F0BA804FFA8CF1B1F1FF3F48
:102D0000039021DD01214FF0000E0C22029100BF43
:102D100008EB020757F80C7CBC452BD008EB8E0162
:102D20004F68BC451CD08F68BC451DD058F8027058
:102D3000BC451DD00EF1040EBEF1EC0F02F11002E5
:102D4000E6D14FF0000917E00CF0F001E0296DD05A
:102D5000C02975D1417841EA0C2C0221D3E700BF8C
:102D60000EF1010E06E000BF0EF1020E02E000BF00
:102D70000EF1030E5FFA8EF940F25830C2F20000F5
:102D8000A0F8009035F819003178304410F803AC01
:102D900010F8047CB1EB0A0198BF0021002F3A46DD
:102DA000069718BFBAF1000F94D0049A10F8010CDE
:102DB000D2B20592019A0027104400EB010B00BF2C
:102DC00038B2C0F30270384401B200F0F800C91004
:102DD000381A0A91C0B2802121FA00F009900598B2
:102DE000079738440027089035F819001A468119CA
:102DF00011F8028C0A99084407FB08000999305C15
:102E00000BEB0708084208BF224608981FFA88F112
:102E100080B29846FFF75CFE01374346BA45E3D1DE
:102E2000079F069801378742CAD153E741788278D5
:102E3000090241EA0C4101EB020C032163E700BFE8
:102E4000BCF1F00F0CD3417882780904C77841EACD
:102E50000C6141EA022101EB070C042153E700BF9A
:102E600001204FF00009029086E700BF0BB0BDE8DB
:102E7000F08F000070B5154640F21002C2F2000259
:102E80001E465388834217D913888B4298BF70BD62
:102E900013886C189C422B4602D91288531A9DB293
:102EA000CA18013A93B2024601F014F83046294696
:102EB000BDE87040FFF708BB70BD0000B0B540F240
:102EC0001005C2F200056A882B8804460020002104
:102ED00001F000F86888298841432046BDE8B040E9
:102EE000FFF7F2BA2DE9F04F81B040F20044C4F28E
:102EF000020420460221012202274FF00108FDF7BB
:102F0000F9FE20464FF480610122FDF7F3FE2046D2
:102F1000012100220026FDF7EDFE204602210022BD
:102F2000FDF7E8FE0120FDF7EFFD2046012100221C
:102F3000FDF7E0FE0120FDF7E7FD2046022101221A
:102F4000FDF7D8FE204601210022FDF7D3FE2046E2
:102F500004210022FDF7CEFE40F28015C2F20005EA
:102F60000DF10301284601228DF80380FEF7C2FC13
:102F7000204601210122FDF7BDFE0120FDF7C4FD21
:102F8000204601210022FDF7B5FE20460421002243
:102F9000FDF7B0FECB208DF803000DF103012846AC
:102FA0000122FEF7A7FC204601210122FDF7A2FE27
:102FB000204604210122FDF79DFE2046012100222A
:102FC000FDF798FE39208DF803000DF10301284626
:102FD0000122FEF78FFC204601210122FDF78AFE27
:102FE000204604210122FDF785FE20460121002212
:102FF000FDF780FE2C208DF803000DF1030128461B
:103000000122FEF777FC204601210122FDF772FE26
:10301000204604210122FDF76DFE204601210022F9
:10302000FDF768FE0DF10301284601228DF80360CB
:10303000FEF760FC204601210122FDF75BFE2046E1
:1030400004210122FDF756FE204601210022FDF752
:1030500051FE34208DF803000DF1030128460122B2
:10306000FEF748FC204601210122FDF743FE2046E1
:1030700004210122FDF73EFE204601210022FDF73A
:1030800039FE0DF10301284601228DF80370FEF789
:1030900031FC204601210122FDF72CFE20460121B2
:1030A0000022FDF727FE204604210022FDF722FE24
:1030B000CF208DF803000DF1030128460122FEF711
:1030C00019FC204601210122FDF714FE20460421AF
:1030D0000122FDF70FFE204601210022FDF70AFE26
:1030E0000DF10301284601228DF80360FEF702FC72
:1030F000204601210122FDF7FDFD20460421012289
:10310000FDF7F8FD204601210022FDF7F3FDC12067
:103110008DF803000DF1030128460122C127FEF7B7
:10312000E9FB204601210122FDF7E4FD20460421B0
:103130000122FDF7DFFD204601210022FDF7DAFD27
:1031400030208DF803000DF1030128460122FEF71F
:10315000D1FB204601210122FDF7CCFD20460121B3
:103160000022FDF7C7FD204604210022FDF7C2FD25
:10317000E8208DF803000DF1030128460122FEF737
:10318000B9FB204601210122FDF7B4FD20460421B0
:103190000122FDF7AFFD204601210022FDF7AAFD27
:1031A00085208DF803000DF1030128460122FEF76A
:1031B000A1FB204601210122FDF79CFD20460421B0
:1031C0000122FDF797FD204601210022FDF792FD27
:1031D0000DF10301284601228DF80360FEF78AFBFA
:1031E000204601210122FDF785FD20460421012210
:1031F000FDF780FD204601210022FDF77BFD7820B0
:103200008DF803000DF1030128460122FEF772FB41
:10321000204601210122FDF76DFD204601210022FB
:10322000FDF768FD204604210022FDF763FDEA203A
:103230008DF803000DF1030128460122FEF75AFB29
:10324000204601210122FDF755FD204604210122DF
:10325000FDF750FD204601210022FDF74BFD0DF149
:103260000301284601228DF80360FEF743FB204648
:1032700001210122FDF73EFD204604210122FDF738
:1032800039FD204601210022FDF734FD0DF1030137
:10329000284601228DF80360FEF72CFB2046012111
:1032A0000122FDF727FD204601210022FDF722FD26
:1032B000204604210022FDF71DFDED208DF80300BE
:1032C0000DF1030128460122FEF714FB20460121DF
:1032D0000122FDF70FFD204604210122FDF70AFD22
:1032E000204601210022FDF705FD64208DF8030032
:1032F0000DF1030128460122FEF7FCFA20460121C8
:103300000122FDF7F7FC204604210122FDF7F2FC23
:10331000204601210022FDF7EDFC03208DF803007B
:103320000DF1030128460122FEF7E4FA20460121AF
:103330000122FDF7DFFC204604210122FDF7DAFC23
:10334000204601210022FDF7D5FC12208DF8030054
:103350000DF1030128460122FEF7CCFA2046012197
:103360000122FDF7C7FC204604210122FDF7C2FC23
:10337000204601210022FDF7BDFC81208DF80300CD
:103380000DF1030128460122FEF7B4FA204601217F
:103390000122FDF7AFFC204601210022FDF7AAFC27
:1033A000204604210022FDF7A5FCF7208DF803003C
:1033B0000DF1030128460122FEF79CFA2046012167
:1033C0000122FDF797FC204604210122FDF792FC23
:1033D000204601210022FDF78DFC20208DF80300FE
:1033E0000DF1030128460122FEF784FA204601214F
:1033F0000122FDF77FFC204601210022FDF77AFC27
:10340000204604210022FDF775FCC0208DF8030042
:103410000DF1030128460122FEF76CFA2046012136
:103420000122FDF767FC204604210122FDF762FC22
:10343000204601210022FDF75DFC23208DF80300CA
:103440000DF1030128460122FEF754FA204601211E
:103450000122FDF74FFC204601210022FDF74AFC26
:10346000204604210022FDF745FC0DF1030128460A
:1034700001228DF80370FEF73DFA2046012101225A
:10348000FDF738FC204604210122FDF733FC2046DD
:1034900001210022FDF72EFC10208DF803000DF114
:1034A000030128460122FEF725FA204601210122C8
:1034B000FDF720FC204601210022FDF71BFC2046E1
:1034C00004210022FDF716FCC5208DF803000DF144
:1034D000030128460122FEF70DFA204601210122B0
:1034E000FDF708FC204604210122FDF703FC2046DD
:1034F00001210022FDF7FEFB3E208DF803000DF1B7
:10350000030128460122FEF7F5F920460121012298
:10351000FDF7F0FB204604210122FDF7EBFB2046DE
:1035200001210022FDF7E6FB28208DF803000DF1B4
:10353000030128460122FEF7DDF920460121012280
:10354000FDF7D8FB204601210022FDF7D3FB2046E2
:1035500004210022FDF7CEFBC7208DF803000DF1FA
:10356000030128460122FEF7C5F920460121012268
:10357000FDF7C0FB204604210122FDF7BBFB2046DE
:1035800001210022FDF7B6FB86208DF803000DF126
:10359000030128460122FEF7ADF920460121012250
:1035A000FDF7A8FB204601210022FDF7A3FB2046E2
:1035B00004210022FDF79EFB36208DF803000DF15B
:1035C000030128460122FEF795F920460121012238
:1035D000FDF790FB204604210122FDF78BFB2046DE
:1035E00001210022FDF786FB48208DF803000DF134
:1035F000030128460122FEF77DF920460121012220
:10360000FDF778FB204601210022FDF773FB2046E1
:1036100004210022FDF76EFB3A208DF803000DF126
:10362000030128460122FEF765F920460121012207
:10363000FDF760FB204604210122FDF75BFB2046DD
:1036400001210022FDF756FB55208DF803000DF1F6
:10365000030128460122FEF74DF9204601210122EF
:10366000FDF748FB204601210022FDF743FB2046E1
:1036700004210022FDF73EFBB1208DF803000DF17F
:10368000030128460122FEF735F9204601210122D7
:10369000FDF730FB204604210122FDF72BFB2046DD
:1036A00001210022FDF726FB0DF10301284601222E
:1036B0008DF80360FEF71EF9204601210122FDF777
:1036C00019FB204604210122FDF714FB20460121AD
:1036D0000022FDF70FFB18208DF803000DF1030108
:1036E00028460122FEF706F9204601210122FDF7B6
:1036F00001FB204601210022FDF7FCFA20460421AF
:103700000022FDF7F7FAB6208DF803000DF1030152
:1037100028460122FEF7EEF8204601210122FDF79E
:10372000E9FA204604210122FDF7E4FA20460121AE
:103730000022FDF7DFFA08208DF803000DF10301E8
:10374000284601220827FEF7D5F82046012101224C
:10375000FDF7D0FA204604210122FDF7CBFA2046DE
:1037600001210022FDF7C6FA82208DF803000DF139
:10377000030128460122FEF7BDF82046012101225F
:10378000FDF7B8FA204604210122FDF7B3FA2046DE
:1037900001210022FDF7AEFA27208DF803000DF17C
:1037A000030128460122FEF7A5F820460121012247
:1037B000FDF7A0FA204601210022FDF79BFA2046E2
:1037C00004210022FDF796FAF2208DF803000DF196
:1037D000030128460122FEF78DF82046012101222F
:1037E000FDF788FA204604210122FDF783FA2046DE
:1037F00001210022FDF77EFA0DF103012846012286
:103800008DF80360FEF776F8204601210122FDF7CE
:1038100071FA204601210022FDF76CFA20460421AE
:103820000022FDF767FA26208DF803000DF1030151
:1038300028460122FEF75EF8204601210122FDF70D
:1038400059FA204604210122FDF754FA20460121AD
:103850000022FDF74FFA0DF10301284601228DF8F1
:103860000380FEF747F8204601210122FDF742FAC6
:10387000204601210022FDF73DFA204604210022C6
:10388000FDF738FAE0208DF803000DF1030128461A
:103890000122FEF72FF8204601210122FDF72AFA26
:1038A000204604210122FDF725FA204601210022AD
:1038B000FDF720FA4FF00F0A0DF10301284601220F
:1038C0008DF803A0FEF716F8204601210122FDF72E
:1038D00011FA204604210122FDF70CFA20460121AD
:1038E0000022FDF707FA4FF0310B0DF103012846D6
:1038F00001228DF803B0FDF7FDFF204601210122D2
:10390000FDF7F8F9204604210122FDF7F3F92046DE
:1039100001210022FDF7EEF92B208DF803000DF1B7
:10392000030128460122FDF7E5FF2046012101227F
:10393000FDF7E0F9204604210122FDF7DBF92046DE
:1039400001210022FDF7D6F90C208DF803000DF1BE
:10395000030128460122FDF7CDFF20460121012267
:10396000FDF7C8F9204604210122FDF7C3F92046DE
:1039700001210022FDF7BEF94FF00E090DF1030100
:10398000284601228DF80390FDF7B4FF204601215F
:103990000122FDF7AFF9204604210122FDF7AAF923
:1039A000204601210022FDF7A5F90DF1030128466B
:1039B00001228DF80370FDF79DFF204601210122B1
:1039C000FDF798F9204604210122FDF793F92046DE
:1039D00001210022FDF78EF94E208DF803000DF134
:1039E000030128460122FDF785FF2046012101221F
:1039F000FDF780F9204604210122FDF77BF92046DE
:103A000001210022FDF776F9F1208DF803000DF178
:103A1000030128460122FDF76DFF20460121012206
:103A2000FDF768F9204604210122FDF763F92046DD
:103A300001210022FDF75EF937208DF803000DF11A
:103A4000030128460122FDF755FF204601210122EE
:103A5000FDF750F9204604210122FDF74BF92046DD
:103A600001210022FDF746F94FF007080DF103018F
:103A7000284601228DF80380FDF73CFF20460121F6
:103A80000122FDF737F9204604210122FDF732F922
:103A9000204601210022FDF72DF910208DF80300AA
:103AA0000DF1030128460122FDF724FF20460121E4
:103AB0000122FDF71FF9204604210122FDF71AF922
:103AC000204601210022FDF715F903270DF103011E
:103AD000284601228DF80370FDF70CFF20460121D6
:103AE0000122FDF707F9204604210122FDF702F922
:103AF000204601210022FDF7FDF80DF103012846C3
:103B000001228DF80390FDF7F5FE204601210122E8
:103B1000FDF7F0F8204604210122FDF7EBF82046DE
:103B200001210022FDF7E6F809208DF803000DF1D0
:103B3000030128460122FDF7DDFE20460121012276
:103B4000FDF7D8F8204604210122FDF7D3F82046DE
:103B500001210022FDF7CEF80DF1030128460122D4
:103B60008DF80360FDF7C6FE204601210122FDF716
:103B7000C1F8204601210022FDF7BCF820460421AF
:103B80000022FDF7B7F8E1208DF803000DF10301E5
:103B900028460122FDF7AEFE204601210122FDF755
:103BA000A9F8204604210122FDF7A4F820460121AE
:103BB0000022FDF79FF80DF10301284601228DF840
:103BC0000360FDF797FE204601210122FDF792F8E0
:103BD000204604210122FDF78DF820460121002214
:103BE000FDF788F80DF10301284601228DF80390B6
:103BF000FDF780FE204601210122FDF77BF82046DB
:103C000004210122FDF776F8204601210022FDF76C
:103C100071F814208DF803000DF1030128460122EC
:103C2000FDF768FE204601210122FDF763F82046DA
:103C300004210122FDF75EF8204601210022FDF754
:103C400059F80DF10301284601228DF80370FDF7A4
:103C500051FE204601210122FDF74CF820460421A7
:103C60000122FDF747F8204601210022FDF742F826
:103C700011260DF10301284601228DF80360FDF79E
:103C800039FE204601210122FDF734F820460421A7
:103C90000122FDF72FF8204601210022FDF72AF826
:103CA0000DF10301284601228DF80380FDF722FE65
:103CB000204601210122FDF71DF8204604210122A2
:103CC000FDF718F8204601210022FDF713F80DF149
:103CD0000301284601228DF803B0FDF70BFE2046B4
:103CE00001210122FDF706F8204604210122FDF7FB
:103CF00001F8204601210022FCF7FCFFC1208DF8CD
:103D000003000DF1030128460122FDF7F3FD2046D3
:103D100001210122FCF7EEFF204604210122FCF7DD
:103D2000E9FF204601210022FCF7E4FF48208DF83E
:103D300003000DF1030128460122FDF7DBFD2046BB
:103D400001210122FCF7D6FF204604210122FCF7C5
:103D5000D1FF204601210022FCF7CCFF08208DF87E
:103D600003000DF1030128460122FDF7C3FD2046A3
:103D700001210122FCF7BEFF204604210122FCF7AD
:103D8000B9FF204601210022FCF7B4FF0DF1030129
:103D9000284601228DF803A0FDF7ACFD2046012145
:103DA0000122FCF7A7FF204604210122FCF7A2FF15
:103DB000204601210022FCF79DFF0C208DF8030016
:103DC0000DF1030128460122FDF794FD2046012153
:103DD0000122FCF78FFF204604210122FCF78AFF15
:103DE000204601210022FCF785FF0DF10301284642
:103DF00001228DF803B0FDF77DFD2046012101224F
:103E0000FCF778FF204604210122FCF773FF2046CF
:103E100001210022FCF76EFF36208DF803000DF122
:103E2000030128460122FDF765FD204601210122FC
:103E3000FCF760FF204604210122FCF75BFF2046CF
:103E400001210022FCF756FF0DF103012846012253
:103E50008DF803A0FDF74EFD204601210122FCF75D
:103E600049FF204601210022FCF744FF204604219F
:103E70000022FCF73FFF0DF10301284601228DF8D7
:103E80000360FDF737FD204601210122FCF732FFD8
:103E90001420FCF739FE204601210022FCF72AFFFE
:103EA000204604210022FCF725FF29208DF803007D
:103EB0000DF1030128460122FDF71CFD20460121DA
:103EC0000122FCF717FF002000F01CF901B0BDE84B
:103ED000F08F00002DE9F04784B040F20044C4F2B6
:103EE0000204924689460746204601210022984650
:103EF000FCF700FF204604210022FCF7FBFE40F205
:103F000080152A20C2F200058DF805000DF105018B
:103F100028460122FDF7EEFC204601210122FCF794
:103F2000E9FE2046042101223E0AFCF7E3FE20467A
:103F300001210022FCF7DEFE0DF1060128460122D8
:103F40008DF80660FDF7D6FC204601210122FCF722
:103F5000D1FE204604210122FCF7CCFE204601219F
:103F60000022FCF7C7FE0DF10701284601228DF85B
:103F70000770FDF7BFFC204601210122FCF7BAFEC5
:103F80002046042101224FEA1A26FCF7B3FE204600
:103F900001210022FCF7AEFE02A9284601228DF87D
:103FA0000860FDF7A7FC204601210122FCF7A2FED4
:103FB000204604210122FCF79DFE2046012100221B
:103FC000FCF798FE0DF10901284601228DF809A0A1
:103FD000FDF790FC204601210122FCF78BFE2046D4
:103FE00001210022FCF786FE204604210022FCF776
:103FF00081FE2B208DF80A000DF10A0128460122CE
:10400000FDF778FC204601210122FCF773FE2046D3
:10401000042101224FEA1926FCF76CFE20460121FB
:104020000022FCF767FE0DF10B01284601228DF8F6
:104030000B60FDF75FFC204601210122FCF75AFED0
:10404000204604210122FCF755FE204601210022D2
:10405000FCF750FE03A9284601228DF80C90FDF7CD
:1040600049FC204601210122FCF744FE20460421A0
:1040700001224FEA1826FCF73DFE204601210022CE
:10408000FCF738FE0DF10D01284601228DF80D6078
:10409000FDF730FC204601210122FCF72BFE2046D3
:1040A00004210122FCF726FE204601210022FCF714
:1040B00021FE0DF10E01284601228DF80E80FDF73C
:1040C00019FC204601210122FCF714FE20460121A3
:1040D0000022FCF70FFE204604210022FCF70AFE16
:1040E0002C208DF80F000DF10F0128460122FDF75D
:1040F00001FC204601210122FCF7FCFD04B0BDE8D3
:10410000F087000070B582B040F20044C4F20204AF
:104110000546204601210022FCF7ECFD2046042143
:104120000022FCF7E7FD36208DF8030040F28010F6
:10413000C2F200000DF103010122FDF7DBFB204676
:1041400001210122FCF7D6FD0120FCF7DDFC032D47
:104150006AD8DFE805F003172B4500BF204604218D
:104160000122FCF7C7FD204601210022FCF7C2FD19
:1041700048208DF8040040F28010C2F2000001A92E
:1041800027E000BF204604210122FCF7B3FD2046B2
:1041900001210022FCF7AEFD28208DF8050040F239
:1041A0008010C2F200000DF105012CE02046042130
:1041B0000122FCF79FFD204601210022FCF79AFD19
:1041C00088208DF8060040F28010C2F200000DF148
:1041D00006010122FDF78EFB4FF4A075F02618E0D2
:1041E000204604210122FCF785FD20460121002202
:1041F000FCF780FDE8208DF8070040F28010C2F245
:1042000000000DF107010122FDF774FBF0254FF4CA
:10421000A076204601210122FCF76CFD40F210003F
:10422000C2F200004680058002B070BD2DE9F04367
:1042300087B0002200290692059200F0598240F2D0
:104240001C12C2F2000242F8201000EB400747F2B5
:104250008861C0F600013A0140F200088A58CBF6A6
:10426000FE7802EB080343F630044FEAB323C4F2AE
:104270000204042B01EB071737D8DFE803F0030D26
:1042800017212B0000230193236843F001032360CF
:10429000236803F0010326E000230193236843F021
:1042A00002032360236803F002031CE00023019350
:1042B000236843F004032360236803F0040312E03F
:1042C00000230193236843F008032360236803F06D
:1042D000080308E000230193236843F010032360E0
:1042E000236803F010030193019B00EB400001EBF6
:1042F0000016308A4FF000090290022502A91046EC
:10430000CDF80C900495FCF713FC786800EB0801DD
:104310004FEAB121042938D8DFE801F0040E182251
:104320002C0000BF00210191216841F001012160B2
:10433000216801F0010126E000210191216841F08E
:1043400002012160216801F002011CE000210191BD
:10435000216841F004012160216801F0040112E0AC
:1043600000210191216841F008012160216801F0DC
:10437000080108E000210191216841F0100121604D
:10438000216801F0100101910199718A0495CDE92C
:10439000021902A9FCF7CCFBB86800EB08014FEA50
:1043A000B121042937D8DFE801F0030D17212B00D4
:1043B00000210191216841F001012160216801F093
:1043C000010126E000210191216841F002012160F4
:1043D000216801F002011CE000210191216841F0F7
:1043E00004012160216801F0040112E00021019123
:1043F000216841F008012160216801F0080108E00E
:1044000000210191216841F010012160216801F033
:10441000100101910199B18A4FF000090291022522
:1044200002A9CDF80C900495FCF782FBF86800EB2C
:1044300008014FEAB121042937D8DFE801F0030D64
:1044400017212B0000210191216841F00101216019
:10445000216801F0010126E000210191216841F06D
:1044600002012160216801F002011CE0002101919C
:10447000216841F004012160216801F0040112E08B
:1044800000210191216841F008012160216801F0BB
:10449000080108E000210191216841F0100121602C
:1044A000216801F0100101910199F18A0495CDE98B
:1044B000021902A9FCF73CFBB06900EB08014FEAC6
:1044C000B121042937D8DFE801F0030D17212B00B3
:1044D00000210191216841F001012160216801F072
:1044E000010126E000210191216841F002012160D3
:1044F000216801F002011CE000210191216841F0D6
:1045000004012160216801F0040112E00021019101
:10451000216841F008012160216801F0080108E0EC
:1045200000210191216841F010012160216801F012
:10453000100101910199318D0125029102A9039584
:104540000595FCF7F5FAF06900EB08014FEAB12197
:10455000042938D8DFE801F0040E18222C0000BF2F
:1045600000210191216841F001012160216801F0E1
:10457000010126E000210191216841F00201216042
:10458000216801F002011CE000210191216841F045
:1045900004012160216801F0040112E00021019171
:1045A000216841F008012160216801F0080108E05C
:1045B00000210191216841F010012160216801F082
:1045C000100101910199718D0595CDE9021502A99E
:1045D000FCF7AEFA306A00EB08014FEAB12104297A
:1045E00037D8DFE801F0030D17212B0000210191DE
:1045F000216841F001012160216801F0010126E0FC
:1046000000210191216841F002012160216801F03F
:1046100002011CE000210191216841F004012160A8
:10462000216801F0040112E000210191216841F0AC
:1046300008012160216801F0080108E000210191D2
:10464000216841F010012160216801F01001019101
:104650000199B18D0125029102A903950595FCF7F9
:1046600067FA706A00EB08014FEAB121042938D8D3
:10467000DFE801F0040E18222C0000BF0021019198
:10468000216841F001012160216801F0010126E06B
:1046900000210191216841F002012160216801F0AF
:1046A00002011CE000210191216841F00401216018
:1046B000216801F0040112E000210191216841F01C
:1046C00008012160216801F0080108E00021019142
:1046D000216841F010012160216801F01001019171
:1046E0000199F18D0595CDE9021502A9FCF720FA93
:1046F00007B0BDE8F08300002DE9F04F95B047F218
:10470000886700EB4002C0F6000707EB0214804602
:10471000A069218DD4E901A6D4F80C9015010122DD
:10472000CDE90F10FCF7E6FAE069618D01221190E6
:104730000C91FCF7DFFA206AA18D0122CDE90D0171
:10474000FCF7D8FA606AE18D0122CDE91301FCF78C
:10475000D1FA7859218A0A900691FCF7BDFA618A4C
:1047600083465046CDF82CA0B2460791FCF7B4FA28
:10477000A58A064650462946FCF7AEFAE48A074663
:1047800048462146FCF7A8FA47EA000141EA0B0136
:10479000314300F08582CDE90367059040F21C109B
:1047A000CDE9085ACDE90149C146BBF1000FC2F27B
:1047B0000000CDF8488000F08982109CDDF83CA014
:1047C0008346204651460122FCF794FA0C9E11982C
:1047D00031460022FCF78EFADDF834800E9D40460B
:1047E00029460022FCF786FADDE913010022FCF7D6
:1047F00081FA069F0A983946FCF76EFA5BF8291091
:10480000002818BF01200870204651460022D146DA
:10481000FCF770FADDF844A0314650460122FCF75F
:1048200069FA404629460022FCF764FADDF84CB0EC
:10483000DDF85080584641460022FCF75BFA0A9D9D
:1048400039462846FCF748FA40F21C11129AC2F287
:10485000000151F82210002818BF0120487020469E
:1048600049460022FCF746FA504631460022FCF742
:1048700041FA0D9C0E9E204631460122FCF73AFA81
:10488000584641460022FCF735FA28463946FCF7DF
:1048900023FA40F21C11129AC2F2000151F82210C0
:1048A000002818BF01208870109849460022FCF7A4
:1048B00021FA0C9950460022FCF71CFA204631469A
:1048C0000022FCF717FA584641460122FCF712FA7B
:1048D00028463946FCF700FA40B140F21C10129904
:1048E000C2F2000050F821000121C1700398002895
:1048F00000F0F481DDF840800F9D404629460122FA
:10490000FCF7F8F9119EDDF830B030465946002228
:10491000FCF7F0F9DDF834900E9C48462146002261
:10492000FCF7E8F9139F149938460022FCF7E2F9E6
:10493000DDF81CA00B985146FCF7CEF940F21C1292
:104940001299C2F2000252F82110002818BF01206B
:104950000871404629460022FCF7CCF930465946FA
:104960000122FCF7C7F9484621460022FCF7C2F9AC
:104970001499384600223E46FCF7BCF90B9F51467D
:104980003846FCF7A9F9129940F21C12C2F2000253
:1049900052F82110002818BF0120487140462946CE
:1049A0000022FCF7A7F9119D594628460022FCF782
:1049B000A1F9484621460122FCF79CF9149930469A
:1049C0000022B146FCF796F9384651463E46FCF7C0
:1049D00083F940F21C171299C2F2000757F8211010
:1049E000002818BF012088710F99404600220C460C
:1049F000FCF780F92846594600223D46FCF77AF933
:104A0000DDE90D010022FCF775F9149948460122F1
:104A1000FCF770F930465146FCF75EF920B1129868
:104A2000012155F82000C1710498099E002800F06A
:104A30006681109821460122A246FCF75BF9119C81
:104A40000C9F204639460022FCF754F9DDF834B0BB
:104A5000DDF83880584641460022FCF74BF9DDE985
:104A600013010022FCF746F9DDF820903046494654
:104A7000FCF732F91299002855F8211018BF0120CF
:104A8000109E0872304651460022FCF733F920464A
:104A900039460122FCF72EF9584641460022FCF720
:104AA00029F9DDE9130500222946FCF723F9099CC1
:104AB00049462046FCF710F9129940F21C12C2F246
:104AC000000252F82110002818BF01204872304619
:104AD00051460022FCF70EF9119E3946304600225D
:104AE000FCF708F9584641460122FCF703F91398F0
:104AF00029460022FCF7FEF820464946FCF7ECF870
:104B0000129940F21C12C2F2000252F82110002841
:104B100018BF012088721098514600223546FCF7D4
:104B2000E9F8304639460022FCF7E4F85846414699
:104B3000DDF84C900022FCF7DDF81499484601227C
:104B4000FCF7D8F808992046FCF7C6F840B112984F
:104B500040F21C11C2F2000151F820000121C17283
:104B60000598002800F0D680109E5146304601225C
:104B7000FCF7C0F80C9C284621460022FCF7BAF846
:104B8000DDF83480DDF838B0404659460022FCF7A5
:104B9000B1F8DDF850A0484651460022FCF7AAF8CB
:104BA000DDF80890019F48463946FCF795F8129DBC
:104BB00040F21C11C2F2000151F82510002818BF64
:104BC000012008730F9930460022FCF793F81198E2
:104BD00021460122FCF78EF8404659460022FCF798
:104BE00089F8139851460022FCF784F84846394664
:104BF000FCF772F840F21C11C2F2000151F82510C6
:104C0000002818BF012048730F9930460022FCF796
:104C100071F8119821460022FCF76CF8404659467D
:104C20000122FCF767F8139851460022FCF762F85E
:104C300048463946FCF750F840F21C11C2F2000118
:104C400051F82510002818BF012088730F993046AD
:104C50000022FCF74FF8119821460022FCF74AF891
:104C6000404659460022FCF745F813985146012268
:104C7000FCF740F84846119DDDF83CA03946DDF8C8
:104C80004C90FCF729F8002852D0129840F21C11E1
:104C9000C2F2000151F820000121C17348E000BFB9
:104CA00040F21C10C2F2000050F828000DF1300B49
:104CB0000021DDE90FA6119D9BE81009DDF84C905D
:104CC00041608160C160016032E000BF50F829009E
:104CD00000210160039800287FF40CAE40F21C15FF
:104CE0001298C2F2000555F820000F9CDDF84C9098
:104CF000002141600498099E00287FF49AAE129822
:104D0000002155F82000119DA246816005980028D9
:104D10007FF42AAF129840F21C11C2F200010DF18B
:104D2000300B51F820009BE81009109E0021C16053
:104D3000304651460122FBF7DDFF2846214601227D
:104D4000FBF7D8FF404659460122FBF7D3FF1499E1
:104D50004846012215B0BDE8F04FFBF7CBBF00007D
:104D600080B582B00020019043F63000C4F202000A
:104D70000168002241F4800101600068002100F414
:104D80008000019001983B20FCF73EF83B2002B0E8
:104D9000BDE88040FCF724B82DE9F04F87B000242F
:104DA00043F6300006940194C4F20200016840F218
:104DB000000841F0040101600168C4F2020801F03A
:104DC0000401019101990194016808F5006741F01F
:104DD000800101600168002201F0800101910199C8
:104DE000019401684FF4005641F00101016001682F
:104DF00001F00101019101990194016841F0020162
:104E0000016000684FF4005100F002000190019829
:104E10003846FBF76FFF404641F61C710022FBF756
:104E200069FF08F58065284640F20F41002240F2F4
:104E30000F4BFBF75FFF40464FF4004101224FF458
:104E400000494FF0010AFBF755FFCDE9026A02AEB7
:104E500038463146CDE90444FBF76AFE4FF4404042
:104E6000CDE90204384631460494FBF761FE40F672
:104E70000C70CDE9020A40463146CDE90444FBF707
:104E800057FE1020CDE9020A022005904046314627
:104E90000494FBF74DFE28463146CDE902BACDE930
:104EA0000444FBF745FE4FF47040CDE90204284668
:104EB00031460494FBF73CFE4FF48050CDE9020AE2
:104EC00003200590404631460494FBF731FE4046EE
:104ED0003146CDE9029ACDE904A4FBF729FE07B0DB
:104EE000BDE8F08F80B540F2801043F20001C2F2BD
:104EF0000000C4F201014FF4827200234FF4007CE1
:104F000080E80E000A21C0E90333C0E9053CC36113
:104F1000C0E90833C0E90A31FCF7EAFA002808BF03
:104F200080BDBDE88040FBF7F7BB000080B540F2D4
:104F3000D81044F20041C2F20000C4F20101002383
:104F400053224FF0450C80E80E1003618361FCF79B
:104F5000A3FD002808BF80BDBDE88040FBF7DCBB97
:104F600080B540F2202044F60001C2F20000C4F2F5
:104F700001010023532242F20F7C80E80E100361EE
:104F80008361FCF789FD002808BF80BDBDE8804033
:104F9000FBF7C2BB80B58CB040F268200021C2F2A2
:104FA00000004FF080424FF48033C0E9002103221B
:104FB000C0E90213CDE9032101220A23CDE9001142
:104FC00001618161CDE90521CDE90731CDE90921F3
:104FD00003A90B93FCF7FAFE002818BFFBF79CFB14
:104FE00040F26820C2F200006946FCF70DFD00287F
:104FF00018BFFBF791FB0CB080BD000080B58CB0F2
:1050000040F2B02040F600020021C2F20000C4F2DB
:1050100000024FF6FF73C0E900210322C0E902132A
:10502000CDE9032101220A23CDE90011016181614B
:10503000CDE90521CDE90731CDE9092103A90B937C
:10504000FCF7C4FE002818BFFBF766FB40F2B02057
:10505000C2F200006946FCF7D7FC002818BFFBF736
:105060005BFB0CB080BD000080B584B040F2F8203E
:1050700044F200020021C2F20000C4F201020391D6
:10508000CDE901118161C0E90021C0E9021101618E
:10509000FCF702FD002818BFFBF73EFB4FF48050E1
:1050A000009040F2F820C2F200006946FCF7C0FD13
:1050B000002818BFFBF730FB04B080BDFEE70000FE
:1050C000FEE700007047000040F28010C2F20000CE
:1050D000FCF778B9806B0021C187C186FCF770B9F5
:1050E000806B01684A6822F003024A60416D41F01A
:1050F00010014165012180F85110FCF761B90000F1
:10510000806BFCF765BC0000B0B584B0846B0546CD
:10511000FBF7F6FD29680968C90531D40546206802
:1051200001224168642321F020014160416821F09F
:105130000201416020460221009500F06FF828B37B
:10514000606D40F020006065606D40F0200060659B
:10515000A06838B9002002902068C1680291806878
:10516000029002980020E086012084F85100606DD2
:1051700030B1204604B0BDE8B040FCF721B900BF13
:10518000204604B0BDE8B040FCF720BC40F2180057
:10519000C2F20000006849F68171C1F25E61A0FBB5
:1051A0000101480D4FF47A71484303906068B0F5EF
:1051B000827F09D12046802100226423009500F0DF
:1051C0002DF80028BCD1C3E703980028C0D003986D
:1051D00001380390206880680006B9D5039800283C
:1051E000B6D0039801380390206880680006AFD5D8
:1051F00003980028ACD00398013803902068806899
:105200000006A5D503980028A2D003980138039082
:10521000206880680006D7D49AE700002DE9F043A3
:1052200081B0089C984615460E468146FBF768FDFE
:10523000201A00EB0804FBF763FD40F21801C2F2EC
:1052400000010968C1F3CB3161430091D9F8001026
:105250008A683240921BB2FA82F25209AA423DD0C9
:10526000074618F1010031D0FBF74AFDC01BA042F0
:1052700038D2009800990028A1F101010091D9F8D5
:105280000010896808BF044601EA0600801BB0FAD6
:1052900080F04009A842E7D120E000BF8868304094
:1052A000801BB0FA80F04009A84217D088683040CF
:1052B000801BB0FA80F04009A8420FD088683040C7
:1052C000801BB0FA80F04009A84207D088683040BF
:1052D000801BB0FA80F04009A842DFD1002001B065
:1052E000BDE8F083D9E900014268B1F5827F22F080
:1052F000E00242600BD1D9F80810B1F5004F02D09E
:10530000B1F5806F03D1016821F040010160D9F847
:105310002810B1F5005F07D1016821F40051016048
:10532000016841F400510160012089F8510000201A
:1053300089F85000032001B0BDE8F08370470000F9
:10534000FBF7E4BCB0B592B0002443F640000B94E8
:10535000CDE90944CDE907440594CDE90344CDE9FD
:1053600001440094C4F202000168022541F080511A
:105370000160006800F080500090009847F2000043
:105380000094C4F20000016865F38F310160006889
:1053900000F44040009000980120099010200A90ED
:1053A00008200E905420CDE90F050420119006A886
:1053B0000695CDE90C54FBF749FE18B172B600BF53
:1053C000FEE700BF0F20CDE901054FF48050CDE985
:1053D000040401A802210394FBF752FD10B172B638
:1053E000FEE700BF12B0B0BD4EF68850CEF200000E
:1053F000016841F4700101607047000040F2F8203C
:10540000C2F20000FCF772BF40F22020C2F200009E
:10541000FCF76CBF40F2D810C2F20000FCF766BF88
:1054200040F26820C2F20000FCF760BF40F2B020FA
:10543000C2F20000FCF75ABF10B540F2FF7E0368CD
:10544000C4F2000E40F2000C7045C4F2010C1DDDE8
:1054500040F60002C4F20002904220D060451ED007
:1054600040F60042C4F20002904218D04FF6FF729C
:10547000C4F2000290421CDC704525DCB0F1804F84
:105480003AD040F20042C4F2000233E0B0F1804F63
:1054900005D040F20042C4F200029042E6D14A68D0
:1054A00023F0700313434FF6FF72C4F200029042E0
:1054B000E2DD44F2FF32C4F20102904210DC6045AA
:1054C0001AD044F2000213E040F60002C4F20002D7
:1054D000904211D040F60042C4F200020AE000BF40
:1054E00044F60002C4F20102904205D044F20042A8
:1054F000C4F20102904203D1CA6823F440731343FB
:1055000023F080024B69D1F800E08C681A436045B3
:105510000260C462C0F828E002D10969CCF83010FA
:10552000012141610169C90708BF10BD016921F06E
:105530000101016110BD0000FEE70000B0B50446A6
:105540000068A188FBF7C8FBA1790546884203D013
:10555000A571FBF7D5FBE060FBF7D2FBE168401AD1
:105560000F2813D3E079257285420FD025B120464C
:1055700000F04AF808E000BFFBF7C2FB2061012001
:105580002075204600F018F8207AE071207D002870
:1055900008BFB0BDFBF7B4FB2169401A40F6B83133
:1055A000884207D3002120462175BDE8B04000F0B5
:1055B00029B800BFB0BD000040F28801C2F200016E
:1055C00001F11C02904218BF7047087880B1002298
:1055D0000A7040F26821C2F2000109686FF003020C
:1055E0004A6240F2E001C2F2000101224A7001E089
:1055F00001220A7040F2000180F00100C2F20001B5
:1056000008707047704700007047000010B540F206
:105610008804C2F20004201DFFF790FF04F11C0073
:10562000BDE81040FFF78ABF0020FDF747BC00002F
:105630002DE9F0412DED0E8B82B040F2F00740F2E3
:10564000C506C2F20007C2F2000639783378144664
:105650009942054604D00020FDF730FC30783870C0
:105660007820782176224FF4FC634FF6FF76FDF721
:105670002BF8782078216E224FF6FF73FDF724F87F
:1056800040F2C400C2F200000178002900F08A80D4
:10569000002145F30745017007F12000AEA12A461D
:1056A000FAF764FEA0B2684300EE100AB8EEC00A32
:1056B00087ED030A9FEDA60B9FEDAA9A9FEDAAAA7C
:1056C0009FEDAABA9FEDAACA9FEDAADA9FEDAAEABA
:1056D0007C8055EC104B00BF39EE0A0A10EE100A20
:1056E00001F0B0FE22462B4601F0B4FC41EC180B51
:1056F000B0EE480AF0EE680A00F02AFD51EC100BFB
:1057000001F01AFAB0EE480AF0EE680A386100F0CB
:1057100083FD51EC100B01F00FFA97ED041A00EE27
:10572000100A21EE0B2A32EE0C2ABDEEC22A786155
:1057300012EE100A20EE0B2A21EE0D1A20EE0D0AB1
:1057400032EE0C2A31EE0C1A30EE0C0ABDEEC22AF3
:10575000BDEEC11ABDEEC00A12EE101A11EE102AEB
:1057600010EE103AB880F9803A817B810096FDF7FF
:1057700083F8788800EE100AB8EE400A39EE009AF5
:10578000B4EE4E9AF1EE10FAA6DB782079210322CE
:105790004FF6FF7302B0BDEC0E8BBDE8F041FCF795
:1057A00093BF00BF40F2C800C2F200000178002998
:1057B000EBD0290E49B200EE101AB8EEC00A87ED00
:1057C000030A9FED630B9FED68AA9FED68BA9FEDFA
:1057D000689A9FED68CA220C002355EC108B6FF07D
:1057E0002C0403707A8000BF2D3400EE104AB8EE0E
:1057F000C00A30EE0A0A10EE100A01F023FE4246FB
:105800002B4601F027FC41EC180BB0EE480AF0EEF5
:10581000680A00F09DFC51EC100B01F08DF9B0EE20
:10582000480AF0EE680A386100F0F6FC51EC100B03
:1058300001F082F997ED041A00EE100A21EE0B2A0E
:1058400032EE092ABDEEC22A786112EE100A20EE6D
:105850000B2A21EE0C1A20EE0C0A32EE092A31EE48
:10586000091A30EE090ABDEEC22ABDEEC11ABDEE1C
:10587000C00A12EE101A11EE102A10EE103AB8807B
:10588000F9803A817B810096FCF7F6FFB4F59D7FA5
:10589000AAD99FED3AAA6FF059060BE0B888F988AB
:1058A00003221F23FCF77AFEB4F5AF7F06F10A0648
:1058B000BFF46BAF304606F15A0401F0A0FB42463C
:1058C0002B4601F0C7FB41EC180BB0EE480AF0EE96
:1058D000680A00F03DFC51EC100B01F02DF9B0EE20
:1058E000480AF0EE680A386100F096FC51EC100BA3
:1058F00001F022F997ED041A00EE100A21EE0A1ABF
:1059000020EE0A0A31EE091A30EE090ABDEEC11A7C
:10591000BDEEC00A786111EE100A10EE101A1F22B7
:10592000B880F980FDF7D4F8B32C03DC3CB15A2CD5
:10593000B4D0B9E7B4F5877FB0D0B42CB4D1B8886F
:10594000F98803221F23FCF729FE002EACD1A5E71E
:1059500011E7FAA146DF913F47C3B363203A202500
:1059600064000000000000000000B4C20000E44237
:105970000000F0420000C8420000B4430000CC42E6
:105980002DE9F04F85B06FF0030858FA90F111F14E
:10599000030FC0F0AA81040A00204FF0000AFDF7AF
:1059A0008DFA4FF4FC650020002168223A2300950F
:1059B000FCF708FF68200021D0223A230095FCF76D
:1059C00001FFD02000214FF49C723A230095FCF790
:1059D000F9FE00203A21682274230095FCF7F2FEBC
:1059E00068203A21D02274230095FCF7EBFED020EA
:1059F0003A214FF49C7274230095FCF7E3FE0020DB
:105A000074216822AE230095FCF7DCFE6820742127
:105A1000D022AE230095FCF7D5FED02074214FF4A0
:105A20009C72AE230095FCF7CDFE0020AE216822CB
:105A3000E8230095FCF7C6FE6820AE21D022E823BB
:105A40000095FCF7BFFED020AE214FF49C72E823F6
:105A50000095FCF7B7FE04EB44076FF00A0048F628
:105A6000604500EB8700C0F600050DF10D04C2B2E1
:105A7000204629464FEA8709FAF778FC48F2CE6BB0
:105A800047F2B866C0F6000BC0F6000620460A21B1
:105A900014224FF47843CDE900A6CDF808B0FDF705
:105AA00005F92046FAF7E6FC01462046FAF701FD23
:105AB0006FF0090000EB8700C2B220462946FAF7D2
:105AC00055FC2046722114224FF47843CDE900A6FC
:105AD000CDF808B0FDF7EAF82046FAF7CBFC01460E
