:020000040800F2
:1000000070090020DD010008693400088D31000806
:10001000653400087D1400089536000800000000D3
:100020000000000000000000000000007134000823
:1000300081140008000000006D34000875340008C9
:10004000F7010008F7010008F7010008F7010008B0
:10005000F7010008F7010008F7010008F7010008A0
:10006000F7010008F701000885140008F7010008EF
:10007000F7010008F7010008F7010008F701000880
:10008000F7010008F7010008F7010008F701000870
:10009000F7010008F7010008F70100088D140008B7
:1000A000F7010008F7010008F7010008F701000850
:1000B0007D340008F7010008F7010008F701000887
:1000C000F7010008F7010008F7010008F701000830
:1000D000F7010008F70100087D360008893600089E
:1000E000F7010008F7010008F7010008F701000810
:1000F000F701000800000000F7010008F701000800
:10010000F7010008F7010008F7010008F7010008EF
:10011000F7010008F7010008F701000800000000DF
:10012000F701000800F002F800F048F80AA090E893
:10013000000C82448344AAF10107DA4501D100F0A2
:100140003DF8AFF2090EBAE80F0013F0010F18BF27
:10015000FB1A43F00103184788540000A85400001C
:10016000103A24BF78C878C1FAD8520724BF30C8E3
:1001700030C144BF04680C607047000000230024B5
:1001800000250026103A28BF78C1FBD8520728BFA7
:1001900030C148BF0B6070471FB500F0B3FE0400CC
:1001A0000020002104F0CEFA401C606000200021F5
:1001B00004F0B2FAE0601FBD10B510BD00F0EEFB18
:1001C0001146FFF7E9FF03F0CDFA00F091FE03B40A
:1001D000FFF7F2FF03BC01F049F90000094880472E
:1001E00009480047FEE7FEE7FEE7FEE7FEE7FEE719
:1001F000FEE7FEE7FEE7FEE704480549054A064B31
:1002000070470000793400082501000870030020C1
:100210007009002070050020700500200FB400B5A3
:100220008DB010A9099000910B904FF0FF300A900B
:1002300000200C90064878440690064878446A46A8
:1002400007900F9909A800F015F90DB05DF814FB9F
:100250005B020000730200002DE9FF5F1D464FF0B6
:10026000FF3B91464FF000085F46D5E90146A9697A
:1002700001987F1C8847296A824688470028F6D162
:10028000BAF1FF3F0CD0002E24F4C06419DD6006E3
:1002900014D5BAF12B0F09D0BAF12D0F0ED103E00E
:1002A000584604B0BDE8F09F44F48064A969019801
:1002B0007F1C8847761E8246002E02DDBAF1300F81
:1002C00003D0B9F1000F26D032E0A969761E01985B
:1002D0007F1C44F400748847002E824605DDBAF185
:1002E000780F06D0BAF1580F03D0B9F1000F10D033
:1002F0001EE0B9F1000F02D0B9F1100F18D1A969B1
:10030000761E01987F1C24F40074884782461020D2
:1003100002E0082000E00A20814609E0A96908FB04
:100320000908761E01987F1C44F4007488478246B1
:10033000002E05DD4946504600F088F80028EDDA29
:10034000E96901988847A00502D46FF00100A8E789
:10035000E00725D1600613D5600502D5C8F100007D
:1003600000E0404629680A1D2A600968220501D577
:10037000087015E0220701D5088011E008600FE041
:100380002868011D29600068210502D580F80080D9
:1003900006E0210702D5A0F8008001E0C0F8008047
:1003A00038467EE7014A00F0EDB80000000000206A
:1003B0004FF0013C50F8042B51F8043B9A4221D1F4
:1003C000A2EB0C03934313EACC1317D150F8042B80
:1003D00051F8043B9A4215D1A2EB0C03934313EA64
:1003E000CC130BD150F8042B51F8043B9A4209D19D
:1003F000A2EB0C03934313EACC13DBD04FF00000C5
:10040000704700BFD01A01BAB1FA81F101F01801AA
:1004100022FA01F0CB40DBB2C0B2C01AC1F1200118
:100420002CFA01F3D11A914311EAC311E6D17047B6
:1004300070477047704710B500F0C6F8006810BDEF
:1004400010B5044600F0C0F8046010BD3A2800D290
:10045000303820F02002412A01D3A2F1370088422F
:1004600001D34FF0FF3070470268114413780160E8
:1004700018467047D160054979445161044979446F
:10048000116200211161114600F0ACB8EDFFFFFFD1
:100490004F010000426842B1016811F8013B23B1ED
:1004A000521EC0E90012184670470121C160881E23
:1004B000704742685AB1C368016843B983688B4288
:1004C00005D0491E521CC0E90012002070474FF0B1
:1004D000FF3070470FB40B0010B54FF000048AB026
:1004E0000FA900910E99CC60234C7C44234A7A4496
:1004F000CDE9064200D004236FF00042CDE901327D
:100500001F4A7A446B4608920246002004F0BEFF60
:100510000AB010BC5DF814FBF0B507464FF0FF3091
:100520001E4615460C463B4685B06A460091CDE90D
:10053000010131460020049004A8FFF7CBFF049985
:100540000346601825B109B1024600E022462A6040
:1005500000290ED0002B02DD0099814209D03B46D4
:100560006A463146001B0094CDE9010404A8FFF758
:10057000B1FF05B0F0BD0000A7FFFFFFC1FFFFFF07
:10058000CB0000002DE9F04115460E46040002D1D3
:100590002C6804B90BA4204600F0EEF9044420783E
:1005A00070B127463146384600F0D6F90444207829
:1005B00010B1002004F8010B38462C60BDE8F08132
:1005C0000027F9E70000000000487047880000207D
:1005D00010B5044600F008FA0068005D00F0010064
:1005E00010BD00002DE9F34F4FF0000A0C465646AF
:1005F0008DB001200C9001F10C000B9062690B98FA
:1006000001219047051E2DD0252D2CD0216A884729
:10061000C0B162690B9801219047216A8847002880
:10062000F7D16269411E0B98904700E0761CA169E2
:100630000D988847216A88470028F7D1E1690D980D
:100640008847DBE7A1690D988847A842074601D192
:10065000761CD3E7E1690D9888477F1C02D1BAF177
:10066000000F6FD06BE162690B9800273D46394659
:1006700090472A2804D162690B98012190470125EF
:10068000DFF8D08262690B9801219047A0F1300118
:100690000A290AD24745E5DC07EB870100EB410751
:1006A000303FDFD445F01005ECE7E90601D46FF0E8
:1006B00000476C280AD04C2814D0682815D06A2826
:1006C0000DD074281CD07A281AD01DE062690B98CE
:1006D000012190476C2802D045F0040514E045F054
:1006E00002050DE045F020050AE062690B98012142
:1006F0009047682802D045F0080505E045F40065FC
:1007000062690B9801219047C4E9015765283DD0E3
:1007100019DC58287AD00CDC452837D004DC252891
:1007200026D041289ED131E046282FD0472899D1A4
:100730002CE05B2877D0612828D063287CD06428FF
:1007400023D15AE0F6E06F2848D008DC66281DD097
:1007500067281BD0692821D06E2816D127E0702881
:1007600045D0732868D0752847D078280DD14DE042
:10077000A1690D988847252805463FF469AFE169CE
:100780000D9888476D1C3FF46AAFD8E00D99234659
:100790006A466FF0010004F079FEC5E045F04000C4
:1007A00023464FF000026060A80736D43EE0E80719
:1007B0007FF447AF2068011D21600068290501D53D
:1007C00006701BE7290701D5068017E7A90703D59F
:1007D000F117C0E9006111E706600FE745F040003E
:1007E00023464FF008026060A80716D41EE040F6CA
:1007F0000E0125EA0100606016E045F04000234646
:100800004FF00A026060A80707D40FE045F04000EF
:100810006060A80708D5234610220D996FF00100EB
:10082000AFF3008080E007E0102223460D996FF0BF
:100830000100FFF711FD77E04FF0000963284F46F4
:10084000C8464B46CB4602D05B2806D038E0E806C7
:1008500001D40120A060012732E06269D4F80CB015
:100860000B98012190475E2807D14FF001094946B6
:100870006269D4F80CB00B989047216939B900210E
:100880000A4603AB43F82120491C0829FADBD8B3F8
:10089000216949B308F1010862690B980121904769
:1008A0005D28F4D1B9F1000F09D0002003A951F857
:1008B0002020D24341F82020401C0828F7DB03AB5E
:1008C0002069002820794FEA40701ED05B462246FE
:1008D000CDF80080CDE901970D9900286FF0010057
:1008E00020DAAFF300801FE0C11703AA00EBD1614B
:1008F0004B1121F01F0102EB8302411A1368012002
:10090000884003431360C7E719E00D992246002889
:100910006FF00100009702DAAFF3008004E0AFF35C
:10092000008001E0AFF3008000280ADA401C06D105
:100930000C9820B14FF0FF300FB0BDE8F08F50465B
:10094000FAE7E90701D10AF1010A064400200C90F8
:1009500054E60000CCCCCC0C30B503461D781DB15C
:100960000A4603E0AC4201D1181A30BD12F8014B1F
:10097000002CF7D15B1CF1E730B503461D783DB183
:100980000A4612F8014B1CB1AC42FAD15B1CF5E7E8
:10099000181A30BD00487047880000207546FFF7E0
:1009A000F9FFAE4605006946534620F0070085462C
:1009B00018B020B5FFF720FCBDE820404FF000063E
:1009C0004FF000074FF000084FF0000BAC46ACE8CA
:1009D000C009ACE8C009ACE8C009ACE8C00921F026
:1009E00007018D467047000010B500F08BFA001D1E
:1009F00010BD00BF513D00002DE9FF4F06468BB0F2
:100A00000878FF2806D0491C2D2805D000244FF077
:100A1000000908E000200CE00124F8E709EB890355
:100A2000491C00EB43090878FF28F7D114B1C9F13C
:100A300000008146107800252C46AA4629462D281C
:100A400001D02B2804D1521C2D2813D0002082461F
:100A50008B461078FF280FD04FF0000C0A21521C53
:100A6000A5FB017804FB018105FB0C11C5194BEBBB
:100A70000104EEE70120EAE7002108464FF00000FC
:100A8000BAF1000F02D000EB80004008C0F381579C
:100A9000012F01DD4FF0FF370E9955EA040009EBF5
:100AA00001080BD04FF0020918F5FA7F16DA4FEA69
:100AB000CA70002F706008DD012007E04FEACA709D
:100AC000C6E900B00FB0BDE8F08F00203060FFF73E
:100AD0007BFDC0F800901821084616E0B8F5FA7FB3
:100AE00018DD002F02DAF748784401E0F648784430
:100AF000D0E90010C6E9001040EACA707060FFF744
:100B000063FDC0F80090142108460FB0BDE8F04F17
:100B100004F01CBC002108464FF00000B8F10001B1
:100B2000099002DAC7F1000200E03A4601DAC8F1A2
:100B3000000106A800F0FEF906AB93E8070003AB3E
:100B400083E8070044F23E005BEA04010090584647
:100B500004D144F21E012C465D460091210C09048B
:100B6000014306D10099240444EA15442D041039A8
:100B7000009104F07F41014306D10099240244EA28
:100B800015642D020839009104F07041014306D12B
:100B90000099240144EA15742D01091F009104F005
:100BA0004041014306D10099A40044EA9574AD0088
:100BB000891E009104F00041084304D100986D198A
:100BC0006441401E00904FF001033A466846B8F178
:100BD000000FCDE9014503A902DD03F018FB01E098
:100BE00003F0EBFABAF1000F04460D4601D084F091
:100BF0000044002108464FF00000099940F2FF77B9
:100C0000484010F00C0F07D124F00040284303D0D7
:100C1000C4F30A50B84212D1FFF7D6FCC0F80090D6
:100C2000C4F30A50B8420AD1A8487844D0E9001069
:100C3000C6E9001004F000410843706042E7C6E9CD
:100C400000543FE72DE9FF4F1F464FF0000A4FF0D9
:100C5000FF38454691B0D7E90146CDF83CA000F0F9
:100C600051F9C0680168405C1090B96912986D1C18
:100C70008847396A814688470028F6D1B9F1FF3F95
:100C80000AD0002E24F4D06411DDB9F12B0F08D066
:100C9000B9F12D0F0BD102E0404615B013E744F433
:100CA0008064B96912986D1C8847761E814660057C
:100CB00004A901D52D2000E02B20002E01F1010B0D
:100CC0000DF130088DF810003FDDB9F1690F08D043
:100CD000B9F1490F05D0B9F16E0F02D0B9F14E0F3D
:100CE0001CD13B4601A8009580E85002DDE91212B4
:100CF0006FF0020004F0CEFBC11CCED10EE0B9694A
:100D000012986D1C884781461398761E44F400742F
:100D100005600F98401C002E0F9016DDB9F1300FC2
:100D2000EDD0B9F1780F02D0B9F1580F0DD10F986D
:100D300001280AD13B46CDE90054DDE91212001F1B
:100D4000029604F0A5FBC11CA7D1109989453ED19C
:100D500044F0800406E01399681CAAF1010A44F4E7
:100D600000740860B9696D1C1298761E8847302897
:100D70008146F0D02BE01099894505D1200603D497
:100D8000761E44F0800418E0484603F0F8FB08B3F0
:100D9000761E0DF123029345A9F1300044F400744E
:100DA00006D20BF8010B200607D5AAF1010003E0DB
:100DB000200602D40AF101008246A00502D513994B
:100DC000681C0860B96912986D1C88478146002E1E
:100DD000D1DC53E0002E51DDB9F1650F02D0B9F13D
:100DE000450F4BD1A00549D5B9696D1C1298761EE7
:100DF00024F440748847002E81460CDD2B2804D053
:100E0000B9F12D0F07D144F48074B96912986D1CA3
:100E10008847761E8146E00501D52D2100E02B2173
:100E200008F8011BCDF8008021E0761E0DF1390194
:100E3000884544F400740CD2A9F1300010F0FF0092
:100E400088F8000002D10099884509D908F1010805
:100E500006E0E00501D51E4801E042F20F7082462F
:100E6000B96912986D1C8847814613980560002E59
:100E700004DD484603F083FB0028D6D1F9691298B7
:100E80008847FF2053468BF8000088F800000020B8
:100E90000A900B9004AA0CA90AA8FFF7ADFDA005C3
:100EA00002D46FF00100F8E614F0240F12D0E0072E
:100EB0001CD13868DDE90A12031D3B600068C0E9F7
:100EC000001213E01C4B00000E4B0000D249000042
:100ED000F1D8FFFF0AA9684603F0E0FAE00705D160
:100EE0003868009A011D3960006802602846D4E61F
:100EF00010B50446AFF300802046BDE81040FFF770
:100F000066B9000000487047A8000020B2F1200335
:100F10000AD5C2F1200301FA02F120FA03F341EAF3
:100F2000030100FA02F0704700FA03F14FF00000ED
:100F3000704700002DE9F047814616468AB03548D3
:100F400078440DC88DE80D0032487844801C03AC0D
:100F50000DC884E80D0041F69B300844372190FB12
:100F6000F1F290FBF1F5A5F1800501FB12041B3CA9
:100F700002D56442012000E00020DFF898A08046FE
:100F80000027FA44AAF1BE0A0EE0E0070AD0324672
:100F9000684607EB470101230AEB810103F022F9C0
:100FA0008DE8070064107F1C002CEED1194F7F44A0
:100FB000AE3F19E0E80715D007EB04100DF1180A51
:100FC00090E80E008AE80E00C068F04201D198193E
:100FD00008903246012306A903A803F003F903ABE6
:100FE00083E807006D10641C002DE3D14FF001036E
:100FF00032466946B8F1000F03A802D003F0C8F8E2
:1010000001E003F0EFF8C9E90001C9F808200AB0CF
:10101000BDE8F087004600002DE9FF4F1F464FF066
:101020003C0987B04FF00042DDE9141001F10108DE
:10103000DDF858A002EA4050039000200590834656
:10104000054604460490B969461E08988847AAF1E7
:10105000010A0290BAF1000F3BDD02982E2815D04C
:101060001021FFF7F3F900282EDB4FF0010B059953
:10107000014317D0B9F1000F0BDB4A46C117FFF748
:1010800045FF05430C43A9F1040905E00120049044
:101090000BE008B145F0010501200590049820B946
:1010A000361D02E0049800B1361FB969089808F1AE
:1010B00001088847BBF1000FAAF1010A0290C9D0CC
:1010C0000999C1F80080C5E70298702808D0502817
:1010D00006D0F96908988847BBF1000F14D04FE09B
:1010E000002002900120BBF1000F049009D0B969E3
:1010F000089808F101088847AAF10109B9F1000F21
:1011000007DCF969089888476FF001000BB0BDE86B
:10111000F08F2B2804D02D280CD14FF0FF300490F5
:10112000B969089808F101088847A9F10109B9F1DE
:10113000000FE6DD411CE4D00A21FFF787F9002803
:10114000DFDB029908F1010801EB810100EB4100AE
:101150000290B969089888470A21FFF777F9099A38
:10116000A9F10109B9F1000FC2F8008001DD0028E2
:10117000E7DAF969089888470499029800FB016644
:1011800055EA040004D004F04041090002D006E012
:10119000039898E0A40044EA9574AD00B61E04F0EC
:1011A0000041080002D16D196441761E159810F0B7
:1011B000240F03D04FF00B095C4803E04FF02809DF
:1011C0006FF07D008246564507DAAAEB0601894496
:1011D000B9F1410F01DD4FF0410901200021A9F1D2
:1011E0000102FFF793FE024628400B4621400843C8
:1011F00001D0012100E00021501E029143F1FF3196
:1012000028402140084301D0012000E0002002993D
:10121000834651EA0B014FD0002108464FF00000F1
:10122000039900F4400039B100EB80004FF4400115
:1012300000EBD07001EA60008015012802DD4FF05C
:10124000FF3000E013D0401C36D0029860B3BBF1F1
:10125000000F0CD14A4601200021FFF757FE28401D
:101260002140084301D0012000E00020E0B101202E
:101270004A460021FFF74AFE034640190A466141EB
:101280002D1A8C4111D3B9F1400F09DD159810F0DA
:10129000240F02D0AAF1340603E0AAF1170600E0F9
:1012A000761C00254FF0004406E05B1E42F1FF3241
:1012B00020EA030521EA0204CAF10100B04206DA7D
:1012C0001B49039808430190002000900EE0039A08
:1012D000C4F3D321E80A0A43164940EA44500A43BA
:1012E0003146CDE90002684603F03EF9159810F04A
:1012F000240F0BD01598C00715D13868DDE900120E
:10130000031D3B600068C0E900120CE002A86946BA
:1013100003F0C4F81598C00705D13868029A011D7A
:101320003960006802604046F0E6000002FCFFFF02
:101330000000F07F0000F03F2DE9FF4F92461D4670
:1013400085B04FF00041DDE9124BDDE914727F1EDC
:1013500001EA4B50414940F0FF4940EA01080021B1
:1013600022F020004928049102D04E2828D04CE0D9
:101370003BA0012607C88DE80700A9690698641CF0
:1013800088477F1E014606D41DF8060018B121F0DB
:10139000200181420BD0E96906988847032E34D09A
:1013A000082E32D06FF0010009B0BDE8F08F761C36
:1013B000032E01D0082EE0D1601CCAF80000DCE743
:1013C000A9690698641C88477F1E2AD420F0200053
:1013D000412826D1A9690698641C88477F1E20D41D
:1013E00020F020004E281CD1A9690698641C88476B
:1013F0007F1E48F4002849F48009CAF8004001D44F
:10140000282806D0E969069888475FEACB7012D091
:1014100022E0A9690698641C88477F1E01D4002831
:1014200003DAE96906988847BCE72928F1D1641CEA
:10143000CAF80040E9E71BF0240F07D02868049998
:10144000031D2B600068C0E9001805E02868021D34
:101450002A600068C0F800902046A5E70000F07FF1
:10146000494E46494E495459000000000149182090
:10147000ABBEFEE72600020070470000FEE700005A
:1014800070470000102000F07DB8000080B580207B
:1014900000F078F84FF40070BDE8804000F072B8BA
:1014A000EFF3108072B600BFFEE70000014690F82F
:1014B0002100022818D10868D1E90FC3026822F080
:1014C0000E020260026822F00102026003F01C00BA
:1014D000012202FA00F0CCF80400002081F821205B
:1014E000002281F820207047042088630120002218
:1014F00081F820207047000080B590F82110022963
:1015000022D10168D0F834E0D0E90FC30A68BEF1F7
:10151000000F22F00E020A600A6822F001020A603F
:1015200003F01C014FF0010202FA01F1CCF80410A3
:101530004FF0000180F8212080F8201001D0F04702
:101540000021084680BD00BF04218163012080BDC9
:10155000102818BF704780B540F20040C4F2020066
:10156000202100F0EDF840F26421C2F200010A8867
:101570004FF0FF33002808BF0123D0180880BDE8D2
:101580008040704740F21441C4F201010A680242EF
:1015900014BF08607047FFF7DBBF00002DE9F04F74
:1015A00082B00D68002D00F0C78000F13E4741F683
:1015B000000407F1FF77C4F20204072240F2004E54
:1015C0004FEAB726A04208BF0622C4F2010E062E3B
:1015D00038BF4FEAB722002401274FF0000C002645
:1015E000009209E00D68013635FA06F20CF1040CA0
:1015F00004F1020400F0A08007FA06FB15EA0B08CC
:10160000F0D0D1F804A003230AF003056A1EA3401A
:10161000012A6FEA03090FD88268CB6802EA09023F
:10162000A3401A4382604268CAF3001322EA0B0205
:10163000B3401A43426003E0032D01D103251FE0AC
:10164000C2688B6802EA0902A3401A43022DC260F5
:1016500016D16FF0030202EA560202440CF01C0598
:101660000F23D2F820A003FA05FB0B692AEA0B0A24
:10167000AB4043EA0A031362D1F804A00AF0030561
:10168000026805FA04F302EA09021A431AF4403F19
:101690000260A7D043F62003C4F202031A684FF693
:1016A000084A42F001021A601A68CFF6FF7A02F087
:1016B00001020192019A26F00302724452F80A9044
:1016C0000CF00C050F23009FAB4029EA030307FA37
:1016D00005F52B4342F80A30DEF808904B6849EADA
:1016E0000805DA0258BF29EA080540F20C49CEF88D
:1016F0000850C4F20109D9F800209F0242EA080507
:1017000058BF22EA0805C9F80050DEF804209F03FC
:1017100042EA080558BF22EA0805CEF80450DEF870
:101720000020012742EA0805DB0358BF22EA08052A
:10173000CEF8005056E700BF02B0BDE8F08F0000C1
:101740000069084018BF012070470000426902EAA2
:101750000103914341EA034181617047002A08BFB8
:10176000090481617047000040F26830C2F2000055
:101770000068704740F2040040F26831C2F2000095
:10178000C2F2000140680A68104408607047000017
:1017900080B5032000F09AF8002000F009F8002836
:1017A0001CBF012080BD00F029F8002080BD000092
:1017B00070B540F20406C2F200067168E1B1044659
:1017C00040F27C00C2F200004FF47A720068B2FB73
:1017D000F1F1B0FBF1F000F07FFC0F2C4FF00105B0
:1017E00008D838B94FF0FF3021460022002500F01C
:1017F00041F83460284670BD012070BD83B043F6C7
:101800002400C4F20200016841F000410160016857
:1018100001F000410291029950F8041C41F00101CD
:1018200040F8041C50F8041C01F0010101910199D9
:10183000016841F080510160006800F08050009024
:101840000098072003B000F041B80000002848BF0E
:101850007047C1B200F01F00012202FA00F04EF200
:101860000012CEF2000242EAD10121F00301086029
:101870007047000010B54EF60C5CCEF2000CDCF8A0
:101880000030C3F3022E8EF00704042C28BF04247A
:10189000BEF103034FF0FF3E0EFA04F438BF0023FD
:1018A000A14399400EFA03F39A43114300F00F024B
:1018B00000F160430901043A03F5644362440028DF
:1018C00048BF02F10C03197010BD00004EF60C5118
:1018D000CEF200010A684FF6FF031A4060F30A22B5
:1018E00042F0806040F0FD70086070472DE9F041E3
:1018F000002800F0BF8043F60807C4F20207044640
:10190000D7F8F8030D4600F00100884215D2012DEA
:1019100005D1D7F8F80340F00400C7F8F803D7F86A
:10192000F80320F001002843C7F8F803D7F8F803BC
:1019300000F00100A84240F09D802068810705D595
:101940003968A26821F0F00111433960C00737D12E
:10195000D7F8F80300F00100A8420AD9D7F8F80335
:1019600020F00100C7F8F803D7F8F803C00740F0EB
:1019700081802068410705D53968E26821F4E0617B
:1019800011433960000706D53868216920F460509A
:1019900040EAC10038603968C1F3810242F2004078
:1019A000C0F2F400DFE802F002391C2257F8040C00
:1019B0004FF48031C0F3423001FA00F02DE000BF57
:1019C0006068012842D0032848D002284ED157F839
:1019D000081C89035CBF0120BDE8F0814EE000BF18
:1019E00041F20020C0F27A0017E000BF45F28053B8
:1019F000C1F38342C0F600039A5C3B68C1F3815196
:101A0000DB0341F20023C0F27A0301F1010158BF68
:101A1000034603FB02F0B0FBF1F0396845F268526F
:101A2000C1F30311C0F60002515C40F27C0220FABF
:101A300001F140F20400C2F200000068C2F20002AC
:101A40001160BDE8F041FFF7B3BE00BF57F8081CB6
:101A500089075CBF0120BDE8F0810FE057F8081C42
:101A600089015CBF0120BDE8F08107E057F8081C40
:101A7000890503D40120BDE8F08100BF396821F059
:101A8000030108433860FFF76FFE616806460329CB
:101A900041F288382BD0022937D0012910D100BF5C
:101AA000386800F00C0004283FF452AFFFF75CFEEA
:101AB000801B40454FF00300F2D9BDE8F08100BF24
:101AC000386810F00C0F3FF443AFFFF74DFE801B5A
:101AD00040454FF0030088BFBDE8F081F0E700BF4C
:101AE000FFF742FE801B40454FF00300E5D8386801
:101AF00000F00C000C28F3D12AE700BFFFF734FEFA
:101B0000801B40454FF00300D7D8386800F00C0028
:101B10000828F3D11CE7000040F27C0043F60801DE
:101B2000C2F20000C4F202010068096845F278526E
:101B3000C1F30221C0F60002515CC84070470000AA
:101B400040F27C0043F60801C2F20000C4F2020138
:101B50000068096845F27852C1F3C221C0F600025C
:101B6000515CC840704700002DE9F04383B0002865
:101B700000F0AE8243F600060446C4F20206B068E6
:101B8000B168227800F00C09D00701F4803710D03A
:101B9000B9F1080F06D0B9F10C0F40F0E580002F25
:101BA00000F0E2803068800303D56068002800F010
:101BB0008F82207880072FD5B9F1040F1ED0B9F19C
:101BC0000C0F08BF002F19D0E068002800F04C81EE
:101BD0000020C4F2472001210160FFF7C5FD054642
:101BE0003068800711D4FFF7BFFD401B02284FF07B
:101BF0000300F5D903B0BDE8F08300BF306880076B
:101C000003D5E068012840F063827068216920F400
:101C1000F85040EA012070602078C00626D4207871
:101C200000073DD42078400750D4656ACDB1B9F1A2
:101C30000C0F40F0D580012D00F04A82B068A16AF7
:101C400000F480328A4240F04382E16A00F470126C
:101C50008A4240F03D82216B00F44000884240F00F
:101C60003782002003B0BDE8F08300BFB9F1000F58
:101C700066D0A069002800F09F800020C4F24720B1
:101C800001210162FFF770FD054600BF3068800545
:101C900000F1C880FFF768FD401B0228F6D927E154
:101CA0006069002872D00020C4F247200121C0F8EA
:101CB0008016FFF759FD0546706B8007B2D4FFF719
:101CC00053FD401B0228F7D912E100BF706A10F0E3
:101CD000805808D1706A40F080507062706A00F0DD
:101CE00080500090009847F20007C4F2000738685F
:101CF000C00513D4386840F480703860FFF734FDB5
:101D0000054600BF3868C00508D4FFF72DFD401B0D
:101D100064284FF00300F5D96CE700BFA0680028E5
:101D200000F0B680052800F0CD80012800F0CE80BC
:101D3000706B20F480707063706B20F48060C8E07A
:101D40003068800503D5A069002800F0C181206AB1
:101D5000716801F46041884272D9B16811F0F00FE6
:101D600000F0048100215BE16068002800F0CE8073
:101D7000052800F0E380012800F0E480306820F4BA
:101D800080303060306820F48020DEE00020C4F233
:101D900047200021C0F88016FFF7E6FC054600BF8B
:101DA000706B80077FF53EAFFFF7DEFC401B02281B
:101DB0004FF00300F4D91DE70020C4F247200021B2
:101DC0000162FFF7D1FC0546306880057FF527AF3B
:101DD000FFF7CAFC401B02284FF00300F4D909E7C3
:101DE0000027C4F2472700203866FFF7BDFC022D0C
:101DF00005460BD13068800140F1CE80FFF7B4FC7E
:101E0000401B02284FF00300F4D9F3E6306880014C
:101E10007FF527AFFFF7A8FC401B02284FF0030017
:101E2000F4D9E7E67068D4E9072120F4604008435C
:101E30007060706820F07F4040EA02607060EEE6FB
:101E4000716821F46041014371607168E26921F0B9
:101E50007F4141EA02617160B16811F0F00F00F05A
:101E6000B780002108E100BF0020C4F24720002114
:101E70000160FFF779FC0546306880077FF5CCAE3E
:101E8000FFF772FC401B02284FF00300F4D9B1E6C3
:101E9000706B20F480707063706B20F480607063EE
:101EA000FFF762FC054641F2883700BF706B800582
:101EB00022D5FFF759FC401BB8424FF00300F5D97B
:101EC00098E600BF706B40F480607063706B40F404
:101ED00080707063FFF748FC054641F2883700BF09
:101EE000706B800508D4FFF73FFC401BB842F7D960
:101EF000032003B0BDE8F083B8F1000F7FF495AE86
:101F0000706A20F0805070628FE600BF306820F465
:101F100080303060306820F480203060FFF724FC8F
:101F2000054600BF306880037FF543AEFFF71CFC19
:101F3000401B64284FF00300F4D95BE6306840F49E
:101F400080203060306840F480303060FFF70CFC57
:101F5000054600BF306880033FF52BAEFFF704FC59
:101F6000401B64284FF00300F4D943E6716AC900AE
:101F700047F20001C4F2000140D4726A42F080527C
:101F80007262726A02F080520192019A0A68716A62
:101F900021F08051716232E0B06804F128030ECB69
:101FA00020F47D00084310431843B06001203866D8
:101FB000FFF7DAFB044600BF306880013FF551AE01
:101FC000FFF7D2FB001B02284FF00300F4D911E603
:101FD000716AC90047F20001C4F200013AD4726A82
:101FE00042F080527262726A02F080520292029A49
:101FF0000A68716A21F0805171622CE00A68B0F5BC
:10200000404F4FF000010BD102F4C052B2F5C05F57
:1020100006D1D6F8001441F00401C6F800140121DD
:10202000D6F8002422F001020A44C6F80024D6F8AB
:10203000002402F001028A424AD1716821F4604111
:10204000014371607168E26921F07F4141EA0261F8
:1020500071601EE00A68B0F5404F4FF000010BD1EF
:1020600002F4C052B2F5C05F06D1D6F8001441F0B8
:102070000401C6F800140121D6F8002422F0010260
:102080000A44C6F80024D6F8002402F001028A426D
:102090001ED1B16845F26852C1F30311C0F60002C7
:1020A000400B515C4FF4803202FA00F020FA01F14B
:1020B00040F20400C2F2000040F27C020068C2F26A
:1020C00000021160FFF774FB00287FF493ADA6E5D2
:1020D000012003B0BDE8F083411E0020B0EB116F7A
:1020E0001CBF012070474EF21002CEF20002516078
:1020F0004EF62351CEF20001F0230B7007219060C1
:102100001160704710B590F83820012A4FF0020294
:1021100033D080F839200268D2F804E0D2F808C041
:102120000C682EF07003234340F2FF74C4F20004E5
:10213000A24253600ADCB2F1804F13D040F2004358
:10214000C4F200039A420DD011E000BF40F6000334
:10215000C4F201039A4205D040F60003C4F2000322
:102160009A4204D149682CF08003194391600121FF
:10217000002280F8391080F83820104610BD000089
:10218000002804BF0120704710B5044690F83900BC
:1021900028B9002084F83800204600F083F8022097
:1021A00084F83900206840F2FF720168C4F200022E
:1021B000904227DD40F60002C4F2000290422AD08D
:1021C00040F60002C4F20102904224D040F60042E0
:1021D000C4F2000290421ED040F6FF32C4F2000268
:1021E000904222DD40F6FF32C4F2010290422DDC23
:1021F00040F60042C4F20002904233D040F60002A2
:102200002CE000BFB0F1804F05D040F20042C4F294
:1022100000029042E0D1A26821F07001114340F623
:10222000FF32C4F200029042DCDCB0F1804F19D0E2
:1022300040F20042C4F20002904213D040F6000285
:10224000C4F2000290420DD010E000BF41F2000243
:10225000C4F20102904205D040F60042C4F20102ED
:10226000904203D1226921F440711143636921F046
:102270008001D4F804C0E268194301600121C26200
:10228000C0F828C04161002084F83E1084F83A105C
:1022900084F83B1084F83C1084F83D1084F8391021
:1022A00010BD000080B582B00068B0F1804F1CBF47
:1022B00002B080BD43F62400C4F20200016800228F
:1022C00041F0010101600068002100F0010001906F
:1022D00001981C20FFF7CEFA1C2002B0BDE8804018
:1022E000FFF7B4BA90F8391001291CBF01207047DC
:1022F000022180F83910006840F2FF72C168C4F210
:102300000002904241F00101C16009DCB0F1804F50
:1023100012D040F20041C4F2000188420CD012E019
:1023200040F60001C4F20101884205D040F60001E8
:10233000C4F20001884206D1816801F00701062934
:1023400004BF00207047016841F0010101600020D6
:10235000704700000146006841F21113C26822F084
:102360000102C260026A1A4204D00122002081F8F0
:1023700039207047026822F0010202600122002029
:1023800081F839207047000080B590F83820012A84
:102390004FF0020200F0C28080F83920D0F800C06F
:1023A0004FF67772DCF8083023EA0202CCF80820F6
:1023B0000B684F2B28DC1F2B44DD202B45D0302B06
:1023C00043D0402B40F0AC80D1F804E0C968DCF881
:1023D0002030DCF8202022F00102CCF82020DCF8AC
:1023E000182022F0F00242EA011123F00A0242EA28
:1023F0000E02CCF81810CCF82020DCF8081041F0C0
:10240000470121F0300180E06F2B27DDB3F5005F3D
:1024100048D0B3F5805F7AD0702B40F08180D1E94D
:1024200001E3C968DCF8082043EA0E0322F47F4286
:1024300043EA01211143CCF80810DCF8081041F000
:10244000770162E00BB1102B6AD1DCF8081021F0A3
:102450007001194341F0070157E000BF502B35D000
:10246000602B5DD1D1F804E0C968DCF82030DCF8DD
:10247000202022F01002CCF82020DCF8182022F4D2
:10248000704242EA013123F0A00242EA0E12CCF877
:102490001810CCF82020DCF8081041F0670121F07A
:1024A000100132E0D1E901E3C968DCF8082043EA11
:1024B0000E0322F47F4243EA01211143CCF80810B5
:1024C000DCF8081041F480411FE000BFD1F804E0BF
:1024D000C968DCF82030DCF8202022F00102CCF8BA
:1024E0002020DCF8182022F0F00242EA011123F04B
:1024F0000A0242EA0E02CCF81810CCF82020DCF8D0
:10250000081041F0570121F02001CCF808100022FA
:10251000012180F83910002180F83810104680BD64
:102520000122F5E77047000010B50168044608690C
:10253000800744BFC8685FEA80702BD408694007F1
:1025400044BFC8685FEA407030D40869000744BFE0
:10255000C8685FEA007037D40869C00644BFC8681D
:102560005FEAC0603CD40869C0071CBFC8685FEA66
:10257000C07043D10869400646BFC8685FEA406042
:1025800010BD6FF0400220460A61BDE8104000F027
:10259000A3B800BF6FF002000861012020768869AF
:1025A000800733D02046FFF7BDFF35E06FF0040011
:1025B000086102202076886910F4407F30D02046E0
:1025C000FFF7B0FF32E000BF6FF0080008610420A1
:1025D0002076C86980072DD02046FFF7A3FF2FE0A3
:1025E0006FF01000086108202076C86910F4407F61
:1025F0002AD02046FFF796FF2CE000BF6FF00100C5
:102600000861204600F02EF82168B3E7204600F06C
:1026100025F8204600F024F82168002020768DE778
:10262000204600F01BF8204600F01AF82168002030
:1026300020768AE7204600F011F8204600F010F8D6
:1026400021680020207687E7204600F007F8204622
:1026500000F006F821680020207684E7704700002B
:1026600070470000B0B540F26821C2F20001006876
:102670000968884218BFB0BD40F2E805C2F2000503
:10268000D5E90A0100240843C4F202040DD0002059
:10269000A870D5E90A01013861F10001C5E90A0114
:1026A00020464FF48071FFF751F8D5E90C0108433B
:1026B00010D00020A870D5E90C01421E61F1000382
:1026C00004F500608021C5E90C23BDE8B040FFF7A8
:1026D0003DB800BFB0BD000070470000704700006B
:1026E00070470000B0B582B0044600680168C36856
:1026F000426901F02F05202D03F0200506D12DB1F0
:10270000204602B0BDE8B04000F0C4BE5FEA017CE4
:102710001EBF02F0010E03F4907212EB0E0253D1B1
:10272000226B012A05D111F0100218BF13F010021C
:1027300036D10A0622D513F080021FD094F841103A
:1027400021293FD1A168B1F5805F03D1216900291A
:1027500000F07082216A4A1C226209784160E18C93
:1027600001390A04E1842DD1C16821F08001C160E2
:10277000C16841F04001C16002B0B0BD490621D539
:1027800013F040011ED0C16821F04001C16020213A
:10279000204684F8411002B0BDE8B04000F0F4BC1F
:1027A00000210191016801914168019101994069FD
:1027B000400613D4A08DE18DE28D002A18BF884217
:1027C00040F0BA8102B0B0BDCA0718BF13F48072DE
:1027D00040F0B6804A0700F1B980BEE0E06B0168C6
:1027E00049688AB2002AEDD0A38D9A42EAD2E185E7
:1027F0008069202800F09C80206850E8030F216841
:1028000020F4807041E80302DAB1206850E8030F39
:10281000216820F4807041E8030292B1206850E8FA
:10282000030F216820F4807041E803024AB1206858
:1028300050E8030F216820F4807041E80302002A69
:10284000DAD1206850E8050F216820F0010041E846
:102850000502DAB1206850E8050F216820F0010078
:1028600041E8050292B1206850E8050F216820F088
:10287000010041E805024AB1206850E8050F2168CF
:1028800020F0010041E80502002ADAD1206850E872
:10289000050F216820F0400041E80502DAB1206808
:1028A00050E8050F216820F0400041E8050292B190
:1028B000206850E8050F216820F0400041E805023B
:1028C0004AB1206850E8050F216820F0400041E837
:1028D0000502002ADAD1202084F84200002020637B
:1028E000206850E8030F216820F0100041E803023F
:1028F000DAB1206850E8030F216820F0100041E8A9
:10290000030292B1206850E8030F216820F0100004
:1029100041E803024AB1206850E8030F216820F023
:10292000100041E80302002ADAD1E06BFEF7BEFD99
:1029300002206063A08DE18D401A81B2204674E1CF
:10294000626C42F0010262644A0706D5BEF1000FD4
:1029500003D0626C42F0020262648A0706D5BEF1BF
:10296000000F03D0626C42F004026264BCF1000FFD
:1029700009D545EA0E02B2FA82F2520903D1626C1D
:1029800042F008026264626C002A3FF41BAF11F04F
:10299000200118BF002D03D0204600F07BFD2068E9
:1029A0004069616C00F0400001F00801401800F03F
:1029B000B58000BF206850E8030F216820F49070B4
:1029C00041E80302BAB3206850E8030F216820F4FD
:1029D000907041E8030272B3206850E8030F216849
:1029E00020F4907041E803022AB3206850E8030FF6
:1029F000216820F4907041E80302002ADAD11AE03D
:102A0000206850E8050F216820F0010041E8050228
:102A1000DAB1206850E8050F216820F0010041E894
:102A2000050292B1206850E8050F216820F00100EE
:102A300041E805024AB1206850E8050F216820F0FE
:102A4000010041E80502002ADAD1206B012824D1D7
:102A5000206850E8030F216820F0100041E80302CD
:102A6000DAB1206850E8030F216820F0100041E837
:102A7000030292B1206850E8030F216820F0100093
:102A800041E803024AB1206850E8030F216820F0B2
:102A9000100041E80302002ADAD1202084F8420025
:102AA000002020632068406940063FD5206850E838
:102AB000050F216820F0400041E80502DAB12068E6
:102AC00050E8050F216820F0400041E8050292B16E
:102AD000206850E8050F216820F0400041E8050219
:102AE0004AB1206850E8050F216820F0400041E815
:102AF0000502002ADAD1E06BC0B143F28941C0F689
:102B000000014163FEF7F8FC00283FF45BAEE06B88
:102B1000416B02B0BDE8B040084700BF2046FFF758
:102B2000DFFD0020606402B0B0BD00BF204602B0EF
:102B3000BDE8B040FFF7D4BD401A216851E8031F3B
:102B4000226821F4907142E80313DBB1216851E857
:102B5000031F226821F4907142E8031393B12168A6
:102B600051E8031F226821F4907142E803134BB12E
:102B7000216851E8031F226821F4907142E8031391
:102B8000002BDAD1216851E8051F226821F00101EC
:102B900042E80513DBB1216851E8051F226821F0E6
:102BA000010142E8051393B1216851E8051F22682D
:102BB00021F0010142E805134BB1216851E8051FDE
:102BC000226821F0010142E80513002BDAD120210F
:102BD00084F8421000212163216851E8031F226814
:102BE00021F0100142E80313DBB1216851E8031F13
:102BF000226821F0100142E8031393B1216851E8E3
:102C0000031F226821F0100142E803134BB1216831
:102C100051E8031F226821F0100142E80313002B42
:102C2000DAD1022281B22046626302B0BDE8B04030
:102C3000FFF754BD216A31F8022B6FF35F22426027
:102C400021628CE5002804BF0120704710B50446BE
:102C500090F8410028B9002084F84000204600F098
:102C600021F8242084F841002068C16821F4005133
:102C7000C160204600F08EFC2068016921F490417B
:102C80000161416921F02A014161C16841F40051AB
:102C9000C16000202021606484F8411084F8421053
:102CA000606310BD10B586B0006844F60001C4F240
:102CB000000188424FF000010591CDE90311CDE9F3
:102CC000011121D044F20041C4F2000188424DD1EB
:102CD00043F61C00C4F202008168262441F400314E
:102CE0008160816801F4003100910099016841F030
:102CF0000101016000680C2100F0010000900098C3
:102D00000020C4F202001DE043F61C00C4F20200E1
:102D10008168272441F480218160816801F4802149
:102D200000910099016841F00201016000684FF4D0
:102D3000406100F00200009000980020C4F2020000
:102D400000F580600191022102910021039103218D
:102D500004910721059101A9FEF720FC20460021DE
:102D60000022FEF787FD2046FEF770FD06B010BD7D
:102D700090F84230202B1CBF0220704700294FF0F2
:102D8000010318BF002A01D11846704700230363CE
:102D9000816222218285C285436480F842100169E4
:102DA000006819B1C16841F48071C16041690023B4
:102DB00041F001014161C16841F02001C160184644
:102DC00070470000F0B58BB040F2A821C2F20001BC
:102DD00000680968884257D040F2F021C2F2000131
:102DE000096888421CBF0BB0F0BD40F2E805C2F292
:102DF00000052879297A421C2A7140F2E312C2F2B6
:102E000000020A29115471D145F2D85440F2E3105E
:102E1000C0F600040027C2F2000021462F71FDF722
:102E2000C1FA01AEF9B246F8210000202146FDF7B3
:102E3000B9FA002807F10107F4D1019831A12861FE
:102E4000FDF7B6FA002851D140F2E31045F2D8510F
:102E5000C2F20000C0F60001FDF7A4FAE0B345F2AB
:102E6000D8540027C0F60004F9B246F8210000202B
:102E70002146FDF797FA002807F10107F4D138063B
:102E80002AD002982CE000BF40F2E804C2F200040D
:102E9000E078E179421CE27040F26312C2F2000273
:102EA0000A2911540CD10020E07040F26310631C19
:102EB000C2F2000014A12246FDF7B0F901206071B2
:102EC00040F2A820E11DC2F2000001220BB0BDE8D3
:102ED000F040FFF74DBF00BF45F2DA50C0F60000EA
:102EE000286101F053FB01F043FCE86040F2F02060
:102EF00005F10801C2F2000001220BB0BDE8F0406C
:102F0000FFF736BF5352000025642025640A0000F5
:102F10002DE9F04381B0044690F84100202840F0AC
:102F2000B180884600294FF0010000F0D680164697
:102F3000002A00F0D2800020606421201D4684F821
:102F40004100FEF711FCA684E684A1680646B1F5AF
:102F5000805F03D12069002800F0988047464FF039
:102F60000008E18C2068002900F0968005F1010935
:102F70000BE000BF47B317F8011B4160E18C01393A
:102F8000E184E18C002900F0878001680906F1D412
:102F9000B9F1000F0AD0EDB1FEF7E6FB801BA842A5
:102FA00018D8206801680906F6D5E3E70168090624
:102FB000E0D4016809065CBF01685FEA0161D9D409
:102FC00001680906F2D5D5E738F8021B00276FF330
:102FD0005F21D2E7206850E8030F216820F4D07009
:102FE00041E80302BAB3206850E8030F216820F4D7
:102FF000D07041E8030272B3206850E8030F2168E3
:1030000020F4D07041E803022AB3206850E8030F8F
:10301000216820F4D07041E80302002ADAD11AE0D6
:10302000206850E8050F216820F0010041E8050202
:10303000DAB1206850E8050F216820F0010041E86E
:10304000050292B1206850E8050F216820F00100C8
:1030500041E805024AB1206850E8050F216820F0D8
:10306000010041E80502002ADAD1202084F841005D
:1030700084F84200002084F84000032001B0BDE83D
:10308000F08300BF022001B0BDE8F0830027E18C8F
:10309000206800297FF46AAF0168490619D4FDB1A0
:1030A000691C0DD10168490613D4016849065CBF4B
:1030B00001685FEA41610CD401684906F2D508E075
:1030C000FEF752FB801BA8420AD820680068400621
:1030D000F6D5202084F84100002001B0BDE8F0833F
:1030E000206850E8030F216820F4D07041E8030203
:1030F000002A3ED0206850E8030F216820F4D070E9
:1031000041E80302AAB3206850E8030F216820F4C5
:10311000D07041E8030262B3206850E8030F2168D1
:1031200020F4D07041E80302002AD9D121E000BF89
:10313000206850E8050F216820F0010041E80502F1
:10314000002A3FF492AF206850E8050F216820F074
:10315000010041E80502002A3FF487AF206850E8EB
:10316000050F216820F0010041E80502002A3FF424
:103170007CAF206850E8050F216820F0010041E88D
:103180000502002AD4D170E770470000FEE7000076
:103190002DE9F04F87B0002443F61C00CDE905442B
:1031A000C4F20200016840F2004941F004010160EC
:1031B0000168C4F2020901F004010191019901685A
:1031C000A9F5806641F0200101600168002201F04C
:1031D000200101910199016841F00101016001683C
:1031E00001F0010101910199016841F002010160C2
:1031F000016801F0020101910199016841F00801A3
:103200000160006848F2207100F008000190019808
:103210003046FEF7A3FA09F5806738468021002280
:103220004FF0800BFEF79AFA09F50068404604213A
:103230000022FEF793FA484648210022FEF78EFA54
:103240004FF4005002904FF4881002ADCDE9030412
:1032500038462946FEF7A2F940F27F10CDE9020474
:10326000384629460494FEF799F948F22040029026
:103270004FF0010A30462946CDE903A40594FEF734
:103280008DF94FF20600CDE9020448462946049420
:10329000FEF784F9CDE902BA4FF0030B3846294610
:1032A0000494CDF814B0FEF779F94FF40070029051
:1032B0004FF48810CDE9030A38462946FEF76EF927
:1032C0004FF44070CDE9020A30462946CDE9044B5F
:1032D000FEF764F94FF4C050CDE9020430462946A8
:1032E0000494FEF75BF90420CDE9020A4046294622
:1032F000CDE90444FEF752F90820CDE9020A484618
:103300002946CDE90444FEF749F9102002904FF414
:103310000410CDE9030448462946FEF73FF9202072
:1033200002A981E8110448462946FEF737F94020F2
:10333000CDE9020A48462946CDE9044BFEF72EF9AD
:10334000802002904FF48810039002200490484699
:103350002946FEF723F90A2000210022FEF78AFA07
:103360000A20FEF773FA172000210022FEF782FAE6
:103370001720FEF76BFA07B0BDE8F08F80B586B076
:1033800040F268200021C2F200004FF080421F236B
:103390004FF0630C0591CDE90311CDE90011C0E9AF
:1033A0000023C0E9021CC0E90411FEF7E9FE002871
:1033B00018BFFEF775F84FF48050029040F2682075
:1033C000C2F2000002A9FEF7DFFF002818BFFEF7D7
:1033D00067F840F26820C2F200006946FEF792FEEC
:1033E000002818BFFEF75CF806B080BD80B540F23B
:1033F000A82044F20041C2F20000C4F20001002300
:103400004FF00C0C4FF4165280E80E00C0E9033365
:10341000C0E905C3C361FFF715FC002808BF80BDE4
:10342000BDE88040FEF73CB880B540F2F02044F69D
:103430000001C2F20000C4F2000100234FF00C0CA6
:103440004FF4165280E80E00C0E90333C0E905C30B
:10345000C361FFF7F7FB002808BF80BDBDE88040CF
:10346000FEF71EB8FEE70000FEE700007047000010
:1034700070470000FEF77EB97047000040F26820F8
:10348000C2F20000FFF750B8406A0021C185C18434
:10349000FFF726B981B090F84210222921D1836824
:1034A0000246B3F5805F09D152F8281F52F8183C44
:1034B000002B63D003685B680AE000BF52F8281F46
:1034C00013B90369002BF5D003685B6803F07F0331
:1034D0000B70116801311160C18D01390A04C18579
:1034E00002D001B0704700BF0168CA6822F0200214
:1034F000CA60CA6822F48072CA604A6922F0010276
:103500004A61202180F8421000214163026B012AA8
:103510003CD10163016851E8031F026821F01001EA
:1035200042E80313DBB1016851E8031F026821F090
:10353000100142E8031393B1016851E8031F0268C8
:1035400021F0100142E803134BB1016851E8031F59
:10355000026821F0100142E80313002BDAD1016860
:103560000A68D20606D5002200920A6800924968CD
:1035700000910099818D01B0FFF7B0B802685268E0
:103580006FF35F2221F8022B8162A5E701B0FFF7FC
:1035900019BC000010B504460068D4E902C22369D2
:1035A000016921F4405111430161626943EA0C0150
:1035B000E3691143C268194349F20C639A4311430A
:1035C000C1604169A26921F44071114343F60002D0
:1035D000C4F201029042416102D0FEF79DFA01E07F
:1035E000FEF7AEFAE26961681923B2F5004F03FBFA
:1035F00000F023D14900B0FBF1F048F21F51C5F2B1
:10360000EB11A0FB01235A094FF69C73C0F6FF7320
:1036100003F1805302FB0300322303EBC000A0FB45
:1036200001014FF4F87000EA111000EB0210C1F331
:10363000421108442168886010BD00BF8900B0FBBA
:10364000F1F048F21F51C5F2EB11A0FB01235A091A
:103650004FF69C73C0F6FF7302FB0300322303EBAB
:103660000010A0FB0101F02000EA511000EB021055
:10367000C1F3431108442168886010BD40F2A820BE
:10368000C2F20000FFF72EB840F2F020C2F20000B4
:10369000FFF728B8FEE70000C169806970470000A5
:1036A000C16A806A70470000408C70472DE9F04382
:1036B00081B040F2682040F20044C2F20000C4F23F
:1036C0000204FEF70FFE20468021FEF739F840F293
:1036D000E8070028C2F2000718BF0120B8710BD01C
:1036E000002140F26820C2F20000C7E90A1101B0CF
:1036F000BDE8F043FEF72EBE40F268280026A4F590
:103700008065C2F2000844F620690CE0D7E90A019E
:1037100008431DD020468021FEF712F8002818BF6C
:103720000120B871DCD1FEF71FF8D7E91212401A58
:1037300066EB0201643871F10000E7D328462021CE
:10374000FEF704F8FEF710F8C7E91206DEE700BF3F
:103750004046FEF7FFFD4046C7E90A96FEF7C2FD68
:10376000D8E7000096B040F20009C4F20209FEF763
:103770000FF8002447F20000CDE90F44CDE90D44D5
:10378000CDE90B44CDE90944CFF6FE7059F800109D
:10379000012262F3CC2149F8001002200890CDE903
:1037A00011044FF4002013904FF4000010211490E6
:1037B00008A80B920C91FEF7D7F928B1EFF310800F
:1037C00072B600BFFEE700BF0F2003900320CDE9D3
:1037D000040403A80121CDE90644FEF787F828B1C7
:1037E000EFF3108072B600BFFEE700BFFFF7D0FC1A
:1037F000FFF7FCFDFFF718FEFFF7C0FD09F5806637
:1038000030468021FDF79CFF40F2E804002818BFF5
:103810000120C2F2000409F50065A07128464FF4AA
:1038200000714FF40078FDF78BFF40F2A8270028C5
:1038300018BF0120C2F200076072E11D3846012264
:10384000FFF796FA40F2F02004F10801C2F20000FE
:103850000122FFF78DFA78A1384606226423FFF78C
:1038600057FB40F23837C2F200074FF0400C3846A1
:10387000294680223346019525460296CDF800C0A0
:1038800000F012FA38464FF4C8620023002400F01A
:10389000E5F905F1500A504649464FF480724B460F
:1038A000CDF8008000F014FA43F68002C0F2010265
:1038B0005046002300F0D2F945F26050C0F60000F7
:1038C00003C8CDE908015046FFF7E6FEC5E90E0141
:1038D0003846FFF7E1FEC5E9100140F26820C2F268
:1038E0000000FEF737FDFFF7E1FE00BF02988021E0
:1038F000FDF726FF002818BF0120A87101984FF49A
:103900000071FDF71DFF002818BF0120687200F04C
:1039100007F9687970B1697838466C7100F0A8F9D8
:103920002978504600F0A8F940F26820C2F2000061
:10393000FEF7D8FC5046FFF7B7FEC5E90804384645
:103940003C46FFF7ADFE5746D5E908BA80468946A2
:103950005BEA0A00C5E9068927D0D5E90E0101F026
:103960007AFC01F04DFC05460E465846514601F0E2
:1039700072FC01F045FC48F200030022C4F2760319
:1039800000F0E4FF2A4640F2E8053346C2F20005A3
:1039900001F0AEF900F076FE01F0DCFCC5E90A01A9
:1039A000384600F053F9D5E90689BA4658EA0900C5
:1039B000274625D0D5E9100101F04DFC01F020FC8F
:1039C00005460E464046494601F045FC01F018FC0C
:1039D00048F200030022C4F2760300F0B7FF2A4643
:1039E00040F2E8053346C2F2000501F081F900F02B
:1039F00049FE01F0AFFCC5E90C01384600F02AF998
:103A000008A8022100F01CF8FDF7AEFED5E912125D
:103A10000024401A64EB0201643871F10000FFF4E5
:103A200065AF0020C4F202002021FDF78FFEFDF7F4
:103A30009BFEC5E9120459E753544152540A000051
:103A4000B0B50129B8BFB0BD0C46051F55F8040F2D
:103A5000016809688847013CF8D1B0BD70B50446DB
:103A600090F8200094F8211040F26622C2F2000281
:103A70008142117008BF70BD45F2C052C0F600020D
:103A800052F8300052F831100026451A0021204625
:103A9000002DC8BF012100F0E5F8002D48BF6D42A0
:103AA00094F82000C4E90A5684F8210070BD000093
:103AB000B0B590F8201090F82120044640F2601034
:103AC000C2F2000091420170427008BFB0BD45F2E1
:103AD0009053C0F6000353F8322053F83110511AB6
:103AE0000DB2002D48BF6D42B52D4FEA01424FF097
:103AF000000107D3002AC8BF01218170C5F5B47544
:103B000004E000BF012AB8BF01218170204600F007
:103B1000A9F894F82100658484F82000B0BD000065
:103B200010B540F20C04C2F20004206B218AFDF7AC
:103B300007FE002818BF0120626B618A20701046C2
:103B4000FDF7FEFD002818BF0120A26BA18A60705E
:103B50001046FDF7F5FD002818BF0120E26BE18A51
:103B6000A0701046FDF7ECFD002818BF0120226C64
:103B7000218BE0701046FDF7E3FD002818BF0120FF
:103B8000626C618B20711046FDF7DAFD002818BFCA
:103B90000120A26CA18B60711046FDF7D1FD0028B9
:103BA00018BF0120E26CE18BA0711046FDF7C8FD43
:103BB000002818BF0120226D218CE0711046FDF70E
:103BC000BFFD002818BF0120626D618C2072104675
:103BD000FDF7B6FD002818BF0120A26DA18C607210
:103BE0001046FDF7ADFD002818BF0120E26DE18C05
:103BF000A0721046FDF7A4FD002818BF0120226E18
:103C0000218DE0721046FDF79BFD002818BF0120B2
:103C1000626E618D20731046FDF792FD002818BF7B
:103C20000120A26EA18D60731046FDF789FD00286A
:103C300018BF0120E26EE18DA0731046FDF780FDF4
:103C4000002818BF0120E07310BD0000002141844E
:103C5000704700000021C0E90A117047C0E906233F
:103C600070470000C3680A46018A1846FDF776BD12
:103C700080F820107047000080F821107047000085
:103C800080B581B0EE46DDF80CC0C0E900E10281EC
:103C900000214FF4C852C0E906210A21C360A0F8F0
:103CA00010C0817401B080BD10B582B0DDF810C0C5
:103CB0000446CDF800C0FFF7E3FF40F28000C2F2F7
:103CC00000002060002084F8200002B010BD000039
:103CD00010B582B0DDF810C00446CDF800C0FFF783
:103CE000CFFF40F28400C2F200002060002084F880
:103CF000210002B010BD000023F07F4720F07F4C70
:103D000080EA030000F00040ACEB070303F57C53AE
:103D100003F1FF032DE9804909B44FEA144324EA73
:103D200003484FEA154B25EA0B4E0FF2042606EB2B
:103D300013273E7803FB0667C7F5000707FB06F667
:103D40004FEAD64606F102064FEA543707FB066CE7
:103D5000CCF1005C4FEA1C472CEA074C0CFB06F543
:103D600007FB06F404EB15464FEA961649085FEA8E
:103D7000320234BF00204FF000404FEAD13706FB3B
:103D800007FC4FEA1C4C0CFB0BF7D21B03FB0CF798
:103D900061EB07010CFB0EF7B0EB074072EB17422B
:103DA0000CFB08F734BFA2EB0742B2EB074261EB12
:103DB00017414FEA0C444FEA910706FB07FC4FEA14
:103DC0001C4C0CFB0BF7B0EBC74072EB573203FBFC
:103DD0000CF734BFA2EBC742B2EBC74261EB5731DD
:103DE0000CFB0EF7B0EBC70072EB57720CFB08F739
:103DF00034BFA2EBC702B2EBC70261EB57714FEAC7
:103E0000816141EA92114FEA826242EA90124FEADE
:103E1000806004EBCC04039F4FEAD13706FB07FC1C
:103E20004FEA1C4C0CFB0BF7D21B03FB0CF761EBAE
:103E300007010CFB0EF7B0EB074072EB17420CFBCF
:103E400008F734BFA2EB0742B2EB074261EB174120
:103E50004FEA8C5504EB9C244FEA910706FB07FCC4
:103E60004FEA1C4C0CFB0BF7B0EBC74072EB573220
:103E700003FB0CF734BFA2EBC742B2EBC74261EBC6
:103E800057310CFB0EF7B0EBC70072EB57720CFB0F
:103E900008F734BFA2EBC702B2EBC70261EB577160
:103EA0004FEA816141EA92114FEA826242EA90123E
:103EB0004FEA806015EB4C2544F100044FEAD137FE
:103EC00006FB07FC4FEA1C4C0CFB0BF7D21B03FB59
:103ED0000CF761EB07010CFB0EF7B0EB074072EB40
:103EE00017420CFB08F734BFA2EB0742B2EB0742C4
:103EF00061EB17414FEA813141EA92414FEA823248
:103F000042EA90424FEA80304FEA0C7615EB1C15DE
:103F100044F1000448EA03434EEA0B484FF0000E18
:103F2000B2EB080C71EB030724BF624639464EEB37
:103F30000E0E4FF0000B0018524149414BEB0B0B9A
:103F4000B2EB080C71EB03077BF1000B24BF624658
:103F500039464EEB0E0E4FF0000B0018524149410E
:103F60004BEB0B0BB2EB080C71EB03077BF1000B77
:103F700024BF624639464EEB0E0E51EA020718BFC7
:103F800046F0010616EB0E7655F1000254F10001E1
:103F900003D5BDE88901BDE80088BDE88901BDE819
:103FA0000048B619524141EB0101A3F101037047EA
:103FB00080807F7E7D7C7B7A797877767675747366
:103FC000727171706F6E6E6D6C6C6B6A6A69686825
:103FD000676666656464636362616160605F5F5EBB
:103FE0005E5D5D5C5C5B5B5A5A5959585857575631
:103FF0005655555554545353525252515150505096
:104000004F4F4F4E4E4D4D4D4C4C4C4B4B4B4A4AE7
:104010004A4949494848484747474746464645452B
:104020004544444444434343434242424241414164
:1040300010B546EA06464FEA164646EA42564FEAA9
:10404000D22242EA41524FEAD121A3F57053A3F1A3
:10405000010300F02FF820F0004000F0004700F1CD
:10406000020CBCF5006F01EB0050114640EA07005E
:1040700000D210BDBAF1000F0AD01CB503B44FF046
:1040800004004FF004014FF000000FBCBDE81040E9
:104090004FF00001BBF1010FB9BF04484FF0FF31F1
:1040A0000348002140EA070010BD00BFFFFFEF7F7B
:1040B0000000F07F9C46002B30D477002BD04FEAD5
:1040C00037071CB503B44FF010004FF01001BAF1E0
:1040D000000F06D0BCF1000FDCBF40F0080040F03C
:1040E00008014FF000000FBCBDE810400BF1010BC0
:1040F000BBF1010F08BF5FEA170722BF12F10102EF
:1041000011F101014FF0004143F1000300F00040C4
:1041100043EA00007047F9D35708D0E746EA06465D
:104120004FEA164613F1400F1FDD13F1200FDFBFDA
:1041300016430A46002120335B42BED0C3F120075C
:1041400046EA06464FEA164602FA07F746EA070627
:1041500022FA03F2C3F1200701FA07F742EA070245
:1041600021FA03F14FF00003A7E746EA020646EA08
:1041700006464FEA164646EA0106BCBF46EA064630
:10418000360C4FF000034FF000024FF0000194E7AF
:104190002DE9804C70B49A46934691E8380007C8E0
:1041A00031EA400C48BF34EA430C03D5FFF7A4FDC5
:1041B000FFF780FFF0BCBDE8008C2DE9804C70B4A7
:1041C0009A46934691E8380007C831EA400C48BF48
:1041D00034EA430C03D5FFF78FFDFFF729FFF0BC4E
:1041E000BDE8008C2DE9804C70B49A46934691E866
:1041F000380007C810F0804F08BF13F0804F03D17C
:1042000000F01AF8FFF756FFF0BCBDE8008C2DE96E
:10421000804C70B49A46934691E8380007C810F075
:10422000804F08BF13F0804F03D100F005F8FFF76F
:10423000FFFEF0BCBDE8008C20F07F4723F07F4CF0
:1042400080EA030000F0004007EB0C03A3F57C5369
:10425000A3F1FE0392F0000F00F0B38095F0000F81
:1042600000F077802DE901494FEA114021EA00482A
:104270004FEA144624EA064700FB06FC08FB06F654
:1042800007FB08F818EB06484CEB164C00FB07F749
:1042900018EB07484CEB17404FEA124B22EA0B4E43
:1042A0004FEA154625EA06470BFB06FC0EFB06F611
:1042B00007FB0EFE1EEB064E4CEB164C0BFB07F7F6
:1042C0001EEB074E4CEB174B18EB0B0840F10000B0
:1042D00018EB0E0B58EB000840F100008F1A4FF05E
:1042E00000014FF000063CBFC943661B14BFB5EB8D
:1042F000040C00213CBFC943F61B4FEA174427EAD0
:1043000004454FEA1C472CEA074C04FB076205FBF7
:1043100007F70CFB05F616EB074642EB174204FBCA
:104320000CFC16EB0C4642EB1C421BEB060658EB52
:10433000020241414EEA8E0E46EA9E0601D5BDE8D4
:104340000189B619524141EB0101A3F10103BDE816
:1043500001894FEA144524EA05464FEA114721EA4C
:10436000074C05FB07F406FB07F70CFB06F111EB06
:10437000074144EB174405FB0CFC11EB0C4144EBEB
:104380001C444FEA124722EA074C05FB07F206FBE2
:1043900007F70CFB06F616EB074642EB174205FB48
:1043A0000CFC16EB0C4642EB1C456A1854F100015C
:1043B00048BF7047B619524141EB0101A3F1010317
:1043C000704795F0000F37D04FEA114221EA0246BC
:1043D0004FEA144724EA074C02FB07F106FB07F7F4
:1043E0000CFB06F414EB074441EB174102FB0CFCF9
:1043F00014EB0C4441EB1C414FEA154725EA074CEE
:1044000002FB07F506FB07F70CFB06F616EB074663
:1044100045EB174502FB0CFC16EB0C4645EB1C422A
:10442000121951F1000148BF7047B619524141EBD2
:104430000101A3F1010370474FEA144524EA054640
:104440004FEA114721EA074C05FB07F106FB07F786
:104450000CFB06F212EB074241EB174105FB0CFC8B
:1044600012EB0C4251EB1C414FF0000648BF704765
:10447000921841EB0101A3F10103704740F20132B0
:1044800000204FF0E04100F0D3BF0000024A0020BE
:10449000110700F0CDBF000001FDFFFF10B504467D
:1044A000D1E9000100F002F8206010BDF8B5044623
:1044B0000D466A4600F080F800987E300090002893
:1044C0001EDC002213462046294600F099FB17D037
:1044D000002140F608004FF000000646204629461D
:1044E00000F046F9044640F6080006EA00014FF0E5
:1044F000000034F0004004BF0220FBF7A1FF29E0D8
:104500000098FF2828DB002108464FF0000000F447
:104510004006002213462046294600F0E7FC8CBFE7
:10452000002501250220FBF78BFF4FF0FF4446B129
:10453000002D0CBF4FF400004FF48000B04218BFB4
:10454000084C042108464FF00000002D04BF84F001
:104550000040F8BD2046F8BD20462946BDE8F84099
:1045600000F006B9FFFF7F7F10B504460A46D4E984
:104570000003194600F04CF8C4E9000110BD3038C2
:104580000A2801D2012070470020704730B583B05F
:104590000446FBF750FF05460020CDE90000024627
:1045A000012321466846FBF7B7FF2846FBF748FF83
:1045B000DDE9000103B030BD10B5144600222260D1
:1045C000114A21F000439342A8BF10BD53EA0002F4
:1045D00008BF10BDB3F5801FA8BF226807DA3622D6
:1045E00000F026FF6FF0350221F000432260DFF873
:1045F0001CC06FF31E510CEB23531A4441F0FF51C2
:1046000041F00051226010BD0000F07F02FCFFFF6E
:104610002DE9F04106460C4640F2FF75174635EA93
:1046200014502BD000221346304600F0E9FA25D072
:104630003A463046214600F0FBFE06460C4635EA77
:10464000145010D000221346304600F0D9FA15D18C
:104650000220FBF7F5FEFFF719FF0A46214662F339
:104660001E01BDE8F0810220FBF7EAFEFFF706FF1E
:104670000A46214662F31E01BDE8F081304621461C
:10468000BDE8F0812DE9F04D07460E4600F064FCD0
:1046900004460D463A46334600F0B8FCDFF86CA0FD
:1046A000DFF86CB01B4B0746884616F0004F4FF002
:1046B00000020AD000F0E0FA0AD900225B46384630
:1046C000414600F013FC1BD212E000F0D5FA08D2EC
:1046D000002253462046294600F0A4FC04460D461D
:1046E0000EE000225B463846414600F0FFFB07D84B
:1046F000002253462046294600F06CF804460D4639
:104700003146204665F31E01BDE8F08D0000F03F04
:104710000000E03F0000E0BF10B500290AD0087893
:10472000002807D005487844FBF742FE002801D056
:10473000002010BD0248784410BD0000EA0E0000C1
:10474000E20E000010B500290AD00878002807D032
:1047500005487844FBF72CFE002801D0002010BD4E
:104760000248784410BD0000DA0E0000D20E0000AE
:1047700021F0004201F00043A2F16052B2F5801F27
:1047800028BFD2F17F6C0BD95FEA001C43EAC2025A
:1047900042EB507018BF704728BF20F001007047EF
:1047A000B2F5801FBCBF184670474FEA410C1CF59C
:1047B000001F02D2084600F0C4BD70B500F042FBF5
:1047C00000000089FFF7F6BF4FF00040A0F5800021
:1047D0007047000010B591EA030F48BF83F0004313
:1047E00000F12884841A71EB030C05D2121943EBF3
:1047F0000C03001B61EB0C014FEA1154A4EB135C9A
:10480000DFF81CE11EEA430F18BF9EEA445F00F088
:10481000748021EA045123EA0E0343F48013DCF18F
:10482000200E32D322FA0CFE10EB0E0023FA0CFEFF
:1048300041EB0E01CCF1200E03FA0EFE10EB0E0040
:10484000CCF1200E51F10001B1F5801F32D201EB05
:10485000045112FA0EF2BDE8104058BF7047401CD8
:1048600038BF5FEA420218BF7047002814BF20F02B
:10487000010041F100014FEA410313F5001F38BF69
:104880007047A1F1C04100F02BBB012A43EB0302AA
:10489000ACF1200CDCF11F0E32BF4FF0000E23FAFA
:1048A0000CF310EB030041EB0451B4EB115FD0D0DB
:1048B000A1EB045101F58011490801EB04515FEAB5
:1048C00030000ED350F1000038BF12FA0EFE08D1AE
:1048D000BDE81040C9E7401C38BF5FEA4202CAD1B8
:1048E000C3E7BDE810404FEA410313F5001F38BF8E
:1048F0007047A1F1C04100F0F3BA9EEA445F08D0CE
:1049000011EA5E0FBDE8104004BF01F00041002035
:104910007047BDE8104070B500F094FA64FBBE3EED
:104920000000E0FF02494FF0000000F04FBD00BF63
:104930000000F87F491058BFC1F140415B1058BFDB
:10494000C3F140438B42EFF3008070472DE9C04133
:1049500030B4DFF8A4C23CEA111418BF3CEA1314C7
:1049600000F0ED801CEA111481EA030544EAD574D5
:1049700018BF1CEA131500F0C880A4EB050404F16D
:104980007F7404F500344FF0004545EAC12145EA43
:10499000C32341EA505143EA52534FEAC0204FEA41
:1049A000C222994208BF904200F09D804FEA1365F1
:1049B0000FF24416765D4FEA134506FB05F7C7F183
:1049C000807706FB07F74FEAD737A7FB03687642E5
:1049D000A7FB06CEC8F5803838BFA8F1010807FB51
:1049E00008E6A6FB028C4FF0000EE6FB03CEDCF1DE
:1049F000000CCEF1004E38BFAEF1010EA6FB0C58F4
:104A00004FF00007E6FB0E87A1FB08C6A0FB07CE10
:104A100016EB0E064FF0000545F10005E1FB0765BA
:104A200015F1E04E7EBFA4F580345FEA46066D4185
:104A300016F1800745F100054FEA172747EA056799
:104A40004FEA15254FEA0666A6F1DE46B6F1805F0D
:104A500020D9384605EBC47124F0010C01EB0C1190
:104A6000BCF1FE6F02D8F0BCBDE8008124425CBFFF
:104A700001F5801E9EEAC47F02D4F0BCBDE800812F
:104A8000244200F13980A1F1C041F0BCBDE80041F1
:104A900000F026BA4FEAD02040EA41504FEAD12137
:104AA0004FEAD22242EA43524FEAD323A7FB0286BF
:104AB00007FB036605FB02661EEA0E0F58BFA6EB56
:104AC0000056B6EB00564FEA520E4EEAC37E18EB84
:104AD0000E0E56EB530EBCD518EB02085E417F1C40
:104AE00055F10005B5E74FF480154FF000074FF082
:104AF00000064FF00008ACE701F1C04101F00041B1
:104B00004FF00000F0BCBDE800810CEA131511EA7B
:104B10000C1F00D00CE013EA0C1F00F026804FF0B1
:104B2000000081EA030101F00041F0BCBDE8008112
:104B3000F0BCBDE8004181EA030100F0D1B9F0BC4E
:104B4000BDE8004170B500F07DF900BF097EFC3E74
:104B500000F007B84FF0000081EA030101F00041C6
:104B6000704781EA030100F0BBB9F0BCBDE8004129
:104B700022494FF000007047FFFDFBF9F7F5F4F212
:104B8000F0EEEDEBE9E8E6E4E3E1E0DEDDDBDAD8E8
:104B9000D7D5D4D3D1D0CFCDCCCBCAC8C7C6C5C446
:104BA000C2C1C0BFBEBDBCBBBAB9B8B7B6B5B4B35D
:104BB000B2B1B0AFAEADACABAAA9A8A8A7A6A5A448
:104BC000A3A3A2A1A09F9F9E9D9C9C9B9A9999980C
:104BD0009797969595949393929191908F8F8E8EAF
:104BE0008D8C8C8B8B8A898988888787868585843C
:104BF00084838382828181800000FF070000F87F28
:104C000051EA030C17D41CF5801F58BFBCF5801F58
:104C100000F10680994218BF704708BF9042704764
:104C200007D711F5801F58BF13F5801F19D499427B
:104C30007047894270471CF5801F08D5BCF5801F5E
:104C4000F7D58B4218BF704708BF824270474FF4B8
:104C5000001C1CEB410F38BF1CEB430F01D28B42F1
:104C6000704770B500F0EEF8922449004FF0005103
:104C70004FF08053FFF75EBE51EA030C17D41CF5CA
:104C8000801F58BFBCF5801F00F10680994218BFF5
:104C9000704708BF9042704707D711F5801F58BF73
:104CA00013F5801F19D499427047894270471CF54B
:104CB000801F08D5BCF5801FF7D58B4218BF704701
:104CC00008BF824270474FF4001C1CEB410F38BFF5
:104CD0001CEB430F01D28B42704770B500F0B2F865
:104CE000922449004FF000514FF08053FFF722BE4D
:104CF00070B5DFF848C11CEA111E1EBF1CEA13156F
:104D00009EEA0C0F95EA0C0F00F06F8081EA030415
:104D10004EEAD47EAE4421EA4C1123EA4C1341F40E
:104D2000801143F48013AEF17F7EA1FB024CA0FB07
:104D30000365361955EB0C05A1FB034C4CF1000340
:104D4000A0FB021C16EB0C06654153F1000309425F
:104D500018BF46F0010613F4007F0BD14FEA033170
:104D60004FEA053041EA155140EA165034036FF01E
:104D700003020AE04FEAC3214FEAC52041EA555138
:104D800040EA5650F4026FF0020202EB2E4201EBB1
:104D9000025585EACE710AD05FEA440C18BF24F0B0
:104DA000004450F1000041F1000120EAD47040F2CB
:104DB000FE7C624500D270BDA84214BF4FF0804413
:104DC0004FF04044002E08BF0024BEF1806FA8BF02
:104DD000A1F1C041BDE8704080F2828001F1C04184
:104DE00001F000414FF0000070470CEA13159EEAF5
:104DF0000C0F18BF95EA0C0F06D081EA030E4FF096
:104E000000000EF0004170BD00F01CF88900013E6A
:104E100000F007B800F009B84FEA430C5FEA5C5CA9
:104E200008D081EA030100F05BB84FEA410C5FEA69
:104E30005C5CF6D102494FF0000070470000FF07AC
:104E40000000F87F0EF1020E2EF0030E5EF8046BE8
:104E5000364205D4012A43EB030515F5001F12D88D
:104E6000012841EB010C1CF5001F0CD80ED14FEAB4
:104E7000D17C0CEB4C0C0CF1020C15F5001F08BF9B
:104E80004CEBD37C04E04FF0080C01E04FEAD37CFC
:104E90000CEB4C0526FA05F606F00706B6F1040CF5
:104EA00006D20EEB860CBDE870404CF0010C60475A
:104EB000DFE80CF0090B02024FF00041A1F50021E0
:104EC0004FF0000070BD19461046012851EB010457
:104ED00018BFD4F5001484BF002001F0004170BD5C
:104EE0000808A0F500114FEA3101704753EA010CA0
:104EF00017D41CF5801F58BFBCF5801F00F1068039
:104F00008B4218BF704708BF8242704707D713F51E
:104F1000801F58BF11F5801F19D48B4270479B42E8
:104F200070471CF5801F08D5BCF5801FF7D5994246
:104F300018BF704708BF904270474FF4001C1CEB2D
:104F4000430F38BF1CEB410F01D2994270470FB499
:104F50000CBC03BCFFF7C1BE5FEA410C5FEA5C5CBE
:104F6000ACF580635B1C39D4D3F1340240F3458047
:104F7000B2F1200314DA4FF0010C0CFA02FCACF190
:104F80000103034020EA0300B3EB5C0208BF10EA10
:104F90000C0F98BF704710EB0C0041F100017047F7
:104FA0000AD0C3F1200201FA02FC01284CF10000F2
:104FB00021FA03F101FA03F14FF0010C0CFA03FCA2
:104FC000ACF1010321EA0301B0F1004F08BF11EA7F
:104FD0000C0F4FF0000088BF61447047B3F1FF3FF2
:104FE00028BF50EAC12C01F000414FF0000084BFFF
:104FF00041F07C5141F470017047B3F5806FB8BF48
:10500000704770B5FFF71EFF40DBB6BE10B591EAE2
:10501000030F81F000413FF5E5AB83F0004300F062
:1050200009B8000010B591EA030F48BF83F00043B0
:105030003FF5D8AB841A71EB030C07D28CF0004C0F
:10504000121943EB0C03001B61EB0C014FEA1154E6
:10505000A4EB135CDFF8A4E11EEA430F18BF9EEA3D
:10506000445F00F0B48021EA045123EA6E03524207
:10507000C3EB6E0338BF5B1EDCF1200E25D322FA92
:105080000CFE10EB0E0043FA0CFE41EB0E01CCF1CE
:10509000200E03FA0EFE10EB0E00CCF1200E51F1A3
:1050A000000129D401EB045112FA0EF2BDE81040C0
:1050B00058BF7047401C1CBFB2F1004F704700281A
:1050C0000CBF491C20F00100704712EB020E43EBAD
:1050D000030218BF4FF0010E4EEA4202ACF1200C61
:1050E000DCF11E0E56D943FA0CFE10EB0E00CCF18B
:1050F0001E0E51F1FF31D5D50EF1010E12FA0EFE42
:10510000404141EB010101EB445C5FEA5C5C10D97A
:1051100001EB045110EBDE7038BFBEF1004FBDE86B
:10512000104018BF704700280CBF491C20F0010038
:10513000704734D24FEAD42C24F4006411F50011E6
:105140001BD0B1FA81F20B3AA41AA41ED2F12003AB
:10515000914030FA03F31943904001EBCC7101EB1D
:105160000451002CBDE81040A8BF704701F1C041B8
:1051700001F000414FF000007047B0FA80F310FAE0
:1051800003F102D1BDE810407047E41A173C48050E
:10519000C90AE2E701EB0451BDE81040704749102D
:1051A0004FEA300001EB0451BDE8104002E04FF03F
:1051B000000170474A0008BF0042F8D0B2F5001F56
:1051C00028BF704701F000414FF0000070479EEA91
:1051D000445F07D011EA5E0FBDE8104004BF002114
:1051E00000207047BDE8104070B5FFF72BFE00BFF0
:1051F00040DFF63E104683F0004170470000E0FFBC
:1052000043004FEAD30C4FEA3C0C43401FBF40071A
:105210000CF1605113F0FE4F70471CF0006F03D18A
:105220000CF00041002070470CF0004343EA50703E
:1052300040EACC0010B500F03EF800BF000000923C
:105240004FEA0001FFF74CBE4FF00041A1F50021ED
:105250004FF0000070474FF07E5209E011F000421D
:1052600004D54042C1F1000138BF491E42F07E52D0
:1052700002F170620B0012BF20235FEA0001704749
:10528000B1FA81FC01FA0CF1A3EB0C0320FA03FC48
:1052900041EA0C0102EBC352C3F1200310FA03FCF4
:1052A0005CEA416C42EB112018BF5FF0806C28BFB4
:1052B00020F0010070470EF1020E2EF0030E5EF892
:1052C000044B244204D44FEA4102B2F17F4F11D87B
:1052D0004FEA4003B3F17F4F0CD80ED14FEAD07C98
:1052E0000CEB4C0C0CF1020CB2F17F4F08BF4CEBF5
:1052F000D17C04E04FF0080C01E04FEAD17C0CEBCC
:105300004C0324FA03F404F00704B4F1040C06D2AD
:105310000EEB840CBDE810404CF0010C6047DFE858
:105320000CF0070802024FF00040A0F5800010BD0D
:105330000846420018BFD2F1807288BF00F00040DA
:1053400010BDFF2141EAD050C00570474FF000006A
:10535000704700000A154FEAC12343EA50534FEA51
:10536000C02C18BF43F000431BD4A2F24E02D2F56A
:105370007C72C0F22080502AA8BF502223FA02F18A
:105380002CFA02F0D2F1200260B484BF03FA02F5D5
:105390002843C2F100029CBF23FA02F5284360BCF7
:1053A000704701F1804212F5801F04DA4FF00000CF
:1053B0004FF00001704770B5FFF744FD499224801B
:1053C000002001E06FEAE170014670470CF00F0326
:1053D000092B08BF082000F05F800A2B0BD0082B98
:1053E00018BF704708BF1CF0400F0AD04FF00000F4
:1053F0004FF0000170471CF0400F18BF4FF0004005
:1054000070471CF0100F08D000F07F4220F070436E
:1054100042EAD3014FEA4370704700F0604021F048
:105420007F4242EA000201F07F4040EA727070471A
:105430004FF0FF0C4CF4E06C1CEA11531CBF9CEACB
:10544000030C9445C2BFDA4201EB02517047002BB6
:105450000DD0BCF1000F0FD001F00041002AA4BF15
:1054600041F0E04141F07F614FF00000704701F0F2
:1054700000414FF00000704750EA01334FF09B0CA1
:1054800018BF4CF0806C7FF44DAA7047FBF7DABB75
:10549000FBF7C2BDFBF750BF1CF4801F11D01CF4FA
:1054A000E02F03D06FEACC31490070474FF04050F5
:1054B000EFF3008222F0704242EA000282F3008899
:1054C00070474FF00000704702400000000000A04D
:1054D0000000000005400000000000C800000000BF
:1054E0000C4000000000409C00000000194000003B
:1054F0000020BCBE0000000034400000BFC91B8E6D
:1055000000000004B5400000504BCFD06607E2CF4A
:10551000010000006C4100003E8251AADFEEA7347A
:1055200001000000D9420000DCB5A0E23A301F972C
:10553000FFFFFFFFB4450000FD25A0C8E9A3C14F50
:10554000FFFFFFFFFF3F00000000008000000000A1
:10555000FF3F00000000008000000000000000008D
:105560003803002038010020000000000000000087
:1055700001020304060708090000000001020304F9
:10558000030406080C101820300000000000000082
:1055900000000000000000003C00000000000000CF
:1055A0007800000000000000B400000000000000CF
:1055B000F0000000000000002C01000000000000CE
:1055C0000000000000000000A08C000000000000AF
:1055D000401901000000000020004E554C4C000016
:1055E000405700080000002088000000600100080B
:1055F000C857000888000020E80800007C01000867
:10560000000000000000F07FFFFFFFFFFFFFEF7FC3
:105610001C00000043000000F8FFFFFF0C0000002A
:105620000E0000000F0000002E000000100100001E
:1056300043000000F8FFFFFF004040404040404072
:105640004040414141414140404040404040404055
:1056500040404040404040404005020202020202F9
:105660000202020202020202022020202020202048
:10567000202020020202020202029090909090905C
:10568000101010101010101010101010101010101A
:10569000101010100202020202028888888888888E
:1056A000080808080808080808080808080808087A
:1056B0000808080802020202400000000000000082
:1056C00000000000000000000000000000000000DA
:1056D00000000000000000000000000000000000CA
:1056E00000000000000000000000000000000000BA
:1056F00000000000000000000000000000000000AA
:105700000000000000000000000000000000000099
:105710000000000000000000000000000000000089
:105720000000000000000000000000000000000079
:105730000000000000000000000000000000000069
:105740000000000010000000010000000101010144
:1057500001010101010101010101010100014000FC
:10576000200000100008001004000200008000402B
:1057700000201000040008000100020000080240A0
:105780000008024000080240000002400000024001
:1057900000040240000402400004024000040240F1
:1057A00000040240000402400008024000080240D9
:1057B00000080240000802400008024068FF1F0085
:0857C0005D3A0008B13A00084F
:0400000508000125C9
:00000001FF
