:020000040800F2
:10000000E0070020890100082D2700086D1D000869
:1000100029270008450200086527000800000000A5
:10002000000000000000000000000000352700086C
:1000300049020008000000003127000839270008A5
:10004000A3010008A3010008A3010008A301000800
:10005000A3010008A3010008A3010008A3010008F0
:10006000A3010008A3010008A3010008A3010008E0
:10007000A3010008A3010008A3010008A3010008D0
:10008000A3010008A3010008A3010008A3010008C0
:10009000A3010008A3010008A301000855020008FD
:1000A000A3010008A3010008A3010008A3010008A0
:1000B000412700084D270008592700087D1D00082A
:1000C000711D0008A3010008A3010008A301000896
:1000D000A3010008A3010008A3010008A301000870
:1000E0004D020008A3010008A301000800F002F877
:1000F00000F03AF80AA090E8000C82448344AAF188
:100100000107DA4501D100F02FF8AFF2090EBAE885
:100110000F0013F0010F18BFFB1A43F0010318473B
:10012000E42D0000042E0000103A24BF78C878C1E6
:10013000FAD8520724BF30C830C144BF04680C60ED
:10014000704700000023002400250026103A28BF35
:1001500078C1FBD8520728BF30C148BF0B60704739
:100160001FB51FBD10B510BD00F031F81146FFF7E7
:10017000F7FF02F0F9FA00F04FF803B4FFF7F2FFCF
:1001800003BC00F057F800000948804709480047C1
:10019000FEE7FEE7FEE7FEE7FEE7FEE7FEE7FEE737
:1001A000FEE7FEE704480549054A064B7047000094
:1001B0003D270008ED000008E0010020E0070020D6
:1001C000E0030020E0030020704770477047754649
:1001D00000F02CF8AE4605006946534620F00700B3
:1001E000854618B020B5FFF7DDFFBDE820404FF091
:1001F00000064FF000074FF000084FF0000BAC4630
:10020000ACE8C009ACE8C009ACE8C009ACE8C0097A
:1002100021F007018D46704710B50446AFF300800A
:100220002046BDE81040FFF7A8BF00000048704717
:100230001000002001491820ABBEFEE72600020096
:1002400070470000FEE70000704700004FF4805048
:1002500000F07EB8202000F07BB80000EFF31080A3
:1002600072B600BFFEE7000080B590F821100229A9
:1002700024D10268116821F00E0111602F2113684A
:10028000C4F202018A4240F20401C4F2020123F0E6
:100290000103136016DD3023C4F202039A421DD01D
:1002A0004423C4F202039A421CD05823C4F202032E
:1002B0009A421DD14FF4803322E000BF04218163B4
:1002C000012080BD0823C4F202039A420ED01C23F1
:1002D000C4F202039A420BD1102311E04FF4807351
:1002E0000EE000BF4FF480530AE000BF012307E097
:1002F00001F1680C4FF08073624508BF4FF4801322
:100300000B60012180F82110426B002180F8201041
:100310000AB190470021084680BD000090F82100F6
:100320007047000040F20C00C2F200000121017091
:1003300040F2700C40F60040C2F2000C0023C4F200
:1003400001004FF400510022ACF8003000F01AB95F
:1003500040F21441C4F201010A68024214BF08606D
:100360007047FFF7DFBF00002DE9F04F82B00E6845
:10037000002E00F0038141F20042C4F20102042386
:1003800040F2004E904208BF03234FF6FF7CC4F2B8
:10039000010E009300240123C1F2100C4FF0000A5B
:1003A0004FF0000949E000BF012704F00C030F22C1
:1003B0009A402BEA020207FA03F34FEA9A051A431E
:1003C00046F82520D1F804B040F20C455FEACB2274
:1003D000DEF8082054BF22EA080242EA0802C4F20A
:1003E0000105CEF808202A685FEA8B2354BF22EA71
:1003F000080242EA08022A605FEA8B33DEF8042032
:1004000054BF22EA080242EA08025FEACB33CEF880
:100410000420DEF800204FF0010354BF22EA080256
:1004200042EA0802CEF800200E680AF1010A36FA04
:100430000AF204F1040400F0A18003FA0AF816EAB3
:10044000080FF1D04E68664512DC122E56D8DFE850
:1004500006F0350B45495555555555555555555586
:100460005555554D510000BFD1F80C9046E000BFE6
:100470004FF6FF72C1F2210296420FDC0022C1F258
:10048000110296421AD00022C1F21202964215D0F1
:100490000022C1F22102964210D02FE00022C1F2C8
:1004A000220296420AD00022C1F23102964205D0C1
:1004B0000022C1F23202964220D100BF8A684AB1BE
:1004C000012A14BFC0F81480C0F810804FF008094A
:1004D00014E000BF4FF0040910E000BFCA6802F149
:1004E00008090BE04FF0000908E000BFCA6802F1FC
:1004F000040903E0CA6802F10C0900BF224606465F
:10050000BAF1080F24BF203A043637680F2595400A
:1005100027EA050509FA02F22A433260CA79D206AF
:100520007FF582AF41F21803C4F202031A68AEF5F8
:100530007E7642F001021A601A6802F0010201920E
:10054000019A2AF0030256F802B040F60002C4F203
:100550000102904210D040F60042C4F201029042E3
:100560003FF422AF41F20002C4F20102009F904228
:1005700008BF022719E700BF002716E702B0BDE851
:10058000F08F0000002A08BF0904016170470000D5
:1005900040F2D810C2F200000068704770470000B7
:1005A00070470000F0B581B0044600680025476937
:1005B000426894F83E1002F48076FA0508D53EB100
:1005C0006FF4807242610268012542F400420260C9
:1005D000BA0505D5002E1EBF02356FF400724261C8
:1005E0007A0516D5AEB1628D94F83D30D4F830C09E
:1005F000202908BF002A23D06FF48062402905F12A
:100600000405426101D0102903D1016841F4007151
:100610000160380506D52EB1206808356FF40061F9
:10062000416100E055B1206C40EA0501204621649B
:1006300001B0BDE8F04001F039BC00BF01B0F0BD31
:1006400003F0F701212909D0282B08BFBCF1210FA5
:1006500004D06FF4806141610435DAE794F83D100D
:10066000E26AB2F1080318BF0123203A18BF012241
:10067000134208BF282921D0212939D10021CFF6E2
:10068000FF71E16221212163202184F83D100021C6
:1006900084F83E10426822F4E06242606FF48062A7
:1006A0004261026822F4806202604269120648BF19
:1006B0000161204600F05AFCABE700BF0021CFF6F5
:1006C000FF71E162416821F4E06141606FF4806193
:1006D0004161016821F480610160002020212063D4
:1006E00084F83D1084F83E00204600F0F1FB90E7CE
:1006F0006FF4806141618CE7F0B581B00768044612
:100700007868E26A94F83E3094F83DE0402B01D0DE
:10071000102B27D1BE697D69E90751D1B2F12A4F6B
:1007200000F0BE82B2F52A0F00F0BA8200F4007227
:100730004FF0010C29078CEA522C45D5002A43D0F2
:10074000606B616CC9B2396118B1806A002840F0F1
:100750002481A06B002800F0A382806A002840F06A
:100760001C819DE2216C00F4007300290CBFBE695E
:1007700000267D69A90753D5002B51D0206C002895
:1007800018BFBE6994F83D0000F02800282840F00A
:1007900093807868002320F480607860012020EA4C
:1007A000960130064FF0180058BF0C20225A204600
:1007B00084F83C3001B0BDE8F040FFF7F1BE00BF67
:1007C000810557D44FF0010CA90759D5BCF1000F92
:1007D00056D194F83E30E06A226B94F83D102229FD
:1007E00040F0E280216D002908BF402B00F0DC8042
:1007F000216D002940F032812169B1F5404F40F070
:100800002D810020009078690090B86900900098D0
:10081000386840F480703860206D013093E200BF8A
:10082000E90655D5002B53D094F83D50786820F454
:10083000E06078600020009078690090386840F0AF
:10084000010038600098386820F48060386078686B
:10085000000540F1408105F0F7002646222840F0CF
:10086000198156F8380F0168496826F80E1C36F8C9
:100870000E1C17E1E06AB0F52A0F5FD1012062E09B
:100880007968720701F4006100F19880002940F056
:100890000782690605F0040140F1AE8110F4806022
:1008A00000F0AA81002940F0A781204601B0BDE8F0
:1008B000F04001F035BC00BF002000907969009144
:1008C000B9690091009984F83C0001B0F0BD00BF07
:1008D0000EF0F70100F48062212905F0040040F0D9
:1008E0008380290640F14881002A00F045810028D4
:1008F00040F0428194F83D00618D002900F0D081E4
:10090000616A11F8012B3A616162618D013961857B
:10091000618D002908BF292840F0C281786828210C
:1009200020F48060786021202063204684F83D1008
:1009300001B0BDE8F04000F019BB00BFE06AB0F1C3
:100940002A4F01D10820E06294F83E0040280BD1E4
:10095000206D616C002801F0FE0018BF40F001001E
:10096000386101B0F0BD00BF2069B0F5804F65D19E
:1009700094F83D00616C212801F0FE0118BF01319F
:100980003961606B08B1806A38B9A06B002800F04B
:100990008781806A002800F08381786840F40060D5
:1009A000786001B0F0BD00BF002000907869009031
:1009B000B8690090009801B0F0BD00BF002940F078
:1009C0006F81290605F0040140F1228110F4806056
:1009D00000F01E81002940F01B81204601B0BDE8D7
:1009E000F04001F081BC00BF690640F1D980002AC7
:1009F00000F0D680002840F0D38094F83D00618D4F
:100A0000002900F04D813969626A1170616A013113
:100A10006162618D01396185618D002908BF2A28D5
:100A200040F03E812068416821F4806141602220CD
:100A300028212063204684F83D10D8E0206D00284E
:100A400000F0C080206D012840F02A81606C0621F2
:100A500001EAD010F130386101B0F0BD618D61B1B3
:100A6000618D012940F0E480202818BF082840F05B
:100A70001981386820F4806038600020009078691F
:100A80000090B86900900098386840F400703860B1
:100A900058E100BF56F8340F0168496826F80A1C6F
:100AA00036F80A1C19B1216C41F0040121647968FF
:100AB00021F400617960FFF731FC01280BD0306828
:100AC00041F68951C0F600014163FFF7CDFB10B13B
:100AD0003068416B8847608D60B120684169490783
:100AE00030D4416949063AD4608D18B1206C40F089
:100AF00004002064206C28B1204601B0BDE8F0401D
:100B000001F0D4B92A2D07D100202063282084F8D1
:100B10003D00204600F028FA94F83D00282859D1DD
:100B20000020CFF6FF70E06200212020216384F8CE
:100B30003D00204684F83E1001B0BDE8F04000F0D2
:100B4000C7B900BF0069616A0870616A2068013135
:100B50006162618D0139618541694906C4D50069C9
:100B6000616A0870606A01306062608D013860857A
:100B7000608D0028BAD1BDE7002818BF002B00F017
:100B80008F80608D002800F08B80606A10F8011B58
:100B900039616062608D0138608501B0F0BD00BFD1
:100BA000002818BF002B00F07B80608D002877D0D4
:100BB0003869616A0870606A01306062608D01386E
:100BC00060856DE0606C062101EAD010F03038617C
:100BD00001B0F0BD206B222818BF222D60D100216A
:100BE0002020216384F83D00204684F83E1001B0A7
:100BF000BDE8F04000F0B8B9B1FA81F0400950EA20
:100C00000C004DD1204601B0BDE8F04001F014BA0F
:100C1000B1FA81F0400950EA0C0041D1BEF1210F38
:100C200036D1204601B0BDE8F04001F01BBB00BF4B
:100C3000618D022914D1102858D801211422814035
:100C4000C0F20102114251D0396841F4806139602B
:100C50000021009179690091B9690091009954E0EF
:100C6000396841F4806139607968090563D5421EAD
:100C70001F2A5DD80121914048F28102C8F200028A
:100C8000114255D0786840F48050786053E000BF3E
:100C9000402B05D1204601B0BDE8F04001F07EBBFD
:100CA00001B0F0BD10F5803F0CD1386820F48060B1
:100CB0003860786800057FF5E0AE386820F4806021
:100CC000386038E0122A02D101287FF4D2AE102811
:100CD000F3D8012101FA00F01421C0F20101084209
:100CE000EBD0386840F48060386024E0396841F423
:100CF000006139600021009179690091B969009122
:100D00000099396821F4806139607968090519D53D
:100D1000421E1F2A1AD80121914048F28102C8F2CE
:100D20000002114212D0786840F48050786009E0E7
:100D300010F5803FA6D00020009078690090B86937
:100D4000009000980020206501B0F0BD10F5803FB4
:100D5000E9D0F7E77047000070B5B8B3044690F8E3
:100D60003D0028B9002084F83C00204600F0BAF885
:100D7000242084F83D002068016821F00101016011
:100D8000016841F400410160016821F40041016003
:100D900000F086FA48F28041C0F21E0140F60013CE
:100DA000D4F804E088424FF00001C0F23D0348F25D
:100DB000A16C4FF0000238BF01219842C0F2010C33
:100DC00038BF0122E64538BF0A460AB1012070BD8E
:100DD0004DF68361C4F21B31A0FB01122168950C12
:100DE0004B684FF4967623F03F0343EA92437543F2
:100DF00044F6D3564B60C1F262060B6AA5FB065659
:100E0000B50923F03F03E64538BF950C6A1C1A4329
:100E10000A62CA6948F2A0664CF6FF73C0F2010686
:100E2000B64522EA03020BD801384FEA4E03B0FB65
:100E3000F3F001306FF31F30042898BF04201EE048
:100E4000A368013863B119230EFB03F3B0FBF3F081
:100E500001306FF31F3078B100F5804008E000BF2B
:100E60000EEB4E03B0FBF3F001306FF31F3028B1EF
:100E700000F5004003E000BF012000E00120104326
:100E8000C8610868D4E9072320F0C0001043184364
:100E90000860886848F2FF3204F10C0690434CCE9B
:100EA00018431043A5698860C86820F0FF003043EC
:100EB0002843C860086840F0010008600020202135
:100EC000206484F83D10206384F83E0070BD00006B
:100ED0007047000070470000704700007047000036
:100EE0007047000010B586B045F200410068C4F2BA
:100EF000000100228842049202D006B010BD00BF5B
:100F000041F21804C4F20204206840F00800206096
:100F1000206800F0080001900198C0200290122083
:100F200003900320059001F5384002A9FFF71CFA51
:100F30006068002140F4001060606068002200F4E6
:100F40000010019001981F2000F08EF81F2000F083
:100F500077F820200021002200F086F8202000F001
:100F60006FF806B010BD0000704700007047000029
:100F700040F2000040F2D811C2F20000C2F20001BB
:100F800000780A68104408607047000080B542F29B
:100F90000000C4F20200016841F01001016003206A
:100FA00000F08EF80F2000F005F800F027F8002080
:100FB00080BD000070B540F20006C2F2000640F2AB
:100FC00008013278C2F200014FF47A730968B3FB6A
:100FD000F2F20446B1FBF2F1084600F04FFB0F2C91
:100FE0004FF0010508D838B94FF0FF3021460022F4
:100FF000002500F039F87460284670BD82B041F2D7
:101000001800C4F202000168022241F001010160EF
:10101000016801F0010101910199416841F080519D
:101020004160406800F08050009000980420C4F2B5
:101030000100016862F31A61016002B070470000AC
:10104000002848BF7047C1B200F01F00012202FA19
:1010500000F04EF20012CEF2000242EAD10121F07D
:10106000030108607047000010B54EF60C5CCEF22C
:10107000000CDCF80030C3F3022E8EF00704042CC1
:1010800028BF0424BEF103034FF0FF3E0EFA04F420
:1010900038BF0023A14399400EFA03F39A4311434A
:1010A00000F00F0200F160430901043A03F56443C4
:1010B0006244002848BF02F10C03197010BD000003
:1010C0004EF60C51CEF200010A684FF6FF031A40AB
:1010D00060F30A2242F0806040F0FD7008607047C3
:1010E0002DE9F04381B0002800F0858042F200082D
:1010F000C4F202080446D8F800000D4600F00700CC
:1011000088420CD2D8F8000020F007002843C8F825
:101110000000D8F8000000F00700A8426BD120685A
:1011200041F204098107C4F2020917D5410705D528
:10113000D9F8001041F4E061C9F80010010705D5A5
:10114000D9F8001041F46051C9F80010D9F8001026
:10115000A26821F0F0011143C9F80010C00741D185
:10116000D8F8000000F00700A8420CD9D8F8000019
:1011700020F007002843C8F80000D8F8000000F06D
:101180000700A84237D12068410707D5D9F80010D9
:10119000E26821F4E0611143C9F80010000708D5A6
:1011A000D9F80000216920F4605040EAC100C9F874
:1011B0000000D9F8002002F00C00082841F20020BD
:1011C000C0F27A0050D142F6F463C2F38341C0F614
:1011D0000003595CD2033BD440F60010C0F23D003E
:1011E000484341E0606802280AD001282AD159F812
:1011F000041C890308D4012001B0BDE8F08300BFBE
:1012000059F8041C8901F6D5D9F8001021F0030122
:101210000843C9F80000FFF7BBF9064641F28837DA
:10122000D9F80000616800F00C00B0EB810F97D096
:10123000FFF7AEF9801BB842F2D9032001B0BDE838
:10124000F08300BF59F8041C8907D4D5DCE700BF40
:10125000D9F8002042F6F263C2F34042C0F6000320
:101260009A5C4843B0FBF2F0D9F8001042F6DA621B
:10127000C1F30311C0F60002515C40F2080220FAEB
:1012800001F140F20400C2F200000068C2F2000264
:101290001160FFF78FFE002001B0BDE8F083000071
:1012A00040F2080041F20401C2F20000C4F202015F
:1012B0000068096842F6EA62C1F30221C0F6000242
:1012C000515CC840704700002DE9F04182B0002811
:1012D00068D00446007841F20006C007C4F2020656
:1012E00025D0706800F00C0004281BD0706800F056
:1012F0000C00082802D17068C00313D4606800286D
:1013000000F06881B0F5A02F00F07C81B0F5803F3F
:1013100000F07C81306820F480303060306820F448
:10132000802076E13068800301D56068D0B32078F2
:10133000800718D5706810F00C0F07D0706800F0A7
:101340000C0008286ED17068C0036BD43068800729
:1013500002D52069012825D13068616920F0F800A4
:1013600040EAC1003060207800071FD42078400791
:1013700032D4E56995B1706800F00C00082840F09F
:101380008F80012D0ED07068216A00F480328A426D
:1013900008D1616A00F47010884203D1002002B0C5
:1013A000BDE8F081012002B0BDE8F081A06900280D
:1013B00062D00020C4F242200121C0F88014FFF75F
:1013C000E7F80546706A800700F18C80FFF7E0F8C7
:1013D000401B0228F6D92AE1F06910F0805808D1A4
:1013E000F06940F08050F061F06900F080500090AA
:1013F000009847F20007C4F200073868C00529D4F6
:10140000386840F480703860FFF7C2F8054600BFC6
:101410003868C0051ED4FFF7BBF8401B6428F7D915
:1014200005E100BF2069002840F20000C4F242201C
:1014300000F0828001210160FFF7AAF8054600BF95
:10144000306880073FF588AFFFF7A2F8401B0228FD
:10145000F6D9ECE0E068002800F08080052800F074
:101460009780012800F09880306A20F001003062F7
:10147000306A20F0040092E00020C4F242200021F3
:10148000C0F88014FFF784F8054600BF706A800733
:101490007FF56CAFFFF77CF8401B0228F6D9C6E059
:1014A0000027C4F2422700203866FFF771F8022DAA
:1014B00005460BD13068800140F1BE80FFF768F827
:1014C000401B02284FF00300F4D968E73068800120
:1014D0007FF564AFFFF75CF8401B02284FF0030074
:1014E000F4D95CE740F20800C2F20000006844F65C
:1014F000D351C1F26201A0FB0101480A019000BF73
:1015000000BF0198411E002801913FF42FAF00BF9A
:101510000198411E002801913FF428AF00BF0198B7
:10152000411E002801913FF421AF00BF0198411EE8
:1015300000280191E4D119E700210160FFF728F8A4
:10154000054600BF306880077FF50DAFFFF720F834
:10155000401B02284FF00300F4D920E7306A20F046
:1015600001003062306A20F004003062FFF710F8AA
:10157000054641F2883700BF306A800720D5FFF763
:1015800007F8401BB8424FF00300F5D907E700BF4A
:10159000306A40F004003062306A40F0010030628E
:1015A000FEF7F6FF054641F2883700BF306A800734
:1015B00006D4FEF7EDFF401BB842F7D937E000BF75
:1015C000B8F1000F7FF4D5AEF06920F08050F061E3
:1015D000CFE600BF306820F480303060306820F4FF
:1015E00080203060FEF7D4FF054600BF30688003DE
:1015F0007FF59DAEFEF7CCFF401B64284FF0030043
:10160000F4D9CCE6306840F480203060306840F493
:1016100080303060FEF7BCFF054600BF30688003B5
:101620003FF585AEFEF7B4FF401B6428F6D90320D2
:1016300002B0BDE8F08100BF206AB0F5803F05D15F
:101640007168A26821F40031114371607168626AA7
:1016500021F4741111430843706001203866FEF7CD
:1016600097FF0446306880013FF598AEFEF790FF83
:10167000001B02284FF00300F4D990E6411E002021
:10168000B0EB116F1CBF012070474EF21002CEF27A
:10169000000251604EF62351CEF20001F0230B7090
:1016A000072190601160704770470000704700008C
:1016B00010B590F83C20012A4FF0020233D080F898
:1016C0003D200268D2F804E0D2F808C00C682EF081
:1016D0007003234340F2FF74C4F20004A24253603B
:1016E0000ADCB2F1804F13D040F20043C4F2000391
:1016F0009A420DD011E000BF42F60043C4F201034C
:101700009A4205D040F60003C4F200039A4204D185
:1017100049682CF08003194391600121002280F870
:101720003D1080F83C20104610BD0000002804BF8A
:101730000120704710B5044690F83D0028B90020FC
:1017400084F83C00204600F067F8022084F83D0051
:10175000206840F2FF730268C4F2000342F6004CB6
:101760009842C4F2010C15DCB0F1804F1AD040F25F
:101770000041C4F20001884214D0984218DCB0F154
:10178000804F1DD040F20041C4F20001884217D0C2
:101790001AE000BF604505D040F60001C4F2000128
:1017A0008842EAD1A16822F070020A439842E6DD3D
:1017B000604505D040F60001C4F20001884203D123
:1017C000216922F440720A43A36922F08001D4F80F
:1017D00004E0E268194360450160C262C0F828E095
:1017E00002D16169CCF8301001214161002084F8F8
:1017F000461084F83E1084F83F1084F8401084F8B6
:10180000411084F8421084F8431084F8441084F89E
:10181000451084F83D1010BD10B584B0006840F646
:101820000001C4F2000188421AD040F20041C4F223
:101830000001884224D0B0F1804F1CBF04B010BD1D
:1018400041F21C00C4F2020001681C2441F00101B5
:101850000160006800F00100039003981EE000BFE3
:1018600041F21C00C4F2020001681E2441F0040190
:101870000160006800F00400019001980EE000BFD4
:1018800041F21C00C4F2020001681D2441F0020173
:101890000160006800F002000290029820460021DA
:1018A0000022FFF7E1FB204604B0BDE81040FFF73F
:1018B000C7BB000090F83D1001291CBF01207047F4
:1018C000022180F83D10006840F2FF72C168C4F246
:1018D0000002904241F00101C16009DCB0F1804F8B
:1018E00012D040F20041C4F2000188420CD012E054
:1018F00042F60041C4F20101884205D040F60001E1
:10190000C4F20001884206D1816801F0070106296E
:1019100004BF00207047016841F001010160002010
:101920007047000080B590F83C20012A4FF0020279
:1019300000F0C28080F83D20D0F800C04FF67772EA
:10194000DCF8083023EA0202CCF808200B684F2BA1
:1019500028DC1F2B44DD202B45D0302B43D0402BDF
:1019600040F0AC80D1F804E0C968DCF82030DCF845
:10197000202022F00102CCF82020DCF8182022F0F0
:10198000F00242EA011123F00A0242EA0E02CCF808
:101990001810CCF82020DCF8081041F0470121F0A5
:1019A000300180E06F2B27DDB3F5005F48D0B3F541
:1019B000805F7AD0702B40F08180D1E901E3C96863
:1019C000DCF8082043EA0E0322F47F4243EA0121B7
:1019D0001143CCF80810DCF8081041F0770162E000
:1019E0000BB1102B6AD1DCF8081021F070011943FB
:1019F00041F0070157E000BF502B35D0602B5DD17F
:101A0000D1F804E0C968DCF82030DCF8202022F0AE
:101A10001002CCF82020DCF8182022F4704242EAB0
:101A2000013123F0A00242EA0E12CCF81810CCF8D3
:101A30002020DCF8081041F0670121F0100132E0AD
:101A4000D1E901E3C968DCF8082043EA0E0322F477
:101A50007F4243EA01211143CCF80810DCF808105A
:101A600041F480411FE000BFD1F804E0C968DCF810
:101A70002030DCF8202022F00102CCF82020DCF815
:101A8000182022F0F00242EA011123F00A0242EA91
:101A90000E02CCF81810CCF82020DCF8081041F029
:101AA000570121F02001CCF808100022012180F814
:101AB0003D10002180F83C10104680BD0122F5E762
:101AC0007047000010B5016804460869800744BFEC
:101AD000C8685FEA807039D40869400744BFC868A5
:101AE0005FEA40703ED40869000744BFC8685FEAF7
:101AF000007045D40869C00644BFC8685FEAC0608A
:101B00004AD40869C0071CBFC8685FEAC07051D1D9
:101B10000869000644BFC8685FEA006052D40869DB
:101B2000400644BFC8685FEA406053D40869800635
:101B300046BFC8685FEA806010BD6FF02002204693
:101B40000A61BDE81040FFF7B1BD00BF6FF00200B1
:101B50000861012020778869800743D02046FFF77D
:101B6000AFFF45E06FF0040008610220207788692C
:101B700010F4407F40D02046FFF7A2FF42E000BFB4
:101B80006FF00800086104202077C86980073DD005
:101B90002046FFF795FF3FE06FF010000861082036
:101BA0002077C86910F4407F3AD02046FFF788FFBD
:101BB0003CE000BF6FF001000861204600F03EF8F5
:101BC0002168A5E76FF0800008612046FFF76CFDF3
:101BD0002168A4E76FF040000861204600F0C4F8D7
:101BE0002168A3E7204600F025F8204600F024F8FD
:101BF0002168002020776FE7204600F01BF8204680
:101C000000F01AF82168002020776CE7204600F0E9
:101C100011F8204600F010F821680020207769E7CD
:101C2000204600F007F8204600F006F82168002062
:101C3000207766E7704700007047000070B540F2FB
:101C40004811C2F2000100680968884232D040F2AF
:101C50000011C2F200010968884218BF70BD40F24D
:101C60007005C2F20005287E00F07AFF696901F074
:101C7000BFF8E862E869E96A00F0EEFF2863286AC5
:101C8000E96A6C6B00F0E8FF214600F0BFFD686375
:101C9000686B4FF086414FF0864400F02EFE18BB73
:101CA000686B0021002400F028FE002808BF6C6348
:101CB0001BE000BF40F20C04C2F200042078D8B34D
:101CC0002078B8B340F60040C4F201004FF4005150
:101CD00000220025FEF756FC40F27000C2F2000020
:101CE0002570058070BD00BF6C636C6AE86AA96AE4
:101CF000EE6A01F07DF80021C4F2483100F01EFECA
:101D00000146204600F0A8FFA863286B696B00F02D
:101D10007DFDA96B00F07AFD00F006FFA880AE62A1
:101D2000A888812832BFA8888020A880A888C0F110
:101D30008000688070BD00BF40F27000C2F20000F9
:101D4000018801310180018840888142F2D340F648
:101D50000040C4F201004FF4005101220125FEF7BA
:101D600011FC257070BD000070470000FEE7000008
:101D700040F2AC00C2F20000FEF714BC40F2AC002E
:101D8000C2F20000FEF7B8BC10B581B0002100918E
:101D9000406A40F20801C2F2000190F83DC00968B3
:101DA0004BF28952C908C1F2F842A1FB0212110A92
:101DB000232251430091009911B3009901390091F8
:101DC0000168096889051FD50099C9B100990139D1
:101DD000009101680968890516D5009981B10099BB
:101DE000013900910168096889050DD5009939B15B
:101DF000009901390091016809688905DBD403E085
:101E0000016C41F020010164446B4FF0000E002C86
:101E10001CBF0021A162816B00291CBF00228A62C5
:101E20000268002C136823F480631360A0F82AE092
:101E300018BFC4F834E000291CBF00234B631168AD
:101E400021F00101116090F83D1060290CD1202192
:101E500080F83D10002180F83E10016401B0BDE81B
:101E60001040FEF79BBB00BF0CF02801282911D1C0
:101E7000116841F001011160116841F48061116045
:101E800000210163282180F83D1001B0BDE8104019
:101E9000FEF760BF202180F83D10002180F83E1041
:101EA00001B0BDE81040FEF755BF000010B5044674
:101EB00090F83D1090F83E00B0F1100218BF0122DA
:101EC000403818BF0120024208BF222934D001F057
:101ED000280028283AD100202063282084F83D00DB
:101EE00020684168090542D5416821F400614160DC
:101EF000606B90F82110012958D1A06B41F68951EF
:101F0000C0F600014163FEF7AFF9002861D02068F8
:101F10004169490606D50069616A0870616A2068EE
:101F200001316162016821F001010160202084F823
:101F30003D00A06B4BE000BF2068026822F4006205
:101F400002604268120505D50CE000BF20684268B7
:101F5000120507D4602905D0202184F83D10002106
:101F600084F83E100021216341680905BCD494F82F
:101F70003D10602950D1202184F83D1000212164BA
:101F80004169490606D50069616A0870616A20687E
:101F900001316162016821F0010101602046FEF714
:101FA000FDFA206C000717D11BE000BF41F68951F4
:101FB000C0F600014163FEF757F950B12168606B2C
:101FC0000A6822F001020A60202184F83D10416B6A
:101FD0008847206C000704D02068416821F4E06144
:101FE000416094F83D00216C490758BF10BD282876
:101FF00010D10020CFF6FF70E06200212020216385
:1020000084F83D00204684F83E10BDE81040FEF7FD
:102010005FBF00BF10BD00BF4169490605D500691B
:10202000616A0870606A013060622046FEF792FEC5
:10203000206C0007D0D1D4E7C16A428D042A07D1B1
:102040000168426A4B6823F480634B60096911E0C0
:10205000428D032A16D102680229536823F4806353
:10206000536005D0042903D0116821F48061116008
:102070001169426A1170416A01314162418D013931
:1020800041857047428D022A12D101390F2919D892
:10209000DFE801F008121812181818181818181884
:1020A0001818180801680A6822F480620EE000BF60
:1020B0000168426ACAE700BF01680A6842F48062A8
:1020C00004E000BF01680A6842F400720A6009690E
:1020D000426A1170416A02684B1C4362438D013BA6
:1020E000438512694A70416A026801314162418D3B
:1020F00001394185516821F440715160202180F8F7
:102100003D1090F83E200021402A80F83E1003D177
:102110000163FEF7E3BE00BF12210163FEF7DABEE2
:1021200081B090F83D10222977D1418D042913D335
:102130000168426A09691170416A01314162418D49
:1021400001394185418D032967D10068416821F437
:102150008061416001B07047C26A022A58D00129EB
:1021600056D80021009140F20801C2F2000109682E
:102170004BF28952C908C1F2F842A1FB0212110ABE
:1021800001EB81010091009901390091009900292A
:1021900046D001680A6892051AD500990139009164
:1021A0000099E9B301680A68920511D500990139CF
:1021B00000910099A1B301680A68920508D50099B9
:1021C00001390091009959B301680A689205DAD47F
:1021D0000A6822F480620A604A6822F4E0624A6077
:1021E0000969426A1170416A01314162418D0139C8
:1021F0004185202180F83D1090F83E200021402AA2
:1022000080F83E1028D1016301B0FEF767BE00BF21
:102210000068416821F48061416001B0704700BFEF
:10222000016C41F0200101640168426A4B6823F4AB
:10223000E0634B6009691170416A01314162418D6F
:1022400001394185202180F83D10002180F83E10A1
:1022500001B0FEF77FBD00BF1221016301B0FEF7A0
:1022600039BE0000C16A90F83D20212A18BF70478E
:10227000428D4AB1416A026811F8013B1361416223
:10228000418D01394185704711F5803F18BF0829FC
:1022900018D101684A6822F4E0624A600A6842F490
:1022A00000720A6000212022016380F83D2090F82E
:1022B0003E2080F83E10402A08BFFEF711BEFEF710
:1022C0000BBE00BF2029E4D001684A6822F4E06216
:1022D0004A6011210163002180F83E10202180F81E
:1022E0003D10FEF7F9BD000090F83D1090F83EC09B
:1022F000C26A038D002B08BF212919D0212905D0DE
:10230000BCF1400F08BF222900D07047418D69B34E
:1023100090F83E10402908BF00F040B8416A0268BA
:1023200011F8013B13614162418D013941857047CC
:1023300012F5803F18BF082A1ED101684A6822F4AE
:10234000E0624A600A6842F400720A6000212022BA
:10235000016380F83D2090F83E2080F83E10402A2E
:1023600008BFFEF7BDBDFEF7B7BD00BF00684168FE
:1023700021F4806141607047202ADED001684A68FC
:1023800022F4E0624A6011210163002180F83E10CE
:10239000202180F83D10FEF79FBD000090F83D1011
:1023A000026D5AB1026D012A14D10168826CD2B259
:1023B0000A61016D01310165704700BFC26C816C1B
:1023C000012A15D10268C9B21161016D023101659E
:1023D000704700BF026D022A12D1222918D101686C
:1023E0000A6842F480720A60016D0131016570472C
:1023F0000268C1F307211161016D01310165704768
:1024000000684169090644BF00210161704700BFAF
:10241000428D5AB1212909D1416A026811F8013B64
:1024200013614162418D013941857047428D002A17
:1024300008BF2129EAD101684A6822F4E0624A60B3
:102440000A6842F400720A6000212022016380F8C9
:102450003D2080F83E10FEF743BD00002DE9F04F0F
:1024600085B041F21800C4F20200016840F6000590
:1024700041F0100101600168C4F2010501F0100192
:1024800001910199016805F5006741F020010160A3
:102490000168002201F020010191019901684FF4C7
:1024A000005641F00401016001684FF0000901F09D
:1024B000040101910199016841F00801016000687F
:1024C0004FF4005100F00800019001983846FEF7E3
:1024D00059F82846042100224FF00408FEF752F86C
:1024E00005F5806420464FF400510022FEF74AF8BB
:1024F000019601AE4FF0010A4FF0020B384631460B
:10250000CDE902A9CDF810B0FDF72EFF28463146DF
:10251000CDE9018ACDE9039BFDF726FF20200027A6
:102520000190C1F2110728463146CDE90279FDF745
:102530001BFF4FF48050019007F58010CDE9020990
:1025400020463146FDF710FF4FF40050CDE9010A57
:1025500020463146CDE9039BFDF706FF17200021F9
:102560000022FEF781FD1720FEF76AFD28200021DA
:102570000022FEF779FD2820FEF762FD05B0BDE8D8
:10258000F08F000080B540F2AC0045F20041C2F28D
:102590000000C4F2000148F2A06200234FF4804C16
:1025A000C0F2010280E80E00C0E9033CC0E9053337
:1025B000C0E90733FEF7D0FB002808BF80BDBDE8A7
:1025C0008040FDF74BBE000080B586B040F20010A1
:1025D0000021C2F200004FF0804240F2CF2344F6C7
:1025E0001F6C0591CDE90311CDE90011C0E900236D
:1025F000C0E9021C01618161FFF798F8002818BF4B
:10260000FDF72CFE4FF48050029040F20010C2F211
:10261000000002A9FFF786F9002818BFFDF71EFE8B
:1026200040F20010C2F200006946FFF741F80028AE
:1026300018BFFDF713FE06B080BD000080B586B060
:1026400040F248100021C2F2000040F200424FF078
:10265000310C0591CDE90311CDE90011C4F200025E
:102660004723C0E9021C01618021C0E90023816188
:10267000FFF75CF8002818BFFDF7F0FD4FF480501D
:10268000029040F24810C2F2000002A9FFF74AF996
:10269000002818BFFDF7E2FD40F24810C2F200002A
:1026A0006946FFF705F8002818BFFDF7D7FD06B00B
:1026B00080BD000080B586B040F2901040F6000268
:1026C0000021C2F20000C4F2000247234FF6FE7C54
:1026D0000591CDE90311CDE90011C0E90023C0E95E
:1026E000021C01618161FFF721F8002818BFFDF786
:1026F000B5FD4FF48050029040F29010C2F20000FD
:1027000002A9FFF70FF9002818BFFDF7A7FD40F257
:102710009010C2F200006946FEF7CAFF002818BFF9
:10272000FDF79CFD06B080BDFEE70000FEE700005F
:102730007047000070470000FEF71ABC70470000A9
:1027400040F20010C2F20000FFF7BCB940F248109E
:10275000C2F20000FFF7B6B940F29010C2F20000DA
:10276000FFF7B0B9FEE7000090B0FEF70FFC0024C1
:102770000120CDE90B44CDE9094406900A904FF4BD
:10278000E0104FF4803102250F9006A8CDE9071420
:10279000CDE90D51FEF798FD20B1EFF3108072B630
:1027A000FEE700BF0F20CDE901054FF48060CDE9C1
:1027B000040401A802210394FEF792FC20B1EFF378
:1027C000108072B6FEE700BFFFF748FEFFF736FF46
:1027D000FFF770FFFFF7D6FEFFF7F6FE40F2481056
:1027E000C2F20000FFF766F840F270000021C2F26A
:1027F0000000C4F22011C1614FF07C510162002140
:1028000041621E21017600BFFEE7000090EA010F41
:1028100048BF81F0004100F1F282421A3CBF801AA9
:1028200089184FEAD052A2EBD1534FF07F4C1CEAEB
:10283000410F18BF9CEA026F00F03B804FF0004C44
:102840004CEA00204CEA012121FA03FC10EB0C0CAD
:102850001ED202F1FF325FEA1C2040EBC25038BFAB
:1028600070471CF07F0F4FEA400C18BFBCF17F4F40
:1028700038BF7047C3F12003994008BF20F0010022
:10288000BCF17F4F38BF7047A0F1C04000F0ABBA39
:102890004FEA3C00000A40EBC25028BF1CF0FF0F7B
:1028A0004FEA400CE6D018BFBCF17F4F38BF7047ED
:1028B000EAE79CEA026F05D010EA5C0F08BF00F05F
:1028C0000040704710B500F048FA00BF64FBBE3E00
:1028D00010B500F0F5F80CBF0120002010BD10B5B8
:1028E00000F0EEF814BF0120002010BD10B500F07C
:1028F0004BF98CBF0120002010BD10B500F044F949
:102900002CBF0120002010BD10B500F071F994BF5C
:102910000120002010BD10B500F06AF934BF01207D
:10292000002010BD401058BFC0F14040491058BFB2
:10293000C1F140418142EFF3008070474FF47F0CBA
:102940001CEAD0121EBF1CEAD11392EA0C0F93EAC4
:102950000C0F00F0858090EA010F48BF42F48072AE
:1029600040F4000C41F400002CF07F4120F07F4047
:1029700000B5A2EB030281420FF2081CACEB504EF3
:102980009EF800E0C0F100004FEA4E0E00FB0EFC86
:1029900038BF49004FEA2C1C0CFB0EF34FEACE1E49
:1029A0000EEB635E4FEA112C0EFB0CFC4FEAC121CB
:1029B0004FEA1C5300FB031102F5FA024FEA112CF7
:1029C0000EFB0CFC4FEA01314FEADC4C00FB0C1112
:1029D00042EB2242C14228BF09184CEB03335DF899
:1029E00004EB10EB410143EBC250B2F57C0F38BF52
:1029F000704729D512F0F00F1CBF00F1C04000F065
:102A000000407047008182838485868788898B8C0B
:102A10008D8E8F919293959697999A9C9D9FA0A247
:102A2000A3A5A7A8AAACAEB0B2B3B5B7B9BCBEC097
:102A3000C2C5C7C9CCCED1D4D7D9DCDFE2E6E9EC38
:102A4000F0F3F7FAFE0000004FEA400C0CF1807C36
:102A5000BCF17E4F28BF7047B0F1C04000F0C3B951
:102A60000CEAD11390EA010F48BF42F4807262452C
:102A700038BF634507D213F47F0F16D080EA0100F8
:102A800000F00040704710B500F067F9097EFC3E89
:102A900000F005B880EA010000F00040704780EACD
:102AA000010000F0004000F09EB912F47F0F04BF57
:102AB0000248704780EA010000F095B90000C07F2D
:102AC00050EA010C00F113801CF5000F58BFBCF553
:102AD000000F01D48842704707D710F5000F58BF88
:102AE00011F5000F15D488427047894270471CF5D4
:102AF000000F04D5BCF5000FF7D5814270474FF0A9
:102B0000807C1CEB400F38BF1CEB410F01D281428F
:102B1000704710B500F021F9922449004FF00050A1
:102B20004FF08051FFF7FEBE41000B0ED3F19E0225
:102B300008D950F400034FEA032323FA02F048BFF8
:102B40004042704710B500F008F900BF4992248058
:102B5000002070476FF0004282EA200070470000BA
:102B6000B0FA80F310FA03F2C3F19D030AD0D9053D
:102B700001EB1220530638BF704700F1010008BF77
:102B800020F001007047000050EA010C00F11380B2
:102B90001CF5000F58BFBCF5000F01D488427047E8
:102BA00007D710F5000F58BF11F5000F15D4884254
:102BB0007047894270471CF5000F04D5BCF5000F23
:102BC000F7D5814270474FF0807C1CEB400F38BF37
:102BD0001CEB410F01D28142704710B500F0BDF8E7
:102BE000922449004FF080504FF00051FFF79ABEF9
:102BF00050EA010C00F113801CF5000F58BFBCF522
:102C0000000F01D48842704707D710F5000F58BF56
:102C100011F5000F15D488427047894270471CF5A2
:102C2000000F04D5BCF5000FF7D5814270474FF077
:102C3000807C1CEB400F38BF1CEB410F01D281425E
:102C4000704710B500F089F8922449004FF0005009
:102C50004FF08051FFF766BE4FF47F0C1CEAD01294
:102C60001EBF1CEAD11392EA0C0F93EA0C0F00F07E
:102C7000478090EA010F48BF42F480724FF0004C49
:102C80004CEA00204CEA012102EB0302A0FB0113F5
:102C9000A2F50002002918BF43F001035B0028BF22
:102CA0004FEA330342EB22425FEA132C4CEBC25053
:102CB0002EBFBCEB436FB2F57C0F70474FEA036C3D
:102CC000BCF1004F08BF20F00100B2F57C0F38BF07
:102CD00070470BD582F0FF0212F5803FC8BF7047E6
:102CE00000F1C040D8BF00F00040704700F5000C74
:102CF0005FEA4C0C48BF7047B0F1C04000F073B8B9
:102D00000CEAD11390EA010F48BF42F48072624589
:102D100038BF634504D280EA010000F000407047EC
:102D200010B500F01AF800BF8900013E00F007B8A6
:102D300000F009B85FEA410C5FEA1C6C08D080EA39
:102D4000010000F050B85FEA400C5FEA1C6CF6D15D
:102D50004FF00040A0F5800070470EF1020E2EF0FB
:102D6000030E5EF8044B244204D44FEA4102B2F150
:102D70007F4F11D84FEA4003B3F17F4F0CD80ED1EB
:102D80004FEAD07C0CEB4C0C0CF1020CB2F17F4FF3
:102D900008BF4CEBD17C04E04FF0080C01E04FEA97
:102DA000D17C0CEB4C0324FA03F404F00704B4F1D7
:102DB000040C06D20EEB840CBDE810404CF0010C64
:102DC0006047DFE80CF0070802024FF00040A0F572
:102DD000800010BD0846420018BFD2F1807288BF43
:102DE00000F0004010BDFF2141EAD050C0057047FF
:102DF00090EA010F48BF81F000413FF50EAD421A45
:102E000004D882F00042A0EB020011444FEAD052F5
:102E1000A2EBD1534FF07F4C1CEA410F18BF9CEA44
:102E2000026F4AD04FF0004C4CEA00204CEA0121DE
:102E300021FA03FCB0EB0C0C0FD412F0FE0F36D0CD
:102E40005FEA4C001DD5001240EBC25038BF7047FE
:102E50001CF03F0F18BF70470BE05FEA1C20A2F187
:102E6000010240EBC25038BF70471CF07F0F18BF03
:102E70007047C3F12003994014BF401E20F00100A9
:102E800070474FEA1223800808BF7047B0FA80FCF1
:102E9000A2EB0C02CCF1280C60FA0CF093EA122F92
:102EA00004BF00EBC25070474FEAC3707047130A6B
:102EB0005FEADC1008BF7047F6E79CEA026F04D0B7
:102EC00010EA5C0F08BF0020704710B5FFF745FF00
:102ED00040DFF63E81F00040704700000000000037
:102EE00000000102030406070809000000000102B7
:102EF0000304010202030405060708090A0B0C0D6E
:102F00000E0F1010282F00080000002010000000F5
:102F100028010008382F000810000020D00700000A
:102F20004401000800000000010000001000000043
:082F30000024F4000100000080
:04000005080000ED02
:00000001FF
