:020000040800F2
:10000000A00C0020A1010008713E0008A1320008E8
:100010006D3E0008E50B0008913E0008000000005E
:10002000000000000000000000000000793E000811
:100030001110000800000000753E00087D3E000819
:10004000BB010008BB010008BB010008BB010008A0
:10005000BB010008BB010008BB010008BB01000890
:10006000BB010008BB010008BB010008BB01000880
:10007000BB010008BB010008BB010008BB01000870
:10008000BB010008BB010008BB010008BB01000860
:10009000BB010008BB010008BB010008BB01000850
:1000A000BB010008BB010008BB010008BB01000840
:1000B000BB010008853E0008BB010008B132000802
:1000C000A5320008BB010008BB010008BB01000805
:1000D000BB010008BB010008BB010008BB01000810
:1000E000BB010008BB010008BB01000800F002F8DA
:1000F00000F047F80AA090E8000C82448344AAF17B
:100100000107DA4501D100F03CF8AFF2090EBAE878
:100110000F0013F0010F18BFFB1A43F0010318473B
:100120001098000030980000103A24BF78C878C1B9
:10013000FAD8520724BF30C830C144BF04680C60ED
:10014000704700000023002400250026103A28BF35
:1001500078C1FBD8520728BF30C148BF0B60704739
:10016000662909F08283002070471FB500F0C4FBA8
:1001700004000020002108F069FBE0601FBD10B5FD
:1001800010BD00F0B9FC1146FFF7EFFF07F08EFA43
:1001900000F0D7FC03B4FFF7F2FF03BC00F01AFD38
:1001A0000948804709480047FEE7FEE7FEE7FEE70B
:1001B000FEE7FEE7FEE7FEE7FEE7FEE70448054947
:1001C000054A064B70470000813E0008ED0000081C
:1001D000A0060020A00C0020A0080020A0080020FD
:1001E0000FB41CB5074B06AA7B44694600900598DE
:1001F00000F037FB0020694600F046FB1CBC5DF8B0
:1002000014FB00009D0600002DE9F0474FF0000AA6
:1002100089460446C0F820A02046E16888470028A7
:1002200076D0252806D0D4E901219047206A401CC9
:100230002062F1E7E168204600258847C4F81CA049
:1002400006460027C4F818A02A2E09D0304608F028
:10025000F5FA38B304EB8708303EC8F8186019E0A7
:1002600059F8041B204604EB87029161E168884736
:10027000012F064618D1E069002820DA25F0200574
:100280001DE0D8F8180000EB800006EB4000303885
:10029000C8F818002046E1688847064608F0CEFAFC
:1002A0000028EED1012F0AD02E2E08D12046E16879
:1002B00088477F1C0646022F45F02005C4DBA06955
:1002C000002803DA404245F00105A061E80701D0AB
:1002D00025F01005B6B1A6F14100192802D8203644
:1002E00045F400654A463146204625604D46FFF7F5
:1002F00037FF58B1012806D0ED1D25F0070000F1A9
:10030000080989E704E005F1040985E730468AE732
:10031000206ABDE8F08740EA0103024630B59B073A
:1003200010D14FF0013400E008C208C91D1B9D43E5
:1003300015EAC41FF8D013F0FF0102F8011B0DD01D
:100340001B0AF8E711F8013B002B02F8013B05D02E
:1003500011F8013B002B02F8013BF3D130BD032A19
:1003600040F2308010F0030C00F0158011F8013BD2
:10037000BCF1020F624498BF11F801CB00F8013BB9
:1003800038BF11F8013BA2F1040298BF00F801CB7D
:1003900038BF00F8013B11F0030300F07A82083AFD
:1003A000C0F0088051F8043B083A51F804CBA0E8AB
:1003B0000810F5E7121D5CBF51F8043B40F8043B00
:1003C000AFF30080D20724BF11F8013B11F801CB35
:1003D00048BF11F8012B24BF00F8013B00F801CB06
:1003E00048BF00F8012B70474FF0000200B51346DC
:1003F00094469646203922BFA0E80C50A0E80C5045
:10040000B1F12001BFF4F7AF090728BFA0E80C50F5
:1004100048BF0CC05DF804EB890028BF40F8042BEE
:1004200008BF704748BF20F8022B11F0804F18BF5B
:1004300000F8012B70477047704770472DE9FF4F58
:100440000C461E464FF0FF378BB0D2E90001DDF8B5
:1004500060800A908A46C1F30A5505B93D460021DD
:1004600008464FF00000BAF1000F00F4400005DA32
:1004700000EB80004FF4400101EA50004FEA905930
:10048000B9F1010F00DDB9460A9850EA4A000ED0D2
:1004900044F61050A5F2FF3545432F14B8F1000F74
:1004A0001ED07542291E1EDDC9F100021CE0B8F104
:1004B000010F4FF0000001D0302103E0F24305E0CE
:1004C0002154401CB042FBDB304600220021215465
:1004D0000B99C1F80880C1E900200FB0BDE8F08F8A
:1004E000BD1B6D1CDEE74A4600DA694206A800F033
:1004F0008DFA06AB93E8070003AB83E8070050468C
:100500000A9907F0BEFD8DE80700A0F500501F38DE
:1005100000900398002D0ADD42F21F014A4608446C
:10052000002303A90390684608F028F809E0A0F525
:1005300000504A461F38002303A90390684608F07C
:1005400032F88DE807000004000C03D04FF0FF30B4
:10055000410800E01046B8F1000F03D000220092DD
:1005600015461EE0751E05D400F0CAF930326255FA
:100570006D1EF9D5B3460122084302D000227F1C2C
:1005800004E02078302801D100227F1E002A09973C
:1005900084D01DE0112D07DA00F0B2F93032625537
:1005A0006D1C50EA0102F5D1084302D00098C8B191
:1005B0000EE00021681E05E0235C625C6354225457
:1005C000401E491C8142F7DBAB46A81B401E099028
:1005D000002004F80B000B98099AC0F80880C0E9C5
:1005E000002B7AE711264FF0000857E72DE9F04F6E
:1005F00088460446D21D22F0070191B0D1E90001DE
:10060000CDE90A0108F006F902460B98C00F01D0A7
:100610002D2007E02068810701D52B2002E0202152
:1006200001EAC000032A099001D0072A05DB03462E
:100630004146204600F0AAF90BE12078800601D55A
:10064000E06900E00620B8F1650F814606D0B8F1F8
:10065000660F18D0B8F1670F70D131E00020B9F102
:10066000110F009001DB112301E009F101030AAA37
:1006700001A90CA8FFF7E2FEDDE90C70002609F1E4
:100680000105834647E001204B4600904FF00047AC
:100690000AAA01A90CA8FFF7D1FEDDE90DB00C995B
:1006A0005D46002610B909F101000D18B9EB0500EF
:1006B00003D4C0F1FF3609F10105A5EB09002BE0D9
:1006C000B9F1010F01DA4FF001090020B9F1110F62
:1006D0000090484601DD112300E003460AAA01A963
:1006E0000CA8FFF7ABFEDDE90C704D4600268346F3
:1006F000207800070AD4AB4500DA5D4601A8012D39
:1007000004DD411911F8011C302907D04F4502DAE8
:1007100017F1040F04DA012082460FE06D1EEEE7A8
:10072000002F02DCED1B3E4403E0781CA84200DDF4
:100730007D1CB81B00F1010A4FF00047207800072C
:1007400003D4AA4501DB4FF0FF3A0021B7F1004F77
:100750000DF143088DF8431024D002202B23002FE5
:1007600001DA7F422D230A21021EA0F1010000DCE4
:100770005FB197FBF1FC97FBF1F201FB1C7C174684
:100780000CF1300C08F801CDEEE7A8F10100037080
:100790002188090501D5452100E06521A0F1010866
:1007A00000F8011C09980FA9A1EB0807FF1D00B173
:1007B0000120411901EBEA70A1693844081A401E72
:1007C000A0612078C00602D42046AFF300800998CB
:1007D00028B1D4E901219047206A401C206220788A
:1007E000C00622D52046AFF300801EE0002E04DBB9
:1007F000B34502DD01A8805D00E03020D4E901218D
:100800009047206A401C2062761CAAF101005FEA32
:10081000000A0AD100F070F8C0680168405CD4E9B1
:1008200001219047206A401C2062281EA5F1010585
:10083000DCDC07E0D4E9012118F8010B9047206ABD
:10084000401C2062381EA7F10107F3DC2046AFF3FD
:100850000080032011B041E601694A1C026108785A
:10086000704700B58FB0CDE90131002105910549F0
:100870007944CDE9031011466846FFF7C5FC0FB077
:1008800000BD0000E5FFFFFF0A6802F8010B0A60E7
:10089000704710B5203AC0F00B80B1E81850A0E8BE
:1008A0001850B1E81850A0E81850203ABFF4F5AF3E
:1008B0005FEA027C24BFB1E81850A0E8185044BF9A
:1008C00018C918C0BDE810405FEA827C24BF51F807
:1008D000043B40F8043B08BF7047D20728BF31F8FB
:1008E000023B48BF11F8012B28BF20F8023B48BF4C
:1008F00000F8012B7047000000487047E802002014
:1009000030B5B0F10A0271F100034FEA900E4EEAE1
:10091000817EB0EB0E0061EB91014FEA101E4EEAB2
:10092000017E10EB0E0041EB11114FEA102E4EEA42
:10093000016E10EB0E0041EB11214FEA104E4EEA12
:10094000014E10EB0E0041EB1141401841F1000146
:100950004FEAD00040EA41704FEAD1014FEA8104EA
:1009600044EA907410EB800544EB01046D1944EBEC
:100970000404521BA3414FF0000348BF0A3200D5C4
:1009800030BD401C41F1000130BD00002DE9F041B7
:100990001F46044603260168072A01F4006004DBB1
:1009A00008B116A505E016A503E008B115A500E0FD
:1009B00015A521F010002060A069C01EA0610FB134
:1009C000401EA0612046AFF300804FB1D4E9012161
:1009D00038469047206A401C2062C01C206206E016
:1009E000206AFAE7D4E9012115F8010B9047761E39
:1009F000F8D22046AFF30080BDE8F0814E414E00B2
:100A00006E616E00494E4600696E66002DE9F04742
:100A1000814616468AB0354878440DC88DE80D00E9
:100A200032487844801C03AC0DC884E80D0041F6C0
:100A30009B300844372190FBF1F290FBF1F5A5F1D2
:100A4000800501FB12041B3C02D56442012000E03A
:100A50000020DFF898A080460027FA44AAF1BE0AD9
:100A60000EE0E0070AD03246684607EB4701012353
:100A70000AEB810107F097FD8DE8070064107F1CE9
:100A8000002CEED1194F7F44AE3F19E0E80715D096
:100A900007EB04100DF1180A90E80E008AE80E002A
:100AA000C068F04201D1981908903246012306A986
:100AB00003A807F078FD03AB83E807006D10641C02
:100AC000002DE3D14FF0010332466946B8F1000F23
:100AD00003A802D007F052FD01E007F064FDC9E968
:100AE0000001C9F808200AB0BDE8F087D08E0000E8
:100AF00000487047C80200207546FFF7F9FFAE4670
:100B000005006946534620F00700854618B020B519
:100B1000FFF754FBBDE820404FF000064FF0000700
:100B20004FF000084FF0000BAC46ACE8C009ACE851
:100B3000C009ACE8C009ACE8C00921F007018D4646
:100B4000704710B50446AFF300802046BDE8104062
:100B5000FFF720BB4FF0013C50F8042B51F8043B49
:100B60009A4221D1A2EB0C03934313EACC1317D181
:100B700050F8042B51F8043B9A4215D1A2EB0C0318
:100B8000934313EACC130BD150F8042B51F8043BD8
:100B90009A4209D1A2EB0C03934313EACC13DBD0A6
:100BA0004FF00000704700BFD01A01BAB1FA81F1CE
:100BB00001F0180122FA01F0CB40DBB2C0B2C01A3A
:100BC000C1F120012CFA01F3D11A914311EAC311AA
:100BD000E6D1704701491820ABBEFEE726000200AF
:100BE00070470000FEE7000070B582B00446C07A8E
:100BF0001826002818BF01204FEAC00505F104009F
:100C000008BF10268DF80400012000F061FA301DA5
:100C10008DF8060001208DF8055000F059FA206883
:100C200021798DF807604FF47A7601AA04230096A3
:100C300001F022FA052000F04BFA02B070BD00006E
:100C40002DE9F04182B0044608982160A07140F679
:100C50000640C2F61400C4F807000820E0723220F3
:100C60002271637100F034FAE07A3825002808BF59
:100C700030252E1D012038278DF8046000F028FA59
:100C800001208DF805508DF8066000F021FA2068EB
:100C900021794FF47A7801AA04238DF80750CDF812
:100CA000008001F0E9F9E07A3826002808BF3026F4
:100CB000351D01208DF8045000F00AFA01208DF84E
:100CC00005608DF8065000F003FA2068217901AA2A
:100CD00004238DF80760CDF8008001F0CDF90520E0
:100CE00000F0F6F9E07A2825002808BF302707F140
:100CF000040008BF20258DF804000120282600F0FC
:100D0000E7F9281D8DF8060001208DF8057000F028
:100D1000DFF92068217901AA04238DF80750CDF866
:100D2000008001F0A9F9052000F0D2F9E07A282529
:100D3000002818BF012008BF2025C700281D8DF8F6
:100D40000400012000F0C4F9381D8DF806000120D0
:100D50008DF8055000F0BCF92068217901AA042320
:100D60008DF80770CDF8008001F086F9052000F0BD
:100D7000AFF9E079E27A010120F00F0501F10807EF
:100D8000002A14BF08350701281D8DF80400012032
:100D900000F09EF9381D8DF8060001208DF80550F1
:100DA00000F096F92068217901AA04238DF80770D4
:100DB000CDF8008001F060F9207AE27A010120F09C
:100DC0000F0501F10807002A14BF08350701281D87
:100DD0008DF80400012000F07BF9381D8DF8060025
:100DE00001208DF8055000F073F92068217901AADF
:100DF00004238DF80770CDF8008001F03DF9607A8A
:100E0000E27A010120F00F0501F10807002A14BF62
:100E100008350701281D8DF80400012000F058F95D
:100E2000381D8DF8060001208DF8055000F050F9AE
:100E30002068217901AA04238DF80770CDF800807D
:100E400001F01AF9A07AE27A010120F00F0501F110
:100E50000807002A14BF08350701281D8DF8040073
:100E6000012000F035F9381D8DF8060001208DF8BD
:100E7000055000F02DF92068217901AA04238DF88E
:100E80000770CDF8008001F0F7F8E07A1827002805
:100E900018BF01204FEAC00505F1040008BF102764
:100EA0008DF80400012000F013F9381D8DF80600BC
:100EB00001208DF8055000F00BF92068217901AA76
:100EC00004238DF80770CDF8008001F0D5F8E07AA2
:100ED00000280CBF20260120C500281D8DF8040025
:100EE000012000F0F5F8301D8DF8060001208DF886
:100EF000055000F0EDF82068217901AA04238DF84F
:100F00000760CDF8008001F0B7F802B0BDE8F081CD
:100F100070B582B004464079A379884298BF411EDB
:100F2000934298BF5A1ED0B2032805D8DFE800F0DC
:100F300009020608403104E0002102E0143100E01B
:100F400054310A01E37A01F0700002F108056FF0F4
:100F50007702002B08BF6FF07F0202EB000606F15C
:100F6000040008BF0D018DF80400012000F0B0F866
:100F7000281D8DF8060001208DF8056000F0A8F806
:100F8000206821794FF47A7601AA04238DF807505E
:100F9000009601F071F802B070BD00002DE9F04735
:100FA00082B00A788AB382464E1E4FF47A780DF1E9
:100FB000040900BF11019AF80B3022F00F0001F173
:100FC0000807002B14BF08301701451C05308DF8A9
:100FD000040001207C1C00F07BF8781D8DF80600D1
:100FE00001208DF8055000F073F8DAF800009AF847
:100FF00004104A4604238DF80740CDF8008001F024
:101000003BF8B2780136002AD4D102B0BDE8F087AF
:101010007047000080B590F82110022924D10268A1
:10102000116821F00E0111602F211368C4F2020132
:101030008A4240F20401C4F2020123F0010313606A
:1010400016DD3023C4F202039A421DD04423C4F2B9
:1010500002039A421CD05823C4F202039A421DD1C3
:101060004FF4803322E000BF04218163012080BD62
:101070000823C4F202039A420ED01C23C4F20203D6
:101080009A420BD1102311E04FF480730EE000BFA1
:101090004FF480530AE000BF012307E001F1680C20
:1010A0004FF08073624508BF4FF480130B6001213D
:1010B00080F82110426B002180F820100AB190477F
:1010C0000021084680BD000090F821007047000014
:1010D000B0B5044600F02CF9054640F20000C2F21B
:1010E00000000078611C18BF044400BF00F020F924
:1010F000401BA042FAD3B0BD2DE9F04F82B00E687C
:10110000002E00F0038141F20042C4F201020423E8
:1011100040F2004E904208BF03234FF6FF7CC4F21A
:10112000010E009300240123C1F2100C4FF0000ABD
:101130004FF0000949E000BF012704F00C030F2223
:101140009A402BEA020207FA03F34FEA9A051A4380
:1011500046F82520D1F804B040F20C455FEACB22D6
:10116000DEF8082054BF22EA080242EA0802C4F26C
:101170000105CEF808202A685FEA8B2354BF22EAD3
:10118000080242EA08022A605FEA8B33DEF8042094
:1011900054BF22EA080242EA08025FEACB33CEF8E3
:1011A0000420DEF800204FF0010354BF22EA0802B9
:1011B00042EA0802CEF800200E680AF1010A36FA67
:1011C0000AF204F1040400F0A18003FA0AF816EA16
:1011D000080FF1D04E68664512DC122E56D8DFE8B3
:1011E00006F0350B454955555555555555555555E9
:1011F0005555554D510000BFD1F80C9046E000BF49
:101200004FF6FF72C1F2210296420FDC0022C1F2BA
:10121000110296421AD00022C1F21202964215D053
:101220000022C1F22102964210D02FE00022C1F22A
:10123000220296420AD00022C1F23102964205D023
:101240000022C1F23202964220D100BF8A684AB120
:10125000012A14BFC0F81480C0F810804FF00809AC
:1012600014E000BF4FF0040910E000BFCA6802F1AB
:1012700008090BE04FF0000908E000BFCA6802F15E
:10128000040903E0CA6802F10C0900BF22460646C1
:10129000BAF1080F24BF203A043637680F2595406D
:1012A00027EA050509FA02F22A433260CA79D20612
:1012B0007FF582AF41F21803C4F202031A68AEF55B
:1012C0007E7642F001021A601A6802F00102019271
:1012D000019A2AF0030256F802B040F60002C4F266
:1012E0000102904210D040F60042C4F20102904246
:1012F0003FF422AF41F20002C4F20102009F90428B
:1013000008BF022719E700BF002716E702B0BDE8B3
:10131000F08F0000C26802EA0103914341EA0341F1
:1013200001617047002A08BF09040161704700008D
:1013300040F22850C2F20000006870477047000079
:1013400070470000F0B581B0044600680025476989
:10135000426894F83E1002F48076FA0508D53EB152
:101360006FF4807242610268012542F4004202601B
:10137000BA0505D5002E1EBF02356FF4007242611A
:101380007A0516D5AEB1628D94F83D30D4F830C0F0
:10139000202908BF002A23D06FF48062402905F17C
:1013A0000405426101D0102903D1016841F40071A4
:1013B0000160380506D52EB1206808356FF400614C
:1013C000416100E055B1206C40EA050120462164EE
:1013D00001B0BDE8F04002F003B800BF01B0F0BDBD
:1013E00003F0F701212909D0282B08BFBCF1210FF8
:1013F00004D06FF4806141610435DAE794F83D1060
:10140000E26AB2F1080318BF0123203A18BF012293
:10141000134208BF282921D0212939D10021CFF634
:10142000FF71E16221212163202184F83D10002118
:1014300084F83E10426822F4E06242606FF48062F9
:101440004261026822F4806202604269120648BF6B
:101450000161204600F070FFABE700BF0021CFF62E
:10146000FF71E162416821F4E06141606FF48061E5
:101470004161016821F48061016000202021206326
:1014800084F83D1084F83E00204600F0F1FB90E720
:101490006FF4806141618CE7F0B581B00768044664
:1014A0007868E26A94F83E3094F83DE0402B01D031
:1014B000102B27D1BE697D69E90751D1B2F12A4FBE
:1014C00000F0BE82B2F52A0F00F0BA8200F400727A
:1014D0004FF0010C29078CEA522C45D5002A43D045
:1014E000606B616CC9B2396118B1806A002840F044
:1014F0002481A06B002800F0A382806A002840F0BD
:101500001C819DE2216C00F4007300290CBFBE69B0
:1015100000267D69A90753D5002B51D0206C0028E7
:1015200018BFBE6994F83D0000F02800282840F05C
:1015300093807868002320F480607860012020EA9E
:10154000960130064FF0180058BF0C20225A204652
:1015500084F83C3001B0BDE8F040FFF7F1BE00BFB9
:10156000810557D44FF0010CA90759D5BCF1000FE4
:1015700056D194F83E30E06A226B94F83D1022294F
:1015800040F0E280216D002908BF402B00F0DC8094
:10159000216D002940F032812169B1F5404F40F0C2
:1015A0002D810020009078690090B8690090009823
:1015B000386840F480703860206D013093E200BFDD
:1015C000E90655D5002B53D094F83D50786820F4A7
:1015D000E06078600020009078690090386840F002
:1015E000010038600098386820F4806038607868BE
:1015F000000540F1408105F0F7002646222840F022
:10160000198156F8380F0168496826F80E1C36F81B
:101610000E1C17E1E06AB0F52A0F5FD1012062E0ED
:101620007968720701F4006100F19880002940F0A8
:101630000782690605F0040140F1AE8110F4806074
:1016400000F0AA81002940F0A781204601B0BDE842
:10165000F04001F0FFBF00BF0020009079690091C9
:10166000B9690091009984F83C0001B0F0BD00BF59
:101670000EF0F70100F48062212905F0040040F02B
:101680008380290640F14881002A00F04581002826
:1016900040F0428194F83D00618D002900F0D08136
:1016A000616A11F8012B3A616162618D01396185CE
:1016B000618D002908BF292840F0C281786828215F
:1016C00020F48060786021202063204684F83D105B
:1016D00001B0BDE8F04000F02FBE00BFE06AB0F1FD
:1016E0002A4F01D10820E06294F83E0040280BD137
:1016F000206D616C002801F0FE0018BF40F0010071
:10170000386101B0F0BD00BF2069B0F5804F65D1F0
:1017100094F83D00616C212801F0FE0118BF0131F1
:101720003961606B08B1806A38B9A06B002800F09D
:101730008781806A002800F08381786840F4006027
:10174000786001B0F0BD00BF002000907869009083
:10175000B8690090009801B0F0BD00BF002940F0CA
:101760006F81290605F0040140F1228110F48060A8
:1017700000F01E81002940F01B81204601B0BDE829
:10178000F04002F04BB800BF690640F1D980002A52
:1017900000F0D680002840F0D38094F83D00618DA1
:1017A000002900F04D813969626A1170616A013166
:1017B0006162618D01396185618D002908BF2A2828
:1017C00040F03E812068416821F480614160222020
:1017D00028212063204684F83D10D8E0206D0028A1
:1017E00000F0C080206D012840F02A81606C062145
:1017F00001EAD010F130386101B0F0BD618D61B106
:10180000618D012940F0E480202818BF082840F0AD
:101810001981386820F48060386000200090786971
:101820000090B86900900098386840F40070386003
:1018300058E100BF56F8340F0168496826F80A1CC1
:1018400036F80A1C19B1216C41F004012164796851
:1018500021F400617960FFF737FC01280BD0306874
:1018600043F2BD21C0F600014163FFF7D3FB10B185
:101870003068416B8847608D60B1206841694907D5
:1018800030D4416949063AD4608D18B1206C40F0DB
:1018900004002064206C28B1204601B0BDE8F0406F
:1018A00001F09EBD2A2D07D100202063282084F856
:1018B0003D00204600F03EFD94F83D00282859D117
:1018C0000020CFF6FF70E06200212020216384F821
:1018D0003D00204684F83E1001B0BDE8F04000F025
:1018E000C7B900BF0069616A0870616A2068013188
:1018F0006162618D0139618541694906C4D500691C
:10190000616A0870606A01306062608D01386085CC
:10191000608D0028BAD1BDE7002818BF002B00F069
:101920008F80608D002800F08B80606A10F8011BAA
:1019300039616062608D0138608501B0F0BD00BF23
:10194000002818BF002B00F07B80608D002877D026
:101950003869616A0870606A01306062608D0138C0
:1019600060856DE0606C062101EAD010F0303861CE
:1019700001B0F0BD206B222818BF222D60D10021BC
:101980002020216384F83D00204684F83E1001B0F9
:10199000BDE8F04000F0CEBCB1FA81F0400950EA59
:1019A0000C004DD1204601B0BDE8F04001F0DEBD95
:1019B000B1FA81F0400950EA0C0041D1BEF1210F8B
:1019C00036D1204601B0BDE8F04001F0E5BE00BFD1
:1019D000618D022914D1102858D801211422814088
:1019E000C0F20102114251D0396841F4806139607E
:1019F0000021009179690091B9690091009954E042
:101A0000396841F4806139607968090563D5421EFF
:101A10001F2A5DD80121914048F28102C8F20002DC
:101A2000114255D0786840F48050786053E000BF90
:101A3000402B05D1204601B0BDE8F04001F048BF81
:101A400001B0F0BD10F5803F0CD1386820F4806003
:101A50003860786800057FF5E0AE386820F4806073
:101A6000386038E0122A02D101287FF4D2AE102863
:101A7000F3D8012101FA00F01421C0F2010108425B
:101A8000EBD0386840F48060386024E0396841F475
:101A9000006139600021009179690091B969009174
:101AA0000099396821F4806139607968090519D590
:101AB000421E1F2A1AD80121914048F28102C8F221
:101AC0000002114212D0786840F48050786009E03A
:101AD00010F5803FA6D00020009078690090B8698A
:101AE000009000980020206501B0F0BD10F5803F07
:101AF000E9D0F7E77047000070B5B8B3044690F836
:101B00003D0028B9002084F83C00204600F0A2FBEC
:101B1000242084F83D002068016821F00101016063
:101B2000016841F400410160016821F40041016055
:101B300000F09CFD48F28041C0F21E0140F6001307
:101B4000D4F804E088424FF00001C0F23D0348F2AF
:101B5000A16C4FF0000238BF01219842C0F2010C85
:101B600038BF0122E64538BF0A460AB1012070BDE0
:101B70004DF68361C4F21B31A0FB01122168950C64
:101B80004B684FF4967623F03F0343EA9243754344
:101B900044F6D3564B60C1F262060B6AA5FB0656AB
:101BA000B50923F03F03E64538BF950C6A1C1A437C
:101BB0000A62CA6948F2A0664CF6FF73C0F20106D9
:101BC000B64522EA03020BD801384FEA4E03B0FBB8
:101BD000F3F001306FF31F30042898BF04201EE09B
:101BE000A368013863B119230EFB03F3B0FBF3F0D4
:101BF00001306FF31F3078B100F5804008E000BF7E
:101C00000EEB4E03B0FBF3F001306FF31F3028B141
:101C100000F5004003E000BF012000E00120104378
:101C2000C8610868D4E9072320F0C00010431843B6
:101C30000860886848F2FF3204F10C0690434CCEED
:101C400018431043A5698860C86820F0FF0030433E
:101C50002843C860086840F0010008600020202187
:101C6000206484F83D10206384F83E0070BD0000BD
:101C70007047000070470000704700002DE9F047F2
:101C800084B0044600201F46164689460290FFF79E
:101C90004FFB94F83D10202920D10546206800BF55
:101CA0008169890716D5FFF743FB411B20681A2974
:101CB000F6D381698907F3D500202021206384F8B9
:101CC0003D1084F83E00216C41F02001216484F82D
:101CD0003C0003E094F83C10012903D1022004B039
:101CE000BDE8F087012184F83C100168C90703D1E1
:101CF000016841F0010101600168DDF8308021F4E4
:101D000000610160222184F83D10102184F83E100A
:101D10000021216466626785618D0227C0F2010798
:101D20002185A7F10211E162E16A026811F5803FA5
:101D300042F48062026018BF01293DD1016841F47C
:101D40008071016020464FF001110022434600954A
:101D500001F07EFE50B120680068C00544BF4FF41A
:101D600000702064012004B0BDE8F0872069B0F560
:101D7000804F27D149F00100C0B221684246086176
:101D8000204639462B4601F04DFF0028EAD1208D30
:101D900002284BD001285FD0002840F0738000203B
:101DA0000390206841690391816903910399016857
:101DB00041F40071016071E00829BFD0216B112945
:101DC000BCD0BFE7062000EAD916206806F1F00172
:101DD0000161B91D204642462B4601F023FF002831
:101DE000C0D120685FFA89F1016120463946424638
:101DF0002B4601F017FF0028B4D100200390206883
:101E00000022416943460391816903910399016866
:101E100041F48071016020464FF00111009501F0FE
:101E200017FE002897D146F0F100A6E72068016868
:101E300041F400610160EFF3108072B6002003905E
:101E4000206841690391816903910399016821F434
:101E50008061016062B621E02068016821F4806140
:101E60000160EFF3108072B6002003902068416992
:101E70000391816903910399016841F40071016044
:101E800062B60BE02068016841F4806101600021C6
:101E9000039141690391806903900398208D002884
:101EA00000F0CC8040F2B4294BF2895A0237C2F2DA
:101EB0000009C1F2F84A23260EE000BF106908703D
:101EC000606A218D01306062481E2085618D013974
:101ED0006185010400F0B28080B203280CD802288A
:101EE0002CD001284AD1204641462A4601F00AFF5B
:101EF000002800F09F8035E7204641462A4601F041
:101F000001FF00287FF42EAF2068616A0069087025
:101F1000606A2268411C208D616201382085638DD2
:101F2000013B638553695B07D3D580B20328C5D1D4
:101F3000106820F480601060C0E700BF204639467A
:101F400000224346009501F083FD00287FF40AAF8C
:101F5000EFF3108072B62068616A026842F4007282
:101F6000026000690870606A218D01306062481E5D
:101F70002085608D0138608562B65BE02046394679
:101F800000224346009501F063FD00287FF4EAAE8D
:101F90002068016821F480610160EFF3108072B65F
:101FA0002068616A00690870606A218D013001391A
:101FB00060622185618D01396185D9F80010C908F9
:101FC000A1FB0A12110A714302910299013902918F
:101FD000029900293ED021684A6952071AD4029911
:101FE000013902910299A9B321684A69520711D4B3
:101FF000029901390291029961B321684A69520735
:1020000008D4029901390291029919B321684A69E9
:102010005207DAD50A6842F400720A600969017051
:10202000606A218D01306062481E2085608D013814
:10203000608562B62068616A006940E7202084F804
:102040003D00002084F83E0084F83C0004B0BDE868
:10205000F08700BF00202021206384F83D1084F821
:102060003E00216C41F02001216462B684F83C00FE
:10207000012004B0BDE8F0872DE9F04383B01E468F
:10208000174689460446FFF753F994F83D10202976
:1020900020D10546206800BF8169890716D5FFF762
:1020A00047F9411B20681A29F6D381698907F3D5BE
:1020B00000202021206384F83D1084F83E00216C2C
:1020C00041F02001216484F83C0003E094F83C10C6
:1020D000012903D1022003B0BDE8F083012184F877
:1020E0003C100168C90703D1016841F0010101609A
:1020F000016840F2020821F400610160212184F8A6
:102100003D10102184F83E1000212164676266852D
:10211000618DC0F201082185A8F10211E162E16A36
:102120000A9E11F5803F18BF01291DD1016841F4B5
:102130008071016020464FF0011100223346009566
:1021400001F086FC50B120680068C00544BF4FF420
:1021500000702064012003B0BDE8F0832069B0F571
:10216000804F07D1FE2015E00829DFD0216B12290E
:10217000DCD0DFE7062000EAD9102168F0300861E2
:1021800008F10601204632462B4601F04BFD00289F
:10219000E0D1FF20216800EA09000861204641469D
:1021A00032462B4601F03EFD0028D3D1002002909C
:1021B00020684169029180690290029806E000BFA0
:1021C000204631462A4601F0E3FB18BB208D68B358
:1021D000204631462A4601F0DDFDD8B9606A216803
:1021E000024612F8013B0B616262628D013A628520
:1021F000228D531E23854F697F07E1D51B04DFD055
:10220000437802300B616062608D01386085901EFA
:102210002085D5E7206C04289CD12068016841F412
:1022200000710160012003B0BDE8F08320680168FF
:1022300041F400710160202084F83D00002084F802
:102240003E0084F83C0003B0BDE8F0837047000016
:102250007047000010B586B0006845F60001C4F272
:10226000000188424FF00001CDE90411CDE90211CF
:102270003AD045F20041C4F20001884258D141F2FF
:102280001804C4F20204206802A940F0080020608B
:10229000206800F0080001900198C02002901220F0
:1022A00003900320059040F60040C4F20100FEF7C1
:1022B00023FF6068002140F4001060606068002225
:1022C00000F40010019001981F2000F0B3F81F20C7
:1022D00000F09CF820200021002200F0ABF8202024
:1022E00000F094F806B010BD41F21804C4F20204E4
:1022F000206802A940F008002060206800F0080073
:10230000019001984FF44060029012200390032046
:10231000059040F60040C4F20100FEF7EDFE606853
:1023200040F480006060606800F4800001900198D3
:1023300006B010BD704700007047000040F200007A
:1023400040F22851C2F20000C2F2000100780A688F
:10235000104408607047000080B542F20000C4F2EB
:102360000200016841F010010160032000F08EF8C6
:102370000F2000F005F800F027F8002080BD0000D5
:1023800070B540F20006C2F2000640F2B421327885
:10239000C2F200014FF47A730968B3FBF2F204460B
:1023A000B1FBF2F1084600F04FFB0F2C4FF0010596
:1023B00008D838B94FF0FF3021460022002500F040
:1023C00039F87460284670BD82B041F21800C4F23A
:1023D00002000168022241F001010160016801F080
:1023E000010101910199416841F0805141604068CB
:1023F00000F08050009000980420C4F201000168B1
:1024000062F31A61016002B070470000002848BF03
:102410007047C1B200F01F00012202FA00F04EF234
:102420000012CEF2000242EAD10121F0030108605D
:102430007047000010B54EF60C5CCEF2000CDCF8D4
:102440000030C3F3022E8EF00704042C28BF0424AE
:10245000BEF103034FF0FF3E0EFA04F438BF002331
:10246000A14399400EFA03F39A43114300F00F027F
:1024700000F160430901043A03F564436244002813
:1024800048BF02F10C03197010BD00004EF60C514C
:10249000CEF200010A684FF6FF031A4060F30A22E9
:1024A00042F0806040F0FD70086070472DE9F04315
:1024B00081B0002800F0858042F20008C4F20208D2
:1024C0000446D8F800000D4600F0070088420CD200
:1024D000D8F8000020F007002843C8F80000D8F81A
:1024E000000000F00700A8426BD1206841F2040907
:1024F0008107C4F2020917D5410705D5D9F80010A4
:1025000041F4E061C9F80010010705D5D9F80010C1
:1025100041F46051C9F80010D9F80010A26821F008
:10252000F0011143C9F80010C00741D1D8F80000EC
:1025300000F00700A8420CD9D8F8000020F00700EE
:102540002843C8F80000D8F8000000F00700A842AF
:1025500037D12068410707D5D9F80010E26821F487
:10256000E0611143C9F80010000708D5D9F8000050
:10257000216920F4605040EAC100C9F80000D9F890
:10258000002002F00C00082841F20020C0F27A007E
:1025900050D149F61E13C2F38341C0F60003595CC3
:1025A000D2033BD440F60010C0F23D00484341E066
:1025B000606802280AD001282AD159F8041C89032E
:1025C00008D4012001B0BDE8F08300BF59F8041C15
:1025D0008901F6D5D9F8001021F003010843C9F8A4
:1025E0000000FEF7A5FE064641F28837D9F8000044
:1025F000616800F00C00B0EB810F97D0FEF798FEF9
:10260000801BB842F2D9032001B0BDE8F08300BFBF
:1026100059F8041C8907D4D5DCE700BFD9F800209D
:1026200049F61C13C2F34042C0F600039A5C4843CB
:10263000B0FBF2F0D9F8001049F60412C1F303110F
:10264000C0F60002515C40F2B42220FA01F140F2DF
:102650000400C2F200000068C2F200021160FFF73D
:102660008FFE002001B0BDE8F083000040F2B420EE
:1026700041F20401C2F20000C4F2020100680968DC
:1026800049F61412C1F30221C0F60002515CC840A1
:10269000704700002DE9F04182B0002868D0044660
:1026A000007841F20006C007C4F2020625D0706827
:1026B00000F00C0004281BD0706800F00C00082803
:1026C00002D17068C00313D46068002800F06881EC
:1026D000B0F5A02F00F07C81B0F5803F00F07C8148
:1026E000306820F480303060306820F4802076E15B
:1026F0003068800301D56068D0B32078800718D592
:10270000706810F00C0F07D0706800F00C000828FB
:102710006ED17068C0036BD43068800702D5206921
:10272000012825D13068616920F0F80040EAC10035
:102730003060207800071FD42078400732D4E56944
:1027400095B1706800F00C00082840F08F80012DD2
:102750000ED07068216A00F480328A4208D1616A22
:1027600000F47010884203D1002002B0BDE8F0816F
:10277000012002B0BDE8F081A069002862D00020ED
:10278000C4F242200121C0F88014FEF7D1FD0546B5
:10279000706A800700F18C80FEF7CAFD401B02289A
:1027A000F6D92AE1F06910F0805808D1F06940F0BC
:1027B0008050F061F06900F080500090009847F27E
:1027C0000007C4F200073868C00529D4386840F40F
:1027D00080703860FEF7ACFD054600BF3868C00564
:1027E0001ED4FEF7A5FD401B6428F7D905E100BF04
:1027F0002069002840F20000C4F2422000F08280EC
:1028000001210160FEF794FD054600BF3068800796
:102810003FF588AFFEF78CFD401B0228F6D9ECE0AF
:10282000E068002800F08080052800F097800128EB
:1028300000F09880306A20F001003062306A20F0A9
:10284000040092E00020C4F242200021C0F880146D
:10285000FEF76EFD054600BF706A80077FF56CAF1E
:10286000FEF766FD401B0228F6D9C6E00027C4F239
:10287000422700203866FEF75BFD022D05460BD18E
:102880003068800140F1BE80FEF752FD401B0228F7
:102890004FF00300F4D968E7306880017FF564AF3A
:1028A000FEF746FD401B02284FF00300F4D95CE719
:1028B00040F2B420C2F20000006844F6D351C1F2E5
:1028C0006201A0FB0101480A019000BF00BF01980E
:1028D000411E002801913FF42FAF00BF0198411E17
:1028E000002801913FF428AF00BF0198411E002845
:1028F00001913FF421AF00BF0198411E00280191D2
:10290000E4D119E700210160FEF712FD054600BF82
:10291000306880077FF50DAFFEF70AFD401B0228E7
:102920004FF00300F4D920E7306A20F00100306254
:10293000306A20F004003062FEF7FAFC054641F2EE
:10294000883700BF306A800720D5FEF7F1FC401BB6
:10295000B8424FF00300F5D907E700BF306A40F0F6
:1029600004003062306A40F001003062FEF7E0FCA3
:10297000054641F2883700BF306A800706D4FEF76B
:10298000D7FC401BB842F7D937E000BFB8F1000FC1
:102990007FF4D5AEF06920F08050F061CFE600BF43
:1029A000306820F480303060306820F4802030605F
:1029B000FEF7BEFC054600BF306880037FF59DAE84
:1029C000FEF7B6FC401B64284FF00300F4D9CCE6B8
:1029D000306840F480203060306840F480303060EF
:1029E000FEF7A6FC054600BF306880033FF585AEC4
:1029F000FEF79EFC401B6428F6D9032002B0BDE818
:102A0000F08100BF206AB0F5803F05D17168A268EF
:102A100021F40031114371607168626A21F474110C
:102A200011430843706001203866FEF781FC0446BC
:102A3000306880013FF598AEFEF77AFC001B022853
:102A40004FF00300F4D990E6411E0020B0EB116F67
:102A50001CBF012070474EF21002CEF200025160FE
:102A60004EF62351CEF20001F0230B700721906047
:102A700011607047704700007047000010B590F873
:102A80003C20012A4FF0020233D080F83D2002683A
:102A9000D2F804E0D2F808C00C682EF0700323438B
:102AA00040F2FF74C4F20004A24253600ADCB2F1A7
:102AB000804F13D040F20043C4F200039A420DD07D
:102AC00011E000BF42F60043C4F201039A4205D070
:102AD00040F60003C4F200039A4204D149682CF086
:102AE0008003194391600121002280F83D1080F895
:102AF0003C20104610BD0000002804BF0120704794
:102B000010B5044690F83D0028B9002084F83C0038
:102B1000204600F067F8022084F83D00206840F26B
:102B2000FF730268C4F2000342F6004C9842C4F2FC
:102B3000010C15DCB0F1804F1AD040F20041C4F214
:102B40000001884214D0984218DCB0F1804F1DD0AB
:102B500040F20041C4F20001884217D01AE000BFE1
:102B6000604505D040F60001C4F200018842EAD178
:102B7000A16822F070020A439842E6DD604505D064
:102B800040F60001C4F20001884203D1216922F419
:102B900040720A43A36922F08001D4F804E0E2689D
:102BA000194360450160C262C0F828E002D1616942
:102BB000CCF8301001214161002084F8461084F8DF
:102BC0003E1084F83F1084F8401084F8411084F8D7
:102BD000421084F8431084F8441084F8451084F8B7
:102BE0003D1010BD80B582B0006840F20041C4F2D3
:102BF000000188421CBF02B080BD41F21C00C4F23B
:102C000002000168002241F0020101600068002119
:102C100000F00200019001981D20FFF70BFC1D2021
:102C200002B0BDE88040FFF7F1BB000090F83D1016
:102C300001291CBF01207047022180F83D10006867
:102C400040F2FF72C168C4F20002904241F00101FB
:102C5000C16009DCB0F1804F12D040F20041C4F2F3
:102C6000000188420CD012E042F60041C4F201019A
:102C7000884205D040F60001C4F20001884206D126
:102C8000816801F00701062904BF00207047016830
:102C900041F001010160002070470000014600681A
:102CA00041F21113C26822F00102C260026A1A42A4
:102CB00004D00122002081F83D207047026A40F2D2
:102CC00044431A42F5D1026822F001020260012257
:102CD000002081F83D20704780B590F83C20012A03
:102CE0004FF0020200F0C28080F83D20D0F800C012
:102CF0004FF67772DCF8083023EA0202CCF808209D
:102D00000B684F2B28DC1F2B44DD202B45D0302BAC
:102D100043D0402B40F0AC80D1F804E0C968DCF827
:102D20002030DCF8202022F00102CCF82020DCF852
:102D3000182022F0F00242EA011123F00A0242EACE
:102D40000E02CCF81810CCF82020DCF8081041F066
:102D5000470121F0300180E06F2B27DDB3F5005FE4
:102D600048D0B3F5805F7AD0702B40F08180D1E9F4
:102D700001E3C968DCF8082043EA0E0322F47F422D
:102D800043EA01211143CCF80810DCF8081041F0A7
:102D9000770162E00BB1102B6AD1DCF8081021F04A
:102DA0007001194341F0070157E000BF502B35D0A7
:102DB000602B5DD1D1F804E0C968DCF82030DCF884
:102DC000202022F01002CCF82020DCF8182022F479
:102DD000704242EA013123F0A00242EA0E12CCF81E
:102DE0001810CCF82020DCF8081041F0670121F021
:102DF000100132E0D1E901E3C968DCF8082043EAB8
:102E00000E0322F47F4243EA01211143CCF808105B
:102E1000DCF8081041F480411FE000BFD1F804E065
:102E2000C968DCF82030DCF8202022F00102CCF860
:102E30002020DCF8182022F0F00242EA011123F0F1
:102E40000A0242EA0E02CCF81810CCF82020DCF876
:102E5000081041F0570121F02001CCF808100022A1
:102E6000012180F83D10002180F83C10104680BD03
:102E70000122F5E7002804BF012070472DE9F04F3B
:102E800081B0044690F83D000D4628B9002084F832
:102E90003C00204600F094F8022084F83D002068B1
:102EA00044F20702816840F2FF7391438160026837
:102EB000C4F2000342F6004C9842C4F2010C15DC47
:102EC000B0F1804F1AD040F20041C4F200018842B4
:102ED00014D0984218DCB0F1804F1DD040F2004170
:102EE000C4F20001884217D01AE000BF604505D047
:102EF00040F60001C4F200018842EAD1A16822F044
:102F000070020A439842E6DD604505D040F60001B4
:102F1000C4F20001884203D1216922F440720A43BD
:102F2000A36922F08001D4F804E0E2681943604507
:102F30000160C262C0F828E002D16169CCF83010AB
:102F40004FF00109C0F814908268D0F818E0D0F86A
:102F500020C0D5E90038D5E9027B43EA020AAB6913
:102F60004FF6FF712EEA010E47EA03234FF6FC47A6
:102F7000BB43D5E907724BEA0E012E69194341EABA
:102F8000072141EA061141EA02312CF022026B6965
:102F900042EA080242EA0312C0F808A08161026214
:102FA00084F8469084F83E9084F83F9084F84290EC
:102FB00084F8439084F83D90002001B0BDE8F08F84
:102FC00080B586B001680020B1F1804F059001D036
:102FD00006B080BD41F21801C4F202014A6842F015
:102FE00001024A604A6802F001020192019A0A68ED
:102FF00042F004020A60096801F00401019101999C
:103000000321CDE90210049040F60000C4F2010053
:1030100002A9FEF771F806B080BD000080B590F8F7
:103020003E2090F83F3090F842E090F843C00429E9
:103030000AD0B9B9012A4FF0010208BFBEF1010F51
:1030400034D0104680BD00BF012B4FF0010208BFF5
:10305000BCF1010FF5D1022180F83F1080F8431038
:1030600000681EE0012A4FF0010208BF012BE8D1E1
:10307000BEF1010FE5D1BCF1010FE2D1022280F8CF
:103080003E2080F83F2080F8422080F8432091B114
:103090000068016A21F001010162016A41F0010149
:1030A000016210216FF0100209E000BF022180F8D8
:1030B0003E1080F84210006801216FF00102036A9F
:1030C0001A400262026A114301620168002241F063
:1030D00001010160104680BD7047000010B5016815
:1030E00004460869800744BFC8685FEA807039D425
:1030F0000869400744BFC8685FEA40703ED4086969
:10310000000744BFC8685FEA007045D40869C0067C
:1031100044BFC8685FEAC0604AD40869C0071CBFE2
:10312000C8685FEAC07051D10869000644BFC8682A
:103130005FEA006052D40869400644BFC8685FEA8D
:10314000406053D40869800646BFC8685FEA806063
:1031500010BD6FF0200220460A61BDE81040FFF765
:103160008BBC00BF6FF002000861012020778869E6
:10317000800743D02046FFF7AFFF45E06FF0040023
:10318000086102202077886910F4407F40D02046F3
:10319000FFF7A2FF42E000BF6FF0080008610420C3
:1031A0002077C86980073DD02046FFF795FF3FE0B4
:1031B0006FF01000086108202077C86910F4407F84
:1031C0003AD02046FFF788FF3CE000BF6FF00100D7
:1031D0000861204600F03EF82168A5E76FF0800006
:1031E00008612046FFF746FC2168A4E76FF0400025
:1031F0000861204600F052F82168A3E7204600F05D
:1032000025F8204600F024F82168002020776FE799
:10321000204600F01BF8204600F01AF82168002034
:1032200020776CE7204600F011F8204600F010F8F7
:1032300021680020207769E7204600F007F8204643
:1032400000F006F821680020207766E7704700004C
:103250007047000040F2E041C2F2000100680968D6
:10326000884218BF704740F22832C2F20002D2E909
:103270000401084310D0D2E90401B0F1010C40F67A
:10328000000061F10003C4F201004FF48051C2E973
:1032900004C3FEF73FB800BF70470000704700004E
:1032A000FEE7000040F2F030C2F20000FEF74AB83C
:1032B00040F2F030C2F20000FEF7EEB810B581B077
:1032C00000210091406A40F2B421C2F2000190F85E
:1032D0003DC009684BF28952C908C1F2F842A1FB0E
:1032E0000212110A232251430091009911B300994F
:1032F000013900910168096889051FD50099C9B194
:1033000000990139009101680968890516D500996D
:1033100081B10099013900910168096889050DD5CD
:10332000009939B10099013900910168096889054E
:10333000DBD403E0016C41F020010164446B4FF0E9
:10334000000E002C1CBF0021A162816B00291CBF54
:1033500000228A620268002C136823F480631360E1
:10336000A0F82AE018BFC4F834E000291CBF0023ED
:103370004B63116821F00101116090F83D10602944
:103380000CD1202180F83D10002180F83E1001640E
:1033900001B0BDE81040FDF7D1BF00BF0CF028011F
:1033A000282911D1116841F001011160116841F41F
:1033B0008061116000210163282180F83D1001B077
:1033C000BDE81040FEF796BB202180F83D1000219B
:1033D00080F83E1001B0BDE81040FEF78BBB000046
:1033E00010B5044690F83D1090F83E00B0F1100280
:1033F00018BF0122403818BF0120024208BF22290D
:1034000034D001F0280028283AD100202063282059
:1034100084F83D0020684168090542D5416821F4DF
:1034200000614160606B90F82110012958D1A06BB8
:1034300043F2BD21C0F600014163FDF7EBFD00281A
:1034400061D020684169490606D50069616A087043
:10345000616A206801316162016821F00101016047
:10346000202084F83D00A06B4BE000BF206802687C
:1034700022F4006202604268120505D50CE000BF2C
:1034800020684268120507D4602905D0202184F8FD
:103490003D10002184F83E10002121634168090598
:1034A000BCD494F83D10602950D1202184F83D10FF
:1034B000002121644169490606D50069616A0870E6
:1034C000616A206801316162016821F001010160D7
:1034D0002046FDF733FF206C000717D11BE000BF2B
:1034E00043F2BD21C0F600014163FDF793FD50B1E9
:1034F0002168606B0A6822F001020A60202184F8CA
:103500003D10416B8847206C000704D0206841685B
:1035100021F4E061416094F83D00216C490758BFF7
:1035200010BD282810D10020CFF6FF70E0620021E6
:103530002020216384F83D00204684F83E10BDE839
:103540001040FEF795BB00BF10BD00BF41694906A2
:1035500005D50069616A0870606A013060622046C2
:10356000FEF7C8FA206C0007D0D1D4E7C16A428DBB
:10357000042A07D10168426A4B6823F480634B60D8
:10358000096911E0428D032A16D1026802295368A5
:1035900023F48063536005D0042903D0116821F41B
:1035A000806111601169426A1170416A01314162A2
:1035B000418D013941857047428D022A12D101396E
:1035C0000F2919D8DFE801F0081218121818181876
:1035D000181818181818180801680A6822F4806268
:1035E0000EE000BF0168426ACAE700BF01680A68CE
:1035F00042F4806204E000BF01680A6842F400728D
:103600000A600969426A1170416A02684B1C436290
:10361000438D013B438512694A70416A026801315A
:103620004162418D01394185516821F440715160F9
:10363000202180F83D1090F83E200021402A80F89B
:103640003E1003D10163FEF701BE00BF12210163EA
:10365000FEF710BB81B090F83D10222977D1418D43
:10366000042913D30168426A09691170416A013162
:103670004162418D01394185418D032967D100683F
:10368000416821F48061416001B07047C26A022A3A
:1036900058D0012956D80021009140F2B421C2F23D
:1036A000000109684BF28952C908C1F2F842A1FB36
:1036B0000212110A01EB8101009100990139009178
:1036C0000099002946D001680A6892051AD5009928
:1036D000013900910099E9B301680A68920511D592
:1036E0000099013900910099A1B301680A68920517
:1036F00008D5009901390091009959B301680A6809
:103700009205DAD40A6822F480620A604A6822F4D8
:10371000E0624A600969426A1170416A013141629E
:10372000418D01394185202180F83D1090F83E20DF
:103730000021402A80F83E1028D1016301B0FEF735
:1037400085BD00BF0068416821F48061416001B01F
:10375000704700BF016C41F0200101640168426ABA
:103760004B6823F4E0634B6009691170416A0131D1
:103770004162418D01394185202180F83D100021B1
:1037800080F83E1001B0FEF7B5B900BF1221016309
:1037900001B0FEF76FBA0000C16A90F83D20212AFF
:1037A00018BF7047428D4AB1416A026811F8013B67
:1037B00013614162418D01394185704711F5803FA8
:1037C00018BF082918D101684A6822F4E0624A60EB
:1037D0000A6842F400720A6000212022016380F826
:1037E0003D2090F83E2080F83E10402A08BFFEF7AA
:1037F0002FBDFEF741BA00BF2029E4D001684A6816
:1038000022F4E0624A6011210163002180F83E1039
:10381000202180F83D10FEF72FBA000090F83D10EF
:1038200090F83EC0C26A038D002B08BF212919D031
:10383000212905D0BCF1400F08BF222900D07047D4
:10384000418D69B390F83E10402908BF00F040B8A0
:10385000416A026811F8013B13614162418D0139EF
:103860004185704712F5803F18BF082A1ED10168B4
:103870004A6822F4E0624A600A6842F400720A6010
:1038800000212022016380F83D2090F83E2080F83E
:103890003E10402A08BFFEF7DBBCFEF7EDB900BFC3
:1038A0000068416821F4806141607047202ADED0C1
:1038B00001684A6822F4E0624A6011210163002134
:1038C00080F83E10202180F83D10FEF7D5B90000A9
:1038D00090F83D10026D5AB1026D012A14D10168B1
:1038E000826CD2B20A61016D01310165704700BF7F
:1038F000C26C816C012A15D10268C9B21161016DD7
:1039000002310165704700BF026D022A12D12229DF
:1039100018D101680A6842F480720A60016D0131B1
:10392000016570470268C1F307211161016D013122
:103930000165704700684169090644BF00210161C3
:10394000704700BF428D5AB1212909D1416A0268EE
:1039500011F8013B13614162418D01394185704786
:10396000428D002A08BF2129EAD101684A6822F461
:10397000E0624A600A6842F400720A600021202274
:10398000016380F83D2080F83E10FEF761BC000026
:1039900070B50368044653F8140F400711D40E465F
:1039A000481C29D086BB00BF1868400527D4FDF706
:1039B000BFFC236853F8140F400739D51868400737
:1039C000F2D5002070BD00BF18684007F9D4186810
:1039D000400514D418684007F3D4186840050ED485
:1039E00018684007EDD41868400508D418684007E7
:1039F0004FF0000048BF70BD18684005E4D56FF473
:103A000080601860042014E0154603E053F8140F9A
:103A10004007D6D418684005F1D4FDF789FC401B57
:103A20002368B042F2D958694007EFD4202000E063
:103A3000202000212022216384F83D2084F83E10BC
:103A4000226C10432064012084F83C1070BD0000FB
:103A50002DE9F041054600681E46144601F47F0238
:103A600001338FB242D0DDF81880B2F5803F40F0CC
:103A7000878040693840C01BB0FA80F04009A042FE
:103A800040F0C8804EB924E040693840C01BB0FA0D
:103A900080F04009A04240F0BD80FDF749FCA0EB5A
:103AA00008012868B142EFD941693940C91BB1FA10
:103AB00081F14909A142E7D19BE000BF406938404C
:103AC000C01BB0FA80F04009A0424FF0000040F067
:103AD000A680FDF72DFC286841693940C91BB1FA61
:103AE00081F14909A142E9D183E000BFB2F5803FED
:103AF00024D100BF41693940C91BB1FA81F149099C
:103B0000A14240F0878041693940C91BB1FA81F177
:103B10004909A14240F07E8041693940C91BB1FA90
:103B200081F14909A14275D141693940C91BB1FAF6
:103B300081F14909A142DDD06CE000BF81693940C3
:103B4000C91BB1FA81F14909A14263D181693940A8
:103B5000C91BB1FA81F14909A1425BD181693940A0
:103B6000C91BB1FA81F14909A14253D18169394098
:103B7000C91BB1FA81F14909A142DFD04AE000BF77
:103B800080693840C01BB0FA80F04009A04241D1A2
:103B900046B923E080693840C01BB0FA80F0400984
:103BA000A0423BD1FDF7C4FBA0EB08012868B1425D
:103BB000F0D981693940C91BB1FA81F14909A142A3
:103BC000E8D116E080693840C01BB0FA80F04009A7
:103BD000A0424FF0000018BFBDE8F081FDF7A8FB40
:103BE000286881693940C91BB1FA81F14909A142AC
:103BF000E8D100202021286385F83D1085F83E009B
:103C0000296C41F02001296485F83C000120BDE8C1
:103C1000F08100BF0020BDE8F08100BF0020BDE8BA
:103C2000F0810000F0B581B0044600681D4643698C
:103C30008FB203EA0701B94202D1002001B0F0BD02
:103C400041691646013201F4806125D0002940D136
:103C5000CEB100BFFDF76CFB411B2068B14203D918
:103C600041693940B9424BD141693940B942E4D048
:103C700041694905EED52CE041693940B942DCD0B3
:103C80004169490525D4FDF753FB20684169394056
:103C9000B942F1D0202024E0D9B941693940B94274
:103CA000CBD04169490514D441693940B942C4D0E7
:103CB000416949050DD441693940B942BDD04169D6
:103CC000490506D441693940B942B6D04169490530
:103CD000E3D5016841F4007101606FF480614161D6
:103CE000042000212022216384F83D2084F83E1026
:103CF000226C1043206484F83C10012001B0F0BD18
:103D00002020EEE770B504460068154650F8143FD1
:103D10005A063DD40E4629B926E000BF50F8141FBC
:103D2000490635D40168C90621D4FDF701FB411BC2
:103D30002068B142F2D941694906EFD40020202120
:103D4000206384F83D1084F83E00206C40F0200091
:103D500018E000BFFDF7ECFA206850F8141F490680
:103D6000ECD50168490613D40168C906F2D56FF095
:103D70001001016000202021206384F83D1084F8A8
:103D80003E00206C2064002084F83C00012070BDBF
:103D9000002070BD70B50368044653F8140F000688
:103DA00011D40E46481C29D086BB00BF18684005B8
:103DB00027D4FDF7BDFA236853F8140F000639D550
:103DC00018680006F2D5002070BD00BF1868000614
:103DD000F9D41868400514D418680006F3D418689C
:103DE00040050ED418680006EDD41868400508D4C4
:103DF000186800064FF0000048BF70BD1868400505
:103E0000E4D56FF480601860042014E0154603E0E8
:103E100053F8140F0006D6D418684005F1D4FDF706
:103E200087FA401B2368B042F2D958690006EFD4E4
:103E3000202000E0202000212022216384F83D2062
:103E400084F83E10226C10432064012084F83C105A
:103E500070BD000040F28033C2F200034FF0000C4E
:103E600083E80710C3F810C070470000FEE70000A9
:103E7000FEE700007047000070470000FEF75EBAE2
:103E80007047000040F2E040C2F20000FFF726B9A0
:103E9000FEE70000B0B582B00B210122044600F01D
:103EA000C7FF054620460B21002200F0C1FF054355
:103EB0000DF107022046132100F06AFB9DF8071060
:103EC0002843490729D040BB20460B21012200F09E
:103ED000AFFF054620460B21002200F0A9FF054355
:103EE0000DF107022046132100F052FB9DF8071048
:103EF0002843490711D080B920460B21012200F048
:103F000097FF20460B21002200F092FF0DF10702DF
:103F10002046132100F03CFBF42040B202B0B0BDBB
:103F20002DE9F04F91B0882100220446002500F0D1
:103F30007FFF40F2E830C0F29010C4F8520146F61C
:103F40008530C0F20100C4F8580147F2A400C0F265
:103F50000900C4F8D40001A9204684F8F050256275
:103F600000F0D6F88046E8B9ADF8045003AFDDE9BB
:103F7000016C8ECFDDE90750C4E9046C04F1180C24
:103F80008CE88E000DABDDE909E9DDE90BABC4E996
:103F90000A500FCB04F1400CC4E90CE9C4E90EABA4
:103FA0008CE80F006420C0F28430C4F834014FF470
:103FB000FA70A4F838014FF42060A4F83C01012005
:103FC00084F8500120468021012200F031FF814613
:103FD0002046FF21012200F02BFF824620460021CF
:103FE000002200F025FF83460DF1030220469121B7
:103FF00000F0CEFA9DF80310064684F83A112046E8
:104000000021012200F014FF07462046FF21002274
:1040100000F00EFF054620468021002200F008FF38
:1040200049EA0A0141EA0B01314339432943084374
:1040300040EA0800010603D040B211B0BDE8F08F9D
:10404000A06B012184F82810C0F34F2220464421A0
:1040500000F00CFF0028EFD140F20110A4F8290075
:10406000012520466021FE22002384F82B5000F019
:1040700095FE0028E0D120466021EF22002384F83D
:104080002C50002500F08AFE0028D5D1012084F8AC
:104090002D0020466021FE220223658500F07EFE71
:1040A0000028C9D1002520466021EF22102384F882
:1040B0002C5000F073FE0028BED194F829004FF474
:1040C000901184F82D50616330B1204644212022A4
:1040D00000F0CCFE0028AFD14FF4804004F138024C
:1040E0004FF40C11002523C2FF2084F83001204634
:1040F0000121FF22012600F09BFE002884F8326196
:1041000004BF84F81551002040B211B0BDE8F08F13
:10411000B0B584B00446007C0D46087002AA204663
:10412000F82100F095FA08B104B0B0BD01AA20460C
:10413000042100F057FA0028F6D1BDF8080028B194
:104140000199B1FBF0F0A86001E000BFA868A06190
:10415000002028730DF10A022046202100F078FA91
:104160000028E1D1BDF80A0020B1C000286120621A
:10417000012002E0206A28610020207705F1140167
:10418000204602F055F80028CED1606B03AA686281
:1041900094F8280044212876204600F059FA002897
:1041A000C2D1BDF80C00400204D0A862A063012077
:1041B00003E000BFA06BA862002084F829006876A5
:1041C000E06B03AAE86294F82A006421A876206CC8
:1041D000286394F82B00E876204600F039FA00288E
:1041E000A2D1BDF80C0003AA4002686394F82C0029
:1041F00064212877204600F02BFA002894D1BDF8DE
:104200000C000DF10F024002A86394F82D0001216B
:104210006877204600F0BCF900287FF485AF9DF850
:104220000F00291D84F83001C00985F83C0084F88E
:104230004C00204601F040FF04B0B0BD052905D96F
:10424000FC20002140B21170704700BF084490F874
:104250002810002040B211707047000070B582B085
:10426000052911D8054614460E46DFE801F0111560
:104270002F3303030DF106022846642100F0E8F90C
:1042800080B340B202B070BDFC2040B202B070BD3D
:1042900005F1340020E000BF0DF10602284644215C
:1042A00000F0D6F90028ECD1BDF80600A9194002AB
:1042B00001F128011AD005EB86022060506301202D
:1042C0000870002040B202B070BD00BF05F13C0094
:1042D00002E000BF05F1400000682060002040B20D
:1042E00002B070BDBDF806004002F6E705EB86009F
:1042F000406B20600020087040B202B070BD00002A
:1043000010B582B090F8DA200C46042A14D10DF1D1
:104310000702132100F03CF99DF8071001F0070295
:1043200011F0180FA2F10401B1FA81F118BF6FF07A
:10433000050049090FE000BF0DF10602142100F04D
:1043400027F918B140B202B010BD00BF9DF80600B9
:1043500000F001010020217040B202B010BD000049
:1043600070B586B00D460DF10B0214210C230446E6
:1043700000F0A4F910B106B070BD00BF0020A87510
:10438000C5E900009DF814009DF81330400240EA92
:104390004340BDF80D30BDF815109DF812209DF872
:1043A00011E0286118BA09BA5202030CB4F852019C
:1043B0004FEA114C9DF80B1042EA4E4294F831E15D
:1043C000B0F57A7FEA60AB8222D000FB0CF000F5FA
:1043D000FA7C44F6D350C1F26200ACFB000C207FA3
:1043E0004FEA9C1CA0B1208C5843000A824209D19C
:1043F00042F2B82CBEF1000F04BF48F6E02CCFF615
:10440000FF7C05E0161A1FFA8CF05043B0FBF6FC57
:1044100066461FFA8CF0BEF1000F1CBF86084FEAFB
:104420008C1E2E810DF11706204685F817E00095A9
:10443000019601F01DFF00289DD19DF817002E1D4B
:10444000287695F817C04CCE2969AD8A04F1540E30
:1044500084F8680000208EE84C002166A4F86450BF
:1044600084F867C006B070BD10B582B00C4600215C
:104470008DF807100DF10702012100F089F808B14D
:1044800002B010BD9DF80710C1F300122270C1F3F5
:10449000C002A270C1F380026270C1F38012C90928
:1044A000E270217102B010BD02F016B8027F002048
:1044B0000A707047012302F04BB9000002F06AB99C
:1044C000B0B582B004460020207420460D4600F0AE
:1044D00095FA18B140B202B0B0BD00BF204602F05C
:1044E00099F80028F6D1032084F8320120462946A5
:1044F000FFF736FF0028EDD120460B21012200F006
:1045000097FC054620460B21002200F091FC054354
:104510000DF107022046132100F03AF89DF807102C
:1045200028434907D6D00028D4D120460B210122A8
:1045300000F07EFC054620460B21002200F078FCAE
:1045400005430DF107022046132100F021F89DF8E4
:10455000071028434907BDD00028BBD120460B21B6
:10456000012200F065FC20460B21002200F060FCD7
:104570000DF107022046132100F00AF8F42040B2A2
:1045800002B0B0BD80B50220FCF7A2FD002080BDC6
:1045900070B582B0054695F86031D0F85C011446DC
:1045A0008DF807100B260DF107021946012300961E
:1045B000FDF762FD20B1EC2040B202B070BD00BF3B
:1045C00095F86011D5F85C0141F001012246012304
:1045D0000096FDF753FB002818BF6FF0130040B2A0
:1045E00002B070BD70B582B0054695F86031D0F864
:1045F0005C0116468DF807100B240DF107021946D1
:1046000001230094FDF738FD20B1EC2040B202B048
:1046100070BD00BFD5F85C0195F8601140F2B0356F
:10462000C2F200050E2441F001012A460423009441
:10463000FDF724FB20B1EC2040B202B070BD00BFFA
:10464000286800BA3060002040B202B070BD00009F
:1046500070B582B0054695F86031D0F85C01164619
:104660008DF807100B240DF1070219460123009461
:10467000FDF702FD20B1EC2040B202B070BD00BFDA
:10468000D5F85C0195F8601140F2B035C2F2000532
:104690000C2441F001012A4602230094FDF7EEFAB2
:1046A00020B1EC2040B202B070BD00BF288800BA33
:1046B000000C3080002040B202B070BDF0B583B075
:1046C00006461D4696F86031D0F85C0117468DF815
:1046D0000B100B240DF10B02194601230094FDF77A
:1046E000CBFC18B1EC2040B203B0F0BD96F86011DD
:1046F000D6F85C0105F10A06ABB241F001013A4679
:104700000096FDF7BBFA002818BF6FF0130040B207
:1047100003B0F0BD15294FF0F80C09D801230B2286
:104720008B40C0F2300213421CBF01744FF0000CEA
:104730004FFA8CF07047000070B582B021B1F620BE
:1047400040B202B070BD00BF0446152A0ED0069ECE
:10475000142A69D10122002E08BF1022204684218C
:1047600002B0BDE8704000F063BB00BF2046FF21EF
:10477000012200F05DFB054620460021002200F0EA
:1047800057FB05432046FF21002200F051FB054363
:1047900020468021012200F04BFB05432046852165
:1047A000022200F045FB05432046FF21042200F0D1
:1047B0003FFB05432046CD21002200F039FB054395
:1047C0002046CC21112200F033FB05432046FF2177
:1047D000072200F02DFB05432046BE21002200F0F9
:1047E00027FB05432046FF21062200F021FB05435D
:1047F0002046CC21092200F01BFB05432046FF2167
:10480000002200F015FB05432046FF21012200F0A5
:104810000FFB054320460021002200F009FB28433E
:1048200040B202B070BD00BF1D46042B60D82046C8
:104830000A212A4600F0FCFA00287FF481AF002EFE
:1048400018BF0126330120468421EF2200F0A6FA8A
:1048500000287FF475AF20460B21012284F8DA503E
:1048600000F0E6FA054620460B21002200F0E0FAAF
:1048700005430DF1070220461321FFF789FE9DF83D
:104880000710284349073FF45BAF00287FF458AF77
:1048900020460B21012200F0CBFA054620460B21D1
:1048A000002200F0C5FA05430DF10702204613214E
:1048B000FFF76EFE9DF80710284349073FF440AF0D
:1048C00000287FF43DAF20460B21012200F0B0FA12
:1048D00020460B21002200F0ABFA0DF10702204622
:1048E0001321FFF755FEF42040B202B070BD00BFA7
:1048F000F52040B202B070BD70B5052902D9FC2088
:1049000040B270BD14460D4606464AB106EB85001E
:10491000406B0122410A0020052D06D9EFE700BFB8
:10492000012000210022052DE9D8DFE805F003076A
:104930000F13172186F8282022E000BF8AB23046E4
:10494000442100F093FAD8B140B270BD86F82A2015
:1049500016E000BF86F82B2012E000BF430030466F
:104960006021FE2200F01AFA0028EDD108E000BF15
:10497000030130466021EF2200F010FA0028E3D155
:104980007019002C18BF012480F82840002040B284
:1049900070BD000070B50546084490F828000C462C
:1049A0001646E0B1052C21D84421DFE804F00D04BF
:1049B000111503036421C6F34F22284600F056FA6E
:1049C00068B140B270BD00BF05F1340006E000BF21
:1049D00005F13C0002E000BF05F14000066005EB78
:1049E00084004663002040B270BD00BFFC2040B28E
:1049F00070BD000002F046B902F094BAF0B583B081
:104A0000057C80210122044600F012FA2046FF2195
:104A1000012200F00DFA20460021002200F008FAE1
:104A200094F83A212046912100F002FA2046002114
:104A3000012200F0FDF92046FF21002200F0F8F9E4
:104A400020468021002200F0F3F9032D10D0012D23
:104A500040D0002D6ED1204600210122012500F01A
:104A6000E7F900288DF8075068D040B203B0F0BDD8
:104A700008BB94F8DA00013802281CD80DF10A02AC
:104A800020460E21FFF7E4FDA8B9BDF80A500DF14C
:104A90000A0220460C21FFF7DBFDBDF80A1029436E
:104AA00011F4786F07D030B940F2FB01C2F2000177
:104AB000204601F037FD204600210422042500F0A5
:104AC000B7F9002804BF84F83251002040B203B087
:104AD000F0BD00BFF8B994F8DA00013802281AD8FE
:104AE00002AA20460E21FFF7B3FDA0B9BDF8085079
:104AF00002AA20460C21FFF7ABFDBDF808102943A0
:104B000011F4786F07D030B940F2FB01C2F2000116
:104B1000204601F007FD20460021022200F088F91E
:104B20000028A2D1042084F83201002040B203B052
:104B3000F0BD00BFF82040B203B0F0BD00260DF17B
:104B4000070540F2CF7700BF204600212A460136F4
:104B5000FFF71EFD9DF80710C90702D008B9BE4235
:104B6000F2D340F2CE718E4288BF6FF0060040B2A1
:104B700003B0F0BD2DE9F04796B0044606A84021E9
:104B8000FBF732FC0020ADF816008DF815008DF80B
:104B9000140004902046012100F078FD94F81421BF
:104BA000012A07D894F8131101D1202902D85AB943
:104BB0000D2909D304A905AA204601F0EBFD40B157
:104BC00016B0BDE8F08700BF204602F023F90028A8
:104BD000F6D194F8500100280EBFD4F84C1140F2E1
:104BE0000801C2F20001204601F09CFC0028E7D138
:104BF000002520460021002204230095FFF79CFD9C
:104C00000028DDD12046FF21012200F011F90546E0
:104C10000DF1160220468421FFF71AFD05432046B8
:104C2000FF21002200F004F92843C9D1BDF8160085
:104C300006A90001C4F8D4002046FFF769FA00284D
:104C4000BED10DF1150220460921FFF7A1FC002875
:104C5000B6D19DF815000DF1180E00F001008DF889
:104C6000150084F831019EE82F50E36112AB0DF17D
:104C7000340A20616161A261C4F824C00FCB04F141
:104C8000300C9AE8C0078CE8800704F1400C8CE8EF
:104C90000F000DF11502204601212562C4F828E01D
:104CA000E662FFF775FC00288AD19DF8150002AA7C
:104CB00084F8300100208DF8080020460121FFF71C
:104CC00067FC00287FF47CAF9DF8080000F0EF053A
:104CD00085420DD0204601212A4600F0A9F800287F
:104CE0007FF46EAF6169204684F8305101F0CAFF4D
:104CF00000208DF8080002AA20460121FFF748FC99
:104D000000287FF45DAF9DF8080000F0FB058542A8
:104D10000DD0204601212A4600F08AF800287FF4B1
:104D20004FAF6169204684F8305101F0ABFF03209A
:104D300084F832010DF10F022046002101F0CCFB76
:104D400000287FF43DAF9DF80F000DF10F0284F8AD
:104D5000E8002046012101F0BFFB00287FF430AFBE
:104D60009DF80F0002AA84F8E0002046032102F01B
:104D7000D5FB00287FF424AF029802AAC4F8E4000F
:104D80002046042102F0CAFB00287FF419AF0298E4
:104D9000C4F8DC00002016B0BDE8F0872DE9F04132
:104DA00082B004460D46D0F85C0194F86011984634
:104DB00017460B260DF1070201238DF807500096C8
:104DC000FDF75AF960B994F86011D4F85C0141F02C
:104DD00001010DF1060201230096FCF74FFF28B1F7
:104DE000EC2040B202B0BDE8F08100BF9DF80600A3
:104DF00040F2B032384040EA0803C2F20002D4F870
:104E00005C0194F860118DF8063053700C27022372
:104E100015700097FDF730F9002818BF6FF01300E8
:104E200040B202B0BDE8F0816FF062007047000050
:104E300080B582B040F2B03CC2F2000CD0F85C31D8
:104E40008CF8001090F860118CF801204FF00C0ED7
:104E5000184662460223CDF800E0FDF70DF9002860
:104E600018BF6FF0130002B080BD000080B582B0A3
:104E700040F2B033C2F200031970110AD0F85CC1DD
:104E8000597090F860119A704FF00D0E60461A46F6
:104E90000323CDF800E0FDF7EFF8002818BF6FF00E
:104EA000130002B080BD00003F2B82BFFC2040B247
:104EB0007047F0B581B040F2B037C2F20007054646
:104EC000384600F8011B11461A461C46FBF747FA04
:104ED000D5F85C0195F86011621C04F10B0693B2E1
:104EE0003A460096FDF7C8F8002818BF6FF0130087
:104EF00001B0BDE8F04040B2704700002DE9F0413C
:104F0000B0F85441D0F85801DDF81CC06043DDF81A
:104F100018808030050A4FF000065AB1500800EBA7
:104F20008120B0FBF2F000EB4000404300F5004070
:104F3000000C00E000200CF5004103224AF6AB27EC
:104F400002EB1141CAF6AA27A1FB071205FB04FEDA
:104F500008FB03F3940803F50043E40008991B0CD5
:104F6000A4EB9202B6EB124F03FB03F204D0002332
:104F7000CFF6F0730CE000BF0CF10303A3FB07377F
:104F8000BB08DB00A3EB970303F500431B0C5B435B
:104F900002EB51021A44B2FBF1F13F2261F35E329F
:104FA00040F20941C8F20211A2FB011291094843E3
:104FB00000F5FA7344F6D350C1F26200A3FB00126D
:104FC0006FF00F0101EA9201DDF824C001F5FA72D9
:104FD0000EF120018C094FF0804500BF2946A54203
:104FE00013D9B4EB910F0FD2B4EB111F3ED2B4EB37
:104FF000911F4FEA1125F1D38909A2FB00024FF05E
:10500000000039B93BE000BF8908A2FB00024FF065
:105010000000A1B3461801EB5005B44238BF450863
:1050200088082BD0A61B38BF26462C1800EB55004D
:10503000A64238BF68080D0921D0341B38BF34465A
:10504000461905EB5005B44238BF450888091BD006
:10505000A61B38BF26462C18341B00EB550038BF62
:10506000344638BF6808090AD4D108E00909A2FB10
:10507000000200294FF00000CCD100E02846B3F533
:10508000FA4F05D2002208E02846B3F5FA4FF9D3CB
:1050900091090EEBD212B2FBF1F24FF0804300BF48
:1050A000194693420FD9B2EB910F0BD2B2EB111FFD
:1050B00038D2B2EB911F4FEA1123F1D389090027AF
:1050C00021B938E089080027A9B300BF7E1801EB99
:1050D0005703B24238BF7B088F0829D0961B38BFD0
:1050E0001646DA1907EB5307964238BF5F080B09DB
:1050F00021D0B21A38BF3246FE1803EB5703B24232
:1051000038BF7B088F0915D0961B38BF1646DA19B1
:10511000B21A07EB530738BF324638BF5F08090A97
:10512000D4D108E0090900270029CFD103E000BF4E
:105130001F4600E01F46B84238BF07460020CCF8A3
:105140000070BDE8F08100002DE9F04F8BB00C46F7
:10515000D1E903780DF12A011E4615468146FFF775
:10516000A5F948B99DF82A1031B1D9F82000A18AD3
:1051700048438030000A02E0BA4610B9002000EB34
:10518000070A0DF12B014846FFF790F9C0B99DF8C9
:105190002B10A9B1D9F82000A18ACDE907754843A1
:1051A0008030000A4FF47A7148430996B0F5481FE1
:1051B00028BF4FF448100021A1EB400008E000BFD9
:1051C00010B10BB0BDE8F08F0020CDE9077509964E
:1051D000049099F8E00042F60071C0F23A0100FB39
:1051E00001F244F6D35502F5FA72C1F26205A2FB50
:1051F000052399F8E820D9F8DCE0514301F5FA716C
:10520000A1FB05124FF47A71D9F8E4B00EFB01F658
:105210009F0906EBD3130BFB01F6B3FBF7F39709DA
:1052200006EBD212B2FBF7F24FF4C057082802EB9C
:10523000030008BF4FF48057784300F5F870A0FBD7
:1052400005020AFB01F000F5004C900940F277617D
:10525000484300F5FA705FEA1C41A0FB052039D0F5
:105260004FF47A7208FB02F24FEA90180AF18000BC
:105270004FF6FF7320F0FF06000A9A4308FB00F088
:105280008030B2FBF1F146F26663050AC0F26603B4
:10529000994238BF0B4605EB45018900B0F5807F88
:1052A0004FF0804038BF0C21069600BF054688426B
:1052B0001FD9B1EB950F1BD2B1EB151F54D2B1EB37
:1052C000951F4FEA1520F1D3AD094FF416729DB921
:1052D0004FE000BF48F2AE700899C0F28F2008601E
:1052E0000999C9F84001002008600BB0BDE8F08FB3
:1052F000AD084FF41672E5B3002200BF501905EB5C
:105300005207814238BF5708AA0825D0081A38BF6B
:105310000846B91802EB5702884238BF7A082F09AD
:105320001BD0411A02EB070638BF014607EB5207B4
:10533000B14238BF5708A8090ED08A1B38BF0A46A9
:105340003918511A38BF114600EB570238BF7A0896
:105350002D0AD3D101E000BF3A46C2464FEA4208C7
:105360004FF4167208E000BF2D09002D4FF416729D
:10537000C2D1C2464FF00008207E03FB02F54FF475
:10538000803378BB4FF6FF7004992CEA000001448B
:1053900044F6D35701F5FA71C1F26207A1FB071277
:1053A00000F5F870A0FB0701208949F69A17C0F2B2
:1053B0000607784347F65137C3F2C677A0FB0707C5
:1053C0006FF0FC0000EA82008909B0FBF1F0B90A35
:1053D000A3EB0020484300F50040400C00F50040DE
:1053E0004043830B4FF44870584305F5004100F5E6
:1053F0000040090C000C494300FB00114FF08040B5
:10540000044688420FD9B1EB940F0BD2B1EB141FB5
:1054100048D2B1EB941F4FEA1420F1D3A4090595AB
:1054200024B943E0A408002C05953FD0002200BF1A
:10543000101904EB5207814238BF5708A20825D043
:10544000081A38BF0846B91802EB5702884238BF1D
:105450007A0827091BD0411A02EB070638BF01461C
:1054600007EB5207B14238BF5708A0090ED08A1B7C
:1054700038BF0A463918511A38BF114600EB570297
:1054800038BF7A08240AD3D101E000BF3A4610049D
:1054900048F21F513030C5F2EB11A0FB0101480961
:1054A00005E000BF2409002C0595BFD10020B0FB0A
:1054B000F8F041F2883140F6B53200FB021041F2BB
:1054C0005971CDF2B711A0FB01010EEB0B0044F6B0
:1054D000D35E00F5FA70C1F2620EA0FB0E024FF42B
:1054E000C8174FEA5138910907EBD212B2FBF1F11C
:1054F000DDF824C0079A4FF0804000BF074688427D
:105500000FD9B1EB970F09D2B1EB171F08D2B1EB4E
:10551000971F4FEA1720F1D3BF0902E0BF0800E050
:105520003F09B8F5704F28BF4FF4704877B3002596
:10553000EE1907EB5500B14238BF6808BD0827D007
:105540008C1B38BF0C46411905EB50058C4238BF07
:10555000450838091FD0611A05EB000638BF2146FF
:1055600000EB5504B14238BF6C08BD0912D08E1B48
:1055700038BF0E466119711A05EB540538BF314624
:1055800038BF65083F0AD3D105E000BF002109E01C
:10559000054600E025464FF4FA7101EB0521A1FB19
:1055A0000E10810908FB08F001FB0101DDF820E085
:1055B0004FF0804738468F420FD9B1EB900F0BD296
:1055C000B1EB101F3AD2B1EB901F4FEA1027F1D385
:1055D000800918B935E000BF800890B3002700BFEC
:1055E0003E1800EB5704B14238BF7C0887082BD027
:1055F0008D1B38BF0D46E11907EB54078D4238BFAC
:105600006708040923D0691A07EB040638BF294646
:1056100004EB5705B14238BF7D08870916D08E1BB1
:1056200038BF0E46E919711A07EB550738BF3146E6
:1056300038BF6F08000AD3D109E000BF0009002875
:10564000CCD1002006E000BF274600E02F464FF4F3
:105650007A70784348F2AE71C0F28F21884238BF29
:1056600001464FF44870CEF80010C9F84011009080
:1056700005980699CDE9010A4846CDF80CC0FFF718
:105680003DFC00200BB0BDE8F08F00002DE9F04F8D
:10569000ABB0044694F8F0800020B8F1070F2790D3
:1056A000269000F0B2848B462046802101220127FB
:1056B000FFF7BEFB05462046FF210122FFF7B8FB9E
:1056C00005432046002100224FF00009FFF7B0FB00
:1056D00005432046FF210622FFF7AAFB05430DF1F3
:1056E000AA0220468321FEF753FF9DF8AA10054326
:1056F00041F0040220468321FFF79AFB0543204630
:10570000FF210722FFF794FB054320468121012258
:10571000FFF78EFB05432046FEF734FF0543204686
:1057200080210122FFF784FB27EA080101EA0B012F
:10573000012945EA00061C91CDE91D8B22D12046A6
:1057400094216B221F96FFF773FB1B902046832149
:105750000022FFF76DFB0546E0B900270DF1850635
:10576000204683213246FEF713FF9DF8851005463B
:10577000084300060AD10137B7F5FA6FF0D1F925D1
:1057800008E000BF00201A90A3E000BFB7F5FA6F51
:1057900028BFF925204683210122FFF749FB1990F4
:1057A00029AA20469021FEF71DFFDDF8A48018905D
:1057B000204694212422FFF73BFB179020468321AB
:1057C0000022FFF735FB0646C0B900270DF1850919
:1057D000204683214A46FEF7DBFE9DF885100646EB
:1057E0000843000606D10137B7F5FA6FF0D1F92664
:1057F00004E000BFB7F5FA6F28BFF926C8F306200A
:105800001A90C8F3C0302090204683210122FFF770
:105810000FFB169029AA20469021FEF7E3FE299956
:105820008046080E0290080C0390080A0591049027
:10583000204694212522FFF7FBFA8146204683214A
:105840000022FFF7F5FA8246C8B900270DF1850B53
:10585000204683215A46FEF79BFE9DF8851082461E
:105860000843000606D10137B7F5FA6FF0D14FF0C3
:10587000F90A04E0B7F5FA6F28BF4FF0F90A20469D
:1058800083210122FFF7D4FA074629AA2046902156
:10589000FEF7A8FE1B99199A29431143189A114340
:1058A000179A1143169A3143114341EA080141EA1C
:1058B000090141EA0A013943084329991F9EDDE99C
:1058C0001D8B0643080EDDF880900090080C012720
:1058D000019008F0020087EA500000EA5B0001280E
:1058E000CDF880901B9040F0C78120469421022281
:1058F0001F96FFF79DFA1990204683210022FFF79B
:1059000097FAB8B900260DF1850500BF204683211E
:105910002A46FEF73DFE9DF885100143090605D194
:105920000136B6F5FA6FF1D1F92003E0B6F5FA6F5A
:1059300028BFF9201890204683210122FFF778FA2A
:1059400017900DF1A30220469021FEF721FE16903C
:10595000204694217B22FFF76BFA15902046832185
:105960000022FFF765FA8146C8B900270DF18505C9
:10597000204683212A46FEF70BFE9DF885108146BE
:105980000843000606D10137B7F5FA6FF0D14FF0A2
:10599000F90904E0B7F5FA6F28BF4FF0F90920467E
:1059A00083210122FFF744FA14900DF1A202204650
:1059B0009021FEF7EDFD1390204694217722FFF70A
:1059C00037FA1290204683210022FFF731FA8346EE
:1059D000C8B900270DF18505204683212A46FEF728
:1059E000D7FD9DF8851083460843000606D1013790
:1059F000B7F5FA6FF0D14FF0F90B04E0B7F5FA6F95
:105A000028BF4FF0F90B204683210122FFF710FA3F
:105A1000119029AA20469021FEF7E4FD29991090C3
:105A2000480E8DF88500C1F386408DF88600C1F3DD
:105A3000C6208DF88700C1F306108DF88800782005
:105A400000EAC1008DF8AA00204694217822FFF7D1
:105A5000EFF90F90204683210022FFF7E9F98046F5
:105A6000C8B900270DF1AB05204683212A46FEF771
:105A70008FFD9DF8AB1080460843000606D1013724
:105A8000B7F5FA6FF0D14FF0F90804E0B7F5FA6F07
:105A900028BF4FF0F908204683210122FFF7C8F9FB
:105AA0000E9029AA20469021FEF79CFD9DF8AA1091
:105AB000299A0D9001EB52708DF88900C2F386503F
:105AC0008DF88A00C2F3C6308DF88B00C2F3062031
:105AD0008DF88C00D0B240088DF88D00402000EA8F
