:020000040800F2
:10000000A812002061020008A5530008292A000850
:10001000A1530008ED0F00081D5800080000000063
:100020000000000000000000000000002156000851
:10003000FD0F000800000000A95300082556000825
:100040007B0200087B0200087B0200087B0200089C
:100050007B0200087B020008011000087B020008F8
:100060007B0200087B0200087B0200087B0200087C
:100070007B0200087B0200087B0200087B0200086C
:100080007B0200087B0200087B02000800000000E1
:10009000000000000000000000000000091000083F
:1000A0007B02000811570008055700087B02000872
:1000B0007B0200087B0200087B0200087B0200082C
:1000C0007B0200087B0200087B020008AD53000899
:1000D0007B0200087B0200087B0200080000000091
:1000E0007B0200087B0200087B0200080000000081
:1000F0000000000000000000000000007B0200087B
:10010000000000007B0200087B0200087B02000860
:1001100000000000000000000000000000000000DF
:100120007B0200087B0200087B020008F10F000838
:100130007B0200080000000000000000000000003A
:100140000000000000000000000000007B0200082A
:100150007B0200087B0200087B0200087B0200088B
:100160007B0200087B020008000000000000000085
:10017000000000000000000000000000000000007F
:10018000000000007B0200080000000000000000EA
:100190007B02000800F002F800F052F80AA090E894
:1001A000000C82448344AAF10107DA4501D100F032
:1001B00047F8AFF2090EBAE80F0013F0010F18BFAD
:1001C000FB1A43F001031847BC7C0100DC7C0100F2
:1001D000103A24BF78C878C1FAD8520724BF30C873
:1001E00030C144BF04680C60704700000023002445
:1001F00000250026103A28BF78C1FBD8520728BF37
:1002000030C148BF0B60704766290AF02780642917
:1002100000F02281002070471FB509F0DEFF00F0DA
:1002200055FD04000020002109F0D4F9401C606055
:100230000020002109F0B8F9E0601FBD10B510BD25
:1002400000F091FE1146FFF7E7FF05F0D5FE00F044
:10025000BDFE03B4FFF7F2FF03BC00F0C1FE0000D7
:100260000948804709480047FEE7FEE7FEE7FEE74A
:10027000FEE7FEE7FEE7FEE7FEE7FEE70448054986
:10028000054A064B70470000F1560008950100082A
:10029000A80C0020A8120020A80E0020A80E002004
:1002A00070B50446051F00F035FA0068002C14BF35
:1002B000446870BD002C18BFAC423CBF2046646847
:1002C000F8D301680A18AA4218BF456003D12A680A
:1002D00005461144016028684119A1421CBF6C60A9
:1002E00070BD6168696021680844286070BD53EA88
:1002F000020C00F069802DE9F04B4FF00006002B56
:100300001FBFB3FA83F503FA05F424FA05F65E403D
:1003100012BF1643B2FA82F502FA05F4C5F12005C0
:100320001EBF22FA05FC44EA0C04203556EA044CB0
:100330004FEA144418BF641C4FF000084FF0000946
:10034000904271EB030C39D3002919BFB1FA81F740
:1003500001FA07F6B0FA80F700FA07F6C7F12007AE
:100360001EBF20FA07FC46EA0C062037B6FBF4FC59
:10037000A7EB0507103F07F01F0BCBF120062CFA67
:1003800006F60CFA0BFB44BFB3460026202FA4BF91
:100390005E464FF0000B5BEA060C08BF4FF0010B06
:1003A00019EB0B0948EB0608ABFB027C06FB02CC01
:1003B0000BFB03CCC01B71EB0C01C1E70B460246E3
:1003C00041464846BDE8F08B13B5084318BF4FF0CF
:1003D000FF300146AFF30080BDE81C4070470000CD
:1003E0000FB41CB5074B06AA7B44694600900598DC
:1003F00000F00FFC0020694600F01EFC1CBC5DF8FC
:1004000014FB00004D08000070B5044685690068C3
:10041000C10601D5302600E02026C00707D070BDF8
:10042000D4E9012130469047206A401C20626D1EAD
:10043000F6D570BD70B5044685690078C00707D150
:1004400070BDD4E9012120209047206A401C206221
:100450006D1EF6D570BD00002DE9F0410646002462
:1004600010687529314616A510D0AFF3008000281A
:1004700002DA404213A507E031688A0701D512A5C8
:1004800002E0490704D511A5012401E0AFF3008083
:1004900000210A2206F1240709E0B0FBF2FCB0FBC0
:1004A000F2F302FB1C00303078541846491C002837
:1004B000F3D123462A463046BDE8F04100F03DB96D
:1004C000000000002D0000002B00000020000000B4
:1004D0002DE9F0474FF0000A89460446C0F820A0F5
:1004E0002046E1688847002876D0252806D0D4E940
:1004F00001219047206A401C2062F1E7E168204614
:1005000000258847C4F81CA006460027C4F818A098
:100510002A2E09D0304609F033F838B304EB8708A7
:10052000303EC8F8186019E059F8041B204604EB67
:1005300087029161E1688847012F064618D1E0697A
:10054000002820DA25F020051DE0D8F8180000EB7F
:10055000800006EB40003038C8F818002046E168FB
:100560008847064609F00CF80028EED1012F0AD082
:100570002E2E08D12046E16888477F1C0646022FB0
:1005800045F02005C4DBA069002803DA404245F0AD
:100590000105A061E80701D025F01005B6B1A6F16C
:1005A0004100192802D8203645F400654A463146F4
:1005B000204625604D46FFF727FE58B1012806D09A
:1005C000ED1D25F0070000F1080989E704E005F1B9
:1005D000040985E730468AE7206ABDE8F08770B5F0
:1005E000064600F09BF80468054630460A220021C2
:1005F00000F027FB2C6070BD4FF000020429C0F012
:10060000128010F0030C00F01B80CCF1040CBCF144
:10061000020F18BF00F8012BA8BF20F8022BA1EB96
:100620000C0100F00DB85FEAC17C24BF00F8012B7B
:1006300000F8012B48BF00F8012B70474FF0000273
:1006400000B5134694469646203922BFA0E80C50C8
:10065000A0E80C50B1F12001BFF4F7AF090728BFA3
:10066000A0E80C5048BF0CC05DF804EB890028BF1F
:1006700040F8042B08BF704748BF20F8022B11F048
:10068000804F18BF00F8012B7047000000000000E9
:1006900030B44FF0013C50F8042B51F8043BCCFA35
:1006A00052F4D51A20D1FCB950F8042B51F8043B70
:1006B000CCFA52F4D51A17D1B4B950F8042B51F82A
:1006C000043BCCFA52F4D51A0ED16CB950F8042B75
:1006D00051F8043BCCFA52F4D51A05D1002CDAD0EB
:1006E00030BC4FF00000704729BAB1FA81F111F027
:1006F0001801D1F120008440F2D1CA40CB4012F061
:10070000FF0213F0FF0330BCD01A704770477047E8
:1007100070470000004870473000002000487047D4
:100720002800002010B5FFF7F9FF006810BD10B5D4
:100730000446FFF7F3FF046010BD2DE9F0470D46B6
:1007400099469246044600F124080168880604D5BB
:10075000E06921F01001216000E00120A84201DDE4
:10076000471B00E00027A1697A1902EB0900081A6B
:10077000A0612078C00602D42046FFF745FE00267F
:1007800008E0D4E901211AF806009047206A401CCD
:10079000761C20624E45F4DB2078C0060AD5204640
:1007A000FFF732FE06E0D4E9012130209047206AAD
:1007B000401C2062381EA7F10107F4DC07E0D4E9F1
:1007C000012118F805009047206A401C2062281E6D
:1007D000A5F10105F3DC2046FFF72CFE207800068A
:1007E00002D50220BDE8F0870120FBE72DE9FF4F8D
:1007F0000C461E464FF0FF378BB0D2E90001DDF802
:1008000060800A908A46C1F30A5505B93D46002129
:1008100008464FF00000BAF1000F00F4400005DA7E
:1008200000EB80004FF4400101EA50004FEA90597C
:10083000B9F1010F00DDB9460A9850EA4A000ED01E
:1008400044F61050A5F2FF3545432F14B8F1000FC0
:100850001ED07542291E1EDDC9F100021CE0B8F150
:10086000010F4FF0000001D0302103E0F24305E01A
:100870002154401CB042FBDB3046002200212154B1
:100880000B99C1F80880C1E900200FB0BDE8F08FD6
:10089000BD1B6D1CDEE74A4600DA694206A800F07F
:1008A000EFFA06AB93E8070003AB83E80700504676
:1008B0000A9907F0A7FD8DE80700A0F500501F3842
:1008C00000900398002D0ADD42F21F014A460844B9
:1008D000002303A90390684608F010F809E0A0F58A
:1008E00000504A461F38002303A90390684608F0C9
:1008F0001AF88DE807000004000C03D04FF0FF3019
:10090000410800E01046B8F1000F03D00022009229
:1009100015461EE0751E05D400F0DCF93032625534
:100920006D1EF9D5B3460122084302D000227F1C78
:1009300004E02078302801D100227F1E002A099788
:1009400084D01DE0112D07DA00F0C4F93032625571
:100950006D1C50EA0102F5D1084302D00098C8B1DD
:100960000EE00021681E05E0235C625C63542254A3
:10097000401E491C8142F7DBAB46A81B401E099074
:10098000002004F80B000B98099AC0F80880C0E911
:10099000002B7AE711264FF0000857E72DE9F04FBA
:1009A00088460446D21D22F0070191B0D1E900012A
:1009B000CDE90A0108F0EEF802460B98C00F01D00D
:1009C0002D2007E02068810701D52B2002E020219F
:1009D00001EAC000032A099001D0072A05DB03467B
:1009E0004146204600F0BCF90BE12078800601D595
:1009F000E06900E00620B8F1650F814606D0B8F145
:100A0000660F18D0B8F1670F70D131E00020B9F14E
:100A1000110F009001DB112301E009F101030AAA83
:100A200001A90CA8FFF7E2FEDDE90C70002609F130
:100A30000105834647E001204B4600904FF00047F8
:100A40000AAA01A90CA8FFF7D1FEDDE90DB00C99A7
:100A50005D46002610B909F101000D18B9EB05003B
:100A600003D4C0F1FF3609F10105A5EB09002BE025
:100A7000B9F1010F01DA4FF001090020B9F1110FAE
:100A80000090484601DD112300E003460AAA01A9AF
:100A90000CA8FFF7ABFEDDE90C704D46002683463F
:100AA000207800070AD4AB4500DA5D4601A8012D85
:100AB00004DD411911F8011C302907D04F4502DA35
:100AC00017F1040F04DA012082460FE06D1EEEE7F5
:100AD000002F02DCED1B3E4403E0781CA84200DD41
:100AE0007D1CB81B00F1010A4FF000472078000779
:100AF00003D4AA4501DB4FF0FF3A0021B7F1004FC4
:100B00000DF143088DF8431024D002202B23002F31
:100B100001DA7F422D230A21021EA0F1010000DC30
:100B20005FB197FBF1FC97FBF1F201FB1C7C1746D0
:100B30000CF1300C08F801CDEEE7A8F101000370CC
:100B40002188090501D5452100E06521A0F10108B2
:100B500000F8011C09980FA9A1EB0807FF1D00B1BF
:100B60000120411901EBEA70A1693844081A401EBE
:100B7000A0612078C00602D42046FFF745FC099802
:100B800028B1D4E901219047206A401C20622078D6
:100B9000C00622D52046FFF737FC1EE0002E04DBFE
:100BA000B34502DD01A8805D00E03020D4E90121D9
:100BB0009047206A401C2062761CAAF101005FEA7F
:100BC000000A0AD100F082F8C0680168405CD4E9EC
:100BD00001219047206A401C2062281EA5F10105D2
:100BE000DCDC07E0D4E9012118F8010B9047206A0A
:100BF000401C2062381EA7F10107F3DC2046FFF7F6
:100C000019FC032011B041E601694A1C0261087811
:100C1000704700B58FB0CDE901310021059105493C
:100C20007944CDE9031011466846FFF751FC0FB037
:100C300000BD0000E5FFFFFF0A6802F8010B0A6033
:100C400070472DE9F04791460F468046044600263E
:100C500014F8015B2DB100F031F80068405DC00769
:100C6000F6D12B2D02D02D2D18D0641E4A463946C0
:100C7000204600F0B5F827B13968A14201D1C7F884
:100C800000804FF0020471050BD54042002803DDBF
:100C9000FFF744FD0460A007BDE8F08746F48066D6
:100CA000E4E70028F8DAFFF739FD04606FF0004050
:100CB000F2E70000004870472800002010B500F05F
:100CC00005F8001D10BD00BF0D89000000487047E9
:100CD0004800002030B5B0F10A0271F100034FEA7C
:100CE000900E4EEA817EB0EB0E0061EB91014FEA6F
:100CF000101E4EEA017E10EB0E0041EB11114FEA7F
:100D0000102E4EEA016E10EB0E0041EB11214FEA5E
:100D1000104E4EEA014E10EB0E0041EB114140180F
:100D200041F100014FEAD00040EA41704FEAD101A1
:100D30004FEA810444EA907410EB800544EB01040F
:100D40006D1944EB0404521BA3414FF0000348BF4C
:100D50000A3200D530BD401C41F1000130BD000019
:100D60002DE9F0411F46044603260168072A01F4D5
:100D7000006004DB08B116A505E016A503E008B184
:100D800015A500E015A521F010002060A069C01E87
:100D9000A0610FB1401EA0612046FFF735FB4FB1A7
:100DA000D4E9012138469047206A401C2062C01CCB
:100DB000206206E0206AFAE7D4E9012115F8010B68
:100DC0009047761EF8D22046FFF734FBBDE8F0814D
:100DD0004E414E006E616E00494E4600696E6600DF
:100DE0002DE9F05F824615468B4600270AF1010483
:100DF000B9460078302801D09DB113E014F8010BFA
:100E00000127782803D0582801D045B10AE00DB158
:100E1000102D07D1002714F8010B102502E008253A
:100E200000E00A250026B0460EE005FB080005FBA1
:100E300006F101271FFA80F801EB1046B6F5803F56
:100E400000D3B94614F8010B294600F0B1F8002888
:100E5000EBDABBF1000F05D00FB1641E00E0544681
:100E6000CBF80040B9F1000F06D0FFF757FC022184
:100E70000160C81EBDE8F09F48EA0640FAE700009E
:100E80002DE9F047814616468AB0354878440DC8AA
:100E90008DE80D0032487844801C03AC0DC884E80E
:100EA0000D0041F69B300844372190FBF1F290FB96
:100EB000F1F5A5F1800501FB12041B3C02D564424B
:100EC000012000E00020DFF898A080460027FA44C7
:100ED000AAF1BE0A0EE0E0070AD03246684607EBE8
:100EE000470101230AEB810107F01DFD8DE8070092
:100EF00064107F1C002CEED1194F7F44AE3F19E0E7
:100F0000E80715D007EB04100DF1180A90E80E0061
:100F10008AE80E00C068F04201D198190890324664
:100F2000012306A903A807F0FEFC03AB83E8070032
:100F30006D10641C002DE3D14FF001033246694669
:100F4000B8F1000F03A802D007F0D8FC01E007F0C9
:100F5000EAFCC9E90001C9F808200AB0BDE8F08739
:100F60007495000070477546FFF7A4FEAE46050075
:100F70006946534620F00700854618B020B5FFF7B4
:100F80007DF9BDE820404FF000064FF000074FF01C
:100F900000084FF0000BAC46ACE8C009ACE8C00953
:100FA000ACE8C009ACE8C00921F007018D467047E4
:100FB0003A2800D2303820F02002412A01D3A2F191
:100FC0003700884201D34FF0FF30704710B5044618
:100FD000AFF300802046BDE81040FFF73AB90000AB
:100FE00001491820ABBEFEE726000200FEE7000024
:100FF00040F22420C2F2000000F05CB9704700000B
:10100000012000F027BC0000802000F023BC00007D
:1010100072B600BFFEE7000080B543F61043C4F28D
:101020000203D3F800C04FF4407E2CF440721A60E3
:101030001A68032938BF4FEA012E42EA0E011960EF
:10104000196821F0F8011960196841EAC00040F000
:1010500002001860186840F48030186080BD0000FD
:10106000F0B581B040F61037044643F60C46C2F2A4
:1010700000070020C4F20206F86100F0DFFC3168CE
:10108000C9031DD43068C0071CBF01203060306820
:1010900010F4F97F30D03068C00635D4306880064F
:1010A0003BD43068400641D43068000647D43068ED
:1010B000C0054DD43068800754D4012001B0F0BD84
:1010C000F4B10546601C0DD13068C003DAD5306834
:1010D000C00344BF30685FEAC030D3D53068C00376
:1010E000F2D4CFE700F0AAFC401BA04208D8306839
:1010F000C003F7D4C6E700BF002001B0F0BD00BFB9
:10110000032001B0F0BD00BFF86940F01000F861A5
:101110001020306030688006C3D5F86940F00800C0
:10112000F8612020306030684006BDD5F86940F095
:101130000400F8614020306030680006B7D5F869D7
:1011400040F00200F861802030603068C005B1D501
:10115000F86940F00100F8614FF480703060306849
:101160008007AAD5F86940F02000F86102203060BD
:10117000012001B0F0BD000070B5531C032A03F03C
:10118000030C01D2002315E06FF0060202EA430EC1
:1011900000220023845A85188C526C888E18748023
:1011A000AC880832B480EC88964503F10403F480DF
:1011B000F0D11144BCF1000F08BF70BD30F813200E
:1011C000BCF1010F0A8008D000EB43004288BCF15B
:1011D000020F4A801CBF8088888070BDF0B581B046
:1011E00016460D46044600F0F5FA04F1784043F641
:1011F000FF72002790424FF000002DD304F174409D
:1012000000F17F7101F57030904201D2012023E09E
:1012100001F5603243F6FF70824201D202201BE0EA
:1012200001F55032824201D2032015E001F5403031
:101230004FF6FF72904201D204200DE04FF6FF728C
:10124000C0F2010201F50030904201D2052003E016
:101250000720914238BF06200221FFF7DDFE0A2059
:1012600000F00AFAA7EB4606023D00BF35F8022F50
:1012700001202146002300F01DFA0236022E04F15F
:101280000204F3D101B0BDE8F04000F009BA00005B
:1012900090F83510022909D1052180F83510006831
:1012A000016821F001010160002070478021416543
:1012B00001207047F0B581B004460020009040F254
:1012C0001400C2F200000268D4E9166048F2B513B7
:1012D00037680821C1F64E3381403942A2FB03250D
:1012E0000CD0226813685B0708D5136823F0040349
:1012F0001360B160616D41F00101616501218140C0
:10130000394208D022685269120604D5B160616D75
:1013100041F00201616504218140394208D0226810
:101320001268920704D5B160616D41F004016165F6
:1013300010218140394217D020680268120713D566
:10134000B16002680168520308D4C90508D4016875
:1013500021F008010160216C21B905E008033FD4A8
:10136000216C09B120468847E16D202000FA01F286
:101370003A4241D020680368DB063DD5B26094F85C
:1013800035300268052B1BD122F01602026042693B
:1013900022F080024261226C0AB9A26C1AB1026882
:1013A00022F0080202603F208840B060012084F8EB
:1013B0003500216D0020002984F8340052D157E017
:1013C0000168520310D4C90512D4016821F010013C
:1013D0000160012084F83500002084F8340007E023
:1013E000A16C0029BED1BFE7080301D4616C00E005
:1013F000E16B09B120468847606DC8B3606DC007D6
:101400002ED0052084F835002068A90A026822F051
:1014100001020260009A01328A4200921AD80268E0
:10142000D20717D0009A01328A42009212D802687D
:10143000D2070FD0009A01328A4200920AD802687D
:10144000D20707D0009A01328A42009202D802687D
:10145000D207DFD1012084F83500002084F8340061
:10146000E16C29B1204601B0BDE8F040084700BF5B
:1014700001B0F0BD2DE9F041044600F0DFFAECB117
:101480000546022084F835000020216884F83400E5
:10149000086820F00100086021680868C00711D0C2
:1014A00000F0CCFA401B0528F6D9032520230320A1
:1014B000636584F83550BDE8F08100BF0120BDE8C8
:1014C000F08100BF086848F23F02CFF21002D4E971
:1014D000013500EA020C04F10C0898E8C10143EA66
:1014E0000C032B431843D4E9072E304338431043F1
:1014F000626A40EA0E00042A40EA08031CD1206B0D
:10150000D4E90A2E40EA0E00184308604869BEF18B
:10151000000F20F0030040EA020040F0040C11D05C
:10152000B8F5005F36D0B8F1000F45D1022A46D099
:10153000012A3BD032B942E00B60486920F0070035
:1015400040EA020C01F0F8004AF6AB221038CAF665
:10155000AA22A0FB02231A094BF64453C0F600034B
:101560009A5C40F2FF335F284FF03F00C1F814C08F
:1015700021EA030100FA02F088BF0431C4E916121F
:101580008860002301250020636584F83550BDE89C
:10159000F08100BF032AD5D8012540230120DFE8D0
:1015A00002F0030E030500BF82E700BFAEF1C0707A
:1015B000B0FA80F0400904E0032A04D3C2D1CEF38C
:1015C00000600028BED0012540230120636584F817
:1015D0003550BDE8F081000070B590F834C0BCF122
:1015E000010F46D04FF0010C80F834C0D0F858E01D
:1015F00090F835C0BCF1010F38D14FF0020C80F8E3
:1016000035C04FF0000CC0F854C0D0F800C084685A
:10161000056CC06DDCF80060402C26F48026CCF808
:101620000060CCF804300B4604BF13460A463F2145
:1016300001FA00F0CCF80830CCF80C20CEF8080005
:10164000DCF8000040F01600CCF800002DB1DCF80A
:10165000000040F00800CCF80000DCF8000040F08A
:101660000100CCF80000002070BD00BF002180F810
:101670003410022070BD0000B0B5044600F0DEF961
:10168000054640F20000C2F200000078611C18BF5D
:10169000044400BF00F0D2F9401BA042FAD3B0BD11
:1016A00043F61041C4F20201086840F000420020F5
:1016B0000A6070472DE9F04381B040F61034C2F261
:1016C00000049046227E012A04D1022001B0BDE828
:1016D000F08300BF0746012020764CF250301E46B2
:1016E0000D46FFF7BDFC28B10021217601B0BDE811
:1016F000F08300BF43F61049022FC4F2020917D04D
:10170000012F2BD0002F3FD1D9F8000020F44070DA
:10171000C9F80000D9F80000C9F80000D9F80000A5
:1017200040F00100C9F8000085F8008043E000BFE8
:10173000D9F8000020F44070C9F80000D9F8000082
:1017400040F40070C9F80000D9F8000040F0010032
:10175000C9F80000C5F800802DE000BFD9F80000EE
:1017600020F44070C9F80000D9F8000040F48070FF
:10177000C9F80000D9F8000040F00100C9F80000E5
:10178000A5F8008017E000BFD9F8000020F44070F1
:10179000C9F80000D9F8000040F44070C9F8000012
:1017A000D9F8000040F00100C9F80000C5F8008039
:1017B000BFF36F8F6E604CF25030FFF751FCD9F8D9
:1017C000001021F00101C9F800100021217601B0BC
:1017D000BDE8F08343F60440C4F20200C168B1F1F1
:1017E000FF3FC4BF0020704740F22311C4F267518D
:1017F000016048F6AB11CCF6EF510160C068C00F34
:101800007047000080B5802812D0012818BF80BD25
:101810000020C4F20200022100F0FCF8014640F270
:101820000820C2F20000BDE8804004F09FB900BF6C
:101830000020C4F2020000F58060402100F0EAF8C8
:10184000014640F21420C2F20000BDE8804004F0DE
:101850008DB9000043F61441C4F201010A68024246
:1018600014BF08607047FFF7CDBF00002DE9F04FAF
:1018700082B000F13E4241F2000502F1FF77C4F26E
:101880000205072243F6004E4FEAB726A84208BFDA
:101890000422C4F2010E042E38BF4FEAB7220125FC
:1018A000002600274FF00008009208E008F1010828
:1018B0000437B8F1100F06F1020600F0A7800C689B
:1018C00005FA08F914EA090FF0D0D1F804B00322A0
:1018D0000BF0030CACF10104B240012C6FEA020AD8
:1018E00010D88268CC6802EA0A02B44022438260BF
:1018F0004268CBF3001422EA090204FA08F42243F6
:10190000426005E0BCF1030F02D14FF0030C20E070
:10191000C2688C6802EA0A02B4402243BCF1020F9A
:10192000C26016D16FF0030202EA58020244D2F8F4
:1019300020C007F01C050F230C69AB402CEA030301
:1019400004FA05F52B431362D1F804B001250BF01E
:10195000030C02680CFA06F302EA0A021A431BF4AB
:10196000403F0260A2D0002243F644030192C4F239
:1019700002031A684FF6084C42F480421A601A6853
:10198000CFF6FF7C02F480420192019A28F0030214
:10199000724452F80C3007F00C050F24AC40A343FE
:1019A000009C04FA05F52B4342F80C30DEF80820C1
:1019B0004B6842EA090543F60C4CDC0258BF22EAA8
:1019C0000905CEF80850C4F2010CDCF800209C0296
:1019D00042EA090558BF22EA0905CCF80050DEF8B2
:1019E00004209C0342EA090558BF22EA0905CEF803
:1019F0000450DEF80020DB0342EA090558BF22EA62
:101A00000905CEF80050012550E700BF02B0BDE83F
:101A1000F08F00000069084018BF012070470000E7
:101A2000426902EA0103914341EA0341816170473F
:101A3000002A08BF090481617047000040F6A040F9
:101A4000C2F200000068704740F2000040F6A0417A
:101A5000C2F20000C2F2000100780A681044086077
:101A60007047000080B543F60040C4F202000168F0
:101A700041F400710160016841F480610160016816
:101A800041F480710160032000F088F80F2000F01D
:101A900005F800F027F8002080BD000070B540F286
:101AA0000006C2F2000640F214013278C2F20001D0
:101AB0004FF47A730968B3FBF2F20446B1FBF2F11A
:101AC000084600F025FE0F2C4FF0010508D838B964
:101AD0004FF0FF3021460022002500F033F87460FB
:101AE000284670BD82B0002043F640010190C4F248
:101AF00002014A6842F480424A604A6802F4804225
:101B00000192019A0090086840F0805008600868CF
:101B100000F080500090009802B07047002848BF45
:101B20007047C1B200F01F00012202FA00F04EF22D
:101B30000012CEF2000242EAD10121F00301086056
:101B40007047000010B54EF60C5CCEF2000CDCF8CD
:101B50000030C3F3022E8EF00704042C28BF0424A7
:101B6000BEF103034FF0FF3E0EFA04F438BF00232A
:101B7000A14399400EFA03F39A43114300F00F0278
:101B800000F160430901043A03F56443624400280C
:101B900048BF02F10C03197010BD00004EF60C5145
:101BA000CEF200010A684FF6FF031A4060F30A22E2
:101BB00042F0806040F0FD70086070472DE9F04110
:101BC000002800F08B8043F60808C4F2020804469F
:101BD000D8F8F8030D4600F00700884207D288F8CD
:101BE000F853D8F8F80300F00700A84276D120682F
:101BF000810717D5410705D5D8F8001041F4E05109
:101C0000C8F80010010705D5D8F8001041F460416C
:101C1000C8F80010D8F80010A26821F0F0011143B4
:101C2000C8F80010C0073FD1D8F8F80300F007004B
:101C3000A84207D988F8F853D8F8F80300F007004D
:101C4000A8424BD12068410707D5D8F80010E268B8
:101C500021F4E0511143C8F80010000708D5D8F866
:101C60000000216920F4604040EAC100C8F800008B
:101C700000F054F8D8F800104AF21C42C1F30311E6
:101C8000C0F60002515C40F2140220FA01F140F269
:101C90000400C2F200000068C2F200021160FFF707
:101CA000FDFE0020BDE8F0816068811E022907D298
:101CB00058F8081C89015CBF0120BDE8F08111E0E3
:101CC000012807D158F8081C89035CBF0120BDE832
:101CD000F08107E058F8081C890703D40120BDE80B
:101CE000F08100BFD8F8001021F003010843C8F8C4
:101CF0000000FFF7A3FE064641F28837D8F800003F
:101D0000616800F00C00B0EB810F8DD0FFF796FEFC
:101D1000801BB842F2D90320BDE8F08110B543F62C
:101D20000404C4F20204606800F00C0008280BD020
:101D3000042819BF42F20040C0F2F40047F6400008
:101D4000C0F27D1010BD00BF2068216823684902E1
:101D500047F64001C0F27D1100F03F02C3F3881046
:101D60005CBF42F20041C0F2F401A1FB000100237C
:101D7000FEF7BDFA21680222C1F3014102EB4101E5
:101D8000B0FBF1F010BD00002DE9F04182B0002859
:101D900068D00446007843F60006C007C4F2020685
:101DA0000BD0B06800F00C00042840F09F80306831
:101DB000800302D56068002854D0207880071AD5A7
:101DC000B06810F00C0F09D0B06800F00C000828C3
:101DD00040F0A6807068400200F1A2803068800761
:101DE00002D5E06801283DD13068216920F0F80073
:101DF00040EAC10030602078000737D420784007DF
:101E00004CD4A56955B3B06800F00C00082840F028
:101E1000BB80012D26D07068E16900F480028A42FF
:101E200020D1216A00F03F028A421BD147F6C071DF
:101E3000626A0140B1EB821F14D1A16A4FF6FF73B1
:101E4000C903994300F44032A1F580318A4209D197
:101E5000E16A00F07060B0EB016F03D1002002B0C6
:101E6000BDE8F081012002B0BDE8F0816069002882
:101E700040F20000C4F2472076D00121C0F8801E55
:101E8000FFF7DCFD054600BF706F8007B6D4FFF793
:101E9000D5FD401B0228F7D9DDE000BF306C10F003
:101EA00080580AD100200190306C40F0805030649E
:101EB000306C00F080500190019847F20007C4F2A6
:101EC00000073868C00541D4386840F48070386035
:101ED000FFF7B4FD054600BF3868C00536D4FFF7EC
:101EE000ADFD401B0228F7D9B5E000BFB06800F097
:101EF0000C00082803D1706840023FF558AF6068B5
:101F0000B0F5803F07D0B0F5A02F40F08D8030684D
:101F100040F480203060306840F4803030608DE0E4
:101F2000E068002852D00020C4F24720012101605F
:101F3000FFF784FD054600BF306880073FF554AFCA
:101F4000FFF77CFD401B0228F6D984E0A068012839
:101F500005D005284ED1306F40F004003067306F57
:101F600040F0010030674FE00021C0F8801EFFF70D
:101F700065FD0546706F80077FF540AFFFF75EFD9A
:101F8000401B0228F6D966E00027C4F2472700204C
:101F90003866FFF753FD022D05460BD130688001EE
:101FA0005ED5FFF74BFD401B02284FF00300F5D92B
:101FB00055E700BF306880017FF550AFFFF73EFD69
:101FC000401B02284FF00300F4D948E70020C4F278
:101FD000472000210160FFF731FD0546306880078A
:101FE0007FF509AFFFF72AFD401B02284FF00300E1
:101FF000F4D934E7316F002821F001013167316FE6
:1020000021F0040131674DD0FFF718FD054641F27C
:10201000883700BF306F800756D4FFF70FFD401B95
:10202000B842F7D917E000BF3168002821F48031A9
:102030003160316821F4802131604FD0FFF7FEFC20
:10204000054600BF306880033FF5B7AEFFF7F6FCEA
:10205000401B6428F6D9032002B0BDE8F08100BF20
:1020600004F11C052FCD084340EA8210D9034FF636
:10207000FF729143A1F5803140EA0560084370602A
:1020800001203866FFF7DAFC044600BF30688001A3
:102090003FF5E4AEFFF7D2FC001B02284FF003002F
:1020A000F4D9DCE6FFF7CAFC054641F2883700BFE9
:1020B000306F800708D5FFF7C1FC401BB8424FF0D6
:1020C0000300F5D9CBE600BFB8F1000F7FF499AE5D
:1020D000306C20F08050306493E600BFFFF7AEFC18
:1020E000054600BF306880037FF567AEFFF7A6FCAA
:1020F000401B64284FF00300F4D9B0E6704700009D
:10210000B0B582B0044600684168826812F04003AE
:1021100005D112F0010518BF11F0400512D1950745
:1021200008D511F0800505D0616C204602B0BDE8ED
:10213000B040084712F4B07F18BF11F0200507D156
:1021400002B0B0BD216C204602B0BDE8B0400847E7
:10215000BBB194F85130032B08D100210191C16823
:10216000019180680190019802B0B0BD636D43F0A9
:102170000403636500230193C3680193836801939B
:10218000019B12F0200302F4807203D18AB9626DC0
:10219000DAB9D5E7636D43F001036365002301936A
:1021A00083680193036823F040030360019B002AC6
:1021B000EDD0626D42F008026265002201928268F1
:1021C0000192019A626D002ABAD04268890722F012
:1021D000E00242604FF0010284F8512020D04168B3
:1021E00045F2B93521F003014160E06CC0F600050D
:1021F00038B10565FFF74CF818B1606D40F040004C
:102200006065A06C00289BD00565FFF741F80028A9
:102210003FF496AF606D40F04000606502B0B0BD25
:10222000204602B0BDE8B040FFF768BF70B538B1D6
:102230000446406A30B10020206104F1140007E038
:10224000012070BD6068B0F5827F03D004F11C00EE
:10225000002101600026A66294F8510020B92046B2
:1022600084F8506000F03CF8022084F8510094E8B3
:102270000F0001F48271056802F4044225F0400564
:102280000560114403F400622369114403F0020263
:102290006369114403F00102A369E569114403F481
:1022A0000072114405F03802256A114405F08002DD
:1022B000A56A114305F4005211430160626A0421CA
:1022C00001EA134102F0100211444160C16921F496
:1022D0000061C1610120666584F85100304670BD1F
:1022E00070B586B00446016843F20000C4F20100F4
:1022F000814201D006B070BD002643F63001019640
:10230000C4F202014A6900F5504042F480524A6129
:102310004A6902F480520192019A01960A6842F0D9
:1023200001020A60096801F0010101910199E021AF
:1023300001910221CDE902160321049105210591A5
:1023400001A9FFF793FA40F2242546F25840C2F261
:102350000005C4F202004FF0C06140224FF48063D8
:1023600085E847002846C5E90436C5E90666C5E99B
:102370000866FFF77FF8002818BFFEF749FE232004
:1023800000210022A564AC63FFF7DCFB2320FFF7EC
:10239000C5FB06B070BD00002DE9F04184B00446D5
:1023A00090F85000012803D1022004B0BDE8F0816C
:1023B00001201D4616460F4684F85000FFF73EFBED
:1023C00094F8511001290DD18046002F4FF00100E3
:1023D00018BF002E0ED1002184F8501004B0BDE8C3
:1023E000F08100BF0220002184F8501004B0BDE845
:1023F000F08100BF0320002184F85100616527634C
:10240000A686E686A163A187E187A0682164B0F56E
:10241000004F2068616407D1016821F0400101602C
:10242000016841F4804101600168490603D40168F4
:1024300041F0400101606168731EE268B1FA81F108
:10244000B3FA83F349095B09B2F5006F41EA03016E
:102450003CD131B137F8021BC1602763E08E0138EF
:10246000E086E08E00286BD0681C0CD11DE000BF18
:10247000216B31F8022BC2602163E08E0138E086C7
:10248000E08E00285CD0206881688907F0D4FFF7CF
:10249000D5FAA0EB0800A842F2D30320BFE000BFAA
:1024A000FFF7CCFAE08E00284AD0206881688907BF
:1024B000F6D5216B31F8022BC2602163E08E013822
:1024C000E086E08E0028F0D13AE000BF39B13978DB
:1024D0000173206B01302063E08E0138E086E08ECE
:1024E00070B3681C0BD11BE0216B09780173206B62
:1024F00001302063E08E0138E086E08E00B3206872
:1025000081688907F0D4FFF799FAA0EB0800A84288
:10251000F3D3032083E000BFFFF790FAE08E78B199
:10252000206881688907F7D5216B09780173206BD2
:1025300001302063E08E0138E086E08E0028EFD184
:102540002046022101222B46CDF8008002F0D8FF60
:10255000D0B1606D40F02000606520206065A0680B
:1025600038B9002002902068C1680291806802900A
:102570000298606D002851D00120002184F850108D
:1025800004B0BDE8F08100BF40F21400C2F20000C8
:10259000006849F68171C1F25E61A0FB0101480D3E
:1025A0004FF47A71484303906068B0F5827F0BD195
:1025B0002046802100222B46CDF8008002F0A0FFAB
:1025C0000028C6D1CBE700BF03980028C7D00398E6
:1025D00001380390206880680006C0D50398002861
:1025E000BDD0039801380390206880680006B6D5F6
:1025F00003980028B3D003980138039020688068BE
:102600000006ACD503980028A9D0039801380390A0
:10261000206880680006D7D4A1E700BF0020012110
:1026200084F85110002184F8501004B0BDE8F08106
:1026300070B5044690F85000012804BF022070BD18
:10264000012084F8500094F8510001280AD1002993
:102650004FF0010018BF002A0AD1002184F8501061
:1026600070BD00BF0220002184F8501070BD00BF73
:1026700003200023264684F8510046F8543F216386
:10268000A286E286A363C4E91033A387E387A06828
:102690002268B0F5004F07D1106820F040001060AC
:1026A000106840F480401060A06C45F2E53C45F2B3
:1026B000ED35C0F6000CC0F60005C0E90F5C45F230
:1026C000C535C0F60005C0E91353E38E0C32FEF7A2
:1026D00083FF18B1012010210FE000BF2668306889
:1026E000400603D4306840F04000306056F8040FD4
:1026F000022140F020003060002032681143316038
:10270000002184F8501070BD704700007047000031
:10271000411E0020B0EB116F1CBF012070474EF22C
:102720001002CEF2000251604EF62351CEF20001AB
:10273000F0230B7007219060116070477047000014
:1027400070470000002804BF0120704710B5044600
:1027500090F83D0028B9002084F83C00204600F0A5
:102760001FF8022084F83D002068211D02F0D6FFEA
:10277000012084F8460084F83E0084F83F0084F885
:10278000400084F8410084F8420084F8430084F853
:10279000440084F8450084F83D00002010BD00008E
:1027A00010B582B0006844F60001C4F2010188420D
:1027B00016D044F20041C4F2010188422CD100201D
:1027C000019043F64400C4F202000168192441F468
:1027D00000310160006800F40030019001980FE0C2
:1027E0000020009043F64400C4F2020001681A245D
:1027F00041F480210160006800F48020009000987E
:10280000204600210022FFF79DF9204602B0BDE8D6
:102810001040FFF783B900BF02B010BD90F83D1023
:1028200001291CBF01207047022180F83D1000687B
:1028300040F6FF32C168C4F20002904241F001014B
:10284000C1600FDCB0F1804F1DD040F20041C4F2F6
:102850000001884217D040F60001C4F2000188420E
:1028600011D017E040F60041C4F2000188420AD0BE
:1028700044F20001C4F20101884204D00021C4F2F4
:102880000101884206D1816801F00701062904BFD1
:1028900000207047016841F001010160002070478D
:1028A0007047000070B504460068C5680669B10746
:1028B00016D515F0020113D06FF00201016101215C
:1028C00021778069800703D02046FFF7E9FF05E004
:1028D000204600F08FF8204600F08EF80020207788
:1028E000700719D515F0040016D020686FF00401A8
:1028F000016102212177806910F4407F04D02046D5
:10290000FFF7CEFF06E000BF204600F073F8204638
:1029100000F072F800202077300717D515F0080076
:1029200014D020686FF00801016104212177C0698B
:10293000800703D02046FFF7B3FF05E0204600F0F4
:1029400059F8204600F058F800202077F00619D5F5
:1029500015F0100016D020686FF0100101610821F9
:102960002177C06910F4407F04D02046FFF798FF1C
:1029700006E000BF204600F03DF8204600F03CF89D
:1029800000202077F00718BF15F0010002D13006B3
:1029900009D412E020686FF001010161204600F0C7
:1029A0002DF8300609D515F0800006D020686FF0AC
:1029B000800101612046FFF7C1FE700609D515F0C0
:1029C000400006D020686FF040010161204600F011
:1029D00029F8B00658BF70BD15F0200008D0216856
:1029E0006FF0200220460A61BDE87040FFF7A8BEE4
:1029F00070BD0000704700007047000040F22431B5
:102A0000C2F2000100680968884208BF04F0A4BC53
:102A100040F2DC21C2F200010968884218BF704709
:102A200004F092BC70470000FEE700002DE9F04F73
:102A300081B014460A9A012AA8BF012B1BDB0D4660
:102A400083461FFA82F89FB24FEA43094FF0000A0B
:102A5000002600BF06EB0B0034F8162080B2A9B2A6
:102A600000F03EFA0136B742F4D10AF1010A01350D
:102A7000C2454C44ECD101B0BDE8F08F2DE9F04FD8
:102A800003AF81B040F20048C4F202088B4604460E
:102A90004FEA410A404604210122BAF5FA7F28BFD5
:102AA0004FF4FA7BFEF7C4FF404601210022FEF7F7
:102AB000BFFF0BF1070020F00700ADEB0006B546A5
:102AC000BBF1000F17D0200A002100BF8B1C721829
:102AD0005B45705454700ED20B1D5B459070D470E2
:102AE00009D28B1D5B451071547104D208315945D0
:102AF0009071D471EAD3D34512D8BAFBFBF540F2FA
:102B000084291FFA8BF4C2F20009012D98BF012518
:102B10004846314622460A23FFF73EFC013DF7D1E5
:102B2000BAFBFBF0314600FB1BA00A2382B240F245
:102B30008420C2F20000FFF72FFC40460121012251
:102B4000FEF776FFA7F10C04A546BDE8F08F000064
:102B50002DE9F04F87B0074601201C46154600912D
:102B6000A0EB42010022BB464FF0000A0020069075
:102B7000019718E0059A029B524403EB420000289B
:102B80004D461946C4BF013D02310028C8BF1A4452
:102B90000698019F854200F101000AF1020AABF19B
:102BA000010B069048DD02A880E8020CA7EB05089F
:102BB000E819804505921CDC0098069901EB000994
:102BC000A0EB010A680000F1010B00BF1FFA88F6B4
:102BD0001FFA89F13046224600F082F91FFA8AF185
:102BE0003046224600F07CF9BBF1010B08F10108E8
:102BF000ECD10699DDE903AB781A3944A94688423D
:102C0000B8DC00994FF0FF3509EB0108A1EB09078B
:102C1000484600BF013505EB0B0086B21FFA88F16C
:102C20003046224600F05CF9B9B23046224600F048
:102C300057F9AA45EED19DE707B0BDE8F08F000037
:102C4000B0B582B0151AAC46A3EB010448BFC5F17C
:102C5000000C002DDDF818E048BF1046002C25467A
:102C600048BF6542002C48BF19461FFA8CF2ABB230
:102C7000CDF800E000F0F4F902B0B0BD2DE9F04766
:102C800086B00746DDE90E9A10EE100A1E46904601
:102C90000D4607F007FA0DF10E0402460B4608A197
:102CA0002046FDF79DFB204639462A464346CDE99E
:102CB0000069CDF808A000F001FA06B0BDE8F08781
:102CC000252E3166000000002DE9F04F87B0002A64
:102CD00074D004460020A0EB4200009040F00108B0
:102CE00001201D46A2F101094FF0000A012207460A
:102CF000069100BF0699CDE90307514409EB040092
:102D00008EB2059280B231462A46029000F0E8F871
:102D100006990AEB040049448FB280B239462A462C
:102D2000019000F0DDF8A4EB0A001FFA80FB584682
:102D300039462A4600F0D4F8A4EB090087B2384699
:102D400031462A4600F0CCF806982A46A0EB0A0045
:102D500086B23846314600F0C3F806982A46A0EB02
:102D6000090087B25846394600F0BAF8019839464A
:102D70002A4600F0B5F8029831462A4600F0B0F82D
:102D8000DDE90472B8F1010FBCBF0AF1010A023794
:102D9000B8F1010F0398B8BF80440099B8F1000F53
:102DA00002F10200C4BFA9F101090246B8F1000F07
:102DB0000144C8BF8844D14538469BDA07B0BDE816
:102DC000F08F00002DE9F0470446DDF820A0101A2E
:102DD0000F4648BF404285B2984691465E1A20464B
:102DE00039462A46534600F023F8204641462A46F3
:102DF000534600F01DF8002E48BF7642B5B220467B
:102E000039462A46534600F035FA484639462A469E
:102E1000534600F02FFAA14508BFB84506D04846F2
:102E200041465246BDE8F04700F05AB8BDE8F08789
:102E300080B582B00244013A09B29C4612B200B297
:102E40000B46CDF800C005F07DFA02B080BD000051
:102E50002DE9F04786B00DF1380A0DF10E07154641
:102E60000E469AE80007024608A138461C46FDF7C0
:102E7000B7FA384631462A462346CDE90089CDF8CF
:102E800008A000F01BF906B0BDE8F0872533640008
:102E900080B582B0DDF810E090420FD19C46994297
:102EA000C8BF8C46B8BF0B46194602466346CDF8EC
:102EB00000E005F047FA02B080BD00BF9942F6D1AC
:102EC00013469042C8BF0346B8BF024610461A4692
:102ED0000B46CDF800E005F035FA02B080BD0000E9
:102EE0002DE9F04184B0144640F21002C2F2000213
:102EF0005388834240F2B180064610880F468842CC
:102F000040F2AB8040F20045C4F20205284604219D
:102F10000022FEF78DFD284601210022FEF788FDE4
:102F200040F284282A20C2F200088DF80D000DF12D
:102F30000D0140460122FFF77BFB284604210122B8
:102F4000FEF776FD284601210122FEF771FD284695
:102F500001210022FEF76CFD300A8DF80900701C7B
:102F6000010A8DF80B108DF80C000DF10901404697
:102F7000042201238DF80A60FFF70EFA284601218A
:102F80000122FEF755FD284604210022FEF750FDE0
:102F9000284601210022FEF74BFD2B208DF80E0064
:102FA0000DF10E0140460122FFF742FB28460421A5
:102FB0000122FEF73DFD284601210122FEF738FDE2
:102FC000284601210022FEF733FD380A8DF805005E
:102FD000781C010A8DF807108DF808000DF1050125
:102FE0004046042201238DF80670FFF7D5F92846E4
:102FF00001210122FEF71CFD284604210022FEF7D4
:1030000017FD284601210022FEF712FD2C208DF825
:103010000F000DF10F0140460122FFF709FB284682
:1030200004210122FEF704FD284601210122FEF7BA
:10303000FFFC284601210022FEF7FAFC60BAADF839
:1030400003000DF10301404602220123FFF7A4F91A
:10305000284601210122FEF7EBFC04B0BDE8F08117
:10306000F0B581B040F21004C2F20004069F6688F9
:10307000864221D926888E421ED966881518B54207
:1030800084BF6288121A26885D18B5421E4602D98E
:1030900023885B1A9EB294B202440B44013A013B6E
:1030A00092B29BB201F002F906FB04F1384601B07E
:1030B000BDE8F040FFF7E2BC01B0F0BD2DE9F04FF4
:1030C0008BB090F800C00192BCF1000F049100F0A9
:1030D000CD80169DDDE914464BF64C18C0F600086D
:1030E00029E000BF0EF1010E5FFA8EF935F81900E4
:1030F0003178304410F803AC10F8047CB1EB0A01CD
:1031000098BF0021002F3A46069718BFBAF1000F6A
:1031100044D1049806994BF64C18084401300490A9
:10312000DDE90210C0F6000810F801C00844BCF147
:10313000000F00F09B804FFA8CF1B1F1FF3F03903C
:1031400020DD01214FF0000E0C22029108EB020756
:1031500057F80C7CBC45C7D008EB8E014F68BC45C6
:10316000C0D08F68BC4559D058F80270BC4559D0C2
:103170000EF1040EBEF1EC0F02F11002E6D14FF099
:10318000000EB1E70CF0F001E0294FD0C02957D173
:10319000417841EA0C2C0221D4E700BF049A10F8D0
:1031A000010CD2B20592019A0027104400EB010BEA
:1031B00038B2C0F30270384401B200F0F800C91010
:1031C000381A0A91C0B2802121FA00F009900598BE
:1031D000079738440027089035F819001A468119D6
:1031E00011F8028C0A99084407FB08000999305C21
:1031F0000BEB0708084208BF224608981FFA88F11F
:1032000080B29846FFF76CFE01374346BA45E3D1DA
:10321000079F069801378742CAD17AE70EF1020E5E
:1032200062E700BF0EF1030E5EE700BF41788278CF
:10323000090241EA0C4101EB020C032182E700BFC5
:10324000BCF1F00F0CD3417882780904C77841EAC9
:103250000C6141EA022101EB070C042172E700BF77
:1032600001204FF0000E02903EE700BF0BB0BDE81A
:10327000F08F000080B582B00A44013A00B29C464B
:1032800013B209B20246CDF800C005F05BF802B0F7
:1032900080BD0000B0B540F21005C2F200056A889A
:1032A0002B8804460020002101F000F86888298856
:1032B00041432046BDE8B040FFF7E0BB2DE9F04FA9
:1032C00081B040F20044C4F20204204602210122EF
:1032D00002274FF00108FEF7ABFB20464FF4806158
:1032E0000122FEF7A5FB2046012100220026FEF761
:1032F0009FFB204602210022FEF79AFB0120FEF7E9
:10330000BBF9204601210022FEF792FB0120FEF7C7
:10331000B3F9204602210122FEF78AFB2046012153
:103320000022FEF785FB204604210022FEF780FBE9
:1033300040F28425C2F200050DF103012846012266
:103340008DF80380FFF774F9204601210122FEF772
:103350006FFB0120FEF790F9204601210022FEF7C5
:1033600067FB204604210022FEF762FBCB208DF88C
:1033700003000DF1030128460122FFF759F9204609
:1033800001210122FEF754FB204604210122FEF711
:103390004FFB204601210022FEF74AFB39208DF821
:1033A00003000DF1030128460122FFF741F92046F1
:1033B00001210122FEF73CFB204604210122FEF7F9
:1033C00037FB204601210022FEF732FB2C208DF82E
:1033D00003000DF1030128460122FFF729F92046D9
:1033E00001210122FEF724FB204604210122FEF7E1
:1033F0001FFB204601210022FEF71AFB0DF10301FD
:10340000284601228DF80360FFF712F920460121BA
:103410000122FEF70DFB204604210122FEF708FBE6
:10342000204601210022FEF703FB34208DF8030023
:103430000DF1030128460122FFF7FAF82046012189
:103440000122FEF7F5FA204604210122FEF7F0FAE8
:10345000204601210022FEF7EBFA0DF10301284678
:1034600001228DF80370FFF7E3F8204601210122C5
:10347000FEF7DEFA204601210022FEF7D9FA2046A7
:1034800004210022FEF7D4FACF208DF803000DF1BD
:10349000030128460122FFF7CBF820460121012233
:1034A000FEF7C6FA204604210122FEF7C1FA2046A3
:1034B00001210022FEF7BCFA0DF10301284601228A
:1034C0008DF80360FFF7B4F8204601210122FEF7D2
:1034D000AFFA204604210122FEF7AAFA2046012174
:1034E0000022FEF7A5FAC1208DF803000DF10301BB
:1034F00028460122C127FFF79BF82046012101221F
:10350000FEF796FA204604210122FEF791FA2046A2
:1035100001210022FEF78CFA30208DF803000DF116
:10352000030128460122FFF783F8204601210122EA
:10353000FEF77EFA204601210022FEF779FA2046A6
:1035400004210022FEF774FAE8208DF803000DF143
:10355000030128460122FFF76BF8204601210122D2
:10356000FEF766FA204604210122FEF761FA2046A2
:1035700001210022FEF75CFA85208DF803000DF191
:10358000030128460122FFF753F8204601210122BA
:10359000FEF74EFA204604210122FEF749FA2046A2
:1035A00001210022FEF744FA0DF103012846012211
:1035B0008DF80360FFF73CF8204601210122FEF759
:1035C00037FA204604210122FEF732FA2046012173
:1035D0000022FEF72DFA78208DF803000DF103018B
:1035E00028460122FFF724F8204601210122FEF798
:1035F0001FFA204601210022FEF71AFA2046042174
:103600000022FEF715FAEA208DF803000DF1030100
:1036100028460122FFF70CF8204601210122FEF77F
:1036200007FA204604210122FEF702FA2046012172
:103630000022FEF7FDF90DF10301284601228DF865
:103640000360FEF7F5FF204601210122FEF7F0F9A5
:10365000204604210122FEF7EBF920460121002239
:10366000FEF7E6F90DF10301284601228DF803600B
:10367000FEF7DEFF204601210122FEF7D9F92046A0
:1036800001210022FEF7D4F9204604210022FEF792
:10369000CFF9ED208DF803000DF10301284601223A
:1036A000FEF7C6FF204601210122FEF7C1F92046A0
:1036B00004210122FEF7BCF9204601210022FEF779
:1036C000B7F964208DF803000DF1030128460122AB
:1036D000FEF7AEFF204601210122FEF7A9F92046A0
:1036E00004210122FEF7A4F9204601210022FEF761
:1036F0009FF903208DF803000DF1030128460122F4
:10370000FEF796FF204601210122FEF791F920469F
:1037100004210122FEF78CF9204601210022FEF748
:1037200087F912208DF803000DF1030128460122CC
:10373000FEF77EFF204601210122FEF779F920469F
:1037400004210122FEF774F9204601210022FEF730
:103750006FF981208DF803000DF103012846012245
:10376000FEF766FF204601210122FEF761F920469F
:1037700001210022FEF75CF9204604210022FEF719
:1037800057F9F7208DF803000DF1030128460122B7
:10379000FEF74EFF204601210122FEF749F920469F
:1037A00004210122FEF744F9204601210022FEF700
:1037B0003FF920208DF803000DF103012846012276
:1037C000FEF736FF204601210122FEF731F920469F
:1037D00001210022FEF72CF9204604210022FEF7E9
:1037E00027F9C0208DF803000DF1030128460122BE
:1037F000FEF71EFF204601210122FEF719F920469F
:1038000004210122FEF714F9204601210022FEF7CF
:103810000FF923208DF803000DF103012846012242
:10382000FEF706FF204601210122FEF701F920469E
:1038300001210022FEF7FCF8204604210022FEF7B9
:10384000F7F80DF10301284601228DF80370FEF709
:10385000EFFE204601210122FEF7EAF8204604216E
:103860000122FEF7E5F8204601210022FEF7E0F8EC
:1038700010208DF803000DF1030128460122FEF708
:10388000D7FE204601210122FEF7D2F82046012171
:103890000022FEF7CDF8204604210022FEF7C8F8EA
:1038A000C5208DF803000DF1030128460122FEF723
:1038B000BFFE204601210122FEF7BAF8204604216E
:1038C0000122FEF7B5F8204601210022FEF7B0F8EC
:1038D0003E208DF803000DF1030128460122FEF77A
:1038E000A7FE204601210122FEF7A2F8204604216E
:1038F0000122FEF79DF8204601210022FEF798F8EC
:1039000028208DF803000DF1030128460122FEF75F
:103910008FFE204601210122FEF78AF82046012170
:103920000022FEF785F8204604210022FEF780F8E9
:10393000C7208DF803000DF1030128460122FEF790
:1039400077FE204601210122FEF772F8204604216D
:103950000122FEF76DF8204601210022FEF768F8EB
:1039600086208DF803000DF1030128460122FEF7A1
:103970005FFE204601210122FEF75AF82046012170
:103980000022FEF755F8204604210022FEF750F8E9
:1039900036208DF803000DF1030128460122FEF7C1
:1039A00047FE204601210122FEF742F8204604216D
:1039B0000122FEF73DF8204601210022FEF738F8EB
:1039C00048208DF803000DF1030128460122FEF77F
:1039D0002FFE204601210122FEF72AF82046012170
:1039E0000022FEF725F8204604210022FEF720F8E9
:1039F0003A208DF803000DF1030128460122FEF75D
:103A000017FE204601210122FEF712F8204604216C
:103A10000122FEF70DF8204601210022FEF708F8EA
:103A200055208DF803000DF1030128460122FEF711
:103A3000FFFD204601210122FDF7FAFF204601216A
:103A40000022FDF7F5FF204604210022FDF7F0FFDC
:103A5000B1208DF803000DF1030128460122FEF785
:103A6000E7FD204601210122FDF7E2FF2046042167
:103A70000122FDF7DDFF204601210022FDF7D8FFDE
:103A80000DF10301284601228DF80360FEF7D0FDF9
:103A9000204601210122FDF7CBFF2046042101220F
:103AA000FDF7C6FF204601210022FDF7C1FF1820C7
:103AB0008DF803000DF1030128460122FEF7B8FD41
:103AC000204601210122FDF7B3FF204601210022FB
:103AD000FDF7AEFF204604210022FDF7A9FFB62026
:103AE0008DF803000DF1030128460122FEF7A0FD29
:103AF000204601210122FDF79BFF204604210122DF
:103B0000FDF796FF204601210022FDF791FF0820D6
:103B10008DF803000DF10301284601220827FEF766
:103B200087FD204601210122FDF782FF2046042166
:103B30000122FDF77DFF204601210022FDF778FFDD
:103B400082208DF803000DF1030128460122FEF7C3
:103B50006FFD204601210122FDF76AFF2046042166
:103B60000122FDF765FF204601210022FDF760FFDD
:103B700027208DF803000DF1030128460122FEF7EE
:103B800057FD204601210122FDF752FF2046012169
:103B90000022FDF74DFF204604210022FDF748FFDB
:103BA000F2208DF803000DF1030128460122FEF7F3
:103BB0003FFD204601210122FDF73AFF2046042166
:103BC0000122FDF735FF204601210022FDF730FFDD
:103BD0000DF10301284601228DF80360FEF728FD50
:103BE000204601210122FDF723FF2046012100226A
:103BF000FDF71EFF204604210022FDF719FF2620B5
:103C00008DF803000DF1030128460122FEF710FD97
:103C1000204601210122FDF70BFF2046042101224D
:103C2000FDF706FF204601210022FDF701FF0DF1FF
:103C30000301284601228DF80380FEF7F9FC204697
:103C400001210122FDF7F4FE204601210022FDF7AB
:103C5000EFFE204604210022FDF7EAFEE0208DF869
:103C600003000DF1030128460122FEF7E1FC204686
:103C700001210122FDF7DCFE204604210122FDF78F
:103C8000D7FE204601210022FDF7D2FE4FF00F0A99
:103C90000DF10301284601228DF803A0FEF7C8FCB0
:103CA000204601210122FDF7C3FE20460421012206
:103CB000FDF7BEFE204601210022FDF7B9FE4FF0C0
:103CC000310B0DF10301284601228DF803B0FEF7F8
:103CD000AFFC204601210122FDF7AAFE2046042167
:103CE0000122FDF7A5FE204601210022FDF7A0FEDE
:103CF0002B208DF803000DF1030128460122FEF769
:103D000097FC204601210122FDF792FE2046042166
:103D10000122FDF78DFE204601210022FDF788FEDD
:103D20000C208DF803000DF1030128460122FEF757
:103D30007FFC204601210122FDF77AFE2046042166
:103D40000122FDF775FE204601210022FDF770FEDD
:103D50004FF00E090DF10301284601228DF8039062
:103D6000FEF766FC204601210122FDF761FE204698
:103D700004210122FDF75CFE204601210022FDF70F
:103D800057FE0DF10301284601228DF80370FEF75E
:103D90004FFC204601210122FDF74AFE2046042166
:103DA0000122FDF745FE204601210022FDF740FEDD
:103DB0004E208DF803000DF1030128460122FEF785
:103DC00037FC204601210122FDF732FE2046042166
:103DD0000122FDF72DFE204601210022FDF728FEDD
:103DE000F1208DF803000DF1030128460122FEF7B2
:103DF0001FFC204601210122FDF71AFE2046042166
:103E00000122FDF715FE204601210022FDF710FEDC
:103E100037208DF803000DF1030128460122FEF73B
:103E200007FC204601210122FDF702FE2046042165
:103E30000122FDF7FDFD204601210022FDF7F8FDDE
:103E40004FF007080DF10301284601228DF8038089
:103E5000FEF7EEFB204601210122FDF7E9FD204699
:103E600004210122FDF7E4FD204601210022FDF797
:103E7000DFFD10208DF803000DF10301284601221B
:103E8000FEF7D6FB204601210122FDF7D1FD204699
:103E900004210122FDF7CCFD204601210022FDF77F
:103EA000C7FD03270DF10301284601228DF8037099
:103EB000FEF7BEFB204601210122FDF7B9FD204699
:103EC00004210122FDF7B4FD204601210022FDF767
:103ED000AFFD0DF10301284601228DF80390FEF796
:103EE000A7FB204601210122FDF7A2FD2046042167
:103EF0000122FDF79DFD204601210022FDF798FDDE
:103F000009208DF803000DF1030128460122FEF778
:103F10008FFB204601210122FDF78AFD2046042166
:103F20000122FDF785FD204601210022FDF780FDDD
:103F30000DF10301284601228DF80360FEF778FB9E
:103F4000204601210122FDF773FD204601210022B8
:103F5000FDF76EFD204604210022FDF769FDE120FA
:103F60008DF803000DF1030128460122FEF760FBE6
:103F7000204601210122FDF75BFD2046042101229C
:103F8000FDF756FD204601210022FDF751FD0DF100
:103F90000301284601228DF80360FEF749FB204605
:103FA00001210122FDF744FD204604210122FDF7F5
:103FB0003FFD204601210022FDF73AFD0DF10301EE
:103FC000284601228DF80390FEF732FB204601219E
:103FD0000122FDF72DFD204604210122FDF728FDD9
:103FE000204601210022FDF723FD14208DF8030057
:103FF0000DF1030128460122FEF71AFB204601219C
:104000000122FDF715FD204604210122FDF710FDD8
:10401000204601210022FDF70BFD0DF1030128468A
:1040200001228DF80370FEF703FB204601210122D7
:10403000FDF7FEFC204604210122FDF7F9FC204695
:1040400001210022FDF7F4FC11260DF103012846A1
:1040500001228DF80360FEF7EBFA204601210122D0
:10406000FDF7E6FC204604210122FDF7E1FC204695
:1040700001210022FDF7DCFC0DF10301284601229D
:104080008DF80380FEF7D4FA204601210122FDF7C6
:10409000CFFC204604210122FDF7CAFC2046012165
:1040A0000022FDF7C5FC0DF10301284601228DF821
:1040B00003B0FEF7BDFA204601210122FDF7B8FC4E
:1040C000204604210122FDF7B3FC204601210022F5
:1040D000FDF7AEFCC1208DF803000DF10301284669
:1040E0000122FEF7A5FA204601210122FDF7A0FCDE
:1040F000204604210122FDF79BFC204601210022DD
:10410000FDF796FC48208DF803000DF103012846C9
:104110000122FEF78DFA204601210122FDF788FCDD
:10412000204604210122FDF783FC204601210022C4
:10413000FDF77EFC08208DF803000DF103012846F1
:104140000122FEF775FA204601210122FDF770FCDD
:10415000204604210122FDF76BFC204601210022AC
:10416000FDF766FC0DF10301284601228DF803A03E
:10417000FEF75EFA204601210122FDF759FC204698
:1041800004210122FDF754FC204601210022FDF705
:104190004FFC0C208DF803000DF10301284601228D
:1041A000FEF746FA204601210122FDF741FC204698
:1041B00004210122FDF73CFC204601210022FDF7ED
:1041C00037FC0DF10301284601228DF803B0FEF7FC
:1041D0002FFA204601210122FDF72AFC2046042166
:1041E0000122FDF725FC204601210022FDF720FCDD
:1041F00036208DF803000DF1030128460122FEF759
:1042000017FA204601210122FDF712FC2046042165
:104210000122FDF70DFC204601210022FDF708FCDC
:104220000DF10301284601228DF803A0FEF700FAE4
:10423000204601210122FDF7FBFB2046012100223F
:10424000FDF7F6FB204604210022FDF7F1FB0DF1FE
:104250000301284601228DF80360FEF7E9F92046A4
:1042600001210122FDF7E4FB1420FDF705FA2046A9
:1042700001210022FDF7DCFB204604210022FDF78E
:10428000D7FB29208DF803000DF1030128460122F8
:10429000FEF7CEF9204601210122FDF7C9FB0020DF
:1042A00000F01CF901B0BDE8F08F00002DE9F047E7
:1042B00084B040F20044C4F20204924689460746A4
:1042C0002046012100229846FDF7B2FB204604213A
:1042D0000022FDF7ADFB40F284252A20C2F2000542
:1042E0008DF805000DF1050128460122FEF7A0F921
:1042F000204601210122FDF79BFB204604210122DB
:104300003E0AFDF795FB204601210022FDF790FBB8
:104310000DF10601284601228DF80660FEF788F9A6
:10432000204601210122FDF783FB204604210122C2
:10433000FDF77EFB204601210022FDF779FB0DF100
:104340000701284601228DF80770FEF771F9204613
:1043500001210122FDF76CFB2046042101224FEAD6
:104360001A26FDF765FB204601210022FDF760FBC0
:1043700002A9284601228DF80860FEF759F9204667
:1043800001210122FDF754FB204604210122FDF703
:104390004FFB204601210022FDF74AFB0DF10901E8
:1043A000284601228DF809A0FEF742F92046012196
:1043B0000122FDF73DFB204601210022FDF738FBDD
:1043C000204604210022FDF733FB2B208DF80A0044
:1043D0000DF10A0128460122FEF72AF920460121A3
:1043E0000122FDF725FB2046042101224FEA192670
:1043F000FDF71EFB204601210022FDF719FB0DF100
:104400000B01284601228DF80B60FEF711F92046BA
:1044100001210122FDF70CFB204604210122FDF7BA
:1044200007FB204601210022FDF702FB03A92846D5
:1044300001228DF80C90FEF7FBF8204601210122A5
:10444000FDF7F6FA2046042101224FEA1826FDF76F
:10445000EFFA204601210022FDF7EAFA0DF10D01E5
:10446000284601228DF80D60FEF7E2F82046012172
:104470000122FDF7DDFA204604210122FDF7D8FADA
:10448000204601210022FDF7D3FA0DF10E01284646
:1044900001228DF80E80FEF7CBF820460121012283
:1044A000FDF7C6FA204601210022FDF7C1FA204699
:1044B00004210022FDF7BCFA2C208DF80F000DF12D
:1044C0000F0128460122FEF7B3F820460121012200
:1044D000FDF7AEFA04B0BDE8F087000070B582B019
:1044E00040F20044C4F202040546204601210022A5
:1044F000FDF79EFA204604210022FDF799FA3620A6
:104500008DF8030040F28420C2F200000DF1030197
:104510000122FEF78DF8204601210122FDF788FADD
:104520000120FDF7A9F8032D6AD8DFE805F003178D
:104530002B4500BF204604210122FDF779FA2046D1
:1045400001210022FDF774FA48208DF8040040F2A2
:104550008420C2F2000001A927E000BF2046042108
:104560000122FDF765FA204601210022FDF760FADD
:1045700028208DF8050040F28420C2F200000DF1E1
:1045800005012CE0204604210122FDF751FA2046C6
:1045900001210022FDF74CFA88208DF8060040F238
:1045A0008420C2F200000DF106010122FEF740F85E
:1045B0004FF4A075F02618E0204604210122FDF7F3
:1045C00037FA204601210022FDF732FAE8208DF863
:1045D000070040F28420C2F200000DF10701012221
:1045E000FEF726F8F0254FF4A0762046012101229F
:1045F000FDF71EFA40F21000C2F20000468005806E
:1046000002B070BD2DE9F04387B000220029069268
:10461000059200F0598240F22022C2F2000242F8D4
:10462000201000EB40074AF23441C0F600013A0185
:1046300040F200088A58CBF6FE7802EB080343F6F6
:1046400030044FEAB323C4F20204042B01EB071732
:1046500037D8DFE803F0030D17212B000023019367
:10466000236843F001032360236803F0010326E07D
:1046700000230193236843F002032360236803F0BF
:1046800002031CE000230193236843F0040323602A
:10469000236803F0040312E000230193236843F02E
:1046A00008032360236803F0080308E00023019354
:1046B000236843F010032360236803F01003019381
:1046C000019B00EB400001EB0016308A4FF000091F
:1046D0000290022502A91046CDF80C900495FDF732
:1046E000C5F8786800EB08014FEAB121042938D8F1
:1046F000DFE801F0040E18222C0000BF0021019118
:10470000216841F001012160216801F0010126E0EA
:1047100000210191216841F002012160216801F02E
:1047200002011CE000210191216841F00401216097
:10473000216801F0040112E000210191216841F09B
:1047400008012160216801F0080108E000210191C1
:10475000216841F010012160216801F010010191F0
:104760000199718A0495CDE9021902A9FDF77EF835
:10477000B86800EB08014FEAB121042937D8DFE817
:1047800001F0030D17212B0000210191216841F058
:1047900001012160216801F0010126E00021019161
:1047A000216841F002012160216801F002011CE052
:1047B00000210191216841F004012160216801F08C
:1047C000040112E000210191216841F008012160FB
:1047D000216801F0080108E000210191216841F001
:1047E00010012160216801F0100101910199B18A45
:1047F0004FF000090291022502A9CDF80C90049512
:10480000FDF734F8F86800EB08014FEAB1210429FC
:1048100037D8DFE801F0030D17212B0000210191AB
:10482000216841F001012160216801F0010126E0C9
:1048300000210191216841F002012160216801F00D
:1048400002011CE000210191216841F00401216076
:10485000216801F0040112E000210191216841F07A
:1048600008012160216801F0080108E000210191A0
:10487000216841F010012160216801F010010191CF
:104880000199F18A0495CDE9021902A9FCF7EEFF1E
:10489000B06900EB08014FEAB121042937D8DFE8FD
:1048A00001F0030D17212B0000210191216841F037
:1048B00001012160216801F0010126E00021019140
:1048C000216841F002012160216801F002011CE031
:1048D00000210191216841F004012160216801F06B
:1048E000040112E000210191216841F008012160DA
:1048F000216801F0080108E000210191216841F0E0
:1049000010012160216801F0100101910199318DA0
:104910000125029102A903950595FCF7A7FFF0690F
:1049200000EB08014FEAB121042938D8DFE801F093
:10493000040E18222C0000BF00210191216841F0D3
:1049400001012160216801F0010126E000210191AF
:10495000216841F002012160216801F002011CE0A0
:1049600000210191216841F004012160216801F0DA
:10497000040112E000210191216841F00801216049
:10498000216801F0080108E000210191216841F04F
:1049900010012160216801F0100101910199718DD0
:1049A0000595CDE9021502A9FCF760FF306A00EB1E
:1049B00008014FEAB121042937D8DFE801F0030DDF
:1049C00017212B0000210191216841F00101216094
:1049D000216801F0010126E000210191216841F0E8
:1049E00002012160216801F002011CE00021019117
:1049F000216841F004012160216801F0040112E006
:104A000000210191216841F008012160216801F035
:104A1000080108E000210191216841F010012160A6
:104A2000216801F0100101910199B18D01250291D8
:104A300002A903950595FCF719FF706A00EB0801C0
:104A40004FEAB121042938D8DFE801F0040E18221A
:104A50002C0000BF00210191216841F0010121607B
:104A6000216801F0010126E000210191216841F057
:104A700002012160216801F002011CE00021019186
:104A8000216841F004012160216801F0040112E075
:104A900000210191216841F008012160216801F0A5
:104AA000080108E000210191216841F01001216016
:104AB000216801F0100101910199F18D0595CDE971
:104AC000021502A9FCF7D2FE07B0BDE8F083000092
:104AD0002DE9F04F95B04AF2344700EB4002C0F6A2
:104AE000000707EB02148046A069218DD4E901A6D6
:104AF000D4F80C9015010122CDE90F10FCF798FFB6
:104B0000E069618D012211900C91FCF791FF206A00
:104B1000A18D0122CDE90D01FCF78AFF606AE18DCC
:104B20000122CDE91301FCF783FF7859218A0A900D
:104B30000691FCF76FFF618A83465046CDF82CA0A2
:104B4000B2460791FCF766FFA58A064650462946FD
:104B5000FCF760FFE48A074648462146FCF75AFF07
:104B600047EA000141EA0B01314300F08582CDE9BB
:104B70000367059040F22020CDE9085ACDE90149AC
:104B8000C146BBF1000FC2F20000CDF8488000F032
:104B90008982109CDDF83CA08346204651460122C4
:104BA000FCF746FF0C9E119831460022FCF740FFAF
:104BB000DDF834800E9D404629460022FCF738FF80
:104BC000DDE913010022FCF733FF069F0A983946FE
:104BD000FCF720FF5BF82910002818BF012008709F
:104BE000204651460022D146FCF722FFDDF844A0C2
:104BF000314650460122FCF71BFF40462946002261
:104C0000FCF716FFDDF84CB0DDF850805846414601
:104C10000022FCF70DFF0A9D39462846FCF7FAFEF4
:104C200040F22021129AC2F2000151F8221000280D
:104C300018BF01204870204649460022FCF7F8FEC4
:104C4000504631460022FCF7F3FE0D9C0E9E204696
:104C500031460122FCF7ECFE584641460022FCF7A3
:104C6000E7FE28463946FCF7D5FE40F22021129A8D
:104C7000C2F2000151F82210002818BF01208870EC
:104C8000109849460022FCF7D3FE0C9950460022AA
:104C9000FCF7CEFE204631460022FCF7C9FE5846FE
:104CA00041460122FCF7C4FE28463946FCF7B2FE15
:104CB00040B140F220201299C2F2000050F82100C9
:104CC0000121C1700398002800F0F481DDF84080D4
:104CD0000F9D404629460122FCF7AAFE119EDDF8F1
:104CE00030B0304659460022FCF7A2FEDDF8349081
:104CF0000E9C484621460022FCF79AFE139F149909
:104D000038460022FCF794FEDDF81CA00B985146B3
:104D1000FCF780FE40F220221299C2F2000252F803
:104D20002110002818BF01200871404629460022A2
:104D3000FCF77EFE304659460122FCF779FE4846D4
:104D400021460022FCF774FE1499384600223E46A4
:104D5000FCF76EFE0B9F51463846FCF75BFE12993E
:104D600040F22022C2F2000252F82110002818BF9F
:104D700001204871404629460022FCF759FE119D4A
:104D8000594628460022FCF753FE48462146012298
:104D9000FCF74EFE149930460022B146FCF748FE5F
:104DA000384651463E46FCF735FE40F22027129920
:104DB000C2F2000757F82110002818BF012088719F
:104DC0000F99404600220C46FCF732FE2846594611
:104DD00000223D46FCF72CFEDDE90D010022FCF728
:104DE00027FE149948460122FCF722FE3046514620
:104DF000FCF710FE20B11298012155F82000C17176
:104E00000498099E002800F066811098214601222E
:104E1000A246FCF70DFE119C0C9F2046394600224D
:104E2000FCF706FEDDF834B0DDF838805846414620
:104E30000022FCF7FDFDDDE913010022FCF7F8FD7F
:104E4000DDF8209030464946FCF7E4FD1299002831
:104E500055F8211018BF0120109E087230465146A7
:104E60000022FCF7E5FD204639460122FCF7E0FD73
:104E7000584641460022FCF7DBFDDDE91305002220
:104E80002946FCF7D5FD099C49462046FCF7C2FDA2
:104E9000129940F22022C2F2000252F8211000289A
:104EA00018BF01204872304651460022FCF7C0FD71
:104EB000119E394630460022FCF7BAFD584641465D
:104EC0000122FCF7B5FD139829460022FCF7B0FD3E
:104ED00020464946FCF79EFD129940F22022C2F27C
:104EE000000252F82110002818BF01208872109883
:104EF000514600223546FCF79BFD304639460022DC
:104F0000FCF796FD58464146DDF84C900022FCF730
:104F10008FFD149948460122FCF78AFD0899204626
:104F2000FCF778FD40B1129840F22021C2F2000156
:104F300051F820000121C1720598002800F0D680A8
:104F4000109E514630460122FCF772FD0C9C28460B
:104F500021460022FCF76CFDDDF83480DDF838B026
:104F6000404659460022FCF763FDDDF850A0484654
:104F700051460022FCF75CFDDDF80890019F484691
:104F80003946FCF747FD129D40F22021C2F2000194
:104F900051F82510002818BF012008730F993046DA
:104FA0000022FCF745FD119821460122FCF740FD47
:104FB000404659460022FCF73BFD1398514600221B
:104FC000FCF736FD48463946FCF724FD40F2202127
:104FD000C2F2000151F82510002818BF01204873C3
:104FE0000F9930460022FCF723FD1198214600223C
:104FF000FCF71EFD404659460122FCF719FD1398A7
:1050000051460022FCF714FD48463946FCF702FDE4
:1050100040F22021C2F2000151F82510002818BFEB
:10502000012088730F9930460022FCF701FD11988A
:1050300021460022FCF7FCFC404659460022FCF7C2
:10504000F7FC139851460122FCF7F2FC4846119DEB
:10505000DDF83CA03946DDF84C90FCF7DBFC00287D
:1050600052D0129840F22021C2F2000151F82000E3
:105070000121C17348E000BF40F22020C2F20000CD
:1050800050F828000DF1300B0021DDE90FA6119D2D
:105090009BE81009DDF84C9041608160C1600160BF
:1050A00032E000BF50F82900002101600398002879
:1050B0007FF40CAE40F220251298C2F2000555F89C
:1050C00020000F9CDDF84C90002141600498099E5F
:1050D00000287FF49AAE1298002155F82000119D07
:1050E000A2468160059800287FF42AAF129840F20A
:1050F0002021C2F200010DF1300B51F820009BE895
:105100001009109E0021C160304651460122FCF773
:105110008FFC284621460122FCF78AFC404659466E
:105120000122FCF785FC14994846012215B0BDE820
:10513000F04FFCF77DBC000080B582B000200190EC
:1051400043F63000C4F202000168002241F48001FD
:1051500001600068002100F48000019001983B206C
:10516000FCF7F0FC3B2002B0BDE88040FCF7D6BC69
:105170002DE9F04F87B0002543F6300006950195E4
:10518000C4F20200016840F2000841F0040101602D
:105190000168C4F2020801F004010191019901952E
:1051A000016808F5006741F0800101600168002294
:1051B00001F0800101910199019501684FF40056B9
:1051C00041F001010160016801F0010101910199C3
:1051D0000195016841F00201016000684FF400513F
:1051E00000F00200019001983846FCF721FC40468F
:1051F00049F61C710022FCF71BFC08F58064204670
:1052000040F20F41002240F20F49FCF711FC0296D8
:1052100002AE4FF0010A38463146CDE903A50595A7
:10522000FCF724FB4FF44040CDE9020538463146F7
:105230000495FCF71BFB4FF4041B40463146CDF8A8
:1052400008A0CDE903B5FCF711FB02274046314623
:10525000CDE902750495FCF709FB40F60470CDE931
:10526000020A40463146CDE90455FCF7FFFA48F200
:105270000800CDE9020A40463146CDE90457FCF763
:10528000F5FA41F21000CDE9020A032005904046EC
:1052900031460495FCF7EAFA20463146CDE9029AF8
:1052A000CDE90455FCF7E2FA4FF24000CDE90205E2
:1052B000204631460495FCF7D9FA8020CDE9020B4F
:1052C000204631460495FCF7D1FA06200021002241
:1052D000FCF738FC0620FCF721FC172000210022F7
:1052E000FCF730FC1720FCF719FC07B0BDE8F08F85
:1052F00080B540F2842043F20001C2F20000C4F203
:1053000001014FF4827200234FF4007C80E80E000C
:105310000A21C0E90333C0E9053CC361C0E9083391
:10532000C0E90A31FCF782FF002808BF80BDBDE854
:105330008040FBF76DBE000080B540F2DC2044F2F7
:105340000041C2F20000C4F20101002353224FF0D9
:10535000450C80E80E1003618361FDF7F3F9002826
:1053600008BF80BDBDE88040FBF752BE80B540F26B
:10537000243044F60001C2F20000C4F2010100230F
:10538000532240F2CF7C80E80E1003618361FDF769
:10539000D9F9002808BF80BDBDE88040FBF738BEC2
:1053A000FEE70000FEE700007047000040F28420A6
:1053B000C2F20000FCF7A4BE806B0021C187C18649
:1053C000FCF79CBE806B01684A6822F003024A60C9
:1053D000416D41F010014165012180F85110FCF749
:1053E0008DBE0000806BFDF791B90000B0B584B0B0
:1053F000846B0546FCF722FB29680968C90531D48E
:105400000546206801224168642321F020014160A3
:10541000416821F00201416020460221009500F020
:105420006FF828B3606D40F020006065606D40F05B
:1054300020006065A06838B9002002902068C1682B
:1054400002918068029002980020E086012084F892
:105450005100606D30B1204604B0BDE8B040FCF7AB
:105460004DBE00BF204604B0BDE8B040FDF74CB9CA
:1054700040F21400C2F20000006849F68171C1F2E6
:105480005E61A0FB0101480D4FF47A71484303901F
:105490006068B0F5827F09D1204680210022642314
:1054A000009500F02DF80028BCD1C3E70398002830
:1054B000C0D0039801380390206880680006B9D5F1
:1054C00003980028B6D003980138039020688068BC
:1054D0000006AFD503980028ACD00398013803909C
:1054E000206880680006A5D503980028A2D00398FC
:1054F00001380390206880680006D7D49AE700003E
:105500002DE9F04381B0089C984615460E46814629
:10551000FCF794FA201A00EB0804FCF78FFA40F22B
:105520001401C2F200010968C1F3CB31614300915B
:10553000D9F800108A683240921BB2FA82F25209FE
:10554000AA423DD0074618F1010031D0FCF776FAA7
:10555000C01BA04238D2009800990028A1F1010197
:105560000091D9F80010896808BF044601EA0600D6
:10557000801BB0FA80F04009A842E7D120E000BFCC
:1055800088683040801BB0FA80F04009A84217D0EC
:1055900088683040801BB0FA80F04009A8420FD0E4
:1055A00088683040801BB0FA80F04009A84207D0DC
:1055B00088683040801BB0FA80F04009A842DFD1F3
:1055C000002001B0BDE8F083D9E900014268B1F5DF
:1055D000827F22F0E00242600BD1D9F80810B1F5C9
:1055E000004F02D0B1F5806F03D1016821F0400176
:1055F0000160D9F82810B1F5005F07D1016821F4E6
:1056000000510160016841F400510160012089F8F6
:105610005100002089F85000032001B0BDE8F0835C
:105620007047000010B5012001F09AFF40F23414D9
:10563000C2F200042078322802D100F0B7FE002028
:1056400001302070BDE81040FCF7FEB9B0B592B053
:10565000002443F640000B94CDE90944CDE907440A
:105660000594CDE90344CDE901440094C4F202005D
:105670000168022541F080510160006800F080500F
:105680000090009847F200000094C4F20000016806
:1056900065F38F310160006800F44040009000988D
:1056A0000120099010200A9008200E905420CDE986
:1056B0000F050420119006A80695CDE90C54FCF7BF
:1056C00063FB18B172B600BFFEE700BF0F20CDE943
:1056D00001054FF48050CDE9040401A80221039490
:1056E000FCF76CFA10B172B6FEE700BF12B0B0BDA5
:1056F0004EF68850CEF20000016841F4700101605E
:105700007047000040F22430C2F20000FDF7CAB832
:1057100040F2DC20C2F20000FDF7C4B810B540F240
:10572000FF7E0368C4F2000E40F2000C7045C4F224
:10573000010C1DDD40F60002C4F20002904220D0B0
:1057400060451ED040F60042C4F20002904218D0DC
:105750004FF6FF72C4F2000290421CDC704525DC5B
:10576000B0F1804F3AD040F20042C4F2000233E080
:10577000B0F1804F05D040F20042C4F200029042E6
:10578000E6D14A6823F0700313434FF6FF72C4F268
:1057900000029042E2DD44F2FF32C4F20102904284
:1057A00010DC60451AD044F2000213E040F600021B
:1057B000C4F20002904211D040F60042C4F200024E
:1057C0000AE000BF44F60002C4F20102904205D094
:1057D00044F20042C4F20102904203D1CA6823F4A9
:1057E0004073134323F080024B69D1F800E08C68CA
:1057F0001A4360450260C462C0F828E002D109691A
:10580000CCF83010012141610169C90708BF10BD02
:10581000016921F00101016110BD0000FEE70000F7
:10582000B0B582B000F0F4FA01F01AF84BF604506B
:10583000C0F6000000F0CAFD4BF6FC40C0F60000C8
:1058400001F0E4F900F0F4FA05200E2101F030FA3D
:1058500005200B2101F02CFA05200D2101F028FA7A
:1058600006200A2101F024FA02200A2101F020FA80
:1058700001200A214FF47A72012301F013FE40F255
:105880000824C2F2000445F6A532C0F60002204604
:105890000A2100F061F940F21425C2F2000545F634
:1058A0005142C0F6000228460A2100F055F9204670
:1058B00000F04EF9284600F04BF945F6452040F23D
:1058C000D81445F62D15C0F60000C2F20004C0F64B
:1058D0000005009020460A2101220023019500F0D6
:1058E000BDF845F6113040F2F01545F6B91CC0F68A
:1058F0000000C2F20005C0F6000C009028460A2104
:1059000001220023CDF804C000F0A8F8204600F0E2
:10591000A1F8284600F09EF800F062FB02B0BDE856
:10592000B04001F013BD000001F064BA80B580788A
:1059300002283FD140F21910C2F20000017800297C
:1059400018BF80BD4078032834D140F21C1CC2F23D
:10595000000C9CF80C1040F2381001394AB2002AB1
:1059600048BF13219CF90D20C2F2000002EB820215
:10597000CBB200EBC200BCF8022030F813004FF4A9
:10598000B473B3FBF2F28CF80C10504300EE100A23
:10599000B8EEC00A03200E218CED050A01F088F94B
:1059A00006200B214FF4FA720023BDE8804001F07D
:1059B00079BD00BF80BD000080B5807802283FD14E
:1059C00040F21910C2F200000178002918BF80BD12
:1059D0004078032834D140F21C1CC2F2000C9CF821
:1059E0000C1040F2381001314AB2132AC8BF00210E
:1059F0009CF90D20C2F2000002EB82024BB200EBD8
:105A0000C200BCF8022030F813004FF4B473B3FBAB
:105A1000F2F28CF80C10504300EE100AB8EEC00AF7
:105A200003200E218CED050A01F042F906200B211E
:105A30004FF4FA720023BDE8804001F033BD00BF8F
:105A400080BD000040F60000C4F202004FF4804127
:105A5000FBF7E0BF012141707047000010B504461C
:105A6000DDE902EC4FF40070A4F801002270002080
:105A7000221D82E80B40C4F814C03BB1984720694E
:105A800020B16069B0FA80F0400910BD012010BD5E
:105A900010B504464078012812D12069804788B1AA
:105AA000606802211528A17004D30020616960702C
:105AB00020468847002060600120E070012060706F
:105AC00010BD00BFE0780128FAD1D4E901010844F3
:105AD000B0F5FA6F60600DD1A078012810D04FF4B6
