:020000040800F2
:10000000D806002035020008B51000089D0F000832
:10001000B1100008E1030008891200080000000088
:10002000000000000000000000000000BD100008FB
:10003000E503000800000000B9100008C110000826
:100040004F0200084F0200084F0200084F0200084C
:100050004F0200084F0200084F0200084F0200083C
:100060004F0200084F0200084F0200084F0200082C
:100070004F0200084F0200084F0200084F0200081C
:100080004F0200084F0200084F0200080000000065
:100090000000000000000000000000004F02000807
:1000A0004F0200087D1100084F0200084F020008AF
:1000B0004F0200084F0200084F0200084F020008DC
:1000C0004F0200084F0200084F0200084F020008CC
:1000D0004F0200084F0200084F0200080000000015
:1000E0004F0200084F0200084F0200080000000005
:1000F0000000000000000000000000004F020008A7
:10010000000000004F0200084F0200084F020008E4
:1001100000000000000000000000000000000000DF
:100120004F0200084F0200084F0200084F0200086B
:100130004F02000800000000000000000000000066
:100140000000000000000000000000004F02000856
:100150004F0200084F0200084F0200084F0200083B
:100160004F0200084F0200080000000000000000DD
:10017000000000000000000000000000000000007F
:10018000000000004F020008000000000000000016
:100190004F02000800F002F800F03CF80AA090E8D6
:1001A000000C82448344AAF10107DA4501D100F032
:1001B00031F8AFF2090EBAE80F0013F0010F18BFC3
:1001C000FB1A43F001031847501C0000701C00008C
:1001D000103A24BF78C878C1FAD8520724BF30C873
:1001E00030C144BF04680C60704700000023002445
:1001F00000250026103A28BF78C1FBD8520728BF37
:1002000030C148BF0B6070471FB501F0F0FD1FBD46
:1002100010B510BD00F0A9F81146FFF7F5FF01F089
:1002200037F800F0C7F803B4FFF7F2FF03BC00F0A3
:10023000CFF800000948804709480047FEE7FEE77D
:10024000FEE7FEE7FEE7FEE7FEE7FEE7FEE7FEE786
:1002500004480549054A064B70470000691100082B
:1002600095010008D8000020D8060020D802002000
:10027000D802002053EA020C00F069802DE9F04B0F
:100280004FF00006002B1FBFB3FA83F503FA05F405
:1002900024FA05F65E4012BF1643B2FA82F502FA5E
:1002A00005F4C5F120051EBF22FA05FC44EA0C0442
:1002B000203556EA044C4FEA144418BF641C4FF032
:1002C00000084FF00009904271EB030C39D300296C
:1002D00019BFB1FA81F701FA07F6B0FA80F700FA10
:1002E00007F6C7F120071EBF20FA07FC46EA0C06F6
:1002F0002037B6FBF4FCA7EB0507103F07F01F0BF8
:10030000CBF120062CFA06F60CFA0BFB44BFB346E1
:100310000026202FA4BF5E464FF0000B5BEA060CC0
:1003200008BF4FF0010B19EB0B0948EB0608ABFBBC
:10033000027C06FB02CC0BFB03CCC01B71EB0C0157
:10034000C1E70B46024641464846BDE8F08B13B56F
:10035000084318BF4FF0FF300146AFF30080BDE8FF
:100360001C407047704770477047754600F02CF886
:10037000AE4605006946534620F00700854618B092
:1003800020B5FFF765FFBDE820404FF000064FF0B5
:1003900000074FF000084FF0000BAC46ACE8C00976
:1003A000ACE8C009ACE8C009ACE8C00921F007011D
:1003B0008D46704710B50446AFF300802046BDE877
:1003C0001040FFF730BF00000048704710000020C9
:1003D00001491820ABBEFEE726000200704700006E
:1003E000FEE700007047000072B600BFFEE70000A5
:1003F000B0B5044600F0F2F8054640F20000C2F243
:1004000000000078611C18BF044400BF00F0E6F84B
:10041000401BA042FAD3B0BD2DE9F04F82B000F1ED
:100420003E4241F2000502F1FF77C4F202050722C5
:1004300043F6004E4FEAB726A84208BF0422C4F292
:10044000010E042E38BF4FEAB722012500260027EF
:100450004FF00008009208E008F101080437B8F1F5
:10046000100F06F1020600F0A7800C6805FA08F9E3
:1004700014EA090FF0D0D1F804B003220BF0030CFA
:10048000ACF10104B240012C6FEA020A10D8826874
:10049000CC6802EA0A02B440224382604268CBF38D
:1004A000001422EA090204FA08F42243426005E03B
:1004B000BCF1030F02D14FF0030C20E0C2688C683E
:1004C00002EA0A02B4402243BCF1020FC26016D114
:1004D0006FF0030202EA58020244D2F820C007F08B
:1004E0001C050F230C69AB402CEA030304FA05F545
:1004F0002B431362D1F804B001250BF0030C026802
:100500000CFA06F302EA0A021A431BF4403F0260A7
:10051000A2D0002243F644030192C4F202031A68F7
:100520004FF6084C42F480421A601A68CFF6FF7CFE
:1005300002F480420192019A28F00302724452F8B8
:100540000C3007F00C050F24AC40A343009C04FAC8
:1005500005F52B4342F80C30DEF808204B6842EAE0
:10056000090543F60C4CDC0258BF22EA0905CEF817
:100570000850C4F2010CDCF800209C0242EA090594
:1005800058BF22EA0905CCF80050DEF804209C038D
:1005900042EA090558BF22EA0905CEF80450DEF800
:1005A0000020DB0342EA090558BF22EA0905CEF81C
:1005B0000050012550E700BF02B0BDE8F08F0000F9
:1005C000426902EA0103914341EA034181617047B4
:1005D000002A08BF090481617047000040F2D00082
:1005E000C2F200000068704740F2000040F2D00103
:1005F000C2F20000C2F2000100780A6810440860EC
:100600007047000080B543F60040C4F20200016864
:1006100041F400710160016841F48061016001688A
:1006200041F480710160032000F088F80F2000F091
:1006300005F800F027F8002080BD000070B540F2FA
:100640000006C2F2000640F208013278C2F2000150
:100650004FF47A730968B3FBF2F20446B1FBF2F18E
:10066000084600F01BFB0F2C4FF0010508D838B9E5
:100670004FF0FF3021460022002500F033F874606F
:10068000284670BD82B0002043F640010190C4F2BC
:1006900002014A6842F480424A604A6802F4804299
:1006A0000192019A0090086840F080500860086844
:1006B00000F080500090009802B07047002848BFBA
:1006C0007047C1B200F01F00012202FA00F04EF2A2
:1006D0000012CEF2000242EAD10121F003010860CB
:1006E0007047000010B54EF60C5CCEF2000CDCF842
:1006F0000030C3F3022E8EF00704042C28BF04241C
:10070000BEF103034FF0FF3E0EFA04F438BF00239E
:10071000A14399400EFA03F39A43114300F00F02EC
:1007200000F160430901043A03F564436244002880
:1007300048BF02F10C03197010BD00004EF60C51B9
:10074000CEF200010A684FF6FF031A4060F30A2256
:1007500042F0806040F0FD70086070472DE9F04184
:10076000002800F08B8043F60808C4F20208044613
:10077000D8F8F8030D4600F00700884207D288F841
:10078000F853D8F8F80300F00700A84276D12068A3
:10079000810717D5410705D5D8F8001041F4E0517D
:1007A000C8F80010010705D5D8F8001041F46041E1
:1007B000C8F80010D8F80010A26821F0F001114329
:1007C000C8F80010C0073FD1D8F8F80300F00700C0
:1007D000A84207D988F8F853D8F8F80300F00700C2
:1007E000A8424BD12068410707D5D8F80010E2682D
:1007F00021F4E0511143C8F80010000708D5D8F8DB
:100800000000216920F4604040EAC100C8F80000FF
:1008100000F054F8D8F8001041F60862C1F3031153
:10082000C0F60002515C40F2080220FA01F140F2E9
:100830000400C2F200000068C2F200021160FFF77B
:10084000FDFE0020BDE8F0816068811E022907D20C
:1008500058F8081C89015CBF0120BDE8F08111E057
:10086000012807D158F8081C89035CBF0120BDE8A6
:10087000F08107E058F8081C890703D40120BDE87F
:10088000F08100BFD8F8001021F003010843C8F838
:100890000000FFF7A3FE064641F28837D8F80000B3
:1008A000616800F00C00B0EB810F8DD0FFF796FE71
:1008B000801BB842F2D90320BDE8F08110B543F6A1
:1008C0000404C4F20204606800F00C0008280BD095
:1008D000042819BF42F20040C0F2F40047F640007D
:1008E000C0F27D1010BD00BF206821682368490256
:1008F00047F64001C0F27D1100F03F02C3F38810BB
:100900005CBF42F20041C0F2F401A1FB00010023F0
:10091000FFF7B0FC21680222C1F3014102EB410163
:10092000B0FBF1F010BD00002DE9F04182B00028CD
:1009300068D00446007843F60006C007C4F20206F9
:100940000BD0B06800F00C00042840F09F803068A5
:10095000800302D56068002854D0207880071AD51B
:10096000B06810F00C0F09D0B06800F00C00082837
:1009700040F0A6807068400200F1A28030688007D5
:1009800002D5E06801283DD13068216920F0F800E7
:1009900040EAC10030602078000737D42078400753
:1009A0004CD4A56955B3B06800F00C00082840F09D
:1009B000BB80012D26D07068E16900F480028A4274
:1009C00020D1216A00F03F028A421BD147F6C07154
:1009D000626A0140B1EB821F14D1A16A4FF6FF7326
:1009E000C903994300F44032A1F580318A4209D10C
:1009F000E16A00F07060B0EB016F03D1002002B03B
:100A0000BDE8F081012002B0BDE8F08160690028F6
:100A100040F20000C4F2472076D00121C0F8801EC9
:100A2000FFF7DCFD054600BF706F8007B6D4FFF707
:100A3000D5FD401B0228F7D9DDE000BF306C10F077
:100A400080580AD100200190306C40F08050306412
:100A5000306C00F080500190019847F20007C4F21A
:100A600000073868C00541D4386840F480703860A9
:100A7000FFF7B4FD054600BF3868C00536D4FFF760
:100A8000ADFD401B0228F7D9B5E000BFB06800F00B
:100A90000C00082803D1706840023FF558AF606829
:100AA000B0F5803F07D0B0F5A02F40F08D803068C2
:100AB00040F480203060306840F4803030608DE059
:100AC000E068002852D00020C4F2472001210160D4
:100AD000FFF784FD054600BF306880073FF554AF3F
:100AE000FFF77CFD401B0228F6D984E0A0680128AE
:100AF00005D005284ED1306F40F004003067306FCC
:100B000040F0010030674FE00021C0F8801EFFF781
:100B100065FD0546706F80077FF540AFFFF75EFD0E
:100B2000401B0228F6D966E00027C4F247270020C0
:100B30003866FFF753FD022D05460BD13068800162
:100B40005ED5FFF74BFD401B02284FF00300F5D99F
:100B500055E700BF306880017FF550AFFFF73EFDDD
:100B6000401B02284FF00300F4D948E70020C4F2EC
:100B7000472000210160FFF731FD054630688007FE
:100B80007FF509AFFFF72AFD401B02284FF0030055
:100B9000F4D934E7316F002821F001013167316F5A
:100BA00021F0040131674DD0FFF718FD054641F2F1
:100BB000883700BF306F800756D4FFF70FFD401B0A
:100BC000B842F7D917E000BF3168002821F480311E
:100BD0003160316821F4802131604FD0FFF7FEFC95
:100BE000054600BF306880033FF5B7AEFFF7F6FC5F
:100BF000401B6428F6D9032002B0BDE8F08100BF95
:100C000004F11C052FCD084340EA8210D9034FF6AA
:100C1000FF729143A1F5803140EA0560084370609E
:100C200001203866FFF7DAFC044600BF3068800117
:100C30003FF5E4AEFFF7D2FC001B02284FF00300A3
:100C4000F4D9DCE6FFF7CAFC054641F2883700BF5D
:100C5000306F800708D5FFF7C1FC401BB8424FF04A
:100C60000300F5D9CBE600BFB8F1000F7FF499AED1
:100C7000306C20F08050306493E600BFFFF7AEFC8C
:100C8000054600BF306880037FF567AEFFF7A6FC1E
:100C9000401B64284FF00300F4D9B0E6411E002049
:100CA000B0EB116F1CBF012070474EF21002CEF264
:100CB000000251604EF62351CEF20001F0230B707A
:100CC0000721906011607047704700007047000076
:100CD000002804BF0120704710B5044690F83D007D
:100CE00028B9002084F83C00204600F01FF80220BC
:100CF00084F83D002068211D00F046FA012084F8A8
:100D0000460084F83E0084F83F0084F8400084F8F0
:100D1000410084F8420084F8430084F8440084F8D9
:100D2000450084F83D00002010BD000080B582B071
:100D3000006844F20041C4F2010188421CBF02B0C5
:100D400080BD0020019043F64400C4F20200016817
:100D5000002241F4003101600068002100F40030FD
:100D6000019001981920FFF7BDFC192002B0BDE8E1
:100D70008040FFF7A3BC000090F83D1001291CBF84
:100D800001207047022180F83D10006840F6FF32D4
:100D9000C168C4F20002904241F00101C1600FDC61
:100DA000B0F1804F1DD040F20041C4F200018842F2
:100DB00017D040F60001C4F20001884211D017E0BC
:100DC00040F60041C4F2000188420AD044F200011A
:100DD000C4F20101884204D00021C4F2010188421A
:100DE00006D1816801F00701062904BF0020704781
:100DF000016841F001010160002070477047000068
:100E000070B504460068C5680669B10716D515F0C7
:100E1000020113D06FF00201016101212177806985
:100E2000800703D02046FFF7E9FF05E0204600F0E9
:100E30008FF8204600F08EF800202077700719D533
:100E400015F0040016D020686FF004010161022142
:100E50002177806910F4407F04D02046FFF7CEFF51
:100E600006E000BF204600F073F8204600F072F85C
:100E700000202077300717D515F0080014D020681F
:100E80006FF00801016104212177C069800703D058
:100E90002046FFF7B3FF05E0204600F059F8204652
:100EA00000F058F800202077F00619D515F0100052
:100EB00016D020686FF01001016108212177C06908
:100EC00010F4407F04D02046FFF798FF06E000BFF3
:100ED000204600F03DF8204600F03CF80020207746
:100EE000F00718BF15F0010002D1300609D412E056
:100EF00020686FF001010161204600F02DF83006F6
:100F000009D515F0800006D020686FF080010161DE
:100F10002046FFF7D9FE700609D515F0400006D02F
:100F200020686FF040010161204600F035F8B006FE
:100F300058BF70BD15F0200008D021686FF0200266
:100F400020460A61BDE87040FFF7C0BE70BD0000DA
:100F5000704700007047000040F28801C2F20001B3
:100F600000680968884218BF704740F2700CC2F2EE
:100F7000000CDCE9001051EA00030BD04B1E60F1BD
:100F800000020020C4F202004FF48051CCE900328C
:100F9000FFF716BB7047000070470000FEE7000037
:100FA0002DE9F04F87B0002443F6300006940194F9
:100FB000C4F20200016840F2000841F0040101603F
:100FC0000168C4F2020801F0040101910199019441
:100FD000016808F5006641F08001016001680022A7
:100FE00001F0800101910199019401684FF40057CB
:100FF00041F001010160016801F0010101910199D5
:101000000194016841F00201016000684FF4005151
:1010100000F00200019001983046FFF7D9FA4046EF
:101020004FF4104100224FF41049FFF7D1FA08F5B0
:1010300080652846082100224FF0080AFFF7C8FA09
:10104000029702AF4FF0010B30463946CDE903B4A9
:101050000594FFF7E1F940463946CDE9029BCDE919
:101060000444FFF7D9F928463946CDE902ABCDE96A
:101070000444FFF7D1F907B0BDE8F08F80B540F226
:10108000880044F20041C2F20000C4F201010023D2
:1010900053224FF0630C80E80E1003618361FFF769
:1010A00017FE002808BF80BDBDE88040FFF79CB94F
:1010B000FEE70000FEE700007047000070470000F8
:1010C000FFF792BAB0B592B0002443F640000B94FB
:1010D000CDE90944CDE907440594CDE90344CDE9C0
:1010E00001440094C4F202000168022541F08051DD
:1010F0000160006800F080500090009847F2000006
:101100000094C4F20000016865F38F31016000684B
:1011100000F44040009000980120099010200A90AF
:1011200008200E905420CDE90F050420119006A848
:101130000695CDE90C54FFF7F7FB18B172B600BF66
:10114000FEE700BF0F20CDE901054FF48050CDE947
:10115000040401A802210394FFF700FB10B172B64A
:10116000FEE700BF12B0B0BD4EF68850CEF20000D0
:10117000016841F4700101607047000040F288008E
:10118000C2F20000FFF73CBE10B540F2FF7E0368DC
:10119000C4F2000E40F2000C7045C4F2010C1DDDDB
:1011A00040F60002C4F20002904220D060451ED0FA
:1011B00040F60042C4F20002904218D04FF6FF728F
:1011C000C4F2000290421CDC704525DCB0F1804F77
:1011D0003AD040F20042C4F2000233E0B0F1804F56
:1011E00005D040F20042C4F200029042E6D14A68C3
:1011F00023F0700313434FF6FF72C4F200029042D3
:10120000E2DD44F2FF32C4F20102904210DC60459C
:101210001AD044F2000213E040F60002C4F20002C9
:10122000904211D040F60042C4F200020AE000BF32
:1012300044F60002C4F20102904205D044F200429A
:10124000C4F20102904203D1CA6823F440731343ED
:1012500023F080024B69D1F800E08C681A436045A6
:101260000260C462C0F828E002D10969CCF83010ED
:10127000012141610169C90708BF10BD016921F061
:101280000101016110BD0000FEE700000000000048
:101290000026C4F20206FFF7B5F9FFF713FFFFF7C8
:1012A0007FFEFFF7EBFE06F5806008210122FFF7C5
:1012B0008FF940F28800C2F20000FFF75DFD40F2B6
:1012C000700BC2F2000B4FF448600025CBE9030518
:1012D0004FF4FA60CBF81450FFF78AF89BED040A3C
:1012E000B2EE049A40F20009B4EE490AC4F22019A1
:1012F000F1EE10FACBF8149038D039EE400A9FED99
:10130000E11AB0EEC08AB4EE418AF1EE10FA4FF065
:10131000000209DB9FEDDC1AB5EE400A31EE488A87
:10132000F1EE10FAA8BF012230464FF40041FFF75A
:101330004FF9DBF80C00DBF8148000F0D6FB044614
:1013400018EE100A20F000400F4600F0DFFC9FED81
:10135000D00B53EC102B00F041FA22463B4600F034
:10136000D7FB00F095FBCBF8108000E00020CBE924
:1013700000054FF4FA60FFF73BF89BED040A9FED80
:10138000C6AA40F2000AB4EE4A0AC4F2A02AF1EE5C
:1013900010FACBF814A038D03AEE400A9FEDB91AF3
:1013A000B0EEC08AB4EE418AF1EE10FA4FF00002BE
:1013B00009DB9FEDB51AB5EE400A31EE488AF1EE31
:1013C00010FAA8BF012230464FF40041FFF700F9A0
:1013D000DBF80C00DBF8147000F087FB054618EE14
:1013E000100A20F000400C4600F090FC9FEDA80B86
:1013F00053EC102B00F0F2F92A46234600F088FB4C
:1014000000F046FB0546CBF8107000244FF4FA605C
:10141000CBE90054FEF7ECFF9BED040A9FEDEE8A4A
:101420000020B4EE480AC4F2AF30F1EE10FACBF867
:10143000140039D09FEDE81A002231EE400A9FEDEA
:10144000E41AB0EEC0BAB4EE41BAF1EE10FA09DB1C
:101450009FEDE01AB5EE400A31EE4BBAF1EE10FA0C
:10146000A8BF012230464FF40041FFF7B1F8DBF886
:101470000C00DBF8148000F038FB05461BEE100A68
:1014800020F000400F4600F041FC9FEDCF0B53ECE5
:10149000102B00F0A3F92A463B4600F039FB00F080
:1014A000F7FACBF8108000E00020CBE900044FF4FD
:1014B000FA60FEF79DFF9BED040ACBF81490B4EEA2
:1014C000490AF1EE10FA38D039EE400A9FEDC01A01
:1014D000B0EEC09AB4EE419AF1EE10FA4FF000026D
:1014E00009DB9FEDBC1AB5EE400A31EE499AF1EEE8
:1014F00010FAA8BF012230464FF40041FFF768F808
:10150000DBF80C00DBF8147000F0EFFA054619EE7A
:10151000100A20F000400C4600F0F8FB9FEDAA0BEB
:1015200053EC102B00F05AF92A46234600F0F0FA4B
:1015300000F0AEFA0446CBF8107000254FF4FA60C4
:10154000CBE90045FEF754FF9BED040ACBF814A04D
:10155000B4EE4A0AF1EE10FA38D03AEE400A9FEDA6
:101560009C1AB0EEC09AB4EE419AF1EE10FA4FF028
:10157000000209DB9FED971AB5EE400A31EE499A59
:10158000F1EE10FAA8BF012230464FF40041FFF7F8
:101590001FF8DBF80C00DBF8148000F0A6FA044614
:1015A00019EE100A20F000400F4600F0AFFB9FED4F
:1015B000860B53EC102B00F011F922463B4600F04D
:1015C000A7FA00F065FACBF8108000E00020CBE924
:1015D00000054FF4FA60FEF70BFF9BED040A0020B4
:1015E000B4EE480AF1EE10FAC4F2AF30CBF81400B2
:1015F0003AD09FED791A002231EE400A9FED741A1D
:10160000B0EEC09AB4EE419AF1EE10FA09DB9FED0C
:10161000711AB5EE400A31EE499AF1EE10FAA8BF00
:10162000012230464FF40041FEF7D2FFDBF80C00F8
:1016300000F05BFA054619EE100A20F000400C4657
:1016400000F064FB9FED600B53EC102B00F0C6F82C
:101650002A46234600F05CFA00F01AFA9BED050AD0
:1016600005468BED040A01E0B0EE480A9FED561BDB
:101670009FED579A9FED57AA00205AEC119BCBE99A
:1016800000503FE0000034430000B44300BF00BFFF
:1016900000000000008076400000A0423AEE4BBA05
:1016A000B5EE400A0022F1EE10FAA8BF0122304642
:1016B0004FF40041FEF78CFFDBF80C00B046DBF87E
:1016C000146000F012FA04461BEE100A20F00040ED
:1016D0000D4600F01BFB4A46534600F07FF82246B9
:1016E0002B4600F015FA00F0D3F90746CBF810604E
:1016F00046460020CBE900704FF4FA60FEF778FE12
:101700009BED040A0020B4EE480AC4F2AF30F1EEBB
:1017100010FA4FF00007CBF814000BD038EE400A57
:10172000B0EEC0BAB4EE49BAF1EE10FA04DA002213
:101730000BE000BF002027E03AEE4BBAB5EE400ABE
:101740000022F1EE10FAA8BF012230464FF400410A
:10175000FEF73EFFDBF80C00DBF8148000F0C5F963
:1017600004461BEE100A20F000400D4600F0CEFAB1
:101770004A46534600F032F822462B4600F0C8F99C
:1017800000F086F9CBF81080CBE900074FF4FA603F
:10179000FEF72EFE9BED040A0020B4EE490AF1EE9E
:1017A00010FAC4F23430CBF81400A2D039EE400A5B
:1017B000B0EEC0BAB4EE49BAF1EE10FABFF66EAFB1
:1017C000002274E700BF00BF0000000000807640E8
:1017D000000034430000B4430000AF432DE9C04192
:1017E00030B4DFF8A4C23CEA111418BF3CEA131469
:1017F00000F0ED801CEA111481EA030544EAD57477
:1018000018BF1CEA131500F0C880A4EB050404F10E
:101810007F7404F500344FF0004545EAC12145EAE4
:10182000C32341EA505143EA52534FEAC0204FEAE2
:10183000C222994208BF904200F09D804FEA136592
:101840000FF24416765D4FEA134506FB05F7C7F124
:10185000807706FB07F74FEAD737A7FB0368764286
:10186000A7FB06CEC8F5803838BFA8F1010807FBF2
:1018700008E6A6FB028C4FF0000EE6FB03CEDCF17F
:10188000000CCEF1004E38BFAEF1010EA6FB0C5895
:101890004FF00007E6FB0E87A1FB08C6A0FB07CEB2
:1018A00016EB0E064FF0000545F10005E1FB07655C
:1018B00015F1E04E7EBFA4F580345FEA46066D4127
:1018C00016F1800745F100054FEA172747EA05673B
:1018D0004FEA15254FEA0666A6F1DE46B6F1805FAF
:1018E00020D9384605EBC47124F0010C01EB0C1132
:1018F000BCF1FE6F02D8F0BCBDE8008124425CBFA1
:1019000001F5801E9EEAC47F02D4F0BCBDE80081D0
:10191000244200F13980A1F1C041F0BCBDE8004192
:1019200000F0EEB94FEAD02040EA41504FEAD12111
:101930004FEAD22242EA43524FEAD323A7FB028660
:1019400007FB036605FB02661EEA0E0F58BFA6EBF7
:101950000056B6EB00564FEA520E4EEAC37E18EB25
:101960000E0E56EB530EBCD518EB02085E417F1CE1
:1019700055F10005B5E74FF480154FF000074FF023
:1019800000064FF00008ACE701F1C04101F0004152
:101990004FF00000F0BCBDE800810CEA131511EA1D
:1019A0000C1F00D00CE013EA0C1F00F026804FF053
:1019B000000081EA030101F00041F0BCBDE80081B4
:1019C000F0BCBDE8004181EA030100F099B9F0BC28
:1019D000BDE8004170B500F045F900BF097EFC3E4E
:1019E00000F007B84FF0000081EA030101F0004168
:1019F000704781EA030100F083B9F0BCBDE8004103
:101A000022494FF000007047FFFDFBF9F7F5F4F2B3
:101A1000F0EEEDEBE9E8E6E4E3E1E0DEDDDBDAD889
:101A2000D7D5D4D3D1D0CFCDCCCBCAC8C7C6C5C4E7
:101A3000C2C1C0BFBEBDBCBBBAB9B8B7B6B5B4B3FE
:101A4000B2B1B0AFAEADACABAAA9A8A8A7A6A5A4E9
:101A5000A3A3A2A1A09F9F9E9D9C9C9B9A999998AD
:101A60009797969595949393929191908F8F8E8E50
:101A70008D8C8C8B8B8A89898888878786858584DD
:101A800084838382828181800000FF070000F87FC9
:101A90004FEA1153A3F58063D3F11E03A8BFD3F11E
:101AA000200C08DB4FF0004242EAC12252EA5052B9
:101AB00032FA03F0704709420BD4102BC4BF002048
:101AC000704703F5787CBCF1FF3F05D04FF0FF3045
:101AD00070474FF00000704770B500F0C3F800BFCA
:101AE0004992248000207047F0E7B0FA80F310FAA2
:101AF00003F10AD0C3F11D0303F580634FEA0352DB
:101B00004FEA415002EBD12170474FF0000070477F
:101B100070B5DFF848C11CEA111E1EBF1CEA131580
:101B20009EEA0C0F95EA0C0F00F06F8081EA030427
:101B30004EEAD47EAE4421EA4C1123EA4C1341F420
:101B4000801143F48013AEF17F7EA1FB024CA0FB19
:101B50000365361955EB0C05A1FB034C4CF1000352
:101B6000A0FB021C16EB0C06654153F10003094271
:101B700018BF46F0010613F4007F0BD14FEA033182
:101B80004FEA053041EA155140EA165034036FF030
:101B900003020AE04FEAC3214FEAC52041EA55514A
:101BA00040EA5650F4026FF0020202EB2E4201EBC3
:101BB000025585EACE710AD05FEA440C18BF24F0C2
:101BC000004450F1000041F1000120EAD47040F2DD
:101BD000FE7C624500D270BDA84214BF4FF0804425
:101BE0004FF04044002E08BF0024BEF1806FA8BF14
:101BF000A1F1C041BDE8704080F2828001F1C04196
:101C000001F000414FF0000070470CEA13159EEA06
:101C10000C0F18BF95EA0C0F06D081EA030E4FF0A7
:101C200000000EF0004170BD00F01CF88900013E7C
:101C300000F007B800F009B84FEA430C5FEA5C5CBB
:101C400008D081EA030100F05BB84FEA410C5FEA7B
:101C50005C5CF6D102494FF0000070470000FF07BE
:101C60000000F87F0EF1020E2EF0030E5EF8046BFA
:101C7000364205D4012A43EB030515F5001F12D89F
:101C8000012841EB010C1CF5001F0CD80ED14FEAC6
:101C9000D17C0CEB4C0C0CF1020C15F5001F08BFAD
:101CA0004CEBD37C04E04FF0080C01E04FEAD37C0E
:101CB0000CEB4C0526FA05F606F00706B6F1040C07
:101CC00006D20EEB860CBDE870404CF0010C60476C
:101CD000DFE80CF0090B02024FF00041A1F50021F2
:101CE0004FF0000070BD19461046012851EB010469
:101CF00018BFD4F5001484BF002001F0004170BD6E
:101D00000808A0F500114FEA3101704743004FEA7F
:101D1000D30C4FEA3C0C43401FBF40070CF160510D
:101D200013F0FE4F70471CF0006F03D10CF0004120
:101D3000002070470CF0004343EA507040EACC00AA
:101D400010B500F00EF800BF000000924FEA00014D
:101D5000FFF7D6BF4FF00041A1F500214FF0000082
:101D600070470EF1020E2EF0030E5EF8044B244273
:101D700004D44FEA4102B2F17F4F11D84FEA400339
:101D8000B3F17F4F0CD80ED14FEAD07C0CEB4C0C4A
:101D90000CF1020CB2F17F4F08BF4CEBD17C04E098
:101DA0004FF0080C01E04FEAD17C0CEB4C0324FA15
:101DB00003F404F00704B4F1040C06D20EEB840C17
:101DC000BDE810404CF0010C6047DFE80CF007085C
:101DD00002024FF00040A0F5800010BD084642000E
:101DE00018BFD2F1807288BF00F0004010BDF1EE44
:101DF000100A4FF6FF71C0F2C03120EA010040F036
:101E00004070E1EE100A7047000000000000000082
:101E10000102030406070809381E0008000000201C
:101E200010000000D0010008481E0008100000202B
:101E3000C8060000EC0100080100000010000000CE
:081E40000024F4000000000082
:040000050800019559
:00000001FF
