:020000040800F2
:1000000088080020D5010008C1400008F932000826
:10001000BD400008110C0008BD4B000800000000A6
:100020000000000000000000000000008D4B0008F0
:10003000D114000800000000894B0008914B000813
:10004000EF010008EF010008EF010008EF010008D0
:10005000EF010008EF010008EF010008EF010008C0
:10006000EF010008EF010008EF010008EF010008B0
:10007000EF010008EF010008EF010008EF010008A0
:10008000EF010008EF010008EF010008EF01000890
:10009000EF010008EF010008EF010008D514000887
:1000A000EF010008EF010008EF010008EF01000870
:1000B000994B0008A54B0008B14B00080933000814
:1000C000FD320008EF010008EF010008EF01000811
:1000D000EF010008EF010008EF010008EF01000840
:1000E000EF010008EF010008EF01000800F002F83E
:1000F00000F060F814A696E8000CB244B344DA4568
:1001000001D100F057F8BAE80F000FA696E83000CA
:10011000A5EB040504EB0607AAEB0704A7F101070A
:100120004FEA15154FEA3414A4F10104AC4201D38F
:1001300000F040F813F0010F18BFFB1A43F0010361
:1001400000F001F8DBE71847245C0000445C000085
:10015000103A24BF78C878C1FAD8520724BF30C8F3
:1001600030C144BF04680C60704700007047000055
:100170000023002400250026103A28BF78C1FBD8B0
:10018000520728BF30C148BF0B607047662905F091
:100190008A85642900F07A80002070471FB500F03E
:1001A000C1FB04000020002105F078FAE0601FBDCB
:1001B00010B510BD00F0B6FC1146FFF7EFFF04F0DC
:1001C00059FD00F0D4FC03B4FFF7F2FF03BC00F0CC
:1001D00017FD00000948804709480047FEE7FEE791
:1001E000FEE7FEE7FEE7FEE7FEE7FEE7FEE7FEE7E7
:1001F00004480549054A064B70470000954B000826
:10020000ED000008880200208808002088040020F3
:10021000880400200FB41CB5074B06AA7B4469462E
:100220000090059800F065FB0020694600F074FB23
:100230001CBC5DF814FB0000F906000070B5044614
:1002400085690068C10601D5302600E02026C00778
:1002500007D070BDD4E9012130469047206A401C88
:1002600020626D1EF6D570BD70B5044685690078B4
:10027000C00707D170BDD4E9012120209047206A32
:10028000401C20626D1EF6D570BD00002DE9F041C6
:100290000646002410687529314616A510D0AFF324
:1002A0000080002802DA404213A507E031688A077F
:1002B00001D512A502E0490704D511A5012401E0EA
:1002C000AFF3008000210A2206F1240709E0B0FB09
:1002D000F2FCB0FBF2F302FB1C00303078541846FD
:1002E000491C0028F3D123462A463046BDE8F04198
:1002F00000F092B8000000002D0000002B0000006C
:10030000200000002DE9F0474FF0000A894604461E
:10031000C0F820A02046E1688847002876D025282C
:1003200006D0D4E901219047206A401C2062F1E701
:10033000E168204600258847C4F81CA0064600272F
:10034000C4F818A02A2E09D0304605F09FF938B31A
:1003500004EB8708303EC8F8186019E059F8041B10
:10036000204604EB87029161E1688847012F064629
:1003700018D1E069002820DA25F020051DE0D8F822
:10038000180000EB800006EB40003038C8F8180079
:100390002046E1688847064605F078F90028EED146
:1003A000012F0AD02E2E08D12046E16888477F1CF5
:1003B0000646022F45F02005C4DBA069002803DAB9
:1003C000404245F00105A061E80701D025F0100585
:1003D000B6B1A6F14100192802D8203645F40065CF
:1003E0004A463146204625604D46FFF7CFFE58B1BC
:1003F000012806D0ED1D25F0070000F1080989E766
:1004000004E005F1040985E730468AE7206ABDE883
:10041000F0877047704770472DE9F0470D469946C1
:100420009246044600F124080168880604D5E06974
:1004300021F01001216000E00120A84201DD471BEE
:1004400000E00027A1697A1902EB0900081AA061EF
:100450002078C00602D42046FFF7F0FE002608E010
:10046000D4E901211AF806009047206A401C761C46
:1004700020624E45F4DB2078C0060AD52046FFF7FF
:10048000DDFE06E0D4E9012130209047206A401CBF
:100490002062381EA7F10107F4DC07E0D4E901214E
:1004A00018F805009047206A401C2062281EA5F11C
:1004B0000105F3DC2046FFF7D7FE2078000602D5C1
:1004C0000220BDE8F0870120FBE72DE9FF4F0C4635
:1004D0001E464FF0FF378BB0D2E90001DDF8608097
:1004E0000A908A46C1F30A5505B93D4600210846DF
:1004F0004FF00000BAF1000F00F4400005DA00EB05
:1005000080004FF4400101EA50004FEA9059B9F1E0
:10051000010F00DDB9460A9850EA4A000ED044F6B1
:100520001050A5F2FF3545432F14B8F1000F1ED02F
:100530007542291E1EDDC9F100021CE0B8F1010F51
:100540004FF0000001D0302103E0F24305E02154D8
:10055000401CB042FBDB30460022002121540B99A5
:10056000C1F80880C1E900200FB0BDE8F08FBD1BC5
:100570006D1CDEE74A4600DA694206A800F05CFA24
:1005800006AB93E8070003AB83E8070050460A99DF
:1005900004F0A0FC8DE80700A0F500501F38009083
:1005A0000398002D0ADD42F21F014A460844002349
:1005B00003A90390684604F009FF09E0A0F5005084
:1005C0004A461F38002303A90390684604F013FF2E
:1005D0008DE807000004000C03D04FF0FF30410805
:1005E00000E01046B8F1000F03D00022009215463B
:1005F0001EE0751E05D400F099F9303262556D1E6B
:10060000F9D5B3460122084302D000227F1C04E042
:100610002078302801D100227F1E002A099784D03B
:100620001DE0112D07DA00F081F9303262556D1CA2
:1006300050EA0102F5D1084302D00098C8B10EE09B
:100640000021681E05E0235C625C63542254401E56
:10065000491C8142F7DBAB46A81B401E09900020D5
:1006600004F80B000B98099AC0F80880C0E9002B29
:100670007AE711264FF0000857E72DE9F04F88463A
:100680000446D21D22F0070191B0D1E90001CDE965
:100690000A0104F0E7FF02460B98C00F01D02D209D
:1006A00007E02068810701D52B2002E0202101EA24
:1006B000C000032A099001D0072A05DB0346414602
:1006C000204600F079F90BE12078800601D5E06939
:1006D00000E00620B8F1650F814606D0B8F1660F3C
:1006E00018D0B8F1670F70D131E00020B9F1110FC7
:1006F000009001DB112301E009F101030AAA01A91D
:100700000CA8FFF7E2FEDDE90C70002609F10105F7
:10071000834647E001204B4600904FF000470AAA6D
:1007200001A90CA8FFF7D1FEDDE90DB00C995D46DB
:10073000002610B909F101000D18B9EB050003D42A
:10074000C0F1FF3609F10105A5EB09002BE0B9F175
:10075000010F01DA4FF001090020B9F1110F0090EB
:10076000484601DD112300E003460AAA01A90CA8AE
:10077000FFF7ABFEDDE90C704D460026834620787E
:1007800000070AD4AB4500DA5D4601A8012D04DD5F
:10079000411911F8011C302907D04F4502DA17F131
:1007A000040F04DA012082460FE06D1EEEE7002FF1
:1007B00002DCED1B3E4403E0781CA84200DD7D1CFA
:1007C000B81B00F1010A4FF000472078000703D45E
:1007D000AA4501DB4FF0FF3A0021B7F1004F0DF1C0
:1007E00043088DF8431024D002202B23002F01DA78
:1007F0007F422D230A21021EA0F1010000DC5FB11F
:1008000097FBF1FC97FBF1F201FB1C7C17460CF106
:10081000300C08F801CDEEE7A8F101000370218843
:10082000090501D5452100E06521A0F1010800F886
:10083000011C09980FA9A1EB0807FF1D00B10120B9
:10084000411901EBEA70A1693844081A401EA06101
:100850002078C00602D42046FFF7F0FC099828B1A2
:10086000D4E901219047206A401C20622078C0060C
:1008700022D52046FFF7E2FC1EE0002E04DBB34544
:1008800002DD01A8805D00E03020D4E9012190471D
:10089000206A401C2062761CAAF101005FEA000A6F
:1008A0000AD100F03FF8C0680168405CD4E901213A
:1008B0009047206A401C2062281EA5F10105DCDC5F
:1008C00007E0D4E9012118F8010B9047206A401C89
:1008D0002062381EA7F10107F3DC2046FFF7C4FCB5
:1008E000032011B041E6000001694A1C026108784A
:1008F000704700B58FB0CDE9013100210591054960
:100900007944CDE9031011466846FFF7FBFC0FB0B0
:1009100000BD0000E5FFFFFF0A6802F8010B0A6056
:1009200070470000004870473000002030B5B0F13B
:100930000A0271F100034FEA900E4EEA817EB0EB9D
:100940000E0061EB91014FEA101E4EEA017E10EBA2
:100950000E0041EB11114FEA102E4EEA016E10EB22
:100960000E0041EB11214FEA104E4EEA014E10EB02
:100970000E0041EB1141401841F100014FEAD00057
:1009800040EA41704FEAD1014FEA810444EA907491
:1009900010EB800544EB01046D1944EB0404521B79
:1009A000A3414FF0000348BF0A3200D530BD401CC0
:1009B00041F1000130BD00002DE9F0411F46044621
:1009C00003260168072A01F4006004DB08B116A5BC
:1009D00005E016A503E008B115A500E015A521F076
:1009E00010002060A069C01EA0610FB1401EA06170
:1009F0002046FFF723FC4FB1D4E901213846904748
:100A0000206A401C2062C01C206206E0206AFAE7CF
:100A1000D4E9012115F8010B9047761EF8D2204643
:100A2000FFF722FCBDE8F0814E414E006E616E0082
:100A3000494E4600696E66002DE9F047814616462C
:100A40008AB0354878440DC88DE80D0032487844A6
:100A5000801C03AC0DC884E80D0041F69B300844AF
:100A6000372190FBF1F290FBF1F5A5F1800501FB38
:100A700012041B3C02D56442012000E00020DFF894
:100A800098A080460027FA44AAF1BE0A0EE0E007CB
:100A90000AD03246684607EB470101230AEB810181
:100AA00004F0A9FC8DE8070064107F1C002CEED137
:100AB000194F7F44AE3F19E0E80715D007EB04104B
:100AC0000DF1180A90E80E008AE80E00C068F042A6
:100AD00001D1981908903246012306A903A804F011
:100AE0008AFC03AB83E807006D10641C002DE3D182
:100AF0004FF0010332466946B8F1000F03A802D057
:100B000004F064FC01E004F076FCC9E90001C9F8D6
:100B100008200AB0BDE8F087E052000000487047A6
:100B2000100000207546FFF7F9FFAE460500694644
:100B3000534620F00700854618B020B5FFF758FB54
:100B4000BDE820404FF000064FF000074FF00008CE
:100B50004FF0000BAC46ACE8C009ACE8C009ACE80B
:100B6000C009ACE8C00921F007018D46704710B5F7
:100B70000446AFF300802046BDE81040FFF723BBDA
:100B80004FF0013C50F8042B51F8043B9A4221D11C
:100B9000A2EB0C03934313EACC1317D150F8042BA8
:100BA00051F8043B9A4215D1A2EB0C03934313EA8C
:100BB000CC130BD150F8042B51F8043B9A4209D1C5
:100BC000A2EB0C03934313EACC13DBD04FF00000ED
:100BD000704700BFD01A01BAB1FA81F101F01801D3
:100BE00022FA01F0CB40DBB2C0B2C01AC1F1200141
:100BF0002CFA01F3D11A914311EAC311E6D17047DF
:100C000001491820ABBEFEE7260002007047000035
:100C1000FEE70000016040F20111C18000218280E6
:100C20000172C0E90311017570470000F0B583B08F
:100C30000546C07A40F22024002818BF01204FEA60
:100C4000C0064FF0180706F10400C2F2000408BF06
:100C500010278DF808002046012100F02FFA381DDA
:100C60008DF80A00204601218DF8096000F026FA6F
:100C7000286829798DF80B704FF47A7702AA04233B
:100C8000009701F06FFA2046052100F017FA03B033
:100C9000F0BD00002DE9F04383B004460A9840F20D
:100CA0002029A07140F60640C2F61400C4F80700DF
:100CB0000820C2F200092160E07248463221227108
:100CC000637100F0FBF9E07A3827002808BF30276D
:100CD0003D1D4846012138268DF8085000F0EEF9F8
:100CE000484601218DF809708DF80A5000F0E6F9A8
:100CF000206821794FF47A7802AA04238DF80B70CA
:100D0000CDF8008001F02EFAE07A3825002808BFDF
:100D100030252F1D484601218DF8087000F0CEF9CE
:100D2000484601218DF809508DF80A7000F0C6F987
:100D30002068217902AA04238DF80B50CDF8008099
:100D400001F010FA4846052100F0B8F9E07A2825AC
:100D5000002808BF302606F1040008BF20258DF8C2
:100D6000080048460121282700F0A8F9281D8DF821
:100D70000A00484601218DF8096000F09FF92068BB
:100D8000217902AA04238DF80B50CDF8008001F0E0
:100D9000E9F94846052100F091F9E07A2825002874
:100DA00018BF012008BF2025C600281D8DF80800A7
:100DB0004846012100F082F9301D8DF80A004846AE
:100DC00001218DF8095000F079F92068217902AAF3
:100DD00004238DF80B60CDF8008001F0C3F948467C
:100DE000052100F06BF9E079E27A010120F00F05AE
:100DF00001F10806002A14BF08350601281D8DF8E8
:100E000008004846012100F059F9301D8DF80A000C
:100E1000484601218DF8095000F050F920682179E9
:100E200002AA04238DF80B60CDF8008001F09AF936
:100E3000207AE27A010120F00F0501F10806002A6C
:100E400014BF08350601281D8DF808004846012109
:100E500000F034F9301D8DF80A00484601218DF864
:100E6000095000F02BF92068217902AA04238DF89B
:100E70000B60CDF8008001F075F9607AE27A01012B
:100E800020F00F0501F10806002A14BF08350601FD
:100E9000281D8DF808004846012100F00FF9301D8B
:100EA0008DF80A00484601218DF8095000F006F936
:100EB0002068217902AA04238DF80B60CDF8008008
:100EC00001F050F9A07AE27A010120F00F0501F15A
:100ED0000806002A14BF08350601281D8DF80800F1
:100EE0004846012100F0EAF8301D8DF80A00484616
:100EF00001218DF8095000F0E1F82068217902AA5B
:100F000004238DF80B60CDF8008001F02BF9E07A16
:100F10001826002818BF01204FEAC00505F104007B
:100F200008BF10268DF808004846012100F0C6F8D9
:100F3000301D8DF80A00484601218DF8095000F057
:100F4000BDF82068217902AA04238DF80B60CDF842
:100F5000008001F007F9E07A012100280CBF20276A
:100F60000120C500281D8DF80800484600F0A6F8AD
:100F7000381D8DF80A00484601218DF8095000F00F
:100F80009DF82068217902AA04238DF80B70CDF812
:100F9000008001F0E7F803B0BDE8F083F0B583B05E
:100FA00004464079A379884298BF411E934298BF76
:100FB0005A1ED0B2032805D8DFE800F0090206085F
:100FC000403104E0002102E0143100E054310A0114
:100FD000E37A01F0700002F108066FF07702002B4F
:100FE00008BF6FF07F0202EB000740F2202507F1F7
:100FF0000400C2F2000508BF0E018DF80800284663
:10100000012100F05BF8301D8DF80A00284601210F
:101010008DF8097000F052F8206821794FF47A7742
:1010200002AA04238DF80B60009701F09BF803B02F
:10103000F0BD00000A78002A08BF70472DE9F04F84
:1010400083B040F2202A83464F1EC2F2000A4FF4BA
:101050007A780DF1080900BF11019BF80B3022F0DE
:101060000F0001F10806002B14BF08301601451CC3
:1010700005308DF8080050460121741C00F01EF860
:10108000701D8DF80A00504601218DF8095000F0BE
:1010900015F8DBF800009BF804104A4604238DF88D
:1010A0000B40CDF8008001F05DF8BA780137002AD6
:1010B000D2D103B0BDE8F04F7047000000680022B5
:1010C0000029426200F0858011F003023AD000BF8F
:1010D000436ADB087C2B0BD8436ADB087C2B07D8E0
:1010E000436ADB087C2B03D8436AB3F57A7FEFD3DE
:1010F000012A01D14A1E26E0436ADB087C2B0BD86B
:10110000436ADB087C2B07D8436ADB087C2B03D8B7
:10111000436AB3F57A7FEFD3022A01D18A1E12E027
:10112000426AD2087C2A0BD8426AD2087C2A07D8A5
:10113000426AD2087C2A03D8426AB2F57A7FEFD39A
:10114000CA1E00E00A46042938BF7047416AC90830
:101150007C290BD8416AC9087C2907D8416AC9088B
:101160007C2903D8416AB1F57A7FEFD3416AC90877
:101170007C290BD8416AC9087C2907D8416AC9086B
:101180007C2903D8416AB1F57A7FEFD3416AC90857
:101190007C290BD8416AC9087C2907D8416AC9084B
:1011A0007C2903D8416AB1F57A7FEFD3416AC90837
:1011B0007C290BD8416AC9087C2907D8416AC9082B
:1011C0007C2903D8416AB1F57A7FEFD3043A110440
:1011D000BCD1704740F2E402C2F2000202EB001000
:1011E00090F82420002A0FBF0020006A0860012028
:1011F00070470000F0B581B040F2E406C2F200068C
:10120000351D40F600010446C4F2010128460422BF
:1012100002F070FF284602F055FF60B331780020DD
:10122000471CC0B2013106EB0010317000F118010B
:10123000284602F04DFF284602F08AFF3178032944
:1012400002D800283846EBD1380614D00026FFB269
:10125000F0B2214600F0B4F8284603F003F828461F
:10126000CC2103F065FC2846442103F061FC0136E3
:10127000F0B2B842ECD301B0F0BD000040F2E4009F
:10128000C2F200000078704740F2E402C2F20002AD
:10129000137883429CBF002070472DE9F04102EB98
:1012A000001616F8180F28283AD1151D28460C46A6
:1012B00002F052FF002833D0284602F0D3FF284620
:1012C000314603F0C1F82846BE2103F031FC284620
:1012D00002F09AFF8046284602F096FF074628460D
:1012E00002F092FF284602F08FFF284602F08CFFA2
:1012F0000646284602F0B6FFC6F34111032913D86B
:1013000048EA0720DFE801F00218222C04F00EFB67
:101310004FF07C5104F086FB20600120BDE8F08195
:101320000020BDE8F08100BF0020C4F27F302060C3
:101330000120BDE8F08100BF04F0F8FA4FF07A51C7
:1013400004F070FB20600120BDE8F08104F0EEFAAB
:101350004FF0785104F066FB20600120BDE8F08179
:1013600004F0E4FA4FF0765104F05CFB20600120B9
:10137000BDE8F081F0B581B040F2E404C2F20004AF
:10138000201D02F0E9FEC8B12078B8B104F12405AF
:101390000026002705E000BF0137874205F1100550
:1013A0000CD215F80C1C2E702829F5D1291FF8B283
:1013B000FFF76AFF28702078EEE700BF01B0F0BDAC
:1013C00040F2E402C2F20002137883429CBF002084
:1013D00070472DE9F04102EB001414F8180F28288B
:1013E0001CBF0020BDE8F081151D28460E4602F006
:1013F00039FF2846214603F027F82846BE2103F08E
:1014000097FB284602F000FF284602F0FDFE284622
:1014100002F0FAFE8046284602F0F6FE074628460D
:1014200002F0F2FEA6F109010329064616D8DFE80C
:1014300001F003070D1300BF06F09F060EE000BF8A
:1014400006F09F0000F1200608E000BF06F09F00B4
:1014500000F1400602E000BF46F06006284602F0B8
:1014600001FF2846214602F0EFFF28464E2103F0F7
:101470005FFB2846414603F05BFB2846394603F0F4
:1014800057FB2846314603F053FB284602F0EAFE9C
:101490002846214602F0D8FF2846482103F048FBA1
:1014A0000120BDE8F081000010B540F2E400C2F276
:1014B0000000041D204602F0D5FE2046CC2103F09A
:1014C00037FB20464421BDE8104003F031BB00004B
:1014D00070470000202000F08FB80000EFF310806C
:1014E00072B600BFFEE7000090F82110022923D158
:1014F0000268116821F00E0111602F211368C4F2F7
:1015000002018A4240F20401C4F2020123F0010305
:10151000136015DD3023C4F202039A421CD0442329
:10152000C4F202039A421BD05823C4F202039A4227
:101530001CD14FF4803321E00421816301207047E6
:101540000823C4F202039A420ED01C23C4F2020301
:101550009A420BD1102311E04FF480730EE000BFCC
:101560004FF480530AE000BF012307E001F1680C4B
:101570004FF08073624508BF4FF480130B60012168
:1015800080F82110426B002180F8201022B180B534
:1015900090470021BDE880400846704790F8210040
:1015A00070470000B0B5044600F04EF9054640F221
:1015B0000000C2F200000078611C18BF044400BFA4
:1015C00000F042F9401BA042FAD3B0BD202818BF5A
:1015D000704740F27003C2F200030120987040F699
:1015E00000404FF0000CC4F201000221002283F8F9
:1015F00000C000F023B9000040F21441C4F2010120
:101600000A68024214BF08607047FFF7DFBF00009E
:101610002DE9F04F82B00E68002E00F0FD8041F2FF
:101620000042C4F20102042340F2004E904208BF7F
:1016300003234FF6FF7CC4F2010E00930024012324
:10164000C1F2100C4FF0000A4FF0000944E000BF57
:10165000012704F00C030F229A402BEA020207FA3A
:1016600003F34FEA9A051A4346F825204E6840F2E4
:101670000C45F202DEF8082054BF22EA080242EAD2
:101680000802C4F20105CEF808202A68B30254BF4C
:1016900022EA080242EA08022A60B303DEF80420C4
:1016A00054BF22EA080242EA0802F303CEF80420FB
:1016B000DEF800204FF0010354BF22EA080242EA9C
:1016C0000802CEF800200E680AF1010A36FA0AF282
:1016D00004F1040400F0A08003FA0AFB16EA0B08E8
:1016E000F1D04E68664511DC122E55D8DFE806F0C1
:1016F000340A444854545454545454545454545430
:10170000544C5000D1F80C9046E000BF4FF6FF72E9
:10171000C1F2210296420FDC0022C1F21102964270
:101720001AD00022C1F21202964215D00022C1F254
:101730002102964210D02FE00022C1F222029642EE
:101740000AD00022C1F23102964205D00022C1F235
:101750003202964220D100BF8A684AB1012A14BFE2
:10176000C0F814B0C0F810B04FF0080914E000BF82
:101770004FF0040910E000BFCA6802F108090BE04D
:101780004FF0000908E000BFCA6802F1040903E055
:10179000CA6802F10C0900BF22460646B8F5807FF0
:1017A00024BF203A043637680F25954027EA0505FF
:1017B00009FA02F22A433260CA79D2067FF583AF72
:1017C00041F21803C4F202031A68AEF57E7642F0C5
:1017D00001021A601A6802F001020192019A2AF0CD
:1017E000030256F802B040F60002C4F20102904231
:1017F00010D040F60042C4F2010290423FF428AFFC
:1018000041F20002C4F20102009F904208BF022789
:101810001FE700BF00271CE702B0BDE8F08F000003
:101820008068084018BF012070470000C26802EAC3
:101830000103914341EA034101617047002A08BF57
:10184000090401617047000040F28420C2F20000E8
:10185000006870477047000070470000F0B581B025
:101860000446006800254769426894F83E1002F477
:101870008076FA0508D53EB16FF480724261026845
:10188000012542F400420260BA0505D5002E1EBFB4
:1018900002356FF4007242617A0516D5AEB1628DE1
:1018A00094F83D30D4F830C0202908BF002A23D056
:1018B0006FF48062402905F10405426101D01029CE
:1018C00003D1016841F400710160380506D52EB1DD
:1018D000206808356FF40061416100E055B1206C6B
:1018E00040EA05012046216401B0BDE8F04001F066
:1018F000A3BD00BF01B0F0BD03F0F701212909D05D
:10190000282B08BFBCF1210F04D06FF48061416126
:101910000435DAE794F83D10E26AB2F1080318BF23
:101920000123203A18BF0122134208BF282921D0E1
:10193000212939D10021CFF6FF71E16221212163F4
:10194000202184F83D10002184F83E10426822F4E2
:10195000E06242606FF480624261026822F4806259
:1019600002604269120648BF0161204600F030FD66
:10197000ABE700BF0021CFF6FF71E162416821F4BF
:10198000E06141606FF480614161016821F4806130
:10199000016000202021206384F83D1084F83E007F
:1019A000204600F0D9FB90E76FF4806141618CE73D
:1019B000F0B581B0076804467868E26A94F83E3072
:1019C00094F83DE0402B01D0102B1BD1BD697E69FE
:1019D000F10745D1B2F12A4F00F06082B2F52A0F2B
:1019E00000F05C82310700F4007240F10981002AA6
:1019F00000F00681606B616C0028C9B2396140F06B
:101A0000EE80EEE0216C00F4007300290CBFBD698C
:101A100000257E69B1073DD5E3B3206C002818BFCF
:101A2000BD6994F83D0000F02800282874D178683A
:101A3000012120F48060786005F0040081EA9001C3
:101A400028064FF0180058BF0C20225A00232046C9
:101A500084F83C3001B0BDE8F040FFF7FDBE00BFA8
:101A6000810541D44FF0010C79686A0742D4090519
:101A700000F1148206F04401402940F0318110F455
:101A8000806000F02D81204601B0BDE8F04001F0FB
:101A90000DBE00BFF1064BD5002B49D094F83D5048
:101AA000786820F4E0607860002000907869009009
:101AB000386840F0010038600098386820F4806091
:101AC00038607868000540F1508105F0F70026463F
:101AD000222840F0298156F8380F0168496826F815
:101AE0000E1C36F80E1C27E1E06AB0F52A0F51D122
:101AF000012054E0090500F1D18106F0840180291C
:101B000040F0FE8010F4806000F0FA80204601B0C2
:101B1000BDE8F04001F0AABE002000907969009174
:101B2000B9690091009984F83C0001B0F0BD00BF94
:101B30000EF0F701212940F0958006F084018029FC
:101B400040F0648110F4806000F0608194F83D0002
:101B5000618D002900F0A281616A11F8012B3A61C0
:101B60006162618D01396185618D002908BF292875
:101B700040F094817868282120F4806078602120EA
:101B80002063204684F83D1001B0BDE8F04000F02D
:101B90001FBC00BFE06AB0F12A4F01D10820E0620B
:101BA00094F83E0040280BD1206D616C002801F0B4
:101BB000FE0018BF40F00100386101B0F0BD00BF69
:101BC0002069B0F5804F7BD194F83D00616C2128ED
:101BD00001F0FE0118BF01313961606B08B1806A04
:101BE00038B9A06B002800F05981806A002800F005
:101BF0005581786840F40060786001B0F0BD00BFA6
:101C00004FF0010CB1078CEA522C7FF52DAF002A62
:101C10003FF42AAF94F83E30E06A226B94F83D100E
:101C2000222940F0FF80216D002908BF402B00F0E1
:101C3000F980216D002940F033812169B1F5404FD1
:101C400040F02E810020009078690090B8690090E3
:101C50000098386840F480703860206D013020654D
:101C600001B0F0BD06F04401402940F0E58010F4D9
:101C7000806000F0E18094F83D00618D002900F063
:101C80000D813969626A1170616A01316162618D29
:101C900001396185618D002908BF2A2840F0FE8046
:101CA0002068416821F4806141602220282120635E
:101CB000204684F83D1001B0BDE8F04000F086BB3E
:101CC000206D002800F0C880206D012840F0E680DB
:101CD000606C062101EAD010F130386101B0F0BD2E
:101CE00006F00400012181EA900050EA0C0040F067
:101CF000D580204601B0BDE8F04001F063BC00BFD4
:101D000006F00400012181EA900050EA0C0040F046
:101D1000C580BEF1210F40F0B980204601B0BDE87A
:101D2000F04001F061BD00BF56F8340F016849680A
:101D300026F80A1C36F80A1C19B1216C41F004017E
:101D40002164796821F400617960FFF727FC01289C
:101D50000BD0306843F21531C0F600014163FFF744
:101D6000C3FB10B13068416B8847608D60B120685B
:101D70004169490730D4416949063AD4608D18B1A8
:101D8000206C40F004002064206C28B1204601B093
:101D9000BDE8F04001F050BB2A2D07D100202063A0
:101DA000282084F83D00204600F010FB94F83D0008
:101DB000282859D10020CFF6FF70E06200212020B2
:101DC000216384F83D00204684F83E1001B0BDE850
:101DD000F04000F0C1B900BF0069616A0870616A33
:101DE000206801316162618D01396185416949066F
:101DF000C4D50069616A0870606A01306062608DF4
:101E000001386085608D0028BAD1BDE7700745D5DF
:101E1000002B43D0608D002840D0606A10F8011B71
:101E2000396113E00020009078690090B869009053
:101E3000009801B0F0BD00BF70072FD573B3608D5F
:101E400060B33869616A0870606A01306062608DF1
:101E50000138608522E000BF606C062101EAD010E5
:101E6000F030386101B0F0BD206B222818BF222D60
:101E700014D100212020216384F83D00204684F8FD
:101E80003E1001B0BDE8F04000F0A0BA402B05D1F3
:101E9000204601B0BDE8F04001F042BD01B0F0BD08
:101EA000618D51B1618D012916D1202818BF0828F4
:101EB00042D1386820F48060386000200090786952
:101EC0000090B86900900098386840F4007038605D
:101ED0000020206501B0F0BD618D022914D11028C9
:101EE0004ED8012114228140C0F20102114247D094
:101EF000396841F48061396000210091796900916D
:101F0000B969009100994AE0396841F4806139600B
:101F1000796809055DD5421E1F2A57D801219140D5
:101F200048F28102C8F2000211424FD0786840F4B2
:101F3000805078604DE000BF10F5803F0CD13868CC
:101F400020F48060386078680005B6D5386820F4E1
:101F5000806038603DE000BF122A01D10128A8D17D
:101F60001028F3D8012101FA00F01421C0F2010178
:101F70000842EBD0386840F48060386029E000BF48
:101F8000396841F40061396000210091796900915C
:101F9000B96900910099396821F4806139607968E4
:101FA00009051DD5421E1F2A1ED80121914048F265
:101FB0008102C8F20002114216D0786840F48050C5
:101FC00078600020206501B0F0BD00BF10F5803FB3
:101FD000ACD00020009078690090B869009000981B
:101FE0000020206501B0F0BD10F5803FE5D0F7E797
:101FF00070470000002804BF01207047F0B581B091
:10200000044690F83D0028B9002084F83C002046A2
:1020100000F09AF9242084F83D002068016821F03E
:1020200001010160016841F400410160016821F48F
:102030000041016000F066FB636848F2A16CC0F2E9
:10204000010C40F60011C0F23D0163453CBF48F26F
:102050008041C0F21E01884202D2012001B0F0BDD1
:102060004DF68361C4F21B31A0FB01122168970C6D
:10207000D1F804E04FF496762EF03F0545EA9245FC
:102080004D60774348F638160D6AC0F24106A7FB4B
:10209000067625F03F07634538BF960C721C3A431D
:1020A0000A62CA6948F2A0664CF6FF77C0F20106E0
:1020B000B34222EA07020BD801385B00B0FBF3F011
:1020C00001306FF31F30042898BF04201BE000BFCD
:1020D000A768013857B119277B43B0FBF3F00130F3
:1020E0006FF31F3070B100F5804007E003EB43034E
:1020F000B0FBF3F001306FF31F3018B100F5004072
:1021000001E000BF01201043C8610868D4E907233B
:1021100020F0C000104318430860886848F2FF327E
:1021200004F10C0790438CCF18431043A6698860D4
:10213000C86820F0FF0038433043C860086840F0AA
:102140000100086000202021206484F83D102063F5
:1021500084F83E0001B0F0BD7047000070470000F9
:10216000704700002DE9F04383B01E4617468946AC
:102170000446FFF769FB94F83D10202924D1054659
:10218000206800BF816989071AD5FFF75DFB411BF5
:1021900020681A29F6D381698907F3D50020202108
:1021A000206384F83D1084F83E00216C41F020014A
:1021B000216484F83C00022003B0BDE8F08300BF36
:1021C00094F83C10012903D1022003B0BDE8F0834C
:1021D000012184F83C100168C90703D1016841F06E
:1021E00001010160016840F2020821F40061016010
:1021F000212184F83D10102184F83E100021216433
:1022000067626685618DC0F201082185A8F102111F
:10221000E162E16A0A9E11F5803F18BF01291DD1D4
:10222000016841F48071016020464FF001110022E5
:102230003346009501F032FC50B120680068C005BB
:1022400044BF4FF400702064012003B0BDE8F08368
:102250002069B0F5804F07D1FE2015E00829DFD0B6
:10226000216B1229DCD0DFE7062000EAD9102168B3
:10227000F030086108F10601204632462B4601F095
:10228000F3FC0028E0D1FF20216800EA0900086182
:102290002046414632462B4601F0E6FC0028D3D1C9
:1022A00000200290206841690291806902900298A2
:1022B00006E000BF204631462A4601F091FB18BBDC
:1022C000208D68B3204631462A4601F039FDD8B941
:1022D000606A2168024612F8013B0B616262628DFE
:1022E000013A6285228D531E23854F697F07E1D510
:1022F0001B04DFD0437802300B616062608D0138CF
:102300006085901E2085D5E7206C04289CD120682C
:10231000016841F400710160012003B0BDE8F08361
:102320002068016841F400710160202084F83D00BC
:10233000002084F83E0084F83C0003B0BDE8F08340
:10234000704700007047000010B586B045F20041AC
:102350000068C4F2000100228842049202D006B054
:1023600010BD00BF41F21804C4F20204206840F01E
:1023700008002060206800F0080001900198C0204B
:102380000290122003900320059001F5384002A925
:10239000FFF73EF96068002140F40010606060685B
:1023A000002200F40010019001981F2000F08CF82A
:1023B0001F2000F077F820200021002200F084F890
:1023C000202000F06FF806B010BD0000704700003C
:1023D0007047000040F2000040F28421C2F2000089
:1023E000C2F2000100780A681044086070470000DB
:1023F00080B542F20000C4F20200016841F0100111
:102400000160032000F08CF80F2000F005F800F0C8
:1024100027F8002080BD000070B540F20006C2F22F
:10242000000640F208013278C2F200014FF47A73DC
:102430000968B3FBF2F20446B1FBF2F1084600F082
:1024400075FB0F2C4FF0010508D838B94FF0FF305D
:1024500021460022002500F037F87460284670BD40
:1024600082B041F21800C4F202000168022241F079
:1024700001010160016801F00101019101994168C8
:1024800041F080514160406800F080500090009819
:102490000420C4F20100016862F31A61016002B015
:1024A00070470000002848BF704700F01F0101225C
:1024B00002FA01F11C2202EAD0004EF20012CEF222
:1024C000000281507047000010B54EF60C5CCEF251
:1024D000000CDCF80030C3F3022E8EF00704042C4D
:1024E00028BF0424BEF103034FF0FF3E0EFA04F4AC
:1024F00038BF0023A14399400EFA03F39A431143D6
:1025000000F00F0200F160430901043A03F564434F
:102510006244002848BF02F10C03197010BD00008E
:102520004EF60C51CEF200010A684FF6FF031A4036
:1025300060F30A2242F0806040F0FD70086070474E
:10254000002804BF012070472DE9F04381B042F21A
:102550000008C4F202080446D8F800000D4600F056
:10256000070088420CD2D8F8000020F0070028436A
:10257000C8F80000D8F8000000F00700A8426CD1AD
:10258000206841F204098107C4F2020917D5410706
:1025900005D5D9F8001041F4E061C9F80010010731
:1025A00005D5D9F8001041F46051C9F80010D9F8E8
:1025B0000010A26821F0F0011143C9F80010C00713
:1025C00042D1D8F8000000F00700A8420CD9D8F892
:1025D000000020F007002843C8F80000D8F80000E9
:1025E00000F00700A84238D12068410707D5D9F884
:1025F0000010E26821F4E0611143C9F800100007FF
:1026000008D5D9F80000216920F4605040EAC100E3
:10261000C9F80000D9F8002002F00C00082841F2A7
:102620000020C0F27A0051D145F65A53C2F38341DB
:10263000C0F60003595CD2033CD440F60010C0F24F
:102640003D00484342E000BF606802280AD00128EC
:102650002AD159F8041C890308D4012001B0BDE82F
:10266000F08300BF59F8041C8901F6D5D9F8001091
:1026700021F003010843C9F80000FFF7E5F806461A
:1026800041F28837D9F80000616800F00C00B0EB27
:10269000810F96D0FFF7D8F8801BB842F2D90320FB
:1026A00001B0BDE8F08300BF59F8041C8907D4D5F8
:1026B000DCE700BFD9F8002045F65853C2F340428A
:1026C000C0F600039A5C4843B0FBF2F0D9F8001062
:1026D00045F64052C1F30311C0F60002515C40F2CE
:1026E000080220FA01F140F20400C2F20000006882
:1026F000C2F200021160FFF78FFE002001B0BDE8BA
:10270000F083000040F2080041F20401C2F2000030
:10271000C4F202010068096845F65052C1F3022173
:10272000C0F60002515CC84070470000002804BF9A
:10273000012070472DE9F04182B00446007841F253
:102740000006C007C4F202060CD0706800F00C004E
:10275000042840F081803068800303D56068002839
:1027600000F04E81207880071BD5706810F00C0FA8
:1027700009D0706800F00C00082840F08B80706869
:10278000C00300F187803068800703D520690128E5
:1027900040F036813068616920F0F80040EAC100FD
:1027A00030602078000713D4207840072CD4E569E6
:1027B000002D00F02081706800F00C00082840F027
:1027C000AF80012D40F00C81012002B0BDE8F08106
:1027D000A069002800F08C800020C4F24220012172
:1027E000C0F88014FFF730F8054600BF706A800714
:1027F00000F1BA80FFF728F8401B0228F6D9032021
:1028000002B0BDE8F08100BFF0695FEAC00808D4FB
:10281000F06940F08050F061F06900F08050009065
:10282000009847F20007C4F200073868C0054DD48D
:10283000386840F480703860FFF706F8054600BF3E
:102840003868C00542D4FEF7FFFF401B6428F7D963
:10285000032002B0BDE8F081706800F00C00082889
:1028600003D17068C0033FF576AF6068002800F0C0
:102870000981B0F5A02F00F01D81B0F5803F00F078
:102880001D81306820F480303060306820F4802072
:1028900017E100BF2069002840F20000C4F2422086
:1028A00000F08C8001210160FEF7CEFF054600BFDD
:1028B000306880073FF56EAFFEF7C6FF401B022869
:1028C000F6D9032002B0BDE8F08100BFE06800281F
:1028D00000F09A80052800F0B180012800F0B28055
:1028E000306A20F001003062306A20F00400ACE071
:1028F0000020C4F242200021C0F88014FEF7A4FF9B
:10290000054600BF706A80077FF54EAFFEF79CFF5B
:10291000401B0228F6D9032002B0BDE8F08100BFB9
:102920000027C4F2422700203866FEF78DFF022DF3
:1029300005460DD13068800140F1D680FEF784FF56
:10294000401B02284FF00300F4D902B0BDE8F0812B
:10295000306880014FD5FEF777FF401B02284FF00B
:102960000300F5D9F1E700BF40F20800C2F2000011
:10297000006844F6D351C1F26201A0FB0101480A8C
:10298000019000BF00BF0198411E002801913FF453
:102990000BAF00BF0198411E002801913FF404AF26
:1029A00000BF0198411E002801913FF4FDAE00BF19
:1029B0000198411E00280191E4D1F5E60021016053
:1029C000FEF742FF054600BF306880077FF5E9AE9D
:1029D000FEF73AFF401B02284FF00300F4D9B4E79A
:1029E0007068216A00F480328A4209D1616A00F479
:1029F0007010884204D1002002B0BDE8F08100BF11
:102A0000012002B0BDE8F081306A20F001003062A0
:102A1000306A20F004003062FEF716FF054641F2EE
:102A2000883700BF306A800722D5FEF70DFF401BB4
:102A3000B8424FF00300F5D987E700BF306A40F095
:102A400004003062306A40F001003062FEF7FCFEA4
:102A5000054641F2883700BF306A800708D4FEF788
:102A6000F3FE401BB842F7D9032002B0BDE8F08165
:102A7000B8F1000F3FF59BAEF06920F08050F06197
:102A800095E600BF306820F480303060306820F474
:102A900080203060FEF7D8FE054600BF3068800316
:102AA0007FF560AEFEF7D0FE401B64284FF00300B8
:102AB000F4D94AE7306840F480203060306840F450
:102AC00080303060FEF7C0FE054600BF30688003EE
:102AD0003FF548AEFEF7B8FE401B6428F6D9032048
:102AE00002B0BDE8F08100BF206AB0F5803F05D19B
:102AF0007168A26821F40031114371607168626AE3
:102B000021F4741111430843706001203866FEF708
:102B10009BFE0446306880013FF56DAFFEF794FEE2
:102B2000001B02284FF00300F4D90EE7411E0020DD
:102B3000B0EB116F1CBF012070474EF21002CEF2B5
:102B4000000251604EF62351CEF20001F0230B70CB
:102B500007219060116070477047000070470000C7
:102B600090F83C20012A4FF0020236D010B580F8D0
:102B70003D200268D2F804E0D2F808C00C682EF0BC
:102B80007003234340F2FF74C4F20004A242536076
:102B90000ADCB2F1804F13D040F20043C4F20003CC
:102BA0009A420DD011E000BF42F60043C4F2010387
:102BB0009A4205D040F60003C4F200039A4204D1C1
:102BC00049682CF08003194391600121002280F8AC
:102BD0003D1080F83C20BDE81040104670470000D2
:102BE000002804BF0120704710B5044690F83D004E
:102BF00028B9002084F83C00204600F067F8022045
:102C000084F83D00206840F2FF730268C4F20003BC
:102C100042F6004C9842C4F2010C15DCB0F1804F32
:102C20001AD040F20041C4F20001884214D0984208
:102C300018DCB0F1804F1DD040F20041C4F2000119
:102C4000884217D01AE000BF604505D040F6000169
:102C5000C4F200018842EAD1A16822F070020A435E
:102C60009842E6DD604505D040F60001C4F200015F
:102C7000884203D1216922F440720A43A36922F0F9
:102C80008001D4F804E0E268194360450160C26243
:102C9000C0F828E002D16169CCF83010012141610F
:102CA000002084F8461084F83E1084F83F1084F821
:102CB000401084F8411084F8421084F8431084F8DE
:102CC000441084F8451084F83D1010BD10B584B050
:102CD000006840F60001C4F2000188421AD040F2B8
:102CE0000041C4F20001884224D0B0F1804F1CBFE3
:102CF00004B010BD41F21C00C4F2020001681C24A3
:102D000041F001010160006800F0010003900398A8
:102D10001EE000BF41F21C00C4F2020001681E2444
:102D200041F004010160006800F004000190019886
:102D30000EE000BF41F21C00C4F2020001681D2435
:102D400041F002010160006800F002000290029868
:102D5000204600210022FFF7B7FB204604B0BDE863
:102D60001040FFF79FBB000090F83D1001291CBFE9
:102D700001207047022180F83D10006840F2FF7189
:102D8000C4F20001884209DCB0F1804F12D040F259
:102D90000041C4F2000188420CD012E042F600412A
:102DA000C4F20101884205D040F60001C4F20001DE
:102DB000884206D1816801F00701062904BF00207E
:102DC0007047016841F00101016000207047000078
:102DD00090F83D1001291CBF01207047022180F8A6
:102DE0003D10006840F2FF72C168C4F200029042D8
:102DF00041F00101C16009DCB0F1804F12D040F216
:102E00000041C4F2000188420CD012E042F60041B9
:102E1000C4F20101884205D040F60001C4F200016D
:102E2000884206D1816801F00701062904BF00200D
:102E30007047016841F00101016000207047000007
:102E400090F83C20012A4FF0020200F0C58080B5C6
:102E500080F83D20D0F800C04FF67772DCF80830DB
:102E600023EA0202CCF808200B684F2B28DC1F2B2A
:102E700044DD202B45D0302B43D0402B40F0AE809A
:102E8000D1F804E0C968DCF82030DCF8202022F01A
:102E90000102CCF82020DCF8182022F0F00242EAEF
:102EA000011123F00A0242EA0E02CCF81810CCF805
:102EB0002020DCF8081041F0470121F0300180E0CB
:102EC0006F2B27DDB3F5005F48D0B3F5805F7AD074
:102ED000702B40F08380D1E901E3C968DCF8082059
:102EE00043EA0E0322F47F4243EA01211143CCF866
:102EF0000810DCF8081041F0770162E00BB1102BEC
:102F00006CD1DCF8081021F07001194341F0070181
:102F100057E000BF502B35D0602B5FD1D1F804E0D3
:102F2000C968DCF82030DCF8202022F01002CCF850
:102F30002020DCF8182022F4704242EA013123F00C
:102F4000A00242EA0E12CCF81810CCF82020DCF8CF
:102F5000081041F0670121F0100132E0D1E901E3EE
:102F6000C968DCF8082043EA0E0322F47F4243EAF2
:102F700001211143CCF80810DCF8081041F480411D
:102F80001FE000BFD1F804E0C968DCF82030DCF8AD
:102F9000202022F00102CCF82020DCF8182022F0BA
:102FA000F00242EA011123F00A0242EA0E02CCF8D2
:102FB0001810CCF82020DCF8081041F0570121F05F
:102FC0002001CCF808100022012180F83D100021DA
:102FD00080F83C10BDE88040104670470122F3E7BE
:102FE0007047000010B5016804460869800744BFB7
:102FF000C8685FEA807039D40869400744BFC86870
:103000005FEA40703ED40869000744BFC8685FEAC1
:10301000007045D40869C00644BFC8685FEAC06054
:103020004AD40869C0071CBFC8685FEAC07051D1A4
:103030000869000644BFC8685FEA006052D40869A6
:10304000400644BFC8685FEA406053D40869800600
:1030500046BFC8685FEA806010BD6FF0200220465E
:103060000A61BDE81040FFF779BD00BF6FF00200B4
:103070000861012020778869800743D02046FFF748
:10308000AFFF45E06FF004000861022020778869F7
:1030900010F4407F40D02046FFF7A2FF42E000BF7F
:1030A0006FF00800086104202077C86980073DD0D0
:1030B0002046FFF795FF3FE06FF010000861082001
:1030C0002077C86910F4407F3AD02046FFF788FF88
:1030D0003CE000BF6FF001000861204600F03EF8C0
:1030E0002168A5E76FF0800008612046FFF734FDF6
:1030F0002168A4E76FF040000861204600F0FAF86C
:103100002168A3E7204600F025F8204600F024F8C7
:103110002168002020776FE7204600F01BF820464A
:1031200000F01AF82168002020776CE7204600F0B4
:1031300011F8204600F010F821680020207769E798
:10314000204600F007F8204600F006F8216800202D
:10315000207766E770470000704700002DE9F043D4
:1031600081B040F2D811C2F20001006809688842BB
:103170000AD040F29011C2F200010968884211D0D1
:1031800001B0BDE8F08300BF40F27004C2F2000459
:103190002078617888424FD220780130207001B0C9
:1031A000BDE8F08340F60040C4F2010000F5806005
:1031B0004FF40051FEF73AFB40F26824C2F20004DB
:1031C000207802F0B3FB40F27008C2F20008D8F891
:1031D0000890494602F0F2FC0021CBF6807102F023
:1031E000A5FA02F06FFB60826568B4F9120002F084
:1031F00085FB0146284602F015FC02F063FBA08225
:10320000A568B4F9120002F079FB0646B4F916007D
:1032100002F074FB07462846314602F003FC3946AB
:1032200002F084FA02F04EFBE082B4F91600802826
:1032300010DD802014E000BF40F60040C4F2010021
:1032400002210122FEF7FAFA00202070A07001B0DE
:10325000BDE8F083B4F91600B0F1FF3F01DC0020B7
:10326000E082E568B4F91200B4F91010401A48F28F
:103270001F51C5F2EB1180FB0101881100EBD170E9
:1032800002F03CFB0146284602F0CCFB02F01AFBA0
:103290002083A08AE18A228B08441044A8F8040005
:1032A000608A80252082B8F904008028A8BF2846BB
:1032B00020EAE070A8F804002078013002F01EFB3C
:1032C0000146484602F0B7FA70B1B8F904006FF051
:1032D0007501484300EB506085EAD01088F8010082
:1032E00001B0BDE8F08300BF88F8015001B0BDE82F
:1032F000F083000070470000FEE7000040F23C1041
:10330000C2F20000FEF7AABA40F23C10C2F200007E
:10331000FEF74EBB10B581B000210091406A40F22B
:103320000801C2F2000190F83DC009684BF28952D1
:10333000C908C1F2F842A1FB0212110A232251432B
:103340000091009911B30099013900910168096851
:1033500089051FD50099C9B100990139009101680B
:103360000968890516D5009981B100990139009144
:103370000168096889050DD5009939B100990139AD
:103380000091016809688905DBD403E0016C41F014
:1033900020010164446B4FF0000E002C1CBF002183
:1033A000A162816B00291CBF00228A620268002C86
:1033B000136823F480631360A0F82AE018BFC4F8F0
:1033C00034E000291CBF00234B63116821F0010188
:1033D000116090F83D1060290CD1202180F83D103B
:1033E000002180F83E10016401B0BDE81040FEF7F6
:1033F00031BA00BF0CF02801282911D1116841F021
:1034000001011160116841F48061116000210163C4
:10341000282180F83D1001B0BDE81040FEF7E8BD5E
:10342000202180F83D10002180F83E1001B0BDE859
:103430001040FEF7DDBD000010B5044690F83D10C9
:1034400090F83E00B0F1100218BF0122403818BFBA
:103450000120024208BF222934D001F02800282888
:103460003AD100202063282084F83D00206841687C
:10347000090542D5416821F400614160606B90F814
:103480002110012958D1A06B43F21531C0F600017B
:103490004163FEF729F8002861D020684169490698
:1034A00006D50069616A0870616A2068013161624D
:1034B000016821F001010160202084F83D00A06B2B
:1034C0004BE000BF2068026822F40062026042689C
:1034D000120505D50CE000BF20684268120507D42C
:1034E000602905D0202184F83D10002184F83E1089
:1034F0000021216341680905BCD494F83D1060297E
:1035000050D1202184F83D100021216441694906F1
:1035100006D50069616A0870616A206801316162DC
:10352000016821F0010101602046FEF793F9206C4B
:10353000000717D11BE000BF43F21531C0F60001B0
:103540004163FDF7D1FF50B12168606B0A6822F03A
:1035500001020A60202184F83D10416B8847206CED
:10356000000704D02068416821F4E061416094F8CC
:103570003D00216C490758BF10BD282810D10020FC
:10358000CFF6FF70E06200212020216384F83D0027
:10359000204684F83E10BDE81040FEF7DDBD00BFB8
:1035A00010BD00BF4169490605D50069616A087010
:1035B000606A013060622046FEF71AFD206C000749
:1035C000D0D1D4E7C16A428D042A07D10168426A8A
:1035D0004B6823F480634B60096911E0428D032A34
:1035E00016D102680229536823F48063536005D022
:1035F000042903D0116821F4806111601169426AC5
:103600001170416A01314162418D01394185704734
:10361000428D022A12D101390F2919D8DFE801F0B1
:103620000812181218181818181818181818180846
:1036300001680A6822F480620EE000BF0168426AF5
:10364000CAE700BF01680A6842F4806204E000BF74
:1036500001680A6842F400720A600969426A1170DE
:10366000416A02684B1C4362438D013B43851269EA
:103670004A70416A026801314162418D01394185D8
:10368000516821F440715160202180F83D1090F87C
:103690003E200021402A80F83E1003D10163FEF74E
:1036A0004FBE00BF12210163FEF758BD81B090F8F4
:1036B0003D1022290FD1418D04290FD30168426AA0
:1036C00009691170416A01314162418D01394185B9
:1036D000418D03295ED001B0704700BFC26A012945
:1036E00058D8022A56D00021009140F20801C2F2B7
:1036F000000109684BF28952C908C1F2F842A1FBE6
:103700000212110A01EB8101009100990139009127
:103710000099002946D001680A6892051AD50099D7
:10372000013900910099E9B301680A68920511D541
:103730000099013900910099A1B301680A689205C6
:1037400008D5009901390091009959B301680A68B8
:103750009205DAD40A6822F480620A604A6822F488
:10376000E0624A600969426A1170416A013141624E
:10377000418D01394185202180F83D1090F83E208F
:103780000021402A80F83E1028D1016301B0FEF7E5
:10379000D7BD00BF0068416821F48061416001B07D
:1037A000704700BF016C41F0200101640168426A6A
:1037B0004B6823F4E0634B6009691170416A013181
:1037C0004162418D01394185202180F83D10002161
:1037D00080F83E1001B0FEF70BBC00BF1221016360
:1037E00001B0FEF7BBBC0000C16A90F83D20212A61
:1037F00018BF7047428D4AB1416A026811F8013B17
:1038000013614162418D01394185704711F5803F57
:1038100018BF082918D101684A6822F4E0624A609A
:103820000A6842F400720A6000212022016380F8D5
:103830003D2090F83E2080F83E10402A08BFFEF759
:1038400081BDFEF78DBC00BF2029E4D001684A6825
:1038500022F4E0624A6011210163002180F83E10E9
:10386000202180F83D10FEF77BBC000090F83D1051
:1038700090F83EC0C26A038D002B08BF212919D0E1
:10388000212905D0BCF1400F08BF222900D0704784
:10389000418D69B390F83E10402908BF00F040B850
:1038A000416A026811F8013B13614162418D01399F
:1038B0004185704712F5803F18BF082A1ED1016864
:1038C0004A6822F4E0624A600A6842F400720A60C0
:1038D00000212022016380F83D2090F83E2080F8EE
:1038E0003E10402A08BFFEF72DBDFEF739BC00BFD1
:1038F0000068416821F4806141607047202ADED071
:1039000001684A6822F4E0624A60112101630021E3
:1039100080F83E10202180F83D10FEF721BC000009
:1039200090F83D10026D5AB1026D012A14D1016860
:10393000826CD2B20A61016D01310165704700BF2E
:10394000C26C816C012A15D10268C9B21161016D86
:1039500002310165704700BF026D022A12D122298F
:1039600018D101680A6842F480720A60016D013161
:10397000016570470268C1F307211161016D0131D2
:103980000165704700684169090644BF0021016173
:10399000704700BF428D5AB1212909D1416A02689E
:1039A00011F8013B13614162418D01394185704736
:1039B000428D002A08BF2129EAD101684A6822F411
:1039C000E0624A600A6842F400720A600021202224
:1039D000016380F83D2080F83E10FEF7B3BC000084
:1039E00070B50368044653F8140F400711D40E460F
:1039F000481C29D086BB00BF1868400527D4FDF7B6
:103A000023FF236853F8140F400737D51868400781
:103A1000F2D5002070BD00BF18684007F9D41868BF
:103A2000400514D418684007F3D4186840050ED434
:103A300018684007EDD41868400508D41868400796
:103A40004FF0000048BF70BD18684005E4D56FF422
:103A500080601860042012E0154603E053F8140F4C
:103A60004007D6D418684005F1D4FDF7EDFE401BA1
:103A70002368B042F2D958694007EFD420200021D2
:103A80002022216384F83D2084F83E10226C1043EC
:103A90002064012084F83C1070BD00002DE9F04145
:103AA000054600681E46144601F47F0201338FB2BA
:103AB00042D0DDF81880B2F5803F40F08780406941
:103AC0003840C01BB0FA80F04009A04240F0C880E6
:103AD0004EB924E040693840C01BB0FA80F040097C
:103AE000A04240F0BD80FDF7AFFEA0EB08012868C2
:103AF000B142EFD941693940C91BB1FA81F1490995
:103B0000A142E7D19BE000BF40693840C01BB0FA3A
:103B100080F04009A0424FF0000040F0A280FDF785
:103B200093FE286841693940C91BB1FA81F14909FE
:103B3000A142E9D183E000BFB2F5803F24D100BFAC
:103B400041693940C91BB1FA81F14909A14240F0EC
:103B5000878041693940C91BB1FA81F14909A14205
:103B600040F07E8041693940C91BB1FA81F14909B1
:103B7000A14275D141693940C91BB1FA81F14909A6
:103B8000A142DDD06CE000BF81693940C91BB1FAA8
:103B900081F14909A14263D181693940C91BB1FA58
:103BA00081F14909A1425BD181693940C91BB1FA50
:103BB00081F14909A14253D181693940C91BB1FA48
:103BC00081F14909A142DFD04AE000BF8069384055
:103BD000C01BB0FA80F04009A04241D146B923E0B1
:103BE00080693840C01BB0FA80F04009A04237D14C
:103BF000FDF72AFEA0EB08012868B142F0D98169DF
:103C00003940C91BB1FA81F14909A142E8D116E056
:103C100080693840C01BB0FA80F04009A0424FF0E4
:103C2000000018BFBDE8F081FDF70EFE286881692D
:103C30003940C91BB1FA81F14909A142E8D10020FC
:103C40002021286385F83D1085F83E00296C41F05D
:103C50002001296485F83C000120BDE8F08100BF07
:103C60000020BDE8F0810000F0B581B00446006896
:103C70001D4643698FB203EA0701B94202D1002011
:103C800001B0F0BD4169164601323FD049053FD42D
:103C9000CEB100BFFDF7D8FD411B2068B14203D96A
:103CA00041693940B94215D141693940B942E6D03C
:103CB00041694905EED52BE041693940B942DED072
:103CC0004169490524D4FDF7BFFD206841693940A9
:103CD000B942F1D0202023E041693940B942CED029
:103CE0004169490514D441693940B942C7D0416995
:103CF00049050DD441693940B942C0D041694905EF
:103D000006D441693940B942B9D041694905E3D582
:103D1000016841F4007101606FF480614161042029
:103D200000212022216384F83D2084F83E10226C7B
:103D30001043206484F83C10012001B0F0BD000065
:103D400070B50368044653F8140F000611D40E46EC
:103D5000481C29D086BB00BF1868400527D4FDF752
:103D600073FD236853F8140F000637D51868000652
:103D7000F2D5002070BD00BF18680006F9D418689D
:103D8000400514D418680006F3D4186840050ED412
:103D900018680006EDD41868400508D418680006B5
:103DA0004FF0000048BF70BD18684005E4D56FF4BF
:103DB00080601860042012E0154603E053F8140FE9
:103DC0000006D6D418684005F1D4FDF73DFD401B30
:103DD0002368B042F2D958690006EFD420200021B0
:103DE0002022216384F83D2084F83E10226C104389
:103DF0002064012084F83C1070BD00002DE9F04FD4
:103E000085B041F21800C4F20200016840F60008D3
:103E100041F0100101600168C4F2010801F01001D5
:103E200001910199016808F5006741F020010160E6
:103E30000168002201F020010191019901684FF40D
:103E4000005641F00401016001684FF0000901F0E3
:103E5000040101910199016841F0080101600068C5
:103E60004FF4005100F00800019001983846FDF72A
:103E7000E5FC4046042100224FF0040BFDF7DEFC78
:103E800008F580652846022100220224FDF7D6FCB1
:103E9000019601AE4FF0010A38463146CDE902A93C
:103EA0000494FDF7B5FB40463146CDE901BACDE9B2
:103EB0000394FDF7ADFB202001900020C1F211001A
:103EC000CDE9020940463146FDF7A2FB28463146BE
:103ED000CDE9014ACDE90394FDF79AFB4FF48060E8
:103EE00001A981E8010628463146FDF791FB4FF410
:103EF000407001A981E8010640463146FDF788FB84
:103F0000172000210022FEF7DFFA1720FEF7CAFA79
:103F100005B0BDE8F08F000080B540F23C1045F2DE
:103F20000041C2F20000C4F2000148F2A062002386
:103F30004FF4804CC0F2010280E80E00C0E9033C5F
:103F4000C0E90533C0E90733FEF754F8002808BF7D
:103F500080BDBDE88040FDF7C1BA000080B586B0E5
:103F600040F290100021C2F200004FF0804240F277
:103F7000CF2344F61F6C0591CDE90311CDE9001163
:103F8000C0E90023C0E9021C01618161FEF728FE3F
:103F9000002818BFFDF7A2FA4FF48050029040F2BB
:103FA0009010C2F2000002A9FEF74AFF002818BFD5
:103FB000FDF794FA40F29010C2F200006946FEF755
:103FC000CFFD002818BFFDF789FA06B080BD0000BC
:103FD00080B586B040F2D8100021C2F2000040F255
:103FE00000424FF04A0C0591CDE90311CDE90011D3
:103FF000C4F200024723C0E9021C01618021C0E92C
:1040000000238161FEF7ECFD002818BFFDF766FA7A
:104010004FF48050029040F2D810C2F2000002A982
:10402000FEF70EFF002818BFFDF758FA40F2D8102F
:10403000C2F200006946FEF793FD002818BFFDF7A5
:104040004DFA06B080BD000080B586B040F2202059
:1040500040F600020021C2F20000C4F20002472331
:104060004FF6FE7C0591CDE90311CDE90011C0E9C1
:104070000023C0E9021C01618161FEF7B1FD002847
:1040800018BFFDF72BFA4FF48050029040F2202029
:10409000C2F2000002A9FEF7D3FE002818BFFDF708
:1040A0001DFA40F22020C2F200006946FEF758FDDA
:1040B000002818BFFDF712FA06B080BDFEE7000029
:1040C000FEE700000022F021C280027200F026B953
:1040D000427A0A70827A4A70C27A8A70027BCA7007
:1040E000427B0A71827B4A71C27B8A71007CC871F3
:1040F0007047000070B584B0044640F22020C2F240
:10410000000015460E46FEF72FFE112001900020FC
:10411000029001200390694630462660A5800095F4
:10412000FDF776FAA088216808616420FDF73AFA65
:10413000A0882168000408616420FDF733FAA08894
:1041400021680861C820FDF72DFA04B070BD000099
:10415000F02100F0E3B8000070B584B08188044617
:1041600000680A04026111220192002601220091D6
:10417000694602960392FDF74BFA40F22025C2F2FF
:1041800000052868466200BF416A022908D8416AD2
:10419000022905D8416A022902D8416A0329F3D3CA
:1041A00001200390A0880026CDE90006206869461A
:1041B0000296FDF72DFA2868466200BF416A0A2977
:1041C00008D8416A0A2905D8416A0A2902D8416AF1
:1041D0000B29F3D32068A188FDF722FB2968002270
:1041E0004A6200BF4A6A322A08D84A6A322A05D887
:1041F0004A6A322A02D84A6A332AF3D3002818BFFF
:10420000012004B070BD0000F0B581B00446FFF796
:10421000A3FF05462046FFF79FFF45EA40052046DD
:10422000FFF79AFF45EA80052046FFF795FF45EA2C
:10423000C0052046FFF790FF45EA00172046FFF72C
:104240008BFF05462046FFF787FF0646204647EAD4
:104250004515FFF781FF45EA861141EAC010C0B25B
:1042600001B0F0BD70B584B08188044600680A04CE
:1042700002611122019200260122009169460296F4
:104280000392FDF7C5F940F22025C2F20005286827
:10429000466200BF416AB1F5F07F0BD8416AB1F5C3
:1042A000F07F07D8416AB1F5F07F03D8416AB1F5D4
:1042B000F07FEFD901200390A0880026CDE9000609
:1042C000206869460296FDF7A3F92868466200BF98
:1042D000416A462908D8416A462905D8416A4629D3
:1042E00002D8416A4729F3D32068A188FDF798FADC
:1042F000296800224A6200BF4A6AB2F5CD7F0BD816
:104300004A6AB2F5CD7F07D84A6AB2F5CD7F03D8A5
:104310004A6AB2F5CD7FEFD904B070BD2DE9F04700
:104320008246007A002840F0878050460D46FFF70D
:1043300099FF002840F0808005F00101504600F010
:104340007DFBC5F34001504600F078FBC5F38001CA
:10435000504600F073FBC5F3C001504600F06EFB01
:10436000C5F30011504600F069FBC5F340115046FB
:1043700000F064FBC5F38011504600F05FFBE909D3
:10438000504600F05BFB4FF001094FF0000800269B
:104390000127012417E000BFADB3F0B25044417AC9
:1043A000214341720121504600F048FB6000C4B235
:1043B000002C08BF0136F0B2012C98BF4C460828EB
:1043C00007F1010726D25046FFF7C6FE05465046C4
:1043D000FFF7C2FE002D18BF00281BD18542DBD19C
:1043E0009AF80610F8B2884206D2F1B25144497ADE
:1043F0000C42D2D101E000BFCFD0B84608289CBF04
:104400008AF80770B846F0B25044417AA14341722D
:104410000021C8E7F8B241280ED35FEA08608AF8A5
:10442000068004BF01208AF808009AF809000028D5
:104430001CBF0120BDE8F0870020AAF806008AF81A
:104440000800BDE8F0870000F0B585B00D46818812
:10445000044600680A040261112202920027012228
:10446000019101A903970492FDF7D2F840F22026AA
:10447000C2F2000630684762416A062908D8416ADC
:10448000062905D8416A062902D8416A0729F3D3CB
:1044900001200490A0880027CDE90107206801A928
:1044A0000397FDF7B5F83068476200BF416A4029BD
:1044B00008D8416A402905D8416A402902D8416A92
:1044C0004129F3D3A18820680A04026111220292D3
:1044D00000270122019101A903970492FDF798F8A2
:1044E00030684762416A3C2908D8416A3C2905D8AE
:1044F000416A3C2902D8416A3D29F3D30120049046
:10450000A0880027CDE90107206801A90397FDF7DE
:104510007FF83068476200BF416A0A2908D8416ABB
:104520000A2905D8416A0A2902D8416A0B29F3D31E
:10453000A18820680A040261112202920027012248
:10454000019101A903970492FDF762F83068476270
:10455000416A062908D8416A062905D8416A062910
:1045600002D8416A0729F3D301200490A0880027CC
:10457000CDE90107206801A90397FDF749F83068E4
:10458000476200BF416A402908D8416A402905D8DE
:10459000416A402902D8416A4129F3D3A1882068A1
:1045A0000A0402611122029200270122019101A94D
:1045B00003970492FDF72CF830684762416A3C2962
:1045C00008D8416A3C2905D8416A3C2902D8416A89
:1045D0003D29F3D301200490A0880027CDE90107ED
:1045E000206801A90397FDF713F83068476200BF00
:1045F000416A0A2908D8416A0A2905D8416A0A2964
:1046000002D8416A0B29F3D3A18820680A04026109
:104610001122029200270122019101A9039704921D
:10462000FCF7F6FF30684762416A062908D8416AFC
:10463000062905D8416A062902D8416A0729F3D319
:1046400001200490A0880027CDE90107206801A976
:104650000397FCF7DDFF3068476200BF416A4029DD
:1046600008D8416A402905D8416A402902D8416AE0
:104670004129F3D3A18820680A0402611122029221
:1046800000270122019101A903970492FCF7C0FFC2
:1046900030684762416A3C2908D8416A3C2905D8FC
:1046A000416A3C2902D8416A3D29F3D30120049094
:1046B000A0880027CDE90107206801A90397FCF72E
:1046C000A7FF3068476200BF416A0A2908D8416ADB
:1046D0000A2905D8416A0A2902D8416A0B29F3D36D
:1046E000A18820680A040261112202920027012297
:1046F000019101A903970492FCF78AFF3068476291
:10470000416A062908D8416A062905D8416A06295E
:1047100002D8416A0729F3D301200490A08800271A
:10472000CDE90107206801A90397FCF771FF306804
:10473000476200BF416A402908D8416A402905D82C
:10474000416A402902D8416A4129F3D3A1882068EF
:104750000A0402611122029200270122019101A99B
:1047600003970492FCF754FF30684762416A3C2982
:1047700008D8416A3C2905D8416A3C2902D8416AD7
:104780003D29F3D301200490A0880027CDE901073B
:10479000206801A90397FCF73BFF3068476200BF20
:1047A000416A0A2908D8416A0A2905D8416A0A29B2
:1047B00002D8416A0B29F3D32E78204606F0010176
:1047C00000F03CF9C6F34001204600F037F9C6F38B
:1047D0008001204600F032F9C6F3C001204600F007
:1047E0002DF9C6F30011204600F028F9C6F3401158
:1047F000204600F023F9C6F38011204600F01EF990
:10480000F109204600F01AF96E78204606F0010101
:1048100000F014F9C6F34001204600F00FF9C6F38A
:104820008001204600F00AF9C6F3C001204600F0DE
:1048300005F9C6F30011204600F000F9C6F3401157
:10484000204600F0FBF8C6F38011204600F0F6F891
:10485000F109204600F0F2F8AE78204606F001019A
:1048600000F0ECF8C6F34001204600F0E7F8C6F38C
:104870008001204600F0E2F8C6F3C001204600F0B7
:10488000DDF8C6F30011204600F0D8F8C6F3401159
:10489000204600F0D3F8C6F38011204600F0CEF891
:1048A000F109204600F0CAF8EE78204606F0010132
:1048B00000F0C4F8C6F34001204600F0BFF8C6F38C
:1048C0008001204600F0BAF8C6F3C001204600F08F
:1048D000B5F8C6F30011204600F0B0F8C6F3401159
:1048E000204600F0ABF8C6F38011204600F0A6F891
:1048F000F109204600F0A2F82E79204606F00101C9
:1049000000F09CF8C6F34001204600F097F8C6F38B
:104910008001204600F092F8C6F3C001204600F066
:104920008DF8C6F30011204600F088F8C6F3401158
:10493000204600F083F8C6F38011204600F07EF890
:10494000F109204600F07AF86E79204606F0010160
:1049500000F074F8C6F34001204600F06FF8C6F38B
:104960008001204600F06AF8C6F3C001204600F03E
:1049700065F8C6F30011204600F060F8C6F3401158
:10498000204600F05BF8C6F38011204600F056F890
:10499000F109204600F052F8AE79204606F00101F8
:1049A00000F04CF8C6F34001204600F047F8C6F38B
:1049B0008001204600F042F8C6F3C001204600F016
:1049C0003DF8C6F30011204600F038F8C6F3401158
:1049D000204600F033F8C6F38011204600F02EF890
:1049E000F109204600F02AF8ED79204605F0010192
:1049F00000F024F8C5F34001204600F01FF8C5F38D
:104A00008001204600F01AF8C5F3C001204600F0EE
:104A100015F8C5F30011204600F010F8C5F3401159
:104A2000204600F00BF8C5F38011204600F006F890
:104A3000E909204600F002F805B0F0BD70B584B079
:104A4000828804460068130400294FF011010361B5
:104A500036D0019101210026039169460296009209
:104A6000FCF7D6FD40F22025C2F200052868466218
:104A7000416A062908D8416A062905D8416A0629EB
:104A800002D8416A0729F3D30120A1880390206846
:104A9000002600916946CDE90166FCF7B9FD28685A
:104AA000466200BF416A402940D8416A40293DD84A
:104AB000416A40293AD8416A4029F3D936E000BF1B
:104AC0000191012100260391694602960092FCF7AC
:104AD0009FFD40F22025C2F200052868466200BF13
:104AE000416A3C2908D8416A3C2905D8416A3C29D9
:104AF00002D8416A3D29F3D30120A18803902068A0
:104B0000002600916946CDE90166FCF781FD286821
:104B1000466200BF416A0A2908D8416A0A2905D8B5
:104B2000416A0A2902D8416A0B29F3D304B070BD47
:104B3000B0B50D4601F001010446FFF77FFFC5F354
:104B400040012046FFF77AFFC5F380012046FFF7BA
:104B500075FFC5F3C0012046FFF770FFC5F30011D4
:104B60002046FFF76BFFC5F340112046FFF766FFB5
:104B7000C5F380112046FFF761FFE9092046BDE833
:104B8000B040FFF75BBF00007047000070470000B7
:104B9000FDF720BC7047000040F29010C2F2000008
:104BA000FEF720BA40F2D810C2F20000FEF71ABA9F
:104BB00040F22020C2F20000FEF714BAFEE7000027
:104BC000B0B504460068A188FCF72AFEA179054625
:104BD000884203D0A571FCF737FEE060FCF734FE95
:104BE000E168401A0F2813D3E079257285420FD06F
:104BF00025B1204600F03CF808E000BFFCF724FE99
:104C0000206101202075204600F018F8207AE0711C
:104C1000207D002808BFB0BDFCF716FE2169401AB0
:104C200040F6B831884207D3002120462175BDE8FF
:104C3000B04000F01BB800BFB0BD000040F27001F2
:104C4000C2F2000101F14402904205D05C31884279
:104C500018BF7047012000E0FF2040F26821C2F237
:104C600000010A7810440870704700007047000087
:104C70007047000090B0FDF7BBFB00240120CDE998
:104C80000B44CDE9094406900A904FF4E0104FF42C
:104C9000803102250F9006A8CDE90714CDE90D510A
:104CA000FDF744FD20B1EFF3108072B6FEE700BFC0
:104CB0000F20CDE901054FF48060CDE9040401A87F
:104CC00002210394FDF73CFC20B1EFF3108072B693
:104CD000FEE700BFFFF792F8FFF77AF9FFF7B4F9A4
:104CE000FFF71AF9FFF73AF940F29010C2F200000C
:104CF000FEF76EF840F2D810C2F20000FEF768F836
:104D000040F27004C2F2000440F6000504F15C09B0
:104D1000C4F20105484629464FF48072FBF77AFF3A
:104D200004F1440B584629464FF40072FBF772FF1A
:104D30000C20FCF75FFA04F1180640F23C11022740
:104D4000C2F2000130464E2210230097FBF7A2FF6B
:104D50003046FBF76BFF40F268210020C2F20001F1
:104D6000C4F2301048604FF07C5088604FF000086B
:104D70001E20C1F80C80087044F62000C2F24500E5
:104D8000254645F8240F44F6540042F24701C4F684
:104D90004F60C4F64411C5E9010144F24950C0F224
:104DA0005500C5F80B00304601210022FCF7F6F84B
:104DB00030462946FCF73EF944F22040C0F24F004D
:104DC000C5F80B0044F2495042F24E0144F64B0242
:104DD000C2F25400C4F64E01C4F24952C5E90021A2
:104DE000A860304601210222FCF7D8F83046294657
:104DF000FCF720F940F2DC50FCF7D4FB3046FBF71F
:104E000015FF04F1240704F134052FE0A06800F039
:104E100061FC02460B46384629A1FBF7FBF93046F8
:104E200002210022FCF7BAF830463946FCF702F9B5
:104E300040F26820C2F200000278284623A1FBF766
:104E4000E9F9304602210222FCF7A8F8304629464B
:104E5000FCF7F0F8C4E90988C4E90B88C4E90D88B7
:104E6000C4E90F88FCF7F0FCC4E904084846FFF7E2
:104E7000A7FE5846FFF7A4FEFCF7E6FCD4E90412AF
:104E8000401A68EB0201653871F10000EED3FCF7BF
:104E900071FAFCF709FBFCF7F1F90028B6D04FF0E6
:104EA000000A00BF5FFA8AF004F10801FCF792F9EA
:104EB0000AF1010AFCF7E2F98245F3D3A6E700BF45
:104EC0005056203A2025322E326600005356203AA2
:104ED000202564005FEA400C08BF91F0000F4FEA04
:104EE0008C234FEAC12243EA51514FEA1C5018BFAC
:104EF00000F5F0404FEA300018BF41F000415FEA92
:104F00006C5C00F02980BCF1FF3F08BF40F080409E
:104F10007047130C06BF12044FF0100C4FF0000C3A
:104F2000130E04BF12020CF1080C130F04BF120180
:104F30000CF1040C930F04BF92000CF1020CD30F80
:104F400004BF52000CF1010C11464FF00002A0F119
:104F50001F00A0EB0C00704711F0004F08BF704716
:104F600031F000413FF4D5AF0B0C06BF09044FF000
:104F7000100C4FF0000C0B0E04BF09020CF1080CD2
:104F80000B0F04BF09010CF1040C8B0F04BF890047
:104F90000CF1020CCB0F04BF49000CF1010CCCF159
:104FA000200322FA03F341EA030102FA0CF2A0EB18
:104FB0000C0000F10100704723F07F4720F07F4C88
:104FC00080EA030000F00040ACEB070303F57C53DC
:104FD00003F1FF032DE9804909B44FEA144324EAA1
:104FE00003484FEA154B25EA0B4E0FF2042606EB59
:104FF00013273E7803FB0667C7F5000707FB06F695
:105000004FEAD64606F102064FEA543707FB066C14
:10501000CCF1005C4FEA1C472CEA074C0CFB06F570
:1050200007FB06F404EB15464FEA961649085FEABB
:10503000320234BF00204FF000404FEAD13706FB68
:1050400007FC4FEA1C4C0CFB0BF7D21B03FB0CF7C5
:1050500061EB07010CFB0EF7B0EB074072EB174258
:105060000CFB08F734BFA2EB0742B2EB074261EB3F
:1050700017414FEA0C444FEA910706FB07FC4FEA41
:105080001C4C0CFB0BF7B0EBC74072EB573203FB29
:105090000CF734BFA2EBC742B2EBC74261EB57310A
:1050A0000CFB0EF7B0EBC70072EB57720CFB08F766
:1050B00034BFA2EBC702B2EBC70261EB57714FEAF4
:1050C000816141EA92114FEA826242EA90124FEA0C
:1050D000806004EBCC04039F4FEAD13706FB07FC4A
:1050E0004FEA1C4C0CFB0BF7D21B03FB0CF761EBDC
:1050F00007010CFB0EF7B0EB074072EB17420CFBFD
:1051000008F734BFA2EB0742B2EB074261EB17414D
:105110004FEA8C5504EB9C244FEA910706FB07FCF1
:105120004FEA1C4C0CFB0BF7B0EBC74072EB57324D
:1051300003FB0CF734BFA2EBC742B2EBC74261EBF3
:1051400057310CFB0EF7B0EBC70072EB57720CFB3C
:1051500008F734BFA2EBC702B2EBC70261EB57718D
:105160004FEA816141EA92114FEA826242EA90126B
:105170004FEA806015EB4C2544F100044FEAD1372B
:1051800006FB07FC4FEA1C4C0CFB0BF7D21B03FB86
:105190000CF761EB07010CFB0EF7B0EB074072EB6D
:1051A00017420CFB08F734BFA2EB0742B2EB0742F1
:1051B00061EB17414FEA813141EA92414FEA823275
:1051C00042EA90424FEA80304FEA0C7615EB1C150C
:1051D00044F1000448EA03434EEA0B484FF0000E46
:1051E000B2EB080C71EB030724BF624639464EEB65
:1051F0000E0E4FF0000B0018524149414BEB0B0BC8
:10520000B2EB080C71EB03077BF1000B24BF624685
:1052100039464EEB0E0E4FF0000B0018524149413B
:105220004BEB0B0BB2EB080C71EB03077BF1000BA4
:1052300024BF624639464EEB0E0E51EA020718BFF4
:1052400046F0010616EB0E7655F1000254F100010E
:1052500003D5BDE88901BDE80088BDE88901BDE846
:105260000048B619524141EB0101A3F10103704717
:1052700080807F7E7D7C7B7A797877767675747393
:10528000727171706F6E6E6D6C6C6B6A6A69686852
:10529000676666656464636362616160605F5F5EE8
:1052A0005E5D5D5C5C5B5B5A5A595958585757565E
:1052B00056555555545453535252525151505050C3
:1052C0004F4F4F4E4E4D4D4D4C4C4C4B4B4B4A4A15
:1052D0004A49494948484847474747464646454559
:1052E0004544444444434343434242424241414192
:1052F0009C46002B30D477002BD04FEA37071CB5E3
:1053000003B44FF010004FF01001BAF1000F06D0B7
:10531000BCF1000FDCBF40F0080040F008014FF086
:1053200000000FBCBDE810400BF1010BBBF1010FF9
:1053300008BF5FEA170722BF12F1010211F1010154
:105340004FF0004143F1000300F0004043EA000049
:105350007047F9D35708D0E746EA06464FEA1646A3
:1053600013F1400F1FDD13F1200FDFBF16430A4674
:10537000002120335B42BED0C3F1200746EA064637
:105380004FEA164602FA07F746EA070622FA03F240
:10539000C3F1200701FA07F742EA070221FA03F1F5
:1053A0004FF00003A7E746EA020646EA06464FEA40
:1053B000164646EA0106BCBF46EA0646360C4FF0E2
:1053C00000034FF000024FF0000194E72DE9804CFC
:1053D00070B49A46934691E8380007C831EA400C09
:1053E00048BF34EA430C03D5FFF7E6FDFFF780FF23
:1053F000F0BCBDE8008C2DE9804C70B49A46934611
:1054000091E8380007C810F0804F08BF13F0804FB4
:1054100003D100F005F8FFF76BFFF0BCBDE8008C8E
:1054200020F07F4723F07F4C80EA030000F000402B
:1054300007EB0C03A3F57C53A3F1FE0392F0000FDE
:1054400000F0B38095F0000F00F077802DE901495E
:105450004FEA114021EA00484FEA144624EA064781
:1054600000FB06FC08FB06F607FB08F818EB0648ED
:105470004CEB164C00FB07F718EB07484CEB1740BA
:105480004FEA124B22EA0B4E4FEA154625EA064731
:105490000BFB06FC0EFB06F607FB0EFE1EEB064E94
:1054A0004CEB164C0BFB07F71EEB074E4CEB174B68
:1054B00018EB0B0840F1000018EB0E0B58EB00083E
:1054C00040F100008F1A4FF000014FF000063CBF82
:1054D000C943661B14BFB5EB040C00213CBFC94394
:1054E000F61B4FEA174427EA04454FEA1C472CEA0B
:1054F000074C04FB076205FB07F70CFB05F616EBF0
:10550000074642EB174204FB0CFC16EB0C4642EB41
:105510001C421BEB060658EB020241414EEA8E0E7E
:1055200046EA9E0601D5BDE80189B619524141EB14
:105530000101A3F10103BDE801894FEA144524EA02
:1055400005464FEA114721EA074C05FB07F406FB25
:1055500007F70CFB06F111EB074144EB174405FB81
:105560000CFC11EB0C4144EB1C444FEA124722EABD
:10557000074C05FB07F206FB07F70CFB06F616EBDC
:10558000074642EB174205FB0CFC16EB0C4642EBC0
:105590001C456A1854F1000148BF7047B6195241C2
:1055A00041EB0101A3F10103704795F0000F37D0E3
:1055B0004FEA114221EA02464FEA144724EA074C17
:1055C00002FB07F106FB07F70CFB06F414EB07449C
:1055D00041EB174102FB0CFC14EB0C4441EB1C416A
:1055E0004FEA154725EA074C02FB07F506FB07F7CC
:1055F0000CFB06F616EB074645EB174502FB0CFCC9
:1056000016EB0C4645EB1C42121951F1000148BF44
:105610007047B619524141EB0101A3F101037047F4
:105620004FEA144524EA05464FEA114721EA074CA0
:1056300005FB07F106FB07F70CFB06F212EB07422E
:1056400041EB174105FB0CFC12EB0C4251EB1C41EA
:105650004FF0000648BF7047921841EB0101A3F1DB
:1056600001037047490050EAC12018BF04204A0DC9
:1056700018BF40F0010040F2FF72B2EB515F08BF6B
:1056800040F00200012808BF0520704730380A2882
:1056900001D20120704700207047000010B500299A
:1056A0000AD00878002807D005487844FBF768FA44
:1056B000002801D0002010BD0248784410BD000031
:1056C000E2060000DA0600000808A0F500114FEA23
:1056D0003101704743004FEAD30C4FEA3C0C434082
:1056E0001FBF40070CF1605113F0FE4F70471CF0D4
:1056F000006F03D10CF00041002070470CF0004314
:1057000043EA507040EACC0010B500F00CFA00BF3C
:10571000000000924FEA0001FFF7D6BF4FF00041B2
:10572000A1F500214FF000007047000090EA010F42
:1057300048BF81F0004100F14882421A3CBF801A04
:1057400089184FEAD052A2EBD1534FF07F4C1CEA9C
:10575000410F18BF9CEA026F00F03B804FF0004CF5
:105760004CEA00204CEA012121FA03FC10EB0C0C5E
:105770001ED202F1FF325FEA1C2040EBC25038BF5C
:1057800070471CF07F0F4FEA400C18BFBCF17F4FF1
:1057900038BF7047C3F12003994008BF20F00100D3
:1057A000BCF17F4F38BF7047A0F1C04000F001BA94
:1057B0004FEA3C00000A40EBC25028BF1CF0FF0F2C
:1057C0004FEA400CE6D018BFBCF17F4F38BF70479E
:1057D000EAE79CEA026F05D010EA5C0F08BF00F010
:1057E0000040704710B500F09EF900BF64FBBE3E5C
:1057F00010B500F033F80CBF0120002010BD10B52B
:1058000000F02CF814BF0120002010BD10B500F0EE
:10581000A1F88CBF0120002010BD10B500F09AF84F
:105820002CBF0120002010BD10B500F0C7F894BFB8
:105830000120002010BD10B500F0C0F834BF0120D9
:10584000002010BD401058BFC0F14040491058BF63
:10585000C1F140418142EFF30080704750EA010CF2
:1058600000F113801CF5000F58BFBCF5000F01D4E8
:105870008842704707D710F5000F58BF11F5000F89
:1058800015D488427047894270471CF5000F04D533
:10589000BCF5000FF7D5814270474FF0807C1CEBC0
:1058A000400F38BF1CEB410F01D28142704710B549
:1058B00000F039F9922449004FF000504FF0805128
:1058C000FFF7C0BF41000B0ED3F19E0208D950F480
:1058D00000034FEA032323FA02F048BF4042704717
:1058E00010B500F020F900BF4992248000207047D5
:1058F0006FF0004282EA20007047000010F0004183
:1059000048BF4042B0FA80F310FA03F2C3F19D039E
:105910000BD051EAC35101EB1220530638BF704738
:1059200000F1010008BF20F001007047B0FA80F3D9
:1059300010FA03F2C3F19D030AD0D90501EB12203E
:10594000530638BF704700F1010008BF20F0010086
:105950007047000050EA010C00F113801CF5000FA5
:1059600058BFBCF5000F01D48842704707D710F527
:10597000000F58BF11F5000F15D4884270478942B7
:1059800070471CF5000F04D5BCF5000FF7D5814218
:1059900070474FF0807C1CEB400F38BF1CEB410F71
:1059A00001D28142704710B500F0BDF89224490041
:1059B0004FF080504FF00051FFF744BF50EA010C08
:1059C00000F113801CF5000F58BFBCF5000F01D487
:1059D0008842704707D710F5000F58BF11F5000F28
:1059E00015D488427047894270471CF5000F04D5D2
:1059F000BCF5000FF7D5814270474FF0807C1CEB5F
:105A0000400F38BF1CEB410F01D28142704710B5E7
:105A100000F089F8922449004FF000504FF0805177
:105A2000FFF710BF4FF47F0C1CEAD0121EBF1CEA18
:105A3000D11392EA0C0F93EA0C0F00F0478090EA22
:105A4000010F48BF42F480724FF0004C4CEA002036
:105A50004CEA012102EB0302A0FB0113A2F50002B4
:105A6000002918BF43F001035B0028BF4FEA33034E
:105A700042EB22425FEA132C4CEBC2502EBFBCEB30
:105A8000436FB2F57C0F70474FEA036CBCF1004FD7
:105A900008BF20F00100B2F57C0F38BF70470BD56E
:105AA00082F0FF0212F5803FC8BF704700F1C0408E
:105AB000D8BF00F00040704700F5000C5FEA4C0CC6
:105AC00048BF7047B0F1C04000F073B80CEAD11382
:105AD00090EA010F48BF42F48072624538BF6345C7
