:020000040800F2
:10000000D018002039020008831D0008E51B0008F5
:10001000811D0008F10800084923000800000000C5
:10002000000000000000000000000000A101000826
:100030003709000800000000E5010008851D0008E0
:10004000530200085302000853020008530200083C
:10005000530200085302000853020008530200082C
:10006000530200085302000853020008530200081C
:100070005302000853020008F508000801090008AF
:1000800053020008530200085302000853020008FC
:1000900053020008530200085302000853020008EC
:1000A00053020008530200085302000853020008DC
:1000B0005302000853020008111E000853020008F2
:1000C00053020008530200085302000853020008BC
:1000D0005302000831230008530200083D230008A2
:1000E00053020008530200085302000800F002F80F
:1000F00000F046F80AA090E8000C82448344AAF17C
:100100000107DA4501D100F03BF8AFF2090EBAE879
:100110000F0013F0010F18BFFB1A43F0010318473B
:10012000A4340000C4340000103A24BF78C878C159
:10013000FAD8520724BF30C830C144BF04680C60ED
:10014000704700000023002400250026103A28BF35
:1001500078C1FBD8520728BF30C148BF0B60704739
:10016000642900F05181732900F015830020704745
:100170001FB59DE8030000F04FFA1FBD10B510BD7C
:1001800000F034FB1146FFF7F3FF02F0A3F900F093
:1001900052FB03B4FFF7F2FF03BC00F083FB000047
:1001A000224B19680868B0E8F00F80F30988BFF3A4
:1001B0006F8F4FF0000080F311884EF00D0E7047E6
:1001C0000000000006480068006880F3088862B6F6
:1001D00061B6BFF34F8FBFF36F8F00DF00BF00BF6B
:1001E00008ED00E0EFF30980BFF36F8F0F4B1A6843
:1001F00020E9F00F106008B54FF0500080F311882F
:10020000BFF34F8FBFF36F8F02F0E8FF4FF0000096
:1002100080F31188BDE8084019680868B0E8F00F5D
:1002200080F30988BFF36F8F704700BF580000202C
:10023000EFF30580704700000948804709480047F0
:10024000FEE7FEE7FEE7FEE7FEE7FEE7FEE7FEE786
:10025000FEE7FEE704480549054A064B70470000E3
:100260000F1E0008ED000008D0120020D01800205A
:10027000D0140020D014002070B5064600F0B0F96C
:10028000056806F10B0020F00704B4429CBF002073
:1002900070BD2B466A68BAB11068A04210D304F151
:1002A000080188423CBF5068586007D35168101954
:1002B00041601168091B016058601460101D70BD19
:1002C00013465268002AE7D12146284600F090F9EB
:1002D0000028DED170BD70B50446051F00F080F91E
:1002E0000068002C14BF446870BD002C18BFAC42DD
:1002F0003CBF20466468F8D301680A18AA4218BFB8
:10030000456003D12A6805461144016028684119F7
:10031000A1421CBF6C6070BD6168696021680844BF
:10032000286070BD0FB41CB5074B06AA7B44694614
:100330000090059800F005FA0020694600F014FAD4
:100340001CBC5DF814FB0000390400002DE9F041ED
:100350000E460446002020622046E168884730B3FC
:10036000252805D0D4E901219047206A401CF2E7F6
:10037000E168204600278847050018D0A5F1410014
:10038000192802D820354FF4006732462946204606
:100390002760FFF7E5FE40B1012804D0F61D26F0E6
:1003A00007060836D8E7361DD6E72846DAE7206A7A
:1003B000BDE8F08170B50C460546012A05D02878C5
:1003C000800600D5EA69002302E0012305E05B1CFA
:1003D000934202D2E05C0028F9D1A869E618C01A5D
:1003E000A861286A184428622846AFF3008004E018
:1003F000D5E9012114F8010B9047B442F8D32846FF
:10040000AFF3008070BD00002DE9F04106460024E6
:1004100010687529314616A510D0AFF3008000286A
:1004200002DA404213A507E031688A0701D512A518
:1004300002E0490704D511A5012401E0AFF30080D3
:1004400000210A2206F1240709E0B0FBF2FCB0FB10
:10045000F2F302FB1C00303078541846491C002887
:10046000F3D123462A463046BDE8F04100F00AB9F0
:10047000000000002D0000002B0000002000000004
:1004800030B505460B462A4613F8014B12F8010B0E
:1004900008B1A042F8D01CB1002802D06D1CF1E7D1
:1004A000284630BD10B5431C02E010F8011B71B1A5
:1004B0008107FAD14FF0013202C88C1A8C4314EA3A
:1004C000C211F9D0C01A0A0603D0C01E10BDC01A4E
:1004D00010BD0A0401D0801E10BD0902FCD0401ED0
:1004E00010BD10B5203AC0F00B80B1E81850203A8A
:1004F000A0E81850B1E81850A0E81850BFF4F5AFC4
:100500005FEA027C24BFB1E81850A0E8185044BF4D
:1005100018C918C0BDE810405FEA827C24BF51F8BA
:10052000043B40F8043B08BF7047D20728BF31F8AE
:10053000023B48BF11F8012B28BF20F8023B48BFFF
:1005400000F8012B70474FF000020429C0F0128020
:1005500010F0030C00F01B80CCF1040CBCF1020F76
:1005600018BF00F8012BA8BF20F8022BA1EB0C014B
:1005700000F00DB85FEAC17C24BF00F8012B00F841
:10058000012B48BF00F8012B70474FF0000200B567
:10059000134694469646203922BFA0E80C50A0E8A6
:1005A0000C50B1F12001BFF4F7AF090728BFA0E854
:1005B0000C5048BF0CC05DF804EB890028BF40F820
:1005C000042B08BF704748BF20F8022B11F0804F62
:1005D00018BF00F8012B7047704770477047000044
:1005E0000048704778120020704770477047704786
:1005F00038B504460A4600206946AFF3008000285B
:1006000008BF38BD02460099204600F0CDF8012011
:1006100038BD012000F0E2B8F8B5AFF30080054620
:1006200000200C46102000BF0646A819A0420DD994
:10063000324669460020AFF30080070008BF00F093
:10064000CDF80098A04218BF0546C419FFF7C8FFAF
:1006500005600746F01D20F007004619284600F007
:100660000AF8B44208BFF8BDA21B31463868BDE89D
:10067000F84000F099B800210160C0E9011070470E
:10068000102070472DE9F0470D46994692460446E2
:1006900000F124080168880604D5E06921F0100102
:1006A000216000E00120A84201DD471B00E0002797
:1006B000A1697A1902EB0900081AA0612078C00626
:1006C00002D42046AFF30080002608E0D4E90121DF
:1006D0001AF806009047206A401C761C20624E459E
:1006E000F4DB2078C0060AD52046AFF3008006E090
:1006F000D4E9012130209047206A401C2062381E36
:10070000A7F10107F4DC07E0D4E9012118F805009E
:100710009047206A401C2062281EA5F10105F3DCE9
:100720002046AFF300802078000602D50220BDE805
:10073000F0870120FBE7000001694A1C026108788C
:10074000704700B58FB0CDE9013100210591054911
:100750007944CDE9031011466846FFF7F7FD0FB065
:1007600000BD0000E5FFFFFF0A6802F8010B0A6008
:10077000704710B5436913B1AFF3008001E0FFF794
:1007800019FE012010BD127800F124010A70002228
:100790004A700122EDE711684FF0FF32E9E70000EF
:1007A0000048704770120020034640688C460028BD
:1007B00018BF88423CBF03464068F8D31868184405
:1007C000884207D00CF1030020F00700001D411AF9
:1007D000521A0146081D0A60FFF77DBD10B500F0F2
:1007E00039F8BDE8104000F02FB870477546FFF7A4
:1007F000D7FFAE4605006946534620F00700854600
:1008000018B020B5FFF726FDBDE820404FF00006E8
:100810004FF000074FF000084FF0000B21F00701E8
:10082000AC46ACE8C009ACE8C009ACE8C009ACE82B
:10083000C0098D46704710B50446AFF300802046CE
:10084000BDE81040FFF7A5BC002801D000F02AB891
:100850007047000010B5012805D0002103A000F06A
:1008600027F8012010BD09A1F8E7000053494752BD
:10087000544D454D3A204F7574206F662068656170
:1008800070206D656D6F7279000000003A20486538
:100890006170206D656D6F727920636F7272757013
:1008A0007465640001491820ABBEFEE72600020013
:1008B00070B505460C460A2000E06D1C00F011F8EA
:1008C00035B128780028F8D102E0641C00F009F85E
:1008D00014B120780028F8D1BDE870400A20AFF3A9
:1008E000008008B569468DF800000320ABBE08BD46
:1008F000FEE70000014800F091B80000B0030020BE
:10090000014800F08BB80000F403002030B590F8E7
:1009100040500124AC40C56B6C6004686360436860
:10092000102B036803D099600068C26030BD9A60E4
:100930000068C16030BD704772B6FEE710B590F830
:1009400021100022022905D00421816380F8202093
:10095000012010BD01680B6823F00E030B600168D5
:100960000B6823F001030B6090F84030C46B012149
:1009700001FA03F3636080F8211080F8202010460C
:1009800010BD000010B590F821100024022903D0FA
:100990000421816301243DE001680A6822F00E020F
:1009A0000A6001680A6822F001020A601A4A0168B6
:1009B000914201D1012121E0174A1432914201D123
:1009C00010211BE0144A2832914201D1891515E00B
:1009D000114A3C32914201D189140FE00E4A503243
:1009E000914202D14FF4803108E00B4A64329142C7
:1009F00002D14FF4801101E04FF08071064A083AAD
:100A00005160012180F82110002180F82010416BF5
:100A100001B18847204610BD080002402DE9F05F73
:100A2000C16B0C6801680B68D0F840C0042202FA60
:100A30000CF2494DDFF824A1494E4A4FDFF828B1A6
:100A4000DFF828E122422CD05A072AD50A689206FC
:100A500003D40A6822F004020A600168A94201D1A5
:100A6000042219E0514501D1402215E0B14202D1E2
:100A70004FF4806210E0B94202D14FF480420BE0A3
:100A8000594502D14FF4802206E0714502D14FF45E
:100A9000800201E04FF080622F4908394A60C16A44
:100AA0003BE04FF0020808FA0CF818EA040F4FF088
:100AB00000094FF0010235D05FEA837832D50B6828
:100AC0009B0605D40B6823F00A030B6080F82120F5
:100AD0000168A94201D1022219E0514501D1202229
:100AE00015E0B14202D14FF4007210E0B94202D1D8
:100AF0004FF400520BE0594502D14FF4003206E0AA
:100B0000714502D14FF4001201E04FF0007212491A
:100B100008394A6080F82090816A00291AD0BDE81F
:100B2000F05F0847082505FA0CF5254212D01B078F
:100B300010D50B6823F00E030B6090F84010C36BC8
:100B400002FA01F15960826380F8212080F8209038
:100B5000016BE2E7BDE8F09F080002401C00024084
:100B60003000024044000240580002406C00024045
:100B700030B528B308C8134914221944B1FBF2F167
:100B80008900C16310498163022141771A6843F6E5
:100B9000F0718A43D0E900142143D0E902452C4387
:100BA000214304692143446921438469214311435A
:100BB000196000214163012242770177084630BD68
:100BC000012030BDF8FFFDBF0000024070B50446B3
:100BD00090F82000002501280CD0012084F8200086
:100BE00094F821600020012E06D084F82000022510
:100BF000284670BD022070BD022684F82160A063E3
:100C00002068066826F0010606602046FFF77EFE93
:100C1000E06A00282068016802D041F00E0106E079
:100C200021F0040101602068016841F00A010160BF
:100C30002068016841F001010160D9E72DE9F84F12
:100C4000DFF8B8910024A9F1040B23460F2709F11E
:100C5000040AABF1040EC9E00125A5402A40AA42CE
:100C60007DD1674ED1F804C0ACEB0608B44532D054
:100C700014DCBCF1030F3AD009DCBCF1000F2AD020
:100C8000BCF1010F1CD0BCF1020F31D11DE0BCF151
:100C9000110F17D0BCF1120F2AD119E0B8F5881F37
:100CA00019D006DCB8F5803F15D0B8F5801F1FD1EC
:100CB00011E0B8F5001F0ED0B8F5041F18D10AE0F6
:100CC000CB6815E0CB681B1D12E0CB6808330FE042
:100CD000CB680C330CE08B682BB1012B4FF0080371
:100CE00003D0456104E0042302E0056100E0002335
:100CF000FF2A01D8064601E000F104064FEA840508
:100D000001D9A5F12005D6F8008007FA05FC28EAEC
:100D10000C0803FA05F548EA0508C6F800804D6896
:100D2000ED0062D5374DAE6946F00106AE61AD69A2
:100D300024F0030605F001050095334D06EB050C84
:100D4000DCF80850A607360F07FA06F825EA08056A
:100D5000DFF8B880404503D14FF0000817E044E0C9
:100D6000DFF8AC80404502D14FF001080FE0DFF81A
:100D7000A480404502D14FF0020808E0DFF89880D7
:100D8000404502D14FF0030801E04FF0040808FA93
:100D900006F848EA0508CCF808804D68D9F80060E4
:100DA000ED024D4601D5164300E096432E604D6896
:100DB000DAF80060AD02554601D5164300E09643CF
:100DC0002E604D68DBF80060AD035D4601D516432B
:100DD00000E096432E604D68DEF80060ED03754636
:100DE00001D5164300E096432E60641C0D682A4628
:100DF000E5407FF431AFBDE8F88F00000804014002
:100E000000001110001002400000014000080140E5
:100E1000000C01400010014000140140C26821EAAA
:100E200002030A4043EA0241016170470AB10161CD
:100E300070470904FBE70000014880687047000024
:100E400018000020024881680278114481607047D0
:100E500018000020074810B5016841F0100101603A
:100E6000032000F0A7F80F2000F006F800F050F87B
:100E7000002010BD0020024030B505461F4887B055
:100E8000C16941F00401C161C06906A900F0040014
:100E9000009001A800F036F90498B0B100F052F9C2
:100EA00040001749174AB0FBF1F11748491E02608C
:100EB000416040F2E7320021C0E903218160816195
:100EC00000F018FB040003D015E000F03BF9E8E760
:100ED0000D4800F03DFB04000DD11E2000F03CF851
:100EE000102D07D2002229461E2000F043F80748A3
:100EF000056000E0012407B0204630BD001002402C
:100F000040420F0000080040380400201C00002070
:100F10000F4808B5816941F001018161816901F0E3
:100F200001010091C16941F08051C161C069002295
:100F300000F0805000900F21901E00F01BF8054833
:100F4000416821F0E06141F00071416008BD00009E
:100F50000010024000000140002809DB00F01F02E1
:100F6000012191404009800000F1E020C0F800110B
:100F700070470000F0B40E4B1B680C46C3F302230D
:100F8000C3F10705042D00D90425191D072901D235
:100F9000002300E0DB1E012606FA05F1491E214070
:100FA00099409E40761E16403143F0BC01F0CDB909
:100FB0000CED00E0064900F0070208684FF6FF0359
:100FC000184040EA0220034A1043086070470000BE
:100FD0000CED00E00000FA052DE9F0470F46050092
:100FE00061D0434E306800F00700B84209D2306843
:100FF00020F0070038433060306800F00700B84246
:1010000051D128683B4C810712D5400703D5606851
:1010100040F4E06060602878000703D5606840F421
:10102000605060606068A96820F0F000084360606C
:101030002878C00728D06868012810D021680228C5
:1010400010D0890700292EDA616821F003010143DD
:101050006160FFF7F1FE804641F288390DE02168BA
:101060008903EFE78901EDE7FFF7E6FEA0EB080152
:10107000494502D90320BDE8F0876068696800F03F
:101080000C00B0EB810FEFD1306800F00700B842E0
:101090000BD9306820F0070038433060306800F02A
:1010A0000700B84201D00120E5E72878400705D5C0
:1010B0006068E96820F4E060084360602878000711
:1010C00006D56068296920F4605040EAC10060607C
:1010D00000F058F86168084AC1F30311515CC84038
:1010E0000649086006480068FFF7C6FE0020C2E710
:1010F0000020024000100240823500082400002039
:101100001C0000200F2202600C4A536803F0030306
:101110004360536803F0F0038360536803F4E063B3
:10112000C36052684FF4E06303EAD20202610448EC
:10113000006800F0070008607047000000100240DF
:10114000002002400448054900684968044AC1F388
:101150000221515CC840704724000020001002406A
:10116000923500080448054900684968044AC1F3FB
:10117000C221515CC840704724000020001002408A
:10118000923500080E4A51680E4801F00C03042BFA
:1011900011D0082B0FD10C48C1F38343C903C05CA5
:1011A0000AD55168084AC1F34041921E515C054A74
:1011B0005043B0FBF1F070470449484370470000CA
:1011C0000010024000127A007235000800093D004C
:1011D0002DE9F84F040070D02078C04DC00749D0E9
:1011E0006868C0F38100012807D06868C0F38100F7
:1011F000022809D16868C00306D52868800339D55C
:1012000060680028E7D035E06068B0F5803F0BD01B
:1012100010B1B0F5A02F11D0286820F480302860DC
:10122000286820F4802002E0286840F4803028609C
:10123000606890B1FFF700FE06460AE0286840F4B7
:1012400080202860F0E700BFFFF7F6FD801B6428D0
:1012500073D828688003F7D50CE0FFF7EDFD06464C
:1012600005E000BFFFF7E8FD801B6428F0D8286880
:101270008003F7D420789A4E80074FF001094FF091
:10128000000839D5686810F00C0F07D06868C0F303
:101290008100022809D16868C00306D42868800745
:1012A00014D52069012808D110E02069B0B1C6F832
:1012B0000090FFF7C1FD074605E00AE1FFF7BCFD1E
:1012C000C01B0228C4D828688007F7D52868616940
:1012D00020F0F80040EAC10028600DE0C6F8008068
:1012E000FFF7AAFD074604E0FFF7A6FDC01B022892
:1012F00023D828688007F7D4207800072CD57948B0
:10130000A169D9B1C0F80090FFF796FD074604E047
:10131000FFF792FDC01B02280FD8686A8007F7D537
:1013200071484FF4FA510068B0FBF1F0009000BF33
:101330000098411E0091FAD20EE080E0C0F80080D3
:10134000FFF77AFD074604E0FFF776FDC01B022891
:1013500075D8686A8007F7D42078400760D5E869B7
:101360000027C00008D4E86940F08050E861E869CF
:10137000012700F0805000905C480168C90513D433
:101380000168834641F480710160FFF755FD824694
:1013900006E000BFFFF750FDA0EB0A0064284ED81E
:1013A000DBF80000C005F5D5E06801280AD008B1D7
:1013B000052813D0286A20F001002862286A20F04E
:1013C000040002E0286A40F001002862E06841F26F
:1013D000883B98B1FFF730FD82460BE0286A40F069
:1013E00004002862EEE700BFFFF726FDA0EB0A012C
:1013F00059455AD8286A8007F6D50CE0FFF71CFD3E
:10140000824605E0FFF718FDA0EB0A0159454CD8CC
:10141000286A8007F6D41FB1E86920F08050E8619F
:10142000E06988B36968C1F38101022944D00228C8
:10143000C6F8608004D0FFF7FFFC044638E034E0D3
:10144000FFF7FAFC074604E0FFF7F6FCC01B022892
:101450002BD828688001F7D4206AB0F5803F05D1E9
:101460006868A16820F4003008436860D4E9080186
:101470000843696821F4741108436860C6F86090F5
:10148000FFF7DAFC044606E025E000BFFFF7D4FCD6
:10149000001B022809D828688001F7D51BE000BF8F
:1014A000FFF7CAFC001B022802D90320BDE8F88F11
:1014B00028688001F4D40EE00128F7D06868226A19
:1014C00000F48031914204D1616A00F470108842C6
:1014D00001D00120EAE70020E8E700000010024008
:1014E000000042428004424224000020007000407C
:1014F0007047704710B5040003D094F83D0010B158
:1015000007E0012010BD002084F83C00204600F0D8
:101510001EF8022084F83D00211D206800F07EFCAA
:10152000012084F8460084F83E0084F83F0084F8E7
:10153000400084F8410084F8420084F8430084F8B5
:10154000440084F8450084F83D00002010BD704739
:1015500090F83D10012901D001207047022180F848
:101560003D100168CA6842F00102CA6000680B4978
:10157000884208D0B0F1804F05D00949884202D096
:101580000849884204D1816801F00701062903D087
:10159000016841F00101016000207047002C01400A
:1015A0000004004000080040704770B50446006821
:1015B00001694FF00005C943890715D4C168C943C3
:1015C000890711D4E91E0161012020772068806914
:1015D0008007204602D0FFF7E7FF04E000F098F80C
:1015E000204600F096F8257720680169C94349072D
:1015F00017D4C168C943490713D46FF004010161CE
:10160000022020772068806910F4407F204602D0B5
:10161000FFF7CAFF04E000F07BF8204600F079F8FD
:10162000257720680169C943090716D4C168C943F1
:10163000090712D46FF008010161042020772068A7
:10164000C0698007204602D0FFF7AEFF04E000F03B
:101650005FF8204600F05DF8257720680169C943EE
:10166000C90617D4C168C943C90613D46FF0100165
:101670000161082020772068C06910F4407F20466F
:1016800002D0FFF791FF04E000F042F8204600F09E
:1016900040F8257720680169C943C90708D1C168A6
:1016A000C943C90704D1891E0161204600F032F800
:1016B00020680169C943090609D4C168C9430906FC
:1016C00005D46FF0800101612046FFF711FF20680B
:1016D0000169C943490609D4C168C943490605D40B
:1016E0006FF040010161204600F01EF8206801699A
:1016F000C94389060BD4C168C943890607D46FF072
:10170000200101612046BDE87040FFF7F2BE70BDC8
:101710007047704700680349884201D1FFF792BBC8
:101720007047000000080040704770477047000095
:10173000F8B5016804460868CA684B6910F00F0FD5
:101740004FF0000559D003F0010602F490773743BB
:1017500065D0C10705D0D10503D5616C41F0010109
:101760006164410705D5D90703D0616C41F00201DE
:101770006164810705D5D90703D0616C41F004018C
:101780006164010707D502F02001314303D0616C89
:1017900041F008016164616C00293AD0800604D5EB
:1017A000900602D5204600F0BDFC20684069616CBF
:1017B000C0F38010090700D460B3204600F07DFC20
:1017C00020684069400621D52068143050E8001F89
:1017D00021F0400140E80012002AF5D1E06BA8B1E9
:1017E0006D494163E06BFFF7CDF8002811D0E06B45
:1017F000416B01B0BDE8F040084783060FD5930662
:101800000DD52046BDE8F84000F08CBC2046FFF71F
:101810008DFFF8BD2046FFF789FF6564F8BD266B94
:101820002023012E7CD1C6067AD5D60678D5086845
:101830004868009048694FF00206400640D5E16BC9
:10184000086840680004000CE8D0A28D8242E5D907
:10185000E085886920282DD020680C3050E8001FD2
:1018600021F4807140E80012002AF5D1206814307C
:1018700050E8001F21F0010140E80012002AF5D1D4
:101880002068143050E8001F21F0400140E80012A9
:10189000002AF5D184F84230256320680C3050E8E6
:1018A000001F21F0100140E80012002AF5D1E06B82
:1018B000FFF744F86663A08DE18D401A81B22AE0FB
:1018C000A08DE18D401A81B2E08D0028A6D00029BC
:1018D000A4D022680C3252E8000F20F4907042E845
:1018E0000007002FF5D12068143050E8002F22F0B7
:1018F000010240E80027002FF5D184F8423025632B
:1019000020680C3050E8002F22F0100240E800233D
:10191000002BF5D166632046FFF707FFF8BDFFE710
:1019200005062BD5150629D594F841002128F5D1B7
:10193000A068B0F5805F01D12069B0B1206A411C78
:101940002162216800784860E08C401E0004000C91
:10195000E084E3D12068C16821F08001C160206883
:10196000C16841F04001C160D8E7206A0088C0F337
:1019700008004860206A801C2062E5E74006CDD55B
:101980005006CBD5CA68204622F04002CA6084F8CF
:10199000413000F025F9C1E7711F000870B504005F
:1019A00004D094F84100002510B106E0012070BD7C
:1019B00084F84050204600F023F8242084F84100A9
:1019C0002068C16821F40051C160204600F00CFC81
:1019D0002068016921F4904101612068416921F08A
:1019E0002A0141612068C16841F40051C160656409
:1019F000202084F8410084F842006563002070BD17
:101A0000F0B585B000240094019402940394064636
:101A100003684248404D022103220715AB424DD1D5
:101A2000836943F480438361836903F480430493AF
:101A3000836943F0040383618069394D00F0040039
:101A400004900802CDE90001039269462846FFF799
:101A5000F5F8CDE90074694628460294FFF7EEF8E0
:101A6000314D3048802701C5102091C52E4845F8DA
:101A700010496C61AC61EC61FFF77AF808B1FEF7D0
:101A80005BFFB5636E62284D264844351430C5E9C6
:101A90000004C5E902472C616C61AC612846EC6129
:101AA000FFF766F808B1FEF747FFF563002205214E
:101AB00025206E62FFF75EFA252028E01B4DAB4221
:101AC00027D1C36943F48023C361C36903F480232E
:101AD0000493836943F0080383618069CDE9007151
:101AE00000F00800CDE90320114D69462846FFF7B4
:101AF000A5F8E814CDE90004694628460294FFF7EA
:101B00009DF8002205212720FFF734FA2720FFF750
:101B100023FA05B0F0BD000000380140001002407B
:101B20000008014044000240B0030020004800408B
:101B3000000C014090F84230202B01D00220704769
:101B400021B11AB10023036300F0AABB0120704742
:101B5000034900680968884201D101F059B970470A
:101B6000200300207047000070B5044690F8410043
:101B7000202801D0022070BD49B342B32162A28463
:101B8000E28400206064212384F84130A56B114B6E
:101B9000AB62A56B104BEB62A56B104B2B63A36B79
:101BA0005863256813462A1DA06BFFF70FF82168BC
:101BB0006FF0400008602068143050E8001F41F0CA
:101BC000800140E80012002AF5D1002070BD0120FC
:101BD00070BD00006F200008B1200008811F0008C0
:101BE00070477047FEE700000D4808B5416941F0B5
:101BF000010141614069002200F0010000900521CF
:101C00000E20FFF7B7F90E20FFF7A6F900220521F5
:101C10000F20FFF7AFF9BDE808400F20FFF79CB990
:101C20000010024010B596B01C2211496846FEF71C
:101C300058FC0021684600F013FD0E4C0C491C2294
:101C400060601C3107A8FEF74CFC002107A800F0DB
:101C500007FD0749A0601C2238310EA8FEF741FCA1
:101C600000210EA800F0FCFCE06016B010BD0000E2
:101C70001C350008000000202DE9F04186B000244A
:101C800020480094019402940394816941F020015A
:101C90008161816901F020010491816941F00401B1
:101CA0008161816901F004010491816941F00801B9
:101CB00081618069144F00F0080004900022F02137
:101CC0003846FFF7B3F8DFF844800022042140468D
:101CD000FFF7ACF8F02001250226CDE90005CDE99B
:101CE000024669463846FEF7A9FF0420CDE9000503
:101CF000CDE9024669464046FEF7A0FF06B0BDE8C2
:101D0000F08100000010024000080140000C01407A
:101D10000C4810B50A4901604FF4E13141600021DF
:101D200081600C22C160C0E904128161C161FFF7CA
:101D300035FE002803D0BDE81040FEF7FDBD10BD04
:101D400000380140200300200C4810B50A4901600A
:101D50004FF4E1314160002181600C22C160C0E993
:101D600004128161C161FFF719FE002803D0BDE8AC
:101D70001040FEF7E1BD10BD0048004068030020A0
:101D8000FEE7FEE710B5502080F31188BFF34F8FB8
:101D9000BFF36F8F01F0FCFA18B104494FF0805087
:101DA0000860002080F3118810BD000004ED00E001
:101DB00030B58FB028216846FEF7E7FB14210AA84A
:101DC000FEF7E3FB01210804CDE900100024029492
:101DD00002250491CDE907504FF4E01009906846C0
:101DE000FFF7F6F908B172B6FEE70F20CDE90A0554
:101DF0004FF48060CDE90C4002210AA80E94FFF751
:101E0000EBF8002801D072B6FEE70FB030BD704786
:101E10000148FFF7CABB000038040020F0B5026893
:101E2000164B174C174D4FF08047984205D0B842DB
:101E300003D0A04201D0A84203D122F070064A6824
:101E40003243984205D0B84203D0A04201D0A84204
:101E500003D122F44074CA6822434C6922F0800204
:101E6000224302608A68C2620A688262984201D193
:101E70000969016301214161F0BD0000002C0140AE
:101E80000004004000080040012220210548FEF720
:101E9000CDFF054C04212046FEF7C0FF642000F072
:101EA000D3FBF7E700080140000C0140254C08B5C2
:101EB0001FA0E0600022227023A0606040F25B70EF
:101EC00020813C20208225480121A17402714171AA
:101ED00023A10160012224492448FFF72BFE206939
:101EE000009094E80F0000F00DFB1C4C103C38B93A
:101EF0004FF47A7000F0A8FBD4E9040100F012FF5F
:101F0000642000F0A1FBE06801F08EF8642000F08E
:101F10009BFB6D1CADB200F0BFFA962DF6D90025E3
:101F2000E06801F081F8002001F0F2F8EEE700002F
:101F300065323934333938393532386434336431C1
:101F400000000000B8000020746573742E6D6F737C
:101F500071756974746F2E6F726700001000002035
:101F600068656C6C6F0000002A00002020030020D0
:101F700010B5406A0021C185C184FFF7D7FB10BDB1
:101F800070B5446A2068406994F84110C0F3C010ED
:101F90000025212904D118B1E584204600F0B4F8C9
:101FA0002068406994F84210C0F38010222904D1BF
:101FB00018B1E585204600F080F8606C40F0100014
:101FC00060642046FFF7B2FB70BD10B50146406A61
:101FD000096809684FF0000289062ED4C28501689D
:101FE0000C3151E8003F23F4807341E80034002CA9
:101FF000F5D10168143151E8003F23F0010341E8B5
:102000000034002CF5D10168143151E8003F23F071
:10201000400341E80034002CF5D1202180F8421023
:10202000016B012909D101680C3151E8003F23F00F
:10203000100341E80034002CF5D14263016B012903
:1020400002D0FFF785FD10BD818DFFF76EFB10BD3F
:1020500010B5406A01214163016B012902D0FFF7ED
:1020600081FD10BD818D4908FFF75FFB10BD10B5E4
:102070000146406A09680968890616D40021C184AE
:102080000168143151E8002F22F0800241E800235A
:10209000002BF5D101680C3151E8002F42F04002CD
:1020A00041E80023002BF5D110BDFFF799FD10BDCD
:1020B00010B5406AFFF795FD10BD01680C3151E87D
:1020C000002F22F4907241E80023002BF5D1016823
:1020D000143151E8002F22F0010241E80023002BC7
:1020E000F5D1016B012909D101680C3151E8002FAC
:1020F00022F0100241E80023002BF5D1202180F8C6
:10210000421000210163704701680C3151E8002F33
:1021100022F0C00241E80023002BF5D1202180F8F5
:102120004110704708B590F84210222901D00220D2
:1021300008BD82684FF480539A4201D1016921B1F0
:10214000816A9A421BD04AB10AE00268816A5268E9
:10215000C2F308020A80816A891C08E0026972B130
:102160000268526802F07F020A70816A491C81622B
:10217000C18D491E0904090CC18503D01BE002680A
:102180005268F1E70168CA6822F02002CA6001685B
:10219000CA6822F48072CA6001684A6922F00102AA
:1021A0004A61202180F8421000214163026B012A1C
:1021B00003D0FFF7CDFC002008BD016301680C319E
:1021C00051E8002F22F0100241E80023002BF5D146
:1021D00001680A68D20602D50A6849680091818DB3
:1021E000FFF7A3FAE7E7000070B50446006801694D
:1021F000E26821F44051114301612169A06808435C
:10220000616908432168CA6841F20C639A4302433A
:10221000CA6020684169A26921F44071114341619B
:102220001E492068884202D1FEF79CFF01E0FEF7BC
:1022300089FF00EBC00101EB00126068642180009F
:10224000B2FBF0F3B3FBF1F36FF018067343B2FB8C
:10225000F0F5B2FBF0F605EB8305322303EB051531
:10226000B5FBF1F5B6FBF1F605F0F00505EB06154B
:10227000B2FBF0F6B2FBF0F0B0FBF1F06FF0180239
:10228000504306EB800003EB0010B0FBF1F0216837
:1022900000F00F002844886070BD00000038014045
:1022A00038B581620446828500201346606422228C
:1022B00084F84220E56B1B4AAA62E56B1A4AEA627F
:1022C000E56B1A4A2A63E26B50630A462168E06BA9
:1022D000091DFEF77BFC20680168406800902069BA
:1022E00048B120680C3050E8001F41F4807140E88C
:1022F0000012002AF5D12068143050E8001F41F088
:10230000010140E80012002AF5D12068143050E89D
:10231000001F41F0400140E80012002AF5D10020E2
:1023200038BD0000CB1F000851200008811F0008A5
:102330000148FFF7FDB90000200300200148FFF726
:10234000F7B9000068030020FEE70907090E00281E
:1023500004DB00F1E02080F80014704700F00F006B
:1023600000F1E02080F8141D7047000008B50092CD
:102370000B46024606A10D48FDF7D4FF01B04FF40D
:102380007A730BA20BA109485DF804EB00F052BC74
:1023900041542B434D515454414343513D25642CEA
:1023A000222573222C25640D0A0000000005002060
:1023B000000000004F4B0000064910B50020888047
:1023C0000548FEF76FF80146BDE810400248FEF7E9
:1023D000BAB8000028000020800400203EB5069C0A
:1023E000012801D901203EBD8DE81C000B460246A4
:1023F00006A11148FDF796FF03B04FF47A73BDE8CC
:1024000030400EA211A10C4800F014BC41542B43E3
:102410004D515454434F4E4E4543543D25642C2258
:102420007463703A2F2F25733A2564222C25642C6F
:1024300025640D0A00000000000500202B434D51CB
:102440005454434F4E4E4543540000004F4B000040
:1024500010B50B46024606A10B48FDF763FFBDE829
:1024600010404FF47A7309A20AA1074800F0E2BBBA
:1024700041542B434D515454444953433D25642CFE
:1024800025640D0A00000000000500204552524F4F
:10249000520000004F4B000010B5084C2078002877
:1024A0000BD007A10A48FDF7EBFF002805D000205C
:1024B0002070BDE81040FFF77FBF10BD280000204E
:1024C0002B434D515454525853544152543A0000E6
:1024D00080040020FEF7BEFCFFF76AFCFFF7CCFB90
:1024E000FFF782FBFFF730FCFFF712FCFFF79AFBC8
:1024F00000F0B1F8FEE701460020842900D0C81C96
:10250000704700002DE9F84F8146884692461E46E6
:102510000A9FFEF791FC414C0025C4E90805D4E967
:102520000A21101A61EB050142F21072801A71F152
:10253000000071D3FEF780FCC4E90A054FF47A75F8
:102540002B4637A236A137A000F074FB607001283B
:1025500062D0FFF731FF322000F076F82B4633A22D
:1025600032A136A000F066FB6070012854D0FFF75E
:1025700023FF322000F068F809F0FF053C212846CF
:10258000FFF766FF6070012846D0FFF715FF322085
:1025900000F05AF8002000F02BFB607001283BD0BF
:1025A000FFF70AFF322000F04FF800F09FFB607049
:1025B000012831D0FFF700FF322000F045F800F08D
:1025C00071FB6070012827D0FFF7F6FE322000F083
:1025D0003BF8314600222846FFF7C8FE607001280C
:1025E0001AD0FFF7E9FE322000F02EF8C7F30740BB
:1025F0000090FBB21FFA8AF241462846FFF7EEFE32
:102600006070012808D0FFF7D7FE322000F01CF8D8
:102610000020BDE8F88FFFE70120FAE7280000203E
:102620004F4B000041540D0A000000002B4350495D
:102630004E3A2052454144590000000041542B437A
:1026400050494E3F0D0A000010B500B9012000F0BE
:10265000C5FC002010BD10B500F024FD002010BD09
:102660007FB50D4604464169B0F9080081B1A16902
:1026700071B1FFF740FFD4E905128DE80700D4E9F6
:1026800000102B46226900F058FE039004B070BD84
:10269000FFF731FF03A9CDE90001208A2B4682B262
:1026A000D4E9001000F01CFE012801D00020EDE765
:1026B0000398EBE72DE9FE4305460C4617468020BC
:1026C0000A9EFDF7D9FD8046C6F30742B1B2B8B203
:1026D0008DE807002346EAB20BA14046FDF722FE33
:1026E00042464FF47A73114611A000F0A3FA002875
:1026F000404604D0FDF7EFFD0120BDE8FE83FDF765
:10270000EAFD0020F9E700002B434D515454434F9C
:102710004E4E4543543A2025642C227463703A2F60
:102720002F25733A2564222C25642C256400000093
:1027300041542B434D515454434F4E4E4543543F07
:102740000D0A000008B5002000F0E2FC094D0A4C1B
:102750002869009095E80F00FFF7ACFF2070642017
:10276000FFF772FFA06800F05FFC002000F0D0FCD3
:10277000EEE70000B8000020000000202DE9F04145
:10278000184C0F46054666692068001D00F062FB84
:1027900038B9206890F82C1001208840A169814345
:1027A000A161681C07D137B12168BDE8F0410E482E
:1027B000091D00F093BB20683544B542456021688F
:1027C00005D2A068BDE8F041091D00F06FBB60684C
:1027D000091D00F06BFB206B854200D22563BDE82C
:1027E000F0810000580000205C0600202DE9F04137
:1027F000054600F07FFB2E4C2069401C20612068BC
:102800002C4F10B1E06940B32DE02560206901280C
:1028100029D1002606EB860007EB800000F038FB8C
:10282000761C072EF6D323488C3000F031FB21486C
:10283000A03000F02DFB1F48B43000F029FB1D48EC
:10284000C83000F025FB1B48DC3000F021FB1948A4
:102850008C3060601430A06005E02068E96AC06ACE
:10286000884200D82560E06A401CE062E96A0120E5
:10287000A26988401043A06101EB810007EB800052
:10288000291D00F02BFB00F055FBE06900280CD05F
:102890002068E96AC06A884207D207494FF0805031
:1028A0000860BFF34F8FBFF36F8FBDE8F08100006A
:1028B000580000208005002004ED00E010B504461B
:1028C00090F8510058B101280CD002280FD05020A8
:1028D00080F31188BFF34F8FBFF36F8FFEE7206B3C
:1028E00000F03CFB2046BDE8104000F037BB10BDB7
:1028F00010484FF44061420706D0C01D0D4920F03A
:102900000700411AC1F540610B4A00230144C2E9A6
:1029100000030839103A21F0070111604B600B6089
:102920000B1AC0E9001393604FF000405360D06071
:102930007047000070060020A4000020144E154CC3
:10294000A6F1C8074FF08058DFF84C9012E000BFA6
:1029500000F0D0FAF068C568281D00F07BFA206905
:10296000401E2061E068401EE06000F0E3FA284667
:10297000FFF7A4FFE0680028EAD138680128F9D9F8
:10298000C9F80080BFF34F8FBFF36F8FF2E70000ED
:10299000480600205800002004ED00E02DE9F04733
:1029A0009A46DDE9098481466FF00303206B03EB4F
:1029B00082021044089D20F00706700707D05020BF
:1029C00080F31188BFF34F8FBFF36F8FFEE723189B
:1029D0000A5C83F834200A5C12B1401C1028F6D33C
:1029E000002784F84370072D00D30625E562C4E96B
:1029F0001157201D00F057FA04F1180000F053FAA7
:102A00002461C5F107006462A061E76484F8507036
:102A100052464946304600F0D9F82060B8F1000F20
:102A200001D0C8F80040BDE8F087000030B511497A
:102A300000E011460A688242FBD34B685C1884426E
:102A400003D1406818444860084643681C18944203
:102A500009D1084C103C2468A24209D052681A449B
:102A600042600A6812680260814200D0086030BD8E
:102A70000460F9E7A400002006484168096829B10C
:102A80004168C968C9684968016370474FF0FF3100
:102A9000FAE700005800002008484068401C4FF04A
:102AA000500080F3118804D0BFF34F8FBFF36F8FB6
:102AB000FEE7BFF34F8FBFF36F8FFEE7AC00002040
:102AC000002150B10A4B42699A420FD1806AA3F1AA
:102AD000280290420AD040B108E0502080F31188CB
:102AE000BFF34F8FBFF36F8FFEE70121084670479A
:102AF0005C0600202DE9F0410546002700F066FB4A
:102B0000314E306808B9FFF7F3FEF06805424BD14B
:102B1000C5B3083568070ED005F00700C0F10800FE
:102B20000544680707D0502080F31188BFF34F8F0A
:102B3000BFF36F8FFEE72DB37068854234D822480B
:102B4000103001460C6801E020460C466168A9423D
:102B500002D221680029F7D131688C4224D007685D
:102B60002168016060680837411B10290FD960197E
:102B7000420708D0502080F31188BFF34F8FBFF376
:102B80006F8FFEE710E041606560FFF74FFF6168FF
:102B90007068401A7060B268904200D2B060F0680D
:102BA00001430020C4E9000100F056FC780707D07B
:102BB000502080F31188BFF34F8FBFF36F8FFEE774
:102BC0003846BDE8F08100009400002010B5031FD6
:102BD0004FF080741C601B1F21F001011960191F48
:102BE000024B0B60143940380A6010BD992A000866
:102BF00010B5024606A10B48FDF794FBBDE8104056
:102C00004FF47A7308A20AA1064800F013B8000036
:102C100041542B434D51545452454C3D25640D0AAB
:102C200000000000000500204552524F52000000F5
:102C30004F4B00002DE9F0411E461746884600F034
:102C4000FBF80A20FFF700FDFEF7F6F8134C00250D
:102C5000C4E90405FEF7F0F8C4E90605207878B168
:102C6000257041460E48FDF70BFC20B939460C484B
:102C7000FDF706FC20B1FFF79FFB0020BDE8F081C7
:102C8000D4E90610D4E90423891A60EB0300891BF8
:102C9000A841DFD3FFF790FB0120EFE728000020D9
:102CA0008004002010B506A10948FDF73BFBBDE8F4
:102CB00010404FF47A7307A20BA10548FFF7BABF83
:102CC00041542B434D51545453544152540D0A0016
:102CD000000500202B434D51545453544152543A53
:102CE00020300D0A000000004F4B000010B507A176
:102CF0000A48FDF717FB0A4ABDE810404FF47A7303
:102D000002F108010548FFF795BF000041542B432D
:102D10004D51545453544F500D0A000000050020EB
:102D2000282C0008F8B5C1F3072504460E46012DEE
:102D30004BD82748FDF7B6FB01462548FDF703FCB5
:102D40002046FDF7AFFB0346F2B222A120480095D2
:102D5000FDF7E8FA4FF47A752B4625A224A11C480A
:102D6000FFF768FF012830D0FFF726FB6420FFF74C
:102D70006BFC80211648FDF7E6FB6420FFF764FC3E
:102D800022461CA11248FDF7CDFA2C462B461BA269
:102D90001AA10F48FFF74EFF012816D0FFF70CFBD2
:102DA0006420FFF751FC6420FFF74EFC234613A27A
:102DB00012A113A0FFF73EFF012806D02046FFF71F
:102DC00043FCFFF7F9FA0020F8BD0120F8BD000030
:102DD0000005002041542B434D5154545355425447
:102DE0004F5049433D25642C25642C25640D0A0071
:102DF0003E00000025730D0A000000004F4B00004C
:102E000041542B434D5154545355423D300D0A000B
:102E100006480121064B0170818882785A54491C6A
:102E200081800122811C0348FEF784BE2800002017
:102E3000800400202003002010B50446FDF732FB7B
:102E400082B2034821468068BDE81040FEF78CBE80
:102E500028000020D0E9013201699A60D0E90123FD
:102E60005A604A68824201D182684A600022026147
:102E70000868401E0860086870470000034B036044
:102E800003F154000860802010607047CC000020DF
:102E900000F108014FF0FF32C0E90112C160016189
:102EA00000210160704700210161704730B50B6857
:102EB0005A1C02D000F1080202E0026904E0224636
:102EC000546825689D42FAD953684B6099608A60BE
:102ED000516008610168491C016030BD42684A6068
:102EE00093688B6093685960916008610168491C20
:102EF00001607047502080F31188BFF34F8FBFF3FC
:102F00006F8F0A494868401C486001280CD1084866
:102F1000006810F0FF0F07D0502080F31188BFF336
:102F20004F8FBFF36F8FFEE770470000AC000020AB
:102F300004ED00E00849486828B1401E486001D10E
:102F400080F311887047502080F31188BFF34F8FB2
:102F5000BFF36F8FFEE70000AC00002070B50028C3
:102F600027D0144DA0F108046168E868014207D138
:102F7000502080F31188BFF34F8FBFF36F8FFEE7B0
:102F800022683AB1502080F31188BFF34F8FBFF30E
:102F90006F8FFEE78143616000F018F9606869682F
:102FA000084468602046FFF741FDBDE8704000F02E
:102FB00053BA70BD940000204FF0E0200021016161
:102FC000816105494FF47A720968B1FBF2F1491E3B
:102FD00041610721016170472400002010B5020003
:102FE00014D00F48806B38B1502080F31188BFF3A4
:102FF0004F8FBFF36F8FFEE700F0E8F80021104617
:10300000FFF7BCFB00F028FA002807D105494FF074
:1030100080500860BFF34F8FBFF36F8F10BD00006B
:103020005800002004ED00E070B504002BD01A4DCC
:10303000286884422FD0FFF75DFF2046FFF740FD50
:10304000E8B1201DFFF706FFE06A0121AA6981406F
:103050001143A961114900EB800001EB8000211DA3
:10306000FFF73CFFE06A2968C96A884207D30C4928
:103070004FF080500860BFF34F8FBFF36F8FBDE8F4
:103080007040FFF757BF502080F31188BFF34F8F78
:10309000BFF36F8FFEE770BD580000208005002051
:1030A00004ED00E010B586B00024039405AA04A93D
:1030B00003A80494FFF7E2FEDDE903010094CDE9E3
:1030C000011000230EA11048059A00F036F90F49AF
:1030D0000028486311D0502080F31188BFF34F8F30
:1030E000BFF36F8F4FF0FF3008630120C8614C6160
:1030F00006B0BDE8104000F09FB806B010BD00005B
:1031000049444C45000000003D29000858000020BB
:1031100070B50446FFF7EEFE294D04B92C68201D5A
:10312000FFF798FE58B9E06A264A00EB800152F892
:10313000211021B901218140A8698843A861A06AB2
:1031400018B104F11800FFF785FE1E48211DDC3080
:10315000FFF7C4FE94F850000026012801D184F83E
:103160005060FFF7E7FEE86928B1FFF7C3FEFFF7FD
:1031700083FCFFF7DFFE2868844213D1E86990B131
:10318000A86B38B1502080F31188BFF34F8FBFF385
:103190006F8FFEE70C494FF080500860BFF34F8FF0
:1031A000BFF36F8F70BD0748DC3000682969884223
:1031B00001D12E6070BDBDE8704000F00FB8000076
:1031C000580000208005002004ED00E00248816BDB
:1031D000491C816370470000580000201448816B2F
:1031E00011B1012141627047002141628169B1FA48
:1031F00081F1C1F11F0101EB81020E4951F822302A
:103200006BB101EB820101F108034A6852684A6020
:103210009A4201D152684A60D168016070475020DB
:1032200080F31188BFF34F8FBFF36F8FFEE700006D
:1032300058000020800500201CB526490878019020
:10324000FF20087008788DF800009DF800009DF8B8
:10325000002000F0F000904207D0502080F3118849
:10326000BFF34F8FBFF36F8FFEE79DF800001A4B3F
:1032700000F0500018700720986005E09DF80020CD
:1032800052008DF80020401E9DF800201206F5D453
:103290009860032807D0502080F31188BFF34F8F28
:1032A000BFF36F8FFEE74FF440709860019808708D
:1032B0000A48016841F470010160016841F0704101
:1032C0000160FFF779FE00205860FCF77BFF0020CB
:1032D0001CBD000000E400E0AC00002020ED00E098
:1032E0002DE9FF5F8346DDE90E87994616468A463B
:1032F0009000FFF7FFFB05001CD05420FFF7FAFBFE
:10330000040014D00020256384F85100CDE9024068
:10331000CDE900874B46324651465846FFF73EFB03
:103320002046FFF763FA012004B0BDE8F09F28466D
:10333000FFF714FE4FF0FF30F6E7F0B585B0DDE99A
:103340000B640A9DA6B1DCB15427009726630226C0
:1033500084F85160002604AFCDE90246CDE900575C
:10336000FFF71CFB2046FFF741FA049805B0F0BDBB
:10337000502080F31188BFF34F8FBFF36F8FFEE7AC
:10338000502080F31188BFF34F8FBFF36F8FFEE79C
:103390002DE9F0412E4C0027A06B40B1206A401C63
:1033A0002062606A00B101273846BDE8F081666995
:1033B000761C666113D16068006838B1502080F3D4
:1033C0001188BFF34F8FBFF36F8FFEE76068A1686E
:1033D0006160A060A06A401CA062FFF74DFB206BFB
:1033E000DFF87080864209D36068006880B1606849
:1033F000C068C568686886420DD220632068C06ACC
:1034000000EB800158F821000128CAD90127C8E73C
:103410004FF0FF30F1E7281DFFF71CFDA86A18B137
:1034200005F11800FFF716FDE86A0121A269814045
:103430001143A16100EB800108EB8100291DFFF71A
:103440004DFDE86A2168C96A8842CDD30127CBE7E0
:1034500058000020800500202DE9F0472C4D002465
:103460002746A86B38B1FFF745FDA86B401EA8633F
:10347000A86B40B146E0502080F31188BFF34F8F16
:10348000BFF36F8FFEE72969224E0120D1B3A6F169
:10349000B40980463068E8B1F068C46804F11800E7
:1034A000FFF7D8FC201DFFF7D5FCE06AAA6908FAEF
:1034B00000F11143A96100EB800109EB8100211D9E
:1034C000FFF70CFDE06A2968C96A8842E2D3C5F8B3
:1034D0002480DFE70CB1FFF7CFFA2C6A44B14646EF
:1034E000FFF756FF00B16E62641EF9D1002028621A
:1034F000686A38B10849012738070860BFF34F8F61
:10350000BFF36F8FFFF716FD3846BDE8F087000068
:10351000580000203406002004ED00E09C3500082F
:10352000891E0008FEFF000000000000800000006F
:103530000000000000000000A8350008AD1E0008D3
:1035400000000000000000008000000000000000FB
:1035500000000000B435000845270008FDFF00000A
:1035600000000000800000000000000000000000DB
:10357000010202030405060708090A0B0C0D0E0FD1
:103580001010000000000000000001020304060704
:10359000080900000000010203040000626C796E5B
:1035A0006B4C6564000000006D795461736B536966
:1035B0006D0000006D795461736B50696E674D71D9
:1035C00074740000E435000800000020B80000001A
:1035D000280100089C360008B800002018180000D8
:1035E000440100080000000000000000000000008E
:1035F00000000000000000000000000001000000CA
:1036000010000000000000000024F4000000000092
:103610000000000020030020000000000000000067
:10362000000000000000000000000000000000009A
:10363000000000000000000000000000000000008A
:10364000000000000000000000000000000000007A
:10365000000000000000000000000000000000006A
:10366000000000000000000000000000000000005A
:10367000000000000000000000000000000000004A
:10368000000000000000000000000000000000003A
:0C36900000000000AAAAAAAA0000000086
:04000005080000ED02
:00000001FF
