:020000040800F2
:10000000A007002089010008691B0008451A0008A4
:10001000651B000845020008AD1C00080000000038
:10002000000000000000000000000000711B00083C
:1000300055020008000000006D1B0008751B000839
:10004000A3010008A3010008A3010008A301000800
:10005000A3010008A3010008A3010008A3010008F0
:10006000A3010008A3010008A3010008A3010008E0
:10007000A3010008A301000849020008A301000829
:10008000A3010008A3010008A3010008A3010008C0
:10009000A3010008A3010008A3010008A3010008B0
:1000A000A3010008A3010008A3010008A3010008A0
:1000B000A3010008A30100087D1B0008A30100089C
:1000C000A3010008A3010008A3010008A301000880
:1000D000A3010008951C0008A3010008A11C00084A
:1000E000A3010008A3010008A301000800F002F822
:1000F00000F03AF80AA090E8000C82448344AAF188
:100100000107DA4501D100F02FF8AFF2090EBAE885
:100110000F0013F0010F18BFFB1A43F0010318473B
:10012000681C0000881C0000103A24BF78C878C101
:10013000FAD8520724BF30C830C144BF04680C60ED
:10014000704700000023002400250026103A28BF35
:1001500078C1FBD8520728BF30C148BF0B60704739
:100160001FB51FBD10B510BD00F031F81146FFF7E7
:10017000F7FF01F09DFD00F04FF803B4FFF7F2FF29
:1001800003BC00F057F800000948804709480047C1
:10019000FEE7FEE7FEE7FEE7FEE7FEE7FEE7FEE737
:1001A000FEE7FEE704480549054A064B7047000094
:1001B000791B0008ED000008A0010020A007002026
:1001C000A0030020A00300207047704770477546C9
:1001D00000F02CF8AE4605006946534620F00700B3
:1001E000854618B020B5FFF7DDFFBDE820404FF091
:1001F00000064FF000074FF000084FF0000BAC4630
:10020000ACE8C009ACE8C009ACE8C009ACE8C0097A
:1002100021F007018D46704710B50446AFF300800A
:100220002046BDE81040FFF7A8BF00000048704717
:100230001000002001491820ABBEFEE72600020096
:1002400070470000FEE7000040F27000C2F20000BC
:1002500000F086B870470000EFF3108072B600BF60
:10026000FEE70000014690F82100022816D1086838
:10027000D1E90FC3026822F00E020260026822F088
:1002800001020260012000FA03F2CCF8042081F898
:1002900021000020002281F820207047042088637C
:1002A0000120002281F820207047000080B590F8DE
:1002B0002110022924D10268116821F00E01116079
:1002C0002F211368C4F202018A4240F20401C4F2F1
:1002D000020123F00103136016DD3023C4F2020390
:1002E0009A421DD04423C4F202039A421CD05823E0
:1002F000C4F202039A421DD14FF4803322E000BFC2
:1003000004218163012080BD0823C4F202039A42C4
:100310000ED01C23C4F202039A420BD1102311E029
:100320004FF480730EE000BF4FF480530AE000BF2B
:10033000012307E001F1680C4FF08073624508BFAC
:100340004FF480130B60012180F82110426B0021D3
:1003500080F820100AB190470021084680BD0000B7
:1003600010B5D0E90FCE0168DCF800300A6823FA36
:100370000EF35C072AD512F0040427D00A6892060F
:1003800003D40A6822F004020A602F22C4F2020297
:10039000914240F20402C4F202025BDD3023C4F257
:1003A0000203994272D04423C4F20203994273D0EB
:1003B0005823C4F20203994240F07A804FF480231C
:1003C0001360C16A002940F098806FE09C0727D530
:1003D00012F0020424D00A68920606D40A6822F0B9
:1003E0000A020A60012280F821202F22C4F20202B0
:1003F000914240F20402C4F202023BDD3023C4F217
:100400000203994260D04423C4F2020399425FD0B0
:100410005823C4F20203994260D14FF4003365E0DF
:100420001B0743D512F0080208BF10BD0A6822F06E
:100430000E020A60012101FA0EF2CCF80420816359
:1004400080F82110016B0022002980F8202054D16F
:100450002CE000BF0823C4F20203994222D01C23DF
:10046000C4F20203994223D140231360C16A0029D8
:1004700043D11BE00823C4F2020399422CD01C2371
:10048000C4F20203994229D120232FE04FF4806364
:100490001360C16A89BB09E04FF480431360C16AED
:1004A00059BB03E004231360C16A31BB10BD00BF18
:1004B00002F168044FF08063A14208BF4FF480034B
:1004C0001360C16AC9B9F1E74FF400730EE000BFD1
:1004D0004FF400530AE000BF022307E002F1680472
:1004E0004FF00073A14208BF4FF400131360816AFC
:1004F0000022002980F82020D8D0BDE8104008470D
:10050000014600284FF0010008BF70472DE9F04375
:10051000D1F800C04FF6F873CBF6FD734CF6CD4220
:100520006344CCF6CC42A3FB02236FF0030707EA37
:1005300093030027C4F2020701F10C09C1E90F730C
:100540000223D1E9012E99E87002D1F81C8081F8CC
:100550002130DCF8003043F6F077BB431A4342EA1F
:100560000E0222432A43324342EA090242EA0802C7
:10057000CCF8002000228A6381F8210081F8202035
:100580000020BDE8F04370472DE9F04F82B00E68BF
:10059000002E00F0038141F20042C4F20102042364
:1005A00040F2004E904208BF03234FF6FF7CC4F296
:1005B000010E009300240123C1F2100C4FF0000A39
:1005C0004FF0000949E000BF012704F00C030F229F
:1005D0009A402BEA020207FA03F34FEA9A051A43FC
:1005E00046F82520D1F804B040F20C455FEACB2252
:1005F000DEF8082054BF22EA080242EA0802C4F2E8
:100600000105CEF808202A685FEA8B2354BF22EA4E
:10061000080242EA08022A605FEA8B33DEF804200F
:1006200054BF22EA080242EA08025FEACB33CEF85E
:100630000420DEF800204FF0010354BF22EA080234
:1006400042EA0802CEF800200E680AF1010A36FAE2
:100650000AF204F1040400F0A18003FA0AF816EA91
:10066000080FF1D04E68664512DC122E56D8DFE82E
:1006700006F0350B45495555555555555555555564
:100680005555554D510000BFD1F80C9046E000BFC4
:100690004FF6FF72C1F2210296420FDC0022C1F236
:1006A000110296421AD00022C1F21202964215D0CF
:1006B0000022C1F22102964210D02FE00022C1F2A6
:1006C000220296420AD00022C1F23102964205D09F
:1006D0000022C1F23202964220D100BF8A684AB19C
:1006E000012A14BFC0F81480C0F810804FF0080928
:1006F00014E000BF4FF0040910E000BFCA6802F127
:1007000008090BE04FF0000908E000BFCA6802F1D9
:10071000040903E0CA6802F10C0900BF224606463C
:10072000BAF1080F24BF203A043637680F259540E8
:1007300027EA050509FA02F22A433260CA79D2068D
:100740007FF582AF41F21803C4F202031A68AEF5D6
:100750007E7642F001021A601A6802F001020192EC
:10076000019A2AF0030256F802B040F60002C4F2E1
:100770000102904210D040F60042C4F201029042C1
:100780003FF422AF41F20002C4F20102009F904206
:1007900008BF022719E700BF002716E702B0BDE82F
:1007A000F08F0000C26802EA0103914341EA03416D
:1007B00001617047002A08BF090401617047000009
:1007C00040F29810C2F200000068704740F200004A
:1007D00040F29811C2F20000C2F2000100780A68EB
:1007E000104408607047000080B542F20000C4F277
:1007F0000200016841F010010160032000F0C8F818
:100800000F2000F005F800F061F8002080BD000026
:10081000B0B586B041F21C01C4F202010A68044678
:1008200042F004020A60096801A801F00401019184
:100830000199694600F09CF9049D002D18BF01251F
:1008400000F0B8F94DF68361A840C4F21B31A0FB5B
:1008500001014FF0FF3000EB914140F2B40040F64F
:100860000002C2F20000C4F2000240F2E7330025A9
:10087000C0E90021C0E902530561856100F0A0FBD9
:10088000054618B1284606B0B0BD00BF40F2B4001E
:10089000C2F2000000F00CFC05460028F2D11E2038
:1008A00000F036F80F2C0DD81E202146002200251E
:1008B00000F042F840F20400C2F200000460284652
:1008C00006B0B0BD0125284606B0B0BD82B041F2E9
:1008D0001800C4F202000168022241F00101016027
:1008E000016801F0010101910199416841F08051D5
:1008F0004160406800F08050009000980420C4F2ED
:100900000100016862F31A61016002B070470000E3
:10091000002848BF7047C1B200F01F00012202FA50
:1009200000F04EF20012CEF2000242EAD10121F0B4
:10093000030108607047000010B54EF60C5CCEF263
:10094000000CDCF80030C3F3022E8EF00704042CF8
:1009500028BF0424BEF103034FF0FF3E0EFA04F457
:1009600038BF0023A14399400EFA03F39A43114381
:1009700000F00F0200F160430901043A03F56443FB
:100980006244002848BF02F10C03197010BD00003A
:100990004EF60C51CEF200010A684FF6FF031A40E2
:1009A00060F30A2242F0806040F0FD7008607047FA
:1009B0002DE9F04381B0002800F0858042F2000864
:1009C000C4F202080446D8F800000D4600F0070003
:1009D00088420CD2D8F8000020F007002843C8F85D
:1009E0000000D8F8000000F00700A8426BD1206892
:1009F00041F204098107C4F2020917D5410705D560
:100A0000D9F8001041F4E061C9F80010010705D5DC
:100A1000D9F8001041F46051C9F80010D9F800105D
:100A2000A26821F0F0011143C9F80010C00741D1BC
:100A3000D8F8000000F00700A8420CD9D8F8000050
:100A400020F007002843C8F80000D8F8000000F0A4
:100A50000700A84237D12068410707D5D9F8001010
:100A6000E26821F4E0611143C9F80010000708D5DD
:100A7000D9F80000216920F4605040EAC100C9F8AB
:100A80000000D9F8002002F00C00082841F20020F4
:100A9000C0F27A0050D141F67653C2F38341C0F6DA
:100AA0000003595CD2033BD440F60010C0F23D0075
:100AB000484341E0606802280AD001282AD159F849
:100AC000041C890308D4012001B0BDE8F08300BFF5
:100AD00059F8041C8901F6D5D9F8001021F003015A
:100AE0000843C9F80000FFF76BFE064641F288375D
:100AF000D9F80000616800F00C00B0EB810F97D0CE
:100B0000FFF75EFE801BB842F2D9032001B0BDE8BA
:100B1000F08300BF59F8041C8907D4D5DCE700BF77
:100B2000D9F8002041F67453C2F34042C0F60003E6
:100B30009A5C4843B0FBF2F0D9F8001041F65C52E1
:100B4000C1F30311C0F60002515C40F2080220FA22
:100B500001F140F20400C2F200000068C2F200029B
:100B60001160FFF755FE002001B0BDE8F0830000E2
:100B70000F22026041F20402C4F20202136803F081
:100B800003034360136803F0F0038360136803F406
:100B9000E063C36012684FF4E06303EAD2020261CB
:100BA00042F20000C4F20200006800F00700086092
:100BB0007047000040F2080041F20401C2F2000058
:100BC000C4F202010068096841F66C52C1F30221C7
:100BD000C0F60002515CC8407047000040F20800B7
:100BE00041F20401C2F20000C4F202010068096887
:100BF00041F66C52C1F3C221C0F60002515CC840FC
:100C0000704700002DE9F04182B0002868D004460A
:100C1000007841F20006C007C4F2020625D07068D1
:100C200000F00C0004281BD0706800F00C000828AD
:100C300002D17068C00313D46068002800F0688196
:100C4000B0F5A02F00F07C81B0F5803F00F07C81F2
:100C5000306820F480303060306820F4802076E105
:100C60003068800301D56068D0B32078800718D53C
:100C7000706810F00C0F07D0706800F00C000828A6
:100C80006ED17068C0036BD43068800702D52069CC
:100C9000012825D13068616920F0F80040EAC100E0
:100CA0003060207800071FD42078400732D4E569EF
:100CB00095B1706800F00C00082840F08F80012D7D
:100CC0000ED07068216A00F480328A4208D1616ACD
:100CD00000F47010884203D1002002B0BDE8F0811A
:100CE000012002B0BDE8F081A069002862D0002098
:100CF000C4F242200121C0F88014FFF761FD0546CF
:100D0000706A800700F18C80FFF75AFD401B0228B3
:100D1000F6D92AE1F06910F0805808D1F06940F066
:100D20008050F061F06900F080500090009847F228
:100D30000007C4F200073868C00529D4386840F4B9
:100D400080703860FFF73CFD054600BF3868C0057D
:100D50001ED4FFF735FD401B6428F7D905E100BF1D
:100D60002069002840F20000C4F2422000F0828096
:100D700001210160FFF724FD054600BF30688007B0
:100D80003FF588AFFFF71CFD401B0228F6D9ECE0C9
:100D9000E068002800F08080052800F09780012896
:100DA00000F09880306A20F001003062306A20F054
:100DB000040092E00020C4F242200021C0F8801418
:100DC000FFF7FEFC054600BF706A80077FF56CAF39
:100DD000FFF7F6FC401B0228F6D9C6E00027C4F254
:100DE000422700203866FFF7EBFC022D05460BD1A9
:100DF0003068800140F1BE80FFF7E2FC401B022812
:100E00004FF00300F4D968E7306880017FF564AFE4
:100E1000FFF7D6FC401B02284FF00300F4D95CE733
:100E200040F20800C2F20000006844F6D351C1F25B
:100E30006201A0FB0101480A019000BF00BF0198B8
:100E4000411E002801913FF42FAF00BF0198411EC1
:100E5000002801913FF428AF00BF0198411E0028EF
:100E600001913FF421AF00BF0198411E002801917C
:100E7000E4D119E700210160FFF7A2FC054600BF9D
:100E8000306880077FF50DAFFFF79AFC401B022802
:100E90004FF00300F4D920E7306A20F001003062FF
:100EA000306A20F004003062FFF78AFC054641F208
:100EB000883700BF306A800720D5FFF781FC401BD0
:100EC000B8424FF00300F5D907E700BF306A40F0A1
:100ED00004003062306A40F001003062FFF770FCBD
:100EE000054641F2883700BF306A800706D4FFF715
:100EF00067FC401BB842F7D937E000BFB8F1000FDC
:100F00007FF4D5AEF06920F08050F061CFE600BFED
:100F1000306820F480303060306820F48020306009
:100F2000FFF74EFC054600BF306880037FF59DAE9D
:100F3000FFF746FC401B64284FF00300F4D9CCE6D1
:100F4000306840F480203060306840F48030306099
:100F5000FFF736FC054600BF306880033FF585AEDD
:100F6000FFF72EFC401B6428F6D9032002B0BDE831
:100F7000F08100BF206AB0F5803F05D17168A2689A
:100F800021F40031114371607168626A21F47411B7
:100F900011430843706001203866FFF711FC0446D6
:100FA000306880013FF598AEFFF70AFC001B02286D
:100FB0004FF00300F4D990E670470000704700003E
:100FC000002804BF0120704710B5044690F83D008A
:100FD00028B9002084F83C00204600F067F8022081
:100FE00084F83D00206840F2FF730268C4F20003F9
:100FF00042F6004C9842C4F2010C15DCB0F1804F6F
:101000001AD040F20041C4F20001884214D0984244
:1010100018DCB0F1804F1DD040F20041C4F2000155
:10102000884217D01AE000BF604505D040F60001A5
:10103000C4F200018842EAD1A16822F070020A439A
:101040009842E6DD604505D040F60001C4F200019B
:10105000884203D1216922F440720A43A36922F035
:101060008001D4F804E0E268194360450160C2627F
:10107000C0F828E002D16169CCF83010012141614B
:10108000002084F8461084F83E1084F83F1084F85D
:10109000401084F8411084F8421084F8431084F81A
:1010A000441084F8451084F83D1010BD70470000CE
:1010B00090F83D1001291CBF01207047022180F8E3
:1010C0003D10006840F2FF72C168C4F20002904215
:1010D00041F00101C16009DCB0F1804F12D040F253
:1010E0000041C4F2000188420CD012E042F60041F7
:1010F000C4F20101884205D040F60001C4F20001AB
:10110000884206D1816801F00701062904BF00204A
:101110007047016841F00101016000207047000044
:101120007047000010B5016804460869800744BF95
:10113000C8685FEA807039D40869400744BFC8684E
:101140005FEA40703ED40869000744BFC8685FEAA0
:10115000007045D40869C00644BFC8685FEAC06033
:101160004AD40869C0071CBFC8685FEAC07051D183
:101170000869000644BFC8685FEA006052D4086985
:10118000400644BFC8685FEA406053D408698006DF
:1011900046BFC8685FEA806010BD6FF0200220463D
:1011A0000A61BDE81040FFF709BF00BF6FF0020001
:1011B0000861012020778869800743D02046FFF727
:1011C000AFFF45E06FF004000861022020778869D6
:1011D00010F4407F40D02046FFF7A2FF42E000BF5E
:1011E0006FF00800086104202077C86980073DD0AF
:1011F0002046FFF795FF3FE06FF0100008610820E0
:101200002077C86910F4407F3AD02046FFF788FF66
:101210003CE000BF6FF001000861204600F03EF89E
:101220002168A5E76FF0800008612046FFF7C4FE43
:101230002168A4E76FF040000861204600F038F80C
:101240002168A3E7204600F025F8204600F024F8A6
:101250002168002020776FE7204600F01BF8204629
:1012600000F01AF82168002020776CE7204600F093
:1012700011F8204600F010F821680020207769E777
:10128000204600F007F8204600F006F8216800200C
:10129000207766E77047000070470000006840F65E
:1012A0000001C4F20001884218BF7047FFF78EBAF0
:1012B000704700007047000070470000B0B582B072
:1012C000044600680168C368426901F02F05202DBB
:1012D00003F0200506D12DB1204602B0BDE8B04094
:1012E00000F058BC5FEA017C1EBF02F0010E03F45F
:1012F000907212EB0E0253D1226B012A05D111F02C
:10130000100218BF13F0100236D10A0622D513F0CE
:1013100080021FD094F8411021293FD1A168B1F576
:10132000805F03D12169002900F07082216A4A1C84
:10133000226209784160E18C01390A04E1842DD1EF
:10134000C16821F08001C160C16841F04001C16005
:1013500002B0B0BD490621D513F040011ED0C168CE
:1013600021F04001C1602021204684F8411002B0E4
:10137000BDE8B04000F064BB00210191016801911B
:101380004168019101994069400613D4A08DE18D17
:10139000E28D002A18BF884240F0BA8102B0B0BD89
:1013A000CA0718BF13F4807240F0B6804A0700F1F4
:1013B000B980BEE0E06B016849688AB2002AEDD0CE
:1013C000A38D9A42EAD2E1858069202800F09C80B2
:1013D000206850E8030F216820F4807041E8030280
:1013E000DAB1206850E8030F216820F4807041E8EA
:1013F000030292B1206850E8030F216820F4807046
:1014000041E803024AB1206850E8030F216820F444
:10141000807041E80302002ADAD1206850E8050F05
:10142000216820F0010041E80502DAB1206850E8A7
:10143000050F216820F0010041E8050292B1206803
:1014400050E8050F216820F0010041E805024AB18B
:10145000206850E8050F216820F0010041E80502EE
:10146000002ADAD1206850E8050F216820F04000FA
:1014700041E80502DAB1206850E8050F216820F044
:10148000400041E8050292B1206850E8050F21684C
:1014900020F0400041E805024AB1206850E8050FFD
:1014A000216820F0400041E80502002ADAD120201E
:1014B00084F8420000202063206850E8030F216870
:1014C00020F0100041E80302DAB1206850E8030F71
:1014D000216820F0100041E8030292B1206850E832
:1014E000030F216820F0100041E803024AB1206890
:1014F00050E8030F216820F0100041E80302002AA1
:10150000DAD1E06BFEF7AEFE02206063A08DE18DC4
:10151000401A81B2204674E1626C42F001026264BA
:101520004A0706D5BEF1000F03D0626C42F00202FA
:1015300062648A0706D5BEF1000F03D0626C42F0E8
:1015400004026264BCF1000F09D545EA0E02B2FA4A
:1015500082F2520903D1626C42F008026264626C4A
:10156000002A3FF41BAF11F0200118BF002D03D05B
:10157000204600F00FFB20684069616C00F04000DD
:1015800001F00801401800F0B58000BF206850E865
:10159000030F216820F4907041E80302BAB3206879
:1015A00050E8030F216820F4907041E8030272B301
:1015B000206850E8030F216820F4907041E803028E
:1015C0002AB3206850E8030F216820F4907041E8A6
:1015D0000302002ADAD11AE0206850E8050F2168DA
:1015E00020F0010041E80502DAB1206850E8050F5B
:1015F000216820F0010041E8050292B1206850E81E
:10160000050F216820F0010041E805024AB1206879
:1016100050E8050F216820F0010041E80502002A8A
:10162000DAD1206B012824D1206850E8030F21680B
:1016300020F0100041E80302DAB1206850E8030FFF
:10164000216820F0100041E8030292B1206850E8C0
:10165000030F216820F0100041E803024AB120681E
:1016600050E8030F216820F0100041E80302002A2F
:10167000DAD1202084F842000020206320684069ED
:1016800040063FD5206850E8050F216820F0400053
:1016900041E80502DAB1206850E8050F216820F022
:1016A000400041E8050292B1206850E8050F21682A
:1016B00020F0400041E805024AB1206850E8050FDB
:1016C000216820F0400041E80502002ADAD1E06BF1
:1016D000C0B141F68931C0F600014163FEF7E6FD75
:1016E00000283FF45BAEE06B416B02B0BDE8B04058
:1016F000084700BF2046FFF7DFFD0020606402B00E
:10170000B0BD00BF204602B0BDE8B040FFF7D4BD79
:10171000401A216851E8031F226821F4907142E8C1
:101720000313DBB1216851E8031F226821F4907193
:1017300042E8031393B1216851E8031F226821F4A2
:10174000907142E803134BB1216851E8031F2268EE
:1017500021F4907142E80313002BDAD1216851E89B
:10176000051F226821F0010142E80513DBB1216861
:1017700051E8051F226821F0010142E8051393B1E9
:10178000216851E8051F226821F0010142E8051394
:101790004BB1216851E8051F226821F0010142E8A0
:1017A0000513002BDAD1202184F842100021216397
:1017B000216851E8031F226821F0100142E8031359
:1017C000DBB1216851E8031F226821F0100142E8D3
:1017D000031393B1216851E8031F226821F010011F
:1017E00042E803134BB1216851E8031F226821F03E
:1017F000100142E80313002BDAD1022281B2204605
:10180000626302B0BDE8B040FFF754BD216A31F811
:10181000022B6FF35F22426021628CE5002804BF37
:101820000120704710B5044690F8410028B9002007
:1018300084F84000204600F063F8242084F841003A
:101840002068D4E90212C36823F40053C36003691B
:1018500023F440531A430261D4E904231143C268BC
:10186000194341F20C639A431143C1604169A26973
:1018700021F44071114343F60002C4F20102904288
:10188000416103D0FFF796F902E000BFFFF7A6F928
:101890006268192148439100B0FBF1F048F21F51F2
:1018A000C5F2EB11A0FB01235A094FF69C73C0F659
:1018B000FF7302FB0300322303EB0010A0FB0101C6
:1018C000F02303EA5113206803EB0212C1F3431122
:1018D00011448160016921F490410161416921F065
:1018E0002A014161C16841F40051C16000202021FA
:1018F000606484F8411084F84210606310BD0000F9
:10190000F0B585B00446006844F60001C4F2000159
:10191000002688420496CDE90266019652D043F62D
:101920000001C4F20101884240F0868041F21800B3
:10193000C4F20200016840F6000541F480410160F4
:101940000168C4F2010501F4804100910099016829
:1019500001AE41F0040101600068314600F004006E
:10196000009000984FF40070019002200290032034
:1019700004902846FEF708FE4FF48060019000278F
:1019800028463146CDE90277FEF7FEFD40F27005AC
:101990004420C2F20005C4F202001021802285E832
:1019A00083002846C5E90327C5E90577EF61FEF7FF
:1019B000A7FD002818BFFEF74FFCA5636C62252425
:1019C00032E000BF41F21800C4F20200416801ADEC
:1019D00041F480214160416801F480210091009927
:1019E000016841F0080101600068294600F0080024
:1019F000009000984FF48060019002200290032034
:101A0000049040F60000C4F2010000F58064204616
:101A1000FEF7BAFD4FF40060CDE9010620462946E5
:101A20000396FEF7B1FD2724204600210022FEF791
:101A300083FF2046FEF76CFF05B0F0BD7047000045
:101A400070470000FEE7000080B582B041F214004C
:101A5000C4F202000168002241F001010160006847
:101A6000002100F00100019001980E20FEF764FFB4
:101A70000E2002B0BDE88040FEF74ABF70B584B0CA
:101A800041F21800C4F20200016840F6004441F03F
:101A9000200101600168C4F2010401F020010091FD
:101AA00000990168002241F00801016001680425E5
:101AB00001F00801009100990168002641F004013D
:101AC00001600068042100F00400009000982046A6
:101AD000FEF770FE0120CDE9010602200390694661
:101AE00020460095FEF750FD04B070BD80B540F271
:101AF000FC0043F60001C2F20000C4F20101002321
:101B00004FF00C0C4FF4E13280E80E00C0E90333D3
:101B1000C0E905C3C361FFF781FE002808BF80BD8F
:101B2000BDE88040FEF798BB80B540F2441044F613
:101B30000001C2F20000C4F2000100234FF00C0CBF
:101B40004FF4E13280E80E00C0E90333C0E905C379
:101B5000C361FFF763FE002808BF80BDBDE8804079
:101B6000FEF77ABBFEE70000FEE7000070470000CA
:101B700070470000704700007047000040F2B4005A
:101B8000C2F20000FFF7CEBA406A0021C185C184CD
:101B9000FFF792BB81B090F84210222921D18368CF
:101BA0000246B3F5805F09D152F8281F52F8183C5D
:101BB000002B63D003685B680AE000BF52F8281F5F
:101BC00013B90369002BF5D003685B6803F07F034A
:101BD0000B70116801311160C18D01390A04C18592
:101BE00002D001B0704700BF0168CA6822F020022D
:101BF000CA60CA6822F48072CA604A6922F001028F
:101C00004A61202180F8421000214163026B012AC1
:101C10003CD10163016851E8031F026821F0100103
:101C200042E80313DBB1016851E8031F026821F0A9
:101C3000100142E8031393B1016851E8031F0268E1
:101C400021F0100142E803134BB1016851E8031F72
:101C5000026821F0100142E80313002BDAD1016879
:101C60000A68D20606D5002200920A6800924968E6
:101C700000910099818D01B0FFF71CBB026852688A
:101C80006FF35F2221F8022B8162A5E701B0FFF715
:101C9000D5BE000040F2FC00C2F20000FFF70EBB10
:101CA00040F24410C2F20000FFF708BBFEE700005C
:101CB00090B0FEF799FD00240120CDE90B44CDE959
:101CC000094406900A904FF4E0104FF48031022549
:101CD0000F9006A8CDE90714CDE90D51FEF792FF4C
:101CE00020B1EFF3108072B6FEE700BF0F20CDE900
:101CF00001054FF48060CDE9040401A8022103949A
:101D0000FEF756FE20B1EFF3108072B6FEE700BF7B
:101D1000FFF7B4FEFFF798FEFFF706FFFFF7E6FEBA
:101D200040F2901540F60044C2F200050026C4F2CD
:101D3000010400BFFEF744FDD5E90012401A66EB2E
:101D40000201653871F10000F4D320460421FEF74A
:101D500029FDFEF735FDC5E90006EBE700000000B0
:101D6000000000000102030406070809000000004B
:101D700001020304010202030405060708090A0B15
:101D80000C0D0E0F10100000A81D00080000002010
:101D90001000000028010008B81D000810000020F5
:101DA000900700004401000801000000100000003E
:081DB0000024F4000000000013
:04000005080000ED02
:00000001FF
