:020000040800F2
:10000000D81100204102000871510008093C000885
:100010006D510008F5090008119A00080000000061
:100020000000000000000000000000003967000828
:10003000390E000800000000815100083D670008EB
:100040005B0200085B0200085B0200085B0200081C
:100050005B0200085B0200085B0200085B0200080C
:100060005B0200085B0200085B0200085B020008FC
:100070005B0200085B0200085B0200085B020008EC
:100080005B0200085B0200085B0200085B020008DC
:100090005B0200085B0200085B0200085B020008CC
:1000A0005B0200085B0200085B0200085B020008BC
:1000B0005B020008356800085B0200085B0200086C
:1000C0005B0200085B0200085B0200085B0200089C
:1000D0005B0200085B0200085B0200085B0200088C
:1000E0005B0200085B0200085B0200085B0200087C
:1000F0005B0200085B0200085B0200085B0200086C
:100100005B0200085B0200085B0200085B0200085B
:100110005B0200085B0200085B0200085B0200084B
:100120005B0200085B0200085B0200085B0200083B
:100130005B0200085B0200085B0200085B0200082B
:100140005B0200085B0200085B02000875510008B2
:100150005B0200085B0200085B0200085B0200080B
:100160005B0200085B0200085B0200085B020008FB
:100170005B0200085B0200085B0200080000000050
:100180005B0200085B02000800F002F800F049F88A
:100190000AA090E8000C82448344AAF10107DA45E2
:1001A00001D100F03EF8AFF2090EBAE80F0013F0EB
:1001B000010F18BFFB1A43F001031847D8A4000031
:1001C000F8A40000103A24BF78C878C1FAD85207C2
:1001D00024BF30C830C144BF04680C6070470000C1
:1001E0000023002400250026103A28BF78C1FBD840
:1001F000520728BF30C148BF0B6070471FB50AF0D7
:10020000DFF99DE8030000F0D7F900F045FB04009A
:10021000002000210AF0BEF9401C60601FBD10B52F
:1002200010BD00F014FB1146FFF7E8FF0AF0B4F828
:1002300000F044FB03B4FFF7F2FF03BC00F074FBD3
:100240000948804709480047FEE7FEE7FEE7FEE76A
:10025000FEE7FEE7FEE7FEE7FEE7FEE704480549A6
:10026000054A064B70470000216800088901000814
:10027000D80B0020D8110020D80D0020D80D002068
:1002800070B5A0FB0140B4F1805170F1000024BFB3
:10029000002070BD204600F0BEF905001CBF2146BD
:1002A00000F01EF9284670BD70B50446051F00F029
:1002B00063F90068002C14BF446870BD002C18BF9F
:1002C000AC423CBF20466468F8D301680A18AA42D1
:1002D00018BF456003D12A680546114401602868AB
:1002E0004119A1421CBF6C6070BD616869602168E2
:1002F0000844286070BD53EA020C00F069802DE9C3
:10030000F04B4FF00006002B1FBFB3FA83F503FA42
:1003100005F424FA05F65E4012BF1643B2FA82F5E0
:1003200002FA05F4C5F120051EBF22FA05FC44EAD5
:100330000C04203556EA044C4FEA144418BF641CE0
:100340004FF000084FF00009904271EB030C39D3D5
:10035000002919BFB1FA81F701FA07F6B0FA80F760
:1003600000FA07F6C7F120071EBF20FA07FC46EA8D
:100370000C062037B6FBF4FCA7EB0507103F07F08F
:100380001F0BCBF120062CFA06F60CFA0BFB44BF30
:10039000B3460026202FA4BF5E464FF0000B5BEA59
:1003A000060C08BF4FF0010B19EB0B0948EB0608D0
:1003B000ABFB027C06FB02CC0BFB03CCC01B71EB3E
:1003C0000C01C1E70B46024641464846BDE8F08BAA
:1003D00013B5084318BF4FF0FF300146AFF300805C
:1003E000BDE81C40704770B5064600F0C9F80468C7
:1003F000054630460A22002100F03CF92C6070BD11
:1004000010B5431C02E010F8011B71B18107FAD14D
:100410004FF0013202C88C1A8C4314EAC211F9D091
:10042000C01A0A0603D0C01E10BDC01A10BD0A04AF
:1004300001D0801E10BD0902FCD0401E10BD421E1E
:1004400012F8013F002BFBD111F8013B002B02F801
:10045000013BF9D17047032A40F2308010F0030CC1
:1004600000F0158011F8013BBCF1020F624498BF07
:1004700011F801CB00F8013B38BF11F8013BA2F1A4
:10048000040298BF00F801CB38BF00F8013B11F01F
:10049000030300F02781083AC0F0088051F8043BBC
:1004A000083A51F804CBA0E80810F5E7121D5CBF2C
:1004B00051F8043B40F8043BAFF30080D20724BF5F
:1004C00011F8013B11F801CB48BF11F8012B24BFF3
:1004D00000F8013B00F801CB48BF00F8012B704742
:1004E0004FF000020429C0F0128010F0030C00F05D
:1004F0001B80CCF1040CBCF1020F18BF00F8012BDB
:10050000A8BF20F8022BA1EB0C0100F00DB85FEAA8
:10051000C17C24BF00F8012B00F8012B48BF00F874
:10052000012B70474FF0000200B5134694469646E3
:10053000203922BFA0E80C50A0E80C50B1F12001F6
:10054000BFF4F7AF090728BFA0E80C5048BF0CC0A4
:100550005DF804EB890028BF40F8042B08BF704702
:1005600048BF20F8022B11F0804F18BF00F8012B74
:10057000704770477047704700487047A8000020D8
:1005800000487047A00000207047704770477047D0
:1005900038B504460A4600206946AFF300800028BB
:1005A00008BF38BD02460099204600F0E0F801205F
:1005B00038BD012000F044B9F8B5AFF3008005461E
:1005C00000200C46102000BF0646A819A0420DD9F5
:1005D000324669460020AFF30080070008BF00F0F4
:1005E0002FF90098A04218BF0546C419FFF7C4FFB1
:1005F00005600746F01D20F007004619284600F068
:10060000AFF8B44208BFF8BDA21B31463868BDE858
:10061000F84000F0ACB870B50646FFF7ADFF0568CE
:1006200006F10B0020F00704B4429CBF002070BD0F
:100630002B466A68BAB11068A04210D304F10801D1
:1006400088423CBF5068586007D351681019416018
:100650001168091B016058601460101D70BD1346BD
:100660005268002AE7D121462846FFF791FF00286B
:10067000DED170BD2DE9F04791460F468046044615
:10068000002614F8015B2DB100F062F80068405DAF
:10069000C007F6D12B2D02D02D2D18D0641E4A464E
:1006A0003946204600F07DF827B13968A14201D1D2
:1006B000C7F800804FF0020471050BD540420028B6
:1006C00003DDFFF75DFF0460A007BDE8F08746F497
:1006D0008066E4E70028F8DAFFF752FF04606FF065
:1006E0000040F2E710B5203AC0F00B80B1E8185096
:1006F000A0E81850B1E81850A0E81850203ABFF40C
:10070000F5AF5FEA027C24BFB1E81850A0E81850AA
:1007100044BF18C918C0BDE810405FEA827C24BFFE
:1007200051F8043B40F8043B08BF7047D20728BF8C
:1007300031F8023B48BF11F8012B28BF20F8023BDB
:1007400048BF00F8012B704700487047A000002008
:1007500010B500F0A1F8001D10BD00BF399E0000CB
:1007600000210160C0E90110704710207047034666
:1007700040688C46002818BF88423CBF034640684A
:10078000F8D318681844884207D00CF1030020F011
:100790000700001D411A521A0146081D0A60FFF7A2
:1007A00083BD2DE9F05F824615468B4600270AF18E
:1007B0000104B9460078302801D09DB113E014F847
:1007C000010B0127782803D0582801D045B10AE051
:1007D0000DB1102D07D1002714F8010B102502E0F0
:1007E000082500E00A250026B0460EE005FB0800BB
:1007F00005FB06F101271FFA80F801EB1046B6F55C
:10080000803F00D3B94614F8010B294600F048F8A0
:100810000028EBDABBF1000F05D00FB1641E00E039
:100820005446CBF80040B9F1000F06D0FFF7A8FE00
:1008300002210160C81EBDE8F09F48EA0640FAE7C1
:1008400010B500F049F8BDE8104000F040B875461A
:10085000FFF77AFFAE4605006946534620F00700D1
:10086000854618B020B5FFF7F9FCBDE820404FF0F1
:1008700000064FF000074FF000084FF0000BAC46A9
:10088000ACE8C009ACE8C009ACE8C009ACE8C009F4
:1008900021F007018D46704700487047C0000020D6
:1008A0003A2800D2303820F02002412A01D3A2F1A8
:1008B0003700884201D34FF0FF30704710B504462F
:1008C000AFF300802046BDE81040FFF7B3BC00281E
:1008D00001D000F029B8704710B5012805D00021DB
:1008E00003A000F028F8012010BD09A1F8E70000DE
:1008F00053494752544D454D3A204F7574206F6609
:100900002068656170206D656D6F72790000000070
:100910003A2048656170206D656D6F727920636F54
:10092000727275707465640001491820ABBEFEE7F1
:1009300026000200704770B505460C460A2000E00C
:100940006D1C00F04FF835B128780028F8D102E08E
:10095000641C00F047F814B120780028F8D1BDE8F5
:1009600070400A2000F03EB830B44FF0013C50F81F
:10097000042B51F8043BCCFA52F4D51A20D1FCB91F
:1009800050F8042B51F8043BCCFA52F4D51A17D185
:10099000B4B950F8042B51F8043BCCFA52F4D51AF0
:1009A0000ED16CB950F8042B51F8043BCCFA52F438
:1009B000D51A05D1002CDAD030BC4FF000007047BA
:1009C00029BAB1FA81F111F01801D1F12000844067
:1009D000F2D1CA40CB4012F0FF0213F0FF0330BC4B
:1009E000D01A704708B569468DF800000320ABBEE9
:1009F00008BD0000FEE70000016040F20111C18067
:100A0000002182800172C0E9031101757047000066
:100A100070B582B00446C07A1826002818BF01209D
:100A20004FEAC00505F1040008BF10268DF8040048
:100A3000012000F02DFA301D8DF8060001208DF800
:100A4000055000F025FA206821798DF807604FF4F1
:100A50007A7601AA0423009601F014FA052000F02A
:100A600017FA02B070BD00002DE9F04182B00446D3
:100A700008982160A07140F60640C2F61400C4F840
:100A800007000820E07232202271637100F000FA42
:100A9000E07A3825002808BF30252E1D0120382790
:100AA0008DF8046000F0F4F901208DF805508DF800
:100AB000066000F0EDF9206821794FF47A7801AAF8
:100AC00004238DF80750CDF8008001F0DBF9E07ABF
:100AD0003826002808BF3026351D01208DF8045027
:100AE00000F0D6F901208DF805608DF8065000F071
:100AF000CFF92068217901AA04238DF80760CDF889
:100B0000008001F0BFF9052000F0C2F9E07A282545
:100B1000002808BF302707F1040008BF20258DF802
:100B200004000120282600F0B3F9281D8DF80600E6
:100B300001208DF8057000F0ABF92068217901AA39
:100B400004238DF80750CDF8008001F09BF90520B3
:100B500000F09EF9E07A2825002818BF012008BF80
:100B60002025C700281D8DF80400012000F090F911
:100B7000381D8DF8060001208DF8055000F088F929
:100B80002068217901AA04238DF80770CDF8008030
:100B900001F078F9052000F07BF9E079E27A0101B3
:100BA00020F00F0501F10807002A14BF08350701DE
:100BB000281D8DF80400012000F06AF9381D8DF819
:100BC000060001208DF8055000F062F920682179B7
:100BD00001AA04238DF80770CDF8008001F052F9C6
:100BE000207AE27A010120F00F0501F10807002ABE
:100BF00014BF08350701281D8DF80400012000F0FE
:100C000047F9381D8DF8060001208DF8055000F0D9
:100C10003FF92068217901AA04238DF80770CDF8E7
:100C2000008001F02FF9607AE27A010120F00F05CF
:100C300001F10807002A14BF08350701281D8DF8A7
:100C40000400012000F024F9381D8DF80600012071
:100C50008DF8055000F01CF92068217901AA0423C1
:100C60008DF80770CDF8008001F00CF9A07AE27AD7
:100C7000010120F00F0501F10807002A14BF083513
:100C80000701281D8DF80400012000F001F9381D2E
:100C90008DF8060001208DF8055000F0F9F8206865
:100CA000217901AA04238DF80770CDF8008001F0A6
:100CB000E9F8E07A1827002818BF01204FEAC0059C
:100CC00005F1040008BF10278DF80400012000F092
:100CD000DFF8381D8DF8060001208DF8055000F072
:100CE000D7F82068217901AA04238DF80770CDF880
:100CF000008001F0C7F8E07A00280CBF2026012010
:100D0000C500281D8DF80400012000F0C1F8301D39
:100D10008DF8060001208DF8055000F0B9F8206824
:100D2000217901AA04238DF80760CDF8008001F035
:100D3000A9F802B0BDE8F08170B582B004464079F0
:100D4000A379884298BF411E934298BF5A1ED0B2E1
:100D5000032805D8DFE800F009020608403104E066
:100D6000002102E0143100E054310A01E37A01F07D
:100D7000700002F108056FF07702002B08BF6FF0DA
:100D80007F0202EB000606F1040008BF0D018DF89A
:100D90000400012000F07CF8281D8DF806000120D9
:100DA0008DF8056000F074F8206821794FF47A76A8
:100DB00001AA04238DF80750009601F063F802B0F1
:100DC00070BD00002DE9F04782B00A788AB38246F0
:100DD0004E1E4FF47A780DF1040900BF11019AF804
:100DE0000B3022F00F0001F10807002B14BF083070
:100DF0001701451C05308DF8040001207C1C00F013
:100E000047F8781D8DF8060001208DF8055000F098
:100E10003FF8DAF800009AF804104A4604238DF8E7
:100E20000740CDF8008001F02DF8B2780136002A95
:100E3000D4D102B0BDE8F0877047000072B600BFA1
:100E4000FEE7000080B540F21023C2F200035A7A98
:100E5000002A1CBF012080BD93F809C086460020EF
:100E600003F80C005A7A03EB8202C2F804E05A7AC3
:100E70001A44107293F809C00CF101025A720CF175
:100E800030020A7042F63A72A1F80120C87080BDA3
:100E9000B0B5044600F0F8F8054640F20000C2F292
:100EA00000000078611C18BF044400BF00F0ECF89B
:100EB000401BA042FAD3B0BD2DE9F04F82B000F143
:100EC0003E4241F6004502F1FF77C4F202050822D6
:100ED00043F6004E4FEAB726A84208BF0722C4F2E5
:100EE000010E072E38BF4FEAB72201250026002742
:100EF0004FF00008009208E008F101080437B8F14B
:100F0000100F06F1020600F0A7800C6805FA08F938
:100F100014EA090FF0D0D1F804B003220BF0030C4F
:100F2000ACF10104B240012C6FEA020A10D88268C9
:100F3000CC6802EA0A02B440224382604268CBF3E2
:100F4000001422EA090204FA08F42243426005E090
:100F5000BCF1030F02D14FF0030C20E0C2688C6893
:100F600002EA0A02B4402243BCF1020FC26016D169
:100F70006FF0030202EA58020244D2F820C007F0E0
:100F80001C050F230C69AB402CEA030304FA05F59A
:100F90002B431362D1F804B001250BF0030C026857
:100FA0000CFA06F302EA0A021A431BF4403F0260FD
:100FB000A2D0002243F644030192C4F202031A684D
:100FC0004FF6084C42F480421A601A68CFF6FF7C54
:100FD00002F480420192019A28F00302724452F80E
:100FE0000C3007F00C050F24AC40A343009C04FA1E
:100FF00005F52B4342F80C30DEF808204B6842EA36
:10100000090543F60C4CDC0258BF22EA0905CEF86C
:101010000850C4F2010CDCF800209C0242EA0905E9
:1010200058BF22EA0905CCF80050DEF804209C03E2
:1010300042EA090558BF22EA0905CEF80450DEF855
:101040000020DB0342EA090558BF22EA0905CEF871
:101050000050012550E700BF02B0BDE8F08F00004E
:101060000069084018BF012070470000426902EA89
:101070000103914341EA034181617047002A08BF9F
:10108000090481617047000040F6D030C2F20000D0
:1010900000687047D0F8DC0306F09EBBD0F8DC0394
:1010A00006F0A6BB006807F079B90000006807F0F9
:1010B00079B90000C1EB011100EB810090F84C0000
:1010C00070470000C1EB011100EB8100806B70479D
:1010D00010B5044690F8D403012804BF022010BDC7
:1010E0002068012284F8D42307F06CF9002084F8EA
:1010F000D40310BD2DE9F04F83B0044690F8D4031B
:10110000012803D1022003B0BDE8F08F012084F84C
:10111000D403C1EB01100F4604EB800102F07F0005
:101120008875D009DDE90CBAC87520680E9D4FF0AE
:1011300000099846164681F819900B754F7581F88D
:1011400026A0A1F81A90A1F8249007F02BF9BAF183
:10115000010F0AD1BC2D294628BFBC21002818BF89
:101160002946BBF1010F08BF0D46C7EB071004EB82
:101170008001206881F818B00D8539463246434613
:10118000CDE900BA029507F0C7F984F8D49303B00B
:10119000BDE8F08F704700002DE9F0438C46DDE993
:1011A0000775CCEB0C16DDE9099100EB860E8EF885
:1011B0001720002F8EF8263006BF8EF81910032650
:1011C0000226714601F82A6F032B4FF0000818D849
:1011D0000026DFE803F00715030300BF52B19EF8B5
:1011E0003C2009E0012F0CD1E2B19EF81A20012A1F
:1011F00007D1F4E79EF83D20002A18BF01225600CF
:101200000E70036882790EF11401CEF82C50AEF8FE
:101210004C80CEE90D9818468EF815C0BDE8F04315
:1012200007F010BAB9F1000F0EF13D0204D01278A8
:1012300022B90026E4E700BF012313700226DFE78E
:101240002DE9F04F85B0D0F800800446404607F005
:10125000B5F8012840F07984206807F005FD0028E2
:1012600000F07384206807F0FFFC014620688902C3
:1012700044BF4FF40011416107F0F6FC01462068BD
:10128000C90244BF4FF48011416107F0EDFC0146F3
:101290002068490144BF4FF08061416107F0E4FCE0
:1012A00001462068890744BF0221416107F0DCFC48
:1012B000800018D520684FF000514161D8F84004F3
:1012C000C00710D14046102107F008F8404606F04C
:1012D000A5FF607A022803D12068012107F09CFC59
:1012E0002046FFF7DBFE206807F0BEFCC0011CD5DE
:1012F0002568D5F840040490D5F84004039003987D
:1013000020F02E0003900498800700F1C583049814
:10131000000700F1CF830498800603D5039840F0BE
:10132000200003900398C5F84004206807F09CFC57
:10133000000701D4206805E0204600F0BBFC2068CF
:101340000821416107F090FC01462068890140F1C5
:10135000778307F073F961790290002900F06C83BC
:101360004FF4A0654FF000094FF0000BCDF804805A
:1013700013E000BFA8194FF400718160206800BF1E
:10138000514607F01FF860790BF1010B09F13C0998
:10139000834505F1200580F04F8302990BF00F0083
:1013A00021FA00F0C007EED058F8057026685FFA01
:1013B0008BFA3046514607F04FFC390400F0040028
:1013C00066D4002840F080802068514607F044FC35
:1013D000800600F187802068514607F03DFC8005BB
:1013E000C8D42068514607F037FCC00740F0AC80F5
:1013F0002068514607F030FC400600F1B5812068B6
:10140000514607F029FC000700F1DE8120685146B3
:1014100007F022FCC00600F1DF812068514607F08A
:101420001BFC000600F178822068514607F014FC8E
:10143000400500F185822068514607F00DFC8007C9
:10144000A1D5A9190220886004EB090090F84D206D
:10145000013A082A97D8DFE812F095020900A7029E
:10146000B302C502CB020B0009000B008BE700BFE3
:10147000426C02230132032A80F84D304264C0F0EE
:10148000BF8200210422416480F84C201AE200BF90
:1014900020BB2068514607F0DFFBC0054CD4206814
:1014A000514607F0D9FB00074AD42068514607F09F
:1014B000D3FB400568D42068514607F0CDFB0006F9
:1014C00070D50721802063E0A8190421816020687D
:1014D00004EB0901072281F84D2051E70721042080
:1014E00056E000BFA8192021816004EB0906707E38
:1014F000012809D100207076206840F20231A6F858
:101500004C10514606F05EFFB07E01287FF43BAFE1
:10151000F07E00287FF437AF96F8260003210128DB
:101520001CBF0120F076206886F84D10514606F069
:1015300049FF0020706426E708214FF4807027E0FF
:101540000621082024E000BF04EB090820680021E0
:10155000C8F84410514607F07FFB400605D501202E
:1015600088F81900A8194021816098F81B0000280C
:1015700000F01E81002088F81B00A819416821F4A2
:101580008031416015E100BF09214FF4806000BF48
:10159000AA19906004EB0902206882F84D105146A8
:1015A00006F010FF2068514607F056FB0146206800
:1015B000890537D4514607F04FFBC0073AD1206860
:1015C000514607F049FB800600F17A8020685146B9
:1015D00007F042FB800700F19B802068514607F02E
:1015E0003BFB400600F1D4802068514607F034FBF5
:1015F000C0067FF5C8AE04EB090898F8260000285D
:1016000018BF022840F06481A07900284FF0000044
:10161000C8F8440000F0618198F81B00012800F030
:101620005C8161E1514606F0CDFEA8194FF40071CE
:101630008160A8E605EB06082020C8F8080004EB46
:101640000906F07E012807D10020F076D8F80400C2
:1016500020F48030C8F80400A07930B1306BD8F89D
:1016600010106FF3DF41401AB0630121002086F8AB
:101670004D107064C8F8081096F8260003280AD8A0
:10168000DFE800F0022C022C2068514606F09AFE9A
:101690001020C8F80800A079012830D1B06B318D36
:1016A000DDF8048008440138B0FBF1F0C0073FF4D6
:1016B0006AAE96F83C0080F0010086F83C0062E6D5
:1016C000A8192021816004EB0901887E01287FF49C
:1016D0005AAE0120C87620680322FCE6D8F8000044
:1016E000514640F00050C8F80000012086F84C0038
:1016F00020460122FFF74EFDA0790128CED096F8B2
:101700003C00DDF8048080F0010086F83C003AE6F9
:10171000A9190220886004EB090090F84D20013AD5
:10172000082A00F2CD80DFE802F06D05738F95AFD7
:1017300007B5070027E600BF426C02230132032AE7
:1017400080F84D304264C0F0AF80827E012A4FF0B5
:101750000002426440F0A4800022A0F81B204A68E6
:1017600022F480324A609BE004EB0901887E00226B
:1017700000284FF0050081F84D0004BF0120487695
:1017800020684A64514606F01DFEA81940214FE723
:10179000A8194021816004EB0900817E00294FF0E7
:1017A000050180F84D1004BF002141642068E7E581
:1017B000A81901218160206888F84D10514606F073
:1017C00001FEDDF80480DEE5A819082181602068AB
:1017D00004EB090106227EE604EB0900417E0022AB
:1017E00000294FF00401426480F84D1004D1017EBD
:1017F000002904BF012141762068514606F0E2FD30
:10180000A81986E0022180F84D10012149E000BFAF
:10181000C27E0223012A80F84D3051D180F84C302D
:101820004A6842F480324A60CA6842F04002CA60A4
:10183000CA6822F02002CA6090F8262042F0020214
:10184000022A39D03CE000BF90F82620022380F81D
:101850004D302BE0C27E0223012A80F84D302FD17B
:1018600090F82620032A21D1826C0132032A826457
:10187000C0F08480426C00238364022AC3769CBF3C
:10188000012202776BE700BF022180F84D1005218D
:1018900007E000BF416C0222013180F84D20416415
:1018A000042180F84C100BE090F8262042F0020250
:1018B000022A80F84C3003D10A6863F39F720A60F1
:1018C00090F84C2020465146FFF764FC5BE500BFD2
:1018D000032809D10020C8F844002068042188F8B2
:1018E0004D10514606F06EFD98F81B0001280DD1F1
:1018F000002088F81B00A819416821F4803141605C
:10190000C16841F02001C16001E000BFA819DDF805
:10191000048010218CE600BFA079F8B104EB090027
:10192000416C01310329416422D300214164042127
:1019300080F84C10204651460422FFF72BFC1AE099
:1019400004EB09012068092281F84D20514606F078
:1019500039FDA8194FF480616AE600BF04EB090164
:101960002068072281F84D20514606F02BFD02E049
:10197000022180F84C10A819802159E680F84C30DB
:101980009EE700BF022180F84D1090F8261001223A
:1019900001F0FE01022980F84C2093D1A1790129A0
:1019A00036D000293DD042E0C17E01294FF002012E
:1019B00080F84D107FF484AF022280F84C2081E73C
:1019C000C37E0222012B80F84D2080F84C207FF44A
:1019D00079AF0022C2764868022220F48030486045
:1019E00070E700BF022280F84D2080F84C2069E7A4
:1019F0000221052280F84D1080F84C2062E700BFDC
:101A0000022280F84C20086862F39F70086059E752
:101A1000416B61B1028D11440139B1FBF2F1C9078B
:101A200005D090F83D1081F0010180F83D10DDF8FF
:101A30000480012246E700BF20684FF00071416139
:101A400007F012F9C00640F180802568A86920F0EF
:101A50001000A861286A00F4F011B1F5802F6FD151
:101A6000C0F30A16002E6BD000F00F08C8EB081068
:101A700004EB80094F4657F82C1F002960D0CA4656
:101A80005AF8380F5AF8042C3044904232D90420C6
:101A900089F84C0054E000BF0498C00702D02046EB
:101AA000FFF7F8FA039840F002000390049800074B
:101AB0007FF531AC039840F008000390049840078C
:101AC00008D4204600F0EAF8049880063FF526ACDA
:101AD000FFF728BC607A02283AD1049800F4C021AC
:101AE0002068B1F5802F14BF0121022107F094F87E
:101AF00035E000BF2846324607F0BAF83868DAF811
:101B00000010304438608819CAF8000005EB48100E
:101B1000D0F81015B9F82820964211D10022C1F64C
:101B2000F87211400CD000F5A0600168022262F347
:101B30009F71016099F83C0080F0010089F83C0039
:101B40002068816941F01001816105B0BDE8F08F26
:101B5000E079012804BF4EF66020C5F80404204651
:101B600000F0A0F8049880063FF5D8ABFFF7DABB89
:101B700070B582B020B30446056890F8D50328B943
:101B8000002084F8D403204600F03CF80320B5F18F
:101B9000A04F84F8D50304BF0020A071206806F090
:101BA00007FB94E80F00267C009606F0F7F958B181
:101BB0000125022684F8D563284602B070BD00BF17
:101BC0000125284602B070BD20680121012507F0DB
:101BD000C5F84FF0020628B184F8D563284602B054
:101BE00070BD00BF94E80F00257C009506F0A6FEAE
:101BF000054600280CBF0126012584F8D563284638
:101C000002B070BDF0B587B000680026B0F1A04FFB
:101C10000696059602D007B0F0BD00BF43F6300728
:101C20000196C4F202073868002440F001003860D1
:101C30003868C4F2020400F00100019001984FF4EA
:101C4000007002ADCDE90206204629460496FFF752
:101C500033F94FF4E05002900220CDE903060A2048
:101C60000690204629460596FFF726F97868002158
:101C700040F08000786001967869002240F480404E
:101C80007861786900F4804001900198432000F069
:101C9000E7FB432000F0D0FB07B0F0BDD0F8DC0339
:101CA00005F034BED0F8DC0305F034BE006807F060
:101CB00035B80000D0F8DC0305F0D2BD10B50446FD
:101CC00090F8D403012804BF022010BD0121206830
:101CD00084F8D413012106F073FA206806F096FA0E
:101CE000002084F8D40310BD10B5044690F8D40346
:101CF000012804BF022010BD2068012184F8D413FC
:101D000007F0E0F9002084F8D40310BD70B5B8B333
:101D1000044690F83D0028B9002084F83C00204695
:101D200000F0C8FA242084F83D002068016821F002
:101D300001010160016841F400410160016821F482
:101D40000041016000F078FC48F28041C0F21E01C1
:101D500040F60013D4F804E088424FF00001C0F2CE
:101D60003D0348F2A16C4FF0000238BF01219842B8
:101D7000C0F2010C38BF0122E64538BF0A460AB15D
:101D8000012070BD4DF68361C4F21B31A0FB01122E
:101D90002168950C4B684FF4967623F03F0343EA95
:101DA0009243754344F6D3564B60C1F262060B6A08
:101DB000A5FB0656B50923F03F03E64538BF950C51
:101DC0006A1C1A430A62CA6948F2A0664CF6FF739D
:101DD000C0F20106B64522EA03020BD801384FEAE9
:101DE0004E03B0FBF3F001306FF31F30042898BFAF
:101DF00004201EE0A368013863B119230EFB03F32E
:101E0000B0FBF3F001306FF31F3078B100F5804084
:101E100008E000BF0EEB4E03B0FBF3F001306FF3B0
:101E20001F3028B100F5004003E000BF012000E0B2
:101E300001201043C8610868D4E9072320F0C000DE
:101E4000104318430860886848F2FF3204F10C061A
:101E500090434CCE18431043A5698860C86820F0B1
:101E6000FF0030432843C860086840F00100086064
:101E700000202021206484F83D10206384F83E0077
:101E800070BD00002DE9F04383B01E461746894619
:101E90000446FFF7F9F894F83D10202920D10546B3
:101EA000206800BF8169890716D5FFF7EDF8411B4F
:101EB00020681A29F6D381698907F3D500202021EB
:101EC000206384F83D1084F83E00216C41F020012D
:101ED000216484F83C0003E094F83C10012903D10C
:101EE000022003B0BDE8F083012184F83C100168B2
:101EF000C90703D1016841F001010160016840F2A6
:101F0000020821F400610160212184F83D101021B4
:101F100084F83E100021216467626685618DC0F2FD
:101F200001082185A8F10211E162E16A0A9E11F51A
:101F3000803F18BF01291DD1016841F48071016003
:101F400020464FF0011100223346009501F04AFF70
:101F500050B120680068C00544BF4FF40070206491
:101F6000012003B0BDE8F0832069B0F5804F07D1B0
:101F7000FE2015E00829DFD0216B1229DCD0DFE735
:101F8000062000EAD9102168F030086108F1060146
:101F9000204632462B4602F00FF80028E0D1FF2001
:101FA000216800EA090008612046414632462B4676
:101FB00002F002F80028D3D1002002902068416985
:101FC000029180690290029806E000BF20463146E7
:101FD0002A4601F0A7FE18BB208D68B32046314683
:101FE0002A4602F0A1F8D8B9606A2168024612F8C0
:101FF000013B0B616262628D013A6285228D531E44
:1020000023854F697F07E1D51B04DFD04378023079
:102010000B616062608D01386085901E2085D5E778
:10202000206C04289CD12068016841F40071016093
:10203000012003B0BDE8F0832068016841F400711D
:102040000160202084F83D00002084F83E0084F8E0
:102050003C0003B0BDE8F0832DE9F04784B0994619
:1020600016460F460446FFF70FF894F83D10202956
:1020700027D10546206800BF816989071CD5FFF775
:1020800003F8411B20681A29F6D381698907F3D523
:1020900000202021206384F83D1084F83E00206C4D
:1020A00004F13C0A40F020002064022000218AF85C
:1020B000001004B0BDE8F087A2461AF83C1F0129C1
:1020C00004D1022004B0BDE8F08700BF01228AF8E5
:1020D00000200368DDE90D180C9ADB0703D10368C3
:1020E00043F001030360036823F4006303602220CC
:1020F00084F83D00402084F83E00002020646262A5
:102100006185608D394620850020CFF6FF70E06242
:10211000204632464B46CDF80080019501F076FD11
:1021200020B1012004B0BDE8F08700BF208DA8B128
:1021300002282BD0012835D121680A6822F4806258
:102140000A60002203924A6903928A690392039A01
:102150000A6842F400720A602CE000BF002003907D
:10216000206841690391816903910399016841F4F1
:1021700000710160202084F83D00002084F83E00BA
:1021800000218AF8001004B0BDE8F08721680A68D1
:1021900022F480620A600A6842F400620A60002247
:1021A000039202E00021039121684A690392896940
:1021B000039103990427C0F201070CE0106908702D
:1021C000606A218D01306062481E2085618D013971
:1021D00061850104CED080B203280FD802284AD0EE
:1021E00001282DD1204641462A4601F055FF0028FE
:1021F00097D12068616A0069E1E700BF2046414647
:102200002A4601F049FF00287FF48BAF2068616AFD
:1022100000690870606A2268411C208D6162013883
:102220002085638D013B638553695B07D1D580B2FF
:102230000328C3D1106820F480601060BEE700BF9F
:102240002046394600224346009501F0CBFD002888
:102250007FF467AF2068616A026822F480620260DE
:1022600000690870606A218D01306062481E208517
:10227000608D01386085204639460022434600952E
:1022800001F0B0FD00287FF44CAF2068616A02685D
:1022900042F40072026000690870606A2268411CA2
:1022A0006162218D01392185618D01396185116955
:1022B000417085E72DE9F04786B0006845F6004794
:1022C000C4F20007B84203D006B0BDE8F08700BFF3
:1022D000002643F630050196C4F20205286801ACD9
:1022E00040F00400286028684FF0120800F0040055
:1022F00001900198019628684FF0030940F0010011
:10230000286028684FF0040A00F00100019001984D
:102310004FF40070019007F5D6302146CDE90286D2
:10232000CDF81090CDF814A0FEF7C6FD4FF48070E4
:10233000CDE9010803A880E8400607F5D230214620
:10234000FEF7BAFD0096286940F40000286128696C
:1023500000F400000090009806B0BDE8F08700008F
:1023600040F2000040F6D031C2F20000C2F200019B
:1023700000780A68104408607047000080B543F692
:102380000040C4F20200016841F40071016001687C
:1023900041F480610160016841F4807101600320B3
:1023A00000F08AF8002000F005F800F027F800207F
:1023B00080BD000070B540F20006C2F2000640F297
:1023C0002C013278C2F200014FF47A730968B3FB32
:1023D000F2F20446B1FBF2F1084600F0F3FE0F2CD6
:1023E0004FF0010508D838B94FF0FF3021460022E0
:1023F000002500F035F87460284670BD82B00020DA
:1024000043F640010190C4F202014A6842F480425E
:102410004A604A6802F480420192019A009008687A
:1024200040F080500860086800F0805000900098EC
:10243000072002B000F040B8002848BF7047C1B282
:1024400000F01F00012202FA00F04EF20012CEF25C
:10245000000242EAD10121F0030108607047000048
:1024600010B54EF60C5CCEF2000CDCF80030C3F375
:10247000022E8EF00704042C28BF0424BEF10303AF
:102480004FF0FF3E0EFA04F438BF0023A1439940F9
:102490000EFA03F39A43114300F00F0200F1604378
:1024A0000901043A03F564436244002848BF02F17D
:1024B0000C03197010BD00004EF60C51CEF2000155
:1024C0000A684FF6FF031A4060F30A2242F0806068
:1024D00040F0FD70086070472DE9F041002800F0E1
:1024E0008B8043F60808C4F202080446D8F8F803C3
:1024F0000D4600F00700884207D288F8F853D8F854
:10250000F80300F00700A84276D12068810717D5AC
:10251000410705D5D8F8001041F4E051C8F8001083
:10252000010705D5D8F8001041F46041C8F8001043
:10253000D8F80010A26821F0F0011143C8F800108B
:10254000C0073FD1D8F8F80300F00700A84207D928
:1025500088F8F853D8F8F80300F00700A8424BD1E8
:102560002068410707D5D8F80010E26821F4E0514F
:102570001143C8F80010000708D5D8F800002169F9
:1025800020F4604040EAC100C8F8000000F07CF888
:10259000D8F800104AF2DA52C1F30311C0F6000273
:1025A000515C40F22C0220FA01F140F20400C2F228
:1025B00000000068C2F200021160FFF7FBFE00207D
:1025C000BDE8F0816068811E022907D258F8081C16
:1025D00089015CBF0120BDE8F08111E0012807D12D
:1025E00058F8081C89035CBF0120BDE8F08107E0B2
:1025F00058F8081C890703D40120BDE8F08100BF0A
:10260000D8F8001021F003010843C8F80000FEF7D5
:102610003BFD064641F28837D8F80000616800F0BB
:102620000C00B0EB810F8DD0FEF72EFD801BB84261
:10263000F2D90320BDE8F08140F22C0043F60801F6
:10264000C2F20000C4F20201006809684AF2EA52CC
:10265000C1F38221C0F60002515CC84070470000FF
:1026600040F22C0043F60801C2F20000C4F202015D
:10267000006809684AF2EA52C1F34231C0F600022A
:10268000515CC8407047000010B543F60404C4F222
:102690000204606800F00C0142F200400829C0F218
:1026A000F40007D0042918BF10BD41F20020C0F289
:1026B0007A0010BD216801F03F02216823684902B9
:1026C000C3F3881106D4A1FB00010023FDF713FE1C
:1026D00007E000BF41F20020C0F27A004843B0FB9F
:1026E000F2F021680222C1F3014102EB4101B0FB8B
:1026F000F1F010BD2DE9F04182B0002868D0044609
:10270000007843F60006C007C4F202060BD0B0689A
:1027100000F00C00042840F09F803068800302D550
:102720006068002854D0207880071AD5B06810F06F
:102730000C0F09D0B06800F00C00082840F0A6800B
:102740007068400200F1A2803068800702D5E0681E
:1027500001283DD13068216920F0F80040EAC1002D
:1027600030602078000737D4207840074CD4A56922
:1027700055B3B06800F00C00082840F0BB80012D74
:1027800026D07068E16900F480028A4220D1216A73
:1027900000F03F028A421BD147F6C071626A0140D5
:1027A000B1EB821F14D1A16A4FF6FF73C90399439D
:1027B00000F44032A1F580318A4209D1E16A00F08B
:1027C0007060B0EB016F03D1002002B0BDE8F08172
:1027D000012002B0BDE8F0816069002840F20000ED
:1027E000C4F2472076D00121C0F8801EFEF74CFCD1
:1027F000054600BF706F8007B6D4FEF745FC401B4E
:102800000228F7D9DDE000BF306C10F080580AD103
:1028100000200190306C40F080503064306C00F04B
:1028200080500190019847F20007C4F20007386811
:10283000C00541D4386840F480703860FEF724FC4D
:10284000054600BF3868C00536D4FEF71DFC401BA6
:102850000228F7D9B5E000BFB06800F00C000828E6
:1028600003D1706840023FF558AF6068B0F5803F13
:1028700007D0B0F5A02F40F08D80306840F4802064
:102880003060306840F4803030608DE0E0680028CF
:1028900052D00020C4F2472001210160FEF7F4FB72
:1028A000054600BF306880073FF554AFFEF7ECFBEC
:1028B000401B0228F6D984E0A068012805D005282D
:1028C0004ED1306F40F004003067306F40F00100AF
:1028D00030674FE00021C0F8801EFEF7D5FB0546AB
:1028E000706F80077FF540AFFEF7CEFB401B0228DC
:1028F000F6D966E00027C4F2472700203866FEF7C5
:10290000C3FB022D05460BD1306880015ED5FEF772
:10291000BBFB401B02284FF00300F5D955E700BF71
:10292000306880017FF550AFFEF7AEFB401B0228F8
:102930004FF00300F4D948E70020C4F247200021FB
:102940000160FEF7A1FB0546306880077FF509AFFF
:10295000FEF79AFB401B02284FF00300F4D934E73E
:10296000316F002821F001013167316F21F004013E
:1029700031674DD0FEF788FB054641F2883700BF2E
:10298000306F800756D4FEF77FFB401BB842F7D963
:1029900017E000BF3168002821F4803131603168D0
:1029A00021F4802131604FD0FEF76EFB054600BF59
:1029B000306880033FF5B7AEFEF766FB401B642826
:1029C000F6D9032002B0BDE8F08100BF04F11C0578
:1029D0002FCD084340EA8210D9034FF6FF7291438E
:1029E000A1F5803140EA0560084370600120386637
:1029F000FEF74AFB044600BF306880013FF5E4AEB5
:102A0000FEF742FB001B02284FF00300F4D9DCE67E
:102A1000FEF73AFB054641F2883700BF306F80076A
:102A200008D5FEF731FB401BB8424FF00300F5D943
:102A3000CBE600BFB8F1000F7FF499AE306C20F008
:102A40008050306493E600BFFEF71EFB054600BFD2
:102A5000306880037FF567AEFEF716FB401B6428E5
:102A60004FF00300F4D9B0E690F851007047000031
:102A700070B538B10446406A30B10020206104F1DD
:102A8000140007E0012070BD6068B0F5827F03D0BC
:102A900004F11C00002101600026A66294F8510098
:102AA00020B9204684F8506000F03CF8022084F8F9
:102AB000510094E80F0001F48271056802F40442A9
:102AC00025F040050560114403F4006223691144B8
:102AD00003F002026369114403F00102A369E5698E
:102AE000114403F40072114405F03802256A1144C0
:102AF00005F08002A56A114305F4005211430160FC
:102B0000626A042101EA134102F01002114441609B
:102B1000C16921F40061C1610120666584F851003A
:102B2000304670BD2DE9F04385B0006843F60005DE
:102B3000C4F20005A84203D005B0BDE8F08300BF91
:102B4000002643F630000096C4F2020001696C468C
:102B500041F48041016101694FF0020801F48041B4
:102B600000910099009601684FF0030941F00401BB
:102B700001600168052701F00401009100990096A9
:102B8000016841F0020101600068214600F0020086
:102B9000009000980420009005F5E830CDE901860A
:102BA000CDF80C900497FEF787F94FF42040CDE95B
:102BB000000805F5E6302146CDE902690497FEF7E5
:102BC0007BF905B0BDE8F0832DE9F04184B00446FF
:102BD00090F85000012803D1022004B0BDE8F08134
:102BE00001201D4616460F4684F85000FEF74CFAA9
:102BF00094F8511001290DD18046002F4FF00100AB
:102C000018BF002E0ED1002184F8501004B0BDE88A
:102C1000F08100BF0220002184F8501004B0BDE80C
:102C2000F08100BF0320002184F851006165276313
:102C3000A686E686A163A187E187A0682164B0F536
:102C4000004F2068616407D1016821F040010160F4
:102C5000016841F4804101600168490603D40168BC
:102C600041F0400101606168731EE268B1FA81F1D0
:102C7000B3FA83F349095B09B2F5006F41EA030136
:102C80003CD131B137F8021BC1602763E08E0138B7
:102C9000E086E08E00286BD0681C0CD11DE000BFE0
:102CA000216B31F8022BC2602163E08E0138E0868F
:102CB000E08E00285CD0206881688907F0D4FEF798
:102CC000E3F9A0EB0800A842F2D30320BFE000BF65
:102CD000FEF7DAF9E08E00284AD02068816889077B
:102CE000F6D5216B31F8022BC2602163E08E0138EA
:102CF000E086E08E0028F0D13AE000BF39B13978A3
:102D00000173206B01302063E08E0138E086E08E95
:102D100070B3681C0BD11BE0216B09780173206B29
:102D200001302063E08E0138E086E08E00B3206839
:102D300081688907F0D4FEF7A7F9A0EB0800A84244
:102D4000F3D3032083E000BFFEF79EF9E08E78B155
:102D5000206881688907F7D5216B09780173206B9A
:102D600001302063E08E0138E086E08E0028EFD14C
:102D70002046022101222B46CDF8008003F04CFCB6
:102D8000D0B1606D40F02000606520206065A068D3
:102D900038B9002002902068C168029180680290D2
:102DA0000298606D002851D00120002184F8501055
:102DB00004B0BDE8F08100BF40F22C00C2F2000078
:102DC000006849F68171C1F25E61A0FB0101480D06
:102DD0004FF47A71484303906068B0F5827F0BD15D
:102DE0002046802100222B46CDF8008003F014FC01
:102DF0000028C6D1CBE700BF03980028C7D00398AE
:102E000001380390206880680006C0D50398002828
:102E1000BDD0039801380390206880680006B6D5BD
:102E200003980028B3D00398013803902068806885
:102E30000006ACD503980028A9D003980138039068
:102E4000206880680006D7D4A1E700BF00200121D8
:102E500084F85110002184F8501004B0BDE8F081CE
:102E60002DE9F04383B0044690F85000012803D1C7
:102E7000022003B0BDE8F08301201E4615460F4630
:102E800084F85000FEF700F994F8511081460129AA
:102E900012D06068B0F5827F40F0A480A06800285E
:102EA0004FF0020008BF042906D0002184F850101A
:102EB00003B0BDE8F08300BF002F4FF0010018BF42
:102EC000002DF2D0002EF0D094F8510000210428FB
:102ED0001CBF052084F851006165A563E687A687BD
:102EE0002763E6862068A686216461640168490636
:102EF00003D4016841F0400101606168731EE2681B
:102F0000B1FA81F1B3FA83F3DDF8288049095B094E
:102F1000B2F5006F41EA03016CD131B137F8021B01
:102F2000C1602763E08E0138E086012518F10100B9
:102F300031D101E0FEF7A8F8E08E18B9E08F002843
:102F400000F0C0802068816889070CD5E18E51B1FE
:102F5000012D08D1216B002531F8022BC2602163BD
:102F6000E18E0139E1868168C907E3D0E18F00294C
:102F7000E0D0C068A16B012521F8020BA163E08FAE
:102F80000138E087D6E700BFFEF77EF8A0EB090026
:102F9000404580F0AD80E08E18B9E08F002800F049
:102FA00091802068816889070CD5E18E51B1012D8F
:102FB00008D1216B002531F8022BC2602163E18E1C
:102FC0000139E1868168C907DED0E18F0029DBD0B5
:102FD000C068A16B012521F8020BA163E08F0138C5
:102FE000E087D1E70220002184F8501003B0BDE84B
:102FF000F08300BF39B139780173206B0130206351
:10300000E08E0138E086012518F1010032D101E09F
:10301000FEF73AF8E08E10B9E08F002852D0206811
:10302000816889070ED5E18E61B1012D0AD1216B2E
:10303000002509780173216B206801312163E18E3D
:103040000139E1868168C907E2D0E18F0029DFD02C
:10305000C068A16B01250870A06B0130A063E08FF0
:103060000138E087D4E700BFFEF70EF8A0EB0900B7
:1030700040453DD2E08E08B9E08F18B320688168E2
:1030800089070ED5E18E61B1012D0AD1216B002592
:1030900009780173216B206801312163E18E0139C8
:1030A000E1868168C907DFD0E18F0029DCD0C068E4
:1030B000A16B01250870A06B0130A063E08F01387F
:1030C000E087D1E72046022101224346CDF8009057
:1030D00003F0A2FAB0B1606D40F0200060652020DE
:1030E00060650120002184F8501003B0BDE8F08332
:1030F000012084F851000320002184F8501003B00F
:10310000BDE8F08340F22C00C2F20000006849F6EE
:103110008171C1F25E61A0FB0101480D4FF47A712B
:10312000484302906068B0F5827F21D1204680211B
:1031300000224346CDF8009003F06EFA0028CAD171
:10314000A06838B9002001902068C16801918068AA
:1031500001900198606D00284FF0010004BF84F8D1
:1031600051000020002184F8501003B0BDE8F08326
:1031700002980028E4D00298013802902068806804
:103180000006DDD502980028DAD0029801380290B6
:10319000206880680006D3D502980028D0D0029815
:1031A00001380290206880680006C9D5029800287E
:1031B000C6D0029801380290206880680006D7D4F3
:1031C000BEE70000411E0020B0EB116F1CBF0120C4
:1031D00070474EF21002CEF2000251604EF62351BB
:1031E000CEF20001F0230B70072190601160704750
:1031F000704700007047000010B590F83C20012A8D
:103200004FF0020251D080F83D200268D2F804E06D
:10321000D2F808C00C682EF07003234341F2FF740B
:10322000C4F20004A24253600EDC40F2FF73C4F209
:1032300000039A4216DCB2F1804F2BD040F20043DB
:10324000C4F2000324E000BF40F2FF33C4F20103E4
:103250009A4213DC41F60003C4F200039A4219D0EB
:10326000002313E040F60003C4F200039A4211D099
:1032700040F60043C4F200030AE000BF44F200033A
:10328000C4F201039A4205D040F20043C4F20103A4
:103290009A4204D149682CF08003194391600121BE
:1032A000002280F83D1080F83C20104610BD000040
:1032B000002804BF0120704710B5044690F83D0077
:1032C00028B9002084F83C00204600F01FF80220B6
:1032D00084F83D002068211D03F0B2FA012084F833
:1032E000460084F83E0084F83F0084F8400084F8EB
:1032F000410084F8420084F8430084F8440084F8D4
:10330000450084F83D00002010BD000080B582B06B
:10331000006840F20041C4F2000188421CBF02B0C4
:1033200080BD0020019043F64000C4F20200016815
:10333000002241F0020101600068002100F002005B
:10334000019001981D20FFF78BF81D2002B0BDE809
:103350008040FFF771B8000090F83D1001291CBFB4
:1033600001207047022180F83D10006841F2FF7291
:10337000C168C4F20002904241F00101C1600DDC5D
:1033800040F2FF71C4F20001884215DCB0F1804FB9
:103390002AD040F20041C4F2000123E040F2FF31A4
:1033A000C4F20101884213DC41F60001C4F20001BD
:1033B000884219D0002113E040F60001C4F2000158
:1033C000884211D040F60041C4F200010AE000BF7B
:1033D00044F20001C4F20101884205D040F20041EC
:1033E000C4F20101884206D1816801F00701062973
:1033F00004BF00207047016841F001010160002016
:103400007047000080B590F83C20012A4FF002027E
:1034100000F0C28080F83D20D0F800C04FF67772EF
:10342000DCF8083023EA0202CCF808200B684F2BA6
:1034300028DC1F2B44DD202B45D0302B43D0402BE4
:1034400040F0AC80D1F804E0C968DCF82030DCF84A
:10345000202022F00102CCF82020DCF8182022F0F5
:10346000F00242EA011123F00A0242EA0E02CCF80D
:103470001810CCF82020DCF8081041F0470121F0AA
:10348000300180E06F2B27DDB3F5005F48D0B3F546
:10349000805F7AD0702B40F08180D1E901E3C96868
:1034A000DCF8082043EA0E0322F47F4243EA0121BC
:1034B0001143CCF80810DCF8081041F0770162E005
:1034C0000BB1102B6AD1DCF8081021F07001194300
:1034D00041F0070157E000BF502B35D0602B5DD184
:1034E000D1F804E0C968DCF82030DCF8202022F0B4
:1034F0001002CCF82020DCF8182022F4704242EAB6
:10350000013123F0A00242EA0E12CCF81810CCF8D8
:103510002020DCF8081041F0670121F0100132E0B2
:10352000D1E901E3C968DCF8082043EA0E0322F47C
:103530007F4243EA01211143CCF80810DCF808105F
:1035400041F480411FE000BFD1F804E0C968DCF815
:103550002030DCF8202022F00102CCF82020DCF81A
:10356000182022F0F00242EA011123F00A0242EA96
:103570000E02CCF81810CCF82020DCF8081041F02E
:10358000570121F02001CCF808100022012180F819
:103590003D10002180F83C10104680BD0122F5E767
:1035A0007047000070B504460068C5680669B10739
:1035B00016D515F0020113D06FF00201016101214F
:1035C00021778069800703D02046FFF7E9FF05E0F7
:1035D000204600F08FF8204600F08EF8002020777B
:1035E000700719D515F0040016D020686FF004019B
:1035F000016102212177806910F4407F04D02046C8
:10360000FFF7CEFF06E000BF204600F073F820462B
:1036100000F072F800202077300717D515F0080069
:1036200014D020686FF00801016104212177C0697E
:10363000800703D02046FFF7B3FF05E0204600F0E7
:1036400059F8204600F058F800202077F00619D5E8
:1036500015F0100016D020686FF0100101610821EC
:103660002177C06910F4407F04D02046FFF798FF0F
:1036700006E000BF204600F03DF8204600F03CF890
:1036800000202077F00718BF15F0010002D13006A6
:1036900009D412E020686FF001010161204600F0BA
:1036A0002DF8300609D515F0800006D020686FF09F
:1036B000800101612046FFF79BFD700609D515F0DA
:1036C000400006D020686FF040010161204600F004
:1036D0003BF8B00658BF70BD15F0200008D0216837
:1036E0006FF0200220460A61BDE87040FFF782BDFE
:1036F00070BD00007047000070470000B0B540F694
:103700008421C2F2000100680968884218BFB0BD78
:103710000020002500F0CEFF40F2D014C2F20004D9
:1037200060780F280CD860782044007C012803D1F1
:103730000120A07006F042FC607801306070B0BDDE
:103740006570A570B0BD000070470000002804BF80
:103750000120704710B5044690F8410028B90020B8
:1037600084F84000204600F021F8242084F841002D
:103770002068C16821F40051C160204603F006F9B9
:103780002068016921F490410161416921F02A0119
:103790004161C16841F40051C16000202021606492
:1037A00084F8411084F84210606310BD80B586B083
:1037B000006844F60002C4F2000200219042CDE904
:1037C0000411CDE90211019124D044F20041C4F268
:1037D0000001884249D1002043F630010090C4F234
:1037E00002010A6942F400320A610A6902F40032F5
:1037F0000092009A0090086840F001000860086894
:103800000C2100F00100009000980020C4F202009A
:103810001FE000BF43F630000091C4F202000269CD
:1038200042F480220261026902F480220092009A2E
:103830000091016841F00801016000684FF4407197
:1038400000F00800009000980020C4F2020000F58B
:103850004060019102210291002103910321049112
:103860000721059101A9FDF727FB06B080BD0000E7
:103870002DE9F04381B0044690F84200202825D17C
:10388000884600294FF0010000F0FA801746002A10
:1038900000F0F680002022211D46606484F842106A
:1038A0002063FDF7F1FBA785E785A1680746B1F521
:1038B000805F02D12069002854D046464FF00008AE
:1038C000E08D002852D005F101090FE0022001B07F
:1038D000BDE8F083406800266FF35F2028F8020BF4
:1038E000E08D0138E085E08D00283FD02068016838
:1038F000890617D4B9F1000F22D0002D00F0C48042
:10390000FDF7C2FBC01BA84200F2B6802068C16868
:10391000490744BF01685FEA017129D4016889063B
:10392000EED500BF002ED5D0A168B1F5805F15D0CF
:1039300009B9216991B1406800F07F000FE000BF34
:1039400001688906EED4016889065CBF01685FEAF8
:103950008161E7D401688906F2D5E3E7406806F89B
:10396000010BBDE70026E08D0028ACD1002084E0EB
:10397000002100910168009140680090009800BF0C
:10398000206850E8030F216820F4907041E803029A
:10399000BAB3206850E8030F216820F4907041E822
:1039A000030272B3206850E8030F216820F490707E
:1039B00041E803022AB3206850E8030F216820F48D
:1039C000907041E80302002ADAD11AE0206850E83A
:1039D000050F216820F0010041E80502DAB12068F6
:1039E00050E8050F216820F0010041E8050292B17E
:1039F000206850E8050F216820F0010041E8050229
:103A00004AB1206850E8050F216820F0010041E824
:103A10000502002ADAD1206B012824D1206850E861
:103A2000030F216820F0100041E80302DAB120689A
:103A300050E8030F216820F0100041E8030292B122
:103A4000206850E8030F216820F0100041E80302CD
:103A50004AB1206850E8030F216820F0100041E8C7
:103A60000302002ADAD1202084F842000020082135
:103A70002063616484F840000320202184F8421010
:103A800001B0BDE8F08300BFFDF7FEFAF4E70000E7
:103A90002DE9F041044690F8410020281CBF022087
:103AA000BDE8F0810D4600294FF0010000F0AA802A
:103AB0001646002A08BFBDE8F0810020606421207E
:103AC000984684F84100FDF7DFFAA684E684A168F1
:103AD0000646B1F5805F02D12069002862D02F46EA
:103AE0000025E08C002861D018F1010018D0B8F151
:103AF000000F37D1216808E017F8010B4860E08C0F
:103B00000138E084E08C002851D00868000673D5A5
:103B1000002FF1D135F8020B00276FF35F20EDE79E
:103B2000216802E00868000609D40868000606D487
:103B3000086800065CBF08685FEA0060F2D51FB144
:103B400017F8010B05E000BF35F8020B00276FF3F3
:103B50005F204860E08C0138E084E08C0028E4D1EC
:103B600025E000BF216800BF0868000608D4FDF703
:103B70008BFA801B404541D82168C868F4E700BF34
:103B800017B117F8010B04E035F8020B00276FF3AB
:103B90005F204860E08C0138E084E08C0028E3D1AD
:103BA00005E000BF0027E08C00289DD1216808684F
:103BB00040061FD4B8F1000F1ED018F101000FD13C
:103BC0000868400616D40868400613D40868400602
:103BD00010D4086840064FF00000F1D50FE000BF98
:103BE000FDF752FA801B404508D82068C16800687C
:103BF0004006F5D5002002E0FDF746FA032020211B
:103C000084F84110BDE8F081FEE700002DE9F0479F
:103C100082B0044600680E460168DDF828A041F431
:103C2000806101600168DDF82C9041F480711D46CF
:103C30001746016020464FF0011100225346CDF88F
:103C4000009000F0CFF858B120680068C00544BF6C
:103C50004FF400702064032002B0BDE8F08700BF7D
:103C600040F202082068C0F2010806F0FE06066174
:103C70002046414652464B4600F09EF920B10120B5
:103C800002B0BDE8F08700BF0020019020684A46DE
:103C9000416901918069514601900198204600F0E8
:103CA00043FA98B92068012D08D0390A01612046ED
:103CB00051464A4600F038FA40B92068F9B201612D
:103CC000204651464A4600F02FFA58B1206C04288D
:103CD000D5D12068016841F400710160012002B073
:103CE000BDE8F087206800220168534641F48071E6
:103CF000016020464FF00111CDF8009000F072F8FD
:103D00000028A1D1206846F001010161204641460A
:103D100052464B4600F050F9002818BF012002B06F
:103D2000BDE8F08770B50368044653F8140F4007E8
:103D300011D40E46481C29D086BB00BF1868400528
:103D400027D4FDF7A1F9236853F8140F400739D59C
:103D500018684007F2D5002070BD00BF1868400702
:103D6000F9D41868400514D418684007F3D41868CB
:103D700040050ED418684007EDD41868400508D4F3
:103D8000186840074FF0000048BF70BD1868400534
:103D9000E4D56FF480601860042014E0154603E059
:103DA00053F8140F4007D6D418684005F1D4FDF736
:103DB0006BF9401B2368B042F2D958694007EFD431
:103DC000202000E0202000212022216384F83D20D3
:103DD00084F83E10226C10432064012084F83C10CB
:103DE00070BD00002DE9F041054600681E461446EE
:103DF00001F47F0201338FB242D0DDF81880B2F5B2
:103E0000803F40F0878040693840C01BB0FA80F0A6
:103E10004009A04240F0C8804EB924E040693840D3
:103E2000C01BB0FA80F04009A04240F0BD80FDF711
:103E30002BF9A0EB08012868B142EFD9416939405C
:103E4000C91BB1FA81F14909A142E7D19BE000BF4A
:103E500040693840C01BB0FA80F04009A0424FF0E2
:103E6000000040F0A680FDF70FF92868416939404D
:103E7000C91BB1FA81F14909A142E9D183E000BF30
:103E8000B2F5803F24D100BF41693940C91BB1FA66
:103E900081F14909A14240F0878041693940C91B3D
:103EA000B1FA81F14909A14240F07E80416939406F
:103EB000C91BB1FA81F14909A14275D14169394063
:103EC000C91BB1FA81F14909A142DDD06CE000BF04
:103ED00081693940C91BB1FA81F14909A14263D115
:103EE00081693940C91BB1FA81F14909A1425BD10D
:103EF00081693940C91BB1FA81F14909A14253D105
:103F000081693940C91BB1FA81F14909A142DFD069
:103F10004AE000BF80693840C01BB0FA80F0400919
:103F2000A04241D146B923E080693840C01BB0FAB5
:103F300080F04009A0423BD1FDF7A6F8A0EB0801B4
:103F40002868B142F0D981693940C91BB1FA81F1C1
:103F50004909A142E8D116E080693840C01BB0FA97
:103F600080F04009A0424FF0000018BFBDE8F0818A
:103F7000FDF78AF8286881693940C91BB1FA81F1D7
:103F80004909A142E8D100202021286385F83D108D
:103F900085F83E00296C41F02001296485F83C0039
:103FA0000120BDE8F08100BF0020BDE8F08100BF26
:103FB0000020BDE8F0810000F0B581B00446006843
:103FC0001D4643698FB203EA0701B94202D10020BE
:103FD00001B0F0BD41691646013201F4806125D07F
:103FE000002940D1CEB100BFFDF74EF8411B20683B
:103FF000B14203D941693940B9424BD14169394095
:10400000B942E4D041694905EED52CE04169394017
:10401000B942DCD04169490525D4FDF735F820685F
:1040200041693940B942F1D0202024E0D9B9416931
:104030003940B942CBD04169490514D4416939406E
:10404000B942C4D0416949050DD441693940B942EA
:10405000BDD04169490506D441693940B942B6D05D
:1040600041694905E3D5016841F4007101606FF4CD
:1040700080614161042000212022216384F83D20D9
:1040800084F83E10226C1043206484F83C10012018
:1040900001B0F0BD2020EEE770B50446006815467B
:1040A00050F8143F5A063DD40E4629B926E000BF09
:1040B00050F8141F490635D40168C90621D4FCF70D
:1040C000E3FF411B2068B142F2D941694906EFD4B0
:1040D00000202021206384F83D1084F83E00206CED
:1040E00040F0200018E000BFFCF7CEFF206850F839
:1040F000141F4906ECD50168490613D40168C906A6
:10410000F2D56FF01001016000202021206384F8B7
:104110003D1084F83E00206C2064002084F83C00B0
:10412000012070BD002070BD70B50368044653F8CF
:10413000140F000611D40E46481C29D086BB00BFC0
:104140001868400527D4FCF79FFF236853F8140F25
:10415000000639D518680006F2D5002070BD00BFF2
:1041600018680006F9D41868400514D418680006C9
:10417000F3D4186840050ED418680006EDD418680A
:10418000400508D4186800064FF0000048BF70BD15
:1041900018684005E4D56FF480601860042014E0CE
:1041A000154603E053F8140F0006D6D418684005EE
:1041B000F1D4FCF769FF401B2368B042F2D958697B
:1041C0000006EFD4202000E02020002120222163DF
:1041D00084F83D2084F83E10226C104320640120B6
:1041E00084F83C1070BD00002DE9F04387B0002238
:1041F00000290692059200F0598240F21C22C2F278
:10420000000242F8201000EB40074AF2F451C0F6D9
:1042100000013A0140F200088A58CBF6FE7802EB22
:10422000080343F630044FEAB323C4F20204042B1C
:1042300001EB071737D8DFE803F0030D17212B0038
:1042400000230193236843F001032360236803F0F4
:10425000010326E000230193236843F00203236057
:10426000236803F002031CE000230193236843F05A
:1042700004032360236803F0040312E00023019386
:10428000236843F008032360236803F0080308E071
:1042900000230193236843F010032360236803F095
:1042A00010030193019B00EB400001EB0016308AE4
:1042B0004FF000090290022502A91046CDF80C909B
:1042C0000495FCF7F9FD786800EB08014FEAB1218D
:1042D000042938D8DFE801F0040E18222C0000BFB2
:1042E00000210191216841F001012160216801F064
:1042F000010126E000210191216841F002012160C5
:10430000216801F002011CE000210191216841F0C7
:1043100004012160216801F0040112E000210191F3
:10432000216841F008012160216801F0080108E0DE
:1043300000210191216841F010012160216801F004
:10434000100101910199718A0495CDE9021902A920
:10435000FCF7B2FDB86800EB08014FEAB12104296F
:1043600037D8DFE801F0030D17212B000021019160
:10437000216841F001012160216801F0010126E07E
:1043800000210191216841F002012160216801F0C2
:1043900002011CE000210191216841F0040121602B
:1043A000216801F0040112E000210191216841F02F
:1043B00008012160216801F0080108E00021019155
:1043C000216841F010012160216801F01001019184
:1043D0000199B18A4FF000090291022502A9CDF896
:1043E0000C900495FCF768FDF86800EB08014FEAB3
:1043F000B121042937D8DFE801F0030D17212B0084
:1044000000210191216841F001012160216801F042
:10441000010126E000210191216841F002012160A3
:10442000216801F002011CE000210191216841F0A6
:1044300004012160216801F0040112E000210191D2
:10444000216841F008012160216801F0080108E0BD
:1044500000210191216841F010012160216801F0E3
:10446000100101910199F18A0495CDE9021902A97F
:10447000FCF722FDB06900EB08014FEAB1210429E5
:1044800037D8DFE801F0030D17212B00002101913F
:10449000216841F001012160216801F0010126E05D
:1044A00000210191216841F002012160216801F0A1
:1044B00002011CE000210191216841F0040121600A
:1044C000216801F0040112E000210191216841F00E
:1044D00008012160216801F0080108E00021019134
:1044E000216841F010012160216801F01001019163
:1044F0000199318D0125029102A903950595FCF7DB
:10450000DBFCF06900EB08014FEAB121042938D83F
:10451000DFE801F0040E18222C0000BF00210191F9
:10452000216841F001012160216801F0010126E0CC
:1045300000210191216841F002012160216801F010
:1045400002011CE000210191216841F00401216079
:10455000216801F0040112E000210191216841F07D
:1045600008012160216801F0080108E000210191A3
:10457000216841F010012160216801F010010191D2
:104580000199718D0595CDE9021502A9FCF794FCFE
:10459000306A00EB08014FEAB121042937D8DFE87F
:1045A00001F0030D17212B0000210191216841F03A
:1045B00001012160216801F0010126E00021019143
:1045C000216841F002012160216801F002011CE034
:1045D00000210191216841F004012160216801F06E
:1045E000040112E000210191216841F008012160DD
:1045F000216801F0080108E000210191216841F0E3
:1046000010012160216801F0100101910199B18D23
:104610000125029102A903950595FCF74DFC706AEE
:1046200000EB08014FEAB121042938D8DFE801F096
:10463000040E18222C0000BF00210191216841F0D6
:1046400001012160216801F0010126E000210191B2
:10465000216841F002012160216801F002011CE0A3
:1046600000210191216841F004012160216801F0DD
:10467000040112E000210191216841F0080121604C
:10468000216801F0080108E000210191216841F052
:1046900010012160216801F0100101910199F18D53
:1046A0000595CDE9021502A9FCF706FC07B0BDE8A7
:1046B000F08300002DE9F04F95B04AF2F45700EB7B
:1046C0004002C0F6000707EB02148046A069218D66
:1046D000D4E901A6D4F80C9015010122CDE90F1000
:1046E000FCF7CCFCE069618D012211900C91FCF784
:1046F000C5FC206AA18D0122CDE90D01FCF7BEFCAD
:10470000606AE18D0122CDE91301FCF7B7FC78590D
:10471000218A0A900691FCF7A3FC618A83465046E1
:10472000CDF82CA0B2460791FCF79AFCA58A064664
:1047300050462946FCF794FCE48A07464846214641
:10474000FCF78EFC47EA000141EA0B01314300F01F
:104750008582CDE90367059040F21C20CDE9085A17
:10476000CDE90149C146BBF1000FC2F20000CDF80E
:10477000488000F08982109CDDF83CA083462046EA
:1047800051460122FCF77AFC0C9E1198314600221A
:10479000FCF774FCDDF834800E9D4046294600226B
:1047A000FCF76CFCDDE913010022FCF767FC069FB7
:1047B0000A983946FCF754FC5BF82910002818BF0A
:1047C00001200870204651460022D146FCF756FCD5
:1047D000DDF844A0314650460122FCF74FFC40462C
:1047E00029460022FCF74AFCDDF84CB0DDF8508089
:1047F000584641460022FCF741FC0A9D39462846AE
:10480000FCF72EFC40F21C21129AC2F2000151F872
:104810002210002818BF0120487020464946002277
:10482000FCF72CFC504631460022FCF727FC0D9C7F
:104830000E9E204631460122FCF720FC5846414698
:104840000022FCF71BFC28463946FCF709FC40F225
:104850001C21129AC2F2000151F82210002818BF40
:1048600001208870109849460022FCF707FC0C993B
:1048700050460022FCF702FC204631460022FCF79D
:10488000FDFB584641460122FCF7F8FB2846394615
:10489000FCF7E6FB40B140F21C201299C2F2000086
:1048A00050F821000121C1700398002800F0F48124
:1048B000DDF840800F9D404629460122FCF7DEFBD3
:1048C000119EDDF830B0304659460022FCF7D6FB89
:1048D000DDF834900E9C484621460022FCF7CEFBC2
:1048E000139F149938460022FCF7C8FBDDF81CA082
:1048F0000B985146FCF7B4FB40F21C221299C2F20D
:10490000000252F82110002818BF0120087140460B
:1049100029460022FCF7B2FB304659460122FCF73B
:10492000ADFB484621460022FCF7A8FB1499384607
:1049300000223E46FCF7A2FB0B9F51463846FCF78F
:104940008FFB129940F21C22C2F2000252F8211091
:10495000002818BF01204871404629460022FCF774
:104960008DFB119D594628460022FCF787FB4846DF
:1049700021460122FCF782FB149930460022B14601
:10498000FCF77CFB384651463E46FCF769FB40F29B
:104990001C271299C2F2000757F82110002818BFEF
:1049A000012088710F99404600220C46FCF766FBF7
:1049B0002846594600223D46FCF760FBDDE90D0123
:1049C0000022FCF75BFB149948460122FCF756FBDA
:1049D00030465146FCF744FB20B11298012155F8AE
:1049E0002000C1710498099E002800F0668110988B
:1049F00021460122A246FCF741FB119C0C9F204658
:104A000039460022FCF73AFBDDF834B0DDF8388097
:104A1000584641460022FCF731FBDDE91301002234
:104A2000FCF72CFBDDF8209030464946FCF718FBDC
:104A30001299002855F8211018BF0120109E087205
:104A4000304651460022FCF719FB20463946012228
:104A5000FCF714FB584641460022FCF70FFBDDE94A
:104A6000130500222946FCF709FB099C494620460C
:104A7000FCF7F6FA129940F21C22C2F2000252F838
:104A80002110002818BF01204872304651460022EC
:104A9000FCF7F4FA119E394630460022FCF7EEFA94
:104AA000584641460122FCF7E9FA139829460022AC
:104AB000FCF7E4FA20464946FCF7D2FA129940F294
:104AC0001C22C2F2000252F82110002818BF012057
:104AD00088721098514600223546FCF7CFFA3046CE
:104AE00039460022FCF7CAFA58464146DDF84C9098
:104AF0000022FCF7C3FA149948460122FCF7BEFADB
:104B000008992046FCF7ACFA40B1129840F21C21FB
:104B1000C2F2000151F820000121C172059800285D
:104B200000F0D680109E514630460122FCF7A6FACE
:104B30000C9C284621460022FCF7A0FADDF83480C0
:104B4000DDF838B0404659460022FCF797FADDF808
:104B500050A0484651460022FCF790FADDF8089034
:104B6000019F48463946FCF77BFA129D40F21C2112
:104B7000C2F2000151F82510002818BF0120087367
:104B80000F9930460022FCF779FA1198214601224C
:104B9000FCF774FA404659460022FCF76FFA139866
:104BA00051460022FCF76AFA48463946FCF758FAA3
:104BB00040F21C21C2F2000151F82510002818BF54
:104BC000012048730F9930460022FCF757FA1198DC
:104BD00021460022FCF752FA404659460122FCF7D2
:104BE0004DFA139851460022FCF748FA48463946D8
:104BF000FCF736FA40F21C21C2F2000151F82510F0
:104C0000002818BF012088730F9930460022FCF756
:104C100035FA119821460022FCF730FA40465946F1
:104C20000022FCF72BFA139851460122FCF726FAD2
:104C30004846119DDDF83CA03946DDF84C90FCF764
:104C40000FFA002852D0129840F21C21C2F2000143
:104C500051F820000121C17348E000BF40F21C2040
:104C6000C2F2000050F828000DF1300B0021DDE900
:104C70000FA6119D9BE81009DDF84C904160816002
:104C8000C160016032E000BF50F8290000210160DE
:104C9000039800287FF40CAE40F21C251298C2F253
:104CA000000555F820000F9CDDF84C900021416074
:104CB0000498099E00287FF49AAE1298002155F8B6
:104CC0002000119DA2468160059800287FF42AAF3C
:104CD000129840F21C21C2F200010DF1300B51F884
:104CE00020009BE81009109E0021C160304651460B
:104CF0000122FCF7C3F9284621460122FCF7BEF940
:104D0000404659460122FCF7B9F914994846012258
:104D100015B0BDE8F04FFCF7B1B90000024600281D
:104D200040F60000C4F202004FF0010118BF01225A
:104D3000FCF7A4B910B540F20A24C2F2000440F214
:104D40003000611CC2F20000FCF77CF8207010BD3E
:104D50002DE9F04F87B0002543F630000695019508
:104D6000C4F20200016840F6000A41F0100101603F
:104D70000168C4F2020A01F0100101910199019544
:104D800001680AF5006941F0040101600168002230
:104D900001F00401019101990195016847F20807AA
:104DA00041F080010160016801F0800101910199E9
:104DB0000195016841F001010160016801F0010104
:104DC000019101990195016841F0020101600168BA
:104DD00001F00201019101990195016841F008017A
:104DE0000160006847F2080100F008000190019896
:104DF0004846FCF743F95046012101220124FCF703
:104E00003DF9504610210022FCF738F9AAF58066DA
:104E100030464FF400610022FCF730F90AF5806853
:104E200040464FF210010022FCF728F9CDE9027448
:104E300002AF48463946CDE90455FCF73DF87020ED
:104E4000CDE90205484639460494FCF735F81120AF
:104E500002A931C1504639460595FCF72DF80820C6
:104E6000029005204FF0020B069050463946CDE9DE
:104E700003B50595FCF720F802944FF49010AAF5BD
:104E80000064CDE9030520463946FCF715F81020EB
:104E9000CDE9020B0620069020463946CDE904559F
:104EA000FCF70AF8E020CDE9020B05200690204629
:104EB0003946CDE90455FBF7FFFF2020CDE9020577
:104EC000504639460495FBF7F7FF0420CDE902056B
:104ED000304639460495FBF7EFFF4FF47060CDE99B
:104EE0000205484639460495FBF7E6FF4FF480601B
:104EF000CDE9020B0520069030463946CDE9045530
:104F0000FBF7DAFF4FF40060029001243046394687
:104F1000CDE903450595FBF7CFFF4FF21000CDE932
:104F20000204404639460124CDE90455FBF7C4FF8D
:104F30004FF4A450CDE9020B0620069050463946A6
:104F4000CDE90455FBF7B8FF2020CDE90205404626
:104F500039460495FBF7B0FF4FF410700290122011
:104F600003A931C10420069030463946FBF7A4FF5F
:104F70004FF49010CDE9030548463946CDF808B006
:104F8000FBF79AFF07B0BDE8F08F000080B540F650
:104F9000D81045F60041C2F20000C4F2000148F208
:104FA000A06200234FF4804CC0F2010280E80E00A2
:104FB000C0E9033CC0E90533C0E90733FCF7A6FEAE
:104FC000002808BF80BDBDE88040FBF737BF000068
:104FD00080B540F62C2043F60001C2F20000C4F276
:104FE00000014FF48272002380E80E0000F11401EA
:104FF0004FF4007C4FF0080E81E808500A21C0E908
:105000000333C0E90833C0E90A31FDF731FD002858
:1050100008BF80BDBDE88040FBF710BF80B586B0FB
:1050200040F6842040F200420021C2F20000C4F2A7
:105030000002532342F20F7C0591CDE90311CDE923
:105040000011C0E90023C0E9021C01618161FEF783
:105050002FF9002818BFFBF7F1FE4FF480500290A3
:1050600040F68420C2F2000002A9FEF7CBF9002826
:1050700018BFFBF7E3FE40F68420C2F20000694649
:10508000FEF7BAF8002818BFFBF7D8FE06B080BDBF
:1050900080B540F6CC2044F20041C2F20000C4F2D8
:1050A000000100234FF00C0C4FF4614280E80E0029
:1050B000C0E90333C0E905C3C361FEF747FB00281D
:1050C00008BF80BDBDE88040FBF7B8BE80B540F6A4
:1050D000143044F60001C2F20000C4F200010023C3
:1050E0004FF00C0C4FF4E13280E80E00C0E90333BE
:1050F000C0E905C3C361FEF729FB002808BF80BDD6
:10510000BDE88040FBF79ABE80B540F2202047F60C
:105110006171C2F20000C0F60001012202F00EFB34
:10512000002818BFFBF78AFE40F2202040F2080159
:10513000C2F20000C2F2000102F0C6FE002818BF51
:10514000FBF77CFE40F22020C2F2000002F0FEFEDF
:10515000002808BF80BDBDE88040FBF76FBE00009F
:1051600040F22020C2F2000002F04CBCFEE700003A
:10517000FEE7000040F2F850C2F20000FCF760B811
:10518000704700002DE9F04F83B040F20048C4F2B0
:10519000020840464FF400610122FBF76FFF40F622
:1051A0002C25FF20C2F200058DF807002846FDF7E8
:1051B0005BFC0128FAD140F62C25C2F200050DF166
:1051C0000701284601224FF47A73FDF7FDFCFF200A
:1051D0008DF807002846FDF747FC0128FAD140F674
:1051E0002C25C2F200050DF10701284601224FF4DB
:1051F0007A73FDF7E9FCFF208DF807002846FDF7DC
:1052000033FC0128FAD140F62C25C2F200050DF13D
:105210000701284601224FF47A73FDF7D5FCFF20E1
:105220008DF807002846FDF71FFC0128FAD140F64B
:105230002C25C2F200050DF10701284601224FF48A
:105240007A73FDF7C1FCFF208DF807002846FDF7B3
:105250000BFC0128FAD140F62C25C2F200050DF115
:105260000701284601224FF47A73FDF7ADFCFF20B9
:105270008DF807002846FDF7F7FB0128FAD140F624
:105280002C25C2F200050DF10701284601224FF43A
:105290007A73FDF799FCFF208DF807002846FDF78B
:1052A000E3FB0128FAD140F62C25C2F200050DF1EE
:1052B0000701284601224FF47A73FDF785FCFF2091
:1052C0008DF807002846FDF7CFFB0128FAD140F6FC
:1052D0002C25C2F200050DF10701284601224FF4EA
:1052E0007A73FDF771FCFF208DF807002846FDF763
:1052F000BBFB0128FAD140F62C25C2F200050DF1C6
:105300000701284601224FF47A73FDF75DFCFF2068
:105310008DF807002846FDF7A7FB0128FAD140F6D3
:105320002C25C2F200050DF10701284601224FF499
:105330007A73FDF749FC40464FF400610022FBF709
:105340009DFE40208DF808002846FDF78DFB0128C2
:10535000FAD140F62C25C2F2000502A92846012206
:105360004FF47A73FDF730FC00208DF8080000BF81
:105370002846FDF779FB0128FAD140F62C25C2F228
:10538000000502A9284601224FF47A73FDF71CFCA0
:1053900000208DF8080000BF2846FDF765FB0128B6
:1053A000FAD140F62C25C2F2000502A928460122B6
:1053B0004FF47A73FDF708FC00208DF8080000BF59
:1053C0002846FDF751FB0128FAD140F62C25C2F200
:1053D000000502A9284601224FF47A73FDF7F4FB79
:1053E00000208DF8080000BF2846FDF73DFB01288E
:1053F000FAD140F62C25C2F2000502A92846012266
:105400004FF47A73FDF7E0FB95208DF8080000BF9C
:105410002846FDF729FB0128FAD140F62C25C2F2D7
:10542000000502A9284601224FF47A734FF47A79D5
:10543000FDF7CAFB41F6FF744FF0FF0A00260DF19D
:105440000A0B0DF1090700BF8DF80AA08DF809605D
:105450002846FDF709FB0128FAD1284659463A4665
:105460000123CDF80090FDF7FBFC9DF80910013CED
:1054700046F10000012918BF0028E5D140464FF44D
:1054800000610122FBF7FAFD40F62C24FF20C2F256
:1054900000048DF80B0000BF2046FDF7E5FA012857
:1054A000FAD140F62C20C2F200000DF10B010122CE
:1054B0004FF47A730124FDF787FB40F20820C2F213
:1054C0000000447003B0BDE8F08F00002DE9F04704
:1054D00082B040F22218C2F20008322088F80000A0
:1054E000FF2040F62C248DF805000020C2F20004B5
:1054F0008DF804002046FDF7B7FA0128FAD140F6EE
:105500002C24C2F200044FF47A790DF1050101AAAE
:1055100020460123CDF80090FDF7A2FC4FF0FF0AD2
:1055200000270DF107050DF1060600BF8DF807A055
:105530008DF806702046FDF797FA0128FAD120462B
:10554000294632460123CDF80090FDF789FC9DF8ED
:105550000600FF2806D098F800100029E6D102B016
:10556000BDE8F087FF2002B0BDE8F0872DE9F04FDD
:1055700085B00C4640F2201140F62C268246C2F23D
:1055800000010A20FF254FF0000BC2F200064FF485
:105590007A790DF10B080DF10A0708708DF80B50A0
:1055A0008DF80AB03046FDF75FFA0128FAD130468F
:1055B00041463A460123CDF80090FDF751FC9DF895
:1055C0000A00FF2808D140F22010C2F20000007843
:1055D0000028E3D17CE000BFFE2879D140F62C26DC
:1055E000FF274FF00008C2F200064FF47A790DF160
:1055F0000E0B00BF8DF80D708DF80C803046FDF756
:1056000033FA0128FAD130460DF10D0103AA012326
:10561000CDF80090FDF724FC9DF80C008DF80F707C
:105620008AF800008DF80E803046FDF71DFA01283B
:10563000FAD130460DF10F015A4601230AF1020555
:10564000CDF80090FDF70CFC9DF80E00023C8AF8A6
:105650000100AA46CED1FF2040F62C248DF811007F
:105660000020C2F200048DF8100000BF2046FDF7B4
:10567000FBF90128FAD140F62C24C2F200044FF4C1
:105680007A770DF1110104AA204601230097FDF756
:10569000E7FBFF208DF8130000208DF8120000BFFB
:1056A0002046FDF7E1F90128FAD14FF47A70009015
:1056B00040F62C20C2F200000DF113010DF1120290
:1056C00001230124FDF7CCFB204605B0BDE8F08F97
:1056D0000024204605B0BDE8F08F00002DE9F04F12
:1056E00087B040F2221A0290C2F2000A32208AF8F1
:1056F0000000FF2040F62C2489468DF80F00002082
:10570000C2F200048DF80E002046FDF7ADF9012825
:10571000FAD140F62C26C2F200064FF47A7B0DF146
:105720000F010DF10E0230460123CDF800B0FDF758
:1057300097FBFF254FF000080DF1110704AC00BFE7
:105740008DF811508DF810803046FDF78DF9012845
:10575000FAD13046394622460123CDF800B0FDF794
:105760007FFB9DF81000FF2808D09AF80000002861
:10577000E6D1FF20C0B207B0BDE8F08F029D40F631
:105780002C24C2F200048DF8125000BF2046FDF711
:105790006BF90128FAD140F62C24C2F200040DF175
:1057A0001201204601224FF47A73FDF70DFA4FEAF9
:1057B00019608DF8130000BF2046FDF755F9012848
:1057C000FAD140F62C24C2F200040DF11301204658
:1057D00001224FF47A73FDF7F7F94FEA19408DF87B
:1057E000140000BF2046FDF73FF90128FAD140F62A
:1057F0002C24C2F2000405A9204601224FF47A733A
:10580000FDF7E2F94FEA19208DF815002046FDF763
:105810002BF90128FAD140F62C24C2F200040DF134
:105820001501204601224FF47A73FDF7CDF98DF86A
:10583000169000BF2046FDF717F90128FAD140F66F
:105840002C24C2F200040DF11601204601224FF46F
:105850007A73FDF7B9F90020402D08BF6FF06A0098
:10586000482D08BF6FF078008DF817002046FDF72F
:10587000FBF80128FAD140F62C20C2F200000DF10D
:10588000170101224FF47A73FDF79EF94C2D1BD1BD
:10589000FF2040F62C248DF819000020C2F20004ED
:1058A0008DF818002046FDF7DFF80128FAD140F600
:1058B0002C204FF47A77C2F200000DF1190106AAEC
:1058C00001230097FDF7CCFAFF2040F62C248DF839
:1058D0001B000020C2F200048DF81A002046FDF7DC
:1058E000C3F80128FAD140F62C204FF47A77C2F29F
:1058F00000000DF11B010DF11A0201230097FDF7C5
:10590000AFFA9DF91A00B0F1FF3F3FF733AFFF2028
:1059100040F62C248DF81B000020C2F200048DF804
:105920001A0000BF2046FDF79FF80128FAD140F683
:105930002C204FF47A77C2F200000DF11B010DF11B
:105940001A0201230097FDF78BFA9DF91A00B0F1B6
:10595000FF3F3FF70FAFFF2040F62C248DF81B00D0
:105960000020C2F200048DF81A0000BF2046FDF7A7
:105970007BF80128FAD140F62C204FF47A77C2F256
:1059800000000DF11B010DF11A0201230097FDF734
:1059900067FA9DF91A00B0F1FF3F3FF7EBAEFF2029
:1059A00040F62C248DF81B000020C2F200048DF874
:1059B0001A0000BF2046FDF757F80128FAD140F63B
:1059C0002C204FF47A77C2F200000DF11B010DF18B
:1059D0001A0201230097FDF743FA9DF91A00B0F16E
:1059E000FF3F3FF7C7AEFF2040F62C248DF81B0089
:1059F0000020C2F200048DF81A0000BF2046FDF717
:105A000033F80128FAD140F62C204FF47A77C2F20D
:105A100000000DF11B010DF11A0201230097FDF7A3
:105A20001FFA9DF91A00B0F1FF3F3FF7A3AEFF2028
:105A300040F62C248DF81B000020C2F200048DF8E3
:105A40001A002046FDF710F80128FAD140F62C2064
:105A50004FF47A77C2F200000DF11B010DF11A022A
:105A600001230097FDF7FCF99DF91A00B0F1FF3F03
:105A70003FF780AEFF2040F62C248DF81B0000205D
:105A8000C2F200048DF81A002046FCF7EDFF012851
:105A9000FAD140F62C204FF47A77C2F200000DF1D3
:105AA0001B010DF11A0201230097FDF7D9F99DF9A9
:105AB0001A00B0F1FF3F3FF75DAEFF2040F62C2407
:105AC0008DF81B000020C2F200048DF81A00204659
:105AD000FCF7CAFF0128FAD140F62C204FF47A7760
