:020000040800F2
:10000000F811002041020008317E0008195F000845
:100010002D7E0008150900084DC9000800000000E9
:10002000000000000000000000000000D58B000868
:10003000E50E000800000000B17E00085D8C00089D
:100040005B0200085B0200085B0200085B0200081C
:100050005B0200085B0200085B0200085B0200080C
:100060005B0200085B0200085B0200085B020008FC
:100070005B0200085B0200085B0200085B020008EC
:100080005B0200085B0200085B0200085B020008DC
:100090005B0200085B0200085B0200085B020008CC
:1000A0005B0200085B0200085B0200085B020008BC
:1000B0005B020008618D00085B0200085B0200081B
:1000C0005B0200085B0200085B0200085B0200089C
:1000D0005B0200085B0200085B0200085B0200088C
:1000E0005B0200085B0200085B0200085B0200087C
:1000F0005B0200085B0200085B0200085B0200086C
:100100005B0200085B0200085B0200085B0200085B
:100110005B0200085B0200085B0200085B0200084B
:100120005B0200085B0200085B0200085B0200083B
:100130005B0200085B0200085B0200085B0200082B
:100140005B0200085B0200085B020008A17E000859
:100150005B0200085B0200085B0200085B0200080B
:100160005B0200085B0200085B0200085B020008FB
:100170005B0200085B0200085B0200080000000050
:100180005B0200085B02000800F002F800F049F88A
:100190000AA090E8000C82448344AAF10107DA45E2
:1001A00001D100F03EF8AFF2090EBAE80F0013F0EB
:1001B000010F18BFFB1A43F00103184758DE000077
:1001C00078DE0000103A24BF78C878C1FAD8520708
:1001D00024BF30C830C144BF04680C6070470000C1
:1001E0000023002400250026103A28BF78C1FBD840
:1001F000520728BF30C148BF0B6070471FB50DF0D4
:1002000053FE9DE8030000F0ADF900F0BBFA0400D6
:10021000002000210DF032FE401C60601FBD10B5B3
:1002200010BD00F08AFA1146FFF7E8FF0DF0E2FB7F
:1002300000F0BAFA03B4FFF7F2FF03BC00F0EAFAE9
:100240000948804709480047FEE7FEE7FEE7FEE76A
:10025000FEE7FEE7FEE7FEE7FEE7FEE704480549A6
:10026000054A064B704700004D8D000889010008C3
:10027000F80B0020F8110020F80D0020F80D0020E8
:1002800070B5064600F04EF9056806F10B0020F047
:100290000704B4429CBF002070BD2B466A68BAB107
:1002A0001068A04210D304F1080188423CBF506896
:1002B000586007D35168101941601168091B01602B
:1002C00058601460101D70BD13465268002AE7D1B3
:1002D0002146284600F032F90028DED170BD70B505
:1002E0000446051F00F01EF90068002C14BF446886
:1002F00070BD002C18BFAC423CBF20466468F8D3E8
:1003000001680A18AA4218BF456003D12A68054649
:100310001144016028684119A1421CBF6C6070BD86
:100320006168696021680844286070BD53EA020C66
:1003300000F069802DE9F04B4FF00006002B1FBF45
:10034000B3FA83F503FA05F424FA05F65E4012BF0A
:100350001643B2FA82F502FA05F4C5F120051EBF74
:1003600022FA05FC44EA0C04203556EA044C4FEA14
:10037000144418BF641C4FF000084FF0000990426D
:1003800071EB030C39D3002919BFB1FA81F701FAD7
:1003900007F6B0FA80F700FA07F6C7F120071EBF8C
:1003A00020FA07FC46EA0C062037B6FBF4FCA7EB64
:1003B0000507103F07F01F0BCBF120062CFA06F6BD
:1003C0000CFA0BFB44BFB3460026202FA4BF5E46A9
:1003D0004FF0000B5BEA060C08BF4FF0010B19EB66
:1003E0000B0948EB0608ABFB027C06FB02CC0BFBBF
:1003F00003CCC01B71EB0C01C1E70B460246414622
:100400004846BDE8F08B13B5084318BF4FF0FF30E6
:100410000146AFF30080BDE81C40704770B506464A
:1004200000F084F80468054630460A22002100F0F6
:10043000CFF82C6070BD10B5431C02E010F8011B12
:1004400071B18107FAD14FF0013202C88C1A8C4386
:1004500014EAC211F9D0C01A0A0603D0C01E10BD9A
:10046000C01A10BD0A0401D0801E10BD0902FCD0C4
:10047000401E10BD421E12F8013F002BFBD111F8A7
:10048000013B002B02F8013BF9D170474FF000020D
:100490000429C0F0128010F0030C00F01B80CCF196
:1004A000040CBCF1020F18BF00F8012BA8BF20F804
:1004B000022BA1EB0C0100F00DB85FEAC17C24BF58
:1004C00000F8012B00F8012B48BF00F8012B704702
:1004D0004FF0000200B5134694469646203922BFDD
:1004E000A0E80C50A0E80C50B1F12001BFF4F7AF28
:1004F000090728BFA0E80C5048BF0CC05DF804EB0A
:10050000890028BF40F8042B08BF704748BF20F877
:10051000022B11F0804F18BF00F8012B7047704775
:100520007047704700487047C0000020004870477F
:10053000B8000020704770477047704738B50446D0
:100540000A4600206946AFF30080002808BF38BD86
:1005500002460099204600F07FF8012038BD0120B6
:1005600000F0E3B8F8B5AFF30080054600200C4674
:10057000102000BF0646A819A0420DD93246694690
:100580000020AFF30080070008BF00F0CEF800980D
:10059000A04218BF0546C419FFF7C4FF056007460F
:1005A000F01D20F007004619284600F00AF8B44272
:1005B00008BFF8BDA21B31463868BDE8F84000F01E
:1005C0004BB800210160C0E901107047102070474E
:1005D0002DE9F04791460F4680460446002614F860
:1005E000015B2DB100F030F80068405DC007F6D126
:1005F0002B2D02D02D2D18D0641E4A463946204698
:1006000000F044F827B13968A14201D1C7F8008051
:100610004FF0020471050BD54042002803DDFFF7BF
:1006200085FF0460A007BDE8F08746F48066E4E734
:100630000028F8DAFFF77AFF04606FF00040F2E775
:1006400000487047B800002010B500F09BF8001D6E
:1006500010BD00BF29D80000034640688C46002822
:1006600018BF88423CBF03464068F8D31868184456
:10067000884207D00CF1030020F00700001D411A4A
:10068000521A0146081D0A60FFF729BE2DE9F05FE6
:10069000824615468B4600270AF10104B9460078C8
:1006A000302801D09DB113E014F8010B0127782800
:1006B00003D0582801D045B10AE00DB1102D07D163
:1006C000002714F8010B102502E0082500E00A2598
:1006D0000026B0460EE005FB080005FB06F10127E9
:1006E0001FFA80F801EB1046B6F5803F00D3B946FB
:1006F00014F8010B294600F049F80028EBDABBF1A9
:10070000000F05D00FB1641E00E05446CBF8004046
:10071000B9F1000F06D0FFF709FF02210160C81EE2
:10072000BDE8F09F48EA0640FAE710B500F04AF845
:10073000BDE8104000F041B870477546FFF780FFF4
:10074000AE4605006946534620F00700854618B0BE
:1007500020B5FFF783FDBDE820404FF000064FF0C5
:1007600000074FF000084FF0000BAC46ACE8C009A2
:10077000ACE8C009ACE8C009ACE8C00921F0070149
:100780008D46704700487047D80000203A2800D2B4
:10079000303820F02002412A01D3A2F137008842EC
:1007A00001D34FF0FF30704710B50446AFF300801F
:1007B0002046BDE81040FFF73DBD002801D000F005
:1007C00029B8704710B5012805D0002103A000F01A
:1007D00027F8012010BD09A1F8E70000534947524E
:1007E000544D454D3A204F7574206F662068656101
:1007F00070206D656D6F7279000000003A204865C9
:100800006170206D656D6F727920636F72727570A3
:100810007465640001491820ABBEFEE726000200A3
:1008200070B505460C460A2000E06D1C00F052F839
:1008300035B128780028F8D102E0641C00F04AF8AD
:1008400014B120780028F8D1BDE870400A2000F0EB
:1008500041B800000000000030B44FF0013C50F8F7
:10086000042B51F8043BCCFA52F4D51A20D1FCB930
:1008700050F8042B51F8043BCCFA52F4D51A17D196
:10088000B4B950F8042B51F8043BCCFA52F4D51A01
:100890000ED16CB950F8042B51F8043BCCFA52F449
:1008A000D51A05D1002CDAD030BC4FF000007047CB
:1008B00029BAB1FA81F111F01801D1F12000844078
:1008C000F2D1CA40CB4012F0FF0213F0FF0330BC5C
:1008D000D01A704708B569468DF800000320ABBEFA
:1008E00008BD000082B08DF8070000919DF8070058
:1008F00000093030009908709DF80700032161F36A
:100900001F1000994870009900208870009802B06C
:1009100070470000FFE7FEE783B002900191ADF859
:100920000220019802990860BDF8020002998880AF
:100930000299012088710299C871029900200872F9
:100940000299C860029908610299087503B070475E
:1009500080B586B005900598D0F87C03C0690490F6
:1009600000208DF80F00049890F84E000146019188
:10097000032804D0FFE7019804280CD042E0059832
:10098000049B196A5A8B1B7B08F0C6FC049904204F
:1009900081F84E0037E005980499097B09F0B8FE0C
:1009A0008DF80F009DF80F0001282AD1FFE7059868
:1009B0000499097B09F072FE02900498806A0299FA
:1009C000401AA8B1FFE702980499498B88420FD9D1
:1009D000FFE7029A0499886A801A8862029A049949
:1009E000086A104408620499032081F84E0007E069
:1009F0000499002081F84E00059808F04FFFFFE7AA
:100A0000FFE700E0FFE706B080BD000080B586B0DC
:100A100005900598D0F87C03C069049000208DF8FB
:100A20000F00049890F84D0001460291012804D06F
:100A3000FFE70298022825D063E00499486A098BF1
:100A400088420DD9FFE70598049BD9691A8B5B7B17
:100A5000EE464FF0010CCEF800C008F07DFC0CE033
:100A60000598049BD9699A8C5B7BEE464FF0010C8C
:100A7000CEF800C008F070FCFFE70499022081F86E
:100A80004D003FE005980499497B09F041FE8DF83F
:100A90000F009DF80F00012827D1FFE70499486A4D
:100AA000098B88420BD9FFE704990A8B486A801AA0
:100AB000486204990A8BC8691044C86103E004992C
:100AC00000204862FFE70498406A28B1FFE70499D4
:100AD000012081F84D0007E00499002081F84D00C5
:100AE000059808F0E5FEFFE70AE09DF80F000228F0
:100AF00005D1FFE70499012081F84D00FFE7FFE7EA
:100B000000E0FFE706B080BD80B582B0ADF806001A
:100B1000BDF8060000F04EFA02B080BD80B582B08C
:100B2000019001980121002200F0F4F80520FFF760
:100B3000EBFF02B080BD000080B588B084460A9803
:100B4000CDF81CC006918DF817208DF816308DF861
:100B500015000698079908609DF817000799087115
:100B60009DF81600079948719DF81500079988713E
:100B700007992820887207990620C87107990C20C8
:100B8000087207991420487207990820C872322009
:100B90000290FFF7B9FF07983321019100220492D8
:100BA00000F0B8F80199049A079800F0B3F805200E
:100BB0000390FFF7A9FF0299049A079800F0AAF89A
:100BC0000398FFF7A1FF049A0798202100F0A2F8EC
:100BD0000398FFF799FF049A0798C17900F09AF8F3
:100BE000049A0798017A00F095F8049A0798417AD8
:100BF00000F090F8049A0798817A00F08BF8049A34
:100C00000798012100F086F8049A0798022100F065
:100C100081F808B080BD000080B582B001908DF8E9
:100C200003108DF8022000208DF801009DF80300CC
:100C300001994979884206DBFFE70198407901383C
:100C40008DF80300FFE79DF8020001998979884239
:100C500006DBFFE70198807901388DF80200FFE795
:100C60009DF8020028B9FFE79DF803008DF8010008
:100C700023E09DF80200012806D1FFE79DF803005C
:100C800040308DF8010017E09DF80200022806D1DF
:100C9000FFE79DF8030014308DF801000BE09DF88C
:100CA0000200032806D1FFE79DF8030054308DF8B9
:100CB0000100FFE7FFE7FFE7FFE701989DF801105C
:100CC00041F08001002200F025F802B080BD000054
:100CD00080B582B001908DF8031001989DF8031043
:100CE000012200F017F802B080BD000080B582B08C
:100CF00001900091FFE70098007840B1FFE701986C
:100D000000994A1C00920978FFF7E2FFF3E702B06E
:100D100080BD000080B586B005908DF813108DF869
:100D200012209DF8130000F0F0008DF811009DF8DE
:100D3000130000018DF810000598C07A68B1FFE734
:100D40009DF8110040F008008DF811009DF810008A
:100D500040F008008DF81000FFE79DF81200012810
:100D60000DD1FFE79DF8110040F001008DF8110052
:100D70009DF8100040F001008DF8100011E09DF882
:100D8000120068B9FFE79DF8110000F0FE008DF831
:100D900011009DF8100000F0FE008DF81000FFE734
:100DA000FFE79DF8110040F004008DF80C000120D1
:100DB0000290FFF7A9FE02989DF811108DF80D1012
:100DC0009DF8101041F004018DF80E10FFF79CFE05
:100DD0009DF810008DF80F000599086809796B4699
:100DE0004FF47A721A6003AA042301F0F1F906B0F5
:100DF00080BD000080B540F20040C4F202004FF414
:100E00000061012200F000FB80BD000080B584B0CD
:100E10000390002002900290FFE702980F280CD860
:100E2000FFE70398029900EB81010020C1F88403D9
:100E3000FFE7029801300290EFE700200290FFE701
:100E400002990020B0EB512F0BD1FFE703980299D4
:100E50000144002081F81C01FFE702980130029054
:100E6000EEE7039900200190087003994870039AF7
:100E700001219170039AC2F8C403039A1176039B6F
:100E800040229A71039A5076039A82F81C03039ABF
:100E900082F81D13039981F81F03039981F81E033B
:100EA00003981C304FF48071FFF712FB039800F594
:100EB0008E704FF40071FFF70BFB01980399A1F8B6
:100EC0003603C1F83203C1F82E03C1F82A03C1F872
:100ED0002603039800F54E703E21FFF7F9FA0198BA
:100EE00004B080BD7047000072B6FFE7FEE7000067
:100EF00080B582B00190009101980099002200F025
:100F000003F802B080BD000084B0039002918DF818
:100F1000072001208DF8060000208DF8050040F222
:100F2000C010C2F20000407A002827DCFFE740F240
:100F3000C013C2F200030093597A00205854039959
:100F40005A7A03EB820251609DF807105A7A1A44CC
:100F50001172597A4A1C5A728DF805109DF80510C5
:100F60003031029A1170029A3A215170029A2F215F
:100F700091700299C8708DF80600FFE79DF8060091
:100F800004B0704780B582B0019000910199A12012
:100F90000874019921204874019900204882019920
:100FA000888201980722C2820198009908F0D4FC37
:100FB00002B080BD80B584B0039000F03DFA02908D
:100FC000039801900198013048B1FFE740F2B0006A
:100FD000C2F200000178019808440190FFE7FFE7A2
:100FE00000F02AFA0299401A0199884201D2FFE7DB
:100FF000F6E704B080BD00008EB00D900C9100208B
:101000000A90099008900B90FFE70B980F2800F2C8
:10101000CC81FFE70B99012088400A900C9800686A
:101020000A990840099009980A99884240F0B881C5
:10103000FFE70C98406800F00300012807D0FFE7A5
:101040000C98406800F0030002282FD1FFE70D98AC
:10105000806808900B984100032000FA01F108987D
:10106000884308900C98C0680B99490000FA01F178
:1010700008980843089008980D9988600D98406872
:1010800008900B99012000FA01F108988843089014
:101090000C984068C0F300100B9900FA01F1089811
:1010A0000843089008980D994860FFE70C9840683D
:1010B00000F00300032818D0FFE70D98C0680890DF
:1010C0000B984100032000FA01F10898884308902A
:1010D0000C9880680B99490000FA01F108980843C0
:1010E000089008980D99C860FFE70C98406800F0D8
:1010F0000300022826D1FFE70D980B996FF0030239
:1011000002EA51010844006A08900B9800F00700B9
:1011100081000F2000FA01F10898884308900C988C
:1011200000690B9901F00701890000FA01F10898A4
:101130000843089008980D990B9B02EA530211444A
:101140000862FFE70D98006808900B9841000320A3
:1011500000FA01F10898884308900C98406800F064
:1011600003000B99490000FA01F108980843089020
:1011700008980D9908600C9880798007002800F085
:101180000E81FFE7FFE70020079043F64400C4F21A
:101190000200016841F480410160006800F4804071
:1011A00007900798FFE70B9820F0030043F608012B
:1011B000C4F20101405808900B9800F00300810030
:1011C0000F2000FA01F10898884308900D9800213B
:1011D000C4F20201884203D1FFE7002006905EE0DE
:1011E0000D9840F20041C4F20201884203D1FFE7AA
:1011F0000120059050E00D9840F60001C4F2020174
:10120000884203D1FFE70220049042E00D9840F6A7
:101210000041C4F20201884203D1FFE7032003909A
:1012200034E00D9841F20001C4F20201884203D17A
:10123000FFE70420029026E00D9841F20041C4F23D
:101240000201884203D1FFE70520019018E00D98C4
:1012500041F60001C4F20201884203D1FFE70620F3
:1012600000900AE00D9941F60042C4F20202082003
:10127000914208BF07200090FFE700980190FFE728
:1012800001980290FFE702980390FFE7039804900B
:10129000FFE704980590FFE705980690FFE706989A
:1012A000C0B20B9901F00301890000FA01F108981E
:1012B0000843089008980B9921F0030143F60802AF
:1012C000C4F20102885043F60840C4F201000068ED
:1012D000089009990898884308900C988079C0066E
:1012E000002805D5FFE70999089808430890FFE70B
:1012F000089843F60841C4F20101086043F60C4027
:10130000C4F2010000680890099908988843089081
:101310000C9880798006002805D5FFE70999089880
:1013200008430890FFE7089843F60C41C4F2010116
:10133000086043F60440C4F201000068089009996F
:101340000898884308900C9880798007002805D574
:10135000FFE70999089808430890FFE7089843F6C3
:101360000441C4F20101086043F60040C4F20100E8
:101370000068089009990898884308900C9880792B
:10138000C00728B1FFE70999089808430890FFE7CC
:10139000089843F60041C4F201010860FFE7FFE747
:1013A000FFE70B9801300B902FE60EB0704700005E
:1013B00082B00190ADF8021001980069BDF80210EA
:1013C000084204D0FFE701208DF8010003E000206F
:1013D0008DF80100FFE79DF8010002B070470000A2
:1013E00083B00290ADF80610029840690090009A10
:1013F000BDF8060002EA0001904340EA014002996C
:10140000886103B07047000082B00190ADF802100F
:101410008DF801209DF8010028B1FFE7BDF802001A
:101420000199886105E0BDF8020000040199886116
:10143000FFE702B07047000040F6F030C2F2000053
:101440000068704780B582B001900198D0F8DC0345
:1014500009F0E0F802B080BD80B582B0019001983B
:10146000D0F8DC0309F0E6F802B080BD80B582B0A8
:101470000190019800680AF0B3FA02B080BD000044
:1014800080B582B00190019800680AF0B3FA02B00A
:1014900080BD000082B001908DF8031001989DF886
:1014A0000310C1EB011100EB810100208876019946
:1014B0009DF80320C2EB021201EB8201C87601996C
:1014C0009DF80320C2EB021201EB820181F8250096
:1014D00001999DF80320C2EB021201EB820181F811
:1014E000240002B07047000082B001908DF8031014
:1014F00001989DF80310C1EB011100EB810090F8F9
:101500004C0002B07047000082B001908DF80310CB
:1015100001989DF80310C1EB011100EB8100806B75
:1015200002B0704780B584B002908DF8071000209B
:101530008DF80600FFE7029890F8D403012804D143
:10154000FFE702208DF80F0016E00299012081F8D4
:10155000D403FFE7FFE7029800689DF807100AF040
:1015600061FAFFE70299002081F8D403FFE79DF8B4
:1015700006008DF80F00FFE79DF80F0004B080BD56
:10158000B0B58AB094468E46044610980F990E9ACC
:1015900008948DF81FE08DF81EC08DF81D308DF871
:1015A0001C208DF81B10ADF81800BDF81800039032
:1015B000FFE7089890F8D403012804D1FFE7022040
:1015C0008DF82700A8E00899012081F8D403FFE7EF
:1015D000FFE708989DF81F10C1EB011100EB810196
:1015E000002048769DF81D0008999DF81F20C2EB49
:1015F000021201EB820108759DF81F000899C0EBEB
:10160000001201EB820148759DF81B0008999DF8B6
:101610001F20C2EB021201EB820181F826009DF827
:101620001E0000F07F0008999DF81F20C2EB0212F7
:1016300001EB8201887508989DF81F10FFF72AFFBB
:101640009DF81E00000600280AD5FFE708989DF8BF
:101650001F10C1EB011100EB81010120C87509E0E9
:1016600008989DF81F10C1EB011100EB81010020CB
:10167000C875FFE7089800680AF0BCF904909DF867
:101680001B00012811D1FFE79DF81C0001280BD198
:10169000FFE7049840B9FFE70398BD2803D3FFE7AD
:1016A000BC200390FFE7FFE7FFE79DF81C000899C7
:1016B0009DF81F20C2EB021201EB8201087603980D
:1016C00008999DF81F20C2EB021201EB82010885E8
:1016D000089800689DF81F109DF81E209DF81D3089
:1016E0009DF81CC09DF81B40BDF80C50EE46CEF88E
:1016F0000850CEF80440CEF800C00AF081FA8DF808
:101700001700FFE70899002081F8D403FFE79DF850
:1017100017008DF82700FFE79DF827000AB0B0BD3D
:1017200082B001908DF803108DF8022002B070474E
:10173000B0B584B094468E4604460B980A99099A2F
:10174000089A03948DF80BE08DF80AC08DF80930E3
:101750008DF80820ADF806108DF805009DF80A00F8
:1017600003999DF80B20C2EB021201EB8201C875B0
:101770009DF8090003999DF80B20C2EB021201EBC2
:10178000820181F826009DF80800A8B9FFE70398B8
:101790009DF80B10C1EB011100EB8101032081F8D2
:1017A0002A009DF8050003999DF80B20C2EB021258
:1017B00001EB820148760AE003989DF80B10C1EB1B
:1017C000011100EB8101022081F82A00FFE79DF85A
:1017D000090001460091032800F20E810099DFE81C
:1017E00011F0040000016E00B7009DF80800012808
:1017F00064D1FFE79DF80A0088BBFFE7BDF806004B
:1018000058B9FFE703989DF80B10C1EB011100EBED
:101810008101012081F83D00FFE703989DF80B103E
:10182000C1EB011100EB810090F83D0058B9FFE7D2
:1018300003989DF80B10C1EB011100EB8101002012
:1018400081F82A000AE003989DF80B10C1EB011102
:1018500000EB8101022081F82A00FFE72DE00398C8
:101860009DF80B10C1EB011100EB8100807E012877
:1018700022D1FFE703989DF80B10C1EB011100EB9B
:10188000810090F83C0058B9FFE703989DF80B10D1
:10189000C1EB011100EB8101002081F82A000AE070
:1018A00003989DF80B10C1EB011100EB81010220A0
:1018B00081F82A00FFE7FFE7FFE7FFE79DE09DF8DB
:1018C0000A0010BBFFE703989DF80B10C1EB011154
:1018D00000EB810090F83D0058B9FFE703989DF8B0
:1018E0000B10C1EB011100EB8101002081F82A00EF
:1018F0000AE003989DF80B10C1EB011100EB810188
:10190000022081F82A00FFE721E003989DF80B10E0
:10191000C1EB011100EB810090F83C0058B9FFE7E2
:1019200003989DF80B10C1EB011100EB8101002021
:1019300081F82A000AE003989DF80B10C1EB011111
:1019400000EB8101022081F82A00FFE7FFE754E065
:101950009DF80A0010BBFFE703989DF80B10C1EB40
:10196000011100EB810090F83D0058B9FFE70398A2
:101970009DF80B10C1EB011100EB8101002081F8F3
:101980002A000AE003989DF80B10C1EB011100EB4F
:101990008101022081F82A00FFE721E003989DF8E9
:1019A0000B10C1EB011100EB810090F83C0058B91D
:1019B000FFE703989DF80B10C1EB011100EB8101CB
:1019C000002081F82A000AE003989DF80B10C1EB73
:1019D000011100EB8101022081F82A00FFE7FFE7F7
:1019E0000BE003989DF80B10C1EB011100EB810196
:1019F000002081F82A0000E0FFE7099803999DF88C
:101A00000B20C2EB021201EB8201C862BDF8060096
:101A100003999DF80B20C2EB021201EB820148638F
:101A200003989DF80B10C1EB011100EB8101002020
:101A300081F84C0003999DF80B20C2EB021201EBD8
:101A4000820188639DF80B10039AC1EB011302EB2E
:101A50008302517503999DF80B20C2EB021201EB32
:101A6000820181F84D00039A10689DF80B10C1EBBC
:101A7000011102EB8101143192790AF0E7F904B007
:101A8000B0BD000080B586B0059005980068049050
:101A9000049803900598006809F0BCFF012840F005
:101AA000E180FFE7059800680AF03CFD08B9FFE710
:101AB000D8E0059800680AF035FD8002002806D5B8
:101AC000FFE7059801684FF400104861FFE70598AB
:101AD00000680AF027FDC002002806D5FFE7059838
:101AE00001684FF480104861FFE7059800680AF02C
:101AF00019FD4001002806D5FFE7059801684FF061
:101B000080604861FFE7059800680AF00BFD8007D8
:101B1000002805D5FFE70598016802204861FFE726
:101B2000059800680AF0FEFC8000002822D5FFE737
:101B3000059801684FF0005048610398D0F84004C0
:101B4000C007B0B9FFE70498102109F00BFF049813
:101B500009F0CEFE0598407A022806D1FFE70598E5
:101B6000006801210AF088FCFFE70598FFF774FC84
:101B7000FFE7FFE7059800680AF0D4FCC0010028E1
:101B800004D5FFE7059804F0A9F8FFE70598006879
:101B90000AF0C8FC0007002808D5FFE7059800F008
:101BA00069F90598016808204861FFE70598006811
:101BB0000AF0B8FC8001002838D5FFE705980068D6
:101BC0000AF03AF9019000200290FFE70298059987
:101BD0004979884224D2FFE70198029901F00F0168
:101BE000C840C007B8B1FFE70398029900EB411065
:101BF000D0F800050004002806D5FFE705989DF8F9
:101C0000081002F051FE05E005989DF8081003F059
:101C10002BFCFFE7FFE7FFE7029801300290D5E7D2
:101C2000059801684FF000704861FFE7059800686B
:101C30000AF078FC00F010010020B0EB111F10D06A
:101C4000FFE705980168886920F010008861059811
:101C500004F0B6F805980168886940F010008861C2
:101C6000FFE7FFE706B080BD80B58CB00A900A9808
:101C700020B9FFE701208DF82F0075E00A98006871
:101C800009900A9890F8D50340B9FFE70A99002017
:101C900081F8D4030A9800F06BF8FFE70A99032053
:101CA00081F8D5030998B0F1A04F04D1FFE70A9954
:101CB00000208871FFE70A98006809F0A1FD0A9BDF
:101CC0001868197C8DF8201059689A68DB680793AA
:101CD000069205910599069A079BDDF820C0EE460D
:101CE000CEF800C009F0E4FC40B1FFE70A990220F9
:101CF00081F8D50301208DF82F0035E00A9800689F
:101D000001210AF09DFC40B1FFE70A99022081F809
:101D1000D50301208DF82F0026E00A9B1868197C56
:101D20008DF8101059689A68DB680393029201914C
:101D30000199029A039BDDF810C0EE46CEF800C070
:101D40000AF0D6FA40B1FFE70A99022081F8D503DC
:101D500001208DF82F0007E00A99012081F8D503B2
:101D600000208DF82F00FFE79DF82F000CB080BDFC
:101D700080B58CB00B9000200A90099008900790D5
:101D800006900B980068B0F1A04F53D1FFE7FFE732
:101D90000020059043F63000C4F20200016841F0D3
:101DA00001010160006800F0010005900598FFE75F
:101DB0004FF40070069000200190079008900020DA
:101DC000C4F20200029006A90391FFF715F9019AE7
:101DD000029803994FF4E053069302230793089265
:101DE00009920A220A92FFF707F9FFE743F6340146
:101DF000C4F20201086840F080000860FFE700209C
:101E0000049043F64400C4F20200016841F48041AA
:101E10000160006800F4804004900498FFE7FFE749
:101E2000432000900022114600F004FE009800F0CC
:101E3000F7FDFFE70CB080BD80B582B0019001983E
:101E4000D0F8DC0308F0F6FC02B080BD80B582B0AB
:101E500001900198D0F8DC0308F0F4FC02B080BDDA
:101E600080B582B00190019800680AF0C3FB02B00F
:101E700080BD000080B582B001900198D0F8DC03ED
:101E800008F054FC02B080BD80B582B00090FFE73E
:101E9000009890F8D403012804D1FFE702208DF8C0
:101EA000070018E00099012081F8D403FFE7FFE75D
:101EB00000980068012109F0DDFC0098006809F035
:101EC0000DFDFFE70099002081F8D403FFE7002013
:101ED0008DF80700FFE79DF8070002B080BD000005
:101EE00080B582B00090FFE7009890F8D4030128F5
:101EF00004D1FFE702208DF8070013E000990120CC
:101F000081F8D403FFE7FFE7009800680AF008FCB7
:101F1000FFE70099002081F8D403FFE700208DF847
:101F20000700FFE79DF8070002B080BD80B58EB0C6
:101F30000C900C9820B9FFE701208DF8370043E1A1
:101F40000C9890F83D0040B9FFE70C99002081F80B
:101F50003C000C9800F062FCFFE70C99242081F80B
:101F60003D000C980168086820F0010008600C989A
:101F70000168086840F4004008600C98016808682F
:101F800020F40040086000F0AFFE0A900C98406812
:101F900048F2A061C0F2010188420BD8FFE70A991C
:101FA00048F28042C0F21E020020914238BF012058
:101FB00009900AE00A9940F60012C0F23D020020A2
:101FC000914238BF01200990FFE70998012804D108
:101FD000FFE701208DF83700F6E00A984DF683619F
:101FE000C4F21B31A0FB0110800C0B900C98006810
:101FF000406820F03F000B9908430C99096848603D
:102000000C980068006A20F03F0008900C98406827
:1020100048F2A061C0F20101884204D8FFE70B98A2
:10202000013007900EE00B984FF49671484344F648
:10203000D351C1F26201A0FB0101012000EB91101C
:102040000790FFE70898079908430C990968086208
:102050000C980068C0694CF6FF71884306900C9894
:10206000406848F2A061C0F2010188421FD8FFE732
:102070000A9801380C9949684900B0FBF1F0013029
:102080006FF31F30032803D8FFE7042005900BE00F
:102090000A9801380C9949684900B0FBF1F0013009
:1020A0006FF31F300590FFE7059804904CE00C9803
:1020B000806868B9FFE70A9801380C99496801EB14
:1020C0004101B0FBF1F001306FF31F3003900DE0E0
:1020D0000A9801380C99496819225143B0FBF1F074
:1020E0000130042161F31F300390FFE703980005DE
:1020F00018B9FFE70120029023E00C98806868B9C6
:10210000FFE70A9801380C99496801EB4101B0FBDF
:10211000F1F001306FF31F3001900DE00A980138A3
:102120000C99496819225143B0FBF1F001300421A8
:1021300061F31F300190FFE7019840F400400290E6
:10214000FFE702980490FFE70698049908430C996A
:102150000968C8610C980068006820F0C0000C9BFA
:102160001968DA691B6A1A43104308600C98006802
:10217000806848F2FF3188430C9A1168D36812696D
:102180001A43104388600C980068C06820F0FF0074
:102190000C9B19685A699B691A431043C8600C98D4
:1021A0000168086840F0010008600C99002008648C
:1021B0000C9A202182F83D100C9908630C9981F843
:1021C0003E008DF83700FFE79DF837000EB080BD68
:1021D00080B588B0DDF828C00690ADF816100492DE
:1021E000ADF80E30FFF728F90290069890F83D0000
:1021F000202840F0E980FFE7069802996A461160BE
:102200000221C0F210010122192304F08BF820B141
:10221000FFE702208DF81F00DAE0FFE7069890F84C
:102220003C00012804D1FFE702208DF81F00CFE019
:102230000699012081F83C00FFE7FFE70698006857
:102240000068C00738B9FFE706980168086840F0E1
:1022500001000860FFE706980168086820F4006044
:1022600008600699212081F83D000699102081F828
:102270003E00069900200864049806994862BDF85B
:102280000E00069948850698408D0699088506999E
:102290000020CFF6FF70C8620698BDF816100A9AA3
:1022A000029B03F06DFE20B1FFE701208DF81F00B7
:1022B0008EE0FFE7002001900698006840690190D9
:1022C00006980068806901900198FFE7FFE706988B
:1022D000008D002860D0FFE706980A99029A04F062
:1022E000BDF980B1FFE70698006C042807D1FFE72D
:1022F00006980168086840F400700860FFE7012054
:102300008DF81F0064E006980168406A0078086153
:102310000699486A013048620699488D0138488517
:102320000699088D0138088506980068406900F014
:1023300004010120B0EB910F16D1FFE70698008D44
:1023400090B1FFE706980168406A00780861069935
:10235000486A013048620699488D013848850699D7
:10236000088D01380885FFE706980A99029A03F05C
:1023700083FF80B1FFE70698006C042807D1FFE7D0
:1023800006980168086840F400700860FFE70120C3
:102390008DF81F001CE09AE706980168086840F471
:1023A000007008600699202081F83D000699002001
:1023B00081F83E00FFE70699002081F83C00FFE726
:1023C00000208DF81F0003E002208DF81F00FFE7BA
:1023D0009DF81F0008B080BD10B58CB084461098E1
:1023E0000F98DDF838E0CDF828C0ADF82610ADF82C
:1023F0002420ADF82230ADF82000FFF71DF807903B
:102400000A9890F83D00202840F00082FFE70A98E3
:1024100007996A4611600221C0F2100101221923B6
:1024200003F080FF20B1FFE702208DF82F00F1E1DB
:10243000FFE70A9890F83C00012804D1FFE702204A
:102440008DF82F00E6E10A99012081F83C00FFE7B2
:10245000FFE70A9800680068C00738B9FFE70A98E4
:102460000168086840F001000860FFE70A98016809
:10247000086820F4006008600A99222081F83D0075
:102480000A99402081F83E000A99002008640E98BD
:102490000A994862BDF820000A9948850A98408D3B
:1024A0000A9908850A990020CFF6FF70C8620A9839
:1024B000BDF82610BDF82420BDF82230DDF840C05C
:1024C000079CEE46CEF80440CEF800C003F0E2FDD3
:1024D00020B1FFE701208DF82F009BE10A98008DC5
:1024E000A0B9FFE7FFE7002006900A98006840695E
:1024F00006900A980068806906900698FFE70A9897
:102500000168086840F4007008604DE00A98008D8A
:1025100001281AD1FFE70A980168086820F4806052
:102520000860FFE7002005900A9800684069059060
:102530000A980068806905900598FFE70A98016885
:10254000086840F4007008602DE00A98008D0228A9
:102550001AD1FFE70A980168086820F480600860D3
:102560000A980168086840F400600860FFE70020EE
:1025700004900A980068406904900A98006880698D
:1025800004900498FFE70DE0FFE7002003900A980D
:102590000068406903900A98006880690390039876
:1025A000FFE7FFE7FFE7FFE7FFE70A98008D002856
:1025B00000F01A81FFE70A98008D032800F2CC8012
:1025C000FFE70A98008D01281ED1FFE70A981099AD
:1025D000079A03F0D5FF20B1FFE701208DF82F0007
:1025E00018E10A98006800690A99496A08700A990E
:1025F000486A013048620A99088D013808850A99AD
:10260000488D01384885A6E00A98008D02283CD103
:10261000FFE70A98109B07996A4611600421C0F2EF
:102620000101002203F07EFE20B1FFE701208DF8BA
:102630002F00EFE00A980168086840F40070086015
:102640000A98006800690A99496A08700A99486AF4
:10265000013048620A99088D013808850A99488D29
:10266000013848850A98006800690A99496A087023
:102670000A99486A013048620A99088D013808852C
:102680000A99488D0138488564E00A98109B07999B
:102690006A4611600421C0F20101002203F042FEEB
:1026A00020B1FFE701208DF82F00B3E00A98016800
:1026B000086820F4806008600A98006800690A9938
:1026C000496A08700A99486A013048620A99088D77
:1026D000013808850A99488D013848850A98109B69
:1026E00007996A4611600421C0F20101002203F03B
:1026F00019FE20B1FFE701208DF82F008AE00A982B
:102700000168086840F4007008600A980068006971
:102710000A99496A08700A99486A013048620A9918
:10272000088D013808850A99488D013848850A982E
:10273000006800690A99496A08700A99486A013074
:1027400048620A99088D013808850A99488D013830
:102750004885FFE7FFE746E00A981099079A03F0DB
:102760000FFF20B1FFE701208DF82F0052E00A98FB
:10277000006800690A99496A08700A99486A013034
:1027800048620A99088D013808850A99488D0138F0
:1027900048850A980068406900F004010120B0EB08
:1027A000910F1FD1FFE70A98008D032807D1FFE79B
:1027B0000A980168086820F480600860FFE70A98BA
:1027C000006800690A99496A08700A99486A0130E4
:1027D00048620A99088D013808850A99488D0138A0
:1027E0004885FFE7FFE7E0E60A99202081F83D00F1
:1027F0000A99002081F83E00FFE70A99002081F83D
:102800003C00FFE700208DF82F0003E002208DF848
:102810002F00FFE79DF82F000CB010BD80B58EB0E3
:102820000D9000200C900B900A90099008900D9844
:10283000006845F60041C4F2000188425FD1FFE71D
:10284000FFE70020079043F63000C4F20200016861
:1028500041F004010160006800F00400079007984F
:10286000FFE7FFE70020069043F63000C4F20200C5
:10287000016841F001010160006800F0010006906C
:102880000698FFE74FF4007008901220009009901E
:10289000002001900A90032002900B9004200390E6
:1028A0000C9040F60000C4F2020008A90491FEF763
:1028B000A3FBDDF800C0019B029A039804994FF432
:1028C000807ECDF820E0CDF824C00A930B920C90C6
:1028D0000020C4F20200FEF78FFBFFE70020059006
:1028E00043F64000C4F20200016841F400010160B7
:1028F000006800F4000005900598FFE7FFE70EB0C0
:1029000080BD000040F2B000C2F20000027840F644
:10291000F031C2F2000108681044086070470000FE
:1029200080B582B043F60041C4F20201086840F469
:1029300000700860086840F480600860086840F42F
:1029400080700860032000F08FF80020019000F0F4
:1029500005F800F03BF8019802B080BD80B582B068
:10296000009040F22400C2F20000006840F2B00182
:10297000C2F200010A784FF47A71B1FBF2F1B0FBB8
:10298000F1F001F0B5F920B1FFE701208DF8070063
:1029900018E000980F280DD8FFE700994FF0FF309E
:1029A000002200F047F8009840F2B401C2F20001A2
:1029B000086003E001208DF8070003E000208DF897
:1029C0000700FFE79DF8070002B080BD80B582B028
:1029D000FFE70020019043F64400C4F202000168C2
:1029E00041F480410160006800F48040019001984A
:1029F000FFE7FFE70020009043F64000C4F202002A
:102A0000016841F080510160006800F08050009042
:102A10000098FFE7072000F027F802B080BD000013
:102A200080B582B08DF807009DF9070009F090FF8E
:102A300002B080BD80B586B08DF817000491039276
:102A40000020029009F09CFF02909DF91700019070
:102A500002980499039A05F0EDF90146019809F0EE
:102A600097FF06B080BD000080B582B0019001984C
:102A700009F0B0FF02B080BD80B584B00290019132
:102A8000029820B9FFE701208DF80F0021E101989D
:102A900043F60041C4F20201096801F007018842CF
:102AA00012D9FFE7019943F60040C4F20200017019
:102AB000006800F007000199884204D0FFE7012078
:102AC0008DF80F0005E1FFE70298007880070028E5
:102AD0002AD5FFE7029800784007002809D5FFE7CC
:102AE00043F60801C4F20201086840F4E0500860AF
:102AF000FFE7029800780007002809D5FFE743F6B2
:102B00000801C4F20201086840F460400860FFE771
:102B100043F60801C4F20201086820F0F000029AAE
:102B2000926810430860FFE702980078C007002809
:102B30006ED0FFE702984068012811D1FFE743F605
:102B40000000C4F20200006800F400310020B0EB85
:102B5000514F04D1FFE701208DF80F00B9E02CE0C0
:102B600002984068022805D0FFE7029840680328D1
:102B700011D1FFE743F60000C4F20200006800F044
:102B800000710020B0EB516F04D1FFE701208DF8F8
:102B90000F009EE010E043F60000C4F2020000685F
:102BA00000F002010020B0EB510F04D1FFE701203B
:102BB0008DF80F008DE0FFE7FFE743F60801C4F250
:102BC0000201086820F00300029A5268104308606E
:102BD000FEF732FC0090FFE743F60800C4F2020063
:102BE000006800F00C0002994968B0EB810F0ED02C
:102BF000FFE7FEF721FC0099401A41F28931884233
:102C000004D3FFE703208DF80F0062E0E4E7FFE75D
:102C1000019843F60041C4F20201096801F007017E
:102C2000884212D2FFE7019943F60040C4F2020045
:102C30000170006800F007000199884204D0FFE7A6
:102C400001208DF80F0044E0FFE70298007840076C
:102C500000280CD5FFE743F60801C4F2020108681A
:102C600020F4E050029AD26810430860FFE702980F
:102C70000078000700280DD5FFE743F60801C4F2ED
:102C80000201086820F46040029A126940EAC2001A
:102C90000860FFE700F04CF843F60801C4F20201B7
:102CA0000968C9B20A094DF6C261C0F60001895C23
:102CB000C84040F22401C2F20001086040F2B400B2
:102CC000C2F200000068FFF749FE00208DF80F00F7
:102CD000FFE79DF80F0004B080BD000040F2240023
:102CE000C2F200000068704780B5FFF7F7FF43F6B7
:102CF0000801C4F202010968C1F382224DF6D261D3
:102D0000C0F60001895CC84080BD000080B5FFF7B7
:102D1000E5FF43F60801C4F20201096889B24A0BD3
:102D20004DF6D261C0F60001895CC84080BD00004C
:102D300080B586B00020059004900390029043F681
:102D40000800C4F20200006800F00C000146019186
:102D500040B1FFE7019804280AD0FFE7019808284E
:102D60000CD04FE042F20040C0F2F40002904FE07D
:102D700041F20020C0F27A00029049E043F60400DC
:102D8000C4F20200016801F03F01059100684002B1
:102D9000002813D5FFE743F60400C4F202000068E0
:102DA000C0F3881041F20021C0F27A01A0FB0101BA
:102DB000059A0023FDF7BAFA049012E043F60400E6
:102DC000C4F202000068C0F3881042F20041C0F271
:102DD000F401A0FB0101059A0023FDF7A7FA049076
:102DE000FFE743F60400C4F20200006800F440313B
:102DF000022000EBD130039004980399B0FBF1F06E
:102E0000029005E042F20040C0F2F4000290FFE7B9
:102E1000029806B080BD000080B586B0049004988A
:102E200020B9FFE701208DF8170050E304980078DF
:102E3000C007002800F0A580FFE743F60800C4F2B1
:102E40000200006800F00C00042813D0FFE743F6EE
:102E50000800C4F20200006800F00C0008281ED12F
:102E6000FFE743F60400C4F20200006840020028B5
:102E700015D5FFE743F60000C4F20200006800F435
:102E800000310020B0EB514F08D0FFE704984068B4
:102E900020B9FFE701208DF8170018E370E0FFE785
:102EA00004984068B0F5803F09D1FFE743F6000180
:102EB000C4F20201086840F48030086020E0049801
:102EC0004068B0F5A02F0DD1FFE743F60001C4F232
:102ED0000201086840F480200860086840F48030EF
:102EE00008600CE043F60001C4F20201086820F417
:102EF00080300860086820F480200860FFE7FFE762
:102F0000FFE704984068E8B1FFE7FEF795FA039001
:102F1000FFE743F60000C4F20200006800F400314D
:102F20000020B0EB514F0CD1FFE7FEF785FA039973
:102F3000401A652804D3FFE703208DF81700C6E286
:102F4000E7E71CE0FEF778FA0390FFE743F600009E
:102F5000C4F20200006800F400310020B0EB514FD1
:102F60000CD0FFE7FEF768FA0399401A652804D3EE
:102F7000FFE703208DF81700A9E2E7E7FFE7FFE787
:102F8000FFE7049800788007002840F19680FFE76B
:102F900043F60800C4F20200006810F00C0F13D0D2
:102FA000FFE743F60800C4F20200006800F00C00DE
:102FB00008282CD1FFE743F60400C4F202000068A1
:102FC0004002002823D4FFE743F60000C4F20200C9
:102FD000006800F002010020B0EB510F09D0FFE7BC
:102FE0000498C068012804D0FFE701208DF817007D
:102FF0006DE243F60001C4F20201086820F0F80017
:10300000049A126940EAC2000860FFE754E004989D
:10301000C06870B3FFE70021C4F2472101200860B7
:10302000FEF70AFA0390FFE743F60000C4F202003D
:10303000006800F002010020B0EB510F0CD1FFE757
:10304000FEF7FAF90399401A032804D3FFE7032097
:103050008DF817003BE2E7E743F60001C4F20201F6
:10306000086820F0F800049A126940EAC20008607B
:1030700021E00021C4F2472100200860FEF7DCF9BE
:103080000390FFE743F60000C4F20200006800F07E
:1030900002010020B0EB510F0CD0FFE7FEF7CCF996
:1030A0000399401A032804D3FFE703208DF8170083
:1030B0000DE2E7E7FFE7FFE7FFE704980078000786
:1030C00000284BD5FFE70498406918B3FFE740F6A6
:1030D0008061C4F2472101200860FEF7ADF903903A
:1030E000FFE743F67400C4F20200006800F002013A
:1030F0000020B0EB510F0CD1FFE7FEF79DF90399CB
:10310000401A032804D3FFE703208DF81700DEE1FF
:10311000E7E722E040F68061C4F247210020086022
:10312000FEF78AF90390FFE743F67400C4F2020049
:10313000006800F002010020B0EB510F0CD0FFE757
:10314000FEF77AF90399401A032804D3FFE7032016
:103150008DF81700BBE1E7E7FFE7FFE70498007889
:103160004007002840F1CE80FFE700208DF80700DF
:1031700043F64000C4F202000068C000002815D4E5
:10318000FFE7FFE70020009043F64000C4F2020092
:10319000016841F080510160006800F080500090AB
:1031A0000098FFE701208DF80700FFE747F20000D5
:1031B000C4F200000068C005002822D4FFE747F2EF
:1031C0000001C4F20001086840F480700860FEF756
:1031D00033F90390FFE747F20000C4F200000068F3
:1031E000C00500280CD4FFE7FEF726F90399401A22
:1031F000032804D3FFE703208DF8170067E1EAE70F
:10320000FFE7FFE704988068012809D1FFE743F64C
:103210007001C4F20201086840F0010008601FE07C
:103220000498806805280DD1FFE743F67001C4F2C9
:103230000201086840F004000860086840F00100DE
:1032400008600CE043F67001C4F20201086820F047
:1032500001000860086820F004000860FFE7FFE74D
:10326000FFE704988068F8B1FFE7FEF7E5F8039000
:10327000FFE743F67000C4F20200006800F00201AC
:103280000020B0EB510F0ED1FFE7FEF7D5F8039900
:10329000401A41F28931884204D3FFE703208DF8B8
:1032A000170014E1E5E71EE0FEF7C6F80390FFE71C
:1032B00043F67000C4F20200006800F00201002032
:1032C000B0EB510F0ED0FFE7FEF7B6F80399401AA6
:1032D00041F28931884204D3FFE703208DF81700BB
:1032E000F5E0E5E7FFE79DF80700012809D1FFE7D2
:1032F00043F64001C4F20201086820F080500860E3
:10330000FFE7FFE704988069002800F0DC80FFE712
:1033100043F60800C4F20200006800F00C00082820
:1033200000F08580FFE70498806902285CD1FFE700
:103330006021C4F2472100200860FEF77DF8039069
:10334000FFE743F60000C4F20200006800F00071DD
:103350000020B0EB516F0CD0FFE7FEF76DF803993A
:10336000401A032804D3FFE703208DF81700AEE0CE
:10337000E7E70499C869D1F820C04B6A8A6A40EA35
:103380000C0040EA8310D2034FF6FF739A43A2F574
:1033900080321043C96A40EA016043F60401C4F276
:1033A000020108606021C4F2472101200860FEF795
:1033B00043F80390FFE743F60000C4F20200006800
:1033C00000F000710020B0EB516F0CD1FFE7FEF769
:1033D00033F80399401A032804D3FFE703208DF83C
:1033E000170074E0E7E721E06021C4F247210020E4
:1033F0000860FEF721F80390FFE743F60000C4F2EF
:103400000200006800F000710020B0EB516F0CD09A
:10341000FFE7FEF711F80399401A032804D3FFE7EA
:1034200003208DF8170052E0E7E7FFE74AE0049831
:103430008069012804D1FFE701208DF8170046E0DC
:1034400043F60400C4F20200006802900498806908
:10345000012831D0FFE7029800F480000499C9697F
:10346000884229D1FFE7029800F03F000499096AD9
:10347000884221D1FFE7029847F6C07108400499BD
:10348000496AB0EB811F17D1FFE7029800F4403082
:103490000499896AC9034FF6FF729143A1F58031FF
:1034A000884209D1FFE7029800F070600499C96A68
:1034B000B0EB016F04D0FFE701208DF8170006E0A4
:1034C000FFE7FFE7FFE700208DF81700FFE79DF813
:1034D000170006B080BD000081B00090009890F801
:1034E000510001B07047000080B584B0029002988E
:1034F00020B9FFE701208DF80F0071E00298406AC3
:1035000060B9FFE702984068B0F5827F01D1FFE71C
:1035100003E002990020C861FFE705E0029900205E
:10352000086102994861FFE70299002088620298C9
:1035300090F8510040B9FFE70299002081F850004F
:10354000029800F051F8FFE70299022081F851003B
:1035500002980168086820F040000860029A019211
:1035600011685068D2F808C0D36800F482700CF477
:10357000044C604403F400631844136903F002032D
:103580001844536903F001031844936903F400736A
:103590001844D36903F038031844136A03F0800316
:1035A0001843926A02F4005210430860029A508B4A
:1035B00000F004001168526A02F0100210444860E2
:1035C00002980168C86920F40060C861029900206F
:1035D0004865029A012182F851108DF80F00FFE72B
:1035E0009DF80F0004B080BD80B58EB00D90002016
:1035F0000C900B900A90099008900D98006843F683
:103600000001C4F2000188425FD1FFE7FFE700201C
:10361000079043F64000C4F20200016841F4804183
:103620000160006800F4804007900798FFE7FFE71B
:103630000020069043F63000C4F20200016841F019
:1036400004010160006800F0040006900698FFE79E
:10365000FFE70020059043F63000C4F20200016845
:1036600041F002010160006800F002000590059839
:10367000FFE70420089002200090099000200190AC
:103680000A90032002900B90052003900C9040F6C6
:103690000000C4F2020008A90491FDF7ADFCDDF8BA
:1036A00000C0019B029A039804994FF4204ECDF874
:1036B00020E0CDF824C00A930B920C9040F2004019
:1036C000C4F20200FDF798FCFFE70EB080BD0000D9
:1036D00080B588B006900591ADF8122003930020C4
:1036E0008DF80700FFE7069890F85000012804D1F4
:1036F000FFE702208DF81F0031E10699012081F8D3
:103700005000FFE7FFE7FDF797FE0290BDF81200BB
:10371000ADF80400069890F85100012804D0FFE7A6
:1037200002208DF807000FE1059820B1FFE7BDF8F2
:10373000120020B9FFE701208DF8070004E1069987
:10374000032081F851000699002048650599069AE2
:103750001163BDF81210069A9186BDF81210069AF0
:10376000D18606998863069988870699C88706993D
:1037700048640699086406988068B0F5004F0DD13A
:10378000FFE706980168086820F040000860069886
:103790000168086840F480400860FFE70698006808
:1037A000006800F04000402807D0FFE70698016855
:1037B000086840F040000860FFE70698C068B0F570
:1037C000006F4BD1FFE70698406828B1FFE7BDF8CE
:1037D000040001280ED1FFE706980168006B0088FD
:1037E000C8600699086B023008630699C88E0138D4
:1037F000C886FFE7FFE70698C08E70B3FFE706981C
:1038000000688068800700280ED5FFE706980168E9
:10381000006B0088C8600699086B0230086306993F
:10382000C88E0138C88617E0FDF706FE0299401AD7
:103830000399884204D3FFE70398013018B9FFE7E2
:10384000039840B9FFE703208DF80700069901208F
:1038500081F8510078E0FFE7CDE74AE0069840683C
:1038600028B1FFE7BDF8040001280ED1FFE7069854
:103870000168006B007808730699086B01300863D3
:103880000699C88E0138C886FFE7FFE70698C08E04
:1038900070B3FFE7069800688068800700280ED59F
:1038A000FFE706980168006B007808730699086BBB
:1038B000013008630699C88E0138C88617E0FDF705
:1038C000BBFD0299401A0399884204D3FFE703988D
:1038D000013018B9FFE7039840B9FFE703208DF8DE
:1038E00007000699012081F851002DE0FFE7CDE7A0
:1038F000FFE706980399029A05F024F820B1FFE744
:10390000069920204865FFE70698806870B9FFE7B0
:10391000FFE70020009006980068C06800900698B5
:103920000068806800900098FFE7FFE70698406D08
:1039300020B1FFE701208DF8070004E0069901207F
:1039400081F85100FFE7FFE7FFE70699002081F8C3
:103950005000FFE79DF807008DF81F00FFE79DF876
:103960001F0008B080BD000080B58EB0DDF840C0FB
:103970000C900B910A92ADF82630012005900020A2
:103980008DF81300FFE70C9890F85000012804D13F
:10399000FFE702208DF83700A6E10C99012081F89D
:1039A0005000FFE7FFE7FDF747FD06900C9890F801
:1039B00051008DF81F000C9840680890BDF8260053
:1039C000ADF824009DF81F00012812D0FFE70898E9
:1039D000B0F5827F09D1FFE70C98806828B9FFE72E
:1039E0009DF81F00042804D0FFE702208DF8130083
:1039F0006FE10B9838B1FFE70A9820B1FFE7BDF8F7
:103A0000260020B9FFE701208DF8130061E10C9832
:103A100090F85100042805D0FFE70C99052081F8A3
:103A20005100FFE70C99002048650A990C9A9163B0
:103A3000BDF826100C9AD187BDF826100C9A9187F4
:103A40000B990C9A1163BDF826100C9AD186BDF81B
:103A500026100C9A91860C9908640C9948640C986D
:103A60000068006800F04000402807D0FFE70C988D
:103A70000168086840F040000860FFE70C98C068E3
:103A8000B0F5006F7AD1FFE70C98406828B1FFE7E6
:103A9000BDF8240001280ED1FFE70C980168006BE7
:103AA0000088C8600C99086B023008630C99C88EB6
:103AB0000138C886FFE7FFE70C98C18E012002900D
:103AC00039B9FFE70C98C08F002818BF0120029079
:103AD000FFE70298C00700284FD0FFE70C98006866
:103AE00080688007002818D5FFE70C98C08EA0B129
:103AF000FFE70598012810D1FFE70C980168006BDB
:103B00000088C8600C99086B023008630C99C88E55
:103B10000138C88600200590FFE70C98006880688F
:103B2000C007A8B1FFE70C98C08F88B1FFE70C98D9
:103B30000068C0680C99896B08800C99886B02300A
:103B400088630C99C88F0138C88701200590FFE76A
:103B5000FDF772FC0699401A109988420CD3FFE7D2
:103B60001098013040B1FFE703208DF813000C9945
:103B7000012081F85100ACE09EE77CE00C984068A1
:103B800028B1FFE7BDF8240001280ED1FFE70C980B
:103B90000168006B007808730C99086B01300863AA
:103BA0000C99C88E0138C886FFE7FFE70C98C18ED4
:103BB0000120019039B9FFE70C98C08F002818BF89
:103BC00001200190FFE70198C007002852D0FFE7CD
:103BD0000C98006880688007002818D5FFE70C98CB
:103BE000C08EA0B1FFE70598012810D1FFE70C981F
:103BF0000168006B007808730C99086B013008634A
:103C00000C99C88E0138C88600200590FFE70C98F3
:103C100000688068C007A8B1FFE70C98C08F88B122
:103C2000FFE70C980068C0680C99896B08700C99C4
:103C3000886B013088630C99C88F0138C8870120D0
:103C40000590FFE7FDF7F8FB0699401A10998842A6
:103C500004D3FFE71098013018B9FFE7109840B976
:103C6000FFE703208DF813000C99012081F8510023
:103C70002FE09BE7FFE70C981099069A04F062FE8C
:103C800038B1FFE701208DF813000C99202048651A
:103C90001FE00C98806870B9FFE7FFE700200390F1
:103CA0000C980068C06803900C98006880680390C6
:103CB0000398FFE7FFE70C98406D20B1FFE7012074
:103CC0008DF8130004E00C99012081F85100FFE702
:103CD000FFE7FFE70C99002081F85000FFE79DF80F
:103CE00013008DF83700FFE79DF837000EB080BD58
:103CF00080B582B00190019804F086FF02B080BDCB
:103D000081B0009001B0704781B0009001B0704761
:103D100085B003900291FFE7039890F83C000128DA
:103D200004D1FFE702208DF813007EE00399012003
:103D300081F83C00FFE7FFE70399022081F83D008E
:103D400003980068406801900398006880680090BC
:103D5000019820F0700001900298016801980843D2
:103D60000190019803990968486003980068002150
:103D7000C4F2010188423CD0FFE703980068B0F12B
:103D8000804F36D0FFE70398006840F20041C4F24C
:103D9000000188422DD0FFE70398006840F600013B
:103DA000C4F20001884224D0FFE70398006840F67F
:103DB0000041C4F2000188421BD0FFE7039800686D
:103DC00040F20041C4F20101884212D0FFE703989B
:103DD000006844F20001C4F20101884209D0FFE703
:103DE0000398006841F60001C4F2000188420ED138
:103DF000FFE7009820F0800000900298416800984A
:103E0000084300900098039909688860FFE70399C8
:103E1000012081F83D00FFE70399002081F83C0074
:103E2000FFE700208DF81300FFE79DF8130005B0B1
:103E30007047000080B582B00090009820B9FFE77D
:103E400001208DF807003FE0009890F83D0040B950
:103E5000FFE70099002081F83C00009800F038F856
:103E6000FFE70099022081F83D00009951F8040B0A
:103E700004F07EFF0099012081F84600FFE70099D9
:103E8000012081F83E00009981F83F00009981F8F7
:103E90004000009981F84100FFE7FFE70099012009
:103EA00081F84200009981F84300009981F84400AC
:103EB000009981F84500FFE70099012081F83D0055
:103EC00000208DF80700FFE79DF8070002B080BDD5
:103ED00080B584B003900398006840F20041C4F2BA
:103EE000000188421BD1FFE7FFE70020029043F664
:103EF0004000C4F20200016841F002010160006864
:103F000000F0020002900298FFE71D2001900022BD
:103F10001146FEF78FFD0198FEF782FDFFE704B022
:103F200080BD000083B00190019890F83D00012809
:103F300004D0FFE701208DF80B006AE00199022010
:103F400081F83D0001980168C86840F00100C86030
:103F5000019800680021C4F2010188423CD0FFE7CB
:103F600001980068B0F1804F36D0FFE701980068F3
:103F700040F20041C4F2000188422DD0FFE70198D1
:103F8000006840F60001C4F20001884224D0FFE737
:103F90000198006840F60041C4F2000188421BD03D
:103FA000FFE70198006840F20041C4F20101884235
:103FB00012D0FFE70198006844F20001C4F2010149
:103FC000884209D0FFE70198006841F60001C4F279
:103FD0000001884212D1FFE701980068806800F074
:103FE000070000900098062807D0FFE701980168B5
:103FF000086840F001000860FFE706E001980168EA
:10400000086840F001000860FFE700208DF80B0011
:10401000FFE79DF80B0003B07047000080B586B045
:104020000490039100208DF80B00FFE7049890F8AE
:104030003C00012804D1FFE702208DF81700ABE017
:104040000499012081F83C00FFE7FFE70499022072
:1040500081F83D000498006880680190019820F084
:1040600077000190019820F47F4001900198049915
:1040700009688860039800680090002872D0FFE704
:10408000009810286ED0FFE7009820286AD0FFE73C
:104090000098302866D0FFE70098402855D0FFE709
:1040A0000098502837D0FFE70098602840D0FFE7FD
:1040B000009870280BD0FFE70098B0F5805F05D01E
:1040C000FFE70098B0F5005F16D052E055E0049885
:1040D0000068039B5A689968DB6804F021FF049824
:1040E000006880680190019840F077000190019885
:1040F00004990968886040E004980068039B5A6846
:104100009968DB6804F00CFF04980168886840F443
:104110008040886031E004980068039A5168D26852
:1041200004F02EFF04980068502104F013FF24E0EF
:1041300004980068039A5168D26804F049FF049813
:104140000068602104F006FF17E004980068039AF5
:104150005168D26804F014FF04980068402104F00C
:10416000F9FE0AE0049800680399096804F0F2FE79
:1041700003E001208DF80B00FFE70499012081F88E
:104180003D00FFE70499002081F83C00FFE79DF81F
:104190000B008DF81700FFE79DF8170006B080BDF3
:1041A00081B0009001B0704780B584B0039003984F
:1041B0000068C068029003980068006901909DF84B
:1041C00004008007002824D5FFE79DF80800800739
:1041D00000281DD5FFE7039801686FF00200086111
:1041E000039901200877039800688069800720B14F
:1041F000FFE70398FFF7D4FF06E0039800F0E2F82A
:10420000039800F0E3F8FFE7039900200877FFE741
:10421000FFE79DF804004007002825D5FFE79DF83B
:104220000800400700281ED5FFE7039801686FF0DB
:1042300004000861039902200877039800688069E8
:1042400010F4407F04D0FFE70398FFF7A9FF06E0D2
:10425000039800F0B7F8039800F0B8F8FFE7039967
:1042600000200877FFE7FFE79DF80400000700281B
:1042700024D5FFE79DF80800000700281DD5FFE7BB
:10428000039801686FF0080008610399042008771B
:1042900003980068C069800720B1FFE70398FFF723
:1042A0007FFF06E0039800F08DF8039800F08EF889
:1042B000FFE7039900200877FFE7FFE79DF8040078
:1042C000C006002825D5FFE79DF80800C006002895
:1042D0001ED5FFE7039801686FF01000086103998D
:1042E0000820087703980068C06910F4407F04D064
:1042F000FFE70398FFF754FF06E0039800F062F829
:10430000039800F063F8FFE7039900200877FFE7C0
:10431000FFE79DF80400C00778B1FFE79DF80800AB
:10432000C00748B1FFE7039801686FF0010008611A
:10433000039800F04FF8FFE7FFE79DF80400000640
:10434000002810D5FFE79DF808000006002809D5D1
:10435000FFE7039801686FF0800008610398FFF79A
:10436000CFFCFFE7FFE79DF804004006002810D5CA
:10437000FFE79DF808004006002809D5FFE70398ED
:1043800001686FF040000861039800F07BF8FFE7D8
:10439000FFE79DF804008006002810D5FFE79DF890
:1043A00008008006002809D5FFE7039801686FF030
:1043B000200008610398FFF7A7FCFFE7FFE704B0C0
:1043C00080BD000081B0009001B0704781B00090C6
:1043D00001B0704780B582B001900198006840F646
:1043E0004821C2F200010968884249D1FFE7002054
:1043F00002F09AFB40F62430C2F2000000780F2849
:1044000031DCFFE740F62430C2F20000017840F6CC
:10441000E030C2F20000405C01281CD1FFE740F60A
:104420003431C2F2000101200870FDF705F840F6B2
:10443000D031C2F20001002200924A600860FCF70D
:10444000FBFF009A40F6C831C2F200014A600860E2
:1044500008F040FFFFE740F62431C2F2000108787F
:10446000013008700BE040F62431C2F20001002058
:10447000087040F63431C2F200010870FFE7FFE730
:1044800002B080BD81B0009001B0704780B582B0AD
:104490000090009820B9FFE701208DF8070040E068
:1044A0000098806908B1FFE700E0FFE7009890F806
:1044B000410040B9FFE70099002081F840000098D2
:1044C00000F034F8FFE70099242081F841000098BB
:1044D0000168C86820F40050C860009804F0ECFD42
:1044E00000980168086920F490400861009801680C
:1044F000486920F02A00486100980168C86840F4C3
:104500000050C860009900204864009A202182F879
:104510004110009A82F84210009948638DF8070014
:10452000FFE79DF8070002B080BD000080B58AB0AB
:104530000990002008900790069005900490099833
:10454000006844F20041C4F20001884233D1FFE721
:10455000FFE70020039043F64000C4F20200016828
:1045600041F400310160006800F4003003900398CA
:10457000FFE7FFE70020029043F63000C4F202009C
:10458000016841F001010160006800F00100029043
:104590000298FFE70C20049002200590002006906E
:1045A00003200790072008900020C4F2020004A90D
:1045B000FCF722FD3EE00998006844F60001C4F2D1
:1045C0000001884235D1FFE7FFE70020019043F664
:1045D0004000C4F20200016841F4802101600068DB
:1045E00000F4802001900198FFE7FFE70020009091
:1045F00043F63000C4F20200016841F00801016096
:10460000006800F0080000900098FFE74FF4407049
:1046100004900220059000200690032007900720B8
:10462000089040F60040C4F2020004A9FCF7E4FC44
:10463000FFE7FFE70AB080BD80B58AB00890079118
:10464000ADF81A20059300200290089890F84200D7
:10465000202840F08880FFE7079820B1FFE7BDF8E9
:104660001A0020B9FFE701208DF827007FE00899A4
:1046700000204864089A222182F8421008990863B1
:10468000FCF7DAFE0290BDF81A0008998885BDF89B
:104690001A000899C88508988068B0F5805F09D12C
:1046A000FFE70898006928B9FFE700200490079801
:1046B000039004E00798049000200390FFE7FFE7D1
:1046C0000898C08D002846D0FFE70898029B0599FE
:1046D0006A4611602021002204F08CFD40B1FFE702
:1046E0000899202081F8420003208DF827003EE041
:1046F000049858B9FFE70898006840686FF35F2096
:10470000039908800398023003901FE0089880689E
:10471000B0F5805F08D0FFE70898806850B9FFE7E0
:104720000898006930B9FFE7089800684068049964
:10473000087007E008980068406800F07F0004995E
:104740000870FFE7049801300490FFE70899C88DCE
:104750000138C885B4E70899202081F8420000207C
:104760008DF8270003E002208DF82700FFE79DF871
:1047700027000AB080BD000080B58AB0089007917C
:10478000ADF81A20059300200290089890F8410097
:10479000202840F08180FFE7079820B1FFE7BDF8AF
:1047A0001A0020B9FFE701208DF8270078E008996A
:1047B000002048640899212081F84100FCF73CFE64
:1047C0000290BDF81A0008998884BDF81A0008996B
:1047D000C88408988068B0F5805F09D1FFE7089821
:1047E000006928B9FFE7002004900798039004E0CF
:1047F0000798049000200390FFE7FFE70898C08C1B
:1048000078B3FFE70898029B05996A4611608021FA
:10481000002204F0EFFC40B1FFE70899202081F866
:10482000410003208DF827003AE0049858B9FFE7CB
:10483000039800886FF35F2008990968486003981F
:104840000230039008E004980078089909684860ED
:10485000049801300490FFE70899C88C0138C88497
:10486000CCE70898029B05996A4611604021002216
:1048700004F0C0FC40B1FFE70899202081F8410016
:1048800003208DF827000BE00899202081F84100D3
:1048900000208DF8270003E002208DF82700FFE7B5
:1048A0009DF827000AB080BD80B586B005908DF8D0
:1048B000131005980068039003980290059800680B
:1048C0009DF8131007F012FE4007002819D5FFE7E6
:1048D00002989DF8131000EB41110420C1F808055F
:1048E00005989DF81310C1EB011100EB8101072021
:1048F00081F84D00059800689DF8131007F092F8B4
:1049000092E0059800689DF8131007F0EFFDC005D0
:1049100000281AD5FFE702989DF8131000EB41110B
:104920004FF48070C1F8080505989DF81310C1EB8D
:10493000011100EB8101082081F84D000598006805
:104940009DF8131007F06EF86DE0059800689DF86B
:10495000131007F0CBFD0007002819D5FFE70298D8
:104960009DF8131000EB41110820C1F808050598C7
:104970009DF81310C1EB011100EB8101062081F8B5
:104980004D00059800689DF8131007F04BF849E0BA
:10499000059800689DF8131007F0A8FD4005002851
:1049A0001AD5FFE702989DF8131000EB41114FF460
:1049B0008060C1F8080505989DF81310C1EB01113E
:1049C00000EB8101092081F84D00059800689DF8F1
:1049D000131007F027F824E0059800689DF81310DD
:1049E00007F084FD0006002819D5FFE702989DF81E
:1049F000131000EB41118020C1F8080505989DF8BF
:104A00001310C1EB011100EB8101072081F84D006B
:104A1000059800689DF8131007F004F800E0FFE720
:104A2000FFE7FFE7FFE7FFE7059800689DF8131031
:104A300007F05CFD8005002811D5FFE705980068A8
:104A40009DF8131006F0EEFF02989DF8131000EB8E
:104A500041114FF40070C1F8080500F003BD05983E
:104A600000689DF8131007F041FDC007002800F012
:104A7000F580FFE702989DF8131000EB411120200C
:104A8000C1F8080505989DF81310C1EB011100EB62
:104A90008100C07E012815D1FFE705989DF813100D
:104AA000C1EB011100EB81010020C87602989DF84E
:104AB000131000EB4111D1F8040520F48030C1F847
:104AC0000405FFE705988079C8B1FFE705989DF8D0
:104AD0001320C2EB021100EB8100006B029901EB85
:104AE0004211D1F810156FF3DF41401A05999DF876
:104AF0001320C2EB021201EB82018863FFE70598E5
:104B00009DF81310C1EB011100EB8101012081F828
:104B10004D0005999DF81320C2EB021201EB8202B1
:104B20000021516402999DF8132001EB4211C1F854
:104B3000080505989DF81310C1EB011100EB8100E9
:104B400090F8260060B1FFE705989DF81310C1EBBF
:104B5000011100EB810090F8260002280FD1FFE739
:104B6000059800689DF8131006F05CFF02989DF808
:104B7000131000EB41111020C1F808053AE0059828
:104B80009DF81310C1EB011100EB810090F8260095
:104B900003280CD0FFE705989DF81310C1EB011115
:104BA00000EB810090F82600012821D1FFE7029850
:104BB0009DF8131000EB4111D1F8000540F00050B2
:104BC000C1F8000505989DF81310C1EB011100EB29
:104BD0008101012081F84C0005989DF81310C1EB6C
:104BE000011200EB820292F84C20FCF799FD00E0E4
:104BF000FFE7FFE70598807901281FD1FFE70598B7
:104C00009DF81310C1EB011100EB8101886B098D38
:104C100008440138B0FBF1F0C00770B1FFE7059818
:104C20009DF81310C1EB011100EB810191F83C00DC
:104C300080F0010081F83C00FFE70DE005989DF849
:104C40001310C1EB011100EB810191F83C0080F0E1
:104C5000010081F83C00FFE700F003BC0598006804
:104C60009DF8131007F042FC800600282ED5FFE7C0
:104C700002989DF8131000EB41112020C1F808059F
:104C800005989DF81310C1EB011100EB8100807EA7
:104C900001281AD1FFE705989DF81310C1EB011107
:104CA00000EB81010120C87605989DF81310C1EB37
:104CB000011100EB8101032081F84D000598006887
:104CC0009DF8131006F0AEFEFFE7C9E305980068F3
:104CD0009DF8131007F00AFC8007002840F1DD82E0
:104CE000FFE702989DF8131000EB41110220C1F874
:104CF000080505989DF81310C1EB011100EB810028
:104D000090F84D00012815D1FFE705989DF8131084
:104D1000C1EB011100EB8101022081F84D000598E3
:104D20009DF81310C1EB011100EB8101012081F806
:104D30004C00A6E205989DF81310C1EB011100EBA1
:104D4000810090F84D00062815D1FFE705989DF8E1
:104D50001310C1EB011100EB8101022081F84D001D
:104D600005989DF81310C1EB011100EB810105209E
:104D700081F84C0084E205989DF81310C1EB0111F5
:104D800000EB810090F84D0007280DD0FFE7059853
:104D90009DF81310C1EB011100EB810090F84D005C
:104DA000092840F09880FFE705989DF81310C1EBA3
:104DB000011100EB8101022081F84D0005989DF85A
:104DC0001310C1EB011100EB8101486C0130486404
:104DD00005989DF81310C1EB011100EB8100406CA8
:104DE00003283CD3FFE705989DF81310C1EB011190
:104DF00000EB81010020486405989DF81310C1EB79
:104E0000011100EB8100807E01281DD1FFE705988C
:104E10009DF81310C1EB011100EB81010020C87651
:104E200005999DF81320C2EB021201EB820108776D
:104E300002989DF8131000EB4111D1F8040520F4FD
:104E40008030C1F80405FFE705989DF81310C1EB09
:104E5000011100EB8101042081F84C003AE0059833
:104E60009DF81310C1EB011100EB8101022081F8C4
:104E70004C0005989DF81310C1EB011100EB810067
:104E800090F8260060B1FFE705989DF81310C1EB7C
:104E9000011100EB810090F82600022819D1FFE7EC
:104EA00002989DF8131000EB4110D0F80005019016
:104EB000019820F080400190019840F0004001905E
:104EC000019802999DF8132001EB4211C1F80005E9
:104ED000FFE7FFE7D3E105989DF81310C1EB01113F
:104EE00000EB810090F84D00052840F0BD80FFE701
:104EF00005989DF81310C1EB011100EB8101022010
:104F000081F84D0005989DF81310C1EB011100EBDD
:104F10008100C07E012840F0A680FFE705989DF83B
:104F20001310C1EB011100EB810090F8260003285B
:104F30005DD1FFE705989DF81310C1EB011100EB5F
:104F40008101886C0130886405989DF81310C1EBCD
:104F5000011100EB8100806C03283CD3FFE705982A
:104F60009DF81310C1EB011100EB81010020886452
:104F700005999DF81320C2EB021201EB8201C8765D
:104F800005989DF81310C1EB011100EB8100406CF6
:104F900002280AD8FFE705989DF81310C1EB01110C
:104FA00000EB810101200877FFE702989DF81310BC
:104FB00000EB4111D1F8040520F48030C1F804055C
:104FC00005989DF81310C1EB011100EB810104203D
:104FD00081F84C000AE005989DF81310C1EB01110F
:104FE00000EB8101022081F84C00FFE70AE0059800
:104FF0009DF81310C1EB011100EB8101022081F833
:105000004C00FFE705989DF81310C1EB011100EB70
:10501000810090F8260060B1FFE705989DF8131015
:10502000C1EB011100EB810090F82600022819D194
:10503000FFE702989DF8131000EB4110D0F800052F
:105040000190019820F080400190019840F00040CC
:105050000190019802999DF8132001EB4211C1F8CB
:105060000005FFE7FFE709E105989DF81310C1EB84
:10507000011100EB810090F84D00032872D1FFE789
:1050800005989DF81310C1EB011100EB810102207E
:1050900081F84D0005989DF81310C1EB011100EB4C
:1050A0008100C07E01285CD1FFE705989DF81310B0
:1050B000C1EB011100EB8101022081F84C00029844
:1050C0009DF8131000EB4111D1F8040540F4803035
:1050D000C1F8040502989DF8131000EB4111D1F8B6
:1050E0000C0540F04000C1F80C0502989DF8131023
:1050F00000EB4111D1F80C0520F02000C1F80C059F
:1051000005989DF81310C1EB011100EB810090F898
:10511000260060B1FFE705989DF81310C1EB01115F
:1051200000EB810090F82600022819D1FFE70298D1
:105130009DF8131000EB4110D0F800050190019884
:1051400020F080400190019840F0004001900198CB
:1051500002999DF8132001EB4211C1F80005FFE709
:10516000FFE78AE005989DF81310C1EB011100EBF1
:10517000810090F84D00042844D1FFE705989DF880
:105180001310C1EB011100EB8101022081F84D00E9
:1051900005999DF81320C2EB021201EB820181F800
:1051A0004C0005989DF81310C1EB011100EB810034
:1051B00090F8260060B1FFE705989DF81310C1EB49
:1051C000011100EB810090F82600022819D1FFE7B9
:1051D00002989DF8131000EB4110D0F800050190E3
:1051E000019820F080400190019840F0004001902B
:1051F000019802999DF8132001EB4211C1F80005B6
:10520000FFE739E005989DF81310C1EB011100EBA1
:10521000810090F84D0008281FD1FFE705989DF800
:105220001310C1EB011100EB8101022081F84D0048
:1052300005989DF81310C1EB011100EB8101486C3A
:105240000130486405989DF81310C1EB011100EB83
:105250008101042081F84C000DE005989DF81310A1
:10526000C1EB011100EB810090F84D00022801D143
:10527000FFE7F7E0FFE7FFE7FFE7FFE7FFE7FFE70D
:10528000FFE705989DF81310C1EB011200EB8202B5
:1052900092F84C20FCF744FAE1E0059800689DF88C
:1052A000131007F023F9400600282DD5FFE70298D8
:1052B0009DF8131000EB41114020C1F80805059836
:1052C0009DF81310C1EB011100EB8101052081F85D
:1052D0004D0005989DF81310C1EB011100EB810002
:1052E000807E50B9FFE705989DF81310C1EB0111BE
:1052F00000EB810100204864FFE7059800689DF8F5
:10530000131006F08FFBA9E0059800689DF81310B4
:1053100007F0ECF8C006002840F19E80FFE70598F2
:105320009DF81310C1EB011100EB810090F82600ED
:1053300003281AD1FFE705989DF81310C1EB01115E
:1053400000EB81010020486405989DF81310C1EB23
:10535000011100EB8101042081F84D0005980068DF
:105360009DF8131006F05EFB42E005989DF81310BF
:10537000C1EB011100EB810090F8260060B1FFE75E
:1053800005989DF81310C1EB011100EB810090F816
:10539000260002282AD1FFE705989DF81310C1EBDB
:1053A000011100EB8101002048640598807958B113
:1053B000FFE705989DF81310C1EB011100EB810088
:1053C000C07E012811D1FFE705989DF81310C1EBAD
:1053D000011100EB8101042081F84D00059800685F
:1053E0009DF8131006F01EFBFFE700E0FFE7FFE764
:1053F00005989DF81310C1EB011100EB8100C07EF0
:10540000012820D1FFE705989DF81310C1EB011189
:1054100000EB81010020C87602989DF8131000EB84
:105420004111D1F8040520F48030C1F80405029838
:105430009DF8131000EB4111D1F80C0540F020004D
:10544000C1F80C05FFE702989DF8131000EB41111D
:105450001020C1F8080500E0FFE7FFE7FFE7FFE7DE
:10546000FFE7FFE706B080BD80B586B005908DF8F8
:10547000131005980068039003980290059800683F
:105480009DF8131007F032F8400700281AD5FFE7FF
:1054900002989DF8131000EB41110420C1F8080593
:1054A00005989DF81310C1EB011100EB8101072055
:1054B00081F84D00059800689DF8131006F0B2FAC7
:1054C00000F00ABC059800689DF8131007F00EF86C
:1054D000800600287DD5FFE702989DF8131000EBA9
:1054E00041112020C1F8080505989DF81310C1EB63
:1054F000011100EB8100407E012824D1FFE70598CF
:105500009DF81310C1EB011100EB810100204876DA
:1055100005989DF81310C1EB011100EB81010220E9
:1055200081F84C0005989DF81310C1EB011100EBB8
:105530008101032081F84D00059800689DF8131043
:1055400006F070FAFFE705989DF81310C1EB011102
:1055500000EB8100807E01283AD1FFE705989DF895
:105560001310C1EB011100EB8100C07E80BBFFE78F
:1055700005989DF81310C1EB011100EB810090F824
:10558000260001280AD0FFE705989DF81310C1EB0B
:10559000011100EB81010120C876FFE705989DF815
:1055A0001310C1EB011100EB8101032081F84D00C4
:1055B000059800689DF8131006F034FA05989DF8D8
:1055C0001310C1EB011100EB810100204864FFE7DB
:1055D00081E3059800689DF8131006F087FF8005A9
:1055E000002810D5FFE702989DF8131000EB411139
:1055F0004FF40070C1F80805059800689DF8131075
:1056000006F010FA66E3059800689DF8131006F09E
:105610006DFFC00700285CD0FFE705989DF81310C8
:10562000C1EB011100EB810100204864059800687E
:105630009DF8131006F05AFF4006002812D5FFE728
:1056400005989DF81310C1EB011100EB81010120B9
:10565000487602989DF8131000EB41114020C1F8E4
:105660000805FFE705989DF81310C1EB011100EB49
:105670008100C07EA8B1FFE705989DF81310C1EB2B
:10568000011100EB81010020C87602989DF81310EB
:1056900000EB4111D1F8040520F48030C1F8040575
:1056A000FFE702989DF8131000EB41110120C1F8AB
:1056B000080505999DF81320C2EB021201EB820147
:1056C00081F84D00059800689DF8131006F0AAF9BE
:1056D000FFE2059800689DF8131006F007FF4006EA
:1056E000002836D5FFE705989DF81310C1EB01118E
:1056F00000EB8101052081F84D0005989DF81310FD
:10570000C1EB011100EB8100807E50B9FFE70598E5
:105710009DF81310C1EB011100EB810101204876C7
:10572000FFE705989DF81310C1EB011100EB810113
:1057300000204864059800689DF8131006F072F97F
:1057400002989DF8131000EB41114020C1F80805A4
:10575000BEE2059800689DF8131006F0C7FE00072A
:10576000002819D5FFE702989DF8131000EB4111AE
:105770000820C1F8080505989DF81310C1EB011128
:1057800000EB8101062081F84D00059800689DF826
:10579000131006F047F99AE2059800689DF8131077
:1057A00006F0A4FEC006002841D5FFE705989DF845
:1057B0001310C1EB011100EB810100204864059832
:1057C0009DF81310C1EB011100EB8101042081F859
:1057D0004D0005989DF81310C1EB011100EB8100FD
:1057E000407EA8B9FFE705989DF81310C1EB0111A1
:1057F00000EB8100007E50B9FFE705989DF813107B
:10580000C1EB011100EB810101204876FFE7FFE7C2
:10581000059800689DF8131006F004F902989DF8A9
:10582000131000EB41111020C1F808054EE2059855
:1058300000689DF8131006F059FE000600285ED59A
:10584000FFE70598807988B9FFE705989DF8131060
:10585000C1EB011100EB8101072081F84D00059893
:1058600000689DF8131006F0DDF83FE005989DF8FC
:105870001310C1EB011100EB8101486C0130486449
:1058800005989DF81310C1EB011100EB8100406CED
:1058900003281FD3FFE705989DF81310C1EB0111F2
:1058A00000EB81010020486405989DF81310C1EBBE
:1058B000011100EB8101042081F84C0005989DF84E
:1058C0001310C1EB011200EB820292F84C20FBF79F
:1058D00027FF0AE005989DF81310C1EB011100EBBA
:1058E0008101022081F84C00FFE7FFE702989DF854
:1058F000131000EB41118020C1F80805E5E105987F
:1059000000689DF8131006F0F1FD400500281AD537
:10591000FFE705989DF81310C1EB011100EB810121
:10592000092081F84D00059800689DF8131006F0D5
:1059300079F802989DF8131000EB41114FF4806044
:10594000C1F80805C0E1059800689DF8131006F03D
:10595000CDFD8007002840F1B581FFE702989DF852
:10596000131000EB41110220C1F8080505989DF8BD
:105970001310C1EB011100EB810090F84D000128DC
:1059800071D1FFE705989DF81310C1EB011100EBF1
:105990008101022081F84D0005989DF81310C1EB9C
:1059A000011100EB8101012081F84C0005989DF860
:1059B0001310C1EB011100EB810090F826000228C2
:1059C0000CD0FFE705989DF81310C1EB011100EB17
:1059D000810090F82600032844D1FFE705988079DC
:1059E00070B9FFE705989DF81310C1EB011100EBAA
:1059F000810191F83D0080F0010081F83D00FFE752
:105A00000598807901282CD1FFE705989DF813109F
:105A1000C1EB011100EB8100406B10B3FFE705986B
:105A20009DF81310C1EB011100EB8101486B098D4A
:105A300008440138B0FBF1F000909DF80000C00769
:105A400070B1FFE705989DF81310C1EB011100EB51
:105A5000810191F83D0080F0010081F83D00FFE7F1
:105A6000FFE7FFE722E105989DF81310C1EB011154
:105A700000EB810090F84D00032821D1FFE7059845
:105A80009DF81310C1EB011100EB8101022081F898
:105A90004D0005989DF81310C1EB011100EB81003A
:105AA000C07E01280BD1FFE705989DF81310C1EBCC
:105AB000011100EB8101022081F84C00FFE7F4E0C6
:105AC00005989DF81310C1EB011100EB810090F8CF
:105AD0004D00042834D1FFE705989DF81310C1EB61
