:020000040800F2
:1000000098070020910100086D1F0008C11D00081D
:10001000691F0008BD050008811F000800000000DE
:10002000000000000000000000000000751F000834
:10003000CD05000800000000711F0008791F0008AE
:10004000AB010008AB010008AB010008AB010008E0
:10005000AB010008AB010008AB010008AB010008D0
:10006000AB010008AB010008AB010008C1050008A6
:10007000AB010008AB010008AB010008AB010008B0
:10008000AB010008AB010008AB010008AB010008A0
:10009000AB010008AB010008AB010008AB01000890
:1000A000AB010008AB010008AB010008AB01000880
:1000B000AB010008AB01000800000000AB01000824
:1000C000AB0100080000000000000000AB010008C8
:1000D00000000000AB010008AB01000800000000B8
:1000E000AB010008AB010008AB01000800F002F80A
:1000F00000F03FF80AA090E8000C82448344AAF183
:100100000107DA4501D100F034F8AFF2090EBAE880
:100110000F0013F0010F18BFFB1A43F0010318473B
:10012000881F0000A81F0000103A24BF78C878C1BB
:10013000FAD8520724BF30C830C144BF04680C60ED
:10014000704700000023002400250026103A28BF35
:1001500078C1FBD8520728BF30C148BF0B60704739
:10016000642900F07D80002070471FB51FBD10B5C9
:1001700010BD00F052F91146FFF7F7FF01F002FF42
:1001800000F070F903B4FFF7F2FF03BC00F078F958
:100190000948804709480047FEE7FEE7FEE7FEE71B
:1001A000FEE7FEE7FEE7FEE7FEE7FEE70448054957
:1001B000054A064B704700007D1F0008ED0000084F
:1001C0009801002098070020980300209803002041
:1001D0000FB41CB5074B06AA7B44694600900598EE
:1001E00000F003F90020694600F012F91CBC5DF82C
:1001F00014FB0000350200002DE9F0410E460446D4
:10020000002020622046E168884730B3252805D0C9
:10021000D4E901219047206A401CF2E7E1682046BA
:1002200000278847050018D0A5F14100192802D8F9
:1002300020354FF400673246294620462760FFF7F5
:100240008FFF40B1012804D0F61D26F007060836BE
:10025000D8E7361DD6E72846DAE7206ABDE8F08100
:100260002DE9F0410646002410687529314616A58F
:1002700010D0AFF30080002802DA404213A507E057
:1002800031688A0701D512A502E0490704D511A5F6
:10029000012401E0AFF3008000210A2206F12407C7
:1002A00009E0B0FBF2FCB0FBF2F302FB1C003030C3
:1002B00078541846491C0028F3D123462A46304674
:1002C000BDE8F04100F032B8000000002D00000051
:1002D0002B000000200000004FF0000200B5134684
:1002E00094469646203922BFA0E80C50A0E80C5056
:1002F000B1F12001BFF4F7AF090728BFA0E80C5007
:1003000048BF0CC05DF804EB890028BF40F8042BFF
:1003100008BF704748BF20F8022B11F0804F18BF6C
:1003200000F8012B70477047704770472DE9F04780
:100330000D4699469246044600F124080168880655
:1003400004D5E06921F01001216000E00120A842FD
:1003500001DD471B00E00027A1697A1902EB0900C3
:10036000081AA0612078C00602D42046AFF30080AE
:10037000002608E0D4E901211AF806009047206A17
:10038000401C761C20624E45F4DB2078C0060AD55E
:100390002046AFF3008006E0D4E9012130209047E9
:1003A000206A401C2062381EA7F10107F4DC07E038
:1003B000D4E9012118F805009047206A401C20620A
:1003C000281EA5F10105F3DC2046AFF3008020785C
:1003D000000602D50220BDE8F0870120FBE70000FF
:1003E00001694A1C02610878704700B58FB0CDE9F9
:1003F00001310021059105497944CDE903101146E9
:100400006846FFF7F9FE0FB000BD0000E5FFFFFFF3
:100410000A6802F8010B0A607047754600F02CF874
:10042000AE4605006946534620F00700854618B0E1
:1004300020B5FFF7BBFEBDE820404FF000064FF0AF
:1004400000074FF000084FF0000BAC46ACE8C009C5
:10045000ACE8C009ACE8C009ACE8C00921F007016C
:100460008D46704710B50446AFF300802046BDE8C6
:100470001040FFF787BE00000048704710000020C2
:1004800001491820ABBEFEE72600020070470000BD
:100490000146406A826A12F0500F03D0006A026B74
:1004A000084610470168826A42F4007282628968D5
:1004B00001F46021B1F5602F01D1017B11B100F091
:1004C00053B900BF816A21F480718162816AC904D5
:1004D00048BF00F049B9816A41F00101816200F032
:1004E00043B90000406A816A41F040018162C16AFB
:1004F00041F00401C16200F03BB90000406A00F025
:1005000035B90000B0B582B00446002001902168E2
:100510008A68D2074FD1886840F00100886040F2B5
:100520000800C2F2000000684DF68361C4F21B317E
:10053000A0FB0101880C01900198A0B1019801383D
:100540000190019878B1019801380190019850B15B
:10055000019801380190019828B101980138019063
:1005600001980028EAD100F015FD21688968C907C3
:100570001CD1054603E000BF8068C0071AD100F017
:1005800009FD411B20680329F6D38168C907F3D10F
:10059000A06A40F01000A062E06A40F00100E06252
:1005A000002084F82400012002B0B0BD002002B079
:1005B000B0BD00BF002002B0B0BD0000FEE70000EB
:1005C00040F2B000C2F2000000F05CBA70470000D8
:1005D000EFF3108072B600BFFEE7000010B581B0E7
:1005E0000022009290F82420012A03D1022108461B
:1005F00001B010BD4B680122062B80F8242017D8CB
:10060000D0F800C003EB83035A1F1F23DCF834E04B
:1006100003FA02F40B682EEA040403FA02F22243FE
:10062000CCF83420092B03EB430219D936E000BF84
:10063000D0F800C00C2B03EB83021DD8233A1F23F4
:10064000DCF830E003FA02F40B682EEA040403FA43
:1006500002F22243CCF83020092B03EB43021DD8D1
:10066000DCF81030072489689440A3439140194373
:10067000CCF81010002130E0413A1F23DCF82CE0C8
:1006800003FA02F40B682EEA040403FA02F222438E
:10069000CCF82C20092B03EB4302E1D9DCF80CE069
:1006A0001E3A0724896894402EEA0404914023F0FE
:1006B00001022143102ACCF80C100DD142F208415E
:1006C000C4F20101A1F1080294450DD0816A41F004
:1006D00020018162012100E00021002280F8242015
:1006E000084601B010BD00BF0A68120230D40A6883
:1006F000102B42F400020A602CD140F20801C2F231
:10070000000109684DF68362C4F21B32A1FB02129C
:10071000910C01EB8101490000910099E1B1009930
:10072000013900910099C9B10099013900910099EE
:10073000B1B1009901390091009999B1009901393D
:100740000091009900294FF00001E8D1C5E700BFF2
:100750000021C2E70021C0E70021BEE70021BCE77D
:100760000021BAE70021B8E7704700007047000099
:1007700070470000B0B5002800F0A8800446806AE9
:1007800020B121688868C0070BD114E00020E06226
:1007900084F82400204600F09BF821688868C00790
:1007A00009D0886820F00100886000F0F3FB216820
:1007B0008A68D20726D1A06AC0063AD4A06A41F25C
:1007C000021290430230A062E069D4E9013240EAAB
:1007D000030C531EB3FA83F35D091346B2F5807F11
:1007E00018BF2B02207D257B01284CEA450030D123
:1007F00035B3A56A45F02005A562E56A45F0010517
:10080000E56226E0054602E08868C007D3D000F024
:10081000C1FB401B21680328F6D38868C007F3D0CA
:10082000A06A40F01000A062E06A40F00100E062BF
:10083000A06AA06A40F01000A0620120B0BD00BF15
:10084000D4F818C04EF60005CFF6FF7505EB4C3511
:100850002B434D68B2F5807F25F4694543EA0503D3
:100860004B608B684FF2FD75CFF6E17503EA050327
:1008700043EA00038B6001D0012A07D122690023DB
:10088000CFF6F07303EB025201E000BF0022CB6A07
:1008900023F470031A43CA62896840F6FE62CFF6F9
:1008A0001F721140814207D10020E062A16A01223B
:1008B00062F30101A162B0BDA06A40F0100020F017
:1008C0000200A062E06A40F00100E0620120B0BDD9
:1008D00070B586B0044641F20000C4F20100216800
:1008E00000F5A052002691420596049602D006B06B
:1008F00070BD00BF41F21801C4F202010A6842F45F
:1009000000720A600A6802F400720192019A0A6891
:1009100042F010020A60096801F01001019101998A
:100920000321CDE9021102A900F022FA40F2B0053C
:100930000820C2F20005C4F202004FF48072C5E93B
:10094000000605F1100080214FF480634CC028465A
:10095000C5E90261EE6100F065F9002818BFFFF7F4
:1009600037FE25626C6206B070BD000070B515469A
:100970000446006842F60002C4F2010290420E46AC
:1009800005D042F20041C4F20101884209D142F28D
:100990000440C4F20100006810F4702F1CBF012055
:1009A00070BD94F82400012804BF022070BD01200E
:1009B00084F824002046FFF7A5FD18B1002184F833
:1009C000241070BD42F204402168A26AC4F2010002
:1009D00040F601739A4300F57F7302F580729942E5
:1009E000A26243D0A06A20F48010A062486840054B
:1009F00004D5A06A012262F30D30A062A26A002031
:100A0000D2044FF0000244BFE26A22F00602E26222
:100A100084F82400206A40F29142C0F6000240F2BD
:100A2000FD4340F2E54C00F1280EC0F60003C0F68D
:100A3000000C8EE80C106FF002020A608A682B46E8
:100A400042F480728A604C31324600F02FF92068FF
:100A5000816801F460228168B2F5602F0CBF41F417
:100A6000A00141F480118160002070BD026812F481
:100A7000702FB7D0A26A42F48012A26200684005CB
:100A8000BCD5B6E710B5D0E90FCE0168DCF8003070
:100A90000A6823FA0EF35C072AD512F0040427D063
:100AA0000A68920603D40A6822F004020A602F2220
:100AB000C4F20202914240F20402C4F202025BDD7F
:100AC0003023C4F20203994272D04423C4F20203D9
:100AD000994273D05823C4F20203994240F07A80BD
:100AE0004FF480231360C16A002940F098806FE0C2
:100AF0009C0727D512F0020424D00A68920606D477
:100B00000A6822F00A020A60012280F821202F22BE
:100B1000C4F20202914240F20402C4F202023BDD3E
:100B20003023C4F20203994260D04423C4F202038A
:100B300099425FD05823C4F20203994260D14FF426
:100B4000003365E01B0743D512F0080208BF10BD53
:100B50000A6822F00E020A60012101FA0EF2CCF8B6
:100B60000420816380F82110016B0022002980F8A5
:100B7000202054D12CE000BF0823C4F20203994284
:100B800022D01C23C4F20203994223D140231360D4
:100B9000C16A002943D11BE00823C4F20203994231
:100BA0002CD01C23C4F20203994229D120232FE028
:100BB0004FF480631360C16A89BB09E04FF480433E
:100BC0001360C16A59BB03E004231360C16A31BBDF
:100BD00010BD00BF02F168044FF08063A14208BF5E
:100BE0004FF480031360C16AC9B9F1E74FF4007391
:100BF0000EE000BF4FF400530AE000BF022307E0FD
:100C000002F168044FF00073A14208BF4FF40013D3
:100C10001360816A0022002980F82020D8D0BDE826
:100C200010400847014600284FF0010008BF7047F8
:100C30002DE9F043D1F800C04FF6F873CBF6FD7301
:100C40004CF6CD426344CCF6CC42A3FB02236FF0BA
:100C5000030707EA93030027C4F2020701F10C0916
:100C6000C1E90F730223D1E9012E99E87002D1F88E
:100C70001C8081F82130DCF8003043F6F077BB436C
:100C80001A4342EA0E0222432A43324342EA09024D
:100C900042EA0802CCF8002000228A6381F8210091
:100CA00081F820200020BDE8F0437047F0B590F8AF
:100CB00020C0BCF1010F32D04FF0010E80F820E0CF
:100CC00090F821C0BCF1010F26D14FF0020C80F842
:100CD00021C04FF0000CC0F838C0D0E900C4C56A8C
:100CE000C66BDCF80070102C27F00107CCF8007000
:100CF000006C0EFA00F070600846CCF8043004BFB7
:100D000010460A46CCF80800CCF80C20DCF80000AD
:100D100045B140F00E000DE0002180F820100220C7
:100D2000F0BD00BF20F00400CCF80000DCF80000AB
:100D300040F00A00CCF80000DCF8000040F00100B0
:100D4000CCF800000020F0BDB0B5044600F022F958
:100D5000054640F20000C2F200000078611C18BF96
:100D6000044400BF00F016F9401BA042FAD3B0BD06
:100D70002DE9F04F82B00E68002E00F0F98041F2AC
:100D80000002C4F20102032340F2004E904208BF69
:100D900002234FF6FF7CC4F2010E009300240123CE
:100DA000C1F2100C4FF0000B4FF0000950E000BFF3
:100DB00040F60042C4F20102009F904208BF0127A2
:100DC00004F00C030F229A402AEA020207FA03F306
:100DD0004FEA9B051A4346F82520D1F804A040F2BB
:100DE0000C455FEACA22DEF8082054BF22EA080256
:100DF00042EA0802C4F20105CEF808202A685FEA38
:100E00008A2354BF22EA080242EA08022A605FEA03
:100E10008A33DEF8042054BF22EA080242EA0802BC
:100E20005FEACA33CEF80420DEF800204FF0010359
:100E300054BF22EA080242EA0802CEF800200E68F7
:100E40000BF1010B36FA0BF204F1040400F0908070
:100E500003FA0BF816EA080FF1D04E68664511DC6C
:100E6000122E55D8DFE806F0340A4448545454543E
:100E70005454545454545454544C5000D1F80C907D
:100E800046E000BF4FF6FF72C1F2210296420FDC2E
:100E90000022C1F2110296421AD00022C1F21202BF
:100EA000964215D00022C1F22102964210D02FE0C6
:100EB0000022C1F2220296420AD00022C1F231027F
:100EC000964205D00022C1F23202964220D100BFE4
:100ED0008A684AB1012A14BFC0F81480C0F8108093
:100EE0004FF0080914E000BF4FF0040910E000BF04
:100EF000CA6802F108090BE04FF0000908E000BFE2
:100F0000CA6802F1040903E0CA6802F10C0900BFD3
:100F100022460646BBF1080F24BF203A0436376844
:100F20000F25954027EA050509FA02F22A433260A7
:100F3000CA79D2067FF583AF41F21803C4F20203E7
:100F40001A68AEF57E7642F001021A601A6802F065
:100F500001020192019A2BF0030256F802A040F61A
:100F60000002C4F2010290427FF422AF002727E77B
:100F700002B0BDE8F08F0000C26802EA01039143AD
:100F800041EA034101617047002A08BF0904016179
:100F90007047000040F29010C2F2000000687047F5
:100FA00070B5B8B3044690F83D0028B9002084F825
:100FB0003C00204600F0B0F8242084F83D00206872
:100FC000016821F001010160016841F40041016004
:100FD000016821F40041016000F0EEFA48F280411E
:100FE000C0F21E0140F60013D4F804E088424FF02E
:100FF0000001C0F23D0348F2A16C4FF0000238BF7F
:1010000001219842C0F2010C38BF0122E64538BFE9
:101010000A460AB1012070BD4DF68361C4F21B314E
:10102000A0FB01122168950C4B684FF4967623F0D3
:101030003F0343EA9243754344F6D3564B60C1F2F3
:1010400062060B6AA5FB0656B50923F03F03E64589
:1010500038BF950C6A1C1A430A62CA6948F2A06636
:101060004CF6FF73C0F20106B64522EA03020BD824
:1010700001384FEA4E03B0FBF3F001306FF31F303D
:10108000042898BF04201EE0A368013863B1192327
:101090000EFB03F3B0FBF3F001306FF31F3078B1B8
:1010A00000F5804008E000BF0EEB4E03B0FBF3F00C
:1010B00001306FF31F3028B100F5004003E000BF9E
:1010C000012000E001201043C8610868D4E907232B
:1010D00020F0C000104318430860886848F2FF32CF
:1010E00004F10C0690434CCE18431043A569886068
:1010F000C86820F0FF0030432843C860086840F00B
:101100000100086000202021206484F83D10206345
:1011100084F83E0070BD000010B586B0016845F24D
:101120000040C4F20000814202D006B010BD00BFF2
:1011300041F21804C4F20204216800F5384041F07D
:1011400008012160216801F0080102910299C02183
:10115000029112210391002104910321059102A91A
:10116000FFF706FE606840F400106060606800F4FD
:1011700000100190019806B010BD000040F2000080
:1011800040F29011C2F20000C2F2000100780A6839
:10119000104408607047000080B542F20000C4F2BD
:1011A0000200016841F010010160032000F08EF898
:1011B0000F2000F005F800F027F8002080BD0000A7
:1011C00070B540F20006C2F2000640F20801327823
:1011D000C2F200014FF47A730968B3FBF2F20446DD
:1011E000B1FBF2F1084600F0E9FB0F2C4FF00105CE
:1011F00008D838B94FF0FF3021460022002500F012
:1012000039F87460284670BD82B041F21800C4F20B
:1012100002000168022241F001010160016801F051
:10122000010101910199416841F08051416040689C
:1012300000F08050009000980420C4F20100016882
:1012400062F31A61016002B070470000002848BFD5
:101250007047C1B200F01F00012202FA00F04EF206
:101260000012CEF2000242EAD10121F0030108602F
:101270007047000010B54EF60C5CCEF2000CDCF8A6
:101280000030C3F3022E8EF00704042C28BF042480
:10129000BEF103034FF0FF3E0EFA04F438BF002303
:1012A000A14399400EFA03F39A43114300F00F0251
:1012B00000F160430901043A03F5644362440028E5
:1012C00048BF02F10C03197010BD00004EF60C511E
:1012D000CEF200010A684FF6FF031A4060F30A22BB
:1012E00042F0806040F0FD70086070472DE9F041E9
:1012F00082B00446007841F21C06C007C4F2020620
:101300004AD0306810F0805808D1306840F08050E2
:101310003060306800F080500190019847F200077B
:10132000C4F200073868C00512D4386840F48070F1
:101330003860FFF72FFE05463868C00508D4FFF770
:1013400029FE401B6428F7D9032002B0BDE8F081D4
:10135000706810F4407012D0616801F440718842E6
:101360000DD0706840F24042C4F24222012320F4C2
:10137000407113600023C007136071602AD1706848
:10138000616820F440700843B8F1000F706003D129
:10139000306820F0805030602068810707D556F80B
:1013A000181CA26821F44041114346F8181CC006DD
:1013B00004D4002002B0BDE8F08100BF56F8180C3C
:1013C000E16820F48000084346F8180C002002B0C1
:1013D000BDE8F081FFF7DEFD054641F2883700BF2A
:1013E00070688007CBD4FFF7D5FD401BB8424FF0A3
:1013F0000300F5D9EBE700002DE9F04381B00028A8
:1014000000F0858042F20008C4F202080446D8F8D1
:1014100000000D4600F0070088420CD2D8F800000A
:1014200020F007002843C8F80000D8F8000000F0BA
:101430000700A8426BD1206841F204098107C4F279
:10144000020917D5410705D5D9F8001041F4E0612C
:10145000C9F80010010705D5D9F8001041F4605112
:10146000C9F80010D9F80010A26821F0F00111436A
:10147000C9F80010C00741D1D8F8000000F00700FB
:10148000A8420CD9D8F8000020F007002843C8F87B
:101490000000D8F8000000F00700A84237D120680B
:1014A000410707D5D9F80010E26821F4E061114343
:1014B000C9F80010000708D5D9F80000216920F408
:1014C000605040EAC100C9F80000D9F8002002F0DD
:1014D0000C00082841F20020C0F27A0050D142F2FC
:1014E0009603C2F38341C0F60003595CD2033BD498
:1014F00040F60010C0F23D00484341E06068022819
:101500000AD001282AD159F8041C890308D40120E3
:1015100001B0BDE8F08300BF59F8041C8901F6D57D
:10152000D9F8001021F003010843C9F80000FFF7C3
:1015300031FD064641F28837D9F80000616800F0B5
:101540000C00B0EB810F97D0FFF724FD801BB84251
:10155000F2D9032001B0BDE8F08300BF59F8041CA4
:101560008907D4D5DCE700BFD9F8002042F2940304
:10157000C2F34042C0F600039A5C4843B0FBF2F06D
:10158000D9F8001042F27C02C1F30311C0F6000248
:10159000515C40F2080220FA01F140F20400C2F26C
:1015A00000000068C2F200021160FFF709FE00208F
:1015B00001B0BDE8F083000040F2080041F20401F0
:1015C000C2F20000C4F202010068096842F28C0213
:1015D000C1F30221C0F60002515CC8407047000010
:1015E00040F2080041F20401C2F20000C4F202011C
:1015F0000068096842F28C02C1F3C221C0F6000201
:10160000515CC840704700002DE9F04182B00028CD
:1016100068D00446007841F20006C007C4F2020612
:1016200025D0706800F00C0004281BD0706800F012
:101630000C00082802D17068C00313D46068002829
:1016400000F06881B0F5A02F00F07C81B0F5803FFC
:1016500000F07C81306820F480303060306820F405
:10166000802076E13068800301D56068D0B32078AF
:10167000800718D5706810F00C0F07D0706800F064
:101680000C0008286ED17068C0036BD430688007E6
:1016900002D52069012825D13068616920F0F80061
:1016A00040EAC1003060207800071FD4207840074E
:1016B00032D4E56995B1706800F00C00082840F05C
:1016C0008F80012D0ED07068216A00F480328A422A
:1016D00008D1616A00F47010884203D1002002B082
:1016E000BDE8F081012002B0BDE8F081A0690028CA
:1016F00062D00020C4F242200121C0F88014FFF71C
:1017000049FC0546706A800700F18C80FFF742FCB7
:10171000401B0228F6D92AE1F06910F0805808D160
:10172000F06940F08050F061F06900F08050009066
:10173000009847F20007C4F200073868C00529D4B2
:10174000386840F480703860FFF724FC054600BF1D
:101750003868C0051ED4FFF71DFC401B6428F7D96C
:1017600005E100BF2069002840F20000C4F24220D9
:1017700000F0828001210160FFF70CFC054600BFEC
:10178000306880073FF588AFFFF704FC401B022854
:10179000F6D9ECE0E068002800F08080052800F031
:1017A0009780012800F09880306A20F001003062B4
:1017B000306A20F0040092E00020C4F242200021B0
:1017C000C0F88014FFF7E6FB054600BF706A80078B
:1017D0007FF56CAFFFF7DEFB401B0228F6D9C6E0B1
:1017E0000027C4F2422700203866FFF7D3FB022D02
:1017F00005460BD13068800140F1BE80FFF7CAFB7F
:10180000401B02284FF00300F4D968E730688001DC
:101810007FF564AFFFF7BEFB401B02284FF00300CB
:10182000F4D95CE740F20800C2F20000006844F618
:10183000D351C1F26201A0FB0101480A019000BF2F
:1018400000BF0198411E002801913FF42FAF00BF57
:101850000198411E002801913FF428AF00BF019874
:10186000411E002801913FF421AF00BF0198411EA5
:1018700000280191E4D119E700210160FFF78AFBFC
:10188000054600BF306880077FF50DAFFFF782FB8C
:10189000401B02284FF00300F4D920E7306A20F003
:1018A00001003062306A20F004003062FFF772FB02
:1018B000054641F2883700BF306A800720D5FFF720
:1018C00069FB401BB8424FF00300F5D907E700BFA2
:1018D000306A40F004003062306A40F0010030624B
:1018E000FFF758FB054641F2883700BF306A800792
:1018F00006D4FFF74FFB401BB842F7D937E000BFD3
:10190000B8F1000F7FF4D5AEF06920F08050F0619F
:10191000CFE600BF306820F480303060306820F4BB
:1019200080203060FFF736FB054600BF306880033B
:101930007FF59DAEFFF72EFB401B64284FF00300A0
:10194000F4D9CCE6306840F480203060306840F450
:1019500080303060FFF71EFB054600BF3068800313
:101960003FF585AEFFF716FB401B6428F6D9032030
:1019700002B0BDE8F08100BF206AB0F5803F05D11C
:101980007168A26821F40031114371607168626A64
:1019900021F4741111430843706001203866FFF789
:1019A000F9FA0446306880013FF598AEFFF7F2FA85
:1019B000001B02284FF00300F4D990E6411E0020DE
:1019C000B0EB116F1CBF012070474EF21002CEF237
:1019D000000251604EF62351CEF20001F0230B704D
:1019E0000721906011607047002804BF01207047F4
:1019F00010B5044690F8410028B9002084F8400052
:101A0000204600F063F8242084F841002068D4E9DF
:101A10000212C36823F40053C360036923F44053E4
:101A20001A430261D4E904231143C268194341F205
:101A30000C639A431143C1604169A26921F440716A
:101A4000114343F60002C4F201029042416103D007
:101A5000FFF7B2FD02E000BFFFF7C2FD6268192187
:101A600048439100B0FBF1F048F21F51C5F2EB1171
:101A7000A0FB01235A094FF69C73C0F6FF7302FBCB
:101A80000300322303EB0010A0FB0101F02303EA63
:101A90005113206803EB0212C1F34311114481601A
:101AA000016921F490410161416921F02A014161FC
:101AB000C16841F40051C16000202021606484F8B5
:101AC000411084F84210606310BD000070B586B00C
:101AD00040F60004C4F20104006804F540510026F9
:101AE0008842049602D006B070BD00BF41F21800D3
:101AF000C4F20200016802AD41F480410160016856
:101B000001F4804101910199016841F004010160F3
:101B10000068294600F00400019001984FF400701D
:101B2000029002200390032005902046FFF720F941
:101B30004FF48060CDE90206204629460496FFF75F
:101B400017F906B070BD00002DE9F04381B00446DE
:101B500090F84100202840F0B180884600294FF0DD
:101B6000010000F0D6801646002A00F0D280002046
:101B7000606421201D4684F84100FFF70BFAA6841B
:101B8000E684A1680646B1F5805F03D1206900288C
:101B900000F0988047464FF00008E18C206800294B
:101BA00000F0968005F101090BE000BF47B317F87C
:101BB000011B4160E18C0139E184E18C002900F0D6
:101BC000878001680906F1D4B9F1000F0AD0EDB1A0
:101BD000FFF7E0F9801BA84218D8206801680906C1
:101BE000F6D5E3E701680906E0D4016809065CBFA1
:101BF00001685FEA0161D9D401680906F2D5D5E729
:101C000038F8021B00276FF35F21D2E7206850E805
:101C1000030F216820F4D07041E80302BAB32068B2
:101C200050E8030F216820F4D07041E8030272B33A
:101C3000206850E8030F216820F4D07041E80302C7
:101C40002AB3206850E8030F216820F4D07041E8DF
:101C50000302002ADAD11AE0206850E8050F216853
:101C600020F0010041E80502DAB1206850E8050FD4
:101C7000216820F0010041E8050292B1206850E897
:101C8000050F216820F0010041E805024AB12068F3
:101C900050E8050F216820F0010041E80502002A04
:101CA000DAD1202084F8410084F84200002084F832
:101CB0004000032001B0BDE8F08300BF022001B066
:101CC000BDE8F0830027E18C206800297FF46AAF2B
:101CD0000168490619D4FDB1691C0DD10168490696
:101CE00013D4016849065CBF01685FEA41610CD406
:101CF00001684906F2D508E0FFF74CF9801BA842BD
:101D00000AD8206800684006F6D5202084F84100F3
:101D1000002001B0BDE8F083206850E8030F21687F
:101D200020F4D07041E80302002A3ED0206850E839
:101D3000030F216820F4D07041E80302AAB32068A1
:101D400050E8030F216820F4D07041E8030262B329
:101D5000206850E8030F216820F4D07041E80302A6
:101D6000002AD9D121E000BF206850E8050F216882
:101D700020F0010041E80502002A3FF492AF2068FC
:101D800050E8050F216820F0010041E80502002A13
:101D90003FF487AF206850E8050F216820F001006C
:101DA00041E80502002A3FF47CAF206850E8050FA7
:101DB000216820F0010041E80502002AD4D170E733
:101DC000FEE7000080B584B040F2800042F200419E
:101DD000C2F20000C4F201014FF4807C00234FF4F2
:101DE000602280E80A10022103730375C261016159
:101DF000FEF7C0FC002818BFFEF7EAFB0A2001909E
:101E0000012002900720039040F28000C2F20000FF
:101E100001A9FEF7E3FB002818BFFEF7D9FB0B2052
:101E20000190022002900620039040F28000C2F24E
:101E3000000001A9FEF7D2FB002818BFFEF7C8FB7F
:101E400004B080BD80B582B041F21400C4F202003B
:101E50000168002241F0010101600068002100F0EA
:101E60000100019001980B20FFF704FA0B2002B04B
:101E7000BDE88040FFF7EAB970B584B041F21800C0
:101E8000C4F20200016840F6000441F01001016054
:101E90000168C4F2010401F0100100910099016889
:101EA000002241F0040101600168202501F00401D5
:101EB000009100990168002641F008010160006866
:101EC000202100F00800009000982046FFF75CF801
:101ED0000120CDE9010602200390694620460095C5
:101EE000FEF746FF04B070BD80B540F2F40045F245
:101EF0000041C2F20000C4F2000148F2A0620023D7
:101F00004FF4804CC0F2010280E80E00C0E9033CAF
:101F1000C0E90533C0E90733FFF742F8002808BFDE
:101F200080BDBDE88040FEF753BB000080B540F2A5
:101F3000481043F60001C2F20000C4F20101002380
:101F40004FF00C0C4FF4E13280E80E00C0E903338F
:101F5000C0E905C3C361FFF747FD002808BF80BD86
:101F6000BDE88040FEF734BBFEE70000FEE700005E
:101F70007047000070470000FFF700B9704700008D
:101F8000FEE7000094B0FFF707F90AAC201D2421FA
:101F9000FEF7A2F902200A9001200E9010200025E1
:101FA0000F9020460495CDE902551195FFF72CFBC3
:101FB00020B1EFF3108072B6FEE700BF0F20CDE92D
:101FC000050505A80021CDE907550995FFF714FA85
:101FD00020B1EFF3108072B6FEE700BF022001903F
:101FE0000020039001A8FFF781F928B1EFF31080DA
:101FF00072B600BFFEE700BFFFF73EFFFFF722FF0C
:10200000FFF7E0FEFFF770FFFFF790FF40F2800858
:1020100040F27005C2F20008C2F2000540462946AF
:102020000222FEF7A3FC40F2481440F600072E1DE2
:102030000FF24009C2F20004C4F2010740462946EB
:102040000222FEF793FC2A886B8830464946FEF749
:10205000BFF8204631460A224FF47A73FFF774FD29
:1020600038462021FEF788FF4FF47A70FEF76CFEA9
:10207000E4E700BF25642025640A0000000000009A
:102080000000000001020304060708090000000028
:1020900001020304010202030405060708090A0BF2
:1020A0000C0D0E0F10100000C820000800000020CA
:1020B0001000000028010008D820000810000020AF
:1020C0008807000044010008010000001000000023
:0820D0000024F40000000000F0
:04000005080000ED02
:00000001FF
