:020000040800F2
:10000000500800203D020008CD4700082D1D0008C3
:10001000C9470008D1060008154C00080000000080
:10002000000000000000000000000000494A000835
:10003000F906000800000000D14700084D4A0008FA
:10004000570200085702000857020008570200082C
:100050005702000857020008FD0600085702000872
:10006000570200085702000857020008570200080C
:1000700057020008570200085702000857020008FC
:10008000570200085702000857020008000000004D
:10009000000000000000000000000000050700084C
:1000A0005702000857020008094B000857020008D1
:1000B00057020008570200085702000857020008BC
:1000C000570200085702000857020008D5470008E9
:1000D00057020008570200085702000800000000FD
:1000E00057020008570200085702000800000000ED
:1000F000000000000000000000000000570200089F
:1001000000000000570200085702000857020008CC
:1001100000000000000000000000000000000000DF
:10012000570200085702000857020008ED060008B1
:10013000570200080000000000000000000000005E
:10014000000000000000000000000000570200084E
:10015000570200085702000857020008570200081B
:1001600057020008570200080000000000000000CD
:10017000000000000000000000000000000000007F
:10018000000000005702000800000000000000000E
:100190005702000800F002F800F041F80AA090E8C9
:1001A000000C82448344AAF10107DA4501D100F032
:1001B00036F8AFF2090EBAE80F0013F0010F18BFBE
:1001C000FB1A43F001031847DC870000FC8700009E
:1001D000103A24BF78C878C1FAD8520724BF30C873
:1001E00030C144BF04680C60704700000023002445
:1001F00000250026103A28BF78C1FBD8520728BF37
:1002000030C148BF0B607047642900F0F7800020C0
:1002100070471FB507F023F81FBD10B510BD00F0E3
:10022000B7F91146FFF7F5FF05F0D4FA00F0D5F95C
:1002300003B4FFF7F2FF03BC00F0D8F90948804788
:1002400009480047FEE7FEE7FEE7FEE7FEE7FEE7B8
:10025000FEE7FEE7FEE7FEE704480549054A064BD0
:1002600070470000F54A0008950100085002002080
:1002700050080020500400205004002053EA020CD3
:1002800000F069802DE9F04B4FF00006002B1FBFF6
:10029000B3FA83F503FA05F424FA05F65E4012BFBB
:1002A0001643B2FA82F502FA05F4C5F120051EBF25
:1002B00022FA05FC44EA0C04203556EA044C4FEAC5
:1002C000144418BF641C4FF000084FF0000990421E
:1002D00071EB030C39D3002919BFB1FA81F701FA88
:1002E00007F6B0FA80F700FA07F6C7F120071EBF3D
:1002F00020FA07FC46EA0C062037B6FBF4FCA7EB15
:100300000507103F07F01F0BCBF120062CFA06F66D
:100310000CFA0BFB44BFB3460026202FA4BF5E4659
:100320004FF0000B5BEA060C08BF4FF0010B19EB16
:100330000B0948EB0608ABFB027C06FB02CC0BFB6F
:1003400003CCC01B71EB0C01C1E70B4602464146D2
:100350004846BDE8F08B13B5084318BF4FF0FF3097
:100360000146AFF30080BDE81C4070470FB41CB5D8
:10037000074B06AA7B4469460090059800F0E7F811
:100380000020694600F0F6F81CBC5DF814FB000084
:10039000FD0100002DE9F0410E46044600202062D8
:1003A0002046E168884730B3252805D0D4E90121EB
:1003B0009047206A401CF2E7E16820460027884702
:1003C000050018D0A5F14100192802D820354FF4B6
:1003D00000673246294620462760FFF715FF40B1E7
:1003E000012804D0F61D26F007060836D8E7361D8A
:1003F000D6E72846DAE7206ABDE8F0812DE9F0412A
:100400000646002410687529314616A510D0AFF3B2
:100410000080002802DA404213A507E031688A070D
:1004200001D512A502E0490704D511A5012401E078
:10043000AFF3008000210A2206F1240709E0B0FB97
:10044000F2FCB0FBF2F302FB1C003030785418468B
:10045000491C0028F3D123462A463046BDE8F04126
:1004600000F016B8000000002D0000002B00000076
:100470002000000070477047704710B500F080F80A
:10048000006810BD10B5044600F07AF8046010BD95
:100490002DE9F0470D4699469246044600F124089E
:1004A0000168880604D5E06921F01001216000E0B0
:1004B0000120A84201DD471B00E00027A1697A194D
:1004C00002EB0900081AA0612078C00602D4204679
:1004D000AFF30080002608E0D4E901211AF80600F5
:1004E0009047206A401C761C20624E45F4DB207841
:1004F000C0060AD52046AFF3008006E0D4E901210A
:1005000030209047206A401C2062381EA7F1010766
:10051000F4DC07E0D4E9012118F805009047206ACF
:10052000401C2062281EA5F10105F3DC2046AFF334
:1005300000802078000602D50220BDE8F087012067
:10054000FBE7000001694A1C02610878704700B5AA
:100550008FB0CDE901310021059105497944CDE9FC
:10056000031011466846FFF715FF0FB000BD0000ED
:10057000E5FFFFFF0A6802F8010B0A607047000000
:1005800000487047400000200048704740000020AD
:100590007546FFF7F9FFAE4605006946534620F061
:1005A0000700854618B020B5FFF756FEBDE820408D
:1005B0004FF000064FF000074FF000084FF0000B1F
:1005C000AC46ACE8C009ACE8C009ACE8C009ACE88E
:1005D000C00921F007018D46704710B50446AFF3FE
:1005E00000802046BDE81040FFF722BE01491820D8
:1005F000ABBEFEE72600020070470000042811D8B9
:1006000080B5DDF808C040F2140EC2F2000E5EF8AC
:1006100020E01FFA8CFC084611461A466346F04754
:10062000BDE8804000207047B0B582B0044600F0BD
:1006300083FB40F2F805C2F20005D5E90812401A22
:100640004FF000019141643871F100003DD32878EA
:1006500040F2A003220A210C01284FEA1460C2F2E2
:1006600000030DD11B780024012B2C7004D0042B27
:1006700012D0032B24D1C8B24FF4FC6413E000BFA6
:100680001B780124012B2C700BD0042B08D0032BDA
:1006900016D1C8B205E000BFD0B24FF4FC6402E04E
:1006A000D0B24FF478440A213722412310FB0211C3
:1006B00010FB02330A204FF49B72009401F0B6FC49
:1006C00000F03AFB0021C5E9080102B0B0BD00000E
:1006D000FEE70000016040F20111C180002182802C
:1006E0000172C0E9031101757047000040F230103B
:1006F000C2F2000000F020B870470000012000F0B6
:100700002FBA0000802000F02BBA000072B600BFA4
:10071000FEE7000090F83510022909D1052180F884
:1007200035100068016821F0010101600020704768
:100730008021416501207047F0B581B0044600205A
:10074000009040F21000C2F200000268D4E9166086
:1007500048F2B51337680821C1F64E33814039425B
:10076000A2FB03250CD0226813685B0708D5136829
:1007700023F004031360B160616D41F00101616514
:1007800001218140394208D022685269120604D5FD
:10079000B160616D41F0020161650421814039421F
:1007A00008D022681268920704D5B160616D41F0EB
:1007B0000401616510218140394217D02068026828
:1007C000120713D5B16002680168520308D4C90545
:1007D00008D4016821F008010160216C21B905E00D
:1007E00008033FD4216C09B120468847E16D2020E1
:1007F00000FA01F23A4241D020680368DB063DD599
:10080000B26094F835300268052B1BD122F0160235
:100810000260426922F080024261226C0AB9A26C35
:100820001AB1026822F0080202603F208840B060DE
:10083000012084F83500216D0020002984F834005F
:1008400052D157E00168520310D4C90512D401688F
:1008500021F010010160012084F83500002084F8A7
:10086000340007E0A16C0029BED1BFE7080301D422
:10087000616C00E0E16B09B120468847606DC8B348
:10088000606DC0072ED0052084F835002068A90AC5
:10089000026822F001020260009A01328A4200924C
:1008A0001AD80268D20717D0009A01328A42009201
:1008B00012D80268D2070FD0009A01328A42009201
:1008C0000AD80268D20707D0009A01328A42009201
:1008D00002D80268D207DFD1012084F83500002059
:1008E00084F83400E16C29B1204601B0BDE8F04045
:1008F000084700BF01B0F0BD2DE9F041044600F00B
:100900001BFAECB10546022084F83500002021686E
:1009100084F83400086820F0010008602168086845
:10092000C00711D000F008FA401B0528F6D90325AE
:1009300020230320636584F83550BDE8F08100BFB3
:100940000120BDE8F08100BF086848F23F02CFF205
:100950001002D4E9013500EA020C04F10C0898E811
:10096000C10143EA0C032B431843D4E9072E30435B
:1009700038431043626A40EA0E00042A40EA080342
:100980001CD1206BD4E90A2E40EA0E0018430860FF
:100990004869BEF1000F20F0030040EA020040F079
:1009A000040C11D0B8F5005F36D0B8F1000F45D176
:1009B000022A46D0012A3BD032B942E00B60486996
:1009C00020F0070040EA020C01F0F8004AF6AB22E2
:1009D0001038CAF6AA22A0FB02231A0948F690137F
:1009E000C0F600039A5C40F2FF335F284FF03F00EF
:1009F000C1F814C021EA030100FA02F088BF0431F3
:100A0000C4E916128860002301250020636584F87C
:100A10003550BDE8F08100BF032AD5D80125402319
:100A20000120DFE802F0030E030500BF82E700BFEC
:100A3000AEF1C070B0FA80F0400904E0032A04D39C
:100A4000C2D1CEF300600028BED001254023012092
:100A5000636584F83550BDE8F081000070B590F80A
:100A600034C0BCF1010F46D04FF0010C80F834C007
:100A7000D0F858E090F835C0BCF1010F38D14FF0F4
:100A8000020C80F835C04FF0000CC0F854C0D0F80C
:100A900000C08468056CC06DDCF80060402C26F452
:100AA0008026CCF80060CCF804300B4604BF134617
:100AB0000A463F2101FA00F0CCF80830CCF80C20AF
:100AC000CEF80800DCF8000040F01600CCF800007A
:100AD0002DB1DCF8000040F00800CCF80000DCF894
:100AE000000040F00100CCF80000002070BD00BF05
:100AF000002180F83410022070BD0000B0B504461B
:100B000000F01AF9054640F20000C2F20000007839
:100B1000611C18BF044400BF00F00EF9401BA04246
:100B2000FAD3B0BD80B582B0802809D0012815D194
:100B300000214FF0020CC4F202010120012208E062
:100B40000020C4F2020000F580614FF0400C8020CC
:100B500080220B46CDF800C004F03AFD02B080BD03
:100B600043F61441C4F201010A68024214BF08604E
:100B70007047FFF7D7BF00002DE9F04F82B000F1BA
:100B80003E4241F2000502F1FF77C4F2020507225E
:100B900043F6004E4FEAB726A84208BF0422C4F22B
:100BA000010E042E38BF4FEAB72201250026002788
:100BB0004FF00008009208E008F101080437B8F18E
:100BC000100F06F1020600F0A7800C6805FA08F97C
:100BD00014EA090FF0D0D1F804B003220BF0030C93
:100BE000ACF10104B240012C6FEA020A10D882680D
:100BF000CC6802EA0A02B440224382604268CBF326
:100C0000001422EA090204FA08F42243426005E0D3
:100C1000BCF1030F02D14FF0030C20E0C2688C68D6
:100C200002EA0A02B4402243BCF1020FC26016D1AC
:100C30006FF0030202EA58020244D2F820C007F023
:100C40001C050F230C69AB402CEA030304FA05F5DD
:100C50002B431362D1F804B001250BF0030C02689A
:100C60000CFA06F302EA0A021A431BF4403F026040
:100C7000A2D0002243F644030192C4F202031A6890
:100C80004FF6084C42F480421A601A68CFF6FF7C97
:100C900002F480420192019A28F00302724452F851
:100CA0000C3007F00C050F24AC40A343009C04FA61
:100CB00005F52B4342F80C30DEF808204B6842EA79
:100CC000090543F60C4CDC0258BF22EA0905CEF8B0
:100CD0000850C4F2010CDCF800209C0242EA09052D
:100CE00058BF22EA0905CCF80050DEF804209C0326
:100CF00042EA090558BF22EA0905CEF80450DEF899
:100D00000020DB0342EA090558BF22EA0905CEF8B4
:100D10000050012550E700BF02B0BDE8F08F000091
:100D20000069084018BF012070470000002A08BF72
:100D3000090481617047000040F24C20C2F20000BB
:100D40000068704740F2000040F24C21C2F20000FF
:100D5000C2F2000100780A68104408607047000081
:100D600080B543F60040C4F20200016841F400710E
:100D70000160016841F480610160016841F48071A3
:100D80000160032000F088F80F2000F005F800F063
:100D900027F8002080BD000070B540F20006C2F2C6
:100DA000000640F210013278C2F200014FF47A736B
:100DB0000968B3FBF2F20446B1FBF2F1084600F019
:100DC00025FE0F2C4FF0010508D838B94FF0FF3041
:100DD00021460022002500F033F87460284670BDDB
:100DE00082B0002043F640010190C4F202014A683B
:100DF00042F480424A604A6802F480420192019AB9
:100E00000090086840F080500860086800F080504A
:100E10000090009802B07047002848BF7047C1B2E8
:100E200000F01F00012202FA00F04EF20012CEF292
:100E3000000242EAD10121F003010860704700007E
:100E400010B54EF60C5CCEF2000CDCF80030C3F3AB
:100E5000022E8EF00704042C28BF0424BEF10303E5
:100E60004FF0FF3E0EFA04F438BF0023A14399402F
:100E70000EFA03F39A43114300F00F0200F16043AE
:100E80000901043A03F564436244002848BF02F1B3
:100E90000C03197010BD00004EF60C51CEF200018B
:100EA0000A684FF6FF031A4060F30A2242F080609E
:100EB00040F0FD70086070472DE9F041002800F017
:100EC0008B8043F60808C4F202080446D8F8F803F9
:100ED0000D4600F00700884207D288F8F853D8F88A
:100EE000F80300F00700A84276D12068810717D5E3
:100EF000410705D5D8F8001041F4E051C8F80010BA
:100F0000010705D5D8F8001041F46041C8F8001079
:100F1000D8F80010A26821F0F0011143C8F80010C1
:100F2000C0073FD1D8F8F80300F00700A84207D95E
:100F300088F8F853D8F8F80300F00700A8424BD11E
:100F40002068410707D5D8F80010E26821F4E05185
:100F50001143C8F80010000708D5D8F8000021692F
:100F600020F4604040EAC100C8F8000000F054F8E6
:100F7000D8F8001047F2B032C1F30311C0F60002F6
:100F8000515C40F2100220FA01F140F20400C2F27A
:100F900000000068C2F200021160FFF7FDFE0020B1
:100FA000BDE8F0816068811E022907D258F8081C4C
:100FB00089015CBF0120BDE8F08111E0012807D163
:100FC00058F8081C89035CBF0120BDE8F08107E0E8
:100FD00058F8081C890703D40120BDE8F08100BF40
:100FE000D8F8001021F003010843C8F80000FFF70B
:100FF000A3FE064641F28837D8F80000616800F089
:101000000C00B0EB810F8DD0FFF796FE801BB8422D
:10101000F2D90320BDE8F08110B543F60404C4F210
:101020000204606800F00C0008280BD0042819BFE7
:1010300042F20040C0F2F40047F64000C0F27D10DA
:1010400010BD00BF206821682368490247F64001AF
:10105000C0F27D1100F03F02C3F388105CBF42F282
:101060000041C0F2F401A1FB00010023FFF706F9E3
:1010700021680222C1F3014102EB4101B0FBF1F012
:1010800010BD00002DE9F04182B0002868D0044670
:10109000007843F60006C007C4F202060BD0B06821
:1010A00000F00C00042840F09F803068800302D5D7
:1010B0006068002854D0207880071AD5B06810F0F6
:1010C0000C0F09D0B06800F00C00082840F0A68092
:1010D0007068400200F1A2803068800702D5E068A5
:1010E00001283DD13068216920F0F80040EAC100B4
:1010F00030602078000737D4207840074CD4A569A9
:1011000055B3B06800F00C00082840F0BB80012DFA
:1011100026D07068E16900F480028A4220D1216AF9
:1011200000F03F028A421BD147F6C071626A01405B
:10113000B1EB821F14D1A16A4FF6FF73C903994323
:1011400000F44032A1F580318A4209D1E16A00F011
:101150007060B0EB016F03D1002002B0BDE8F081F8
:10116000012002B0BDE8F0816069002840F2000073
:10117000C4F2472076D00121C0F8801EFFF7DCFDC5
:10118000054600BF706F8007B6D4FFF7D5FD401B42
:101190000228F7D9DDE000BF306C10F080580AD18A
:1011A00000200190306C40F080503064306C00F0D2
:1011B00080500190019847F20007C4F20007386898
:1011C000C00541D4386840F480703860FFF7B4FD42
:1011D000054600BF3868C00536D4FFF7ADFD401B9B
:1011E0000228F7D9B5E000BFB06800F00C0008286D
:1011F00003D1706840023FF558AF6068B0F5803F9A
:1012000007D0B0F5A02F40F08D80306840F48020EA
:101210003060306840F4803030608DE0E068002855
:1012200052D00020C4F2472001210160FFF784FD65
:10123000054600BF306880073FF554AFFFF77CFDDF
:10124000401B0228F6D984E0A068012805D00528B3
:101250004ED1306F40F004003067306F40F0010035
:1012600030674FE00021C0F8801EFFF765FD05469E
:10127000706F80077FF540AFFFF75EFD401B0228CF
:10128000F6D966E00027C4F2472700203866FFF74A
:1012900053FD022D05460BD1306880015ED5FFF766
:1012A0004BFD401B02284FF00300F5D955E700BF66
:1012B000306880017FF550AFFFF73EFD401B0228EC
:1012C0004FF00300F4D948E70020C4F24720002182
:1012D0000160FFF731FD0546306880077FF509AFF3
:1012E000FFF72AFD401B02284FF00300F4D934E732
:1012F000316F002821F001013167316F21F00401C5
:1013000031674DD0FFF718FD054641F2883700BF21
:10131000306F800756D4FFF70FFD401BB842F7D956
:1013200017E000BF3168002821F480313160316856
:1013300021F4802131604FD0FFF7FEFC054600BF4D
:10134000306880033FF5B7AEFFF7F6FC401B64281A
:10135000F6D9032002B0BDE8F08100BF04F11C05FE
:101360002FCD084340EA8210D9034FF6FF72914314
:10137000A1F5803140EA05600843706001203866BD
:10138000FFF7DAFC044600BF306880013FF5E4AEA9
:10139000FFF7D2FC001B02284FF00300F4D9DCE673
:1013A000FFF7CAFC054641F2883700BF306F80075F
:1013B00008D5FFF7C1FC401BB8424FF00300F5D938
:1013C000CBE600BFB8F1000F7FF499AE306C20F08F
:1013D0008050306493E600BFFFF7AEFC054600BFC7
:1013E000306880037FF567AEFFF7A6FC401B6428DA
:1013F0004FF00300F4D9B0E670470000B0B582B0FA
:10140000044600684168826812F0400305D112F07A
:10141000010518BF11F0400512D1950708D511F04C
:10142000800505D0616C204602B0BDE8B040084799
:1014300012F4B07F18BF11F0200507D102B0B0BD83
:10144000216C204602B0BDE8B0400847BBB194F81B
:101450005130032B08D100210191C16801918068AE
:101460000190019802B0B0BD636D43F00403636561
:1014700000230193C368019383680193019B12F0D9
:10148000200302F4807203D18AB9626DDAB9D5E71C
:10149000636D43F001036365002301938368019347
:1014A000036823F040030360019B002AEDD0626DC6
:1014B00042F0080262650022019282680192019A5C
:1014C000626D002ABAD04268890722F0E0024260C9
:1014D0004FF0010284F8512020D0416844F2E175B8
:1014E00021F003014160E06CC0F6000538B10565EC
:1014F000FFF710F918B1606D40F040006065A06C16
:1015000000289BD00565FFF705F900283FF496AF4A
:10151000606D40F04000606502B0B0BD204602B092
:10152000BDE8B040FFF768BF70B538B10446406A07
:1015300030B10020206104F1140007E0012070BDEB
:101540006068B0F5827F03D004F11C0000210160C7
:101550000026A66294F8510020B9204684F8506015
:1015600000F03CF8022084F8510094E80F0001F4E8
:101570008271056802F4044225F0400505601144BB
:1015800003F400622369114403F002026369114409
:1015900003F00102A369E569114403F400721144E8
:1015A00005F03802256A114405F08002A56A11434E
:1015B00005F4005211430160626A042101EA1341FB
:1015C00002F0100211444160C16921F40061C1615F
:1015D0000120666584F85100304670BD70B586B054
:1015E0000446016843F20000C4F20100814201D0C8
:1015F00006B070BD002643F630010196C4F2020128
:101600004A6900F5504042F480524A614A6902F446
:1016100080520192019A01960A6842F001020A6022
:10162000096801F0010101910199E0210191022174
:10163000CDE90216032104910521059101A9FFF7C7
:101640009BFA40F2301546F25840C2F20005C4F24F
:1016500002004FF0C06140224FF4806385E84700EC
:101660002846C5E90436C5E90666C5E90866FFF7F8
:1016700043F9002818BFFFF749F823200021002272
:10168000A564AC63FFF7DCFB2320FFF7C5FB06B0C6
:1016900070BD00002DE9F04184B0044690F8500080
:1016A000012803D1022004B0BDE8F08101201D46CD
:1016B00016460F4684F85000FFF73EFB94F8511091
:1016C00001290DD18046002F4FF0010018BF002ED8
:1016D0000ED1002184F8501004B0BDE8F08100BFA5
:1016E0000220002184F8501004B0BDE8F08100BF52
:1016F0000320002184F8510061652763A686E686F1
:10170000A163A187E187A0682164B0F5004F20683C
:10171000616407D1016821F040010160016841F472
:10172000804101600168490603D4016841F040012D
:1017300001606168731EE268B1FA81F1B3FA83F364
:1017400049095B09B2F5006F41EA03013CD131B1AF
:1017500037F8021BC1602763E08E0138E086E08E17
:1017600000286BD0681C0CD11DE000BF216B31F844
:10177000022BC2602163E08E0138E086E08E0028F3
:101780005CD0206881688907F0D4FFF7D5FAA0EB18
:101790000800A842F2D30320BFE000BFFFF7CCFA55
:1017A000E08E00284AD0206881688907F6D5216B31
:1017B00031F8022BC2602163E08E0138E086E08EB2
:1017C0000028F0D13AE000BF39B139780173206BBD
:1017D00001302063E08E0138E086E08E70B3681C33
:1017E0000BD11BE0216B09780173206B0130206362
:1017F000E08E0138E086E08E00B3206881688907BA
:10180000F0D4FFF799FAA0EB0800A842F3D3032025
:1018100083E000BFFFF790FAE08E78B1206881681E
:101820008907F7D5216B09780173206B013020639C
:10183000E08E0138E086E08E0028EFD120460221BC
:1018400001222B46CDF8008003F06EF8D0B1606D18
:1018500040F02000606520206065A06838B9002055
:1018600002902068C1680291806802900298606DC1
:10187000002851D00120002184F8501004B0BDE8A8
:10188000F08100BF40F21000C2F20000006849F68B
:101890008171C1F25E61A0FB0101480D4FF47A71C4
:1018A000484303906068B0F5827F0BD120468021C9
:1018B00000222B46CDF8008003F036F80028C6D170
:1018C000CBE700BF03980028C7D0039801380390E6
:1018D000206880680006C0D503980028BDD0039812
:1018E00001380390206880680006B6D50398002868
:1018F000B3D0039801380390206880680006ACD507
:1019000003980028A9D003980138039020688068C4
:101910000006D7D4A1E700BF0020012184F85110B0
:10192000002184F8501004B0BDE8F08170B5044681
:1019300090F85000012804BF022070BD012084F8F7
:10194000500094F8510001280AD100294FF00100FD
:1019500018BF002A0AD1002184F8501070BD00BFC2
:101960000220002184F8501070BD00BF0320002326
:10197000264684F8510046F8543F2163A286E28649
:10198000A363C4E91033A387E387A0682268B0F596
:10199000004F07D1106820F040001060106840F43C
:1019A00080401060A06C44F60D0C44F61505C0F69E
:1019B000000CC0F60005C0E90F5C44F2ED75C0F6FE
:1019C0000005C0E91353E38E0C32FFF747F818B156
:1019D000012010210FE000BF26683068400603D4C4
:1019E000306840F04000306056F8040F022140F0AB
:1019F000200030600020326811433160002184F8FB
:101A0000501070BD7047000070470000411E00205C
:101A1000B0EB116F1CBF012070474EF21002CEF2E6
:101A2000000251604EF62351CEF20001F0230B70FC
:101A300007219060116070477047000070470000F8
:101A4000002804BF0120704710B5044690F83D00FF
:101A500028B9002084F83C00204600F01FF802203E
:101A600084F83D002068211D03F054F8012084F81B
:101A7000460084F83E0084F83F0084F8400084F873
:101A8000410084F8420084F8430084F8440084F85C
:101A9000450084F83D00002010BD000080B582B0F4
:101AA000006844F60001C4F2010188421CBF02B084
:101AB00080BD0020019043F64400C4F2020001689A
:101AC000002241F4802101600068002100F48020A0
:101AD000019001981A20FFF7B3F91A2002B0BDE86F
:101AE0008040FFF799B9000090F83D1001291CBF14
:101AF00001207047022180F83D10006840F6FF3257
:101B0000C168C4F20002904241F00101C1600FDCE3
:101B1000B0F1804F1DD040F20041C4F20001884274
:101B200017D040F60001C4F20001884211D017E03E
:101B300040F60041C4F2000188420AD044F200019C
:101B4000C4F20101884204D00021C4F2010188429C
:101B500006D1816801F00701062904BF0020704703
:101B6000016841F0010101600020704770470000EA
:101B700070B504460068C5680669B10716D515F04A
:101B8000020113D06FF00201016101212177806908
:101B9000800703D02046FFF7E9FF05E0204600F06C
:101BA0008FF8204600F08EF800202077700719D5B6
:101BB00015F0040016D020686FF0040101610221C5
:101BC0002177806910F4407F04D02046FFF7CEFFD4
:101BD00006E000BF204600F073F8204600F072F8DF
:101BE00000202077300717D515F0080014D02068A2
:101BF0006FF00801016104212177C069800703D0DB
:101C00002046FFF7B3FF05E0204600F059F82046D4
:101C100000F058F800202077F00619D515F01000D4
:101C200016D020686FF01001016108212177C0698A
:101C300010F4407F04D02046FFF798FF06E000BF75
:101C4000204600F03DF8204600F03CF800202077C8
:101C5000F00718BF15F0010002D1300609D412E0D8
:101C600020686FF001010161204600F02DF8300678
:101C700009D515F0800006D020686FF08001016161
:101C80002046FFF7D9FE700609D515F0400006D0B2
:101C900020686FF040010161204600F045F8B00671
:101CA00058BF70BD15F0200008D021686FF02002E9
:101CB00020460A61BDE87040FFF7C0BE70BD00005D
:101CC000704700007047000080B540F2E811C2F292
:101CD000000100680968884200D080BD03F0AAFCBA
:101CE00003F06CFB40F2A001C2F200018A78487058
:101CF0008242F2D04428887012D042280AD041286B
:101D000018BF80BD0A780220022A08BF032008708D
:101D100080BD00BF0878B0FA80F04009087080BD2F
:101D20000420087080BD000070470000FEE700003E
:101D30002DE9F04F03AF81B040F20048C4F2020831
:101D40008B4604464FEA410A404604210122BAF577
:101D5000FA7F28BF4FF4FA7BFEF7E8FF40460121E7
:101D60000022FEF7E3FF0BF1070020F00700ADEBC8
:101D70000006B546BBF1000F17D0200A002100BFB6
:101D80008B1C72185B45705454700ED20B1D5B4552
:101D90009070D47009D28B1D5B451071547104D2C0
:101DA000083159459071D471EAD3D34512D8BAFBA2
:101DB000FBF540F290191FFA8BF4C2F20009012DD5
:101DC00098BF01254846314622460A23FFF762FCA8
:101DD000013DF7D1BAFBFBF0314600FB1BA00A2303
:101DE00082B240F29010C2F20000FFF753FC40466E
:101DF00001210122FEF79AFFA7F10C04A546BDE8D8
:101E0000F08F00002DE9F04F87B0074601201C46F7
:101E100015460091A0EB42010022BB464FF0000A9C
:101E200000200690019718E0059A029B524403EBAC
:101E3000420000284D461946C4BF013D023100282A
:101E4000C8BF1A440698019F854200F101000AF1BB
:101E5000020AABF1010B069048DD02A880E8020CF3
:101E6000A7EB0508E819804505921CDC0098069947
:101E700001EB0009A0EB010A680000F1010B00BFB3
:101E80001FFA88F61FFA89F13046224600F054FA0C
:101E90001FFA8AF13046224600F04EFABBF1010BE0
:101EA00008F10108ECD10699DDE903AB781A394451
:101EB000A9468842B8DC00994FF0FF3509EB0108CC
:101EC000A1EB0907484600BF013505EB0B0086B2C0
:101ED0001FFA88F13046224600F02EFAB9B2304699
:101EE000224600F029FAAA45EED19DE707B0BDE8E9
:101EF000F08F0000B0B582B0151AAC46A3EB010418
:101F000048BFC5F1000C002DDDF818E048BF1046B1
:101F1000002C254648BF6542002C48BF19461FFAD1
:101F20008CF2ABB2CDF800E000F0C6FA02B0B0BD62
:101F30002DE9F04F87B0002A74D004460020A0EBB2
:101F40004200009040F0010801201D46A2F1010965
:101F50004FF0000A01220746069100BF0699CDE91D
:101F60000307514409EB04008EB2059280B231465A
:101F70002A46029000F0E0F906990AEB0400494471
:101F80008FB280B239462A46019000F0D5F9A4EB11
:101F90000A001FFA80FB584639462A4600F0CCF961
:101FA000A4EB090087B2384631462A4600F0C4F94E
:101FB00006982A46A0EB0A0086B23846314600F061
:101FC000BBF906982A46A0EB090087B25846394665
:101FD00000F0B2F9019839462A4600F0ADF90298AE
:101FE00031462A4600F0A8F9DDE90472B8F1010F84
:101FF000BCBF0AF1010A0237B8F1010F0398B8BF5C
:1020000080440099B8F1000F02F10200C4BFA9F1A9
:1020100001090246B8F1000F0144C8BF8844D14508
:1020200038469BDA07B0BDE8F08F00002DE9F04795
:102030000446DDF820A0101A0F4648BF404285B282
:10204000984691465E1A204639462A46534600F085
:1020500023F8204641462A46534600F01DF8002E3C
:1020600048BF7642B5B2204639462A46534600F06C
:1020700035FB484639462A46534600F02FFBA1451A
:1020800008BFB84506D0484641465246BDE8F0472D
:1020900000F052B9BDE8F08770B5154640F208026D
:1020A000C2F200021E465388834217D913888B421E
:1020B00098BF70BD53882C189C422B4602D9528879
:1020C000131A9DB2C218013A92B20B4601F036FBC8
:1020D00030462946BDE87040FFF72ABE70BD0000BB
:1020E0002DE9F04F83B0B3EB010C48BFCCF1000CED
:1020F000151A48BF6D42AC4508D90F4619468F42A4
:102100000AD8BE4606460F46104607E00746084670
:1021100011461A468F42F4D98E461646841BA7EB09
:102120000E0948BF6442DDF830A04FF0FF3BB042DB
:1021300088BF4FF0010BAC454FEA690540F27E8045
:10214000BE4500F2F58040F2080C0023C2F2000CFC
:10215000F046CDE9019A06E0134608F101081FFA9E
:1021600088F0B84246D82D1BB5F1FF3F03F10102BC
:10217000F2DC4BB3BCF80210B0B281422ED9BCF8ED
:1021800000301FFA8EF18B4228D91FFA82FABCF870
:1021900000901AFA8EF34B4505D9BCF80020A2EB4B
:1021A0000E021FFA82FA7244013A93B2024601F01B
:1021B000C5FA029851468246FFF7BAFD40F2080C74
:1021C000DDF8049008E000BFB0B21FFA8EF152466D
:1021D00000F0B2F840F2080CC2F2000C01205E449C
:1021E00010FA88FE4D44002308F101081FFA88F018
:1021F000B842B8D9002B00F09B80BCF80210B0B2F6
:10220000814240F29580BCF800201FFA8EF18A428C
:1022100040F28E809DB2BCF8002015FA8EF79742EE
:1022200004D9BCF80020A2EB0E039DB20EEB030212
:10223000013A93B2024601F081FA72E0BE4577D8C6
:1022400040F2080C0022C2F2000CF046CDF808A0C3
:1022500007E000BF1A4608F101081FFA88F0B842EB
:1022600042D82D1BB5F1FF3F02F10103F2DC2AB386
:10227000BCF802101FFA8EF0814229D9BCF8002068
:10228000B1B28A4224D9E246BCF802C010FA83F205
:10229000624584BFBAF80220A2EB0E030EEB0302E4
:1022A000013A1FFA83FA92B20B4601F047FA0298FC
:1022B00051468246FFF73CFD06E000BF1FFA8EF054
:1022C000B1B2524600F038F840F2080CC2F2000CED
:1022D00001205E4410FA88FE4D44002208F10108F6
:1022E0001FFA88F0B842BCD912B3BCF802101FFA2A
:1022F0008EF081421CD9BCF80030B1B28B4217D9A4
:10230000BCF8023010FA82F79F4284BFBCF802206A
:10231000A2EB0E0295B27244013A92B20B4601F062
:102320000DFA5046294603B0BDE8F04FFFF700BD57
:1023300003B0BDE8F08F00002DE9F04184B01446F1
:1023400040F20802C2F200025388834240F2B18098
:10235000064610880F46884240F2AB8040F20045A6
:10236000C4F20205284604210022FEF7DFFC2846BD
:1023700001210022FEF7DAFC40F290182A20C2F276
:1023800000088DF80D000DF10D0140460122FFF708
:10239000CDFA284604210122FEF7C8FC2846012177
:1023A0000122FEF7C3FC284601210022FEF7BEFCF5
:1023B000300A8DF80900701C010A8DF80B108DF899
:1023C0000C000DF109014046042201238DF80A603A
:1023D000FFF760F9284601210122FEF7A7FC2846F5
:1023E00004210022FEF7A2FC284601210022FEF76C
:1023F0009DFC2B208DF80E000DF10E0140460122B0
:10240000FFF794FA284604210122FEF78FFC2846A4
:1024100001210122FEF78AFC284601210022FEF755
:1024200085FC380A8DF80500781C010A8DF8071024
:102430008DF808000DF105014046042201238DF8B6
:102440000670FFF727F9284601210122FEF76EFCEE
:10245000284604210022FEF769FC284601210022BB
:10246000FEF764FC2C208DF80F000DF10F014046A3
:102470000122FFF75BFA284604210122FEF756FCF1
:10248000284601210122FEF751FC284601210022A5
:10249000FEF74CFC60BAADF803000DF103014046B5
:1024A00002220123FFF7F6F8284601210122FEF758
:1024B0003DFC04B0BDE8F081F0B581B040F2080405
:1024C000C2F20004069F6688864221D926888E4281
:1024D0001ED966881518B54284BF6288121A2688EC
:1024E0005D18B5421E4602D923885B1A9EB294B28B
:1024F00002440B44013A013B92B29BB201F01EF937
:1025000006FB04F1384601B0BDE8F040FFF710BC0F
:1025100001B0F0BD2DE9F04F8BB090F800C00192F2
:10252000BCF1000F049100F0D580169DDDE9144642
:1025300048F2E058C0F6000812E000BF049806997F
:1025400048F2E058084401300490DDE90210C0F67A
:10255000000810F801C00844BCF1000F00F0BA8078
:102560004FFA8CF1B1F1FF3F039021DD01214FF0D3
:10257000000E0C22029100BF08EB020757F80C7CFA
:10258000BC452BD008EB8E014F68BC451CD08F6832
:10259000BC451DD058F80270BC451DD00EF1040E8C
:1025A000BEF1EC0F02F11002E6D14FF0000917E086
:1025B0000CF0F001E0296DD0C02975D1417841EAD5
:1025C0000C2C0221D3E700BF0EF1010E06E000BF84
:1025D0000EF1020E02E000BF0EF1030E5FFA8EF95B
:1025E00040F24820C2F20000A0F8009035F819002F
:1025F0003178304410F803AC10F8047CB1EB0A01D8
:1026000098BF0021002F3A46069718BFBAF1000F75
:1026100094D0049A10F8010CD2B20592019A0027C6
:10262000104400EB010B00BF38B2C0F30270384415
:1026300001B200F0F800C910381A0A91C0B2802126
:1026400021FA00F009900598079738440027089070
:1026500035F819001A46811911F8028C0A990844B4
:1026600007FB08000999305C0BEB0708084208BF1C
:10267000224608981FFA88F180B29846FFF75CFE60
:1026800001374346BA45E3D1079F06980137874291
:10269000CAD153E741788278090241EA0C4101EB43
:1026A000020C032163E700BFBCF1F00F0CD34178AB
:1026B00082780904C77841EA0C6141EA022101EB02
:1026C000070C042153E700BF01204FF000090290DE
:1026D00086E700BF0BB0BDE8F08F000070B515466F
:1026E00040F20802C2F200021E465388834217D904
:1026F00013888B4298BF70BD13886C189C422B4680
:1027000002D91288531A9DB2CA18013A93B20246EE
:1027100001F014F830462946BDE87040FFF708BBC9
:1027200070BD0000B0B540F20805C2F200056A882D
:102730002B8804460020002101F000F868882988D1
:1027400041432046BDE8B040FFF7F2BA2DE9F04F13
:1027500081B040F20044C4F202042046022101226A
:1027600002274FF00108FEF7E1FA20464FF480619E
:102770000122FEF7DBFA2046012100220026FEF7A7
:10278000D5FA204602210022FEF7D0FA0120FEF7FA
:10279000B5F9204601210022FEF7C8FA0120FEF714
:1027A000ADF9204602210122FEF7C0FA20460121A0
:1027B0000022FEF7BBFA204604210022FEF7B6FAFB
:1027C00040F29015C2F200050DF1030128460122E6
:1027D0008DF80380FFF7AAF8204601210122FEF7B9
:1027E000A5FA0120FEF78AF9204601210022FEF712
:1027F0009DFA204604210022FEF798FACB208DF89E
:1028000003000DF1030128460122FFF78FF820464F
:1028100001210122FEF78AFA204604210122FEF757
:1028200085FA204601210022FEF780FA39208DF832
:1028300003000DF1030128460122FFF777F8204637
:1028400001210122FEF772FA204604210122FEF73F
:102850006DFA204601210022FEF768FA2C208DF83F
:1028600003000DF1030128460122FFF75FF820461F
:1028700001210122FEF75AFA204604210122FEF727
:1028800055FA204601210022FEF750FA0DF103010E
:10289000284601228DF80360FFF748F82046012101
:1028A0000122FEF743FA204604210122FEF73EFAF8
:1028B000204601210022FEF739FA34208DF803006A
:1028C0000DF1030128460122FFF730F820460121CF
:1028D0000122FEF72BFA204604210122FEF726FAF8
:1028E000204601210022FEF721FA0DF103012846BE
:1028F00001228DF80370FFF719F82046012101220B
:10290000FEF714FA204601210022FEF70FFA2046B6
:1029100004210022FEF70AFACF208DF803000DF102
:10292000030128460122FFF701F820460121012278
:10293000FEF7FCF9204604210122FEF7F7F92046B4
:1029400001210022FEF7F2F90DF1030128460122D0
:102950008DF80360FEF7EAFF204601210122FEF711
:10296000E5F9204604210122FEF7E0F92046012185
:102970000022FEF7DBF9C1208DF803000DF1030101
:1029800028460122C127FEF7D1FF2046012101225E
:10299000FEF7CCF9204604210122FEF7C7F92046B4
:1029A00001210022FEF7C2F930208DF803000DF15D
:1029B000030128460122FEF7B9FF2046012101222A
:1029C000FEF7B4F9204601210022FEF7AFF92046B8
:1029D00004210022FEF7AAF9E8208DF803000DF18A
:1029E000030128460122FEF7A1FF20460121012212
:1029F000FEF79CF9204604210122FEF797F92046B4
:102A000001210022FEF792F985208DF803000DF1D7
:102A1000030128460122FEF789FF204601210122F9
:102A2000FEF784F9204604210122FEF77FF92046B3
:102A300001210022FEF77AF90DF103012846012257
:102A40008DF80360FEF772FF204601210122FEF798
:102A50006DF9204604210122FEF768F92046012184
:102A60000022FEF763F978208DF803000DF10301D1
:102A700028460122FEF75AFF204601210122FEF7D7
:102A800055F9204601210022FEF750F92046042185
:102A90000022FEF74BF9EA208DF803000DF1030147
:102AA00028460122FEF742FF204601210122FEF7BF
:102AB0003DF9204604210122FEF738F92046012184
:102AC0000022FEF733F90DF10301284601228DF8AB
:102AD0000360FEF72BFF204601210122FEF726F9B5
:102AE000204604210122FEF721F92046012100227F
:102AF000FEF71CF90DF10301284601228DF8036051
:102B0000FEF714FF204601210122FEF70FF92046AF
:102B100001210022FEF70AF9204604210022FEF7D7
:102B200005F9ED208DF803000DF10301284601227F
:102B3000FEF7FCFE204601210122FEF7F7F82046B1
:102B400004210122FEF7F2F8204601210022FEF7BF
:102B5000EDF864208DF803000DF1030128460122F1
:102B6000FEF7E4FE204601210122FEF7DFF82046B1
:102B700004210122FEF7DAF8204601210022FEF7A7
:102B8000D5F803208DF803000DF10301284601223A
:102B9000FEF7CCFE204601210122FEF7C7F82046B1
:102BA00004210122FEF7C2F8204601210022FEF78F
:102BB000BDF812208DF803000DF103012846012213
:102BC000FEF7B4FE204601210122FEF7AFF82046B1
:102BD00004210122FEF7AAF8204601210022FEF777
:102BE000A5F881208DF803000DF10301284601228C
:102BF000FEF79CFE204601210122FEF797F82046B1
:102C000001210022FEF792F8204604210022FEF75F
:102C10008DF8F7208DF803000DF1030128460122FD
:102C2000FEF784FE204601210122FEF77FF82046B0
:102C300004210122FEF77AF8204601210022FEF746
:102C400075F820208DF803000DF1030128460122BC
:102C5000FEF76CFE204601210122FEF767F82046B0
:102C600001210022FEF762F8204604210022FEF72F
:102C70005DF8C0208DF803000DF103012846012204
:102C8000FEF754FE204601210122FEF74FF82046B0
:102C900004210122FEF74AF8204601210022FEF716
:102CA00045F823208DF803000DF103012846012289
:102CB000FEF73CFE204601210122FEF737F82046B0
:102CC00001210022FEF732F8204604210022FEF7FF
:102CD0002DF80DF10301284601228DF80370FEF74F
:102CE00025FE204601210122FEF720F8204604217E
:102CF0000122FEF71BF8204601210022FEF716F8FC
:102D000010208DF803000DF1030128460122FEF783
:102D10000DFE204601210122FEF708F82046012180
:102D20000022FEF703F8204604210022FDF7FEFFF3
:102D3000C5208DF803000DF1030128460122FEF79E
:102D4000F5FD204601210122FDF7F0FF2046042178
:102D50000122FDF7EBFF204601210022FDF7E6FFEF
:102D60003E208DF803000DF1030128460122FEF7F5
:102D7000DDFD204601210122FDF7D8FF2046042178
:102D80000122FDF7D3FF204601210022FDF7CEFFEF
:102D900028208DF803000DF1030128460122FEF7DB
:102DA000C5FD204601210122FDF7C0FF204601217B
:102DB0000022FDF7BBFF204604210022FDF7B6FFED
:102DC000C7208DF803000DF1030128460122FEF70C
:102DD000ADFD204601210122FDF7A8FF2046042178
:102DE0000122FDF7A3FF204601210022FDF79EFFEF
:102DF00086208DF803000DF1030128460122FEF71D
:102E000095FD204601210122FDF790FF204601217A
:102E10000022FDF78BFF204604210022FDF786FFEC
:102E200036208DF803000DF1030128460122FEF73C
:102E30007DFD204601210122FDF778FF2046042177
:102E40000122FDF773FF204601210022FDF76EFFEE
:102E500048208DF803000DF1030128460122FEF7FA
:102E600065FD204601210122FDF760FF204601217A
:102E70000022FDF75BFF204604210022FDF756FFEC
:102E80003A208DF803000DF1030128460122FEF7D8
:102E90004DFD204601210122FDF748FF2046042177
:102EA0000122FDF743FF204601210022FDF73EFFEE
:102EB00055208DF803000DF1030128460122FEF78D
:102EC00035FD204601210122FDF730FF204601217A
:102ED0000022FDF72BFF204604210022FDF726FFEC
:102EE000B1208DF803000DF1030128460122FEF701
:102EF0001DFD204601210122FDF718FF2046042177
:102F00000122FDF713FF204601210022FDF70EFFED
:102F10000DF10301284601228DF80360FEF706FD3E
:102F2000204601210122FDF701FF20460421012254
:102F3000FDF7FCFE204601210022FDF7F7FE1820D8
:102F40008DF803000DF1030128460122FEF7EEFC87
:102F5000204601210122FDF7E9FE20460121002241
:102F6000FDF7E4FE204604210022FDF7DFFEB62037
:102F70008DF803000DF1030128460122FEF7D6FC6F
:102F8000204601210122FDF7D1FE20460421012225
:102F9000FDF7CCFE204601210022FDF7C7FE0820E8
:102FA0008DF803000DF10301284601220827FEF7E2
:102FB000BDFC204601210122FDF7B8FE2046042178
:102FC0000122FDF7B3FE204601210022FDF7AEFEEF
:102FD00082208DF803000DF1030128460122FEF73F
:102FE000A5FC204601210122FDF7A0FE2046042178
:102FF0000122FDF79BFE204601210022FDF796FEEF
:1030000027208DF803000DF1030128460122FEF769
:103010008DFC204601210122FDF788FE204601217A
:103020000022FDF783FE204604210022FDF77EFEEC
:10303000F2208DF803000DF1030128460122FEF76E
:1030400075FC204601210122FDF770FE2046042177
:103050000122FDF76BFE204601210022FDF766FEEE
:103060000DF10301284601228DF80360FEF75EFC96
:10307000204601210122FDF759FE204601210022B0
:10308000FDF754FE204604210022FDF74FFE2620C6
:103090008DF803000DF1030128460122FEF746FCDE
:1030A000204601210122FDF741FE20460421012294
:1030B000FDF73CFE204601210022FDF737FE0DF111
:1030C0000301284601228DF80380FEF72FFC2046DD
:1030D00001210122FDF72AFE204601210022FDF7F1
:1030E00025FE204604210022FDF720FEE0208DF879
:1030F00003000DF1030128460122FEF717FC2046CC
:1031000001210122FDF712FE204604210122FDF7D4
:103110000DFE204601210022FDF708FE4FF00F0AA8
:103120000DF10301284601228DF803A0FEF7FEFBF6
:10313000204601210122FDF7F9FD2046042101224C
:10314000FDF7F4FD204601210022FDF7EFFD4FF0D1
:10315000310B0DF10301284601228DF803B0FEF773
:10316000E5FB204601210122FDF7E0FD2046042178
:103170000122FDF7DBFD204601210022FDF7D6FDEF
:103180002B208DF803000DF1030128460122FEF7E4
:10319000CDFB204601210122FDF7C8FD2046042178
:1031A0000122FDF7C3FD204601210022FDF7BEFDEF
:1031B0000C208DF803000DF1030128460122FEF7D3
:1031C000B5FB204601210122FDF7B0FD2046042178
:1031D0000122FDF7ABFD204601210022FDF7A6FDEF
:1031E0004FF00E090DF10301284601228DF80390DE
:1031F000FEF79CFB204601210122FDF797FD2046AA
:1032000004210122FDF792FD204601210022FDF755
:103210008DFD0DF10301284601228DF80370FEF7A4
:1032200085FB204601210122FDF780FD2046042177
:103230000122FDF77BFD204601210022FDF776FDEE
:103240004E208DF803000DF1030128460122FEF700
:103250006DFB204601210122FDF768FD2046042177
:103260000122FDF763FD204601210022FDF75EFDEE
:10327000F1208DF803000DF1030128460122FEF72D
:1032800055FB204601210122FDF750FD2046042177
:103290000122FDF74BFD204601210022FDF746FDEE
:1032A00037208DF803000DF1030128460122FEF7B7
:1032B0003DFB204601210122FDF738FD2046042177
:1032C0000122FDF733FD204601210022FDF72EFDEE
:1032D0004FF007080DF10301284601228DF8038005
:1032E000FEF724FB204601210122FDF71FFD2046A9
:1032F00004210122FDF71AFD204601210022FDF7DD
:1033000015FD10208DF803000DF103012846012260
:10331000FEF70CFB204601210122FDF707FD2046A8
:1033200004210122FDF702FD204601210022FDF7C4
:10333000FDFC03270DF10301284601228DF80370DF
:10334000FEF7F4FA204601210122FDF7EFFC2046AA
:1033500004210122FDF7EAFC204601210022FDF7AD
:10336000E5FC0DF10301284601228DF80390FEF7DC
:10337000DDFA204601210122FDF7D8FC2046042178
:103380000122FDF7D3FC204601210022FDF7CEFCEF
:1033900009208DF803000DF1030128460122FEF7F4
:1033A000C5FA204601210122FDF7C0FC2046042178
:1033B0000122FDF7BBFC204601210022FDF7B6FCEF
:1033C0000DF10301284601228DF80360FEF7AEFAE5
:1033D000204601210122FDF7A9FC204601210022FF
:1033E000FDF7A4FC204604210022FDF79FFCE1200C
:1033F0008DF803000DF1030128460122FEF796FA2D
:10340000204601210122FDF791FC204604210122E2
:10341000FDF78CFC204601210022FDF787FC0DF111
:103420000301284601228DF80360FEF77FFA20464B
:1034300001210122FDF77AFC204604210122FDF73B
:1034400075FC204601210022FDF770FC0DF10301FF
:10345000284601228DF80390FEF768FA20460121E4
:103460000122FDF763FC204604210122FDF75EFCEA
:10347000204601210022FDF759FC14208DF803009D
:103480000DF1030128460122FEF750FA20460121E2
:103490000122FDF74BFC204604210122FDF746FCEA
:1034A000204601210022FDF741FC0DF103012846D1
:1034B00001228DF80370FEF739FA2046012101221E
:1034C000FDF734FC204604210122FDF72FFC2046A5
:1034D00001210022FDF72AFC11260DF103012846E7
:1034E00001228DF80360FEF721FA20460121012216
:1034F000FDF71CFC204604210122FDF717FC2046A5
:1035000001210022FDF712FC0DF1030128460122E2
:103510008DF80380FEF70AFA204601210122FDF70B
:1035200005FC204604210122FDF700FC2046012174
:103530000022FDF7FBFB0DF10301284601228DF867
:1035400003B0FEF7F3F9204601210122FDF7EEFB5F
:10355000204604210122FDF7E9FB2046012100223B
:10356000FDF7E4FBC1208DF803000DF103012846AF
:103570000122FEF7DBF9204601210122FDF7D6FBEF
:10358000204604210122FDF7D1FB20460121002223
:10359000FDF7CCFB48208DF803000DF10301284610
:1035A0000122FEF7C3F9204601210122FDF7BEFBEF
:1035B000204604210122FDF7B9FB2046012100220B
:1035C000FDF7B4FB08208DF803000DF10301284638
:1035D0000122FEF7ABF9204601210122FDF7A6FBEF
:1035E000204604210122FDF7A1FB204601210022F3
:1035F000FDF79CFB0DF10301284601228DF803A085
:10360000FEF794F9204601210122FDF78FFB2046A9
:1036100004210122FDF78AFB204601210022FDF74B
:1036200085FB0C208DF803000DF1030128460122D3
:10363000FEF77CF9204601210122FDF777FB2046A9
:1036400004210122FDF772FB204601210022FDF733
:103650006DFB0DF10301284601228DF803B0FEF742
:1036600065F9204601210122FDF760FB2046042177
:103670000122FDF75BFB204601210022FDF756FBEE
:1036800036208DF803000DF1030128460122FEF7D4
:103690004DF9204601210122FDF748FB2046042177
:1036A0000122FDF743FB204601210022FDF73EFBEE
:1036B0000DF10301284601228DF803A0FEF736F92B
:1036C000204601210122FDF731FB20460121002285
:1036D000FDF72CFB204604210022FDF727FB0DF10E
:1036E0000301284601228DF80360FEF71FF92046EA
:1036F00001210122FDF71AFB1420FDF7FFF92046F6
:1037000001210022FDF712FB204604210022FDF7D3
:103710000DFB29208DF803000DF10301284601223D
:10372000FEF704F9204601210122FDF7FFFA0020EF
:1037300000F01CF901B0BDE8F08F00002DE9F04762
:1037400084B040F20044C4F202049246894607461F
:103750002046012100229846FDF7E8FA2046042180
:103760000022FDF7E3FA40F290152A20C2F200058C
:103770008DF805000DF1050128460122FEF7D6F867
:10378000204601210122FDF7D1FA20460421012221
:103790003E0AFDF7CBFA204601210022FDF7C6FACA
:1037A0000DF10601284601228DF80660FEF7BEF8ED
:1037B000204601210122FDF7B9FA20460421012209
:1037C000FDF7B4FA204601210022FDF7AFFA0DF112
:1037D0000701284601228DF80770FEF7A7F820465A
:1037E00001210122FDF7A2FA2046042101224FEA1D
:1037F0001A26FDF79BFA204601210022FDF796FAD2
:1038000002A9284601228DF80860FEF78FF82046AD
:1038100001210122FDF78AFA204604210122FDF749
:1038200085FA204601210022FDF780FA0DF10901F9
:10383000284601228DF809A0FEF778F820460121DC
:103840000122FDF773FA204601210022FDF76EFAEE
:10385000204604210022FDF769FA2B208DF80A008A
:103860000DF10A0128460122FEF760F820460121E9
:103870000122FDF75BFA2046042101224FEA1926B6
:10388000FDF754FA204601210022FDF74FFA0DF111
:103890000B01284601228DF80B60FEF747F8204601
:1038A00001210122FDF742FA204604210122FDF701
:1038B0003DFA204601210022FDF738FA03A92846E7
:1038C00001228DF80C90FEF731F8204601210122EB
:1038D000FDF72CFA2046042101224FEA1826FDF7B5
:1038E00025FA204601210022FDF720FA0DF10D01F5
:1038F000284601228DF80D60FEF718F820460121B8
:103900000122FDF713FA204604210122FDF70EFAE9
:10391000204601210022FDF709FA0DF10E0128468B
:1039200001228DF80E80FEF701F8204601210122C8
:10393000FDF7FCF9204601210022FDF7F7F92046AA
:1039400004210022FDF7F2F92C208DF80F000DF173
:103950000F0128460122FDF7E9FF2046012101223F
:10396000FDF7E4F904B0BDE8F087000070B582B05F
:1039700040F20044C4F20204054620460121002220
:10398000FDF7D4F9204604210022FDF7CFF93620B7
:103990008DF8030040F29010C2F200000DF1030117
:1039A0000122FDF7C3FF204601210122FDF7BEF9E8
:1039B0000120FDF7A3F8032D6AD8DFE805F003170F
:1039C0002B4500BF204604210122FDF7AFF9204618
:1039D00001210022FDF7AAF948208DF8040040F2E9
:1039E0009010C2F2000001A927E000BF2046042188
:1039F0000122FDF79BF9204601210022FDF796F9EF
:103A000028208DF8050040F29010C2F200000DF160
:103A100005012CE0204604210122FDF787F920460C
:103A200001210022FDF782F988208DF8060040F27E
:103A30009010C2F200000DF106010122FDF776FFA1
:103A40004FF4A075F02618E0204604210122FDF76E
:103A50006DF9204601210022FDF768F9E8208DF874
:103A6000070040F29010C2F200000DF107010122A0
:103A7000FDF75CFFF0254FF4A076204601210122DE
:103A8000FDF754F940F20800C2F2000046800580BC
:103A900002B070BD2DE9F04387B0002200290692E4
:103AA000059200F0598240F22C12C2F2000242F854
:103AB000201000EB400747F2C031C0F600013A0188
:103AC00040F200088A58CBF6FE7802EB080343F672
:103AD00030044FEAB323C4F20204042B01EB0717AE
:103AE00037D8DFE803F0030D17212B0000230193E3
:103AF000236843F001032360236803F0010326E0F9
:103B000000230193236843F002032360236803F03A
:103B100002031CE000230193236843F004032360A5
:103B2000236803F0040312E000230193236843F0A9
:103B300008032360236803F0080308E000230193CF
:103B4000236843F010032360236803F010030193FC
:103B5000019B00EB400001EB0016308A4FF000099A
:103B60000290022502A91046CDF80C900495FDF7AD
:103B700003F8786800EB08014FEAB121042938D82E
:103B8000DFE801F0040E18222C0000BF0021019193
:103B9000216841F001012160216801F0010126E066
:103BA00000210191216841F002012160216801F0AA
:103BB00002011CE000210191216841F00401216013
:103BC000216801F0040112E000210191216841F017
:103BD00008012160216801F0080108E0002101913D
:103BE000216841F010012160216801F0100101916C
:103BF0000199718A0495CDE9021902A9FCF7BCFF6D
:103C0000B86800EB08014FEAB121042937D8DFE892
:103C100001F0030D17212B0000210191216841F0D3
:103C200001012160216801F0010126E000210191DC
:103C3000216841F002012160216801F002011CE0CD
:103C400000210191216841F004012160216801F007
:103C5000040112E000210191216841F00801216076
:103C6000216801F0080108E000210191216841F07C
:103C700010012160216801F0100101910199B18AC0
:103C80004FF000090291022502A9CDF80C9004958D
:103C9000FCF772FFF86800EB08014FEAB121042934
:103CA00037D8DFE801F0030D17212B000021019127
:103CB000216841F001012160216801F0010126E045
:103CC00000210191216841F002012160216801F089
:103CD00002011CE000210191216841F004012160F2
:103CE000216801F0040112E000210191216841F0F6
:103CF00008012160216801F0080108E0002101911C
:103D0000216841F010012160216801F0100101914A
:103D10000199F18A0495CDE9021902A9FCF72CFF5B
:103D2000B06900EB08014FEAB121042937D8DFE878
:103D300001F0030D17212B0000210191216841F0B2
:103D400001012160216801F0010126E000210191BB
:103D5000216841F002012160216801F002011CE0AC
:103D600000210191216841F004012160216801F0E6
:103D7000040112E000210191216841F00801216055
:103D8000216801F0080108E000210191216841F05B
:103D900010012160216801F0100101910199318D1C
:103DA0000125029102A903950595FCF7E5FEF0694E
:103DB00000EB08014FEAB121042938D8DFE801F00F
:103DC000040E18222C0000BF00210191216841F04F
:103DD00001012160216801F0010126E0002101912B
:103DE000216841F002012160216801F002011CE01C
:103DF00000210191216841F004012160216801F056
:103E0000040112E000210191216841F008012160C4
:103E1000216801F0080108E000210191216841F0CA
:103E200010012160216801F0100101910199718D4B
:103E30000595CDE9021502A9FCF79EFE306A00EB5C
:103E400008014FEAB121042937D8DFE801F0030D5A
:103E500017212B0000210191216841F0010121600F
:103E6000216801F0010126E000210191216841F063
:103E700002012160216801F002011CE00021019192
:103E8000216841F004012160216801F0040112E081
:103E900000210191216841F008012160216801F0B1
:103EA000080108E000210191216841F01001216022
:103EB000216801F0100101910199B18D0125029154
:103EC00002A903950595FCF757FE706A00EB0801FF
:103ED0004FEAB121042938D8DFE801F0040E182296
:103EE0002C0000BF00210191216841F001012160F7
:103EF000216801F0010126E000210191216841F0D3
:103F000002012160216801F002011CE00021019101
:103F1000216841F004012160216801F0040112E0F0
:103F200000210191216841F008012160216801F020
:103F3000080108E000210191216841F01001216091
:103F4000216801F0100101910199F18D0595CDE9EC
:103F5000021502A9FCF710FE07B0BDE8F0830000CF
:103F60002DE9F04F95B047F2C03700EB4002C0F6A4
:103F7000000707EB02148046A069218DD4E901A651
:103F8000D4F80C9015010122CDE90F10FCF7CEFEFC
:103F9000E069618D012211900C91FCF7C7FE206A47
:103FA000A18D0122CDE90D01FCF7C0FE606AE18D13
:103FB0000122CDE91301FCF7B9FE7859218A0A9054
:103FC0000691FCF7ADFE618A83465046CDF82CA0E1
:103FD000B2460791FCF7A4FEA58A0646504629463C
:103FE000FCF79EFEE48A074648462146FCF798FE09
:103FF00047EA000141EA0B01314300F08582CDE937
:104000000367059040F22C10CDE9085ACDE901492B
:10401000C146BBF1000FC2F20000CDF8488000F0AD
:104020008982109CDDF83CA083462046514601223F
:10403000FCF77CFE0C9E119831460022FCF776FEC0
:10404000DDF834800E9D404629460022FCF76EFEC6
:10405000DDE913010022FCF769FE069F0A98394644
:10406000FCF75EFE5BF82910002818BF01200870DD
:10407000204651460022D146FCF758FEDDF844A008
:10408000314650460122FCF751FE404629460022A7
:10409000FCF74CFEDDF84CB0DDF850805846414648
:1040A0000022FCF743FE0A9D39462846FCF738FEFD
:1040B00040F22C11129AC2F2000151F8221000288D
:1040C00018BF01204870204649460022FCF72EFE0A
:1040D000504631460022FCF729FE0D9C0E9E2046DC
:1040E00031460122FCF722FE584641460022FCF7E9
:1040F0001DFE28463946FCF713FE40F22C11129A99
:10410000C2F2000151F82210002818BF0120887067
:10411000109849460022FCF709FE0C9950460022EF
:10412000FCF704FE204631460022FCF7FFFD58460E
:1041300041460122FCF7FAFD28463946FCF7F0FD1E
:1041400040B140F22C101299C2F2000050F8210048
:104150000121C1700398002800F0F481DDF840804F
:104160000F9D404629460122FCF7E0FD119EDDF837
:1041700030B0304659460022FCF7D8FDDDF83490C7
:104180000E9C484621460022FCF7D0FD139F14994F
:1041900038460022FCF7CAFDDDF81CA00B985146FA
:1041A000FCF7BEFD40F22C121299C2F2000252F846
:1041B0002110002818BF012008714046294600221E
:1041C000FCF7B4FD304659460122FCF7AFFD4846E6
:1041D00021460022FCF7AAFD1499384600223E46EB
:1041E000FCF7A4FD0B9F51463846FCF799FD129948
:1041F00040F22C12C2F2000252F82110002818BF1F
:1042000001204871404629460022FCF78FFD119D90
:10421000594628460022FCF789FD484621460122DE
:10422000FCF784FD149930460022B146FCF77EFD70
:10423000384651463E46FCF773FD40F22C17129962
:10424000C2F2000757F82110002818BF012088711A
:104250000F99404600220C46FCF768FD2846594657
:1042600000223D46FCF762FDDDE90D010022FCF76E
:104270005DFD149948460122FCF758FD3046514631
:10428000FCF74EFD20B11298012155F82000C171B4
:104290000498099E002800F06681109821460122AA
:1042A000A246FCF743FD119C0C9F20463946002294
:1042B000FCF73CFDDDF834B0DDF838805846414667
:1042C0000022FCF733FDDDE913010022FCF72EFD8F
:1042D000DDF8209030464946FCF722FD129900286F
:1042E00055F8211018BF0120109E08723046514623
:1042F0000022FCF71BFD204639460122FCF716FD83
:10430000584641460022FCF711FDDDE91305002265
:104310002946FCF70BFD099C49462046FCF700FDA9
:10432000129940F22C12C2F2000252F82110002819
:1043300018BF01204872304651460022FCF7F6FCB7
:10434000119E394630460022FCF7F0FC58464146A3
:104350000122FCF7EBFC139829460022FCF7E6FC4F
:1043600020464946FCF7DCFC129940F22C12C2F2BE
:10437000000252F82110002818BF012088721098FE
:10438000514600223546FCF7D1FC30463946002222
:10439000FCF7CCFC58464146DDF84C900022FCF777
:1043A000C5FC149948460122FCF7C0FC0899204638
:1043B000FCF7B6FC40B1129840F22C11C2F2000199
:1043C00051F820000121C1720598002800F0D68024
:1043D000109E514630460122FCF7A8FC0C9C284652
:1043E00021460022FCF7A2FCDDF83480DDF838B06D
:1043F000404659460022FCF799FCDDF850A048469B
:1044000051460022FCF792FCDDF80890019F4846D7
:104410003946FCF785FC129D40F22C11C2F20001D6
:1044200051F82510002818BF012008730F99304655
:104430000022FCF77BFC119821460122FCF776FC58
:10444000404659460022FCF771FC13985146002261
:10445000FCF76CFC48463946FCF762FC40F22C1134
:10446000C2F2000151F82510002818BF012048733E
:104470000F9930460022FCF759FC11982146002282
:10448000FCF754FC404659460122FCF74FFC1398B8
:1044900051460022FCF74AFC48463946FCF740FCEE
:1044A00040F22C11C2F2000151F82510002818BF6B
:1044B000012088730F9930460022FCF737FC1198D1
:1044C00021460022FCF732FC404659460022FCF708
:1044D0002DFC139851460122FCF728FC4846119DFB
:1044E000DDF83CA03946DDF84C90FCF719FC0028BB
:1044F00052D0129840F22C11C2F2000151F8200063
:104500000121C17348E000BF40F22C10C2F200004C
:1045100050F828000DF1300B0021DDE90FA6119DA8
:104520009BE81009DDF84C9041608160C16001603A
:1045300032E000BF50F829000021016003980028F4
:104540007FF40CAE40F22C151298C2F2000555F81B
:1045500020000F9CDDF84C90002141600498099EDA
:1045600000287FF49AAE1298002155F82000119D82
:10457000A2468160059800287FF42AAF129840F285
:104580002C11C2F200010DF1300B51F820009BE814
:104590001009109E0021C160304651460122FCF7EF
:1045A000C5FB284621460122FCF7C0FB4046594680
:1045B0000122FCF7BBFB14994846012215B0BDE867
:1045C000F04FFCF7B3BB000080B582B00020019033
:1045D00043F63000C4F202000168002241F4800179
:1045E00001600068002100F48000019001983B20E8
:1045F000FCF726FC3B2002B0BDE88040FCF70CBC79
:104600002DE9F04786B0002743F63000CDE9047766
:104610000097C4F202000168002641F00401016025
:104620000168C4F2020601F00401009100990097AC
:104630000168002241F080010160016801F0800101
:10464000009100990097016841F001010160016843
:1046500001F00101009100990097016841F0020109
:104660000160006849F61C7100F00200009000989B
:104670003046FCF75BFB06F58064204640F20F41B4
:10468000002240F20F49FCF751FB4FF4404001ADCE
:10469000CDE9010706F5006029460397FCF76CFA9F
:1046A0004FF0010A4FF4041830462946CDF804A013
:1046B000CDE90287FCF760FA0220CDE90107304618
:1046C00029460397FCF758FA48F60C70CDE9010A21
:1046D00030462946CDE90377FCF74EFA41F2100047
:1046E000CDE9010A03200490304629460397FCF7E0
:1046F00043FA20462946CDE9019ACDE90377FCF734
:104700003BFA4FF24000CDE90107204629460397C6
:10471000FCF732FA8020CDE90108204629460397AC
:10472000FCF72AFA062000210022FCF789FB06206C
:10473000FCF772FB172000210022FCF781FB1720F9
:10474000FCF76AFB06B0BDE8F087000080B540F2D8
:10475000901043F20001C2F20000C4F201014FF4D4
:10476000827200234FF4007C80E80E000A21C0E929
:104770000333C0E9053CC361C0E90833C0E90A312D
:10478000FCF7D2FE002808BF80BDBDE88040FBF7E3
:10479000BDBF000080B540F2E81044F60001C2F24F
:1047A0000000C4F201010023532241F2873C80E85B
:1047B0000E1003618361FDF743F9002808BF80BD37
:1047C000BDE88040FBF7A2BFFEE70000FEE7000067
:1047D0007047000040F29010C2F20000FCF70EBEDD
:1047E000806B0021C187C186FCF706BE806B016823
:1047F0004A6822F003024A60416D41F010014165B0
:10480000012180F85110FCF7F7BD0000806BFDF727
:10481000FBB80000B0B584B0846B0546FCF78CFA99
:1048200029680968C90531D4054620680122416814
:10483000642321F020014160416821F002014160C0
:1048400020460221009500F06FF828B3606D40F01B
:1048500020006065606D40F020006065A06838B998
:10486000002002902068C16802918068029002983E
:104870000020E086012084F85100606D30B12046B0
:1048800004B0BDE8B040FCF7B7BD00BF204604B09F
:10489000BDE8B040FDF7B6B840F21000C2F200002B
:1048A000006849F68171C1F25E61A0FB0101480D0B
:1048B0004FF47A71484303906068B0F5827F09D164
:1048C0002046802100226423009500F02DF8002866
:1048D000BCD1C3E703980028C0D0039801380390E7
:1048E000206880680006B9D503980028B6D00398E0
:1048F00001380390206880680006AFD5039800282F
:10490000ACD0039801380390206880680006A5D5D4
:1049100003980028A2D0039801380390206880688B
:104920000006D7D49AE700002DE9F04381B0089C37
:10493000984615460E468146FCF7FEF9201A00EB14
:104940000804FCF7F9F940F21001C2F2000109680D
:10495000C1F3CB3161430091D9F800108A6832402D
:10496000921BB2FA82F25209AA423DD0074618F1D0
:10497000010031D0FCF7E0F9C01BA04238D200980A
:1049800000990028A1F101010091D9F8001089686F
:1049900008BF044601EA0600801BB0FA80F0400917
:1049A000A842E7D120E000BF88683040801BB0FA01
:1049B00080F04009A84217D088683040801BB0FAC8
:1049C00080F04009A8420FD088683040801BB0FAC0
:1049D00080F04009A84207D088683040801BB0FAB8
:1049E00080F04009A842DFD1002001B0BDE8F0838B
:1049F000D9E900014268B1F5827F22F0E00242600D
:104A00000BD1D9F80810B1F5004F02D0B1F5806F85
:104A100003D1016821F040010160D9F82810B1F5F7
:104A2000005F07D1016821F400510160016841F481
:104A300000510160012089F85100002089F85000E0
:104A4000032001B0BDE8F08370470000FCF77AB99D
:104A5000B0B592B0002443F640000B94CDE9094470
:104A6000CDE907440594CDE90344CDE90144009420
:104A7000C4F202000168022541F080510160006823
:104A800000F080500090009847F200000094C4F2BB
:104A90000000016865F38F310160006800F4404058
:104AA000009000980120099010200A9008200E9094
:104AB0005420CDE90F050420119006A80695CDE9F4
:104AC0000C54FCF7DFFA18B172B600BFFEE700BF66
:104AD0000F20CDE901054FF48050CDE9040401A871
:104AE00002210394FCF7E8F910B172B6FEE700BFAB
:104AF00012B0B0BD4EF68850CEF20000016841F40D
:104B0000700101607047000040F2E810C2F200003E
:104B1000FDF72EB810B540F2FF7E0368C4F2000E18
:104B200040F2000C7045C4F2010C1DDD40F600029D
:104B3000C4F20002904220D060451ED040F60042F0
:104B4000C4F20002904218D04FF6FF72C4F2000285
:104B500090421CDC704525DCB0F1804F3AD040F229
:104B60000042C4F2000233E0B0F1804F05D040F2C1
:104B70000042C4F200029042E6D14A6823F070037A
:104B800013434FF6FF72C4F200029042E2DD44F29A
:104B9000FF32C4F20102904210DC60451AD044F2A8
:104BA000000213E040F60002C4F20002904211D06D
:104BB00040F60042C4F200020AE000BF44F60002E0
:104BC000C4F20102904205D044F20042C4F2010254
:104BD000904203D1CA6823F44073134323F0800248
:104BE0004B69D1F800E08C681A4360450260C462EA
:104BF000C0F828E002D10969CCF8301001214161E8
:104C00000169C90708BF10BD016921F001010161F7
:104C100010BD0000FEE70000B0B504460068A188A2
:104C2000FCF77EF8A1790546884203D0A571FCF710
:104C300083F8E060FCF780F8E168401A0F2813D38E
:104C4000E079257285420FD025B1204600F062F848
:104C500008E000BFFCF770F82061012020752046B5
:104C600000F018F8207AE071207D002808BFB0BD60
:104C7000FCF762F82169401A40F6B831884207D340
:104C8000002120462175BDE8B04000F041B800BFCA
:104C9000B0BD000040F2C001C2F2000101F11C02EF
:104CA000904219D00A1D90421CD140F2A000C2F2DD
:104CB00000000078002818BF704740F2B000C2F230
:104CC000000042894FF4B473B3FBF2F20089012370
:104CD000801A0B7015E000BF40F2A000C2F2000085
:104CE000007808B1704700BF40F2B000C2F2000087
:104CF00042894FF4B473B3FBF2F2008901230B70C5
:104D0000104440F2B001C2F2000108817047000077
:104D1000704700007047000010B540F2C004C2F2B6
:104D20000004201DFFF778FF04F11C00BDE81040CF
:104D3000FFF772BF0020FDF7F5BC000080281BD0F4
:104D4000012840F0808040F2A000C2F20000012162
:104D5000C1700178042937D0032943D0022972D1C8
:104D6000C18A828B01398BB29342C18201D209047C
:104D700069D10021C182704740F2A000C2F2000058
:104D8000012101710178012910D0002918BF704755
:104D9000418B4FF4B472B2FBF1F1028B511A8AB21B
:104DA000D2082C2A88BF002101837047C17C0139B9
:104DB000CAB2042AC17423D3427D0121C174511C9B
:104DC00041750A0621D146E0417C0139CAB2042A64
:104DD000417421D3027C01214174511C01740A06E3
:104DE0001FD142E0817C0139CAB2042A81741FD3E9
:104DF000027D01218174511C01750A061DD13EE01E
:104E0000090621D0417D0A0625D0C9B20B2924BF4D
:104E10000121417517E000BF09061FD0017C0A0679
:104E200023D0C9B2032922BF0121017470470AE0CF
:104E300009061DD0017D0A0621D0C9B20B2922BF67
:104E40000121017570477047427D0321C174511ED5
:104E500041750A06D9D10A2141757047027C0321A8
:104E60004174511E01740A06DBD10221017470479E
:104E7000027D03218174511E01750A06DDD10A21CC
:104E800001757047000000002DE9F04381B02DED61
:104E90000A8B82B0080C00EE100A40F2F807B8EE58
:104EA000400AC2F200077820782176224FF4FC6392
:104EB0004FF6FF7887ED030AFDF73AF8782078215E
:104EC0006E224FF6FF73FDF733F89FED990B9FEDC0
:104ED0009A9A9FED9ABA9FED9AAA9FED9ACA6FF09F
:104EE0002C0459EC105B00BF2D3400EE104AB8EED4
:104EF000C00A30EE090A10EE100A02F03FF92A4605
:104F00004B4601F043FF41EC180BB0EE480AF0EEBF
:104F1000680A00F0B9FF51EC100B01F0A9FCB0EEEB
:104F2000480AF0EE680A386101F012F851EC100BF3
:104F300001F09EFC97ED041A00EE100A21EE0B2AF8
:104F400032EE0A2ABDEEC22A786112EE100A20EE75
:104F50000B2A21EE0C1A20EE0C0A32EE0A2A31EE50
:104F60000A1A30EE0A0ABDEEC22ABDEEC11ABDEE23
:104F7000C00A12EE101A11EE102A10EE103A7880C4
:104F8000B980FA803B81CDF80080FDF7A9F8B4F52F
:104F90009D7FA9D99FED6CBA6FF059060BE000BF59
:104FA0007888B98803221F23FCF72CFFB4F5AF7F64
:104FB00006F10A064ED2304606F15A0401F0BBFE55
:104FC0002A464B4601F0E2FE41EC180BB0EE480ACF
:104FD000F0EE680A00F058FF51EC100B01F048FCAD
:104FE000B0EE480AF0EE680A386100F0B1FF51EC0B
:104FF000100B01F03DFC97ED041A00EE100A21EEB3
:105000000B1A20EE0B0A31EE0A1A30EE0A0ABDEE38
:10501000C11ABDEEC00A786111EE100A10EE101A26
:105020001F227880B980FDF787F9B32C04DC44B1E6
:105030005A2CB5D0BAE700BFB4F5877FB0D0B42CF6
:10504000B4D17888B98803221F23FCF7DBFE002E39
:10505000ACD1A5E797ED030A30EE090A10EE100A6D
:1050600002F08CF82A464B4601F090FE41EC100B02
:1050700000F00AFF51EC100B01F0FAFB97ED030A68
:10508000386130EE090A10EE100A02F077F82A466D
:105090004B4601F07BFE41EC100B00F059FF51EC48
:1050A000100B01F0E5FB40F20C05C2F200052A8866
:1050B0006988786100241046782279230094FDF7EE
:1050C0000FF897ED040A9FED212A9FED213A20EE7B
:1050D000020A97ED051A30EE030ABDEEC00A10EE83
:1050E000100A21EE020A30EE030ABDEEC00A10EEED
:1050F000101A7822792328806980CDF80080FCF787
:10510000EFFF7820792103224FF47843FCF710FF5A
:1051100064208D21A022A0230094FCF7EBFE02B0B6
:10512000BDEC0A8B01B0BDE8F08300BF00BF00BF3B
:1051300011E7FAA146DF913F0000B4C20000E4424B
:105140000000F0420000C8420000CC420000B4421F
:105150000000F242000000002DE9F0412DED0E8B21
:1051600084B095B2140C7820782176224FF4FC6339
:105170004FF6FF77FCF7DCFE782078216E224FF6A1
:10518000FF73FCF7D5FE4FF4B470B0FBF4F640F2B9
:10519000F804C2F20004B5FBF6F204F128087CA181
:1051A0004046FBF7E3F800EE106AB8EE400A84EDE3
:1051B000060A00EE105AB8EE400A84ED030A9FED8D
:1051C000720B9FED76AA9FED769A9FED76BA9FEDD2
:1051D00076CA9FED76DA9FED76EA55EC106B00BF4C
:1051E0003AEE090A10EE100A01F0C8FF32462B46CB
:1051F00001F0CCFD41EC180BB0EE480AF0EE680A65
:1052000000F042FE51EC100B01F032FBB0EE480A08
:10521000F0EE680A206100F09BFE51EC100B01F0EB
:1052200027FB94ED041A00EE100A21EE0B2A32EE51
:105230000C2ABDEEC22A606112EE100A20EE0B2A83
:1052400021EE0D1A20EE0D0A32EE0C2A31EE0C1A68
:1052500030EE0C0ABDEEC22ABDEEC11ABDEEC00A88
:1052600012EE101A11EE102A10EE103A6080A18092
:10527000E28023810097FCF733FF94ED060A3AEEB3
:1052800000AAB4EE4EAAF1EE10FAA9DB94ED030ADF
:1052900030EE090A10EE100A01F070FF32462B467C
:1052A00001F074FD41EC100B00F0EEFD51EC100B21
:1052B00001F0DEFA94ED030A206130EE090A10EEE7
:1052C000100A01F05BFF32462B4601F05FFD41EC16
:1052D000100B00F03DFE51EC100B01F0C9FA40F24A
:1052E0000C06C2F200063288718860610025104603
:1052F000782279230095FCF7F3FE94ED040A9FEDE4
:105300002D2A9FED2D3A20EE020A94ED051A30EE7B
:10531000030ABDEEC00A10EE100A21EE020A30EEBA
:10532000030ABDEEC00A10EE101A782279233080ED
:1053300071800097FCF7D4FE7820792103224FF486
:105340007843FCF7F5FD64208D21A022A023009571
:10535000FCF7D0FD47F2F03048F20647C0F60000F7
:10536000C0F60007CDE90050404664218D224FF47D
:1053700078430297FDF7CEF804B0BDEC0E8BBDE884
:10538000F08100BF00BF00BF11E7FAA146DF913FE7
:1053900047C3B363203A20256400000000000000EA
:1053A0000000B4C20000E4420000F0420000C84225
:1053B0000000B4430000B4420000F24240F2382042
:1053C000C2F20000417B012906D140F22800C2F25E
:1053D00000000078C0B270470178012906D140F280
:1053E0002800C2F200004078C0B27047417801291D
:1053F00006D140F22800C2F200008078C0B27047A7
:105400008178012906D140F22800C2F20000C0785C
:10541000C0B270470179012906D140F22800C2F2DA
:1054200000000079C0B270474179012906D140F2ED
:105430002800C2F200004079C0B27047817901298A
:1054400006D140F22800C2F200008079C0B2704755
:10545000017A012906D140F22800C2F20000C07989
:10546000C0B27047417A012906D140F22800C2F249
:105470000000007AC0B27047817A012906D140F25B
:105480002800C2F20000407AC0B27047017B0129B7
:1054900006D140F22800C2F20000807AC0B2704704
:1054A000817B012906D140F22800C2F20000C07AB7
:1054B000C0B27047C178012906D140F22800C2F27B
:1054C0000000007BC0B27047C179012906D140F2CB
:1054D0002800C2F20000407BC0B27047C17A0129A7
:1054E00006D140F22800C2F20000807BC0B27047B3
:1054F000C17B40F22800C2F20000C07B012918BF26
:105500007820C0B27047000010B582B09BB200F0A6
:10551000E1F94FF4FC640A200A214FF49B72412305
:105520000094FCF783FD0A2041214FF49B727823FD
:105530000094FCF77BFD0A2078214FF49B72AF2387
:105540000094FCF773FD0A20AF214FF49B72E62311
:105550000094FCF76BFD0A200A214FF49B72E623AE
:105560000094FCF763FD02B010BD000010B582B0DE
:105570009BB200F03DFA4FF4FC640A200A214FF47C
:105580009B7241230094FCF751FD0A2041214FF406
:105590009B7278230094FCF749FD0A2078214FF490
:1055A0009B72AF230094FCF741FD0A20AF214FF41A
:1055B0009B72E6230094FCF739FD0A200A214FF480
:1055C0009B72E6230094FCF731FD02B010BD000091
:1055D000F0B581B01D4616460446FBF7ADFB40F220
:1055E0003027C2F20007D7E90012401A4FF000013D
:1055F0009141153871F1000019D3B44212D1069EC1
:1056000028463146FBF78CFB012803D12046FFF7E3
:1056100095FB07E028463146FBF782FB10B9204690
:1056200000F00CF8FBF788FB0021C7E9000101B08E
:10563000F0BD00000020FEF793BC000080281BD0C6
:10564000012840F07E8040F2A000C2F2000001215B
:10565000C1700178042937D0032943D0022970D1C1
:10566000C18A828B01318BB29342C18201D209047B
:1056700067D10021C182704740F2A000C2F2000051
:10568000012101710178012912D0002959D1418BE2
:105690004FF4B472B2FBF1F1028B11448AB2B2F54D
:1056A000B47F018301D209044BD1002101837047EB
:1056B000C17C0131CAB2042AC17421D3427D0121C7
:1056C000C174511C41757047417C0131CAB2042A32
:1056D00041741FD3027C01214174511C01740A06DC
:1056E0001DD136E0817C0131CAB2042A81741DD3F8
:1056F000027D01218174511C01750A061BD132E023
:10570000090618BF7047427D0321C174511E4175BF
:1057100017E000BF090615D0017C0A0619D0C9B2EE
:10572000032922BF0121017470470AE0090613D042
:10573000017D0A0617D0C9B20B2922BF01210175CC
:1057400070477047027C03214174511E01740A06A0
:10575000E5D1022101747047027D03218174511E3D
:1057600001750A06E7D10A2101757047B0B540F20C
:10577000C00540F60004C2F20005C4F20204281D70
:1057800021464FF48042FAF7A5FF05F11C0021469F
:105790004FF40042BDE8B040FAF79CBF80B5FCF77B
:1057A000D5FF0020FCF7BEFF0320BDE88040FEF7D8
:1057B000DDB8000080B540F23821C2F200010020BF
:1057C000FEF768F940F2E810C2F20000BDE8804040
:1057D000FCF78AB982B0FBF7C3FAFFF739F9FEF795
:1057E0000FFFFEF7F1FEFEF7B1FFFEF7D3FF40F229
:1057F000A0052020C2F20005C0F26810C5F81A000A
:105800004FF00130286140F20110A882FFF7C6FF77
:10581000FFF7ACFFFFF7CEFF40F238084FF6FF79F5
:105820000027C2F2000819E0EF702F7140F2C000AB
:10583000C2F2000005F11003B5F81CC0077028780B
:105840000ECB2AEA090606EB0C0ACDF800A0FAF7FF
:10585000D5FEFBF771FAC5E9020700BFFFF75CFA56
:10586000AB8B05F1100224EA090407CA1C44234645
:10587000FAF7DAFEFBF760FAD5E90212401A67EB95
:105880000201653871F10000E8D398F8001028781B
:10589000814211D088F80000FFF74CFA05F110039F
:1058A000B5F81CC028780ECB2BEA090606EB0C0BCA
:1058B000CDF800B0FAF7A2FEE8780028B4D140F2A3
:1058C000C001C2F200012879097808430006ABD173
:1058D000BFE700002DE9F0438DB00DF116050C4631
:1058E000CAB23CA12846FAF741FD00263220192110
:1058F000FA2237230096FCF7FDFA48F2064847F2F1
:10590000F039C0F60008C0F60009284632211E22F0
:105910004FF47843CDE90069CDF80880FCF7FAFD33
:105920001E205021C8226E2304EB44070096FCF78A
:10593000E1FA48F6981507F1FE00C0F6000503AC41
:10594000C2B220462946FAF711FD20461E215522F3
:105950004FF47843CDE90069CDF80880FCF7DAFD13
:105960001E208721C822A523ADF81460CDE9036667
:105970000096FCF7BFFA781EC2B220462946FAF715
:10598000F5FC20461E218C224FF47843CDE90069B6
:10599000CDF80880FCF7BEFD1E20BE21C822DC2306
:1059A000ADF81460CDE903660096FCF7A3FAFAB2ED
:1059B00020462946FAF7DAFC20461E21C3224FF47E
:1059C0007843CDE90069CDF80880FCF7A3FD0DB060
:1059D000BDE8F083414E474C452028412909203C31
:1059E0002050414745203A202564203E0000000019
:1059F0002DE9F04790B00DF12204C1F307223CA13C
:105A00002046FAF7B3FC002532201921FA22372369
:105A10000095FCF76FFA48F2064847F2F039C0F6F5
:105A20000008C0F60009204632211E224FF47843B8
:105A3000CDE90059CDF80880FCF76CFD1E205021FF
:105A4000C8226E230095FCF755FA43F6202A44F647
:105A5000541744F6527604ACC0F2200AC4F64F67DD
:105A6000C4F2541620461E2155224FF47843CDF837
:105A700018A005970496CDE90059CDF80880FCF7E9
:105A800049FD1E208721C822A523CDF81B5006956D
:105A9000CDE904550095FCF72DFA04A880E8C00470
:105AA00020461E218C224FF47843CDE90059CDF8D1
:105AB0000880FCF72FFD1E20BE21C822DC23CDF874
:105AC0001B500695CDE904550095FCF713FA04A880
:105AD00080E8C00420461E21C3224FF47843CDE95C
